{
	"compilerInput": "{\"language\":\"Solidity\",\"sources\":{\"NextProVista.sol\":{\"content\":\"// SPDX-License-Identifier: MIT\\n// Compatible with OpenZeppelin Contracts ^5.0.0\\npragma solidity ^0.8.22;\\n\\nimport {ERC20Upgradeable} from \\\"@openzeppelin/contracts-upgradeable@5.2.0/token/ERC20/ERC20Upgradeable.sol\\\";\\nimport {ERC20PermitUpgradeable} from \\\"@openzeppelin/contracts-upgradeable@5.2.0/token/ERC20/extensions/ERC20PermitUpgradeable.sol\\\";\\nimport {ERC20VotesUpgradeable} from \\\"@openzeppelin/contracts-upgradeable@5.2.0/token/ERC20/extensions/ERC20VotesUpgradeable.sol\\\";\\nimport {Initializable} from \\\"@openzeppelin/contracts-upgradeable@5.2.0/proxy/utils/Initializable.sol\\\";\\nimport {NoncesUpgradeable} from \\\"@openzeppelin/contracts-upgradeable@5.2.0/utils/NoncesUpgradeable.sol\\\";\\nimport {OwnableUpgradeable} from \\\"@openzeppelin/contracts-upgradeable@5.2.0/access/OwnableUpgradeable.sol\\\";\\nimport {UUPSUpgradeable} from \\\"@openzeppelin/contracts-upgradeable@5.2.0/proxy/utils/UUPSUpgradeable.sol\\\";\\n\\n/// @custom:security-contact rucryptowhale@gmail.com\\ncontract NextProVista is Initializable, ERC20Upgradeable, ERC20PermitUpgradeable, ERC20VotesUpgradeable, OwnableUpgradeable, UUPSUpgradeable {\\n    /// @custom:oz-upgrades-unsafe-allow constructor\\n    constructor() {\\n        _disableInitializers();\\n    }\\n\\n    function initialize(address recipient, address initialOwner)\\n        public initializer\\n    {\\n        __ERC20_init(\\\"Next Pro Vista\\\", \\\"NPV\\\");\\n        __ERC20Permit_init(\\\"Next Pro Vista\\\");\\n        __ERC20Votes_init();\\n        __Ownable_init(initialOwner);\\n        __UUPSUpgradeable_init();\\n\\n        _mint(recipient, 381654729 * 10 ** decimals());\\n    }\\n\\n    function clock() public view override returns (uint48) {\\n        return uint48(block.timestamp);\\n    }\\n\\n    // solhint-disable-next-line func-name-mixedcase\\n    function CLOCK_MODE() public pure override returns (string memory) {\\n        return \\\"mode=timestamp\\\";\\n    }\\n\\n    function _authorizeUpgrade(address newImplementation)\\n        internal\\n        override\\n        onlyOwner\\n    {}\\n\\n    // The following functions are overrides required by Solidity.\\n\\n    function _update(address from, address to, uint256 value)\\n        internal\\n        override(ERC20Upgradeable, ERC20VotesUpgradeable)\\n    {\\n        super._update(from, to, value);\\n    }\\n\\n    function nonces(address owner)\\n        public\\n        view\\n        override(ERC20PermitUpgradeable, NoncesUpgradeable)\\n        returns (uint256)\\n    {\\n        return super.nonces(owner);\\n    }\\n}\\n\"},\"@openzeppelin/contracts-upgradeable@5.2.0/proxy/utils/UUPSUpgradeable.sol\":{\"content\":\"// SPDX-License-Identifier: MIT\\n// OpenZeppelin Contracts (last updated v5.2.0) (proxy/utils/UUPSUpgradeable.sol)\\n\\npragma solidity ^0.8.22;\\n\\nimport {IERC1822Proxiable} from \\\"@openzeppelin/contracts/interfaces/draft-IERC1822.sol\\\";\\nimport {ERC1967Utils} from \\\"@openzeppelin/contracts/proxy/ERC1967/ERC1967Utils.sol\\\";\\nimport {Initializable} from \\\"./Initializable.sol\\\";\\n\\n/**\\n * @dev An upgradeability mechanism designed for UUPS proxies. The functions included here can perform an upgrade of an\\n * {ERC1967Proxy}, when this contract is set as the implementation behind such a proxy.\\n *\\n * A security mechanism ensures that an upgrade does not turn off upgradeability accidentally, although this risk is\\n * reinstated if the upgrade retains upgradeability but removes the security mechanism, e.g. by replacing\\n * `UUPSUpgradeable` with a custom implementation of upgrades.\\n *\\n * The {_authorizeUpgrade} function must be overridden to include access restriction to the upgrade mechanism.\\n */\\nabstract contract UUPSUpgradeable is Initializable, IERC1822Proxiable {\\n    /// @custom:oz-upgrades-unsafe-allow state-variable-immutable\\n    address private immutable __self = address(this);\\n\\n    /**\\n     * @dev The version of the upgrade interface of the contract. If this getter is missing, both `upgradeTo(address)`\\n     * and `upgradeToAndCall(address,bytes)` are present, and `upgradeTo` must be used if no function should be called,\\n     * while `upgradeToAndCall` will invoke the `receive` function if the second argument is the empty byte string.\\n     * If the getter returns `\\\"5.0.0\\\"`, only `upgradeToAndCall(address,bytes)` is present, and the second argument must\\n     * be the empty byte string if no function should be called, making it impossible to invoke the `receive` function\\n     * during an upgrade.\\n     */\\n    string public constant UPGRADE_INTERFACE_VERSION = \\\"5.0.0\\\";\\n\\n    /**\\n     * @dev The call is from an unauthorized context.\\n     */\\n    error UUPSUnauthorizedCallContext();\\n\\n    /**\\n     * @dev The storage `slot` is unsupported as a UUID.\\n     */\\n    error UUPSUnsupportedProxiableUUID(bytes32 slot);\\n\\n    /**\\n     * @dev Check that the execution is being performed through a delegatecall call and that the execution context is\\n     * a proxy contract with an implementation (as defined in ERC-1967) pointing to self. This should only be the case\\n     * for UUPS and transparent proxies that are using the current contract as their implementation. Execution of a\\n     * function through ERC-1167 minimal proxies (clones) would not normally pass this test, but is not guaranteed to\\n     * fail.\\n     */\\n    modifier onlyProxy() {\\n        _checkProxy();\\n        _;\\n    }\\n\\n    /**\\n     * @dev Check that the execution is not being performed through a delegate call. This allows a function to be\\n     * callable on the implementing contract but not through proxies.\\n     */\\n    modifier notDelegated() {\\n        _checkNotDelegated();\\n        _;\\n    }\\n\\n    function __UUPSUpgradeable_init() internal onlyInitializing {\\n    }\\n\\n    function __UUPSUpgradeable_init_unchained() internal onlyInitializing {\\n    }\\n    /**\\n     * @dev Implementation of the ERC-1822 {proxiableUUID} function. This returns the storage slot used by the\\n     * implementation. It is used to validate the implementation's compatibility when performing an upgrade.\\n     *\\n     * IMPORTANT: A proxy pointing at a proxiable contract should not be considered proxiable itself, because this risks\\n     * bricking a proxy that upgrades to it, by delegating to itself until out of gas. Thus it is critical that this\\n     * function revert if invoked through a proxy. This is guaranteed by the `notDelegated` modifier.\\n     */\\n    function proxiableUUID() external view virtual notDelegated returns (bytes32) {\\n        return ERC1967Utils.IMPLEMENTATION_SLOT;\\n    }\\n\\n    /**\\n     * @dev Upgrade the implementation of the proxy to `newImplementation`, and subsequently execute the function call\\n     * encoded in `data`.\\n     *\\n     * Calls {_authorizeUpgrade}.\\n     *\\n     * Emits an {Upgraded} event.\\n     *\\n     * @custom:oz-upgrades-unsafe-allow-reachable delegatecall\\n     */\\n    function upgradeToAndCall(address newImplementation, bytes memory data) public payable virtual onlyProxy {\\n        _authorizeUpgrade(newImplementation);\\n        _upgradeToAndCallUUPS(newImplementation, data);\\n    }\\n\\n    /**\\n     * @dev Reverts if the execution is not performed via delegatecall or the execution\\n     * context is not of a proxy with an ERC-1967 compliant implementation pointing to self.\\n     * See {_onlyProxy}.\\n     */\\n    function _checkProxy() internal view virtual {\\n        if (\\n            address(this) == __self || // Must be called through delegatecall\\n            ERC1967Utils.getImplementation() != __self // Must be called through an active proxy\\n        ) {\\n            revert UUPSUnauthorizedCallContext();\\n        }\\n    }\\n\\n    /**\\n     * @dev Reverts if the execution is performed via delegatecall.\\n     * See {notDelegated}.\\n     */\\n    function _checkNotDelegated() internal view virtual {\\n        if (address(this) != __self) {\\n            // Must not be called through delegatecall\\n            revert UUPSUnauthorizedCallContext();\\n        }\\n    }\\n\\n    /**\\n     * @dev Function that should revert when `msg.sender` is not authorized to upgrade the contract. Called by\\n     * {upgradeToAndCall}.\\n     *\\n     * Normally, this function will use an xref:access.adoc[access control] modifier such as {Ownable-onlyOwner}.\\n     *\\n     * ```solidity\\n     * function _authorizeUpgrade(address) internal onlyOwner {}\\n     * ```\\n     */\\n    function _authorizeUpgrade(address newImplementation) internal virtual;\\n\\n    /**\\n     * @dev Performs an implementation upgrade with a security check for UUPS proxies, and additional setup call.\\n     *\\n     * As a security check, {proxiableUUID} is invoked in the new implementation, and the return value\\n     * is expected to be the implementation slot in ERC-1967.\\n     *\\n     * Emits an {IERC1967-Upgraded} event.\\n     */\\n    function _upgradeToAndCallUUPS(address newImplementation, bytes memory data) private {\\n        try IERC1822Proxiable(newImplementation).proxiableUUID() returns (bytes32 slot) {\\n            if (slot != ERC1967Utils.IMPLEMENTATION_SLOT) {\\n                revert UUPSUnsupportedProxiableUUID(slot);\\n            }\\n            ERC1967Utils.upgradeToAndCall(newImplementation, data);\\n        } catch {\\n            // The implementation is not UUPS\\n            revert ERC1967Utils.ERC1967InvalidImplementation(newImplementation);\\n        }\\n    }\\n}\\n\"},\"@openzeppelin/contracts-upgradeable@5.2.0/access/OwnableUpgradeable.sol\":{\"content\":\"// SPDX-License-Identifier: MIT\\n// OpenZeppelin Contracts (last updated v5.0.0) (access/Ownable.sol)\\n\\npragma solidity ^0.8.20;\\n\\nimport {ContextUpgradeable} from \\\"../utils/ContextUpgradeable.sol\\\";\\nimport {Initializable} from \\\"../proxy/utils/Initializable.sol\\\";\\n\\n/**\\n * @dev Contract module which provides a basic access control mechanism, where\\n * there is an account (an owner) that can be granted exclusive access to\\n * specific functions.\\n *\\n * The initial owner is set to the address provided by the deployer. This can\\n * later be changed with {transferOwnership}.\\n *\\n * This module is used through inheritance. It will make available the modifier\\n * `onlyOwner`, which can be applied to your functions to restrict their use to\\n * the owner.\\n */\\nabstract contract OwnableUpgradeable is Initializable, ContextUpgradeable {\\n    /// @custom:storage-location erc7201:openzeppelin.storage.Ownable\\n    struct OwnableStorage {\\n        address _owner;\\n    }\\n\\n    // keccak256(abi.encode(uint256(keccak256(\\\"openzeppelin.storage.Ownable\\\")) - 1)) & ~bytes32(uint256(0xff))\\n    bytes32 private constant OwnableStorageLocation = 0x9016d09d72d40fdae2fd8ceac6b6234c7706214fd39c1cd1e609a0528c199300;\\n\\n    function _getOwnableStorage() private pure returns (OwnableStorage storage $) {\\n        assembly {\\n            $.slot := OwnableStorageLocation\\n        }\\n    }\\n\\n    /**\\n     * @dev The caller account is not authorized to perform an operation.\\n     */\\n    error OwnableUnauthorizedAccount(address account);\\n\\n    /**\\n     * @dev The owner is not a valid owner account. (eg. `address(0)`)\\n     */\\n    error OwnableInvalidOwner(address owner);\\n\\n    event OwnershipTransferred(address indexed previousOwner, address indexed newOwner);\\n\\n    /**\\n     * @dev Initializes the contract setting the address provided by the deployer as the initial owner.\\n     */\\n    function __Ownable_init(address initialOwner) internal onlyInitializing {\\n        __Ownable_init_unchained(initialOwner);\\n    }\\n\\n    function __Ownable_init_unchained(address initialOwner) internal onlyInitializing {\\n        if (initialOwner == address(0)) {\\n            revert OwnableInvalidOwner(address(0));\\n        }\\n        _transferOwnership(initialOwner);\\n    }\\n\\n    /**\\n     * @dev Throws if called by any account other than the owner.\\n     */\\n    modifier onlyOwner() {\\n        _checkOwner();\\n        _;\\n    }\\n\\n    /**\\n     * @dev Returns the address of the current owner.\\n     */\\n    function owner() public view virtual returns (address) {\\n        OwnableStorage storage $ = _getOwnableStorage();\\n        return $._owner;\\n    }\\n\\n    /**\\n     * @dev Throws if the sender is not the owner.\\n     */\\n    function _checkOwner() internal view virtual {\\n        if (owner() != _msgSender()) {\\n            revert OwnableUnauthorizedAccount(_msgSender());\\n        }\\n    }\\n\\n    /**\\n     * @dev Leaves the contract without owner. It will not be possible to call\\n     * `onlyOwner` functions. Can only be called by the current owner.\\n     *\\n     * NOTE: Renouncing ownership will leave the contract without an owner,\\n     * thereby disabling any functionality that is only available to the owner.\\n     */\\n    function renounceOwnership() public virtual onlyOwner {\\n        _transferOwnership(address(0));\\n    }\\n\\n    /**\\n     * @dev Transfers ownership of the contract to a new account (`newOwner`).\\n     * Can only be called by the current owner.\\n     */\\n    function transferOwnership(address newOwner) public virtual onlyOwner {\\n        if (newOwner == address(0)) {\\n            revert OwnableInvalidOwner(address(0));\\n        }\\n        _transferOwnership(newOwner);\\n    }\\n\\n    /**\\n     * @dev Transfers ownership of the contract to a new account (`newOwner`).\\n     * Internal function without access restriction.\\n     */\\n    function _transferOwnership(address newOwner) internal virtual {\\n        OwnableStorage storage $ = _getOwnableStorage();\\n        address oldOwner = $._owner;\\n        $._owner = newOwner;\\n        emit OwnershipTransferred(oldOwner, newOwner);\\n    }\\n}\\n\"},\"@openzeppelin/contracts-upgradeable@5.2.0/utils/NoncesUpgradeable.sol\":{\"content\":\"// SPDX-License-Identifier: MIT\\n// OpenZeppelin Contracts (last updated v5.0.0) (utils/Nonces.sol)\\npragma solidity ^0.8.20;\\nimport {Initializable} from \\\"../proxy/utils/Initializable.sol\\\";\\n\\n/**\\n * @dev Provides tracking nonces for addresses. Nonces will only increment.\\n */\\nabstract contract NoncesUpgradeable is Initializable {\\n    /**\\n     * @dev The nonce used for an `account` is not the expected current nonce.\\n     */\\n    error InvalidAccountNonce(address account, uint256 currentNonce);\\n\\n    /// @custom:storage-location erc7201:openzeppelin.storage.Nonces\\n    struct NoncesStorage {\\n        mapping(address account => uint256) _nonces;\\n    }\\n\\n    // keccak256(abi.encode(uint256(keccak256(\\\"openzeppelin.storage.Nonces\\\")) - 1)) & ~bytes32(uint256(0xff))\\n    bytes32 private constant NoncesStorageLocation = 0x5ab42ced628888259c08ac98db1eb0cf702fc1501344311d8b100cd1bfe4bb00;\\n\\n    function _getNoncesStorage() private pure returns (NoncesStorage storage $) {\\n        assembly {\\n            $.slot := NoncesStorageLocation\\n        }\\n    }\\n\\n    function __Nonces_init() internal onlyInitializing {\\n    }\\n\\n    function __Nonces_init_unchained() internal onlyInitializing {\\n    }\\n    /**\\n     * @dev Returns the next unused nonce for an address.\\n     */\\n    function nonces(address owner) public view virtual returns (uint256) {\\n        NoncesStorage storage $ = _getNoncesStorage();\\n        return $._nonces[owner];\\n    }\\n\\n    /**\\n     * @dev Consumes a nonce.\\n     *\\n     * Returns the current value and increments nonce.\\n     */\\n    function _useNonce(address owner) internal virtual returns (uint256) {\\n        NoncesStorage storage $ = _getNoncesStorage();\\n        // For each account, the nonce has an initial value of 0, can only be incremented by one, and cannot be\\n        // decremented or reset. This guarantees that the nonce never overflows.\\n        unchecked {\\n            // It is important to do x++ and not ++x here.\\n            return $._nonces[owner]++;\\n        }\\n    }\\n\\n    /**\\n     * @dev Same as {_useNonce} but checking that `nonce` is the next valid for `owner`.\\n     */\\n    function _useCheckedNonce(address owner, uint256 nonce) internal virtual {\\n        uint256 current = _useNonce(owner);\\n        if (nonce != current) {\\n            revert InvalidAccountNonce(owner, current);\\n        }\\n    }\\n}\\n\"},\"@openzeppelin/contracts-upgradeable@5.2.0/proxy/utils/Initializable.sol\":{\"content\":\"// SPDX-License-Identifier: MIT\\n// OpenZeppelin Contracts (last updated v5.0.0) (proxy/utils/Initializable.sol)\\n\\npragma solidity ^0.8.20;\\n\\n/**\\n * @dev This is a base contract to aid in writing upgradeable contracts, or any kind of contract that will be deployed\\n * behind a proxy. Since proxied contracts do not make use of a constructor, it's common to move constructor logic to an\\n * external initializer function, usually called `initialize`. It then becomes necessary to protect this initializer\\n * function so it can only be called once. The {initializer} modifier provided by this contract will have this effect.\\n *\\n * The initialization functions use a version number. Once a version number is used, it is consumed and cannot be\\n * reused. This mechanism prevents re-execution of each \\\"step\\\" but allows the creation of new initialization steps in\\n * case an upgrade adds a module that needs to be initialized.\\n *\\n * For example:\\n *\\n * [.hljs-theme-light.nopadding]\\n * ```solidity\\n * contract MyToken is ERC20Upgradeable {\\n *     function initialize() initializer public {\\n *         __ERC20_init(\\\"MyToken\\\", \\\"MTK\\\");\\n *     }\\n * }\\n *\\n * contract MyTokenV2 is MyToken, ERC20PermitUpgradeable {\\n *     function initializeV2() reinitializer(2) public {\\n *         __ERC20Permit_init(\\\"MyToken\\\");\\n *     }\\n * }\\n * ```\\n *\\n * TIP: To avoid leaving the proxy in an uninitialized state, the initializer function should be called as early as\\n * possible by providing the encoded function call as the `_data` argument to {ERC1967Proxy-constructor}.\\n *\\n * CAUTION: When used with inheritance, manual care must be taken to not invoke a parent initializer twice, or to ensure\\n * that all initializers are idempotent. This is not verified automatically as constructors are by Solidity.\\n *\\n * [CAUTION]\\n * ====\\n * Avoid leaving a contract uninitialized.\\n *\\n * An uninitialized contract can be taken over by an attacker. This applies to both a proxy and its implementation\\n * contract, which may impact the proxy. To prevent the implementation contract from being used, you should invoke\\n * the {_disableInitializers} function in the constructor to automatically lock it when it is deployed:\\n *\\n * [.hljs-theme-light.nopadding]\\n * ```\\n * /// @custom:oz-upgrades-unsafe-allow constructor\\n * constructor() {\\n *     _disableInitializers();\\n * }\\n * ```\\n * ====\\n */\\nabstract contract Initializable {\\n    /**\\n     * @dev Storage of the initializable contract.\\n     *\\n     * It's implemented on a custom ERC-7201 namespace to reduce the risk of storage collisions\\n     * when using with upgradeable contracts.\\n     *\\n     * @custom:storage-location erc7201:openzeppelin.storage.Initializable\\n     */\\n    struct InitializableStorage {\\n        /**\\n         * @dev Indicates that the contract has been initialized.\\n         */\\n        uint64 _initialized;\\n        /**\\n         * @dev Indicates that the contract is in the process of being initialized.\\n         */\\n        bool _initializing;\\n    }\\n\\n    // keccak256(abi.encode(uint256(keccak256(\\\"openzeppelin.storage.Initializable\\\")) - 1)) & ~bytes32(uint256(0xff))\\n    bytes32 private constant INITIALIZABLE_STORAGE = 0xf0c57e16840df040f15088dc2f81fe391c3923bec73e23a9662efc9c229c6a00;\\n\\n    /**\\n     * @dev The contract is already initialized.\\n     */\\n    error InvalidInitialization();\\n\\n    /**\\n     * @dev The contract is not initializing.\\n     */\\n    error NotInitializing();\\n\\n    /**\\n     * @dev Triggered when the contract has been initialized or reinitialized.\\n     */\\n    event Initialized(uint64 version);\\n\\n    /**\\n     * @dev A modifier that defines a protected initializer function that can be invoked at most once. In its scope,\\n     * `onlyInitializing` functions can be used to initialize parent contracts.\\n     *\\n     * Similar to `reinitializer(1)`, except that in the context of a constructor an `initializer` may be invoked any\\n     * number of times. This behavior in the constructor can be useful during testing and is not expected to be used in\\n     * production.\\n     *\\n     * Emits an {Initialized} event.\\n     */\\n    modifier initializer() {\\n        // solhint-disable-next-line var-name-mixedcase\\n        InitializableStorage storage $ = _getInitializableStorage();\\n\\n        // Cache values to avoid duplicated sloads\\n        bool isTopLevelCall = !$._initializing;\\n        uint64 initialized = $._initialized;\\n\\n        // Allowed calls:\\n        // - initialSetup: the contract is not in the initializing state and no previous version was\\n        //                 initialized\\n        // - construction: the contract is initialized at version 1 (no reininitialization) and the\\n        //                 current contract is just being deployed\\n        bool initialSetup = initialized == 0 && isTopLevelCall;\\n        bool construction = initialized == 1 && address(this).code.length == 0;\\n\\n        if (!initialSetup && !construction) {\\n            revert InvalidInitialization();\\n        }\\n        $._initialized = 1;\\n        if (isTopLevelCall) {\\n            $._initializing = true;\\n        }\\n        _;\\n        if (isTopLevelCall) {\\n            $._initializing = false;\\n            emit Initialized(1);\\n        }\\n    }\\n\\n    /**\\n     * @dev A modifier that defines a protected reinitializer function that can be invoked at most once, and only if the\\n     * contract hasn't been initialized to a greater version before. In its scope, `onlyInitializing` functions can be\\n     * used to initialize parent contracts.\\n     *\\n     * A reinitializer may be used after the original initialization step. This is essential to configure modules that\\n     * are added through upgrades and that require initialization.\\n     *\\n     * When `version` is 1, this modifier is similar to `initializer`, except that functions marked with `reinitializer`\\n     * cannot be nested. If one is invoked in the context of another, execution will revert.\\n     *\\n     * Note that versions can jump in increments greater than 1; this implies that if multiple reinitializers coexist in\\n     * a contract, executing them in the right order is up to the developer or operator.\\n     *\\n     * WARNING: Setting the version to 2**64 - 1 will prevent any future reinitialization.\\n     *\\n     * Emits an {Initialized} event.\\n     */\\n    modifier reinitializer(uint64 version) {\\n        // solhint-disable-next-line var-name-mixedcase\\n        InitializableStorage storage $ = _getInitializableStorage();\\n\\n        if ($._initializing || $._initialized >= version) {\\n            revert InvalidInitialization();\\n        }\\n        $._initialized = version;\\n        $._initializing = true;\\n        _;\\n        $._initializing = false;\\n        emit Initialized(version);\\n    }\\n\\n    /**\\n     * @dev Modifier to protect an initialization function so that it can only be invoked by functions with the\\n     * {initializer} and {reinitializer} modifiers, directly or indirectly.\\n     */\\n    modifier onlyInitializing() {\\n        _checkInitializing();\\n        _;\\n    }\\n\\n    /**\\n     * @dev Reverts if the contract is not in an initializing state. See {onlyInitializing}.\\n     */\\n    function _checkInitializing() internal view virtual {\\n        if (!_isInitializing()) {\\n            revert NotInitializing();\\n        }\\n    }\\n\\n    /**\\n     * @dev Locks the contract, preventing any future reinitialization. This cannot be part of an initializer call.\\n     * Calling this in the constructor of a contract will prevent that contract from being initialized or reinitialized\\n     * to any version. It is recommended to use this to lock implementation contracts that are designed to be called\\n     * through proxies.\\n     *\\n     * Emits an {Initialized} event the first time it is successfully executed.\\n     */\\n    function _disableInitializers() internal virtual {\\n        // solhint-disable-next-line var-name-mixedcase\\n        InitializableStorage storage $ = _getInitializableStorage();\\n\\n        if ($._initializing) {\\n            revert InvalidInitialization();\\n        }\\n        if ($._initialized != type(uint64).max) {\\n            $._initialized = type(uint64).max;\\n            emit Initialized(type(uint64).max);\\n        }\\n    }\\n\\n    /**\\n     * @dev Returns the highest version that has been initialized. See {reinitializer}.\\n     */\\n    function _getInitializedVersion() internal view returns (uint64) {\\n        return _getInitializableStorage()._initialized;\\n    }\\n\\n    /**\\n     * @dev Returns `true` if the contract is currently initializing. See {onlyInitializing}.\\n     */\\n    function _isInitializing() internal view returns (bool) {\\n        return _getInitializableStorage()._initializing;\\n    }\\n\\n    /**\\n     * @dev Returns a pointer to the storage namespace.\\n     */\\n    // solhint-disable-next-line var-name-mixedcase\\n    function _getInitializableStorage() private pure returns (InitializableStorage storage $) {\\n        assembly {\\n            $.slot := INITIALIZABLE_STORAGE\\n        }\\n    }\\n}\\n\"},\"@openzeppelin/contracts-upgradeable@5.2.0/token/ERC20/extensions/ERC20VotesUpgradeable.sol\":{\"content\":\"// SPDX-License-Identifier: MIT\\n// OpenZeppelin Contracts (last updated v5.1.0) (token/ERC20/extensions/ERC20Votes.sol)\\n\\npragma solidity ^0.8.20;\\n\\nimport {ERC20Upgradeable} from \\\"../ERC20Upgradeable.sol\\\";\\nimport {VotesUpgradeable} from \\\"../../../governance/utils/VotesUpgradeable.sol\\\";\\nimport {Checkpoints} from \\\"@openzeppelin/contracts/utils/structs/Checkpoints.sol\\\";\\nimport {Initializable} from \\\"../../../proxy/utils/Initializable.sol\\\";\\n\\n/**\\n * @dev Extension of ERC-20 to support Compound-like voting and delegation. This version is more generic than Compound's,\\n * and supports token supply up to 2^208^ - 1, while COMP is limited to 2^96^ - 1.\\n *\\n * NOTE: This contract does not provide interface compatibility with Compound's COMP token.\\n *\\n * This extension keeps a history (checkpoints) of each account's vote power. Vote power can be delegated either\\n * by calling the {Votes-delegate} function directly, or by providing a signature to be used with {Votes-delegateBySig}. Voting\\n * power can be queried through the public accessors {Votes-getVotes} and {Votes-getPastVotes}.\\n *\\n * By default, token balance does not account for voting power. This makes transfers cheaper. The downside is that it\\n * requires users to delegate to themselves in order to activate checkpoints and have their voting power tracked.\\n */\\nabstract contract ERC20VotesUpgradeable is Initializable, ERC20Upgradeable, VotesUpgradeable {\\n    /**\\n     * @dev Total supply cap has been exceeded, introducing a risk of votes overflowing.\\n     */\\n    error ERC20ExceededSafeSupply(uint256 increasedSupply, uint256 cap);\\n\\n    function __ERC20Votes_init() internal onlyInitializing {\\n    }\\n\\n    function __ERC20Votes_init_unchained() internal onlyInitializing {\\n    }\\n    /**\\n     * @dev Maximum token supply. Defaults to `type(uint208).max` (2^208^ - 1).\\n     *\\n     * This maximum is enforced in {_update}. It limits the total supply of the token, which is otherwise a uint256,\\n     * so that checkpoints can be stored in the Trace208 structure used by {Votes}. Increasing this value will not\\n     * remove the underlying limitation, and will cause {_update} to fail because of a math overflow in\\n     * {Votes-_transferVotingUnits}. An override could be used to further restrict the total supply (to a lower value) if\\n     * additional logic requires it. When resolving override conflicts on this function, the minimum should be\\n     * returned.\\n     */\\n    function _maxSupply() internal view virtual returns (uint256) {\\n        return type(uint208).max;\\n    }\\n\\n    /**\\n     * @dev Move voting power when tokens are transferred.\\n     *\\n     * Emits a {IVotes-DelegateVotesChanged} event.\\n     */\\n    function _update(address from, address to, uint256 value) internal virtual override {\\n        super._update(from, to, value);\\n        if (from == address(0)) {\\n            uint256 supply = totalSupply();\\n            uint256 cap = _maxSupply();\\n            if (supply > cap) {\\n                revert ERC20ExceededSafeSupply(supply, cap);\\n            }\\n        }\\n        _transferVotingUnits(from, to, value);\\n    }\\n\\n    /**\\n     * @dev Returns the voting units of an `account`.\\n     *\\n     * WARNING: Overriding this function may compromise the internal vote accounting.\\n     * `ERC20Votes` assumes tokens map to voting units 1:1 and this is not easy to change.\\n     */\\n    function _getVotingUnits(address account) internal view virtual override returns (uint256) {\\n        return balanceOf(account);\\n    }\\n\\n    /**\\n     * @dev Get number of checkpoints for `account`.\\n     */\\n    function numCheckpoints(address account) public view virtual returns (uint32) {\\n        return _numCheckpoints(account);\\n    }\\n\\n    /**\\n     * @dev Get the `pos`-th checkpoint for `account`.\\n     */\\n    function checkpoints(address account, uint32 pos) public view virtual returns (Checkpoints.Checkpoint208 memory) {\\n        return _checkpoints(account, pos);\\n    }\\n}\\n\"},\"@openzeppelin/contracts-upgradeable@5.2.0/token/ERC20/extensions/ERC20PermitUpgradeable.sol\":{\"content\":\"// SPDX-License-Identifier: MIT\\n// OpenZeppelin Contracts (last updated v5.1.0) (token/ERC20/extensions/ERC20Permit.sol)\\n\\npragma solidity ^0.8.20;\\n\\nimport {IERC20Permit} from \\\"@openzeppelin/contracts/token/ERC20/extensions/IERC20Permit.sol\\\";\\nimport {ERC20Upgradeable} from \\\"../ERC20Upgradeable.sol\\\";\\nimport {ECDSA} from \\\"@openzeppelin/contracts/utils/cryptography/ECDSA.sol\\\";\\nimport {EIP712Upgradeable} from \\\"../../../utils/cryptography/EIP712Upgradeable.sol\\\";\\nimport {NoncesUpgradeable} from \\\"../../../utils/NoncesUpgradeable.sol\\\";\\nimport {Initializable} from \\\"../../../proxy/utils/Initializable.sol\\\";\\n\\n/**\\n * @dev Implementation of the ERC-20 Permit extension allowing approvals to be made via signatures, as defined in\\n * https://eips.ethereum.org/EIPS/eip-2612[ERC-2612].\\n *\\n * Adds the {permit} method, which can be used to change an account's ERC-20 allowance (see {IERC20-allowance}) by\\n * presenting a message signed by the account. By not relying on `{IERC20-approve}`, the token holder account doesn't\\n * need to send a transaction, and thus is not required to hold Ether at all.\\n */\\nabstract contract ERC20PermitUpgradeable is Initializable, ERC20Upgradeable, IERC20Permit, EIP712Upgradeable, NoncesUpgradeable {\\n    bytes32 private constant PERMIT_TYPEHASH =\\n        keccak256(\\\"Permit(address owner,address spender,uint256 value,uint256 nonce,uint256 deadline)\\\");\\n\\n    /**\\n     * @dev Permit deadline has expired.\\n     */\\n    error ERC2612ExpiredSignature(uint256 deadline);\\n\\n    /**\\n     * @dev Mismatched signature.\\n     */\\n    error ERC2612InvalidSigner(address signer, address owner);\\n\\n    /**\\n     * @dev Initializes the {EIP712} domain separator using the `name` parameter, and setting `version` to `\\\"1\\\"`.\\n     *\\n     * It's a good idea to use the same `name` that is defined as the ERC-20 token name.\\n     */\\n    function __ERC20Permit_init(string memory name) internal onlyInitializing {\\n        __EIP712_init_unchained(name, \\\"1\\\");\\n    }\\n\\n    function __ERC20Permit_init_unchained(string memory) internal onlyInitializing {}\\n\\n    /**\\n     * @inheritdoc IERC20Permit\\n     */\\n    function permit(\\n        address owner,\\n        address spender,\\n        uint256 value,\\n        uint256 deadline,\\n        uint8 v,\\n        bytes32 r,\\n        bytes32 s\\n    ) public virtual {\\n        if (block.timestamp > deadline) {\\n            revert ERC2612ExpiredSignature(deadline);\\n        }\\n\\n        bytes32 structHash = keccak256(abi.encode(PERMIT_TYPEHASH, owner, spender, value, _useNonce(owner), deadline));\\n\\n        bytes32 hash = _hashTypedDataV4(structHash);\\n\\n        address signer = ECDSA.recover(hash, v, r, s);\\n        if (signer != owner) {\\n            revert ERC2612InvalidSigner(signer, owner);\\n        }\\n\\n        _approve(owner, spender, value);\\n    }\\n\\n    /**\\n     * @inheritdoc IERC20Permit\\n     */\\n    function nonces(address owner) public view virtual override(IERC20Permit, NoncesUpgradeable) returns (uint256) {\\n        return super.nonces(owner);\\n    }\\n\\n    /**\\n     * @inheritdoc IERC20Permit\\n     */\\n    // solhint-disable-next-line func-name-mixedcase\\n    function DOMAIN_SEPARATOR() external view virtual returns (bytes32) {\\n        return _domainSeparatorV4();\\n    }\\n}\\n\"},\"@openzeppelin/contracts-upgradeable@5.2.0/token/ERC20/ERC20Upgradeable.sol\":{\"content\":\"// SPDX-License-Identifier: MIT\\n// OpenZeppelin Contracts (last updated v5.2.0) (token/ERC20/ERC20.sol)\\n\\npragma solidity ^0.8.20;\\n\\nimport {IERC20} from \\\"@openzeppelin/contracts/token/ERC20/IERC20.sol\\\";\\nimport {IERC20Metadata} from \\\"@openzeppelin/contracts/token/ERC20/extensions/IERC20Metadata.sol\\\";\\nimport {ContextUpgradeable} from \\\"../../utils/ContextUpgradeable.sol\\\";\\nimport {IERC20Errors} from \\\"@openzeppelin/contracts/interfaces/draft-IERC6093.sol\\\";\\nimport {Initializable} from \\\"../../proxy/utils/Initializable.sol\\\";\\n\\n/**\\n * @dev Implementation of the {IERC20} interface.\\n *\\n * This implementation is agnostic to the way tokens are created. This means\\n * that a supply mechanism has to be added in a derived contract using {_mint}.\\n *\\n * TIP: For a detailed writeup see our guide\\n * https://forum.openzeppelin.com/t/how-to-implement-erc20-supply-mechanisms/226[How\\n * to implement supply mechanisms].\\n *\\n * The default value of {decimals} is 18. To change this, you should override\\n * this function so it returns a different value.\\n *\\n * We have followed general OpenZeppelin Contracts guidelines: functions revert\\n * instead returning `false` on failure. This behavior is nonetheless\\n * conventional and does not conflict with the expectations of ERC-20\\n * applications.\\n */\\nabstract contract ERC20Upgradeable is Initializable, ContextUpgradeable, IERC20, IERC20Metadata, IERC20Errors {\\n    /// @custom:storage-location erc7201:openzeppelin.storage.ERC20\\n    struct ERC20Storage {\\n        mapping(address account => uint256) _balances;\\n\\n        mapping(address account => mapping(address spender => uint256)) _allowances;\\n\\n        uint256 _totalSupply;\\n\\n        string _name;\\n        string _symbol;\\n    }\\n\\n    // keccak256(abi.encode(uint256(keccak256(\\\"openzeppelin.storage.ERC20\\\")) - 1)) & ~bytes32(uint256(0xff))\\n    bytes32 private constant ERC20StorageLocation = 0x52c63247e1f47db19d5ce0460030c497f067ca4cebf71ba98eeadabe20bace00;\\n\\n    function _getERC20Storage() private pure returns (ERC20Storage storage $) {\\n        assembly {\\n            $.slot := ERC20StorageLocation\\n        }\\n    }\\n\\n    /**\\n     * @dev Sets the values for {name} and {symbol}.\\n     *\\n     * All two of these values are immutable: they can only be set once during\\n     * construction.\\n     */\\n    function __ERC20_init(string memory name_, string memory symbol_) internal onlyInitializing {\\n        __ERC20_init_unchained(name_, symbol_);\\n    }\\n\\n    function __ERC20_init_unchained(string memory name_, string memory symbol_) internal onlyInitializing {\\n        ERC20Storage storage $ = _getERC20Storage();\\n        $._name = name_;\\n        $._symbol = symbol_;\\n    }\\n\\n    /**\\n     * @dev Returns the name of the token.\\n     */\\n    function name() public view virtual returns (string memory) {\\n        ERC20Storage storage $ = _getERC20Storage();\\n        return $._name;\\n    }\\n\\n    /**\\n     * @dev Returns the symbol of the token, usually a shorter version of the\\n     * name.\\n     */\\n    function symbol() public view virtual returns (string memory) {\\n        ERC20Storage storage $ = _getERC20Storage();\\n        return $._symbol;\\n    }\\n\\n    /**\\n     * @dev Returns the number of decimals used to get its user representation.\\n     * For example, if `decimals` equals `2`, a balance of `505` tokens should\\n     * be displayed to a user as `5.05` (`505 / 10 ** 2`).\\n     *\\n     * Tokens usually opt for a value of 18, imitating the relationship between\\n     * Ether and Wei. This is the default value returned by this function, unless\\n     * it's overridden.\\n     *\\n     * NOTE: This information is only used for _display_ purposes: it in\\n     * no way affects any of the arithmetic of the contract, including\\n     * {IERC20-balanceOf} and {IERC20-transfer}.\\n     */\\n    function decimals() public view virtual returns (uint8) {\\n        return 18;\\n    }\\n\\n    /**\\n     * @dev See {IERC20-totalSupply}.\\n     */\\n    function totalSupply() public view virtual returns (uint256) {\\n        ERC20Storage storage $ = _getERC20Storage();\\n        return $._totalSupply;\\n    }\\n\\n    /**\\n     * @dev See {IERC20-balanceOf}.\\n     */\\n    function balanceOf(address account) public view virtual returns (uint256) {\\n        ERC20Storage storage $ = _getERC20Storage();\\n        return $._balances[account];\\n    }\\n\\n    /**\\n     * @dev See {IERC20-transfer}.\\n     *\\n     * Requirements:\\n     *\\n     * - `to` cannot be the zero address.\\n     * - the caller must have a balance of at least `value`.\\n     */\\n    function transfer(address to, uint256 value) public virtual returns (bool) {\\n        address owner = _msgSender();\\n        _transfer(owner, to, value);\\n        return true;\\n    }\\n\\n    /**\\n     * @dev See {IERC20-allowance}.\\n     */\\n    function allowance(address owner, address spender) public view virtual returns (uint256) {\\n        ERC20Storage storage $ = _getERC20Storage();\\n        return $._allowances[owner][spender];\\n    }\\n\\n    /**\\n     * @dev See {IERC20-approve}.\\n     *\\n     * NOTE: If `value` is the maximum `uint256`, the allowance is not updated on\\n     * `transferFrom`. This is semantically equivalent to an infinite approval.\\n     *\\n     * Requirements:\\n     *\\n     * - `spender` cannot be the zero address.\\n     */\\n    function approve(address spender, uint256 value) public virtual returns (bool) {\\n        address owner = _msgSender();\\n        _approve(owner, spender, value);\\n        return true;\\n    }\\n\\n    /**\\n     * @dev See {IERC20-transferFrom}.\\n     *\\n     * Skips emitting an {Approval} event indicating an allowance update. This is not\\n     * required by the ERC. See {xref-ERC20-_approve-address-address-uint256-bool-}[_approve].\\n     *\\n     * NOTE: Does not update the allowance if the current allowance\\n     * is the maximum `uint256`.\\n     *\\n     * Requirements:\\n     *\\n     * - `from` and `to` cannot be the zero address.\\n     * - `from` must have a balance of at least `value`.\\n     * - the caller must have allowance for ``from``'s tokens of at least\\n     * `value`.\\n     */\\n    function transferFrom(address from, address to, uint256 value) public virtual returns (bool) {\\n        address spender = _msgSender();\\n        _spendAllowance(from, spender, value);\\n        _transfer(from, to, value);\\n        return true;\\n    }\\n\\n    /**\\n     * @dev Moves a `value` amount of tokens from `from` to `to`.\\n     *\\n     * This internal function is equivalent to {transfer}, and can be used to\\n     * e.g. implement automatic token fees, slashing mechanisms, etc.\\n     *\\n     * Emits a {Transfer} event.\\n     *\\n     * NOTE: This function is not virtual, {_update} should be overridden instead.\\n     */\\n    function _transfer(address from, address to, uint256 value) internal {\\n        if (from == address(0)) {\\n            revert ERC20InvalidSender(address(0));\\n        }\\n        if (to == address(0)) {\\n            revert ERC20InvalidReceiver(address(0));\\n        }\\n        _update(from, to, value);\\n    }\\n\\n    /**\\n     * @dev Transfers a `value` amount of tokens from `from` to `to`, or alternatively mints (or burns) if `from`\\n     * (or `to`) is the zero address. All customizations to transfers, mints, and burns should be done by overriding\\n     * this function.\\n     *\\n     * Emits a {Transfer} event.\\n     */\\n    function _update(address from, address to, uint256 value) internal virtual {\\n        ERC20Storage storage $ = _getERC20Storage();\\n        if (from == address(0)) {\\n            // Overflow check required: The rest of the code assumes that totalSupply never overflows\\n            $._totalSupply += value;\\n        } else {\\n            uint256 fromBalance = $._balances[from];\\n            if (fromBalance < value) {\\n                revert ERC20InsufficientBalance(from, fromBalance, value);\\n            }\\n            unchecked {\\n                // Overflow not possible: value <= fromBalance <= totalSupply.\\n                $._balances[from] = fromBalance - value;\\n            }\\n        }\\n\\n        if (to == address(0)) {\\n            unchecked {\\n                // Overflow not possible: value <= totalSupply or value <= fromBalance <= totalSupply.\\n                $._totalSupply -= value;\\n            }\\n        } else {\\n            unchecked {\\n                // Overflow not possible: balance + value is at most totalSupply, which we know fits into a uint256.\\n                $._balances[to] += value;\\n            }\\n        }\\n\\n        emit Transfer(from, to, value);\\n    }\\n\\n    /**\\n     * @dev Creates a `value` amount of tokens and assigns them to `account`, by transferring it from address(0).\\n     * Relies on the `_update` mechanism\\n     *\\n     * Emits a {Transfer} event with `from` set to the zero address.\\n     *\\n     * NOTE: This function is not virtual, {_update} should be overridden instead.\\n     */\\n    function _mint(address account, uint256 value) internal {\\n        if (account == address(0)) {\\n            revert ERC20InvalidReceiver(address(0));\\n        }\\n        _update(address(0), account, value);\\n    }\\n\\n    /**\\n     * @dev Destroys a `value` amount of tokens from `account`, lowering the total supply.\\n     * Relies on the `_update` mechanism.\\n     *\\n     * Emits a {Transfer} event with `to` set to the zero address.\\n     *\\n     * NOTE: This function is not virtual, {_update} should be overridden instead\\n     */\\n    function _burn(address account, uint256 value) internal {\\n        if (account == address(0)) {\\n            revert ERC20InvalidSender(address(0));\\n        }\\n        _update(account, address(0), value);\\n    }\\n\\n    /**\\n     * @dev Sets `value` as the allowance of `spender` over the `owner` s tokens.\\n     *\\n     * This internal function is equivalent to `approve`, and can be used to\\n     * e.g. set automatic allowances for certain subsystems, etc.\\n     *\\n     * Emits an {Approval} event.\\n     *\\n     * Requirements:\\n     *\\n     * - `owner` cannot be the zero address.\\n     * - `spender` cannot be the zero address.\\n     *\\n     * Overrides to this logic should be done to the variant with an additional `bool emitEvent` argument.\\n     */\\n    function _approve(address owner, address spender, uint256 value) internal {\\n        _approve(owner, spender, value, true);\\n    }\\n\\n    /**\\n     * @dev Variant of {_approve} with an optional flag to enable or disable the {Approval} event.\\n     *\\n     * By default (when calling {_approve}) the flag is set to true. On the other hand, approval changes made by\\n     * `_spendAllowance` during the `transferFrom` operation set the flag to false. This saves gas by not emitting any\\n     * `Approval` event during `transferFrom` operations.\\n     *\\n     * Anyone who wishes to continue emitting `Approval` events on the`transferFrom` operation can force the flag to\\n     * true using the following override:\\n     *\\n     * ```solidity\\n     * function _approve(address owner, address spender, uint256 value, bool) internal virtual override {\\n     *     super._approve(owner, spender, value, true);\\n     * }\\n     * ```\\n     *\\n     * Requirements are the same as {_approve}.\\n     */\\n    function _approve(address owner, address spender, uint256 value, bool emitEvent) internal virtual {\\n        ERC20Storage storage $ = _getERC20Storage();\\n        if (owner == address(0)) {\\n            revert ERC20InvalidApprover(address(0));\\n        }\\n        if (spender == address(0)) {\\n            revert ERC20InvalidSpender(address(0));\\n        }\\n        $._allowances[owner][spender] = value;\\n        if (emitEvent) {\\n            emit Approval(owner, spender, value);\\n        }\\n    }\\n\\n    /**\\n     * @dev Updates `owner` s allowance for `spender` based on spent `value`.\\n     *\\n     * Does not update the allowance value in case of infinite allowance.\\n     * Revert if not enough allowance is available.\\n     *\\n     * Does not emit an {Approval} event.\\n     */\\n    function _spendAllowance(address owner, address spender, uint256 value) internal virtual {\\n        uint256 currentAllowance = allowance(owner, spender);\\n        if (currentAllowance < type(uint256).max) {\\n            if (currentAllowance < value) {\\n                revert ERC20InsufficientAllowance(spender, currentAllowance, value);\\n            }\\n            unchecked {\\n                _approve(owner, spender, currentAllowance - value, false);\\n            }\\n        }\\n    }\\n}\\n\"},\"@openzeppelin/contracts/utils/structs/Checkpoints.sol\":{\"content\":\"// SPDX-License-Identifier: MIT\\n// OpenZeppelin Contracts (last updated v5.1.0) (utils/structs/Checkpoints.sol)\\n// This file was procedurally generated from scripts/generate/templates/Checkpoints.js.\\n\\npragma solidity ^0.8.20;\\n\\nimport {Math} from \\\"../math/Math.sol\\\";\\n\\n/**\\n * @dev This library defines the `Trace*` struct, for checkpointing values as they change at different points in\\n * time, and later looking up past values by block number. See {Votes} as an example.\\n *\\n * To create a history of checkpoints define a variable type `Checkpoints.Trace*` in your contract, and store a new\\n * checkpoint for the current transaction block using the {push} function.\\n */\\nlibrary Checkpoints {\\n    /**\\n     * @dev A value was attempted to be inserted on a past checkpoint.\\n     */\\n    error CheckpointUnorderedInsertion();\\n\\n    struct Trace224 {\\n        Checkpoint224[] _checkpoints;\\n    }\\n\\n    struct Checkpoint224 {\\n        uint32 _key;\\n        uint224 _value;\\n    }\\n\\n    /**\\n     * @dev Pushes a (`key`, `value`) pair into a Trace224 so that it is stored as the checkpoint.\\n     *\\n     * Returns previous value and new value.\\n     *\\n     * IMPORTANT: Never accept `key` as a user input, since an arbitrary `type(uint32).max` key set will disable the\\n     * library.\\n     */\\n    function push(\\n        Trace224 storage self,\\n        uint32 key,\\n        uint224 value\\n    ) internal returns (uint224 oldValue, uint224 newValue) {\\n        return _insert(self._checkpoints, key, value);\\n    }\\n\\n    /**\\n     * @dev Returns the value in the first (oldest) checkpoint with key greater or equal than the search key, or zero if\\n     * there is none.\\n     */\\n    function lowerLookup(Trace224 storage self, uint32 key) internal view returns (uint224) {\\n        uint256 len = self._checkpoints.length;\\n        uint256 pos = _lowerBinaryLookup(self._checkpoints, key, 0, len);\\n        return pos == len ? 0 : _unsafeAccess(self._checkpoints, pos)._value;\\n    }\\n\\n    /**\\n     * @dev Returns the value in the last (most recent) checkpoint with key lower or equal than the search key, or zero\\n     * if there is none.\\n     */\\n    function upperLookup(Trace224 storage self, uint32 key) internal view returns (uint224) {\\n        uint256 len = self._checkpoints.length;\\n        uint256 pos = _upperBinaryLookup(self._checkpoints, key, 0, len);\\n        return pos == 0 ? 0 : _unsafeAccess(self._checkpoints, pos - 1)._value;\\n    }\\n\\n    /**\\n     * @dev Returns the value in the last (most recent) checkpoint with key lower or equal than the search key, or zero\\n     * if there is none.\\n     *\\n     * NOTE: This is a variant of {upperLookup} that is optimised to find \\\"recent\\\" checkpoint (checkpoints with high\\n     * keys).\\n     */\\n    function upperLookupRecent(Trace224 storage self, uint32 key) internal view returns (uint224) {\\n        uint256 len = self._checkpoints.length;\\n\\n        uint256 low = 0;\\n        uint256 high = len;\\n\\n        if (len > 5) {\\n            uint256 mid = len - Math.sqrt(len);\\n            if (key < _unsafeAccess(self._checkpoints, mid)._key) {\\n                high = mid;\\n            } else {\\n                low = mid + 1;\\n            }\\n        }\\n\\n        uint256 pos = _upperBinaryLookup(self._checkpoints, key, low, high);\\n\\n        return pos == 0 ? 0 : _unsafeAccess(self._checkpoints, pos - 1)._value;\\n    }\\n\\n    /**\\n     * @dev Returns the value in the most recent checkpoint, or zero if there are no checkpoints.\\n     */\\n    function latest(Trace224 storage self) internal view returns (uint224) {\\n        uint256 pos = self._checkpoints.length;\\n        return pos == 0 ? 0 : _unsafeAccess(self._checkpoints, pos - 1)._value;\\n    }\\n\\n    /**\\n     * @dev Returns whether there is a checkpoint in the structure (i.e. it is not empty), and if so the key and value\\n     * in the most recent checkpoint.\\n     */\\n    function latestCheckpoint(Trace224 storage self) internal view returns (bool exists, uint32 _key, uint224 _value) {\\n        uint256 pos = self._checkpoints.length;\\n        if (pos == 0) {\\n            return (false, 0, 0);\\n        } else {\\n            Checkpoint224 storage ckpt = _unsafeAccess(self._checkpoints, pos - 1);\\n            return (true, ckpt._key, ckpt._value);\\n        }\\n    }\\n\\n    /**\\n     * @dev Returns the number of checkpoint.\\n     */\\n    function length(Trace224 storage self) internal view returns (uint256) {\\n        return self._checkpoints.length;\\n    }\\n\\n    /**\\n     * @dev Returns checkpoint at given position.\\n     */\\n    function at(Trace224 storage self, uint32 pos) internal view returns (Checkpoint224 memory) {\\n        return self._checkpoints[pos];\\n    }\\n\\n    /**\\n     * @dev Pushes a (`key`, `value`) pair into an ordered list of checkpoints, either by inserting a new checkpoint,\\n     * or by updating the last one.\\n     */\\n    function _insert(\\n        Checkpoint224[] storage self,\\n        uint32 key,\\n        uint224 value\\n    ) private returns (uint224 oldValue, uint224 newValue) {\\n        uint256 pos = self.length;\\n\\n        if (pos > 0) {\\n            Checkpoint224 storage last = _unsafeAccess(self, pos - 1);\\n            uint32 lastKey = last._key;\\n            uint224 lastValue = last._value;\\n\\n            // Checkpoint keys must be non-decreasing.\\n            if (lastKey > key) {\\n                revert CheckpointUnorderedInsertion();\\n            }\\n\\n            // Update or push new checkpoint\\n            if (lastKey == key) {\\n                last._value = value;\\n            } else {\\n                self.push(Checkpoint224({_key: key, _value: value}));\\n            }\\n            return (lastValue, value);\\n        } else {\\n            self.push(Checkpoint224({_key: key, _value: value}));\\n            return (0, value);\\n        }\\n    }\\n\\n    /**\\n     * @dev Return the index of the first (oldest) checkpoint with key strictly bigger than the search key, or `high`\\n     * if there is none. `low` and `high` define a section where to do the search, with inclusive `low` and exclusive\\n     * `high`.\\n     *\\n     * WARNING: `high` should not be greater than the array's length.\\n     */\\n    function _upperBinaryLookup(\\n        Checkpoint224[] storage self,\\n        uint32 key,\\n        uint256 low,\\n        uint256 high\\n    ) private view returns (uint256) {\\n        while (low < high) {\\n            uint256 mid = Math.average(low, high);\\n            if (_unsafeAccess(self, mid)._key > key) {\\n                high = mid;\\n            } else {\\n                low = mid + 1;\\n            }\\n        }\\n        return high;\\n    }\\n\\n    /**\\n     * @dev Return the index of the first (oldest) checkpoint with key greater or equal than the search key, or `high`\\n     * if there is none. `low` and `high` define a section where to do the search, with inclusive `low` and exclusive\\n     * `high`.\\n     *\\n     * WARNING: `high` should not be greater than the array's length.\\n     */\\n    function _lowerBinaryLookup(\\n        Checkpoint224[] storage self,\\n        uint32 key,\\n        uint256 low,\\n        uint256 high\\n    ) private view returns (uint256) {\\n        while (low < high) {\\n            uint256 mid = Math.average(low, high);\\n            if (_unsafeAccess(self, mid)._key < key) {\\n                low = mid + 1;\\n            } else {\\n                high = mid;\\n            }\\n        }\\n        return high;\\n    }\\n\\n    /**\\n     * @dev Access an element of the array without performing bounds check. The position is assumed to be within bounds.\\n     */\\n    function _unsafeAccess(\\n        Checkpoint224[] storage self,\\n        uint256 pos\\n    ) private pure returns (Checkpoint224 storage result) {\\n        assembly {\\n            mstore(0, self.slot)\\n            result.slot := add(keccak256(0, 0x20), pos)\\n        }\\n    }\\n\\n    struct Trace208 {\\n        Checkpoint208[] _checkpoints;\\n    }\\n\\n    struct Checkpoint208 {\\n        uint48 _key;\\n        uint208 _value;\\n    }\\n\\n    /**\\n     * @dev Pushes a (`key`, `value`) pair into a Trace208 so that it is stored as the checkpoint.\\n     *\\n     * Returns previous value and new value.\\n     *\\n     * IMPORTANT: Never accept `key` as a user input, since an arbitrary `type(uint48).max` key set will disable the\\n     * library.\\n     */\\n    function push(\\n        Trace208 storage self,\\n        uint48 key,\\n        uint208 value\\n    ) internal returns (uint208 oldValue, uint208 newValue) {\\n        return _insert(self._checkpoints, key, value);\\n    }\\n\\n    /**\\n     * @dev Returns the value in the first (oldest) checkpoint with key greater or equal than the search key, or zero if\\n     * there is none.\\n     */\\n    function lowerLookup(Trace208 storage self, uint48 key) internal view returns (uint208) {\\n        uint256 len = self._checkpoints.length;\\n        uint256 pos = _lowerBinaryLookup(self._checkpoints, key, 0, len);\\n        return pos == len ? 0 : _unsafeAccess(self._checkpoints, pos)._value;\\n    }\\n\\n    /**\\n     * @dev Returns the value in the last (most recent) checkpoint with key lower or equal than the search key, or zero\\n     * if there is none.\\n     */\\n    function upperLookup(Trace208 storage self, uint48 key) internal view returns (uint208) {\\n        uint256 len = self._checkpoints.length;\\n        uint256 pos = _upperBinaryLookup(self._checkpoints, key, 0, len);\\n        return pos == 0 ? 0 : _unsafeAccess(self._checkpoints, pos - 1)._value;\\n    }\\n\\n    /**\\n     * @dev Returns the value in the last (most recent) checkpoint with key lower or equal than the search key, or zero\\n     * if there is none.\\n     *\\n     * NOTE: This is a variant of {upperLookup} that is optimised to find \\\"recent\\\" checkpoint (checkpoints with high\\n     * keys).\\n     */\\n    function upperLookupRecent(Trace208 storage self, uint48 key) internal view returns (uint208) {\\n        uint256 len = self._checkpoints.length;\\n\\n        uint256 low = 0;\\n        uint256 high = len;\\n\\n        if (len > 5) {\\n            uint256 mid = len - Math.sqrt(len);\\n            if (key < _unsafeAccess(self._checkpoints, mid)._key) {\\n                high = mid;\\n            } else {\\n                low = mid + 1;\\n            }\\n        }\\n\\n        uint256 pos = _upperBinaryLookup(self._checkpoints, key, low, high);\\n\\n        return pos == 0 ? 0 : _unsafeAccess(self._checkpoints, pos - 1)._value;\\n    }\\n\\n    /**\\n     * @dev Returns the value in the most recent checkpoint, or zero if there are no checkpoints.\\n     */\\n    function latest(Trace208 storage self) internal view returns (uint208) {\\n        uint256 pos = self._checkpoints.length;\\n        return pos == 0 ? 0 : _unsafeAccess(self._checkpoints, pos - 1)._value;\\n    }\\n\\n    /**\\n     * @dev Returns whether there is a checkpoint in the structure (i.e. it is not empty), and if so the key and value\\n     * in the most recent checkpoint.\\n     */\\n    function latestCheckpoint(Trace208 storage self) internal view returns (bool exists, uint48 _key, uint208 _value) {\\n        uint256 pos = self._checkpoints.length;\\n        if (pos == 0) {\\n            return (false, 0, 0);\\n        } else {\\n            Checkpoint208 storage ckpt = _unsafeAccess(self._checkpoints, pos - 1);\\n            return (true, ckpt._key, ckpt._value);\\n        }\\n    }\\n\\n    /**\\n     * @dev Returns the number of checkpoint.\\n     */\\n    function length(Trace208 storage self) internal view returns (uint256) {\\n        return self._checkpoints.length;\\n    }\\n\\n    /**\\n     * @dev Returns checkpoint at given position.\\n     */\\n    function at(Trace208 storage self, uint32 pos) internal view returns (Checkpoint208 memory) {\\n        return self._checkpoints[pos];\\n    }\\n\\n    /**\\n     * @dev Pushes a (`key`, `value`) pair into an ordered list of checkpoints, either by inserting a new checkpoint,\\n     * or by updating the last one.\\n     */\\n    function _insert(\\n        Checkpoint208[] storage self,\\n        uint48 key,\\n        uint208 value\\n    ) private returns (uint208 oldValue, uint208 newValue) {\\n        uint256 pos = self.length;\\n\\n        if (pos > 0) {\\n            Checkpoint208 storage last = _unsafeAccess(self, pos - 1);\\n            uint48 lastKey = last._key;\\n            uint208 lastValue = last._value;\\n\\n            // Checkpoint keys must be non-decreasing.\\n            if (lastKey > key) {\\n                revert CheckpointUnorderedInsertion();\\n            }\\n\\n            // Update or push new checkpoint\\n            if (lastKey == key) {\\n                last._value = value;\\n            } else {\\n                self.push(Checkpoint208({_key: key, _value: value}));\\n            }\\n            return (lastValue, value);\\n        } else {\\n            self.push(Checkpoint208({_key: key, _value: value}));\\n            return (0, value);\\n        }\\n    }\\n\\n    /**\\n     * @dev Return the index of the first (oldest) checkpoint with key strictly bigger than the search key, or `high`\\n     * if there is none. `low` and `high` define a section where to do the search, with inclusive `low` and exclusive\\n     * `high`.\\n     *\\n     * WARNING: `high` should not be greater than the array's length.\\n     */\\n    function _upperBinaryLookup(\\n        Checkpoint208[] storage self,\\n        uint48 key,\\n        uint256 low,\\n        uint256 high\\n    ) private view returns (uint256) {\\n        while (low < high) {\\n            uint256 mid = Math.average(low, high);\\n            if (_unsafeAccess(self, mid)._key > key) {\\n                high = mid;\\n            } else {\\n                low = mid + 1;\\n            }\\n        }\\n        return high;\\n    }\\n\\n    /**\\n     * @dev Return the index of the first (oldest) checkpoint with key greater or equal than the search key, or `high`\\n     * if there is none. `low` and `high` define a section where to do the search, with inclusive `low` and exclusive\\n     * `high`.\\n     *\\n     * WARNING: `high` should not be greater than the array's length.\\n     */\\n    function _lowerBinaryLookup(\\n        Checkpoint208[] storage self,\\n        uint48 key,\\n        uint256 low,\\n        uint256 high\\n    ) private view returns (uint256) {\\n        while (low < high) {\\n            uint256 mid = Math.average(low, high);\\n            if (_unsafeAccess(self, mid)._key < key) {\\n                low = mid + 1;\\n            } else {\\n                high = mid;\\n            }\\n        }\\n        return high;\\n    }\\n\\n    /**\\n     * @dev Access an element of the array without performing bounds check. The position is assumed to be within bounds.\\n     */\\n    function _unsafeAccess(\\n        Checkpoint208[] storage self,\\n        uint256 pos\\n    ) private pure returns (Checkpoint208 storage result) {\\n        assembly {\\n            mstore(0, self.slot)\\n            result.slot := add(keccak256(0, 0x20), pos)\\n        }\\n    }\\n\\n    struct Trace160 {\\n        Checkpoint160[] _checkpoints;\\n    }\\n\\n    struct Checkpoint160 {\\n        uint96 _key;\\n        uint160 _value;\\n    }\\n\\n    /**\\n     * @dev Pushes a (`key`, `value`) pair into a Trace160 so that it is stored as the checkpoint.\\n     *\\n     * Returns previous value and new value.\\n     *\\n     * IMPORTANT: Never accept `key` as a user input, since an arbitrary `type(uint96).max` key set will disable the\\n     * library.\\n     */\\n    function push(\\n        Trace160 storage self,\\n        uint96 key,\\n        uint160 value\\n    ) internal returns (uint160 oldValue, uint160 newValue) {\\n        return _insert(self._checkpoints, key, value);\\n    }\\n\\n    /**\\n     * @dev Returns the value in the first (oldest) checkpoint with key greater or equal than the search key, or zero if\\n     * there is none.\\n     */\\n    function lowerLookup(Trace160 storage self, uint96 key) internal view returns (uint160) {\\n        uint256 len = self._checkpoints.length;\\n        uint256 pos = _lowerBinaryLookup(self._checkpoints, key, 0, len);\\n        return pos == len ? 0 : _unsafeAccess(self._checkpoints, pos)._value;\\n    }\\n\\n    /**\\n     * @dev Returns the value in the last (most recent) checkpoint with key lower or equal than the search key, or zero\\n     * if there is none.\\n     */\\n    function upperLookup(Trace160 storage self, uint96 key) internal view returns (uint160) {\\n        uint256 len = self._checkpoints.length;\\n        uint256 pos = _upperBinaryLookup(self._checkpoints, key, 0, len);\\n        return pos == 0 ? 0 : _unsafeAccess(self._checkpoints, pos - 1)._value;\\n    }\\n\\n    /**\\n     * @dev Returns the value in the last (most recent) checkpoint with key lower or equal than the search key, or zero\\n     * if there is none.\\n     *\\n     * NOTE: This is a variant of {upperLookup} that is optimised to find \\\"recent\\\" checkpoint (checkpoints with high\\n     * keys).\\n     */\\n    function upperLookupRecent(Trace160 storage self, uint96 key) internal view returns (uint160) {\\n        uint256 len = self._checkpoints.length;\\n\\n        uint256 low = 0;\\n        uint256 high = len;\\n\\n        if (len > 5) {\\n            uint256 mid = len - Math.sqrt(len);\\n            if (key < _unsafeAccess(self._checkpoints, mid)._key) {\\n                high = mid;\\n            } else {\\n                low = mid + 1;\\n            }\\n        }\\n\\n        uint256 pos = _upperBinaryLookup(self._checkpoints, key, low, high);\\n\\n        return pos == 0 ? 0 : _unsafeAccess(self._checkpoints, pos - 1)._value;\\n    }\\n\\n    /**\\n     * @dev Returns the value in the most recent checkpoint, or zero if there are no checkpoints.\\n     */\\n    function latest(Trace160 storage self) internal view returns (uint160) {\\n        uint256 pos = self._checkpoints.length;\\n        return pos == 0 ? 0 : _unsafeAccess(self._checkpoints, pos - 1)._value;\\n    }\\n\\n    /**\\n     * @dev Returns whether there is a checkpoint in the structure (i.e. it is not empty), and if so the key and value\\n     * in the most recent checkpoint.\\n     */\\n    function latestCheckpoint(Trace160 storage self) internal view returns (bool exists, uint96 _key, uint160 _value) {\\n        uint256 pos = self._checkpoints.length;\\n        if (pos == 0) {\\n            return (false, 0, 0);\\n        } else {\\n            Checkpoint160 storage ckpt = _unsafeAccess(self._checkpoints, pos - 1);\\n            return (true, ckpt._key, ckpt._value);\\n        }\\n    }\\n\\n    /**\\n     * @dev Returns the number of checkpoint.\\n     */\\n    function length(Trace160 storage self) internal view returns (uint256) {\\n        return self._checkpoints.length;\\n    }\\n\\n    /**\\n     * @dev Returns checkpoint at given position.\\n     */\\n    function at(Trace160 storage self, uint32 pos) internal view returns (Checkpoint160 memory) {\\n        return self._checkpoints[pos];\\n    }\\n\\n    /**\\n     * @dev Pushes a (`key`, `value`) pair into an ordered list of checkpoints, either by inserting a new checkpoint,\\n     * or by updating the last one.\\n     */\\n    function _insert(\\n        Checkpoint160[] storage self,\\n        uint96 key,\\n        uint160 value\\n    ) private returns (uint160 oldValue, uint160 newValue) {\\n        uint256 pos = self.length;\\n\\n        if (pos > 0) {\\n            Checkpoint160 storage last = _unsafeAccess(self, pos - 1);\\n            uint96 lastKey = last._key;\\n            uint160 lastValue = last._value;\\n\\n            // Checkpoint keys must be non-decreasing.\\n            if (lastKey > key) {\\n                revert CheckpointUnorderedInsertion();\\n            }\\n\\n            // Update or push new checkpoint\\n            if (lastKey == key) {\\n                last._value = value;\\n            } else {\\n                self.push(Checkpoint160({_key: key, _value: value}));\\n            }\\n            return (lastValue, value);\\n        } else {\\n            self.push(Checkpoint160({_key: key, _value: value}));\\n            return (0, value);\\n        }\\n    }\\n\\n    /**\\n     * @dev Return the index of the first (oldest) checkpoint with key strictly bigger than the search key, or `high`\\n     * if there is none. `low` and `high` define a section where to do the search, with inclusive `low` and exclusive\\n     * `high`.\\n     *\\n     * WARNING: `high` should not be greater than the array's length.\\n     */\\n    function _upperBinaryLookup(\\n        Checkpoint160[] storage self,\\n        uint96 key,\\n        uint256 low,\\n        uint256 high\\n    ) private view returns (uint256) {\\n        while (low < high) {\\n            uint256 mid = Math.average(low, high);\\n            if (_unsafeAccess(self, mid)._key > key) {\\n                high = mid;\\n            } else {\\n                low = mid + 1;\\n            }\\n        }\\n        return high;\\n    }\\n\\n    /**\\n     * @dev Return the index of the first (oldest) checkpoint with key greater or equal than the search key, or `high`\\n     * if there is none. `low` and `high` define a section where to do the search, with inclusive `low` and exclusive\\n     * `high`.\\n     *\\n     * WARNING: `high` should not be greater than the array's length.\\n     */\\n    function _lowerBinaryLookup(\\n        Checkpoint160[] storage self,\\n        uint96 key,\\n        uint256 low,\\n        uint256 high\\n    ) private view returns (uint256) {\\n        while (low < high) {\\n            uint256 mid = Math.average(low, high);\\n            if (_unsafeAccess(self, mid)._key < key) {\\n                low = mid + 1;\\n            } else {\\n                high = mid;\\n            }\\n        }\\n        return high;\\n    }\\n\\n    /**\\n     * @dev Access an element of the array without performing bounds check. The position is assumed to be within bounds.\\n     */\\n    function _unsafeAccess(\\n        Checkpoint160[] storage self,\\n        uint256 pos\\n    ) private pure returns (Checkpoint160 storage result) {\\n        assembly {\\n            mstore(0, self.slot)\\n            result.slot := add(keccak256(0, 0x20), pos)\\n        }\\n    }\\n}\\n\"},\"@openzeppelin/contracts-upgradeable@5.2.0/governance/utils/VotesUpgradeable.sol\":{\"content\":\"// SPDX-License-Identifier: MIT\\n// OpenZeppelin Contracts (last updated v5.2.0) (governance/utils/Votes.sol)\\npragma solidity ^0.8.20;\\n\\nimport {IERC5805} from \\\"@openzeppelin/contracts/interfaces/IERC5805.sol\\\";\\nimport {ContextUpgradeable} from \\\"../../utils/ContextUpgradeable.sol\\\";\\nimport {NoncesUpgradeable} from \\\"../../utils/NoncesUpgradeable.sol\\\";\\nimport {EIP712Upgradeable} from \\\"../../utils/cryptography/EIP712Upgradeable.sol\\\";\\nimport {Checkpoints} from \\\"@openzeppelin/contracts/utils/structs/Checkpoints.sol\\\";\\nimport {SafeCast} from \\\"@openzeppelin/contracts/utils/math/SafeCast.sol\\\";\\nimport {ECDSA} from \\\"@openzeppelin/contracts/utils/cryptography/ECDSA.sol\\\";\\nimport {Time} from \\\"@openzeppelin/contracts/utils/types/Time.sol\\\";\\nimport {Initializable} from \\\"../../proxy/utils/Initializable.sol\\\";\\n\\n/**\\n * @dev This is a base abstract contract that tracks voting units, which are a measure of voting power that can be\\n * transferred, and provides a system of vote delegation, where an account can delegate its voting units to a sort of\\n * \\\"representative\\\" that will pool delegated voting units from different accounts and can then use it to vote in\\n * decisions. In fact, voting units _must_ be delegated in order to count as actual votes, and an account has to\\n * delegate those votes to itself if it wishes to participate in decisions and does not have a trusted representative.\\n *\\n * This contract is often combined with a token contract such that voting units correspond to token units. For an\\n * example, see {ERC721Votes}.\\n *\\n * The full history of delegate votes is tracked on-chain so that governance protocols can consider votes as distributed\\n * at a particular block number to protect against flash loans and double voting. The opt-in delegate system makes the\\n * cost of this history tracking optional.\\n *\\n * When using this module the derived contract must implement {_getVotingUnits} (for example, make it return\\n * {ERC721-balanceOf}), and can use {_transferVotingUnits} to track a change in the distribution of those units (in the\\n * previous example, it would be included in {ERC721-_update}).\\n */\\nabstract contract VotesUpgradeable is Initializable, ContextUpgradeable, EIP712Upgradeable, NoncesUpgradeable, IERC5805 {\\n    using Checkpoints for Checkpoints.Trace208;\\n\\n    bytes32 private constant DELEGATION_TYPEHASH =\\n        keccak256(\\\"Delegation(address delegatee,uint256 nonce,uint256 expiry)\\\");\\n\\n    /// @custom:storage-location erc7201:openzeppelin.storage.Votes\\n    struct VotesStorage {\\n        mapping(address account => address) _delegatee;\\n\\n        mapping(address delegatee => Checkpoints.Trace208) _delegateCheckpoints;\\n\\n        Checkpoints.Trace208 _totalCheckpoints;\\n    }\\n\\n    // keccak256(abi.encode(uint256(keccak256(\\\"openzeppelin.storage.Votes\\\")) - 1)) & ~bytes32(uint256(0xff))\\n    bytes32 private constant VotesStorageLocation = 0xe8b26c30fad74198956032a3533d903385d56dd795af560196f9c78d4af40d00;\\n\\n    function _getVotesStorage() private pure returns (VotesStorage storage $) {\\n        assembly {\\n            $.slot := VotesStorageLocation\\n        }\\n    }\\n\\n    /**\\n     * @dev The clock was incorrectly modified.\\n     */\\n    error ERC6372InconsistentClock();\\n\\n    /**\\n     * @dev Lookup to future votes is not available.\\n     */\\n    error ERC5805FutureLookup(uint256 timepoint, uint48 clock);\\n\\n    function __Votes_init() internal onlyInitializing {\\n    }\\n\\n    function __Votes_init_unchained() internal onlyInitializing {\\n    }\\n    /**\\n     * @dev Clock used for flagging checkpoints. Can be overridden to implement timestamp based\\n     * checkpoints (and voting), in which case {CLOCK_MODE} should be overridden as well to match.\\n     */\\n    function clock() public view virtual returns (uint48) {\\n        return Time.blockNumber();\\n    }\\n\\n    /**\\n     * @dev Machine-readable description of the clock as specified in ERC-6372.\\n     */\\n    // solhint-disable-next-line func-name-mixedcase\\n    function CLOCK_MODE() public view virtual returns (string memory) {\\n        // Check that the clock was not modified\\n        if (clock() != Time.blockNumber()) {\\n            revert ERC6372InconsistentClock();\\n        }\\n        return \\\"mode=blocknumber&from=default\\\";\\n    }\\n\\n    /**\\n     * @dev Validate that a timepoint is in the past, and return it as a uint48.\\n     */\\n    function _validateTimepoint(uint256 timepoint) internal view returns (uint48) {\\n        uint48 currentTimepoint = clock();\\n        if (timepoint >= currentTimepoint) revert ERC5805FutureLookup(timepoint, currentTimepoint);\\n        return SafeCast.toUint48(timepoint);\\n    }\\n\\n    /**\\n     * @dev Returns the current amount of votes that `account` has.\\n     */\\n    function getVotes(address account) public view virtual returns (uint256) {\\n        VotesStorage storage $ = _getVotesStorage();\\n        return $._delegateCheckpoints[account].latest();\\n    }\\n\\n    /**\\n     * @dev Returns the amount of votes that `account` had at a specific moment in the past. If the `clock()` is\\n     * configured to use block numbers, this will return the value at the end of the corresponding block.\\n     *\\n     * Requirements:\\n     *\\n     * - `timepoint` must be in the past. If operating using block numbers, the block must be already mined.\\n     */\\n    function getPastVotes(address account, uint256 timepoint) public view virtual returns (uint256) {\\n        VotesStorage storage $ = _getVotesStorage();\\n        return $._delegateCheckpoints[account].upperLookupRecent(_validateTimepoint(timepoint));\\n    }\\n\\n    /**\\n     * @dev Returns the total supply of votes available at a specific moment in the past. If the `clock()` is\\n     * configured to use block numbers, this will return the value at the end of the corresponding block.\\n     *\\n     * NOTE: This value is the sum of all available votes, which is not necessarily the sum of all delegated votes.\\n     * Votes that have not been delegated are still part of total supply, even though they would not participate in a\\n     * vote.\\n     *\\n     * Requirements:\\n     *\\n     * - `timepoint` must be in the past. If operating using block numbers, the block must be already mined.\\n     */\\n    function getPastTotalSupply(uint256 timepoint) public view virtual returns (uint256) {\\n        VotesStorage storage $ = _getVotesStorage();\\n        return $._totalCheckpoints.upperLookupRecent(_validateTimepoint(timepoint));\\n    }\\n\\n    /**\\n     * @dev Returns the current total supply of votes.\\n     */\\n    function _getTotalSupply() internal view virtual returns (uint256) {\\n        VotesStorage storage $ = _getVotesStorage();\\n        return $._totalCheckpoints.latest();\\n    }\\n\\n    /**\\n     * @dev Returns the delegate that `account` has chosen.\\n     */\\n    function delegates(address account) public view virtual returns (address) {\\n        VotesStorage storage $ = _getVotesStorage();\\n        return $._delegatee[account];\\n    }\\n\\n    /**\\n     * @dev Delegates votes from the sender to `delegatee`.\\n     */\\n    function delegate(address delegatee) public virtual {\\n        address account = _msgSender();\\n        _delegate(account, delegatee);\\n    }\\n\\n    /**\\n     * @dev Delegates votes from signer to `delegatee`.\\n     */\\n    function delegateBySig(\\n        address delegatee,\\n        uint256 nonce,\\n        uint256 expiry,\\n        uint8 v,\\n        bytes32 r,\\n        bytes32 s\\n    ) public virtual {\\n        if (block.timestamp > expiry) {\\n            revert VotesExpiredSignature(expiry);\\n        }\\n        address signer = ECDSA.recover(\\n            _hashTypedDataV4(keccak256(abi.encode(DELEGATION_TYPEHASH, delegatee, nonce, expiry))),\\n            v,\\n            r,\\n            s\\n        );\\n        _useCheckedNonce(signer, nonce);\\n        _delegate(signer, delegatee);\\n    }\\n\\n    /**\\n     * @dev Delegate all of `account`'s voting units to `delegatee`.\\n     *\\n     * Emits events {IVotes-DelegateChanged} and {IVotes-DelegateVotesChanged}.\\n     */\\n    function _delegate(address account, address delegatee) internal virtual {\\n        VotesStorage storage $ = _getVotesStorage();\\n        address oldDelegate = delegates(account);\\n        $._delegatee[account] = delegatee;\\n\\n        emit DelegateChanged(account, oldDelegate, delegatee);\\n        _moveDelegateVotes(oldDelegate, delegatee, _getVotingUnits(account));\\n    }\\n\\n    /**\\n     * @dev Transfers, mints, or burns voting units. To register a mint, `from` should be zero. To register a burn, `to`\\n     * should be zero. Total supply of voting units will be adjusted with mints and burns.\\n     */\\n    function _transferVotingUnits(address from, address to, uint256 amount) internal virtual {\\n        VotesStorage storage $ = _getVotesStorage();\\n        if (from == address(0)) {\\n            _push($._totalCheckpoints, _add, SafeCast.toUint208(amount));\\n        }\\n        if (to == address(0)) {\\n            _push($._totalCheckpoints, _subtract, SafeCast.toUint208(amount));\\n        }\\n        _moveDelegateVotes(delegates(from), delegates(to), amount);\\n    }\\n\\n    /**\\n     * @dev Moves delegated votes from one delegate to another.\\n     */\\n    function _moveDelegateVotes(address from, address to, uint256 amount) internal virtual {\\n        VotesStorage storage $ = _getVotesStorage();\\n        if (from != to && amount > 0) {\\n            if (from != address(0)) {\\n                (uint256 oldValue, uint256 newValue) = _push(\\n                    $._delegateCheckpoints[from],\\n                    _subtract,\\n                    SafeCast.toUint208(amount)\\n                );\\n                emit DelegateVotesChanged(from, oldValue, newValue);\\n            }\\n            if (to != address(0)) {\\n                (uint256 oldValue, uint256 newValue) = _push(\\n                    $._delegateCheckpoints[to],\\n                    _add,\\n                    SafeCast.toUint208(amount)\\n                );\\n                emit DelegateVotesChanged(to, oldValue, newValue);\\n            }\\n        }\\n    }\\n\\n    /**\\n     * @dev Get number of checkpoints for `account`.\\n     */\\n    function _numCheckpoints(address account) internal view virtual returns (uint32) {\\n        VotesStorage storage $ = _getVotesStorage();\\n        return SafeCast.toUint32($._delegateCheckpoints[account].length());\\n    }\\n\\n    /**\\n     * @dev Get the `pos`-th checkpoint for `account`.\\n     */\\n    function _checkpoints(\\n        address account,\\n        uint32 pos\\n    ) internal view virtual returns (Checkpoints.Checkpoint208 memory) {\\n        VotesStorage storage $ = _getVotesStorage();\\n        return $._delegateCheckpoints[account].at(pos);\\n    }\\n\\n    function _push(\\n        Checkpoints.Trace208 storage store,\\n        function(uint208, uint208) view returns (uint208) op,\\n        uint208 delta\\n    ) private returns (uint208 oldValue, uint208 newValue) {\\n        return store.push(clock(), op(store.latest(), delta));\\n    }\\n\\n    function _add(uint208 a, uint208 b) private pure returns (uint208) {\\n        return a + b;\\n    }\\n\\n    function _subtract(uint208 a, uint208 b) private pure returns (uint208) {\\n        return a - b;\\n    }\\n\\n    /**\\n     * @dev Must return the voting units held by an account.\\n     */\\n    function _getVotingUnits(address) internal view virtual returns (uint256);\\n}\\n\"},\"@openzeppelin/contracts-upgradeable@5.2.0/utils/cryptography/EIP712Upgradeable.sol\":{\"content\":\"// SPDX-License-Identifier: MIT\\n// OpenZeppelin Contracts (last updated v5.1.0) (utils/cryptography/EIP712.sol)\\n\\npragma solidity ^0.8.20;\\n\\nimport {MessageHashUtils} from \\\"@openzeppelin/contracts/utils/cryptography/MessageHashUtils.sol\\\";\\nimport {IERC5267} from \\\"@openzeppelin/contracts/interfaces/IERC5267.sol\\\";\\nimport {Initializable} from \\\"../../proxy/utils/Initializable.sol\\\";\\n\\n/**\\n * @dev https://eips.ethereum.org/EIPS/eip-712[EIP-712] is a standard for hashing and signing of typed structured data.\\n *\\n * The encoding scheme specified in the EIP requires a domain separator and a hash of the typed structured data, whose\\n * encoding is very generic and therefore its implementation in Solidity is not feasible, thus this contract\\n * does not implement the encoding itself. Protocols need to implement the type-specific encoding they need in order to\\n * produce the hash of their typed data using a combination of `abi.encode` and `keccak256`.\\n *\\n * This contract implements the EIP-712 domain separator ({_domainSeparatorV4}) that is used as part of the encoding\\n * scheme, and the final step of the encoding to obtain the message digest that is then signed via ECDSA\\n * ({_hashTypedDataV4}).\\n *\\n * The implementation of the domain separator was designed to be as efficient as possible while still properly updating\\n * the chain id to protect against replay attacks on an eventual fork of the chain.\\n *\\n * NOTE: This contract implements the version of the encoding known as \\\"v4\\\", as implemented by the JSON RPC method\\n * https://docs.metamask.io/guide/signing-data.html[`eth_signTypedDataV4` in MetaMask].\\n *\\n * NOTE: In the upgradeable version of this contract, the cached values will correspond to the address, and the domain\\n * separator of the implementation contract. This will cause the {_domainSeparatorV4} function to always rebuild the\\n * separator from the immutable values, which is cheaper than accessing a cached version in cold storage.\\n */\\nabstract contract EIP712Upgradeable is Initializable, IERC5267 {\\n    bytes32 private constant TYPE_HASH =\\n        keccak256(\\\"EIP712Domain(string name,string version,uint256 chainId,address verifyingContract)\\\");\\n\\n    /// @custom:storage-location erc7201:openzeppelin.storage.EIP712\\n    struct EIP712Storage {\\n        /// @custom:oz-renamed-from _HASHED_NAME\\n        bytes32 _hashedName;\\n        /// @custom:oz-renamed-from _HASHED_VERSION\\n        bytes32 _hashedVersion;\\n\\n        string _name;\\n        string _version;\\n    }\\n\\n    // keccak256(abi.encode(uint256(keccak256(\\\"openzeppelin.storage.EIP712\\\")) - 1)) & ~bytes32(uint256(0xff))\\n    bytes32 private constant EIP712StorageLocation = 0xa16a46d94261c7517cc8ff89f61c0ce93598e3c849801011dee649a6a557d100;\\n\\n    function _getEIP712Storage() private pure returns (EIP712Storage storage $) {\\n        assembly {\\n            $.slot := EIP712StorageLocation\\n        }\\n    }\\n\\n    /**\\n     * @dev Initializes the domain separator and parameter caches.\\n     *\\n     * The meaning of `name` and `version` is specified in\\n     * https://eips.ethereum.org/EIPS/eip-712#definition-of-domainseparator[EIP-712]:\\n     *\\n     * - `name`: the user readable name of the signing domain, i.e. the name of the DApp or the protocol.\\n     * - `version`: the current major version of the signing domain.\\n     *\\n     * NOTE: These parameters cannot be changed except through a xref:learn::upgrading-smart-contracts.adoc[smart\\n     * contract upgrade].\\n     */\\n    function __EIP712_init(string memory name, string memory version) internal onlyInitializing {\\n        __EIP712_init_unchained(name, version);\\n    }\\n\\n    function __EIP712_init_unchained(string memory name, string memory version) internal onlyInitializing {\\n        EIP712Storage storage $ = _getEIP712Storage();\\n        $._name = name;\\n        $._version = version;\\n\\n        // Reset prior values in storage if upgrading\\n        $._hashedName = 0;\\n        $._hashedVersion = 0;\\n    }\\n\\n    /**\\n     * @dev Returns the domain separator for the current chain.\\n     */\\n    function _domainSeparatorV4() internal view returns (bytes32) {\\n        return _buildDomainSeparator();\\n    }\\n\\n    function _buildDomainSeparator() private view returns (bytes32) {\\n        return keccak256(abi.encode(TYPE_HASH, _EIP712NameHash(), _EIP712VersionHash(), block.chainid, address(this)));\\n    }\\n\\n    /**\\n     * @dev Given an already https://eips.ethereum.org/EIPS/eip-712#definition-of-hashstruct[hashed struct], this\\n     * function returns the hash of the fully encoded EIP712 message for this domain.\\n     *\\n     * This hash can be used together with {ECDSA-recover} to obtain the signer of a message. For example:\\n     *\\n     * ```solidity\\n     * bytes32 digest = _hashTypedDataV4(keccak256(abi.encode(\\n     *     keccak256(\\\"Mail(address to,string contents)\\\"),\\n     *     mailTo,\\n     *     keccak256(bytes(mailContents))\\n     * )));\\n     * address signer = ECDSA.recover(digest, signature);\\n     * ```\\n     */\\n    function _hashTypedDataV4(bytes32 structHash) internal view virtual returns (bytes32) {\\n        return MessageHashUtils.toTypedDataHash(_domainSeparatorV4(), structHash);\\n    }\\n\\n    /**\\n     * @dev See {IERC-5267}.\\n     */\\n    function eip712Domain()\\n        public\\n        view\\n        virtual\\n        returns (\\n            bytes1 fields,\\n            string memory name,\\n            string memory version,\\n            uint256 chainId,\\n            address verifyingContract,\\n            bytes32 salt,\\n            uint256[] memory extensions\\n        )\\n    {\\n        EIP712Storage storage $ = _getEIP712Storage();\\n        // If the hashed name and version in storage are non-zero, the contract hasn't been properly initialized\\n        // and the EIP712 domain is not reliable, as it will be missing name and version.\\n        require($._hashedName == 0 && $._hashedVersion == 0, \\\"EIP712: Uninitialized\\\");\\n\\n        return (\\n            hex\\\"0f\\\", // 01111\\n            _EIP712Name(),\\n            _EIP712Version(),\\n            block.chainid,\\n            address(this),\\n            bytes32(0),\\n            new uint256[](0)\\n        );\\n    }\\n\\n    /**\\n     * @dev The name parameter for the EIP712 domain.\\n     *\\n     * NOTE: This function reads from storage by default, but can be redefined to return a constant value if gas costs\\n     * are a concern.\\n     */\\n    function _EIP712Name() internal view virtual returns (string memory) {\\n        EIP712Storage storage $ = _getEIP712Storage();\\n        return $._name;\\n    }\\n\\n    /**\\n     * @dev The version parameter for the EIP712 domain.\\n     *\\n     * NOTE: This function reads from storage by default, but can be redefined to return a constant value if gas costs\\n     * are a concern.\\n     */\\n    function _EIP712Version() internal view virtual returns (string memory) {\\n        EIP712Storage storage $ = _getEIP712Storage();\\n        return $._version;\\n    }\\n\\n    /**\\n     * @dev The hash of the name parameter for the EIP712 domain.\\n     *\\n     * NOTE: In previous versions this function was virtual. In this version you should override `_EIP712Name` instead.\\n     */\\n    function _EIP712NameHash() internal view returns (bytes32) {\\n        EIP712Storage storage $ = _getEIP712Storage();\\n        string memory name = _EIP712Name();\\n        if (bytes(name).length > 0) {\\n            return keccak256(bytes(name));\\n        } else {\\n            // If the name is empty, the contract may have been upgraded without initializing the new storage.\\n            // We return the name hash in storage if non-zero, otherwise we assume the name is empty by design.\\n            bytes32 hashedName = $._hashedName;\\n            if (hashedName != 0) {\\n                return hashedName;\\n            } else {\\n                return keccak256(\\\"\\\");\\n            }\\n        }\\n    }\\n\\n    /**\\n     * @dev The hash of the version parameter for the EIP712 domain.\\n     *\\n     * NOTE: In previous versions this function was virtual. In this version you should override `_EIP712Version` instead.\\n     */\\n    function _EIP712VersionHash() internal view returns (bytes32) {\\n        EIP712Storage storage $ = _getEIP712Storage();\\n        string memory version = _EIP712Version();\\n        if (bytes(version).length > 0) {\\n            return keccak256(bytes(version));\\n        } else {\\n            // If the version is empty, the contract may have been upgraded without initializing the new storage.\\n            // We return the version hash in storage if non-zero, otherwise we assume the version is empty by design.\\n            bytes32 hashedVersion = $._hashedVersion;\\n            if (hashedVersion != 0) {\\n                return hashedVersion;\\n            } else {\\n                return keccak256(\\\"\\\");\\n            }\\n        }\\n    }\\n}\\n\"},\"@openzeppelin/contracts/utils/cryptography/ECDSA.sol\":{\"content\":\"// SPDX-License-Identifier: MIT\\n// OpenZeppelin Contracts (last updated v5.1.0) (utils/cryptography/ECDSA.sol)\\n\\npragma solidity ^0.8.20;\\n\\n/**\\n * @dev Elliptic Curve Digital Signature Algorithm (ECDSA) operations.\\n *\\n * These functions can be used to verify that a message was signed by the holder\\n * of the private keys of a given address.\\n */\\nlibrary ECDSA {\\n    enum RecoverError {\\n        NoError,\\n        InvalidSignature,\\n        InvalidSignatureLength,\\n        InvalidSignatureS\\n    }\\n\\n    /**\\n     * @dev The signature derives the `address(0)`.\\n     */\\n    error ECDSAInvalidSignature();\\n\\n    /**\\n     * @dev The signature has an invalid length.\\n     */\\n    error ECDSAInvalidSignatureLength(uint256 length);\\n\\n    /**\\n     * @dev The signature has an S value that is in the upper half order.\\n     */\\n    error ECDSAInvalidSignatureS(bytes32 s);\\n\\n    /**\\n     * @dev Returns the address that signed a hashed message (`hash`) with `signature` or an error. This will not\\n     * return address(0) without also returning an error description. Errors are documented using an enum (error type)\\n     * and a bytes32 providing additional information about the error.\\n     *\\n     * If no error is returned, then the address can be used for verification purposes.\\n     *\\n     * The `ecrecover` EVM precompile allows for malleable (non-unique) signatures:\\n     * this function rejects them by requiring the `s` value to be in the lower\\n     * half order, and the `v` value to be either 27 or 28.\\n     *\\n     * IMPORTANT: `hash` _must_ be the result of a hash operation for the\\n     * verification to be secure: it is possible to craft signatures that\\n     * recover to arbitrary addresses for non-hashed data. A safe way to ensure\\n     * this is by receiving a hash of the original message (which may otherwise\\n     * be too long), and then calling {MessageHashUtils-toEthSignedMessageHash} on it.\\n     *\\n     * Documentation for signature generation:\\n     * - with https://web3js.readthedocs.io/en/v1.3.4/web3-eth-accounts.html#sign[Web3.js]\\n     * - with https://docs.ethers.io/v5/api/signer/#Signer-signMessage[ethers]\\n     */\\n    function tryRecover(\\n        bytes32 hash,\\n        bytes memory signature\\n    ) internal pure returns (address recovered, RecoverError err, bytes32 errArg) {\\n        if (signature.length == 65) {\\n            bytes32 r;\\n            bytes32 s;\\n            uint8 v;\\n            // ecrecover takes the signature parameters, and the only way to get them\\n            // currently is to use assembly.\\n            assembly (\\\"memory-safe\\\") {\\n                r := mload(add(signature, 0x20))\\n                s := mload(add(signature, 0x40))\\n                v := byte(0, mload(add(signature, 0x60)))\\n            }\\n            return tryRecover(hash, v, r, s);\\n        } else {\\n            return (address(0), RecoverError.InvalidSignatureLength, bytes32(signature.length));\\n        }\\n    }\\n\\n    /**\\n     * @dev Returns the address that signed a hashed message (`hash`) with\\n     * `signature`. This address can then be used for verification purposes.\\n     *\\n     * The `ecrecover` EVM precompile allows for malleable (non-unique) signatures:\\n     * this function rejects them by requiring the `s` value to be in the lower\\n     * half order, and the `v` value to be either 27 or 28.\\n     *\\n     * IMPORTANT: `hash` _must_ be the result of a hash operation for the\\n     * verification to be secure: it is possible to craft signatures that\\n     * recover to arbitrary addresses for non-hashed data. A safe way to ensure\\n     * this is by receiving a hash of the original message (which may otherwise\\n     * be too long), and then calling {MessageHashUtils-toEthSignedMessageHash} on it.\\n     */\\n    function recover(bytes32 hash, bytes memory signature) internal pure returns (address) {\\n        (address recovered, RecoverError error, bytes32 errorArg) = tryRecover(hash, signature);\\n        _throwError(error, errorArg);\\n        return recovered;\\n    }\\n\\n    /**\\n     * @dev Overload of {ECDSA-tryRecover} that receives the `r` and `vs` short-signature fields separately.\\n     *\\n     * See https://eips.ethereum.org/EIPS/eip-2098[ERC-2098 short signatures]\\n     */\\n    function tryRecover(\\n        bytes32 hash,\\n        bytes32 r,\\n        bytes32 vs\\n    ) internal pure returns (address recovered, RecoverError err, bytes32 errArg) {\\n        unchecked {\\n            bytes32 s = vs & bytes32(0x7fffffffffffffffffffffffffffffffffffffffffffffffffffffffffffffff);\\n            // We do not check for an overflow here since the shift operation results in 0 or 1.\\n            uint8 v = uint8((uint256(vs) >> 255) + 27);\\n            return tryRecover(hash, v, r, s);\\n        }\\n    }\\n\\n    /**\\n     * @dev Overload of {ECDSA-recover} that receives the `r and `vs` short-signature fields separately.\\n     */\\n    function recover(bytes32 hash, bytes32 r, bytes32 vs) internal pure returns (address) {\\n        (address recovered, RecoverError error, bytes32 errorArg) = tryRecover(hash, r, vs);\\n        _throwError(error, errorArg);\\n        return recovered;\\n    }\\n\\n    /**\\n     * @dev Overload of {ECDSA-tryRecover} that receives the `v`,\\n     * `r` and `s` signature fields separately.\\n     */\\n    function tryRecover(\\n        bytes32 hash,\\n        uint8 v,\\n        bytes32 r,\\n        bytes32 s\\n    ) internal pure returns (address recovered, RecoverError err, bytes32 errArg) {\\n        // EIP-2 still allows signature malleability for ecrecover(). Remove this possibility and make the signature\\n        // unique. Appendix F in the Ethereum Yellow paper (https://ethereum.github.io/yellowpaper/paper.pdf), defines\\n        // the valid range for s in (301): 0 < s < secp256k1n  2 + 1, and for v in (302): v  {27, 28}. Most\\n        // signatures from current libraries generate a unique signature with an s-value in the lower half order.\\n        //\\n        // If your library generates malleable signatures, such as s-values in the upper range, calculate a new s-value\\n        // with 0xFFFFFFFFFFFFFFFFFFFFFFFFFFFFFFFEBAAEDCE6AF48A03BBFD25E8CD0364141 - s1 and flip v from 27 to 28 or\\n        // vice versa. If your library also generates signatures with 0/1 for v instead 27/28, add 27 to v to accept\\n        // these malleable signatures as well.\\n        if (uint256(s) > 0x7FFFFFFFFFFFFFFFFFFFFFFFFFFFFFFF5D576E7357A4501DDFE92F46681B20A0) {\\n            return (address(0), RecoverError.InvalidSignatureS, s);\\n        }\\n\\n        // If the signature is valid (and not malleable), return the signer address\\n        address signer = ecrecover(hash, v, r, s);\\n        if (signer == address(0)) {\\n            return (address(0), RecoverError.InvalidSignature, bytes32(0));\\n        }\\n\\n        return (signer, RecoverError.NoError, bytes32(0));\\n    }\\n\\n    /**\\n     * @dev Overload of {ECDSA-recover} that receives the `v`,\\n     * `r` and `s` signature fields separately.\\n     */\\n    function recover(bytes32 hash, uint8 v, bytes32 r, bytes32 s) internal pure returns (address) {\\n        (address recovered, RecoverError error, bytes32 errorArg) = tryRecover(hash, v, r, s);\\n        _throwError(error, errorArg);\\n        return recovered;\\n    }\\n\\n    /**\\n     * @dev Optionally reverts with the corresponding custom error according to the `error` argument provided.\\n     */\\n    function _throwError(RecoverError error, bytes32 errorArg) private pure {\\n        if (error == RecoverError.NoError) {\\n            return; // no error: do nothing\\n        } else if (error == RecoverError.InvalidSignature) {\\n            revert ECDSAInvalidSignature();\\n        } else if (error == RecoverError.InvalidSignatureLength) {\\n            revert ECDSAInvalidSignatureLength(uint256(errorArg));\\n        } else if (error == RecoverError.InvalidSignatureS) {\\n            revert ECDSAInvalidSignatureS(errorArg);\\n        }\\n    }\\n}\\n\"},\"@openzeppelin/contracts/token/ERC20/extensions/IERC20Permit.sol\":{\"content\":\"// SPDX-License-Identifier: MIT\\n// OpenZeppelin Contracts (last updated v5.1.0) (token/ERC20/extensions/IERC20Permit.sol)\\n\\npragma solidity ^0.8.20;\\n\\n/**\\n * @dev Interface of the ERC-20 Permit extension allowing approvals to be made via signatures, as defined in\\n * https://eips.ethereum.org/EIPS/eip-2612[ERC-2612].\\n *\\n * Adds the {permit} method, which can be used to change an account's ERC-20 allowance (see {IERC20-allowance}) by\\n * presenting a message signed by the account. By not relying on {IERC20-approve}, the token holder account doesn't\\n * need to send a transaction, and thus is not required to hold Ether at all.\\n *\\n * ==== Security Considerations\\n *\\n * There are two important considerations concerning the use of `permit`. The first is that a valid permit signature\\n * expresses an allowance, and it should not be assumed to convey additional meaning. In particular, it should not be\\n * considered as an intention to spend the allowance in any specific way. The second is that because permits have\\n * built-in replay protection and can be submitted by anyone, they can be frontrun. A protocol that uses permits should\\n * take this into consideration and allow a `permit` call to fail. Combining these two aspects, a pattern that may be\\n * generally recommended is:\\n *\\n * ```solidity\\n * function doThingWithPermit(..., uint256 value, uint256 deadline, uint8 v, bytes32 r, bytes32 s) public {\\n *     try token.permit(msg.sender, address(this), value, deadline, v, r, s) {} catch {}\\n *     doThing(..., value);\\n * }\\n *\\n * function doThing(..., uint256 value) public {\\n *     token.safeTransferFrom(msg.sender, address(this), value);\\n *     ...\\n * }\\n * ```\\n *\\n * Observe that: 1) `msg.sender` is used as the owner, leaving no ambiguity as to the signer intent, and 2) the use of\\n * `try/catch` allows the permit to fail and makes the code tolerant to frontrunning. (See also\\n * {SafeERC20-safeTransferFrom}).\\n *\\n * Additionally, note that smart contract wallets (such as Argent or Safe) are not able to produce permit signatures, so\\n * contracts should have entry points that don't rely on permit.\\n */\\ninterface IERC20Permit {\\n    /**\\n     * @dev Sets `value` as the allowance of `spender` over ``owner``'s tokens,\\n     * given ``owner``'s signed approval.\\n     *\\n     * IMPORTANT: The same issues {IERC20-approve} has related to transaction\\n     * ordering also apply here.\\n     *\\n     * Emits an {Approval} event.\\n     *\\n     * Requirements:\\n     *\\n     * - `spender` cannot be the zero address.\\n     * - `deadline` must be a timestamp in the future.\\n     * - `v`, `r` and `s` must be a valid `secp256k1` signature from `owner`\\n     * over the EIP712-formatted function arguments.\\n     * - the signature must use ``owner``'s current nonce (see {nonces}).\\n     *\\n     * For more information on the signature format, see the\\n     * https://eips.ethereum.org/EIPS/eip-2612#specification[relevant EIP\\n     * section].\\n     *\\n     * CAUTION: See Security Considerations above.\\n     */\\n    function permit(\\n        address owner,\\n        address spender,\\n        uint256 value,\\n        uint256 deadline,\\n        uint8 v,\\n        bytes32 r,\\n        bytes32 s\\n    ) external;\\n\\n    /**\\n     * @dev Returns the current nonce for `owner`. This value must be\\n     * included whenever a signature is generated for {permit}.\\n     *\\n     * Every successful call to {permit} increases ``owner``'s nonce by one. This\\n     * prevents a signature from being used multiple times.\\n     */\\n    function nonces(address owner) external view returns (uint256);\\n\\n    /**\\n     * @dev Returns the domain separator used in the encoding of the signature for {permit}, as defined by {EIP712}.\\n     */\\n    // solhint-disable-next-line func-name-mixedcase\\n    function DOMAIN_SEPARATOR() external view returns (bytes32);\\n}\\n\"},\"@openzeppelin/contracts/interfaces/draft-IERC6093.sol\":{\"content\":\"// SPDX-License-Identifier: MIT\\n// OpenZeppelin Contracts (last updated v5.1.0) (interfaces/draft-IERC6093.sol)\\npragma solidity ^0.8.20;\\n\\n/**\\n * @dev Standard ERC-20 Errors\\n * Interface of the https://eips.ethereum.org/EIPS/eip-6093[ERC-6093] custom errors for ERC-20 tokens.\\n */\\ninterface IERC20Errors {\\n    /**\\n     * @dev Indicates an error related to the current `balance` of a `sender`. Used in transfers.\\n     * @param sender Address whose tokens are being transferred.\\n     * @param balance Current balance for the interacting account.\\n     * @param needed Minimum amount required to perform a transfer.\\n     */\\n    error ERC20InsufficientBalance(address sender, uint256 balance, uint256 needed);\\n\\n    /**\\n     * @dev Indicates a failure with the token `sender`. Used in transfers.\\n     * @param sender Address whose tokens are being transferred.\\n     */\\n    error ERC20InvalidSender(address sender);\\n\\n    /**\\n     * @dev Indicates a failure with the token `receiver`. Used in transfers.\\n     * @param receiver Address to which tokens are being transferred.\\n     */\\n    error ERC20InvalidReceiver(address receiver);\\n\\n    /**\\n     * @dev Indicates a failure with the `spender`s `allowance`. Used in transfers.\\n     * @param spender Address that may be allowed to operate on tokens without being their owner.\\n     * @param allowance Amount of tokens a `spender` is allowed to operate with.\\n     * @param needed Minimum amount required to perform a transfer.\\n     */\\n    error ERC20InsufficientAllowance(address spender, uint256 allowance, uint256 needed);\\n\\n    /**\\n     * @dev Indicates a failure with the `approver` of a token to be approved. Used in approvals.\\n     * @param approver Address initiating an approval operation.\\n     */\\n    error ERC20InvalidApprover(address approver);\\n\\n    /**\\n     * @dev Indicates a failure with the `spender` to be approved. Used in approvals.\\n     * @param spender Address that may be allowed to operate on tokens without being their owner.\\n     */\\n    error ERC20InvalidSpender(address spender);\\n}\\n\\n/**\\n * @dev Standard ERC-721 Errors\\n * Interface of the https://eips.ethereum.org/EIPS/eip-6093[ERC-6093] custom errors for ERC-721 tokens.\\n */\\ninterface IERC721Errors {\\n    /**\\n     * @dev Indicates that an address can't be an owner. For example, `address(0)` is a forbidden owner in ERC-20.\\n     * Used in balance queries.\\n     * @param owner Address of the current owner of a token.\\n     */\\n    error ERC721InvalidOwner(address owner);\\n\\n    /**\\n     * @dev Indicates a `tokenId` whose `owner` is the zero address.\\n     * @param tokenId Identifier number of a token.\\n     */\\n    error ERC721NonexistentToken(uint256 tokenId);\\n\\n    /**\\n     * @dev Indicates an error related to the ownership over a particular token. Used in transfers.\\n     * @param sender Address whose tokens are being transferred.\\n     * @param tokenId Identifier number of a token.\\n     * @param owner Address of the current owner of a token.\\n     */\\n    error ERC721IncorrectOwner(address sender, uint256 tokenId, address owner);\\n\\n    /**\\n     * @dev Indicates a failure with the token `sender`. Used in transfers.\\n     * @param sender Address whose tokens are being transferred.\\n     */\\n    error ERC721InvalidSender(address sender);\\n\\n    /**\\n     * @dev Indicates a failure with the token `receiver`. Used in transfers.\\n     * @param receiver Address to which tokens are being transferred.\\n     */\\n    error ERC721InvalidReceiver(address receiver);\\n\\n    /**\\n     * @dev Indicates a failure with the `operator`s approval. Used in transfers.\\n     * @param operator Address that may be allowed to operate on tokens without being their owner.\\n     * @param tokenId Identifier number of a token.\\n     */\\n    error ERC721InsufficientApproval(address operator, uint256 tokenId);\\n\\n    /**\\n     * @dev Indicates a failure with the `approver` of a token to be approved. Used in approvals.\\n     * @param approver Address initiating an approval operation.\\n     */\\n    error ERC721InvalidApprover(address approver);\\n\\n    /**\\n     * @dev Indicates a failure with the `operator` to be approved. Used in approvals.\\n     * @param operator Address that may be allowed to operate on tokens without being their owner.\\n     */\\n    error ERC721InvalidOperator(address operator);\\n}\\n\\n/**\\n * @dev Standard ERC-1155 Errors\\n * Interface of the https://eips.ethereum.org/EIPS/eip-6093[ERC-6093] custom errors for ERC-1155 tokens.\\n */\\ninterface IERC1155Errors {\\n    /**\\n     * @dev Indicates an error related to the current `balance` of a `sender`. Used in transfers.\\n     * @param sender Address whose tokens are being transferred.\\n     * @param balance Current balance for the interacting account.\\n     * @param needed Minimum amount required to perform a transfer.\\n     * @param tokenId Identifier number of a token.\\n     */\\n    error ERC1155InsufficientBalance(address sender, uint256 balance, uint256 needed, uint256 tokenId);\\n\\n    /**\\n     * @dev Indicates a failure with the token `sender`. Used in transfers.\\n     * @param sender Address whose tokens are being transferred.\\n     */\\n    error ERC1155InvalidSender(address sender);\\n\\n    /**\\n     * @dev Indicates a failure with the token `receiver`. Used in transfers.\\n     * @param receiver Address to which tokens are being transferred.\\n     */\\n    error ERC1155InvalidReceiver(address receiver);\\n\\n    /**\\n     * @dev Indicates a failure with the `operator`s approval. Used in transfers.\\n     * @param operator Address that may be allowed to operate on tokens without being their owner.\\n     * @param owner Address of the current owner of a token.\\n     */\\n    error ERC1155MissingApprovalForAll(address operator, address owner);\\n\\n    /**\\n     * @dev Indicates a failure with the `approver` of a token to be approved. Used in approvals.\\n     * @param approver Address initiating an approval operation.\\n     */\\n    error ERC1155InvalidApprover(address approver);\\n\\n    /**\\n     * @dev Indicates a failure with the `operator` to be approved. Used in approvals.\\n     * @param operator Address that may be allowed to operate on tokens without being their owner.\\n     */\\n    error ERC1155InvalidOperator(address operator);\\n\\n    /**\\n     * @dev Indicates an array length mismatch between ids and values in a safeBatchTransferFrom operation.\\n     * Used in batch transfers.\\n     * @param idsLength Length of the array of token identifiers\\n     * @param valuesLength Length of the array of token amounts\\n     */\\n    error ERC1155InvalidArrayLength(uint256 idsLength, uint256 valuesLength);\\n}\\n\"},\"@openzeppelin/contracts-upgradeable@5.2.0/utils/ContextUpgradeable.sol\":{\"content\":\"// SPDX-License-Identifier: MIT\\n// OpenZeppelin Contracts (last updated v5.0.1) (utils/Context.sol)\\n\\npragma solidity ^0.8.20;\\nimport {Initializable} from \\\"../proxy/utils/Initializable.sol\\\";\\n\\n/**\\n * @dev Provides information about the current execution context, including the\\n * sender of the transaction and its data. While these are generally available\\n * via msg.sender and msg.data, they should not be accessed in such a direct\\n * manner, since when dealing with meta-transactions the account sending and\\n * paying for execution may not be the actual sender (as far as an application\\n * is concerned).\\n *\\n * This contract is only required for intermediate, library-like contracts.\\n */\\nabstract contract ContextUpgradeable is Initializable {\\n    function __Context_init() internal onlyInitializing {\\n    }\\n\\n    function __Context_init_unchained() internal onlyInitializing {\\n    }\\n    function _msgSender() internal view virtual returns (address) {\\n        return msg.sender;\\n    }\\n\\n    function _msgData() internal view virtual returns (bytes calldata) {\\n        return msg.data;\\n    }\\n\\n    function _contextSuffixLength() internal view virtual returns (uint256) {\\n        return 0;\\n    }\\n}\\n\"},\"@openzeppelin/contracts/token/ERC20/extensions/IERC20Metadata.sol\":{\"content\":\"// SPDX-License-Identifier: MIT\\n// OpenZeppelin Contracts (last updated v5.1.0) (token/ERC20/extensions/IERC20Metadata.sol)\\n\\npragma solidity ^0.8.20;\\n\\nimport {IERC20} from \\\"../IERC20.sol\\\";\\n\\n/**\\n * @dev Interface for the optional metadata functions from the ERC-20 standard.\\n */\\ninterface IERC20Metadata is IERC20 {\\n    /**\\n     * @dev Returns the name of the token.\\n     */\\n    function name() external view returns (string memory);\\n\\n    /**\\n     * @dev Returns the symbol of the token.\\n     */\\n    function symbol() external view returns (string memory);\\n\\n    /**\\n     * @dev Returns the decimals places of the token.\\n     */\\n    function decimals() external view returns (uint8);\\n}\\n\"},\"@openzeppelin/contracts/token/ERC20/IERC20.sol\":{\"content\":\"// SPDX-License-Identifier: MIT\\n// OpenZeppelin Contracts (last updated v5.1.0) (token/ERC20/IERC20.sol)\\n\\npragma solidity ^0.8.20;\\n\\n/**\\n * @dev Interface of the ERC-20 standard as defined in the ERC.\\n */\\ninterface IERC20 {\\n    /**\\n     * @dev Emitted when `value` tokens are moved from one account (`from`) to\\n     * another (`to`).\\n     *\\n     * Note that `value` may be zero.\\n     */\\n    event Transfer(address indexed from, address indexed to, uint256 value);\\n\\n    /**\\n     * @dev Emitted when the allowance of a `spender` for an `owner` is set by\\n     * a call to {approve}. `value` is the new allowance.\\n     */\\n    event Approval(address indexed owner, address indexed spender, uint256 value);\\n\\n    /**\\n     * @dev Returns the value of tokens in existence.\\n     */\\n    function totalSupply() external view returns (uint256);\\n\\n    /**\\n     * @dev Returns the value of tokens owned by `account`.\\n     */\\n    function balanceOf(address account) external view returns (uint256);\\n\\n    /**\\n     * @dev Moves a `value` amount of tokens from the caller's account to `to`.\\n     *\\n     * Returns a boolean value indicating whether the operation succeeded.\\n     *\\n     * Emits a {Transfer} event.\\n     */\\n    function transfer(address to, uint256 value) external returns (bool);\\n\\n    /**\\n     * @dev Returns the remaining number of tokens that `spender` will be\\n     * allowed to spend on behalf of `owner` through {transferFrom}. This is\\n     * zero by default.\\n     *\\n     * This value changes when {approve} or {transferFrom} are called.\\n     */\\n    function allowance(address owner, address spender) external view returns (uint256);\\n\\n    /**\\n     * @dev Sets a `value` amount of tokens as the allowance of `spender` over the\\n     * caller's tokens.\\n     *\\n     * Returns a boolean value indicating whether the operation succeeded.\\n     *\\n     * IMPORTANT: Beware that changing an allowance with this method brings the risk\\n     * that someone may use both the old and the new allowance by unfortunate\\n     * transaction ordering. One possible solution to mitigate this race\\n     * condition is to first reduce the spender's allowance to 0 and set the\\n     * desired value afterwards:\\n     * https://github.com/ethereum/EIPs/issues/20#issuecomment-263524729\\n     *\\n     * Emits an {Approval} event.\\n     */\\n    function approve(address spender, uint256 value) external returns (bool);\\n\\n    /**\\n     * @dev Moves a `value` amount of tokens from `from` to `to` using the\\n     * allowance mechanism. `value` is then deducted from the caller's\\n     * allowance.\\n     *\\n     * Returns a boolean value indicating whether the operation succeeded.\\n     *\\n     * Emits a {Transfer} event.\\n     */\\n    function transferFrom(address from, address to, uint256 value) external returns (bool);\\n}\\n\"},\"@openzeppelin/contracts/proxy/ERC1967/ERC1967Utils.sol\":{\"content\":\"// SPDX-License-Identifier: MIT\\n// OpenZeppelin Contracts (last updated v5.2.0) (proxy/ERC1967/ERC1967Utils.sol)\\n\\npragma solidity ^0.8.22;\\n\\nimport {IBeacon} from \\\"../beacon/IBeacon.sol\\\";\\nimport {IERC1967} from \\\"../../interfaces/IERC1967.sol\\\";\\nimport {Address} from \\\"../../utils/Address.sol\\\";\\nimport {StorageSlot} from \\\"../../utils/StorageSlot.sol\\\";\\n\\n/**\\n * @dev This library provides getters and event emitting update functions for\\n * https://eips.ethereum.org/EIPS/eip-1967[ERC-1967] slots.\\n */\\nlibrary ERC1967Utils {\\n    /**\\n     * @dev Storage slot with the address of the current implementation.\\n     * This is the keccak-256 hash of \\\"eip1967.proxy.implementation\\\" subtracted by 1.\\n     */\\n    // solhint-disable-next-line private-vars-leading-underscore\\n    bytes32 internal constant IMPLEMENTATION_SLOT = 0x360894a13ba1a3210667c828492db98dca3e2076cc3735a920a3ca505d382bbc;\\n\\n    /**\\n     * @dev The `implementation` of the proxy is invalid.\\n     */\\n    error ERC1967InvalidImplementation(address implementation);\\n\\n    /**\\n     * @dev The `admin` of the proxy is invalid.\\n     */\\n    error ERC1967InvalidAdmin(address admin);\\n\\n    /**\\n     * @dev The `beacon` of the proxy is invalid.\\n     */\\n    error ERC1967InvalidBeacon(address beacon);\\n\\n    /**\\n     * @dev An upgrade function sees `msg.value > 0` that may be lost.\\n     */\\n    error ERC1967NonPayable();\\n\\n    /**\\n     * @dev Returns the current implementation address.\\n     */\\n    function getImplementation() internal view returns (address) {\\n        return StorageSlot.getAddressSlot(IMPLEMENTATION_SLOT).value;\\n    }\\n\\n    /**\\n     * @dev Stores a new address in the ERC-1967 implementation slot.\\n     */\\n    function _setImplementation(address newImplementation) private {\\n        if (newImplementation.code.length == 0) {\\n            revert ERC1967InvalidImplementation(newImplementation);\\n        }\\n        StorageSlot.getAddressSlot(IMPLEMENTATION_SLOT).value = newImplementation;\\n    }\\n\\n    /**\\n     * @dev Performs implementation upgrade with additional setup call if data is nonempty.\\n     * This function is payable only if the setup call is performed, otherwise `msg.value` is rejected\\n     * to avoid stuck value in the contract.\\n     *\\n     * Emits an {IERC1967-Upgraded} event.\\n     */\\n    function upgradeToAndCall(address newImplementation, bytes memory data) internal {\\n        _setImplementation(newImplementation);\\n        emit IERC1967.Upgraded(newImplementation);\\n\\n        if (data.length > 0) {\\n            Address.functionDelegateCall(newImplementation, data);\\n        } else {\\n            _checkNonPayable();\\n        }\\n    }\\n\\n    /**\\n     * @dev Storage slot with the admin of the contract.\\n     * This is the keccak-256 hash of \\\"eip1967.proxy.admin\\\" subtracted by 1.\\n     */\\n    // solhint-disable-next-line private-vars-leading-underscore\\n    bytes32 internal constant ADMIN_SLOT = 0xb53127684a568b3173ae13b9f8a6016e243e63b6e8ee1178d6a717850b5d6103;\\n\\n    /**\\n     * @dev Returns the current admin.\\n     *\\n     * TIP: To get this value clients can read directly from the storage slot shown below (specified by ERC-1967) using\\n     * the https://eth.wiki/json-rpc/API#eth_getstorageat[`eth_getStorageAt`] RPC call.\\n     * `0xb53127684a568b3173ae13b9f8a6016e243e63b6e8ee1178d6a717850b5d6103`\\n     */\\n    function getAdmin() internal view returns (address) {\\n        return StorageSlot.getAddressSlot(ADMIN_SLOT).value;\\n    }\\n\\n    /**\\n     * @dev Stores a new address in the ERC-1967 admin slot.\\n     */\\n    function _setAdmin(address newAdmin) private {\\n        if (newAdmin == address(0)) {\\n            revert ERC1967InvalidAdmin(address(0));\\n        }\\n        StorageSlot.getAddressSlot(ADMIN_SLOT).value = newAdmin;\\n    }\\n\\n    /**\\n     * @dev Changes the admin of the proxy.\\n     *\\n     * Emits an {IERC1967-AdminChanged} event.\\n     */\\n    function changeAdmin(address newAdmin) internal {\\n        emit IERC1967.AdminChanged(getAdmin(), newAdmin);\\n        _setAdmin(newAdmin);\\n    }\\n\\n    /**\\n     * @dev The storage slot of the UpgradeableBeacon contract which defines the implementation for this proxy.\\n     * This is the keccak-256 hash of \\\"eip1967.proxy.beacon\\\" subtracted by 1.\\n     */\\n    // solhint-disable-next-line private-vars-leading-underscore\\n    bytes32 internal constant BEACON_SLOT = 0xa3f0ad74e5423aebfd80d3ef4346578335a9a72aeaee59ff6cb3582b35133d50;\\n\\n    /**\\n     * @dev Returns the current beacon.\\n     */\\n    function getBeacon() internal view returns (address) {\\n        return StorageSlot.getAddressSlot(BEACON_SLOT).value;\\n    }\\n\\n    /**\\n     * @dev Stores a new beacon in the ERC-1967 beacon slot.\\n     */\\n    function _setBeacon(address newBeacon) private {\\n        if (newBeacon.code.length == 0) {\\n            revert ERC1967InvalidBeacon(newBeacon);\\n        }\\n\\n        StorageSlot.getAddressSlot(BEACON_SLOT).value = newBeacon;\\n\\n        address beaconImplementation = IBeacon(newBeacon).implementation();\\n        if (beaconImplementation.code.length == 0) {\\n            revert ERC1967InvalidImplementation(beaconImplementation);\\n        }\\n    }\\n\\n    /**\\n     * @dev Change the beacon and trigger a setup call if data is nonempty.\\n     * This function is payable only if the setup call is performed, otherwise `msg.value` is rejected\\n     * to avoid stuck value in the contract.\\n     *\\n     * Emits an {IERC1967-BeaconUpgraded} event.\\n     *\\n     * CAUTION: Invoking this function has no effect on an instance of {BeaconProxy} since v5, since\\n     * it uses an immutable beacon without looking at the value of the ERC-1967 beacon slot for\\n     * efficiency.\\n     */\\n    function upgradeBeaconToAndCall(address newBeacon, bytes memory data) internal {\\n        _setBeacon(newBeacon);\\n        emit IERC1967.BeaconUpgraded(newBeacon);\\n\\n        if (data.length > 0) {\\n            Address.functionDelegateCall(IBeacon(newBeacon).implementation(), data);\\n        } else {\\n            _checkNonPayable();\\n        }\\n    }\\n\\n    /**\\n     * @dev Reverts if `msg.value` is not zero. It can be used to avoid `msg.value` stuck in the contract\\n     * if an upgrade doesn't perform an initialization call.\\n     */\\n    function _checkNonPayable() private {\\n        if (msg.value > 0) {\\n            revert ERC1967NonPayable();\\n        }\\n    }\\n}\\n\"},\"@openzeppelin/contracts/interfaces/draft-IERC1822.sol\":{\"content\":\"// SPDX-License-Identifier: MIT\\n// OpenZeppelin Contracts (last updated v5.1.0) (interfaces/draft-IERC1822.sol)\\n\\npragma solidity ^0.8.20;\\n\\n/**\\n * @dev ERC-1822: Universal Upgradeable Proxy Standard (UUPS) documents a method for upgradeability through a simplified\\n * proxy whose upgrades are fully controlled by the current implementation.\\n */\\ninterface IERC1822Proxiable {\\n    /**\\n     * @dev Returns the storage slot that the proxiable contract assumes is being used to store the implementation\\n     * address.\\n     *\\n     * IMPORTANT: A proxy pointing at a proxiable contract should not be considered proxiable itself, because this risks\\n     * bricking a proxy that upgrades to it, by delegating to itself until out of gas. Thus it is critical that this\\n     * function revert if invoked through a proxy.\\n     */\\n    function proxiableUUID() external view returns (bytes32);\\n}\\n\"},\"@openzeppelin/contracts/utils/math/Math.sol\":{\"content\":\"// SPDX-License-Identifier: MIT\\n// OpenZeppelin Contracts (last updated v5.1.0) (utils/math/Math.sol)\\n\\npragma solidity ^0.8.20;\\n\\nimport {Panic} from \\\"../Panic.sol\\\";\\nimport {SafeCast} from \\\"./SafeCast.sol\\\";\\n\\n/**\\n * @dev Standard math utilities missing in the Solidity language.\\n */\\nlibrary Math {\\n    enum Rounding {\\n        Floor, // Toward negative infinity\\n        Ceil, // Toward positive infinity\\n        Trunc, // Toward zero\\n        Expand // Away from zero\\n    }\\n\\n    /**\\n     * @dev Returns the addition of two unsigned integers, with an success flag (no overflow).\\n     */\\n    function tryAdd(uint256 a, uint256 b) internal pure returns (bool success, uint256 result) {\\n        unchecked {\\n            uint256 c = a + b;\\n            if (c < a) return (false, 0);\\n            return (true, c);\\n        }\\n    }\\n\\n    /**\\n     * @dev Returns the subtraction of two unsigned integers, with an success flag (no overflow).\\n     */\\n    function trySub(uint256 a, uint256 b) internal pure returns (bool success, uint256 result) {\\n        unchecked {\\n            if (b > a) return (false, 0);\\n            return (true, a - b);\\n        }\\n    }\\n\\n    /**\\n     * @dev Returns the multiplication of two unsigned integers, with an success flag (no overflow).\\n     */\\n    function tryMul(uint256 a, uint256 b) internal pure returns (bool success, uint256 result) {\\n        unchecked {\\n            // Gas optimization: this is cheaper than requiring 'a' not being zero, but the\\n            // benefit is lost if 'b' is also tested.\\n            // See: https://github.com/OpenZeppelin/openzeppelin-contracts/pull/522\\n            if (a == 0) return (true, 0);\\n            uint256 c = a * b;\\n            if (c / a != b) return (false, 0);\\n            return (true, c);\\n        }\\n    }\\n\\n    /**\\n     * @dev Returns the division of two unsigned integers, with a success flag (no division by zero).\\n     */\\n    function tryDiv(uint256 a, uint256 b) internal pure returns (bool success, uint256 result) {\\n        unchecked {\\n            if (b == 0) return (false, 0);\\n            return (true, a / b);\\n        }\\n    }\\n\\n    /**\\n     * @dev Returns the remainder of dividing two unsigned integers, with a success flag (no division by zero).\\n     */\\n    function tryMod(uint256 a, uint256 b) internal pure returns (bool success, uint256 result) {\\n        unchecked {\\n            if (b == 0) return (false, 0);\\n            return (true, a % b);\\n        }\\n    }\\n\\n    /**\\n     * @dev Branchless ternary evaluation for `a ? b : c`. Gas costs are constant.\\n     *\\n     * IMPORTANT: This function may reduce bytecode size and consume less gas when used standalone.\\n     * However, the compiler may optimize Solidity ternary operations (i.e. `a ? b : c`) to only compute\\n     * one branch when needed, making this function more expensive.\\n     */\\n    function ternary(bool condition, uint256 a, uint256 b) internal pure returns (uint256) {\\n        unchecked {\\n            // branchless ternary works because:\\n            // b ^ (a ^ b) == a\\n            // b ^ 0 == b\\n            return b ^ ((a ^ b) * SafeCast.toUint(condition));\\n        }\\n    }\\n\\n    /**\\n     * @dev Returns the largest of two numbers.\\n     */\\n    function max(uint256 a, uint256 b) internal pure returns (uint256) {\\n        return ternary(a > b, a, b);\\n    }\\n\\n    /**\\n     * @dev Returns the smallest of two numbers.\\n     */\\n    function min(uint256 a, uint256 b) internal pure returns (uint256) {\\n        return ternary(a < b, a, b);\\n    }\\n\\n    /**\\n     * @dev Returns the average of two numbers. The result is rounded towards\\n     * zero.\\n     */\\n    function average(uint256 a, uint256 b) internal pure returns (uint256) {\\n        // (a + b) / 2 can overflow.\\n        return (a & b) + (a ^ b) / 2;\\n    }\\n\\n    /**\\n     * @dev Returns the ceiling of the division of two numbers.\\n     *\\n     * This differs from standard division with `/` in that it rounds towards infinity instead\\n     * of rounding towards zero.\\n     */\\n    function ceilDiv(uint256 a, uint256 b) internal pure returns (uint256) {\\n        if (b == 0) {\\n            // Guarantee the same behavior as in a regular Solidity division.\\n            Panic.panic(Panic.DIVISION_BY_ZERO);\\n        }\\n\\n        // The following calculation ensures accurate ceiling division without overflow.\\n        // Since a is non-zero, (a - 1) / b will not overflow.\\n        // The largest possible result occurs when (a - 1) / b is type(uint256).max,\\n        // but the largest value we can obtain is type(uint256).max - 1, which happens\\n        // when a = type(uint256).max and b = 1.\\n        unchecked {\\n            return SafeCast.toUint(a > 0) * ((a - 1) / b + 1);\\n        }\\n    }\\n\\n    /**\\n     * @dev Calculates floor(x * y / denominator) with full precision. Throws if result overflows a uint256 or\\n     * denominator == 0.\\n     *\\n     * Original credit to Remco Bloemen under MIT license (https://xn--2-umb.com/21/muldiv) with further edits by\\n     * Uniswap Labs also under MIT license.\\n     */\\n    function mulDiv(uint256 x, uint256 y, uint256 denominator) internal pure returns (uint256 result) {\\n        unchecked {\\n            // 512-bit multiply [prod1 prod0] = x * y. Compute the product mod 2 and mod 2 - 1, then use\\n            // the Chinese Remainder Theorem to reconstruct the 512 bit result. The result is stored in two 256\\n            // variables such that product = prod1 * 2 + prod0.\\n            uint256 prod0 = x * y; // Least significant 256 bits of the product\\n            uint256 prod1; // Most significant 256 bits of the product\\n            assembly {\\n                let mm := mulmod(x, y, not(0))\\n                prod1 := sub(sub(mm, prod0), lt(mm, prod0))\\n            }\\n\\n            // Handle non-overflow cases, 256 by 256 division.\\n            if (prod1 == 0) {\\n                // Solidity will revert if denominator == 0, unlike the div opcode on its own.\\n                // The surrounding unchecked block does not change this fact.\\n                // See https://docs.soliditylang.org/en/latest/control-structures.html#checked-or-unchecked-arithmetic.\\n                return prod0 / denominator;\\n            }\\n\\n            // Make sure the result is less than 2. Also prevents denominator == 0.\\n            if (denominator <= prod1) {\\n                Panic.panic(ternary(denominator == 0, Panic.DIVISION_BY_ZERO, Panic.UNDER_OVERFLOW));\\n            }\\n\\n            ///////////////////////////////////////////////\\n            // 512 by 256 division.\\n            ///////////////////////////////////////////////\\n\\n            // Make division exact by subtracting the remainder from [prod1 prod0].\\n            uint256 remainder;\\n            assembly {\\n                // Compute remainder using mulmod.\\n                remainder := mulmod(x, y, denominator)\\n\\n                // Subtract 256 bit number from 512 bit number.\\n                prod1 := sub(prod1, gt(remainder, prod0))\\n                prod0 := sub(prod0, remainder)\\n            }\\n\\n            // Factor powers of two out of denominator and compute largest power of two divisor of denominator.\\n            // Always >= 1. See https://cs.stackexchange.com/q/138556/92363.\\n\\n            uint256 twos = denominator & (0 - denominator);\\n            assembly {\\n                // Divide denominator by twos.\\n                denominator := div(denominator, twos)\\n\\n                // Divide [prod1 prod0] by twos.\\n                prod0 := div(prod0, twos)\\n\\n                // Flip twos such that it is 2 / twos. If twos is zero, then it becomes one.\\n                twos := add(div(sub(0, twos), twos), 1)\\n            }\\n\\n            // Shift in bits from prod1 into prod0.\\n            prod0 |= prod1 * twos;\\n\\n            // Invert denominator mod 2. Now that denominator is an odd number, it has an inverse modulo 2 such\\n            // that denominator * inv  1 mod 2. Compute the inverse by starting with a seed that is correct for\\n            // four bits. That is, denominator * inv  1 mod 2.\\n            uint256 inverse = (3 * denominator) ^ 2;\\n\\n            // Use the Newton-Raphson iteration to improve the precision. Thanks to Hensel's lifting lemma, this also\\n            // works in modular arithmetic, doubling the correct bits in each step.\\n            inverse *= 2 - denominator * inverse; // inverse mod 2\\n            inverse *= 2 - denominator * inverse; // inverse mod 2\\n            inverse *= 2 - denominator * inverse; // inverse mod 2\\n            inverse *= 2 - denominator * inverse; // inverse mod 2\\n            inverse *= 2 - denominator * inverse; // inverse mod 2\\n            inverse *= 2 - denominator * inverse; // inverse mod 2\\n\\n            // Because the division is now exact we can divide by multiplying with the modular inverse of denominator.\\n            // This will give us the correct result modulo 2. Since the preconditions guarantee that the outcome is\\n            // less than 2, this is the final result. We don't need to compute the high bits of the result and prod1\\n            // is no longer required.\\n            result = prod0 * inverse;\\n            return result;\\n        }\\n    }\\n\\n    /**\\n     * @dev Calculates x * y / denominator with full precision, following the selected rounding direction.\\n     */\\n    function mulDiv(uint256 x, uint256 y, uint256 denominator, Rounding rounding) internal pure returns (uint256) {\\n        return mulDiv(x, y, denominator) + SafeCast.toUint(unsignedRoundsUp(rounding) && mulmod(x, y, denominator) > 0);\\n    }\\n\\n    /**\\n     * @dev Calculate the modular multiplicative inverse of a number in Z/nZ.\\n     *\\n     * If n is a prime, then Z/nZ is a field. In that case all elements are inversible, except 0.\\n     * If n is not a prime, then Z/nZ is not a field, and some elements might not be inversible.\\n     *\\n     * If the input value is not inversible, 0 is returned.\\n     *\\n     * NOTE: If you know for sure that n is (big) a prime, it may be cheaper to use Fermat's little theorem and get the\\n     * inverse using `Math.modExp(a, n - 2, n)`. See {invModPrime}.\\n     */\\n    function invMod(uint256 a, uint256 n) internal pure returns (uint256) {\\n        unchecked {\\n            if (n == 0) return 0;\\n\\n            // The inverse modulo is calculated using the Extended Euclidean Algorithm (iterative version)\\n            // Used to compute integers x and y such that: ax + ny = gcd(a, n).\\n            // When the gcd is 1, then the inverse of a modulo n exists and it's x.\\n            // ax + ny = 1\\n            // ax = 1 + (-y)n\\n            // ax  1 (mod n) # x is the inverse of a modulo n\\n\\n            // If the remainder is 0 the gcd is n right away.\\n            uint256 remainder = a % n;\\n            uint256 gcd = n;\\n\\n            // Therefore the initial coefficients are:\\n            // ax + ny = gcd(a, n) = n\\n            // 0a + 1n = n\\n            int256 x = 0;\\n            int256 y = 1;\\n\\n            while (remainder != 0) {\\n                uint256 quotient = gcd / remainder;\\n\\n                (gcd, remainder) = (\\n                    // The old remainder is the next gcd to try.\\n                    remainder,\\n                    // Compute the next remainder.\\n                    // Can't overflow given that (a % gcd) * (gcd // (a % gcd)) <= gcd\\n                    // where gcd is at most n (capped to type(uint256).max)\\n                    gcd - remainder * quotient\\n                );\\n\\n                (x, y) = (\\n                    // Increment the coefficient of a.\\n                    y,\\n                    // Decrement the coefficient of n.\\n                    // Can overflow, but the result is casted to uint256 so that the\\n                    // next value of y is \\\"wrapped around\\\" to a value between 0 and n - 1.\\n                    x - y * int256(quotient)\\n                );\\n            }\\n\\n            if (gcd != 1) return 0; // No inverse exists.\\n            return ternary(x < 0, n - uint256(-x), uint256(x)); // Wrap the result if it's negative.\\n        }\\n    }\\n\\n    /**\\n     * @dev Variant of {invMod}. More efficient, but only works if `p` is known to be a prime greater than `2`.\\n     *\\n     * From https://en.wikipedia.org/wiki/Fermat%27s_little_theorem[Fermat's little theorem], we know that if p is\\n     * prime, then `a**(p-1)  1 mod p`. As a consequence, we have `a * a**(p-2)  1 mod p`, which means that\\n     * `a**(p-2)` is the modular multiplicative inverse of a in Fp.\\n     *\\n     * NOTE: this function does NOT check that `p` is a prime greater than `2`.\\n     */\\n    function invModPrime(uint256 a, uint256 p) internal view returns (uint256) {\\n        unchecked {\\n            return Math.modExp(a, p - 2, p);\\n        }\\n    }\\n\\n    /**\\n     * @dev Returns the modular exponentiation of the specified base, exponent and modulus (b ** e % m)\\n     *\\n     * Requirements:\\n     * - modulus can't be zero\\n     * - underlying staticcall to precompile must succeed\\n     *\\n     * IMPORTANT: The result is only valid if the underlying call succeeds. When using this function, make\\n     * sure the chain you're using it on supports the precompiled contract for modular exponentiation\\n     * at address 0x05 as specified in https://eips.ethereum.org/EIPS/eip-198[EIP-198]. Otherwise,\\n     * the underlying function will succeed given the lack of a revert, but the result may be incorrectly\\n     * interpreted as 0.\\n     */\\n    function modExp(uint256 b, uint256 e, uint256 m) internal view returns (uint256) {\\n        (bool success, uint256 result) = tryModExp(b, e, m);\\n        if (!success) {\\n            Panic.panic(Panic.DIVISION_BY_ZERO);\\n        }\\n        return result;\\n    }\\n\\n    /**\\n     * @dev Returns the modular exponentiation of the specified base, exponent and modulus (b ** e % m).\\n     * It includes a success flag indicating if the operation succeeded. Operation will be marked as failed if trying\\n     * to operate modulo 0 or if the underlying precompile reverted.\\n     *\\n     * IMPORTANT: The result is only valid if the success flag is true. When using this function, make sure the chain\\n     * you're using it on supports the precompiled contract for modular exponentiation at address 0x05 as specified in\\n     * https://eips.ethereum.org/EIPS/eip-198[EIP-198]. Otherwise, the underlying function will succeed given the lack\\n     * of a revert, but the result may be incorrectly interpreted as 0.\\n     */\\n    function tryModExp(uint256 b, uint256 e, uint256 m) internal view returns (bool success, uint256 result) {\\n        if (m == 0) return (false, 0);\\n        assembly (\\\"memory-safe\\\") {\\n            let ptr := mload(0x40)\\n            // | Offset    | Content    | Content (Hex)                                                      |\\n            // |-----------|------------|--------------------------------------------------------------------|\\n            // | 0x00:0x1f | size of b  | 0x0000000000000000000000000000000000000000000000000000000000000020 |\\n            // | 0x20:0x3f | size of e  | 0x0000000000000000000000000000000000000000000000000000000000000020 |\\n            // | 0x40:0x5f | size of m  | 0x0000000000000000000000000000000000000000000000000000000000000020 |\\n            // | 0x60:0x7f | value of b | 0x<.............................................................b> |\\n            // | 0x80:0x9f | value of e | 0x<.............................................................e> |\\n            // | 0xa0:0xbf | value of m | 0x<.............................................................m> |\\n            mstore(ptr, 0x20)\\n            mstore(add(ptr, 0x20), 0x20)\\n            mstore(add(ptr, 0x40), 0x20)\\n            mstore(add(ptr, 0x60), b)\\n            mstore(add(ptr, 0x80), e)\\n            mstore(add(ptr, 0xa0), m)\\n\\n            // Given the result < m, it's guaranteed to fit in 32 bytes,\\n            // so we can use the memory scratch space located at offset 0.\\n            success := staticcall(gas(), 0x05, ptr, 0xc0, 0x00, 0x20)\\n            result := mload(0x00)\\n        }\\n    }\\n\\n    /**\\n     * @dev Variant of {modExp} that supports inputs of arbitrary length.\\n     */\\n    function modExp(bytes memory b, bytes memory e, bytes memory m) internal view returns (bytes memory) {\\n        (bool success, bytes memory result) = tryModExp(b, e, m);\\n        if (!success) {\\n            Panic.panic(Panic.DIVISION_BY_ZERO);\\n        }\\n        return result;\\n    }\\n\\n    /**\\n     * @dev Variant of {tryModExp} that supports inputs of arbitrary length.\\n     */\\n    function tryModExp(\\n        bytes memory b,\\n        bytes memory e,\\n        bytes memory m\\n    ) internal view returns (bool success, bytes memory result) {\\n        if (_zeroBytes(m)) return (false, new bytes(0));\\n\\n        uint256 mLen = m.length;\\n\\n        // Encode call args in result and move the free memory pointer\\n        result = abi.encodePacked(b.length, e.length, mLen, b, e, m);\\n\\n        assembly (\\\"memory-safe\\\") {\\n            let dataPtr := add(result, 0x20)\\n            // Write result on top of args to avoid allocating extra memory.\\n            success := staticcall(gas(), 0x05, dataPtr, mload(result), dataPtr, mLen)\\n            // Overwrite the length.\\n            // result.length > returndatasize() is guaranteed because returndatasize() == m.length\\n            mstore(result, mLen)\\n            // Set the memory pointer after the returned data.\\n            mstore(0x40, add(dataPtr, mLen))\\n        }\\n    }\\n\\n    /**\\n     * @dev Returns whether the provided byte array is zero.\\n     */\\n    function _zeroBytes(bytes memory byteArray) private pure returns (bool) {\\n        for (uint256 i = 0; i < byteArray.length; ++i) {\\n            if (byteArray[i] != 0) {\\n                return false;\\n            }\\n        }\\n        return true;\\n    }\\n\\n    /**\\n     * @dev Returns the square root of a number. If the number is not a perfect square, the value is rounded\\n     * towards zero.\\n     *\\n     * This method is based on Newton's method for computing square roots; the algorithm is restricted to only\\n     * using integer operations.\\n     */\\n    function sqrt(uint256 a) internal pure returns (uint256) {\\n        unchecked {\\n            // Take care of easy edge cases when a == 0 or a == 1\\n            if (a <= 1) {\\n                return a;\\n            }\\n\\n            // In this function, we use Newton's method to get a root of `f(x) := x - a`. It involves building a\\n            // sequence x_n that converges toward sqrt(a). For each iteration x_n, we also define the error between\\n            // the current value as `_n = | x_n - sqrt(a) |`.\\n            //\\n            // For our first estimation, we consider `e` the smallest power of 2 which is bigger than the square root\\n            // of the target. (i.e. `2**(e-1)  sqrt(a) < 2**e`). We know that `e  128` because `(2) = 2` is\\n            // bigger than any uint256.\\n            //\\n            // By noticing that\\n            // `2**(e-1)  sqrt(a) < 2**e  (2**(e-1))  a < (2**e)  2**(2*e-2)  a < 2**(2*e)`\\n            // we can deduce that `e - 1` is `log2(a) / 2`. We can thus compute `x_n = 2**(e-1)` using a method similar\\n            // to the msb function.\\n            uint256 aa = a;\\n            uint256 xn = 1;\\n\\n            if (aa >= (1 << 128)) {\\n                aa >>= 128;\\n                xn <<= 64;\\n            }\\n            if (aa >= (1 << 64)) {\\n                aa >>= 64;\\n                xn <<= 32;\\n            }\\n            if (aa >= (1 << 32)) {\\n                aa >>= 32;\\n                xn <<= 16;\\n            }\\n            if (aa >= (1 << 16)) {\\n                aa >>= 16;\\n                xn <<= 8;\\n            }\\n            if (aa >= (1 << 8)) {\\n                aa >>= 8;\\n                xn <<= 4;\\n            }\\n            if (aa >= (1 << 4)) {\\n                aa >>= 4;\\n                xn <<= 2;\\n            }\\n            if (aa >= (1 << 2)) {\\n                xn <<= 1;\\n            }\\n\\n            // We now have x_n such that `x_n = 2**(e-1)  sqrt(a) < 2**e = 2 * x_n`. This implies _n  2**(e-1).\\n            //\\n            // We can refine our estimation by noticing that the middle of that interval minimizes the error.\\n            // If we move x_n to equal 2**(e-1) + 2**(e-2), then we reduce the error to _n  2**(e-2).\\n            // This is going to be our x_0 (and _0)\\n            xn = (3 * xn) >> 1; // _0 := | x_0 - sqrt(a) |  2**(e-2)\\n\\n            // From here, Newton's method give us:\\n            // x_{n+1} = (x_n + a / x_n) / 2\\n            //\\n            // One should note that:\\n            // x_{n+1} - a = ((x_n + a / x_n) / 2) - a\\n            //              = ((x_n + a) / (2 * x_n)) - a\\n            //              = (x_n + 2 * a * x_n + a) / (4 * x_n) - a\\n            //              = (x_n + 2 * a * x_n + a - 4 * a * x_n) / (4 * x_n)\\n            //              = (x_n - 2 * a * x_n + a) / (4 * x_n)\\n            //              = (x_n - a) / (2 * x_n)\\n            //              = ((x_n - a) / (2 * x_n))\\n            //               0\\n            // Which proves that for all n  1, sqrt(a)  x_n\\n            //\\n            // This gives us the proof of quadratic convergence of the sequence:\\n            // _{n+1} = | x_{n+1} - sqrt(a) |\\n            //         = | (x_n + a / x_n) / 2 - sqrt(a) |\\n            //         = | (x_n + a - 2*x_n*sqrt(a)) / (2 * x_n) |\\n            //         = | (x_n - sqrt(a)) / (2 * x_n) |\\n            //         = | _n / (2 * x_n) |\\n            //         = _n / | (2 * x_n) |\\n            //\\n            // For the first iteration, we have a special case where x_0 is known:\\n            // _1 = _0 / | (2 * x_0) |\\n            //      (2**(e-2)) / (2 * (2**(e-1) + 2**(e-2)))\\n            //      2**(2*e-4) / (3 * 2**(e-1))\\n            //      2**(e-3) / 3\\n            //      2**(e-3-log2(3))\\n            //      2**(e-4.5)\\n            //\\n            // For the following iterations, we use the fact that, 2**(e-1)  sqrt(a)  x_n:\\n            // _{n+1} = _n / | (2 * x_n) |\\n            //          (2**(e-k)) / (2 * 2**(e-1))\\n            //          2**(2*e-2*k) / 2**e\\n            //          2**(e-2*k)\\n            xn = (xn + a / xn) >> 1; // _1 := | x_1 - sqrt(a) |  2**(e-4.5)  -- special case, see above\\n            xn = (xn + a / xn) >> 1; // _2 := | x_2 - sqrt(a) |  2**(e-9)    -- general case with k = 4.5\\n            xn = (xn + a / xn) >> 1; // _3 := | x_3 - sqrt(a) |  2**(e-18)   -- general case with k = 9\\n            xn = (xn + a / xn) >> 1; // _4 := | x_4 - sqrt(a) |  2**(e-36)   -- general case with k = 18\\n            xn = (xn + a / xn) >> 1; // _5 := | x_5 - sqrt(a) |  2**(e-72)   -- general case with k = 36\\n            xn = (xn + a / xn) >> 1; // _6 := | x_6 - sqrt(a) |  2**(e-144)  -- general case with k = 72\\n\\n            // Because e  128 (as discussed during the first estimation phase), we know have reached a precision\\n            // _6  2**(e-144) < 1. Given we're operating on integers, then we can ensure that xn is now either\\n            // sqrt(a) or sqrt(a) + 1.\\n            return xn - SafeCast.toUint(xn > a / xn);\\n        }\\n    }\\n\\n    /**\\n     * @dev Calculates sqrt(a), following the selected rounding direction.\\n     */\\n    function sqrt(uint256 a, Rounding rounding) internal pure returns (uint256) {\\n        unchecked {\\n            uint256 result = sqrt(a);\\n            return result + SafeCast.toUint(unsignedRoundsUp(rounding) && result * result < a);\\n        }\\n    }\\n\\n    /**\\n     * @dev Return the log in base 2 of a positive value rounded towards zero.\\n     * Returns 0 if given 0.\\n     */\\n    function log2(uint256 value) internal pure returns (uint256) {\\n        uint256 result = 0;\\n        uint256 exp;\\n        unchecked {\\n            exp = 128 * SafeCast.toUint(value > (1 << 128) - 1);\\n            value >>= exp;\\n            result += exp;\\n\\n            exp = 64 * SafeCast.toUint(value > (1 << 64) - 1);\\n            value >>= exp;\\n            result += exp;\\n\\n            exp = 32 * SafeCast.toUint(value > (1 << 32) - 1);\\n            value >>= exp;\\n            result += exp;\\n\\n            exp = 16 * SafeCast.toUint(value > (1 << 16) - 1);\\n            value >>= exp;\\n            result += exp;\\n\\n            exp = 8 * SafeCast.toUint(value > (1 << 8) - 1);\\n            value >>= exp;\\n            result += exp;\\n\\n            exp = 4 * SafeCast.toUint(value > (1 << 4) - 1);\\n            value >>= exp;\\n            result += exp;\\n\\n            exp = 2 * SafeCast.toUint(value > (1 << 2) - 1);\\n            value >>= exp;\\n            result += exp;\\n\\n            result += SafeCast.toUint(value > 1);\\n        }\\n        return result;\\n    }\\n\\n    /**\\n     * @dev Return the log in base 2, following the selected rounding direction, of a positive value.\\n     * Returns 0 if given 0.\\n     */\\n    function log2(uint256 value, Rounding rounding) internal pure returns (uint256) {\\n        unchecked {\\n            uint256 result = log2(value);\\n            return result + SafeCast.toUint(unsignedRoundsUp(rounding) && 1 << result < value);\\n        }\\n    }\\n\\n    /**\\n     * @dev Return the log in base 10 of a positive value rounded towards zero.\\n     * Returns 0 if given 0.\\n     */\\n    function log10(uint256 value) internal pure returns (uint256) {\\n        uint256 result = 0;\\n        unchecked {\\n            if (value >= 10 ** 64) {\\n                value /= 10 ** 64;\\n                result += 64;\\n            }\\n            if (value >= 10 ** 32) {\\n                value /= 10 ** 32;\\n                result += 32;\\n            }\\n            if (value >= 10 ** 16) {\\n                value /= 10 ** 16;\\n                result += 16;\\n            }\\n            if (value >= 10 ** 8) {\\n                value /= 10 ** 8;\\n                result += 8;\\n            }\\n            if (value >= 10 ** 4) {\\n                value /= 10 ** 4;\\n                result += 4;\\n            }\\n            if (value >= 10 ** 2) {\\n                value /= 10 ** 2;\\n                result += 2;\\n            }\\n            if (value >= 10 ** 1) {\\n                result += 1;\\n            }\\n        }\\n        return result;\\n    }\\n\\n    /**\\n     * @dev Return the log in base 10, following the selected rounding direction, of a positive value.\\n     * Returns 0 if given 0.\\n     */\\n    function log10(uint256 value, Rounding rounding) internal pure returns (uint256) {\\n        unchecked {\\n            uint256 result = log10(value);\\n            return result + SafeCast.toUint(unsignedRoundsUp(rounding) && 10 ** result < value);\\n        }\\n    }\\n\\n    /**\\n     * @dev Return the log in base 256 of a positive value rounded towards zero.\\n     * Returns 0 if given 0.\\n     *\\n     * Adding one to the result gives the number of pairs of hex symbols needed to represent `value` as a hex string.\\n     */\\n    function log256(uint256 value) internal pure returns (uint256) {\\n        uint256 result = 0;\\n        uint256 isGt;\\n        unchecked {\\n            isGt = SafeCast.toUint(value > (1 << 128) - 1);\\n            value >>= isGt * 128;\\n            result += isGt * 16;\\n\\n            isGt = SafeCast.toUint(value > (1 << 64) - 1);\\n            value >>= isGt * 64;\\n            result += isGt * 8;\\n\\n            isGt = SafeCast.toUint(value > (1 << 32) - 1);\\n            value >>= isGt * 32;\\n            result += isGt * 4;\\n\\n            isGt = SafeCast.toUint(value > (1 << 16) - 1);\\n            value >>= isGt * 16;\\n            result += isGt * 2;\\n\\n            result += SafeCast.toUint(value > (1 << 8) - 1);\\n        }\\n        return result;\\n    }\\n\\n    /**\\n     * @dev Return the log in base 256, following the selected rounding direction, of a positive value.\\n     * Returns 0 if given 0.\\n     */\\n    function log256(uint256 value, Rounding rounding) internal pure returns (uint256) {\\n        unchecked {\\n            uint256 result = log256(value);\\n            return result + SafeCast.toUint(unsignedRoundsUp(rounding) && 1 << (result << 3) < value);\\n        }\\n    }\\n\\n    /**\\n     * @dev Returns whether a provided rounding mode is considered rounding up for unsigned integers.\\n     */\\n    function unsignedRoundsUp(Rounding rounding) internal pure returns (bool) {\\n        return uint8(rounding) % 2 == 1;\\n    }\\n}\\n\"},\"@openzeppelin/contracts/utils/StorageSlot.sol\":{\"content\":\"// SPDX-License-Identifier: MIT\\n// OpenZeppelin Contracts (last updated v5.1.0) (utils/StorageSlot.sol)\\n// This file was procedurally generated from scripts/generate/templates/StorageSlot.js.\\n\\npragma solidity ^0.8.20;\\n\\n/**\\n * @dev Library for reading and writing primitive types to specific storage slots.\\n *\\n * Storage slots are often used to avoid storage conflict when dealing with upgradeable contracts.\\n * This library helps with reading and writing to such slots without the need for inline assembly.\\n *\\n * The functions in this library return Slot structs that contain a `value` member that can be used to read or write.\\n *\\n * Example usage to set ERC-1967 implementation slot:\\n * ```solidity\\n * contract ERC1967 {\\n *     // Define the slot. Alternatively, use the SlotDerivation library to derive the slot.\\n *     bytes32 internal constant _IMPLEMENTATION_SLOT = 0x360894a13ba1a3210667c828492db98dca3e2076cc3735a920a3ca505d382bbc;\\n *\\n *     function _getImplementation() internal view returns (address) {\\n *         return StorageSlot.getAddressSlot(_IMPLEMENTATION_SLOT).value;\\n *     }\\n *\\n *     function _setImplementation(address newImplementation) internal {\\n *         require(newImplementation.code.length > 0);\\n *         StorageSlot.getAddressSlot(_IMPLEMENTATION_SLOT).value = newImplementation;\\n *     }\\n * }\\n * ```\\n *\\n * TIP: Consider using this library along with {SlotDerivation}.\\n */\\nlibrary StorageSlot {\\n    struct AddressSlot {\\n        address value;\\n    }\\n\\n    struct BooleanSlot {\\n        bool value;\\n    }\\n\\n    struct Bytes32Slot {\\n        bytes32 value;\\n    }\\n\\n    struct Uint256Slot {\\n        uint256 value;\\n    }\\n\\n    struct Int256Slot {\\n        int256 value;\\n    }\\n\\n    struct StringSlot {\\n        string value;\\n    }\\n\\n    struct BytesSlot {\\n        bytes value;\\n    }\\n\\n    /**\\n     * @dev Returns an `AddressSlot` with member `value` located at `slot`.\\n     */\\n    function getAddressSlot(bytes32 slot) internal pure returns (AddressSlot storage r) {\\n        assembly (\\\"memory-safe\\\") {\\n            r.slot := slot\\n        }\\n    }\\n\\n    /**\\n     * @dev Returns a `BooleanSlot` with member `value` located at `slot`.\\n     */\\n    function getBooleanSlot(bytes32 slot) internal pure returns (BooleanSlot storage r) {\\n        assembly (\\\"memory-safe\\\") {\\n            r.slot := slot\\n        }\\n    }\\n\\n    /**\\n     * @dev Returns a `Bytes32Slot` with member `value` located at `slot`.\\n     */\\n    function getBytes32Slot(bytes32 slot) internal pure returns (Bytes32Slot storage r) {\\n        assembly (\\\"memory-safe\\\") {\\n            r.slot := slot\\n        }\\n    }\\n\\n    /**\\n     * @dev Returns a `Uint256Slot` with member `value` located at `slot`.\\n     */\\n    function getUint256Slot(bytes32 slot) internal pure returns (Uint256Slot storage r) {\\n        assembly (\\\"memory-safe\\\") {\\n            r.slot := slot\\n        }\\n    }\\n\\n    /**\\n     * @dev Returns a `Int256Slot` with member `value` located at `slot`.\\n     */\\n    function getInt256Slot(bytes32 slot) internal pure returns (Int256Slot storage r) {\\n        assembly (\\\"memory-safe\\\") {\\n            r.slot := slot\\n        }\\n    }\\n\\n    /**\\n     * @dev Returns a `StringSlot` with member `value` located at `slot`.\\n     */\\n    function getStringSlot(bytes32 slot) internal pure returns (StringSlot storage r) {\\n        assembly (\\\"memory-safe\\\") {\\n            r.slot := slot\\n        }\\n    }\\n\\n    /**\\n     * @dev Returns an `StringSlot` representation of the string storage pointer `store`.\\n     */\\n    function getStringSlot(string storage store) internal pure returns (StringSlot storage r) {\\n        assembly (\\\"memory-safe\\\") {\\n            r.slot := store.slot\\n        }\\n    }\\n\\n    /**\\n     * @dev Returns a `BytesSlot` with member `value` located at `slot`.\\n     */\\n    function getBytesSlot(bytes32 slot) internal pure returns (BytesSlot storage r) {\\n        assembly (\\\"memory-safe\\\") {\\n            r.slot := slot\\n        }\\n    }\\n\\n    /**\\n     * @dev Returns an `BytesSlot` representation of the bytes storage pointer `store`.\\n     */\\n    function getBytesSlot(bytes storage store) internal pure returns (BytesSlot storage r) {\\n        assembly (\\\"memory-safe\\\") {\\n            r.slot := store.slot\\n        }\\n    }\\n}\\n\"},\"@openzeppelin/contracts/utils/Address.sol\":{\"content\":\"// SPDX-License-Identifier: MIT\\n// OpenZeppelin Contracts (last updated v5.2.0) (utils/Address.sol)\\n\\npragma solidity ^0.8.20;\\n\\nimport {Errors} from \\\"./Errors.sol\\\";\\n\\n/**\\n * @dev Collection of functions related to the address type\\n */\\nlibrary Address {\\n    /**\\n     * @dev There's no code at `target` (it is not a contract).\\n     */\\n    error AddressEmptyCode(address target);\\n\\n    /**\\n     * @dev Replacement for Solidity's `transfer`: sends `amount` wei to\\n     * `recipient`, forwarding all available gas and reverting on errors.\\n     *\\n     * https://eips.ethereum.org/EIPS/eip-1884[EIP1884] increases the gas cost\\n     * of certain opcodes, possibly making contracts go over the 2300 gas limit\\n     * imposed by `transfer`, making them unable to receive funds via\\n     * `transfer`. {sendValue} removes this limitation.\\n     *\\n     * https://consensys.net/diligence/blog/2019/09/stop-using-soliditys-transfer-now/[Learn more].\\n     *\\n     * IMPORTANT: because control is transferred to `recipient`, care must be\\n     * taken to not create reentrancy vulnerabilities. Consider using\\n     * {ReentrancyGuard} or the\\n     * https://solidity.readthedocs.io/en/v0.8.20/security-considerations.html#use-the-checks-effects-interactions-pattern[checks-effects-interactions pattern].\\n     */\\n    function sendValue(address payable recipient, uint256 amount) internal {\\n        if (address(this).balance < amount) {\\n            revert Errors.InsufficientBalance(address(this).balance, amount);\\n        }\\n\\n        (bool success, bytes memory returndata) = recipient.call{value: amount}(\\\"\\\");\\n        if (!success) {\\n            _revert(returndata);\\n        }\\n    }\\n\\n    /**\\n     * @dev Performs a Solidity function call using a low level `call`. A\\n     * plain `call` is an unsafe replacement for a function call: use this\\n     * function instead.\\n     *\\n     * If `target` reverts with a revert reason or custom error, it is bubbled\\n     * up by this function (like regular Solidity function calls). However, if\\n     * the call reverted with no returned reason, this function reverts with a\\n     * {Errors.FailedCall} error.\\n     *\\n     * Returns the raw returned data. To convert to the expected return value,\\n     * use https://solidity.readthedocs.io/en/latest/units-and-global-variables.html?highlight=abi.decode#abi-encoding-and-decoding-functions[`abi.decode`].\\n     *\\n     * Requirements:\\n     *\\n     * - `target` must be a contract.\\n     * - calling `target` with `data` must not revert.\\n     */\\n    function functionCall(address target, bytes memory data) internal returns (bytes memory) {\\n        return functionCallWithValue(target, data, 0);\\n    }\\n\\n    /**\\n     * @dev Same as {xref-Address-functionCall-address-bytes-}[`functionCall`],\\n     * but also transferring `value` wei to `target`.\\n     *\\n     * Requirements:\\n     *\\n     * - the calling contract must have an ETH balance of at least `value`.\\n     * - the called Solidity function must be `payable`.\\n     */\\n    function functionCallWithValue(address target, bytes memory data, uint256 value) internal returns (bytes memory) {\\n        if (address(this).balance < value) {\\n            revert Errors.InsufficientBalance(address(this).balance, value);\\n        }\\n        (bool success, bytes memory returndata) = target.call{value: value}(data);\\n        return verifyCallResultFromTarget(target, success, returndata);\\n    }\\n\\n    /**\\n     * @dev Same as {xref-Address-functionCall-address-bytes-}[`functionCall`],\\n     * but performing a static call.\\n     */\\n    function functionStaticCall(address target, bytes memory data) internal view returns (bytes memory) {\\n        (bool success, bytes memory returndata) = target.staticcall(data);\\n        return verifyCallResultFromTarget(target, success, returndata);\\n    }\\n\\n    /**\\n     * @dev Same as {xref-Address-functionCall-address-bytes-}[`functionCall`],\\n     * but performing a delegate call.\\n     */\\n    function functionDelegateCall(address target, bytes memory data) internal returns (bytes memory) {\\n        (bool success, bytes memory returndata) = target.delegatecall(data);\\n        return verifyCallResultFromTarget(target, success, returndata);\\n    }\\n\\n    /**\\n     * @dev Tool to verify that a low level call to smart-contract was successful, and reverts if the target\\n     * was not a contract or bubbling up the revert reason (falling back to {Errors.FailedCall}) in case\\n     * of an unsuccessful call.\\n     */\\n    function verifyCallResultFromTarget(\\n        address target,\\n        bool success,\\n        bytes memory returndata\\n    ) internal view returns (bytes memory) {\\n        if (!success) {\\n            _revert(returndata);\\n        } else {\\n            // only check if target is a contract if the call was successful and the return data is empty\\n            // otherwise we already know that it was a contract\\n            if (returndata.length == 0 && target.code.length == 0) {\\n                revert AddressEmptyCode(target);\\n            }\\n            return returndata;\\n        }\\n    }\\n\\n    /**\\n     * @dev Tool to verify that a low level call was successful, and reverts if it wasn't, either by bubbling the\\n     * revert reason or with a default {Errors.FailedCall} error.\\n     */\\n    function verifyCallResult(bool success, bytes memory returndata) internal pure returns (bytes memory) {\\n        if (!success) {\\n            _revert(returndata);\\n        } else {\\n            return returndata;\\n        }\\n    }\\n\\n    /**\\n     * @dev Reverts with returndata if present. Otherwise reverts with {Errors.FailedCall}.\\n     */\\n    function _revert(bytes memory returndata) private pure {\\n        // Look for revert reason and bubble it up if present\\n        if (returndata.length > 0) {\\n            // The easiest way to bubble the revert reason is using memory via assembly\\n            assembly (\\\"memory-safe\\\") {\\n                let returndata_size := mload(returndata)\\n                revert(add(32, returndata), returndata_size)\\n            }\\n        } else {\\n            revert Errors.FailedCall();\\n        }\\n    }\\n}\\n\"},\"@openzeppelin/contracts/interfaces/IERC1967.sol\":{\"content\":\"// SPDX-License-Identifier: MIT\\n// OpenZeppelin Contracts (last updated v5.0.0) (interfaces/IERC1967.sol)\\n\\npragma solidity ^0.8.20;\\n\\n/**\\n * @dev ERC-1967: Proxy Storage Slots. This interface contains the events defined in the ERC.\\n */\\ninterface IERC1967 {\\n    /**\\n     * @dev Emitted when the implementation is upgraded.\\n     */\\n    event Upgraded(address indexed implementation);\\n\\n    /**\\n     * @dev Emitted when the admin account has changed.\\n     */\\n    event AdminChanged(address previousAdmin, address newAdmin);\\n\\n    /**\\n     * @dev Emitted when the beacon is changed.\\n     */\\n    event BeaconUpgraded(address indexed beacon);\\n}\\n\"},\"@openzeppelin/contracts/proxy/beacon/IBeacon.sol\":{\"content\":\"// SPDX-License-Identifier: MIT\\n// OpenZeppelin Contracts (last updated v5.0.0) (proxy/beacon/IBeacon.sol)\\n\\npragma solidity ^0.8.20;\\n\\n/**\\n * @dev This is the interface that {BeaconProxy} expects of its beacon.\\n */\\ninterface IBeacon {\\n    /**\\n     * @dev Must return an address that can be used as a delegate call target.\\n     *\\n     * {UpgradeableBeacon} will check that this address is a contract.\\n     */\\n    function implementation() external view returns (address);\\n}\\n\"},\"@openzeppelin/contracts/interfaces/IERC5267.sol\":{\"content\":\"// SPDX-License-Identifier: MIT\\n// OpenZeppelin Contracts (last updated v5.0.0) (interfaces/IERC5267.sol)\\n\\npragma solidity ^0.8.20;\\n\\ninterface IERC5267 {\\n    /**\\n     * @dev MAY be emitted to signal that the domain could have changed.\\n     */\\n    event EIP712DomainChanged();\\n\\n    /**\\n     * @dev returns the fields and values that describe the domain separator used by this contract for EIP-712\\n     * signature.\\n     */\\n    function eip712Domain()\\n        external\\n        view\\n        returns (\\n            bytes1 fields,\\n            string memory name,\\n            string memory version,\\n            uint256 chainId,\\n            address verifyingContract,\\n            bytes32 salt,\\n            uint256[] memory extensions\\n        );\\n}\\n\"},\"@openzeppelin/contracts/utils/cryptography/MessageHashUtils.sol\":{\"content\":\"// SPDX-License-Identifier: MIT\\n// OpenZeppelin Contracts (last updated v5.1.0) (utils/cryptography/MessageHashUtils.sol)\\n\\npragma solidity ^0.8.20;\\n\\nimport {Strings} from \\\"../Strings.sol\\\";\\n\\n/**\\n * @dev Signature message hash utilities for producing digests to be consumed by {ECDSA} recovery or signing.\\n *\\n * The library provides methods for generating a hash of a message that conforms to the\\n * https://eips.ethereum.org/EIPS/eip-191[ERC-191] and https://eips.ethereum.org/EIPS/eip-712[EIP 712]\\n * specifications.\\n */\\nlibrary MessageHashUtils {\\n    /**\\n     * @dev Returns the keccak256 digest of an ERC-191 signed data with version\\n     * `0x45` (`personal_sign` messages).\\n     *\\n     * The digest is calculated by prefixing a bytes32 `messageHash` with\\n     * `\\\"\\\\x19Ethereum Signed Message:\\\\n32\\\"` and hashing the result. It corresponds with the\\n     * hash signed when using the https://eth.wiki/json-rpc/API#eth_sign[`eth_sign`] JSON-RPC method.\\n     *\\n     * NOTE: The `messageHash` parameter is intended to be the result of hashing a raw message with\\n     * keccak256, although any bytes32 value can be safely used because the final digest will\\n     * be re-hashed.\\n     *\\n     * See {ECDSA-recover}.\\n     */\\n    function toEthSignedMessageHash(bytes32 messageHash) internal pure returns (bytes32 digest) {\\n        assembly (\\\"memory-safe\\\") {\\n            mstore(0x00, \\\"\\\\x19Ethereum Signed Message:\\\\n32\\\") // 32 is the bytes-length of messageHash\\n            mstore(0x1c, messageHash) // 0x1c (28) is the length of the prefix\\n            digest := keccak256(0x00, 0x3c) // 0x3c is the length of the prefix (0x1c) + messageHash (0x20)\\n        }\\n    }\\n\\n    /**\\n     * @dev Returns the keccak256 digest of an ERC-191 signed data with version\\n     * `0x45` (`personal_sign` messages).\\n     *\\n     * The digest is calculated by prefixing an arbitrary `message` with\\n     * `\\\"\\\\x19Ethereum Signed Message:\\\\n\\\" + len(message)` and hashing the result. It corresponds with the\\n     * hash signed when using the https://eth.wiki/json-rpc/API#eth_sign[`eth_sign`] JSON-RPC method.\\n     *\\n     * See {ECDSA-recover}.\\n     */\\n    function toEthSignedMessageHash(bytes memory message) internal pure returns (bytes32) {\\n        return\\n            keccak256(bytes.concat(\\\"\\\\x19Ethereum Signed Message:\\\\n\\\", bytes(Strings.toString(message.length)), message));\\n    }\\n\\n    /**\\n     * @dev Returns the keccak256 digest of an ERC-191 signed data with version\\n     * `0x00` (data with intended validator).\\n     *\\n     * The digest is calculated by prefixing an arbitrary `data` with `\\\"\\\\x19\\\\x00\\\"` and the intended\\n     * `validator` address. Then hashing the result.\\n     *\\n     * See {ECDSA-recover}.\\n     */\\n    function toDataWithIntendedValidatorHash(address validator, bytes memory data) internal pure returns (bytes32) {\\n        return keccak256(abi.encodePacked(hex\\\"19_00\\\", validator, data));\\n    }\\n\\n    /**\\n     * @dev Returns the keccak256 digest of an EIP-712 typed data (ERC-191 version `0x01`).\\n     *\\n     * The digest is calculated from a `domainSeparator` and a `structHash`, by prefixing them with\\n     * `\\\\x19\\\\x01` and hashing the result. It corresponds to the hash signed by the\\n     * https://eips.ethereum.org/EIPS/eip-712[`eth_signTypedData`] JSON-RPC method as part of EIP-712.\\n     *\\n     * See {ECDSA-recover}.\\n     */\\n    function toTypedDataHash(bytes32 domainSeparator, bytes32 structHash) internal pure returns (bytes32 digest) {\\n        assembly (\\\"memory-safe\\\") {\\n            let ptr := mload(0x40)\\n            mstore(ptr, hex\\\"19_01\\\")\\n            mstore(add(ptr, 0x02), domainSeparator)\\n            mstore(add(ptr, 0x22), structHash)\\n            digest := keccak256(ptr, 0x42)\\n        }\\n    }\\n}\\n\"},\"@openzeppelin/contracts/utils/types/Time.sol\":{\"content\":\"// SPDX-License-Identifier: MIT\\n// OpenZeppelin Contracts (last updated v5.1.0) (utils/types/Time.sol)\\n\\npragma solidity ^0.8.20;\\n\\nimport {Math} from \\\"../math/Math.sol\\\";\\nimport {SafeCast} from \\\"../math/SafeCast.sol\\\";\\n\\n/**\\n * @dev This library provides helpers for manipulating time-related objects.\\n *\\n * It uses the following types:\\n * - `uint48` for timepoints\\n * - `uint32` for durations\\n *\\n * While the library doesn't provide specific types for timepoints and duration, it does provide:\\n * - a `Delay` type to represent duration that can be programmed to change value automatically at a given point\\n * - additional helper functions\\n */\\nlibrary Time {\\n    using Time for *;\\n\\n    /**\\n     * @dev Get the block timestamp as a Timepoint.\\n     */\\n    function timestamp() internal view returns (uint48) {\\n        return SafeCast.toUint48(block.timestamp);\\n    }\\n\\n    /**\\n     * @dev Get the block number as a Timepoint.\\n     */\\n    function blockNumber() internal view returns (uint48) {\\n        return SafeCast.toUint48(block.number);\\n    }\\n\\n    // ==================================================== Delay =====================================================\\n    /**\\n     * @dev A `Delay` is a uint32 duration that can be programmed to change value automatically at a given point in the\\n     * future. The \\\"effect\\\" timepoint describes when the transitions happens from the \\\"old\\\" value to the \\\"new\\\" value.\\n     * This allows updating the delay applied to some operation while keeping some guarantees.\\n     *\\n     * In particular, the {update} function guarantees that if the delay is reduced, the old delay still applies for\\n     * some time. For example if the delay is currently 7 days to do an upgrade, the admin should not be able to set\\n     * the delay to 0 and upgrade immediately. If the admin wants to reduce the delay, the old delay (7 days) should\\n     * still apply for some time.\\n     *\\n     *\\n     * The `Delay` type is 112 bits long, and packs the following:\\n     *\\n     * ```\\n     *   | [uint48]: effect date (timepoint)\\n     *   |           | [uint32]: value before (duration)\\n     *                      [uint32]: value after (duration)\\n     * 0xAAAAAAAAAAAABBBBBBBBCCCCCCCC\\n     * ```\\n     *\\n     * NOTE: The {get} and {withUpdate} functions operate using timestamps. Block number based delays are not currently\\n     * supported.\\n     */\\n    type Delay is uint112;\\n\\n    /**\\n     * @dev Wrap a duration into a Delay to add the one-step \\\"update in the future\\\" feature\\n     */\\n    function toDelay(uint32 duration) internal pure returns (Delay) {\\n        return Delay.wrap(duration);\\n    }\\n\\n    /**\\n     * @dev Get the value at a given timepoint plus the pending value and effect timepoint if there is a scheduled\\n     * change after this timepoint. If the effect timepoint is 0, then the pending value should not be considered.\\n     */\\n    function _getFullAt(\\n        Delay self,\\n        uint48 timepoint\\n    ) private pure returns (uint32 valueBefore, uint32 valueAfter, uint48 effect) {\\n        (valueBefore, valueAfter, effect) = self.unpack();\\n        return effect <= timepoint ? (valueAfter, 0, 0) : (valueBefore, valueAfter, effect);\\n    }\\n\\n    /**\\n     * @dev Get the current value plus the pending value and effect timepoint if there is a scheduled change. If the\\n     * effect timepoint is 0, then the pending value should not be considered.\\n     */\\n    function getFull(Delay self) internal view returns (uint32 valueBefore, uint32 valueAfter, uint48 effect) {\\n        return _getFullAt(self, timestamp());\\n    }\\n\\n    /**\\n     * @dev Get the current value.\\n     */\\n    function get(Delay self) internal view returns (uint32) {\\n        (uint32 delay, , ) = self.getFull();\\n        return delay;\\n    }\\n\\n    /**\\n     * @dev Update a Delay object so that it takes a new duration after a timepoint that is automatically computed to\\n     * enforce the old delay at the moment of the update. Returns the updated Delay object and the timestamp when the\\n     * new delay becomes effective.\\n     */\\n    function withUpdate(\\n        Delay self,\\n        uint32 newValue,\\n        uint32 minSetback\\n    ) internal view returns (Delay updatedDelay, uint48 effect) {\\n        uint32 value = self.get();\\n        uint32 setback = uint32(Math.max(minSetback, value > newValue ? value - newValue : 0));\\n        effect = timestamp() + setback;\\n        return (pack(value, newValue, effect), effect);\\n    }\\n\\n    /**\\n     * @dev Split a delay into its components: valueBefore, valueAfter and effect (transition timepoint).\\n     */\\n    function unpack(Delay self) internal pure returns (uint32 valueBefore, uint32 valueAfter, uint48 effect) {\\n        uint112 raw = Delay.unwrap(self);\\n\\n        valueAfter = uint32(raw);\\n        valueBefore = uint32(raw >> 32);\\n        effect = uint48(raw >> 64);\\n\\n        return (valueBefore, valueAfter, effect);\\n    }\\n\\n    /**\\n     * @dev pack the components into a Delay object.\\n     */\\n    function pack(uint32 valueBefore, uint32 valueAfter, uint48 effect) internal pure returns (Delay) {\\n        return Delay.wrap((uint112(effect) << 64) | (uint112(valueBefore) << 32) | uint112(valueAfter));\\n    }\\n}\\n\"},\"@openzeppelin/contracts/utils/math/SafeCast.sol\":{\"content\":\"// SPDX-License-Identifier: MIT\\n// OpenZeppelin Contracts (last updated v5.1.0) (utils/math/SafeCast.sol)\\n// This file was procedurally generated from scripts/generate/templates/SafeCast.js.\\n\\npragma solidity ^0.8.20;\\n\\n/**\\n * @dev Wrappers over Solidity's uintXX/intXX/bool casting operators with added overflow\\n * checks.\\n *\\n * Downcasting from uint256/int256 in Solidity does not revert on overflow. This can\\n * easily result in undesired exploitation or bugs, since developers usually\\n * assume that overflows raise errors. `SafeCast` restores this intuition by\\n * reverting the transaction when such an operation overflows.\\n *\\n * Using this library instead of the unchecked operations eliminates an entire\\n * class of bugs, so it's recommended to use it always.\\n */\\nlibrary SafeCast {\\n    /**\\n     * @dev Value doesn't fit in an uint of `bits` size.\\n     */\\n    error SafeCastOverflowedUintDowncast(uint8 bits, uint256 value);\\n\\n    /**\\n     * @dev An int value doesn't fit in an uint of `bits` size.\\n     */\\n    error SafeCastOverflowedIntToUint(int256 value);\\n\\n    /**\\n     * @dev Value doesn't fit in an int of `bits` size.\\n     */\\n    error SafeCastOverflowedIntDowncast(uint8 bits, int256 value);\\n\\n    /**\\n     * @dev An uint value doesn't fit in an int of `bits` size.\\n     */\\n    error SafeCastOverflowedUintToInt(uint256 value);\\n\\n    /**\\n     * @dev Returns the downcasted uint248 from uint256, reverting on\\n     * overflow (when the input is greater than largest uint248).\\n     *\\n     * Counterpart to Solidity's `uint248` operator.\\n     *\\n     * Requirements:\\n     *\\n     * - input must fit into 248 bits\\n     */\\n    function toUint248(uint256 value) internal pure returns (uint248) {\\n        if (value > type(uint248).max) {\\n            revert SafeCastOverflowedUintDowncast(248, value);\\n        }\\n        return uint248(value);\\n    }\\n\\n    /**\\n     * @dev Returns the downcasted uint240 from uint256, reverting on\\n     * overflow (when the input is greater than largest uint240).\\n     *\\n     * Counterpart to Solidity's `uint240` operator.\\n     *\\n     * Requirements:\\n     *\\n     * - input must fit into 240 bits\\n     */\\n    function toUint240(uint256 value) internal pure returns (uint240) {\\n        if (value > type(uint240).max) {\\n            revert SafeCastOverflowedUintDowncast(240, value);\\n        }\\n        return uint240(value);\\n    }\\n\\n    /**\\n     * @dev Returns the downcasted uint232 from uint256, reverting on\\n     * overflow (when the input is greater than largest uint232).\\n     *\\n     * Counterpart to Solidity's `uint232` operator.\\n     *\\n     * Requirements:\\n     *\\n     * - input must fit into 232 bits\\n     */\\n    function toUint232(uint256 value) internal pure returns (uint232) {\\n        if (value > type(uint232).max) {\\n            revert SafeCastOverflowedUintDowncast(232, value);\\n        }\\n        return uint232(value);\\n    }\\n\\n    /**\\n     * @dev Returns the downcasted uint224 from uint256, reverting on\\n     * overflow (when the input is greater than largest uint224).\\n     *\\n     * Counterpart to Solidity's `uint224` operator.\\n     *\\n     * Requirements:\\n     *\\n     * - input must fit into 224 bits\\n     */\\n    function toUint224(uint256 value) internal pure returns (uint224) {\\n        if (value > type(uint224).max) {\\n            revert SafeCastOverflowedUintDowncast(224, value);\\n        }\\n        return uint224(value);\\n    }\\n\\n    /**\\n     * @dev Returns the downcasted uint216 from uint256, reverting on\\n     * overflow (when the input is greater than largest uint216).\\n     *\\n     * Counterpart to Solidity's `uint216` operator.\\n     *\\n     * Requirements:\\n     *\\n     * - input must fit into 216 bits\\n     */\\n    function toUint216(uint256 value) internal pure returns (uint216) {\\n        if (value > type(uint216).max) {\\n            revert SafeCastOverflowedUintDowncast(216, value);\\n        }\\n        return uint216(value);\\n    }\\n\\n    /**\\n     * @dev Returns the downcasted uint208 from uint256, reverting on\\n     * overflow (when the input is greater than largest uint208).\\n     *\\n     * Counterpart to Solidity's `uint208` operator.\\n     *\\n     * Requirements:\\n     *\\n     * - input must fit into 208 bits\\n     */\\n    function toUint208(uint256 value) internal pure returns (uint208) {\\n        if (value > type(uint208).max) {\\n            revert SafeCastOverflowedUintDowncast(208, value);\\n        }\\n        return uint208(value);\\n    }\\n\\n    /**\\n     * @dev Returns the downcasted uint200 from uint256, reverting on\\n     * overflow (when the input is greater than largest uint200).\\n     *\\n     * Counterpart to Solidity's `uint200` operator.\\n     *\\n     * Requirements:\\n     *\\n     * - input must fit into 200 bits\\n     */\\n    function toUint200(uint256 value) internal pure returns (uint200) {\\n        if (value > type(uint200).max) {\\n            revert SafeCastOverflowedUintDowncast(200, value);\\n        }\\n        return uint200(value);\\n    }\\n\\n    /**\\n     * @dev Returns the downcasted uint192 from uint256, reverting on\\n     * overflow (when the input is greater than largest uint192).\\n     *\\n     * Counterpart to Solidity's `uint192` operator.\\n     *\\n     * Requirements:\\n     *\\n     * - input must fit into 192 bits\\n     */\\n    function toUint192(uint256 value) internal pure returns (uint192) {\\n        if (value > type(uint192).max) {\\n            revert SafeCastOverflowedUintDowncast(192, value);\\n        }\\n        return uint192(value);\\n    }\\n\\n    /**\\n     * @dev Returns the downcasted uint184 from uint256, reverting on\\n     * overflow (when the input is greater than largest uint184).\\n     *\\n     * Counterpart to Solidity's `uint184` operator.\\n     *\\n     * Requirements:\\n     *\\n     * - input must fit into 184 bits\\n     */\\n    function toUint184(uint256 value) internal pure returns (uint184) {\\n        if (value > type(uint184).max) {\\n            revert SafeCastOverflowedUintDowncast(184, value);\\n        }\\n        return uint184(value);\\n    }\\n\\n    /**\\n     * @dev Returns the downcasted uint176 from uint256, reverting on\\n     * overflow (when the input is greater than largest uint176).\\n     *\\n     * Counterpart to Solidity's `uint176` operator.\\n     *\\n     * Requirements:\\n     *\\n     * - input must fit into 176 bits\\n     */\\n    function toUint176(uint256 value) internal pure returns (uint176) {\\n        if (value > type(uint176).max) {\\n            revert SafeCastOverflowedUintDowncast(176, value);\\n        }\\n        return uint176(value);\\n    }\\n\\n    /**\\n     * @dev Returns the downcasted uint168 from uint256, reverting on\\n     * overflow (when the input is greater than largest uint168).\\n     *\\n     * Counterpart to Solidity's `uint168` operator.\\n     *\\n     * Requirements:\\n     *\\n     * - input must fit into 168 bits\\n     */\\n    function toUint168(uint256 value) internal pure returns (uint168) {\\n        if (value > type(uint168).max) {\\n            revert SafeCastOverflowedUintDowncast(168, value);\\n        }\\n        return uint168(value);\\n    }\\n\\n    /**\\n     * @dev Returns the downcasted uint160 from uint256, reverting on\\n     * overflow (when the input is greater than largest uint160).\\n     *\\n     * Counterpart to Solidity's `uint160` operator.\\n     *\\n     * Requirements:\\n     *\\n     * - input must fit into 160 bits\\n     */\\n    function toUint160(uint256 value) internal pure returns (uint160) {\\n        if (value > type(uint160).max) {\\n            revert SafeCastOverflowedUintDowncast(160, value);\\n        }\\n        return uint160(value);\\n    }\\n\\n    /**\\n     * @dev Returns the downcasted uint152 from uint256, reverting on\\n     * overflow (when the input is greater than largest uint152).\\n     *\\n     * Counterpart to Solidity's `uint152` operator.\\n     *\\n     * Requirements:\\n     *\\n     * - input must fit into 152 bits\\n     */\\n    function toUint152(uint256 value) internal pure returns (uint152) {\\n        if (value > type(uint152).max) {\\n            revert SafeCastOverflowedUintDowncast(152, value);\\n        }\\n        return uint152(value);\\n    }\\n\\n    /**\\n     * @dev Returns the downcasted uint144 from uint256, reverting on\\n     * overflow (when the input is greater than largest uint144).\\n     *\\n     * Counterpart to Solidity's `uint144` operator.\\n     *\\n     * Requirements:\\n     *\\n     * - input must fit into 144 bits\\n     */\\n    function toUint144(uint256 value) internal pure returns (uint144) {\\n        if (value > type(uint144).max) {\\n            revert SafeCastOverflowedUintDowncast(144, value);\\n        }\\n        return uint144(value);\\n    }\\n\\n    /**\\n     * @dev Returns the downcasted uint136 from uint256, reverting on\\n     * overflow (when the input is greater than largest uint136).\\n     *\\n     * Counterpart to Solidity's `uint136` operator.\\n     *\\n     * Requirements:\\n     *\\n     * - input must fit into 136 bits\\n     */\\n    function toUint136(uint256 value) internal pure returns (uint136) {\\n        if (value > type(uint136).max) {\\n            revert SafeCastOverflowedUintDowncast(136, value);\\n        }\\n        return uint136(value);\\n    }\\n\\n    /**\\n     * @dev Returns the downcasted uint128 from uint256, reverting on\\n     * overflow (when the input is greater than largest uint128).\\n     *\\n     * Counterpart to Solidity's `uint128` operator.\\n     *\\n     * Requirements:\\n     *\\n     * - input must fit into 128 bits\\n     */\\n    function toUint128(uint256 value) internal pure returns (uint128) {\\n        if (value > type(uint128).max) {\\n            revert SafeCastOverflowedUintDowncast(128, value);\\n        }\\n        return uint128(value);\\n    }\\n\\n    /**\\n     * @dev Returns the downcasted uint120 from uint256, reverting on\\n     * overflow (when the input is greater than largest uint120).\\n     *\\n     * Counterpart to Solidity's `uint120` operator.\\n     *\\n     * Requirements:\\n     *\\n     * - input must fit into 120 bits\\n     */\\n    function toUint120(uint256 value) internal pure returns (uint120) {\\n        if (value > type(uint120).max) {\\n            revert SafeCastOverflowedUintDowncast(120, value);\\n        }\\n        return uint120(value);\\n    }\\n\\n    /**\\n     * @dev Returns the downcasted uint112 from uint256, reverting on\\n     * overflow (when the input is greater than largest uint112).\\n     *\\n     * Counterpart to Solidity's `uint112` operator.\\n     *\\n     * Requirements:\\n     *\\n     * - input must fit into 112 bits\\n     */\\n    function toUint112(uint256 value) internal pure returns (uint112) {\\n        if (value > type(uint112).max) {\\n            revert SafeCastOverflowedUintDowncast(112, value);\\n        }\\n        return uint112(value);\\n    }\\n\\n    /**\\n     * @dev Returns the downcasted uint104 from uint256, reverting on\\n     * overflow (when the input is greater than largest uint104).\\n     *\\n     * Counterpart to Solidity's `uint104` operator.\\n     *\\n     * Requirements:\\n     *\\n     * - input must fit into 104 bits\\n     */\\n    function toUint104(uint256 value) internal pure returns (uint104) {\\n        if (value > type(uint104).max) {\\n            revert SafeCastOverflowedUintDowncast(104, value);\\n        }\\n        return uint104(value);\\n    }\\n\\n    /**\\n     * @dev Returns the downcasted uint96 from uint256, reverting on\\n     * overflow (when the input is greater than largest uint96).\\n     *\\n     * Counterpart to Solidity's `uint96` operator.\\n     *\\n     * Requirements:\\n     *\\n     * - input must fit into 96 bits\\n     */\\n    function toUint96(uint256 value) internal pure returns (uint96) {\\n        if (value > type(uint96).max) {\\n            revert SafeCastOverflowedUintDowncast(96, value);\\n        }\\n        return uint96(value);\\n    }\\n\\n    /**\\n     * @dev Returns the downcasted uint88 from uint256, reverting on\\n     * overflow (when the input is greater than largest uint88).\\n     *\\n     * Counterpart to Solidity's `uint88` operator.\\n     *\\n     * Requirements:\\n     *\\n     * - input must fit into 88 bits\\n     */\\n    function toUint88(uint256 value) internal pure returns (uint88) {\\n        if (value > type(uint88).max) {\\n            revert SafeCastOverflowedUintDowncast(88, value);\\n        }\\n        return uint88(value);\\n    }\\n\\n    /**\\n     * @dev Returns the downcasted uint80 from uint256, reverting on\\n     * overflow (when the input is greater than largest uint80).\\n     *\\n     * Counterpart to Solidity's `uint80` operator.\\n     *\\n     * Requirements:\\n     *\\n     * - input must fit into 80 bits\\n     */\\n    function toUint80(uint256 value) internal pure returns (uint80) {\\n        if (value > type(uint80).max) {\\n            revert SafeCastOverflowedUintDowncast(80, value);\\n        }\\n        return uint80(value);\\n    }\\n\\n    /**\\n     * @dev Returns the downcasted uint72 from uint256, reverting on\\n     * overflow (when the input is greater than largest uint72).\\n     *\\n     * Counterpart to Solidity's `uint72` operator.\\n     *\\n     * Requirements:\\n     *\\n     * - input must fit into 72 bits\\n     */\\n    function toUint72(uint256 value) internal pure returns (uint72) {\\n        if (value > type(uint72).max) {\\n            revert SafeCastOverflowedUintDowncast(72, value);\\n        }\\n        return uint72(value);\\n    }\\n\\n    /**\\n     * @dev Returns the downcasted uint64 from uint256, reverting on\\n     * overflow (when the input is greater than largest uint64).\\n     *\\n     * Counterpart to Solidity's `uint64` operator.\\n     *\\n     * Requirements:\\n     *\\n     * - input must fit into 64 bits\\n     */\\n    function toUint64(uint256 value) internal pure returns (uint64) {\\n        if (value > type(uint64).max) {\\n            revert SafeCastOverflowedUintDowncast(64, value);\\n        }\\n        return uint64(value);\\n    }\\n\\n    /**\\n     * @dev Returns the downcasted uint56 from uint256, reverting on\\n     * overflow (when the input is greater than largest uint56).\\n     *\\n     * Counterpart to Solidity's `uint56` operator.\\n     *\\n     * Requirements:\\n     *\\n     * - input must fit into 56 bits\\n     */\\n    function toUint56(uint256 value) internal pure returns (uint56) {\\n        if (value > type(uint56).max) {\\n            revert SafeCastOverflowedUintDowncast(56, value);\\n        }\\n        return uint56(value);\\n    }\\n\\n    /**\\n     * @dev Returns the downcasted uint48 from uint256, reverting on\\n     * overflow (when the input is greater than largest uint48).\\n     *\\n     * Counterpart to Solidity's `uint48` operator.\\n     *\\n     * Requirements:\\n     *\\n     * - input must fit into 48 bits\\n     */\\n    function toUint48(uint256 value) internal pure returns (uint48) {\\n        if (value > type(uint48).max) {\\n            revert SafeCastOverflowedUintDowncast(48, value);\\n        }\\n        return uint48(value);\\n    }\\n\\n    /**\\n     * @dev Returns the downcasted uint40 from uint256, reverting on\\n     * overflow (when the input is greater than largest uint40).\\n     *\\n     * Counterpart to Solidity's `uint40` operator.\\n     *\\n     * Requirements:\\n     *\\n     * - input must fit into 40 bits\\n     */\\n    function toUint40(uint256 value) internal pure returns (uint40) {\\n        if (value > type(uint40).max) {\\n            revert SafeCastOverflowedUintDowncast(40, value);\\n        }\\n        return uint40(value);\\n    }\\n\\n    /**\\n     * @dev Returns the downcasted uint32 from uint256, reverting on\\n     * overflow (when the input is greater than largest uint32).\\n     *\\n     * Counterpart to Solidity's `uint32` operator.\\n     *\\n     * Requirements:\\n     *\\n     * - input must fit into 32 bits\\n     */\\n    function toUint32(uint256 value) internal pure returns (uint32) {\\n        if (value > type(uint32).max) {\\n            revert SafeCastOverflowedUintDowncast(32, value);\\n        }\\n        return uint32(value);\\n    }\\n\\n    /**\\n     * @dev Returns the downcasted uint24 from uint256, reverting on\\n     * overflow (when the input is greater than largest uint24).\\n     *\\n     * Counterpart to Solidity's `uint24` operator.\\n     *\\n     * Requirements:\\n     *\\n     * - input must fit into 24 bits\\n     */\\n    function toUint24(uint256 value) internal pure returns (uint24) {\\n        if (value > type(uint24).max) {\\n            revert SafeCastOverflowedUintDowncast(24, value);\\n        }\\n        return uint24(value);\\n    }\\n\\n    /**\\n     * @dev Returns the downcasted uint16 from uint256, reverting on\\n     * overflow (when the input is greater than largest uint16).\\n     *\\n     * Counterpart to Solidity's `uint16` operator.\\n     *\\n     * Requirements:\\n     *\\n     * - input must fit into 16 bits\\n     */\\n    function toUint16(uint256 value) internal pure returns (uint16) {\\n        if (value > type(uint16).max) {\\n            revert SafeCastOverflowedUintDowncast(16, value);\\n        }\\n        return uint16(value);\\n    }\\n\\n    /**\\n     * @dev Returns the downcasted uint8 from uint256, reverting on\\n     * overflow (when the input is greater than largest uint8).\\n     *\\n     * Counterpart to Solidity's `uint8` operator.\\n     *\\n     * Requirements:\\n     *\\n     * - input must fit into 8 bits\\n     */\\n    function toUint8(uint256 value) internal pure returns (uint8) {\\n        if (value > type(uint8).max) {\\n            revert SafeCastOverflowedUintDowncast(8, value);\\n        }\\n        return uint8(value);\\n    }\\n\\n    /**\\n     * @dev Converts a signed int256 into an unsigned uint256.\\n     *\\n     * Requirements:\\n     *\\n     * - input must be greater than or equal to 0.\\n     */\\n    function toUint256(int256 value) internal pure returns (uint256) {\\n        if (value < 0) {\\n            revert SafeCastOverflowedIntToUint(value);\\n        }\\n        return uint256(value);\\n    }\\n\\n    /**\\n     * @dev Returns the downcasted int248 from int256, reverting on\\n     * overflow (when the input is less than smallest int248 or\\n     * greater than largest int248).\\n     *\\n     * Counterpart to Solidity's `int248` operator.\\n     *\\n     * Requirements:\\n     *\\n     * - input must fit into 248 bits\\n     */\\n    function toInt248(int256 value) internal pure returns (int248 downcasted) {\\n        downcasted = int248(value);\\n        if (downcasted != value) {\\n            revert SafeCastOverflowedIntDowncast(248, value);\\n        }\\n    }\\n\\n    /**\\n     * @dev Returns the downcasted int240 from int256, reverting on\\n     * overflow (when the input is less than smallest int240 or\\n     * greater than largest int240).\\n     *\\n     * Counterpart to Solidity's `int240` operator.\\n     *\\n     * Requirements:\\n     *\\n     * - input must fit into 240 bits\\n     */\\n    function toInt240(int256 value) internal pure returns (int240 downcasted) {\\n        downcasted = int240(value);\\n        if (downcasted != value) {\\n            revert SafeCastOverflowedIntDowncast(240, value);\\n        }\\n    }\\n\\n    /**\\n     * @dev Returns the downcasted int232 from int256, reverting on\\n     * overflow (when the input is less than smallest int232 or\\n     * greater than largest int232).\\n     *\\n     * Counterpart to Solidity's `int232` operator.\\n     *\\n     * Requirements:\\n     *\\n     * - input must fit into 232 bits\\n     */\\n    function toInt232(int256 value) internal pure returns (int232 downcasted) {\\n        downcasted = int232(value);\\n        if (downcasted != value) {\\n            revert SafeCastOverflowedIntDowncast(232, value);\\n        }\\n    }\\n\\n    /**\\n     * @dev Returns the downcasted int224 from int256, reverting on\\n     * overflow (when the input is less than smallest int224 or\\n     * greater than largest int224).\\n     *\\n     * Counterpart to Solidity's `int224` operator.\\n     *\\n     * Requirements:\\n     *\\n     * - input must fit into 224 bits\\n     */\\n    function toInt224(int256 value) internal pure returns (int224 downcasted) {\\n        downcasted = int224(value);\\n        if (downcasted != value) {\\n            revert SafeCastOverflowedIntDowncast(224, value);\\n        }\\n    }\\n\\n    /**\\n     * @dev Returns the downcasted int216 from int256, reverting on\\n     * overflow (when the input is less than smallest int216 or\\n     * greater than largest int216).\\n     *\\n     * Counterpart to Solidity's `int216` operator.\\n     *\\n     * Requirements:\\n     *\\n     * - input must fit into 216 bits\\n     */\\n    function toInt216(int256 value) internal pure returns (int216 downcasted) {\\n        downcasted = int216(value);\\n        if (downcasted != value) {\\n            revert SafeCastOverflowedIntDowncast(216, value);\\n        }\\n    }\\n\\n    /**\\n     * @dev Returns the downcasted int208 from int256, reverting on\\n     * overflow (when the input is less than smallest int208 or\\n     * greater than largest int208).\\n     *\\n     * Counterpart to Solidity's `int208` operator.\\n     *\\n     * Requirements:\\n     *\\n     * - input must fit into 208 bits\\n     */\\n    function toInt208(int256 value) internal pure returns (int208 downcasted) {\\n        downcasted = int208(value);\\n        if (downcasted != value) {\\n            revert SafeCastOverflowedIntDowncast(208, value);\\n        }\\n    }\\n\\n    /**\\n     * @dev Returns the downcasted int200 from int256, reverting on\\n     * overflow (when the input is less than smallest int200 or\\n     * greater than largest int200).\\n     *\\n     * Counterpart to Solidity's `int200` operator.\\n     *\\n     * Requirements:\\n     *\\n     * - input must fit into 200 bits\\n     */\\n    function toInt200(int256 value) internal pure returns (int200 downcasted) {\\n        downcasted = int200(value);\\n        if (downcasted != value) {\\n            revert SafeCastOverflowedIntDowncast(200, value);\\n        }\\n    }\\n\\n    /**\\n     * @dev Returns the downcasted int192 from int256, reverting on\\n     * overflow (when the input is less than smallest int192 or\\n     * greater than largest int192).\\n     *\\n     * Counterpart to Solidity's `int192` operator.\\n     *\\n     * Requirements:\\n     *\\n     * - input must fit into 192 bits\\n     */\\n    function toInt192(int256 value) internal pure returns (int192 downcasted) {\\n        downcasted = int192(value);\\n        if (downcasted != value) {\\n            revert SafeCastOverflowedIntDowncast(192, value);\\n        }\\n    }\\n\\n    /**\\n     * @dev Returns the downcasted int184 from int256, reverting on\\n     * overflow (when the input is less than smallest int184 or\\n     * greater than largest int184).\\n     *\\n     * Counterpart to Solidity's `int184` operator.\\n     *\\n     * Requirements:\\n     *\\n     * - input must fit into 184 bits\\n     */\\n    function toInt184(int256 value) internal pure returns (int184 downcasted) {\\n        downcasted = int184(value);\\n        if (downcasted != value) {\\n            revert SafeCastOverflowedIntDowncast(184, value);\\n        }\\n    }\\n\\n    /**\\n     * @dev Returns the downcasted int176 from int256, reverting on\\n     * overflow (when the input is less than smallest int176 or\\n     * greater than largest int176).\\n     *\\n     * Counterpart to Solidity's `int176` operator.\\n     *\\n     * Requirements:\\n     *\\n     * - input must fit into 176 bits\\n     */\\n    function toInt176(int256 value) internal pure returns (int176 downcasted) {\\n        downcasted = int176(value);\\n        if (downcasted != value) {\\n            revert SafeCastOverflowedIntDowncast(176, value);\\n        }\\n    }\\n\\n    /**\\n     * @dev Returns the downcasted int168 from int256, reverting on\\n     * overflow (when the input is less than smallest int168 or\\n     * greater than largest int168).\\n     *\\n     * Counterpart to Solidity's `int168` operator.\\n     *\\n     * Requirements:\\n     *\\n     * - input must fit into 168 bits\\n     */\\n    function toInt168(int256 value) internal pure returns (int168 downcasted) {\\n        downcasted = int168(value);\\n        if (downcasted != value) {\\n            revert SafeCastOverflowedIntDowncast(168, value);\\n        }\\n    }\\n\\n    /**\\n     * @dev Returns the downcasted int160 from int256, reverting on\\n     * overflow (when the input is less than smallest int160 or\\n     * greater than largest int160).\\n     *\\n     * Counterpart to Solidity's `int160` operator.\\n     *\\n     * Requirements:\\n     *\\n     * - input must fit into 160 bits\\n     */\\n    function toInt160(int256 value) internal pure returns (int160 downcasted) {\\n        downcasted = int160(value);\\n        if (downcasted != value) {\\n            revert SafeCastOverflowedIntDowncast(160, value);\\n        }\\n    }\\n\\n    /**\\n     * @dev Returns the downcasted int152 from int256, reverting on\\n     * overflow (when the input is less than smallest int152 or\\n     * greater than largest int152).\\n     *\\n     * Counterpart to Solidity's `int152` operator.\\n     *\\n     * Requirements:\\n     *\\n     * - input must fit into 152 bits\\n     */\\n    function toInt152(int256 value) internal pure returns (int152 downcasted) {\\n        downcasted = int152(value);\\n        if (downcasted != value) {\\n            revert SafeCastOverflowedIntDowncast(152, value);\\n        }\\n    }\\n\\n    /**\\n     * @dev Returns the downcasted int144 from int256, reverting on\\n     * overflow (when the input is less than smallest int144 or\\n     * greater than largest int144).\\n     *\\n     * Counterpart to Solidity's `int144` operator.\\n     *\\n     * Requirements:\\n     *\\n     * - input must fit into 144 bits\\n     */\\n    function toInt144(int256 value) internal pure returns (int144 downcasted) {\\n        downcasted = int144(value);\\n        if (downcasted != value) {\\n            revert SafeCastOverflowedIntDowncast(144, value);\\n        }\\n    }\\n\\n    /**\\n     * @dev Returns the downcasted int136 from int256, reverting on\\n     * overflow (when the input is less than smallest int136 or\\n     * greater than largest int136).\\n     *\\n     * Counterpart to Solidity's `int136` operator.\\n     *\\n     * Requirements:\\n     *\\n     * - input must fit into 136 bits\\n     */\\n    function toInt136(int256 value) internal pure returns (int136 downcasted) {\\n        downcasted = int136(value);\\n        if (downcasted != value) {\\n            revert SafeCastOverflowedIntDowncast(136, value);\\n        }\\n    }\\n\\n    /**\\n     * @dev Returns the downcasted int128 from int256, reverting on\\n     * overflow (when the input is less than smallest int128 or\\n     * greater than largest int128).\\n     *\\n     * Counterpart to Solidity's `int128` operator.\\n     *\\n     * Requirements:\\n     *\\n     * - input must fit into 128 bits\\n     */\\n    function toInt128(int256 value) internal pure returns (int128 downcasted) {\\n        downcasted = int128(value);\\n        if (downcasted != value) {\\n            revert SafeCastOverflowedIntDowncast(128, value);\\n        }\\n    }\\n\\n    /**\\n     * @dev Returns the downcasted int120 from int256, reverting on\\n     * overflow (when the input is less than smallest int120 or\\n     * greater than largest int120).\\n     *\\n     * Counterpart to Solidity's `int120` operator.\\n     *\\n     * Requirements:\\n     *\\n     * - input must fit into 120 bits\\n     */\\n    function toInt120(int256 value) internal pure returns (int120 downcasted) {\\n        downcasted = int120(value);\\n        if (downcasted != value) {\\n            revert SafeCastOverflowedIntDowncast(120, value);\\n        }\\n    }\\n\\n    /**\\n     * @dev Returns the downcasted int112 from int256, reverting on\\n     * overflow (when the input is less than smallest int112 or\\n     * greater than largest int112).\\n     *\\n     * Counterpart to Solidity's `int112` operator.\\n     *\\n     * Requirements:\\n     *\\n     * - input must fit into 112 bits\\n     */\\n    function toInt112(int256 value) internal pure returns (int112 downcasted) {\\n        downcasted = int112(value);\\n        if (downcasted != value) {\\n            revert SafeCastOverflowedIntDowncast(112, value);\\n        }\\n    }\\n\\n    /**\\n     * @dev Returns the downcasted int104 from int256, reverting on\\n     * overflow (when the input is less than smallest int104 or\\n     * greater than largest int104).\\n     *\\n     * Counterpart to Solidity's `int104` operator.\\n     *\\n     * Requirements:\\n     *\\n     * - input must fit into 104 bits\\n     */\\n    function toInt104(int256 value) internal pure returns (int104 downcasted) {\\n        downcasted = int104(value);\\n        if (downcasted != value) {\\n            revert SafeCastOverflowedIntDowncast(104, value);\\n        }\\n    }\\n\\n    /**\\n     * @dev Returns the downcasted int96 from int256, reverting on\\n     * overflow (when the input is less than smallest int96 or\\n     * greater than largest int96).\\n     *\\n     * Counterpart to Solidity's `int96` operator.\\n     *\\n     * Requirements:\\n     *\\n     * - input must fit into 96 bits\\n     */\\n    function toInt96(int256 value) internal pure returns (int96 downcasted) {\\n        downcasted = int96(value);\\n        if (downcasted != value) {\\n            revert SafeCastOverflowedIntDowncast(96, value);\\n        }\\n    }\\n\\n    /**\\n     * @dev Returns the downcasted int88 from int256, reverting on\\n     * overflow (when the input is less than smallest int88 or\\n     * greater than largest int88).\\n     *\\n     * Counterpart to Solidity's `int88` operator.\\n     *\\n     * Requirements:\\n     *\\n     * - input must fit into 88 bits\\n     */\\n    function toInt88(int256 value) internal pure returns (int88 downcasted) {\\n        downcasted = int88(value);\\n        if (downcasted != value) {\\n            revert SafeCastOverflowedIntDowncast(88, value);\\n        }\\n    }\\n\\n    /**\\n     * @dev Returns the downcasted int80 from int256, reverting on\\n     * overflow (when the input is less than smallest int80 or\\n     * greater than largest int80).\\n     *\\n     * Counterpart to Solidity's `int80` operator.\\n     *\\n     * Requirements:\\n     *\\n     * - input must fit into 80 bits\\n     */\\n    function toInt80(int256 value) internal pure returns (int80 downcasted) {\\n        downcasted = int80(value);\\n        if (downcasted != value) {\\n            revert SafeCastOverflowedIntDowncast(80, value);\\n        }\\n    }\\n\\n    /**\\n     * @dev Returns the downcasted int72 from int256, reverting on\\n     * overflow (when the input is less than smallest int72 or\\n     * greater than largest int72).\\n     *\\n     * Counterpart to Solidity's `int72` operator.\\n     *\\n     * Requirements:\\n     *\\n     * - input must fit into 72 bits\\n     */\\n    function toInt72(int256 value) internal pure returns (int72 downcasted) {\\n        downcasted = int72(value);\\n        if (downcasted != value) {\\n            revert SafeCastOverflowedIntDowncast(72, value);\\n        }\\n    }\\n\\n    /**\\n     * @dev Returns the downcasted int64 from int256, reverting on\\n     * overflow (when the input is less than smallest int64 or\\n     * greater than largest int64).\\n     *\\n     * Counterpart to Solidity's `int64` operator.\\n     *\\n     * Requirements:\\n     *\\n     * - input must fit into 64 bits\\n     */\\n    function toInt64(int256 value) internal pure returns (int64 downcasted) {\\n        downcasted = int64(value);\\n        if (downcasted != value) {\\n            revert SafeCastOverflowedIntDowncast(64, value);\\n        }\\n    }\\n\\n    /**\\n     * @dev Returns the downcasted int56 from int256, reverting on\\n     * overflow (when the input is less than smallest int56 or\\n     * greater than largest int56).\\n     *\\n     * Counterpart to Solidity's `int56` operator.\\n     *\\n     * Requirements:\\n     *\\n     * - input must fit into 56 bits\\n     */\\n    function toInt56(int256 value) internal pure returns (int56 downcasted) {\\n        downcasted = int56(value);\\n        if (downcasted != value) {\\n            revert SafeCastOverflowedIntDowncast(56, value);\\n        }\\n    }\\n\\n    /**\\n     * @dev Returns the downcasted int48 from int256, reverting on\\n     * overflow (when the input is less than smallest int48 or\\n     * greater than largest int48).\\n     *\\n     * Counterpart to Solidity's `int48` operator.\\n     *\\n     * Requirements:\\n     *\\n     * - input must fit into 48 bits\\n     */\\n    function toInt48(int256 value) internal pure returns (int48 downcasted) {\\n        downcasted = int48(value);\\n        if (downcasted != value) {\\n            revert SafeCastOverflowedIntDowncast(48, value);\\n        }\\n    }\\n\\n    /**\\n     * @dev Returns the downcasted int40 from int256, reverting on\\n     * overflow (when the input is less than smallest int40 or\\n     * greater than largest int40).\\n     *\\n     * Counterpart to Solidity's `int40` operator.\\n     *\\n     * Requirements:\\n     *\\n     * - input must fit into 40 bits\\n     */\\n    function toInt40(int256 value) internal pure returns (int40 downcasted) {\\n        downcasted = int40(value);\\n        if (downcasted != value) {\\n            revert SafeCastOverflowedIntDowncast(40, value);\\n        }\\n    }\\n\\n    /**\\n     * @dev Returns the downcasted int32 from int256, reverting on\\n     * overflow (when the input is less than smallest int32 or\\n     * greater than largest int32).\\n     *\\n     * Counterpart to Solidity's `int32` operator.\\n     *\\n     * Requirements:\\n     *\\n     * - input must fit into 32 bits\\n     */\\n    function toInt32(int256 value) internal pure returns (int32 downcasted) {\\n        downcasted = int32(value);\\n        if (downcasted != value) {\\n            revert SafeCastOverflowedIntDowncast(32, value);\\n        }\\n    }\\n\\n    /**\\n     * @dev Returns the downcasted int24 from int256, reverting on\\n     * overflow (when the input is less than smallest int24 or\\n     * greater than largest int24).\\n     *\\n     * Counterpart to Solidity's `int24` operator.\\n     *\\n     * Requirements:\\n     *\\n     * - input must fit into 24 bits\\n     */\\n    function toInt24(int256 value) internal pure returns (int24 downcasted) {\\n        downcasted = int24(value);\\n        if (downcasted != value) {\\n            revert SafeCastOverflowedIntDowncast(24, value);\\n        }\\n    }\\n\\n    /**\\n     * @dev Returns the downcasted int16 from int256, reverting on\\n     * overflow (when the input is less than smallest int16 or\\n     * greater than largest int16).\\n     *\\n     * Counterpart to Solidity's `int16` operator.\\n     *\\n     * Requirements:\\n     *\\n     * - input must fit into 16 bits\\n     */\\n    function toInt16(int256 value) internal pure returns (int16 downcasted) {\\n        downcasted = int16(value);\\n        if (downcasted != value) {\\n            revert SafeCastOverflowedIntDowncast(16, value);\\n        }\\n    }\\n\\n    /**\\n     * @dev Returns the downcasted int8 from int256, reverting on\\n     * overflow (when the input is less than smallest int8 or\\n     * greater than largest int8).\\n     *\\n     * Counterpart to Solidity's `int8` operator.\\n     *\\n     * Requirements:\\n     *\\n     * - input must fit into 8 bits\\n     */\\n    function toInt8(int256 value) internal pure returns (int8 downcasted) {\\n        downcasted = int8(value);\\n        if (downcasted != value) {\\n            revert SafeCastOverflowedIntDowncast(8, value);\\n        }\\n    }\\n\\n    /**\\n     * @dev Converts an unsigned uint256 into a signed int256.\\n     *\\n     * Requirements:\\n     *\\n     * - input must be less than or equal to maxInt256.\\n     */\\n    function toInt256(uint256 value) internal pure returns (int256) {\\n        // Note: Unsafe cast below is okay because `type(int256).max` is guaranteed to be positive\\n        if (value > uint256(type(int256).max)) {\\n            revert SafeCastOverflowedUintToInt(value);\\n        }\\n        return int256(value);\\n    }\\n\\n    /**\\n     * @dev Cast a boolean (false or true) to a uint256 (0 or 1) with no jump.\\n     */\\n    function toUint(bool b) internal pure returns (uint256 u) {\\n        assembly (\\\"memory-safe\\\") {\\n            u := iszero(iszero(b))\\n        }\\n    }\\n}\\n\"},\"@openzeppelin/contracts/interfaces/IERC5805.sol\":{\"content\":\"// SPDX-License-Identifier: MIT\\n// OpenZeppelin Contracts (last updated v5.0.0) (interfaces/IERC5805.sol)\\n\\npragma solidity ^0.8.20;\\n\\nimport {IVotes} from \\\"../governance/utils/IVotes.sol\\\";\\nimport {IERC6372} from \\\"./IERC6372.sol\\\";\\n\\ninterface IERC5805 is IERC6372, IVotes {}\\n\"},\"@openzeppelin/contracts/utils/Panic.sol\":{\"content\":\"// SPDX-License-Identifier: MIT\\n// OpenZeppelin Contracts (last updated v5.1.0) (utils/Panic.sol)\\n\\npragma solidity ^0.8.20;\\n\\n/**\\n * @dev Helper library for emitting standardized panic codes.\\n *\\n * ```solidity\\n * contract Example {\\n *      using Panic for uint256;\\n *\\n *      // Use any of the declared internal constants\\n *      function foo() { Panic.GENERIC.panic(); }\\n *\\n *      // Alternatively\\n *      function foo() { Panic.panic(Panic.GENERIC); }\\n * }\\n * ```\\n *\\n * Follows the list from https://github.com/ethereum/solidity/blob/v0.8.24/libsolutil/ErrorCodes.h[libsolutil].\\n *\\n * _Available since v5.1._\\n */\\n// slither-disable-next-line unused-state\\nlibrary Panic {\\n    /// @dev generic / unspecified error\\n    uint256 internal constant GENERIC = 0x00;\\n    /// @dev used by the assert() builtin\\n    uint256 internal constant ASSERT = 0x01;\\n    /// @dev arithmetic underflow or overflow\\n    uint256 internal constant UNDER_OVERFLOW = 0x11;\\n    /// @dev division or modulo by zero\\n    uint256 internal constant DIVISION_BY_ZERO = 0x12;\\n    /// @dev enum conversion error\\n    uint256 internal constant ENUM_CONVERSION_ERROR = 0x21;\\n    /// @dev invalid encoding in storage\\n    uint256 internal constant STORAGE_ENCODING_ERROR = 0x22;\\n    /// @dev empty array pop\\n    uint256 internal constant EMPTY_ARRAY_POP = 0x31;\\n    /// @dev array out of bounds access\\n    uint256 internal constant ARRAY_OUT_OF_BOUNDS = 0x32;\\n    /// @dev resource error (too large allocation or too large array)\\n    uint256 internal constant RESOURCE_ERROR = 0x41;\\n    /// @dev calling invalid internal function\\n    uint256 internal constant INVALID_INTERNAL_FUNCTION = 0x51;\\n\\n    /// @dev Reverts with a panic code. Recommended to use with\\n    /// the internal constants with predefined codes.\\n    function panic(uint256 code) internal pure {\\n        assembly (\\\"memory-safe\\\") {\\n            mstore(0x00, 0x4e487b71)\\n            mstore(0x20, code)\\n            revert(0x1c, 0x24)\\n        }\\n    }\\n}\\n\"},\"@openzeppelin/contracts/utils/Strings.sol\":{\"content\":\"// SPDX-License-Identifier: MIT\\n// OpenZeppelin Contracts (last updated v5.2.0) (utils/Strings.sol)\\n\\npragma solidity ^0.8.20;\\n\\nimport {Math} from \\\"./math/Math.sol\\\";\\nimport {SafeCast} from \\\"./math/SafeCast.sol\\\";\\nimport {SignedMath} from \\\"./math/SignedMath.sol\\\";\\n\\n/**\\n * @dev String operations.\\n */\\nlibrary Strings {\\n    using SafeCast for *;\\n\\n    bytes16 private constant HEX_DIGITS = \\\"0123456789abcdef\\\";\\n    uint8 private constant ADDRESS_LENGTH = 20;\\n\\n    /**\\n     * @dev The `value` string doesn't fit in the specified `length`.\\n     */\\n    error StringsInsufficientHexLength(uint256 value, uint256 length);\\n\\n    /**\\n     * @dev The string being parsed contains characters that are not in scope of the given base.\\n     */\\n    error StringsInvalidChar();\\n\\n    /**\\n     * @dev The string being parsed is not a properly formatted address.\\n     */\\n    error StringsInvalidAddressFormat();\\n\\n    /**\\n     * @dev Converts a `uint256` to its ASCII `string` decimal representation.\\n     */\\n    function toString(uint256 value) internal pure returns (string memory) {\\n        unchecked {\\n            uint256 length = Math.log10(value) + 1;\\n            string memory buffer = new string(length);\\n            uint256 ptr;\\n            assembly (\\\"memory-safe\\\") {\\n                ptr := add(buffer, add(32, length))\\n            }\\n            while (true) {\\n                ptr--;\\n                assembly (\\\"memory-safe\\\") {\\n                    mstore8(ptr, byte(mod(value, 10), HEX_DIGITS))\\n                }\\n                value /= 10;\\n                if (value == 0) break;\\n            }\\n            return buffer;\\n        }\\n    }\\n\\n    /**\\n     * @dev Converts a `int256` to its ASCII `string` decimal representation.\\n     */\\n    function toStringSigned(int256 value) internal pure returns (string memory) {\\n        return string.concat(value < 0 ? \\\"-\\\" : \\\"\\\", toString(SignedMath.abs(value)));\\n    }\\n\\n    /**\\n     * @dev Converts a `uint256` to its ASCII `string` hexadecimal representation.\\n     */\\n    function toHexString(uint256 value) internal pure returns (string memory) {\\n        unchecked {\\n            return toHexString(value, Math.log256(value) + 1);\\n        }\\n    }\\n\\n    /**\\n     * @dev Converts a `uint256` to its ASCII `string` hexadecimal representation with fixed length.\\n     */\\n    function toHexString(uint256 value, uint256 length) internal pure returns (string memory) {\\n        uint256 localValue = value;\\n        bytes memory buffer = new bytes(2 * length + 2);\\n        buffer[0] = \\\"0\\\";\\n        buffer[1] = \\\"x\\\";\\n        for (uint256 i = 2 * length + 1; i > 1; --i) {\\n            buffer[i] = HEX_DIGITS[localValue & 0xf];\\n            localValue >>= 4;\\n        }\\n        if (localValue != 0) {\\n            revert StringsInsufficientHexLength(value, length);\\n        }\\n        return string(buffer);\\n    }\\n\\n    /**\\n     * @dev Converts an `address` with fixed length of 20 bytes to its not checksummed ASCII `string` hexadecimal\\n     * representation.\\n     */\\n    function toHexString(address addr) internal pure returns (string memory) {\\n        return toHexString(uint256(uint160(addr)), ADDRESS_LENGTH);\\n    }\\n\\n    /**\\n     * @dev Converts an `address` with fixed length of 20 bytes to its checksummed ASCII `string` hexadecimal\\n     * representation, according to EIP-55.\\n     */\\n    function toChecksumHexString(address addr) internal pure returns (string memory) {\\n        bytes memory buffer = bytes(toHexString(addr));\\n\\n        // hash the hex part of buffer (skip length + 2 bytes, length 40)\\n        uint256 hashValue;\\n        assembly (\\\"memory-safe\\\") {\\n            hashValue := shr(96, keccak256(add(buffer, 0x22), 40))\\n        }\\n\\n        for (uint256 i = 41; i > 1; --i) {\\n            // possible values for buffer[i] are 48 (0) to 57 (9) and 97 (a) to 102 (f)\\n            if (hashValue & 0xf > 7 && uint8(buffer[i]) > 96) {\\n                // case shift by xoring with 0x20\\n                buffer[i] ^= 0x20;\\n            }\\n            hashValue >>= 4;\\n        }\\n        return string(buffer);\\n    }\\n\\n    /**\\n     * @dev Returns true if the two strings are equal.\\n     */\\n    function equal(string memory a, string memory b) internal pure returns (bool) {\\n        return bytes(a).length == bytes(b).length && keccak256(bytes(a)) == keccak256(bytes(b));\\n    }\\n\\n    /**\\n     * @dev Parse a decimal string and returns the value as a `uint256`.\\n     *\\n     * Requirements:\\n     * - The string must be formatted as `[0-9]*`\\n     * - The result must fit into an `uint256` type\\n     */\\n    function parseUint(string memory input) internal pure returns (uint256) {\\n        return parseUint(input, 0, bytes(input).length);\\n    }\\n\\n    /**\\n     * @dev Variant of {parseUint} that parses a substring of `input` located between position `begin` (included) and\\n     * `end` (excluded).\\n     *\\n     * Requirements:\\n     * - The substring must be formatted as `[0-9]*`\\n     * - The result must fit into an `uint256` type\\n     */\\n    function parseUint(string memory input, uint256 begin, uint256 end) internal pure returns (uint256) {\\n        (bool success, uint256 value) = tryParseUint(input, begin, end);\\n        if (!success) revert StringsInvalidChar();\\n        return value;\\n    }\\n\\n    /**\\n     * @dev Variant of {parseUint-string} that returns false if the parsing fails because of an invalid character.\\n     *\\n     * NOTE: This function will revert if the result does not fit in a `uint256`.\\n     */\\n    function tryParseUint(string memory input) internal pure returns (bool success, uint256 value) {\\n        return _tryParseUintUncheckedBounds(input, 0, bytes(input).length);\\n    }\\n\\n    /**\\n     * @dev Variant of {parseUint-string-uint256-uint256} that returns false if the parsing fails because of an invalid\\n     * character.\\n     *\\n     * NOTE: This function will revert if the result does not fit in a `uint256`.\\n     */\\n    function tryParseUint(\\n        string memory input,\\n        uint256 begin,\\n        uint256 end\\n    ) internal pure returns (bool success, uint256 value) {\\n        if (end > bytes(input).length || begin > end) return (false, 0);\\n        return _tryParseUintUncheckedBounds(input, begin, end);\\n    }\\n\\n    /**\\n     * @dev Implementation of {tryParseUint} that does not check bounds. Caller should make sure that\\n     * `begin <= end <= input.length`. Other inputs would result in undefined behavior.\\n     */\\n    function _tryParseUintUncheckedBounds(\\n        string memory input,\\n        uint256 begin,\\n        uint256 end\\n    ) private pure returns (bool success, uint256 value) {\\n        bytes memory buffer = bytes(input);\\n\\n        uint256 result = 0;\\n        for (uint256 i = begin; i < end; ++i) {\\n            uint8 chr = _tryParseChr(bytes1(_unsafeReadBytesOffset(buffer, i)));\\n            if (chr > 9) return (false, 0);\\n            result *= 10;\\n            result += chr;\\n        }\\n        return (true, result);\\n    }\\n\\n    /**\\n     * @dev Parse a decimal string and returns the value as a `int256`.\\n     *\\n     * Requirements:\\n     * - The string must be formatted as `[-+]?[0-9]*`\\n     * - The result must fit in an `int256` type.\\n     */\\n    function parseInt(string memory input) internal pure returns (int256) {\\n        return parseInt(input, 0, bytes(input).length);\\n    }\\n\\n    /**\\n     * @dev Variant of {parseInt-string} that parses a substring of `input` located between position `begin` (included) and\\n     * `end` (excluded).\\n     *\\n     * Requirements:\\n     * - The substring must be formatted as `[-+]?[0-9]*`\\n     * - The result must fit in an `int256` type.\\n     */\\n    function parseInt(string memory input, uint256 begin, uint256 end) internal pure returns (int256) {\\n        (bool success, int256 value) = tryParseInt(input, begin, end);\\n        if (!success) revert StringsInvalidChar();\\n        return value;\\n    }\\n\\n    /**\\n     * @dev Variant of {parseInt-string} that returns false if the parsing fails because of an invalid character or if\\n     * the result does not fit in a `int256`.\\n     *\\n     * NOTE: This function will revert if the absolute value of the result does not fit in a `uint256`.\\n     */\\n    function tryParseInt(string memory input) internal pure returns (bool success, int256 value) {\\n        return _tryParseIntUncheckedBounds(input, 0, bytes(input).length);\\n    }\\n\\n    uint256 private constant ABS_MIN_INT256 = 2 ** 255;\\n\\n    /**\\n     * @dev Variant of {parseInt-string-uint256-uint256} that returns false if the parsing fails because of an invalid\\n     * character or if the result does not fit in a `int256`.\\n     *\\n     * NOTE: This function will revert if the absolute value of the result does not fit in a `uint256`.\\n     */\\n    function tryParseInt(\\n        string memory input,\\n        uint256 begin,\\n        uint256 end\\n    ) internal pure returns (bool success, int256 value) {\\n        if (end > bytes(input).length || begin > end) return (false, 0);\\n        return _tryParseIntUncheckedBounds(input, begin, end);\\n    }\\n\\n    /**\\n     * @dev Implementation of {tryParseInt} that does not check bounds. Caller should make sure that\\n     * `begin <= end <= input.length`. Other inputs would result in undefined behavior.\\n     */\\n    function _tryParseIntUncheckedBounds(\\n        string memory input,\\n        uint256 begin,\\n        uint256 end\\n    ) private pure returns (bool success, int256 value) {\\n        bytes memory buffer = bytes(input);\\n\\n        // Check presence of a negative sign.\\n        bytes1 sign = begin == end ? bytes1(0) : bytes1(_unsafeReadBytesOffset(buffer, begin)); // don't do out-of-bound (possibly unsafe) read if sub-string is empty\\n        bool positiveSign = sign == bytes1(\\\"+\\\");\\n        bool negativeSign = sign == bytes1(\\\"-\\\");\\n        uint256 offset = (positiveSign || negativeSign).toUint();\\n\\n        (bool absSuccess, uint256 absValue) = tryParseUint(input, begin + offset, end);\\n\\n        if (absSuccess && absValue < ABS_MIN_INT256) {\\n            return (true, negativeSign ? -int256(absValue) : int256(absValue));\\n        } else if (absSuccess && negativeSign && absValue == ABS_MIN_INT256) {\\n            return (true, type(int256).min);\\n        } else return (false, 0);\\n    }\\n\\n    /**\\n     * @dev Parse a hexadecimal string (with or without \\\"0x\\\" prefix), and returns the value as a `uint256`.\\n     *\\n     * Requirements:\\n     * - The string must be formatted as `(0x)?[0-9a-fA-F]*`\\n     * - The result must fit in an `uint256` type.\\n     */\\n    function parseHexUint(string memory input) internal pure returns (uint256) {\\n        return parseHexUint(input, 0, bytes(input).length);\\n    }\\n\\n    /**\\n     * @dev Variant of {parseHexUint} that parses a substring of `input` located between position `begin` (included) and\\n     * `end` (excluded).\\n     *\\n     * Requirements:\\n     * - The substring must be formatted as `(0x)?[0-9a-fA-F]*`\\n     * - The result must fit in an `uint256` type.\\n     */\\n    function parseHexUint(string memory input, uint256 begin, uint256 end) internal pure returns (uint256) {\\n        (bool success, uint256 value) = tryParseHexUint(input, begin, end);\\n        if (!success) revert StringsInvalidChar();\\n        return value;\\n    }\\n\\n    /**\\n     * @dev Variant of {parseHexUint-string} that returns false if the parsing fails because of an invalid character.\\n     *\\n     * NOTE: This function will revert if the result does not fit in a `uint256`.\\n     */\\n    function tryParseHexUint(string memory input) internal pure returns (bool success, uint256 value) {\\n        return _tryParseHexUintUncheckedBounds(input, 0, bytes(input).length);\\n    }\\n\\n    /**\\n     * @dev Variant of {parseHexUint-string-uint256-uint256} that returns false if the parsing fails because of an\\n     * invalid character.\\n     *\\n     * NOTE: This function will revert if the result does not fit in a `uint256`.\\n     */\\n    function tryParseHexUint(\\n        string memory input,\\n        uint256 begin,\\n        uint256 end\\n    ) internal pure returns (bool success, uint256 value) {\\n        if (end > bytes(input).length || begin > end) return (false, 0);\\n        return _tryParseHexUintUncheckedBounds(input, begin, end);\\n    }\\n\\n    /**\\n     * @dev Implementation of {tryParseHexUint} that does not check bounds. Caller should make sure that\\n     * `begin <= end <= input.length`. Other inputs would result in undefined behavior.\\n     */\\n    function _tryParseHexUintUncheckedBounds(\\n        string memory input,\\n        uint256 begin,\\n        uint256 end\\n    ) private pure returns (bool success, uint256 value) {\\n        bytes memory buffer = bytes(input);\\n\\n        // skip 0x prefix if present\\n        bool hasPrefix = (end > begin + 1) && bytes2(_unsafeReadBytesOffset(buffer, begin)) == bytes2(\\\"0x\\\"); // don't do out-of-bound (possibly unsafe) read if sub-string is empty\\n        uint256 offset = hasPrefix.toUint() * 2;\\n\\n        uint256 result = 0;\\n        for (uint256 i = begin + offset; i < end; ++i) {\\n            uint8 chr = _tryParseChr(bytes1(_unsafeReadBytesOffset(buffer, i)));\\n            if (chr > 15) return (false, 0);\\n            result *= 16;\\n            unchecked {\\n                // Multiplying by 16 is equivalent to a shift of 4 bits (with additional overflow check).\\n                // This guaratees that adding a value < 16 will not cause an overflow, hence the unchecked.\\n                result += chr;\\n            }\\n        }\\n        return (true, result);\\n    }\\n\\n    /**\\n     * @dev Parse a hexadecimal string (with or without \\\"0x\\\" prefix), and returns the value as an `address`.\\n     *\\n     * Requirements:\\n     * - The string must be formatted as `(0x)?[0-9a-fA-F]{40}`\\n     */\\n    function parseAddress(string memory input) internal pure returns (address) {\\n        return parseAddress(input, 0, bytes(input).length);\\n    }\\n\\n    /**\\n     * @dev Variant of {parseAddress} that parses a substring of `input` located between position `begin` (included) and\\n     * `end` (excluded).\\n     *\\n     * Requirements:\\n     * - The substring must be formatted as `(0x)?[0-9a-fA-F]{40}`\\n     */\\n    function parseAddress(string memory input, uint256 begin, uint256 end) internal pure returns (address) {\\n        (bool success, address value) = tryParseAddress(input, begin, end);\\n        if (!success) revert StringsInvalidAddressFormat();\\n        return value;\\n    }\\n\\n    /**\\n     * @dev Variant of {parseAddress-string} that returns false if the parsing fails because the input is not a properly\\n     * formatted address. See {parseAddress} requirements.\\n     */\\n    function tryParseAddress(string memory input) internal pure returns (bool success, address value) {\\n        return tryParseAddress(input, 0, bytes(input).length);\\n    }\\n\\n    /**\\n     * @dev Variant of {parseAddress-string-uint256-uint256} that returns false if the parsing fails because input is not a properly\\n     * formatted address. See {parseAddress} requirements.\\n     */\\n    function tryParseAddress(\\n        string memory input,\\n        uint256 begin,\\n        uint256 end\\n    ) internal pure returns (bool success, address value) {\\n        if (end > bytes(input).length || begin > end) return (false, address(0));\\n\\n        bool hasPrefix = (end > begin + 1) && bytes2(_unsafeReadBytesOffset(bytes(input), begin)) == bytes2(\\\"0x\\\"); // don't do out-of-bound (possibly unsafe) read if sub-string is empty\\n        uint256 expectedLength = 40 + hasPrefix.toUint() * 2;\\n\\n        // check that input is the correct length\\n        if (end - begin == expectedLength) {\\n            // length guarantees that this does not overflow, and value is at most type(uint160).max\\n            (bool s, uint256 v) = _tryParseHexUintUncheckedBounds(input, begin, end);\\n            return (s, address(uint160(v)));\\n        } else {\\n            return (false, address(0));\\n        }\\n    }\\n\\n    function _tryParseChr(bytes1 chr) private pure returns (uint8) {\\n        uint8 value = uint8(chr);\\n\\n        // Try to parse `chr`:\\n        // - Case 1: [0-9]\\n        // - Case 2: [a-f]\\n        // - Case 3: [A-F]\\n        // - otherwise not supported\\n        unchecked {\\n            if (value > 47 && value < 58) value -= 48;\\n            else if (value > 96 && value < 103) value -= 87;\\n            else if (value > 64 && value < 71) value -= 55;\\n            else return type(uint8).max;\\n        }\\n\\n        return value;\\n    }\\n\\n    /**\\n     * @dev Reads a bytes32 from a bytes array without bounds checking.\\n     *\\n     * NOTE: making this function internal would mean it could be used with memory unsafe offset, and marking the\\n     * assembly block as such would prevent some optimizations.\\n     */\\n    function _unsafeReadBytesOffset(bytes memory buffer, uint256 offset) private pure returns (bytes32 value) {\\n        // This is not memory safe in the general case, but all calls to this private function are within bounds.\\n        assembly (\\\"memory-safe\\\") {\\n            value := mload(add(buffer, add(0x20, offset)))\\n        }\\n    }\\n}\\n\"},\"@openzeppelin/contracts/utils/Errors.sol\":{\"content\":\"// SPDX-License-Identifier: MIT\\n// OpenZeppelin Contracts (last updated v5.1.0) (utils/Errors.sol)\\n\\npragma solidity ^0.8.20;\\n\\n/**\\n * @dev Collection of common custom errors used in multiple contracts\\n *\\n * IMPORTANT: Backwards compatibility is not guaranteed in future versions of the library.\\n * It is recommended to avoid relying on the error API for critical functionality.\\n *\\n * _Available since v5.1._\\n */\\nlibrary Errors {\\n    /**\\n     * @dev The ETH balance of the account is not enough to perform the operation.\\n     */\\n    error InsufficientBalance(uint256 balance, uint256 needed);\\n\\n    /**\\n     * @dev A call to an address target failed. The target may have reverted.\\n     */\\n    error FailedCall();\\n\\n    /**\\n     * @dev The deployment failed.\\n     */\\n    error FailedDeployment();\\n\\n    /**\\n     * @dev A necessary precompile is missing.\\n     */\\n    error MissingPrecompile(address);\\n}\\n\"},\"@openzeppelin/contracts/interfaces/IERC6372.sol\":{\"content\":\"// SPDX-License-Identifier: MIT\\n// OpenZeppelin Contracts (last updated v5.0.0) (interfaces/IERC6372.sol)\\n\\npragma solidity ^0.8.20;\\n\\ninterface IERC6372 {\\n    /**\\n     * @dev Clock used for flagging checkpoints. Can be overridden to implement timestamp based checkpoints (and voting).\\n     */\\n    function clock() external view returns (uint48);\\n\\n    /**\\n     * @dev Description of the clock\\n     */\\n    // solhint-disable-next-line func-name-mixedcase\\n    function CLOCK_MODE() external view returns (string memory);\\n}\\n\"},\"@openzeppelin/contracts/governance/utils/IVotes.sol\":{\"content\":\"// SPDX-License-Identifier: MIT\\n// OpenZeppelin Contracts (last updated v5.0.0) (governance/utils/IVotes.sol)\\npragma solidity ^0.8.20;\\n\\n/**\\n * @dev Common interface for {ERC20Votes}, {ERC721Votes}, and other {Votes}-enabled contracts.\\n */\\ninterface IVotes {\\n    /**\\n     * @dev The signature used has expired.\\n     */\\n    error VotesExpiredSignature(uint256 expiry);\\n\\n    /**\\n     * @dev Emitted when an account changes their delegate.\\n     */\\n    event DelegateChanged(address indexed delegator, address indexed fromDelegate, address indexed toDelegate);\\n\\n    /**\\n     * @dev Emitted when a token transfer or delegate change results in changes to a delegate's number of voting units.\\n     */\\n    event DelegateVotesChanged(address indexed delegate, uint256 previousVotes, uint256 newVotes);\\n\\n    /**\\n     * @dev Returns the current amount of votes that `account` has.\\n     */\\n    function getVotes(address account) external view returns (uint256);\\n\\n    /**\\n     * @dev Returns the amount of votes that `account` had at a specific moment in the past. If the `clock()` is\\n     * configured to use block numbers, this will return the value at the end of the corresponding block.\\n     */\\n    function getPastVotes(address account, uint256 timepoint) external view returns (uint256);\\n\\n    /**\\n     * @dev Returns the total supply of votes available at a specific moment in the past. If the `clock()` is\\n     * configured to use block numbers, this will return the value at the end of the corresponding block.\\n     *\\n     * NOTE: This value is the sum of all available votes, which is not necessarily the sum of all delegated votes.\\n     * Votes that have not been delegated are still part of total supply, even though they would not participate in a\\n     * vote.\\n     */\\n    function getPastTotalSupply(uint256 timepoint) external view returns (uint256);\\n\\n    /**\\n     * @dev Returns the delegate that `account` has chosen.\\n     */\\n    function delegates(address account) external view returns (address);\\n\\n    /**\\n     * @dev Delegates votes from the sender to `delegatee`.\\n     */\\n    function delegate(address delegatee) external;\\n\\n    /**\\n     * @dev Delegates votes from signer to `delegatee`.\\n     */\\n    function delegateBySig(address delegatee, uint256 nonce, uint256 expiry, uint8 v, bytes32 r, bytes32 s) external;\\n}\\n\"},\"@openzeppelin/contracts/utils/math/SignedMath.sol\":{\"content\":\"// SPDX-License-Identifier: MIT\\n// OpenZeppelin Contracts (last updated v5.1.0) (utils/math/SignedMath.sol)\\n\\npragma solidity ^0.8.20;\\n\\nimport {SafeCast} from \\\"./SafeCast.sol\\\";\\n\\n/**\\n * @dev Standard signed math utilities missing in the Solidity language.\\n */\\nlibrary SignedMath {\\n    /**\\n     * @dev Branchless ternary evaluation for `a ? b : c`. Gas costs are constant.\\n     *\\n     * IMPORTANT: This function may reduce bytecode size and consume less gas when used standalone.\\n     * However, the compiler may optimize Solidity ternary operations (i.e. `a ? b : c`) to only compute\\n     * one branch when needed, making this function more expensive.\\n     */\\n    function ternary(bool condition, int256 a, int256 b) internal pure returns (int256) {\\n        unchecked {\\n            // branchless ternary works because:\\n            // b ^ (a ^ b) == a\\n            // b ^ 0 == b\\n            return b ^ ((a ^ b) * int256(SafeCast.toUint(condition)));\\n        }\\n    }\\n\\n    /**\\n     * @dev Returns the largest of two signed numbers.\\n     */\\n    function max(int256 a, int256 b) internal pure returns (int256) {\\n        return ternary(a > b, a, b);\\n    }\\n\\n    /**\\n     * @dev Returns the smallest of two signed numbers.\\n     */\\n    function min(int256 a, int256 b) internal pure returns (int256) {\\n        return ternary(a < b, a, b);\\n    }\\n\\n    /**\\n     * @dev Returns the average of two signed numbers without overflow.\\n     * The result is rounded towards zero.\\n     */\\n    function average(int256 a, int256 b) internal pure returns (int256) {\\n        // Formula from the book \\\"Hacker's Delight\\\"\\n        int256 x = (a & b) + ((a ^ b) >> 1);\\n        return x + (int256(uint256(x) >> 255) & (a ^ b));\\n    }\\n\\n    /**\\n     * @dev Returns the absolute unsigned value of a signed value.\\n     */\\n    function abs(int256 n) internal pure returns (uint256) {\\n        unchecked {\\n            // Formula from the \\\"Bit Twiddling Hacks\\\" by Sean Eron Anderson.\\n            // Since `n` is a signed integer, the generated bytecode will use the SAR opcode to perform the right shift,\\n            // taking advantage of the most significant (or \\\"sign\\\" bit) in two's complement representation.\\n            // This opcode adds new most significant bits set to the value of the previous most significant bit. As a result,\\n            // the mask will either be `bytes32(0)` (if n is positive) or `~bytes32(0)` (if n is negative).\\n            int256 mask = n >> 255;\\n\\n            // A `bytes32(0)` mask leaves the input unchanged, while a `~bytes32(0)` mask complements it.\\n            return uint256((n + mask) ^ mask);\\n        }\\n    }\\n}\\n\"}},\"settings\":{\"optimizer\":{\"enabled\":true,\"runs\":200},\"outputSelection\":{\"*\":{\"\":[\"ast\"],\"*\":[\"abi\",\"metadata\",\"devdoc\",\"userdoc\",\"storageLayout\",\"evm.legacyAssembly\",\"evm.bytecode\",\"evm.deployedBytecode\",\"evm.methodIdentifiers\",\"evm.gasEstimates\",\"evm.assembly\"]}},\"remappings\":[],\"evmVersion\":\"shanghai\"}}",
	"name": "NextProVista",
	"bytecode": {
		"linkReferences": {},
		"object": "60a06040523060805234801562000014575f80fd5b506200001f62000025565b620000d9565b7ff0c57e16840df040f15088dc2f81fe391c3923bec73e23a9662efc9c229c6a00805468010000000000000000900460ff1615620000765760405163f92ee8a960e01b815260040160405180910390fd5b80546001600160401b0390811614620000d65780546001600160401b0319166001600160401b0390811782556040519081527fc7f505b2f371ae2175ee4913f4499e1f2633a7b5936321eed1cdaeb6115181d29060200160405180910390a15b50565b608051612b91620001005f395f81816110200152818161104901526111880152612b915ff3fe6080604052600436106101c5575f3560e01c8063715018a6116100f25780639ab24eb011610092578063d505accf11610062578063d505accf1461056b578063dd62ed3e1461058a578063f1127ed8146105a9578063f2fde38b146105f4575f80fd5b80639ab24eb0146104de578063a9059cbb146104fd578063ad3cb1cc1461051c578063c3cda5201461054c575f80fd5b80638da5cb5b116100cd5780638da5cb5b1461044d5780638e539e8c1461048957806391ddadf4146104a857806395d89b41146104ca575f80fd5b8063715018a6146103f35780637ecebe001461040757806384b0196e14610426575f80fd5b8063485cc95511610168578063587cde1e11610138578063587cde1e1461034a5780635c19a95c146103815780636fcfff45146103a057806370a08231146103d4575f80fd5b8063485cc955146102cc5780634bf5d7e9146102ed5780634f1ef2861461032357806352d1902d14610336575f80fd5b806323b872dd116101a357806323b872dd1461025f578063313ce5671461027e5780633644e515146102995780633a46b1a8146102ad575f80fd5b806306fdde03146101c9578063095ea7b3146101f357806318160ddd14610222575b5f80fd5b3480156101d4575f80fd5b506101dd610613565b6040516101ea9190612430565b60405180910390f35b3480156101fe575f80fd5b5061021261020d36600461245d565b6106b8565b60405190151581526020016101ea565b34801561022d575f80fd5b507f52c63247e1f47db19d5ce0460030c497f067ca4cebf71ba98eeadabe20bace02545b6040519081526020016101ea565b34801561026a575f80fd5b50610212610279366004612485565b6106d1565b348015610289575f80fd5b50604051601281526020016101ea565b3480156102a4575f80fd5b506102516106f6565b3480156102b8575f80fd5b506102516102c736600461245d565b610704565b3480156102d7575f80fd5b506102eb6102e63660046124be565b61074f565b005b3480156102f8575f80fd5b5060408051808201909152600e81526d06d6f64653d74696d657374616d760941b60208201526101dd565b6102eb610331366004612503565b61090b565b348015610341575f80fd5b5061025161092a565b348015610355575f80fd5b506103696103643660046125bf565b610945565b6040516001600160a01b0390911681526020016101ea565b34801561038c575f80fd5b506102eb61039b3660046125bf565b61096e565b3480156103ab575f80fd5b506103bf6103ba3660046125bf565b610979565b60405163ffffffff90911681526020016101ea565b3480156103df575f80fd5b506102516103ee3660046125bf565b610983565b3480156103fe575f80fd5b506102eb6109b3565b348015610412575f80fd5b506102516104213660046125bf565b6109c6565b348015610431575f80fd5b5061043a6109d0565b6040516101ea97969594939291906125d8565b348015610458575f80fd5b507f9016d09d72d40fdae2fd8ceac6b6234c7706214fd39c1cd1e609a0528c199300546001600160a01b0316610369565b348015610494575f80fd5b506102516104a336600461266f565b610a7e565b3480156104b3575f80fd5b5060405165ffffffffffff421681526020016101ea565b3480156104d5575f80fd5b506101dd610ab3565b3480156104e9575f80fd5b506102516104f83660046125bf565b610af1565b348015610508575f80fd5b5061021261051736600461245d565b610b3f565b348015610527575f80fd5b506101dd604051806040016040528060058152602001640352e302e360dc1b81525081565b348015610557575f80fd5b506102eb610566366004612696565b610b4c565b348015610576575f80fd5b506102eb6105853660046126ea565b610bff565b348015610595575f80fd5b506102516105a43660046124be565b610d18565b3480156105b4575f80fd5b506105c86105c336600461274f565b610d61565b60408051825165ffffffffffff1681526020928301516001600160d01b031692810192909252016101ea565b3480156105ff575f80fd5b506102eb61060e3660046125bf565b610d7e565b60605f5f80516020612afc8339815191525b90508060030180546106369061278c565b80601f01602080910402602001604051908101604052809291908181526020018280546106629061278c565b80156106ad5780601f10610684576101008083540402835291602001916106ad565b820191905f5260205f20905b81548152906001019060200180831161069057829003601f168201915b505050505091505090565b5f336106c5818585610dbb565b60019150505b92915050565b5f336106de858285610dcd565b6106e9858585610e31565b60019150505b9392505050565b5f6106ff610e8e565b905090565b5f5f80516020612adc83398151915261073e61071f84610e97565b6001600160a01b0386165f908152600184016020526040902090610edb565b6001600160d01b0316949350505050565b7ff0c57e16840df040f15088dc2f81fe391c3923bec73e23a9662efc9c229c6a008054600160401b810460ff16159067ffffffffffffffff165f811580156107945750825b90505f8267ffffffffffffffff1660011480156107b05750303b155b9050811580156107be575080155b156107dc5760405163f92ee8a960e01b815260040160405180910390fd5b845467ffffffffffffffff19166001178555831561080657845460ff60401b1916600160401b1785555b6108516040518060400160405280600e81526020016d4e6578742050726f20566973746160901b8152506040518060400160405280600381526020016227282b60e91b815250610f8b565b6108806040518060400160405280600e81526020016d4e6578742050726f20566973746160901b815250610f9d565b610888610fc8565b61089186610fd0565b610899610fc8565b6108bc876108a96012600a6128b8565b6108b7906316bf96c96128c6565b610fe1565b831561090257845460ff60401b19168555604051600181527fc7f505b2f371ae2175ee4913f4499e1f2633a7b5936321eed1cdaeb6115181d29060200160405180910390a15b50505050505050565b610913611015565b61091c826110b9565b61092682826110c1565b5050565b5f61093361117d565b505f80516020612b3c83398151915290565b6001600160a01b039081165f9081525f80516020612adc83398151915260205260409020541690565b3361092681836111c6565b5f6106cb8261124d565b5f805f80516020612afc8339815191525b6001600160a01b039093165f9081526020939093525050604090205490565b6109bb61129c565b6109c45f6112f7565b565b5f6106cb82611367565b5f60608082808083815f80516020612b1c83398151915280549091501580156109fb57506001810154155b610a445760405162461bcd60e51b81526020600482015260156024820152741152540dcc4c8e88155b9a5b9a5d1a585b1a5e9959605a1b60448201526064015b60405180910390fd5b610a4c611371565b610a546113af565b604080515f80825260208201909252600f60f81b9c939b5091995046985030975095509350915050565b5f5f80516020612adc833981519152610aa3610a9984610e97565b6002830190610edb565b6001600160d01b03169392505050565b7f52c63247e1f47db19d5ce0460030c497f067ca4cebf71ba98eeadabe20bace0480546060915f80516020612afc833981519152916106369061278c565b6001600160a01b0381165f9081527fe8b26c30fad74198956032a3533d903385d56dd795af560196f9c78d4af40d01602052604081205f80516020612adc83398151915290610aa3906113c5565b5f336106c5818585610e31565b83421115610b7057604051632341d78760e11b815260048101859052602401610a3b565b604080517fe48329057bfd03d55e49b547132e39cffd9c1820ad7b9d4c5307691425d15adf60208201526001600160a01b0388169181019190915260608101869052608081018590525f90610be990610be19060a001604051602081830303815290604052805190602001206113fc565b858585611428565b9050610bf58187611454565b61090281886111c6565b83421115610c235760405163313c898160e11b815260048101859052602401610a3b565b5f7f6e71edae12b1b97f4d1f60370fef10105fa2faae0126114a169c64845d6126c9888888610c518c611492565b6040805160208101969096526001600160a01b0394851690860152929091166060840152608083015260a082015260c0810186905260e0016040516020818303038152906040528051906020012090505f610cab826113fc565b90505f610cba82878787611428565b9050896001600160a01b0316816001600160a01b031614610d01576040516325c0072360e11b81526001600160a01b0380831660048301528b166024820152604401610a3b565b610d0c8a8a8a610dbb565b50505050505050505050565b6001600160a01b039182165f9081527f52c63247e1f47db19d5ce0460030c497f067ca4cebf71ba98eeadabe20bace016020908152604080832093909416825291909152205490565b604080518082019091525f80825260208201526106ef83836114d3565b610d8661129c565b6001600160a01b038116610daf57604051631e4fbdf760e01b81525f6004820152602401610a3b565b610db8816112f7565b50565b610dc8838383600161153c565b505050565b5f610dd88484610d18565b90505f19811015610e2b5781811015610e1d57604051637dc7a0d960e11b81526001600160a01b03841660048201526024810182905260448101839052606401610a3b565b610e2b84848484035f61153c565b50505050565b6001600160a01b038316610e5a57604051634b637e8f60e11b81525f6004820152602401610a3b565b6001600160a01b038216610e835760405163ec442f0560e01b81525f6004820152602401610a3b565b610dc8838383611620565b5f6106ff61162b565b5f4265ffffffffffff81168310610ed257604051637669fc0f60e11b81526004810184905265ffffffffffff82166024820152604401610a3b565b6106ef8361169e565b81545f9081816005811115610f37575f610ef4846116d4565b610efe90856128dd565b5f8881526020902090915081015465ffffffffffff9081169087161015610f2757809150610f35565b610f328160016128f0565b92505b505b5f610f4487878585611827565b90508015610f7e57610f6887610f5b6001846128dd565b5f91825260209091200190565b54600160301b90046001600160d01b0316610f80565b5f5b979650505050505050565b610f93611886565b61092682826118cf565b610fa5611886565b610db881604051806040016040528060018152602001603160f81b81525061191f565b6109c4611886565b610fd8611886565b610db88161197e565b6001600160a01b03821661100a5760405163ec442f0560e01b81525f6004820152602401610a3b565b6109265f8383611620565b306001600160a01b037f000000000000000000000000000000000000000000000000000000000000000016148061109b57507f00000000000000000000000000000000000000000000000000000000000000006001600160a01b031661108f5f80516020612b3c833981519152546001600160a01b031690565b6001600160a01b031614155b156109c45760405163703e46dd60e11b815260040160405180910390fd5b610db861129c565b816001600160a01b03166352d1902d6040518163ffffffff1660e01b8152600401602060405180830381865afa92505050801561111b575060408051601f3d908101601f1916820190925261111891810190612903565b60015b61114357604051634c9c8ce360e01b81526001600160a01b0383166004820152602401610a3b565b5f80516020612b3c833981519152811461117357604051632a87526960e21b815260048101829052602401610a3b565b610dc88383611986565b306001600160a01b037f000000000000000000000000000000000000000000000000000000000000000016146109c45760405163703e46dd60e11b815260040160405180910390fd5b5f80516020612adc8339815191525f6111de84610945565b6001600160a01b038581165f8181526020869052604080822080546001600160a01b031916898616908117909155905194955093928516927f3134e8a2e6d97e929a7e54011ea5485d7d196dd5f0ba4d4ef95803e8e3fc257f9190a4610e2b8184611248876119db565b6119e5565b6001600160a01b0381165f9081527fe8b26c30fad74198956032a3533d903385d56dd795af560196f9c78d4af40d0160205260408120545f80516020612adc833981519152906106ef90611b5b565b336112ce7f9016d09d72d40fdae2fd8ceac6b6234c7706214fd39c1cd1e609a0528c199300546001600160a01b031690565b6001600160a01b0316146109c45760405163118cdaa760e01b8152336004820152602401610a3b565b7f9016d09d72d40fdae2fd8ceac6b6234c7706214fd39c1cd1e609a0528c19930080546001600160a01b031981166001600160a01b03848116918217845560405192169182907f8be0079c531659141344cd1fd0a4f28419497f9722a3daafe3b4186f6b6457e0905f90a3505050565b5f6106cb82611b8b565b7fa16a46d94261c7517cc8ff89f61c0ce93598e3c849801011dee649a6a557d10280546060915f80516020612b1c833981519152916106369061278c565b60605f5f80516020612b1c833981519152610625565b80545f9080156113f4576113de83610f5b6001846128dd565b54600160301b90046001600160d01b03166106ef565b5f9392505050565b5f6106cb611408610e8e565b8360405161190160f01b8152600281019290925260228201526042902090565b5f805f8061143888888888611bb3565b9250925092506114488282611c7b565b50909695505050505050565b5f61145e83611492565b9050808214610dc8576040516301d4b62360e61b81526001600160a01b038416600482015260248101829052604401610a3b565b6001600160a01b03165f9081527f5ab42ced628888259c08ac98db1eb0cf702fc1501344311d8b100cd1bfe4bb006020526040902080546001810190915590565b6040805180820182525f80825260208083018290526001600160a01b03861682527fe8b26c30fad74198956032a3533d903385d56dd795af560196f9c78d4af40d019052919091205f80516020612adc833981519152906115349084611d33565b949350505050565b5f80516020612afc8339815191526001600160a01b0385166115735760405163e602df0560e01b81525f6004820152602401610a3b565b6001600160a01b03841661159c57604051634a1406b160e11b81525f6004820152602401610a3b565b6001600160a01b038086165f9081526001830160209081526040808320938816835292905220839055811561161957836001600160a01b0316856001600160a01b03167f8c5be1e5ebec7d5bd14f71427d1e84f3dd0314c0f7b2291e5b200ac8c7c3b9258560405161161091815260200190565b60405180910390a35b5050505050565b610dc8838383611da0565b5f7f8b73c3c69bb8fe3d512ecc4cf759cc79239f7b179b0ffacaa9a75d522b39400f611655611e25565b61165d611e8d565b60408051602081019490945283019190915260608201524660808201523060a082015260c00160405160208183030381529060405280519060200120905090565b5f65ffffffffffff8211156116d0576040516306dfcc6560e41b81526030600482015260248101839052604401610a3b565b5090565b5f600182116116e1575090565b816001600160801b82106116fa5760809190911c9060401b5b600160401b82106117105760409190911c9060201b5b64010000000082106117275760209190911c9060101b5b62010000821061173c5760109190911c9060081b5b61010082106117505760089190911c9060041b5b601082106117635760049190911c9060021b5b6004821061176f5760011b5b600302600190811c908185816117875761178761291a565b048201901c9050600181858161179f5761179f61291a565b048201901c905060018185816117b7576117b761291a565b048201901c905060018185816117cf576117cf61291a565b048201901c905060018185816117e7576117e761291a565b048201901c905060018185816117ff576117ff61291a565b048201901c905061181e8185816118185761181861291a565b04821190565b90039392505050565b5f5b8183101561187e575f61183c8484611ecf565b5f8781526020902090915065ffffffffffff86169082015465ffffffffffff16111561186a57809250611878565b6118758160016128f0565b93505b50611829565b509392505050565b7ff0c57e16840df040f15088dc2f81fe391c3923bec73e23a9662efc9c229c6a0054600160401b900460ff166109c457604051631afcd79f60e31b815260040160405180910390fd5b6118d7611886565b5f80516020612afc8339815191527f52c63247e1f47db19d5ce0460030c497f067ca4cebf71ba98eeadabe20bace036119108482612972565b5060048101610e2b8382612972565b611927611886565b5f80516020612b1c8339815191527fa16a46d94261c7517cc8ff89f61c0ce93598e3c849801011dee649a6a557d1026119608482612972565b506003810161196f8382612972565b505f8082556001909101555050565b610d86611886565b61198f82611ee9565b6040516001600160a01b038316907fbc7cd75a20ee27fd9adebab32041f755214dbc6bffa90cc0225b39da2e5c2d3b905f90a28051156119d357610dc88282611f4c565b610926611fbe565b5f6106cb82610983565b5f80516020612adc8339815191526001600160a01b0384811690841614801590611a0e57505f82115b15610e2b576001600160a01b03841615611ab7576001600160a01b0384165f90815260018201602052604081208190611a5290611fdd611a4d87611fe8565b61201b565b6001600160d01b031691506001600160d01b03169150856001600160a01b03167fdec2bacdd2f05b59de34da9b523dff8be42e5e38e818c82fdb0bae774387a7248383604051611aac929190918252602082015260400190565b60405180910390a250505b6001600160a01b03831615610e2b576001600160a01b0383165f90815260018201602052604081208190611af19061204c611a4d87611fe8565b6001600160d01b031691506001600160d01b03169150846001600160a01b03167fdec2bacdd2f05b59de34da9b523dff8be42e5e38e818c82fdb0bae774387a7248383604051611b4b929190918252602082015260400190565b60405180910390a2505050505050565b5f63ffffffff8211156116d0576040516306dfcc6560e41b81526020600482015260248101839052604401610a3b565b5f807f5ab42ced628888259c08ac98db1eb0cf702fc1501344311d8b100cd1bfe4bb00610994565b5f80807f7fffffffffffffffffffffffffffffff5d576e7357a4501ddfe92f46681b20a0841115611bec57505f91506003905082611c71565b604080515f808252602082018084528a905260ff891692820192909252606081018790526080810186905260019060a0016020604051602081039080840390855afa158015611c3d573d5f803e3d5ffd5b5050604051601f1901519150506001600160a01b038116611c6857505f925060019150829050611c71565b92505f91508190505b9450945094915050565b5f826003811115611c8e57611c8e612a32565b03611c97575050565b6001826003811115611cab57611cab612a32565b03611cc95760405163f645eedf60e01b815260040160405180910390fd5b6002826003811115611cdd57611cdd612a32565b03611cfe5760405163fce698f760e01b815260048101829052602401610a3b565b6003826003811115611d1257611d12612a32565b03610926576040516335e2f38360e21b815260048101829052602401610a3b565b604080518082019091525f8082526020820152825f018263ffffffff1681548110611d6057611d60612a46565b5f9182526020918290206040805180820190915291015465ffffffffffff81168252600160301b90046001600160d01b0316918101919091529392505050565b611dab838383612057565b6001600160a01b038316611e1a575f611de27f52c63247e1f47db19d5ce0460030c497f067ca4cebf71ba98eeadabe20bace025490565b90506001600160d01b0380821115611e1757604051630e58ae9360e11b81526004810183905260248101829052604401610a3b565b50505b610dc8838383612190565b5f5f80516020612b1c83398151915281611e3d611371565b805190915015611e5557805160209091012092915050565b81548015611e64579392505050565b7fc5d2460186f7233c927e7db2dcc703c0e500b653ca82273b7bfad8045d85a470935050505090565b5f5f80516020612b1c83398151915281611ea56113af565b805190915015611ebd57805160209091012092915050565b60018201548015611e64579392505050565b5f611edd6002848418612a5a565b6106ef908484166128f0565b806001600160a01b03163b5f03611f1e57604051634c9c8ce360e01b81526001600160a01b0382166004820152602401610a3b565b5f80516020612b3c83398151915280546001600160a01b0319166001600160a01b0392909216919091179055565b60605f80846001600160a01b031684604051611f689190612a79565b5f60405180830381855af49150503d805f8114611fa0576040519150601f19603f3d011682016040523d82523d5f602084013e611fa5565b606091505b5091509150611fb5858383612201565b95945050505050565b34156109c45760405163b398979f60e01b815260040160405180910390fd5b5f6106ef8284612a94565b5f6001600160d01b038211156116d0576040516306dfcc6560e41b815260d0600482015260248101839052604401610a3b565b5f8061203f4261203761202d886113c5565b868863ffffffff16565b87919061225d565b915091505b935093915050565b5f6106ef8284612abb565b5f80516020612afc8339815191526001600160a01b0384166120915781816002015f82825461208691906128f0565b909155506121019050565b6001600160a01b0384165f90815260208290526040902054828110156120e35760405163391434e360e21b81526001600160a01b03861660048201526024810182905260448101849052606401610a3b565b6001600160a01b0385165f9081526020839052604090209083900390555b6001600160a01b03831661211f57600281018054839003905561213d565b6001600160a01b0383165f9081526020829052604090208054830190555b826001600160a01b0316846001600160a01b03167fddf252ad1be2c89b69c2b068fc378daa952ba7f163c4a11628f55a4df523b3ef8460405161218291815260200190565b60405180910390a350505050565b5f80516020612adc8339815191526001600160a01b0384166121c2576121bf8160020161204c611a4d85611fe8565b50505b6001600160a01b0383166121e6576121e381600201611fdd611a4d85611fe8565b50505b610e2b6121f285610945565b6121fb85610945565b846119e5565b606082612216576122118261226a565b6106ef565b815115801561222d57506001600160a01b0384163b155b1561225657604051639996b31560e01b81526001600160a01b0385166004820152602401610a3b565b50806106ef565b5f8061203f858585612293565b80511561227a5780518082602001fd5b60405163d6bda27560e01b815260040160405180910390fd5b82545f9081908015612389575f6122af87610f5b6001856128dd565b805490915065ffffffffffff80821691600160301b90046001600160d01b03169088168211156122f257604051632520601d60e01b815260040160405180910390fd5b8765ffffffffffff168265ffffffffffff160361232b57825465ffffffffffff16600160301b6001600160d01b0389160217835561237b565b6040805180820190915265ffffffffffff808a1682526001600160d01b03808a1660208085019182528d54600181018f555f8f81529190912094519151909216600160301b029216919091179101555b945085935061204492505050565b50506040805180820190915265ffffffffffff80851682526001600160d01b0380851660208085019182528854600181018a555f8a815291822095519251909316600160301b029190931617920191909155905081612044565b5f5b838110156123fd5781810151838201526020016123e5565b50505f910152565b5f815180845261241c8160208601602086016123e3565b601f01601f19169290920160200192915050565b602081525f6106ef6020830184612405565b80356001600160a01b0381168114612458575f80fd5b919050565b5f806040838503121561246e575f80fd5b61247783612442565b946020939093013593505050565b5f805f60608486031215612497575f80fd5b6124a084612442565b92506124ae60208501612442565b9150604084013590509250925092565b5f80604083850312156124cf575f80fd5b6124d883612442565b91506124e660208401612442565b90509250929050565b634e487b7160e01b5f52604160045260245ffd5b5f8060408385031215612514575f80fd5b61251d83612442565b9150602083013567ffffffffffffffff80821115612539575f80fd5b818501915085601f83011261254c575f80fd5b81358181111561255e5761255e6124ef565b604051601f8201601f19908116603f01168101908382118183101715612586576125866124ef565b8160405282815288602084870101111561259e575f80fd5b826020860160208301375f6020848301015280955050505050509250929050565b5f602082840312156125cf575f80fd5b6106ef82612442565b60ff60f81b881681525f602060e060208401526125f860e084018a612405565b838103604085015261260a818a612405565b606085018990526001600160a01b038816608086015260a0850187905284810360c0860152855180825260208088019350909101905f5b8181101561265d57835183529284019291840191600101612641565b50909c9b505050505050505050505050565b5f6020828403121561267f575f80fd5b5035919050565b803560ff81168114612458575f80fd5b5f805f805f8060c087890312156126ab575f80fd5b6126b487612442565b955060208701359450604087013593506126d060608801612686565b92506080870135915060a087013590509295509295509295565b5f805f805f805f60e0888a031215612700575f80fd5b61270988612442565b965061271760208901612442565b9550604088013594506060880135935061273360808901612686565b925060a0880135915060c0880135905092959891949750929550565b5f8060408385031215612760575f80fd5b61276983612442565b9150602083013563ffffffff81168114612781575f80fd5b809150509250929050565b600181811c908216806127a057607f821691505b6020821081036127be57634e487b7160e01b5f52602260045260245ffd5b50919050565b634e487b7160e01b5f52601160045260245ffd5b600181815b8085111561281257815f19048211156127f8576127f86127c4565b8085161561280557918102915b93841c93908002906127dd565b509250929050565b5f82612828575060016106cb565b8161283457505f6106cb565b816001811461284a576002811461285457612870565b60019150506106cb565b60ff841115612865576128656127c4565b50506001821b6106cb565b5060208310610133831016604e8410600b8410161715612893575081810a6106cb565b61289d83836127d8565b805f19048211156128b0576128b06127c4565b029392505050565b5f6106ef60ff84168361281a565b80820281158282048414176106cb576106cb6127c4565b818103818111156106cb576106cb6127c4565b808201808211156106cb576106cb6127c4565b5f60208284031215612913575f80fd5b5051919050565b634e487b7160e01b5f52601260045260245ffd5b601f821115610dc857805f5260205f20601f840160051c810160208510156129535750805b601f840160051c820191505b81811015611619575f815560010161295f565b815167ffffffffffffffff81111561298c5761298c6124ef565b6129a08161299a845461278c565b8461292e565b602080601f8311600181146129d3575f84156129bc5750858301515b5f19600386901b1c1916600185901b178555612a2a565b5f85815260208120601f198616915b82811015612a01578886015182559484019460019091019084016129e2565b5085821015612a1e57878501515f19600388901b60f8161c191681555b505060018460011b0185555b505050505050565b634e487b7160e01b5f52602160045260245ffd5b634e487b7160e01b5f52603260045260245ffd5b5f82612a7457634e487b7160e01b5f52601260045260245ffd5b500490565b5f8251612a8a8184602087016123e3565b9190910192915050565b6001600160d01b03828116828216039080821115612ab457612ab46127c4565b5092915050565b6001600160d01b03818116838216019080821115612ab457612ab46127c456fee8b26c30fad74198956032a3533d903385d56dd795af560196f9c78d4af40d0052c63247e1f47db19d5ce0460030c497f067ca4cebf71ba98eeadabe20bace00a16a46d94261c7517cc8ff89f61c0ce93598e3c849801011dee649a6a557d100360894a13ba1a3210667c828492db98dca3e2076cc3735a920a3ca505d382bbca2646970667358221220ca54c6c59aca917cfd139c6ebb26882ae2ff0ba831e27d74043d1b416a13538764736f6c63430008160033",
		"opcodes": "PUSH1 0xA0 PUSH1 0x40 MSTORE ADDRESS PUSH1 0x80 MSTORE CALLVALUE DUP1 ISZERO PUSH3 0x14 JUMPI PUSH0 DUP1 REVERT JUMPDEST POP PUSH3 0x1F PUSH3 0x25 JUMP JUMPDEST PUSH3 0xD9 JUMP JUMPDEST PUSH32 0xF0C57E16840DF040F15088DC2F81FE391C3923BEC73E23A9662EFC9C229C6A00 DUP1 SLOAD PUSH9 0x10000000000000000 SWAP1 DIV PUSH1 0xFF AND ISZERO PUSH3 0x76 JUMPI PUSH1 0x40 MLOAD PUSH4 0xF92EE8A9 PUSH1 0xE0 SHL DUP2 MSTORE PUSH1 0x4 ADD PUSH1 0x40 MLOAD DUP1 SWAP2 SUB SWAP1 REVERT JUMPDEST DUP1 SLOAD PUSH1 0x1 PUSH1 0x1 PUSH1 0x40 SHL SUB SWAP1 DUP2 AND EQ PUSH3 0xD6 JUMPI DUP1 SLOAD PUSH1 0x1 PUSH1 0x1 PUSH1 0x40 SHL SUB NOT AND PUSH1 0x1 PUSH1 0x1 PUSH1 0x40 SHL SUB SWAP1 DUP2 OR DUP3 SSTORE PUSH1 0x40 MLOAD SWAP1 DUP2 MSTORE PUSH32 0xC7F505B2F371AE2175EE4913F4499E1F2633A7B5936321EED1CDAEB6115181D2 SWAP1 PUSH1 0x20 ADD PUSH1 0x40 MLOAD DUP1 SWAP2 SUB SWAP1 LOG1 JUMPDEST POP JUMP JUMPDEST PUSH1 0x80 MLOAD PUSH2 0x2B91 PUSH3 0x100 PUSH0 CODECOPY PUSH0 DUP2 DUP2 PUSH2 0x1020 ADD MSTORE DUP2 DUP2 PUSH2 0x1049 ADD MSTORE PUSH2 0x1188 ADD MSTORE PUSH2 0x2B91 PUSH0 RETURN INVALID PUSH1 0x80 PUSH1 0x40 MSTORE PUSH1 0x4 CALLDATASIZE LT PUSH2 0x1C5 JUMPI PUSH0 CALLDATALOAD PUSH1 0xE0 SHR DUP1 PUSH4 0x715018A6 GT PUSH2 0xF2 JUMPI DUP1 PUSH4 0x9AB24EB0 GT PUSH2 0x92 JUMPI DUP1 PUSH4 0xD505ACCF GT PUSH2 0x62 JUMPI DUP1 PUSH4 0xD505ACCF EQ PUSH2 0x56B JUMPI DUP1 PUSH4 0xDD62ED3E EQ PUSH2 0x58A JUMPI DUP1 PUSH4 0xF1127ED8 EQ PUSH2 0x5A9 JUMPI DUP1 PUSH4 0xF2FDE38B EQ PUSH2 0x5F4 JUMPI PUSH0 DUP1 REVERT JUMPDEST DUP1 PUSH4 0x9AB24EB0 EQ PUSH2 0x4DE JUMPI DUP1 PUSH4 0xA9059CBB EQ PUSH2 0x4FD JUMPI DUP1 PUSH4 0xAD3CB1CC EQ PUSH2 0x51C JUMPI DUP1 PUSH4 0xC3CDA520 EQ PUSH2 0x54C JUMPI PUSH0 DUP1 REVERT JUMPDEST DUP1 PUSH4 0x8DA5CB5B GT PUSH2 0xCD JUMPI DUP1 PUSH4 0x8DA5CB5B EQ PUSH2 0x44D JUMPI DUP1 PUSH4 0x8E539E8C EQ PUSH2 0x489 JUMPI DUP1 PUSH4 0x91DDADF4 EQ PUSH2 0x4A8 JUMPI DUP1 PUSH4 0x95D89B41 EQ PUSH2 0x4CA JUMPI PUSH0 DUP1 REVERT JUMPDEST DUP1 PUSH4 0x715018A6 EQ PUSH2 0x3F3 JUMPI DUP1 PUSH4 0x7ECEBE00 EQ PUSH2 0x407 JUMPI DUP1 PUSH4 0x84B0196E EQ PUSH2 0x426 JUMPI PUSH0 DUP1 REVERT JUMPDEST DUP1 PUSH4 0x485CC955 GT PUSH2 0x168 JUMPI DUP1 PUSH4 0x587CDE1E GT PUSH2 0x138 JUMPI DUP1 PUSH4 0x587CDE1E EQ PUSH2 0x34A JUMPI DUP1 PUSH4 0x5C19A95C EQ PUSH2 0x381 JUMPI DUP1 PUSH4 0x6FCFFF45 EQ PUSH2 0x3A0 JUMPI DUP1 PUSH4 0x70A08231 EQ PUSH2 0x3D4 JUMPI PUSH0 DUP1 REVERT JUMPDEST DUP1 PUSH4 0x485CC955 EQ PUSH2 0x2CC JUMPI DUP1 PUSH4 0x4BF5D7E9 EQ PUSH2 0x2ED JUMPI DUP1 PUSH4 0x4F1EF286 EQ PUSH2 0x323 JUMPI DUP1 PUSH4 0x52D1902D EQ PUSH2 0x336 JUMPI PUSH0 DUP1 REVERT JUMPDEST DUP1 PUSH4 0x23B872DD GT PUSH2 0x1A3 JUMPI DUP1 PUSH4 0x23B872DD EQ PUSH2 0x25F JUMPI DUP1 PUSH4 0x313CE567 EQ PUSH2 0x27E JUMPI DUP1 PUSH4 0x3644E515 EQ PUSH2 0x299 JUMPI DUP1 PUSH4 0x3A46B1A8 EQ PUSH2 0x2AD JUMPI PUSH0 DUP1 REVERT JUMPDEST DUP1 PUSH4 0x6FDDE03 EQ PUSH2 0x1C9 JUMPI DUP1 PUSH4 0x95EA7B3 EQ PUSH2 0x1F3 JUMPI DUP1 PUSH4 0x18160DDD EQ PUSH2 0x222 JUMPI JUMPDEST PUSH0 DUP1 REVERT JUMPDEST CALLVALUE DUP1 ISZERO PUSH2 0x1D4 JUMPI PUSH0 DUP1 REVERT JUMPDEST POP PUSH2 0x1DD PUSH2 0x613 JUMP JUMPDEST PUSH1 0x40 MLOAD PUSH2 0x1EA SWAP2 SWAP1 PUSH2 0x2430 JUMP JUMPDEST PUSH1 0x40 MLOAD DUP1 SWAP2 SUB SWAP1 RETURN JUMPDEST CALLVALUE DUP1 ISZERO PUSH2 0x1FE JUMPI PUSH0 DUP1 REVERT JUMPDEST POP PUSH2 0x212 PUSH2 0x20D CALLDATASIZE PUSH1 0x4 PUSH2 0x245D JUMP JUMPDEST PUSH2 0x6B8 JUMP JUMPDEST PUSH1 0x40 MLOAD SWAP1 ISZERO ISZERO DUP2 MSTORE PUSH1 0x20 ADD PUSH2 0x1EA JUMP JUMPDEST CALLVALUE DUP1 ISZERO PUSH2 0x22D JUMPI PUSH0 DUP1 REVERT JUMPDEST POP PUSH32 0x52C63247E1F47DB19D5CE0460030C497F067CA4CEBF71BA98EEADABE20BACE02 SLOAD JUMPDEST PUSH1 0x40 MLOAD SWAP1 DUP2 MSTORE PUSH1 0x20 ADD PUSH2 0x1EA JUMP JUMPDEST CALLVALUE DUP1 ISZERO PUSH2 0x26A JUMPI PUSH0 DUP1 REVERT JUMPDEST POP PUSH2 0x212 PUSH2 0x279 CALLDATASIZE PUSH1 0x4 PUSH2 0x2485 JUMP JUMPDEST PUSH2 0x6D1 JUMP JUMPDEST CALLVALUE DUP1 ISZERO PUSH2 0x289 JUMPI PUSH0 DUP1 REVERT JUMPDEST POP PUSH1 0x40 MLOAD PUSH1 0x12 DUP2 MSTORE PUSH1 0x20 ADD PUSH2 0x1EA JUMP JUMPDEST CALLVALUE DUP1 ISZERO PUSH2 0x2A4 JUMPI PUSH0 DUP1 REVERT JUMPDEST POP PUSH2 0x251 PUSH2 0x6F6 JUMP JUMPDEST CALLVALUE DUP1 ISZERO PUSH2 0x2B8 JUMPI PUSH0 DUP1 REVERT JUMPDEST POP PUSH2 0x251 PUSH2 0x2C7 CALLDATASIZE PUSH1 0x4 PUSH2 0x245D JUMP JUMPDEST PUSH2 0x704 JUMP JUMPDEST CALLVALUE DUP1 ISZERO PUSH2 0x2D7 JUMPI PUSH0 DUP1 REVERT JUMPDEST POP PUSH2 0x2EB PUSH2 0x2E6 CALLDATASIZE PUSH1 0x4 PUSH2 0x24BE JUMP JUMPDEST PUSH2 0x74F JUMP JUMPDEST STOP JUMPDEST CALLVALUE DUP1 ISZERO PUSH2 0x2F8 JUMPI PUSH0 DUP1 REVERT JUMPDEST POP PUSH1 0x40 DUP1 MLOAD DUP1 DUP3 ADD SWAP1 SWAP2 MSTORE PUSH1 0xE DUP2 MSTORE PUSH14 0x6D6F64653D74696D657374616D7 PUSH1 0x94 SHL PUSH1 0x20 DUP3 ADD MSTORE PUSH2 0x1DD JUMP JUMPDEST PUSH2 0x2EB PUSH2 0x331 CALLDATASIZE PUSH1 0x4 PUSH2 0x2503 JUMP JUMPDEST PUSH2 0x90B JUMP JUMPDEST CALLVALUE DUP1 ISZERO PUSH2 0x341 JUMPI PUSH0 DUP1 REVERT JUMPDEST POP PUSH2 0x251 PUSH2 0x92A JUMP JUMPDEST CALLVALUE DUP1 ISZERO PUSH2 0x355 JUMPI PUSH0 DUP1 REVERT JUMPDEST POP PUSH2 0x369 PUSH2 0x364 CALLDATASIZE PUSH1 0x4 PUSH2 0x25BF JUMP JUMPDEST PUSH2 0x945 JUMP JUMPDEST PUSH1 0x40 MLOAD PUSH1 0x1 PUSH1 0x1 PUSH1 0xA0 SHL SUB SWAP1 SWAP2 AND DUP2 MSTORE PUSH1 0x20 ADD PUSH2 0x1EA JUMP JUMPDEST CALLVALUE DUP1 ISZERO PUSH2 0x38C JUMPI PUSH0 DUP1 REVERT JUMPDEST POP PUSH2 0x2EB PUSH2 0x39B CALLDATASIZE PUSH1 0x4 PUSH2 0x25BF JUMP JUMPDEST PUSH2 0x96E JUMP JUMPDEST CALLVALUE DUP1 ISZERO PUSH2 0x3AB JUMPI PUSH0 DUP1 REVERT JUMPDEST POP PUSH2 0x3BF PUSH2 0x3BA CALLDATASIZE PUSH1 0x4 PUSH2 0x25BF JUMP JUMPDEST PUSH2 0x979 JUMP JUMPDEST PUSH1 0x40 MLOAD PUSH4 0xFFFFFFFF SWAP1 SWAP2 AND DUP2 MSTORE PUSH1 0x20 ADD PUSH2 0x1EA JUMP JUMPDEST CALLVALUE DUP1 ISZERO PUSH2 0x3DF JUMPI PUSH0 DUP1 REVERT JUMPDEST POP PUSH2 0x251 PUSH2 0x3EE CALLDATASIZE PUSH1 0x4 PUSH2 0x25BF JUMP JUMPDEST PUSH2 0x983 JUMP JUMPDEST CALLVALUE DUP1 ISZERO PUSH2 0x3FE JUMPI PUSH0 DUP1 REVERT JUMPDEST POP PUSH2 0x2EB PUSH2 0x9B3 JUMP JUMPDEST CALLVALUE DUP1 ISZERO PUSH2 0x412 JUMPI PUSH0 DUP1 REVERT JUMPDEST POP PUSH2 0x251 PUSH2 0x421 CALLDATASIZE PUSH1 0x4 PUSH2 0x25BF JUMP JUMPDEST PUSH2 0x9C6 JUMP JUMPDEST CALLVALUE DUP1 ISZERO PUSH2 0x431 JUMPI PUSH0 DUP1 REVERT JUMPDEST POP PUSH2 0x43A PUSH2 0x9D0 JUMP JUMPDEST PUSH1 0x40 MLOAD PUSH2 0x1EA SWAP8 SWAP7 SWAP6 SWAP5 SWAP4 SWAP3 SWAP2 SWAP1 PUSH2 0x25D8 JUMP JUMPDEST CALLVALUE DUP1 ISZERO PUSH2 0x458 JUMPI PUSH0 DUP1 REVERT JUMPDEST POP PUSH32 0x9016D09D72D40FDAE2FD8CEAC6B6234C7706214FD39C1CD1E609A0528C199300 SLOAD PUSH1 0x1 PUSH1 0x1 PUSH1 0xA0 SHL SUB AND PUSH2 0x369 JUMP JUMPDEST CALLVALUE DUP1 ISZERO PUSH2 0x494 JUMPI PUSH0 DUP1 REVERT JUMPDEST POP PUSH2 0x251 PUSH2 0x4A3 CALLDATASIZE PUSH1 0x4 PUSH2 0x266F JUMP JUMPDEST PUSH2 0xA7E JUMP JUMPDEST CALLVALUE DUP1 ISZERO PUSH2 0x4B3 JUMPI PUSH0 DUP1 REVERT JUMPDEST POP PUSH1 0x40 MLOAD PUSH6 0xFFFFFFFFFFFF TIMESTAMP AND DUP2 MSTORE PUSH1 0x20 ADD PUSH2 0x1EA JUMP JUMPDEST CALLVALUE DUP1 ISZERO PUSH2 0x4D5 JUMPI PUSH0 DUP1 REVERT JUMPDEST POP PUSH2 0x1DD PUSH2 0xAB3 JUMP JUMPDEST CALLVALUE DUP1 ISZERO PUSH2 0x4E9 JUMPI PUSH0 DUP1 REVERT JUMPDEST POP PUSH2 0x251 PUSH2 0x4F8 CALLDATASIZE PUSH1 0x4 PUSH2 0x25BF JUMP JUMPDEST PUSH2 0xAF1 JUMP JUMPDEST CALLVALUE DUP1 ISZERO PUSH2 0x508 JUMPI PUSH0 DUP1 REVERT JUMPDEST POP PUSH2 0x212 PUSH2 0x517 CALLDATASIZE PUSH1 0x4 PUSH2 0x245D JUMP JUMPDEST PUSH2 0xB3F JUMP JUMPDEST CALLVALUE DUP1 ISZERO PUSH2 0x527 JUMPI PUSH0 DUP1 REVERT JUMPDEST POP PUSH2 0x1DD PUSH1 0x40 MLOAD DUP1 PUSH1 0x40 ADD PUSH1 0x40 MSTORE DUP1 PUSH1 0x5 DUP2 MSTORE PUSH1 0x20 ADD PUSH5 0x352E302E3 PUSH1 0xDC SHL DUP2 MSTORE POP DUP2 JUMP JUMPDEST CALLVALUE DUP1 ISZERO PUSH2 0x557 JUMPI PUSH0 DUP1 REVERT JUMPDEST POP PUSH2 0x2EB PUSH2 0x566 CALLDATASIZE PUSH1 0x4 PUSH2 0x2696 JUMP JUMPDEST PUSH2 0xB4C JUMP JUMPDEST CALLVALUE DUP1 ISZERO PUSH2 0x576 JUMPI PUSH0 DUP1 REVERT JUMPDEST POP PUSH2 0x2EB PUSH2 0x585 CALLDATASIZE PUSH1 0x4 PUSH2 0x26EA JUMP JUMPDEST PUSH2 0xBFF JUMP JUMPDEST CALLVALUE DUP1 ISZERO PUSH2 0x595 JUMPI PUSH0 DUP1 REVERT JUMPDEST POP PUSH2 0x251 PUSH2 0x5A4 CALLDATASIZE PUSH1 0x4 PUSH2 0x24BE JUMP JUMPDEST PUSH2 0xD18 JUMP JUMPDEST CALLVALUE DUP1 ISZERO PUSH2 0x5B4 JUMPI PUSH0 DUP1 REVERT JUMPDEST POP PUSH2 0x5C8 PUSH2 0x5C3 CALLDATASIZE PUSH1 0x4 PUSH2 0x274F JUMP JUMPDEST PUSH2 0xD61 JUMP JUMPDEST PUSH1 0x40 DUP1 MLOAD DUP3 MLOAD PUSH6 0xFFFFFFFFFFFF AND DUP2 MSTORE PUSH1 0x20 SWAP3 DUP4 ADD MLOAD PUSH1 0x1 PUSH1 0x1 PUSH1 0xD0 SHL SUB AND SWAP3 DUP2 ADD SWAP3 SWAP1 SWAP3 MSTORE ADD PUSH2 0x1EA JUMP JUMPDEST CALLVALUE DUP1 ISZERO PUSH2 0x5FF JUMPI PUSH0 DUP1 REVERT JUMPDEST POP PUSH2 0x2EB PUSH2 0x60E CALLDATASIZE PUSH1 0x4 PUSH2 0x25BF JUMP JUMPDEST PUSH2 0xD7E JUMP JUMPDEST PUSH1 0x60 PUSH0 PUSH0 DUP1 MLOAD PUSH1 0x20 PUSH2 0x2AFC DUP4 CODECOPY DUP2 MLOAD SWAP2 MSTORE JUMPDEST SWAP1 POP DUP1 PUSH1 0x3 ADD DUP1 SLOAD PUSH2 0x636 SWAP1 PUSH2 0x278C JUMP JUMPDEST DUP1 PUSH1 0x1F ADD PUSH1 0x20 DUP1 SWAP2 DIV MUL PUSH1 0x20 ADD PUSH1 0x40 MLOAD SWAP1 DUP2 ADD PUSH1 0x40 MSTORE DUP1 SWAP3 SWAP2 SWAP1 DUP2 DUP2 MSTORE PUSH1 0x20 ADD DUP3 DUP1 SLOAD PUSH2 0x662 SWAP1 PUSH2 0x278C JUMP JUMPDEST DUP1 ISZERO PUSH2 0x6AD JUMPI DUP1 PUSH1 0x1F LT PUSH2 0x684 JUMPI PUSH2 0x100 DUP1 DUP4 SLOAD DIV MUL DUP4 MSTORE SWAP2 PUSH1 0x20 ADD SWAP2 PUSH2 0x6AD JUMP JUMPDEST DUP3 ADD SWAP2 SWAP1 PUSH0 MSTORE PUSH1 0x20 PUSH0 KECCAK256 SWAP1 JUMPDEST DUP2 SLOAD DUP2 MSTORE SWAP1 PUSH1 0x1 ADD SWAP1 PUSH1 0x20 ADD DUP1 DUP4 GT PUSH2 0x690 JUMPI DUP3 SWAP1 SUB PUSH1 0x1F AND DUP3 ADD SWAP2 JUMPDEST POP POP POP POP POP SWAP2 POP POP SWAP1 JUMP JUMPDEST PUSH0 CALLER PUSH2 0x6C5 DUP2 DUP6 DUP6 PUSH2 0xDBB JUMP JUMPDEST PUSH1 0x1 SWAP2 POP POP JUMPDEST SWAP3 SWAP2 POP POP JUMP JUMPDEST PUSH0 CALLER PUSH2 0x6DE DUP6 DUP3 DUP6 PUSH2 0xDCD JUMP JUMPDEST PUSH2 0x6E9 DUP6 DUP6 DUP6 PUSH2 0xE31 JUMP JUMPDEST PUSH1 0x1 SWAP2 POP POP JUMPDEST SWAP4 SWAP3 POP POP POP JUMP JUMPDEST PUSH0 PUSH2 0x6FF PUSH2 0xE8E JUMP JUMPDEST SWAP1 POP SWAP1 JUMP JUMPDEST PUSH0 PUSH0 DUP1 MLOAD PUSH1 0x20 PUSH2 0x2ADC DUP4 CODECOPY DUP2 MLOAD SWAP2 MSTORE PUSH2 0x73E PUSH2 0x71F DUP5 PUSH2 0xE97 JUMP JUMPDEST PUSH1 0x1 PUSH1 0x1 PUSH1 0xA0 SHL SUB DUP7 AND PUSH0 SWAP1 DUP2 MSTORE PUSH1 0x1 DUP5 ADD PUSH1 0x20 MSTORE PUSH1 0x40 SWAP1 KECCAK256 SWAP1 PUSH2 0xEDB JUMP JUMPDEST PUSH1 0x1 PUSH1 0x1 PUSH1 0xD0 SHL SUB AND SWAP5 SWAP4 POP POP POP POP JUMP JUMPDEST PUSH32 0xF0C57E16840DF040F15088DC2F81FE391C3923BEC73E23A9662EFC9C229C6A00 DUP1 SLOAD PUSH1 0x1 PUSH1 0x40 SHL DUP2 DIV PUSH1 0xFF AND ISZERO SWAP1 PUSH8 0xFFFFFFFFFFFFFFFF AND PUSH0 DUP2 ISZERO DUP1 ISZERO PUSH2 0x794 JUMPI POP DUP3 JUMPDEST SWAP1 POP PUSH0 DUP3 PUSH8 0xFFFFFFFFFFFFFFFF AND PUSH1 0x1 EQ DUP1 ISZERO PUSH2 0x7B0 JUMPI POP ADDRESS EXTCODESIZE ISZERO JUMPDEST SWAP1 POP DUP2 ISZERO DUP1 ISZERO PUSH2 0x7BE JUMPI POP DUP1 ISZERO JUMPDEST ISZERO PUSH2 0x7DC JUMPI PUSH1 0x40 MLOAD PUSH4 0xF92EE8A9 PUSH1 0xE0 SHL DUP2 MSTORE PUSH1 0x4 ADD PUSH1 0x40 MLOAD DUP1 SWAP2 SUB SWAP1 REVERT JUMPDEST DUP5 SLOAD PUSH8 0xFFFFFFFFFFFFFFFF NOT AND PUSH1 0x1 OR DUP6 SSTORE DUP4 ISZERO PUSH2 0x806 JUMPI DUP5 SLOAD PUSH1 0xFF PUSH1 0x40 SHL NOT AND PUSH1 0x1 PUSH1 0x40 SHL OR DUP6 SSTORE JUMPDEST PUSH2 0x851 PUSH1 0x40 MLOAD DUP1 PUSH1 0x40 ADD PUSH1 0x40 MSTORE DUP1 PUSH1 0xE DUP2 MSTORE PUSH1 0x20 ADD PUSH14 0x4E6578742050726F205669737461 PUSH1 0x90 SHL DUP2 MSTORE POP PUSH1 0x40 MLOAD DUP1 PUSH1 0x40 ADD PUSH1 0x40 MSTORE DUP1 PUSH1 0x3 DUP2 MSTORE PUSH1 0x20 ADD PUSH3 0x27282B PUSH1 0xE9 SHL DUP2 MSTORE POP PUSH2 0xF8B JUMP JUMPDEST PUSH2 0x880 PUSH1 0x40 MLOAD DUP1 PUSH1 0x40 ADD PUSH1 0x40 MSTORE DUP1 PUSH1 0xE DUP2 MSTORE PUSH1 0x20 ADD PUSH14 0x4E6578742050726F205669737461 PUSH1 0x90 SHL DUP2 MSTORE POP PUSH2 0xF9D JUMP JUMPDEST PUSH2 0x888 PUSH2 0xFC8 JUMP JUMPDEST PUSH2 0x891 DUP7 PUSH2 0xFD0 JUMP JUMPDEST PUSH2 0x899 PUSH2 0xFC8 JUMP JUMPDEST PUSH2 0x8BC DUP8 PUSH2 0x8A9 PUSH1 0x12 PUSH1 0xA PUSH2 0x28B8 JUMP JUMPDEST PUSH2 0x8B7 SWAP1 PUSH4 0x16BF96C9 PUSH2 0x28C6 JUMP JUMPDEST PUSH2 0xFE1 JUMP JUMPDEST DUP4 ISZERO PUSH2 0x902 JUMPI DUP5 SLOAD PUSH1 0xFF PUSH1 0x40 SHL NOT AND DUP6 SSTORE PUSH1 0x40 MLOAD PUSH1 0x1 DUP2 MSTORE PUSH32 0xC7F505B2F371AE2175EE4913F4499E1F2633A7B5936321EED1CDAEB6115181D2 SWAP1 PUSH1 0x20 ADD PUSH1 0x40 MLOAD DUP1 SWAP2 SUB SWAP1 LOG1 JUMPDEST POP POP POP POP POP POP POP JUMP JUMPDEST PUSH2 0x913 PUSH2 0x1015 JUMP JUMPDEST PUSH2 0x91C DUP3 PUSH2 0x10B9 JUMP JUMPDEST PUSH2 0x926 DUP3 DUP3 PUSH2 0x10C1 JUMP JUMPDEST POP POP JUMP JUMPDEST PUSH0 PUSH2 0x933 PUSH2 0x117D JUMP JUMPDEST POP PUSH0 DUP1 MLOAD PUSH1 0x20 PUSH2 0x2B3C DUP4 CODECOPY DUP2 MLOAD SWAP2 MSTORE SWAP1 JUMP JUMPDEST PUSH1 0x1 PUSH1 0x1 PUSH1 0xA0 SHL SUB SWAP1 DUP2 AND PUSH0 SWAP1 DUP2 MSTORE PUSH0 DUP1 MLOAD PUSH1 0x20 PUSH2 0x2ADC DUP4 CODECOPY DUP2 MLOAD SWAP2 MSTORE PUSH1 0x20 MSTORE PUSH1 0x40 SWAP1 KECCAK256 SLOAD AND SWAP1 JUMP JUMPDEST CALLER PUSH2 0x926 DUP2 DUP4 PUSH2 0x11C6 JUMP JUMPDEST PUSH0 PUSH2 0x6CB DUP3 PUSH2 0x124D JUMP JUMPDEST PUSH0 DUP1 PUSH0 DUP1 MLOAD PUSH1 0x20 PUSH2 0x2AFC DUP4 CODECOPY DUP2 MLOAD SWAP2 MSTORE JUMPDEST PUSH1 0x1 PUSH1 0x1 PUSH1 0xA0 SHL SUB SWAP1 SWAP4 AND PUSH0 SWAP1 DUP2 MSTORE PUSH1 0x20 SWAP4 SWAP1 SWAP4 MSTORE POP POP PUSH1 0x40 SWAP1 KECCAK256 SLOAD SWAP1 JUMP JUMPDEST PUSH2 0x9BB PUSH2 0x129C JUMP JUMPDEST PUSH2 0x9C4 PUSH0 PUSH2 0x12F7 JUMP JUMPDEST JUMP JUMPDEST PUSH0 PUSH2 0x6CB DUP3 PUSH2 0x1367 JUMP JUMPDEST PUSH0 PUSH1 0x60 DUP1 DUP3 DUP1 DUP1 DUP4 DUP2 PUSH0 DUP1 MLOAD PUSH1 0x20 PUSH2 0x2B1C DUP4 CODECOPY DUP2 MLOAD SWAP2 MSTORE DUP1 SLOAD SWAP1 SWAP2 POP ISZERO DUP1 ISZERO PUSH2 0x9FB JUMPI POP PUSH1 0x1 DUP2 ADD SLOAD ISZERO JUMPDEST PUSH2 0xA44 JUMPI PUSH1 0x40 MLOAD PUSH3 0x461BCD PUSH1 0xE5 SHL DUP2 MSTORE PUSH1 0x20 PUSH1 0x4 DUP3 ADD MSTORE PUSH1 0x15 PUSH1 0x24 DUP3 ADD MSTORE PUSH21 0x1152540DCC4C8E88155B9A5B9A5D1A585B1A5E9959 PUSH1 0x5A SHL PUSH1 0x44 DUP3 ADD MSTORE PUSH1 0x64 ADD JUMPDEST PUSH1 0x40 MLOAD DUP1 SWAP2 SUB SWAP1 REVERT JUMPDEST PUSH2 0xA4C PUSH2 0x1371 JUMP JUMPDEST PUSH2 0xA54 PUSH2 0x13AF JUMP JUMPDEST PUSH1 0x40 DUP1 MLOAD PUSH0 DUP1 DUP3 MSTORE PUSH1 0x20 DUP3 ADD SWAP1 SWAP3 MSTORE PUSH1 0xF PUSH1 0xF8 SHL SWAP13 SWAP4 SWAP12 POP SWAP2 SWAP10 POP CHAINID SWAP9 POP ADDRESS SWAP8 POP SWAP6 POP SWAP4 POP SWAP2 POP POP JUMP JUMPDEST PUSH0 PUSH0 DUP1 MLOAD PUSH1 0x20 PUSH2 0x2ADC DUP4 CODECOPY DUP2 MLOAD SWAP2 MSTORE PUSH2 0xAA3 PUSH2 0xA99 DUP5 PUSH2 0xE97 JUMP JUMPDEST PUSH1 0x2 DUP4 ADD SWAP1 PUSH2 0xEDB JUMP JUMPDEST PUSH1 0x1 PUSH1 0x1 PUSH1 0xD0 SHL SUB AND SWAP4 SWAP3 POP POP POP JUMP JUMPDEST PUSH32 0x52C63247E1F47DB19D5CE0460030C497F067CA4CEBF71BA98EEADABE20BACE04 DUP1 SLOAD PUSH1 0x60 SWAP2 PUSH0 DUP1 MLOAD PUSH1 0x20 PUSH2 0x2AFC DUP4 CODECOPY DUP2 MLOAD SWAP2 MSTORE SWAP2 PUSH2 0x636 SWAP1 PUSH2 0x278C JUMP JUMPDEST PUSH1 0x1 PUSH1 0x1 PUSH1 0xA0 SHL SUB DUP2 AND PUSH0 SWAP1 DUP2 MSTORE PUSH32 0xE8B26C30FAD74198956032A3533D903385D56DD795AF560196F9C78D4AF40D01 PUSH1 0x20 MSTORE PUSH1 0x40 DUP2 KECCAK256 PUSH0 DUP1 MLOAD PUSH1 0x20 PUSH2 0x2ADC DUP4 CODECOPY DUP2 MLOAD SWAP2 MSTORE SWAP1 PUSH2 0xAA3 SWAP1 PUSH2 0x13C5 JUMP JUMPDEST PUSH0 CALLER PUSH2 0x6C5 DUP2 DUP6 DUP6 PUSH2 0xE31 JUMP JUMPDEST DUP4 TIMESTAMP GT ISZERO PUSH2 0xB70 JUMPI PUSH1 0x40 MLOAD PUSH4 0x2341D787 PUSH1 0xE1 SHL DUP2 MSTORE PUSH1 0x4 DUP2 ADD DUP6 SWAP1 MSTORE PUSH1 0x24 ADD PUSH2 0xA3B JUMP JUMPDEST PUSH1 0x40 DUP1 MLOAD PUSH32 0xE48329057BFD03D55E49B547132E39CFFD9C1820AD7B9D4C5307691425D15ADF PUSH1 0x20 DUP3 ADD MSTORE PUSH1 0x1 PUSH1 0x1 PUSH1 0xA0 SHL SUB DUP9 AND SWAP2 DUP2 ADD SWAP2 SWAP1 SWAP2 MSTORE PUSH1 0x60 DUP2 ADD DUP7 SWAP1 MSTORE PUSH1 0x80 DUP2 ADD DUP6 SWAP1 MSTORE PUSH0 SWAP1 PUSH2 0xBE9 SWAP1 PUSH2 0xBE1 SWAP1 PUSH1 0xA0 ADD PUSH1 0x40 MLOAD PUSH1 0x20 DUP2 DUP4 SUB SUB DUP2 MSTORE SWAP1 PUSH1 0x40 MSTORE DUP1 MLOAD SWAP1 PUSH1 0x20 ADD KECCAK256 PUSH2 0x13FC JUMP JUMPDEST DUP6 DUP6 DUP6 PUSH2 0x1428 JUMP JUMPDEST SWAP1 POP PUSH2 0xBF5 DUP2 DUP8 PUSH2 0x1454 JUMP JUMPDEST PUSH2 0x902 DUP2 DUP9 PUSH2 0x11C6 JUMP JUMPDEST DUP4 TIMESTAMP GT ISZERO PUSH2 0xC23 JUMPI PUSH1 0x40 MLOAD PUSH4 0x313C8981 PUSH1 0xE1 SHL DUP2 MSTORE PUSH1 0x4 DUP2 ADD DUP6 SWAP1 MSTORE PUSH1 0x24 ADD PUSH2 0xA3B JUMP JUMPDEST PUSH0 PUSH32 0x6E71EDAE12B1B97F4D1F60370FEF10105FA2FAAE0126114A169C64845D6126C9 DUP9 DUP9 DUP9 PUSH2 0xC51 DUP13 PUSH2 0x1492 JUMP JUMPDEST PUSH1 0x40 DUP1 MLOAD PUSH1 0x20 DUP2 ADD SWAP7 SWAP1 SWAP7 MSTORE PUSH1 0x1 PUSH1 0x1 PUSH1 0xA0 SHL SUB SWAP5 DUP6 AND SWAP1 DUP7 ADD MSTORE SWAP3 SWAP1 SWAP2 AND PUSH1 0x60 DUP5 ADD MSTORE PUSH1 0x80 DUP4 ADD MSTORE PUSH1 0xA0 DUP3 ADD MSTORE PUSH1 0xC0 DUP2 ADD DUP7 SWAP1 MSTORE PUSH1 0xE0 ADD PUSH1 0x40 MLOAD PUSH1 0x20 DUP2 DUP4 SUB SUB DUP2 MSTORE SWAP1 PUSH1 0x40 MSTORE DUP1 MLOAD SWAP1 PUSH1 0x20 ADD KECCAK256 SWAP1 POP PUSH0 PUSH2 0xCAB DUP3 PUSH2 0x13FC JUMP JUMPDEST SWAP1 POP PUSH0 PUSH2 0xCBA DUP3 DUP8 DUP8 DUP8 PUSH2 0x1428 JUMP JUMPDEST SWAP1 POP DUP10 PUSH1 0x1 PUSH1 0x1 PUSH1 0xA0 SHL SUB AND DUP2 PUSH1 0x1 PUSH1 0x1 PUSH1 0xA0 SHL SUB AND EQ PUSH2 0xD01 JUMPI PUSH1 0x40 MLOAD PUSH4 0x25C00723 PUSH1 0xE1 SHL DUP2 MSTORE PUSH1 0x1 PUSH1 0x1 PUSH1 0xA0 SHL SUB DUP1 DUP4 AND PUSH1 0x4 DUP4 ADD MSTORE DUP12 AND PUSH1 0x24 DUP3 ADD MSTORE PUSH1 0x44 ADD PUSH2 0xA3B JUMP JUMPDEST PUSH2 0xD0C DUP11 DUP11 DUP11 PUSH2 0xDBB JUMP JUMPDEST POP POP POP POP POP POP POP POP POP POP JUMP JUMPDEST PUSH1 0x1 PUSH1 0x1 PUSH1 0xA0 SHL SUB SWAP2 DUP3 AND PUSH0 SWAP1 DUP2 MSTORE PUSH32 0x52C63247E1F47DB19D5CE0460030C497F067CA4CEBF71BA98EEADABE20BACE01 PUSH1 0x20 SWAP1 DUP2 MSTORE PUSH1 0x40 DUP1 DUP4 KECCAK256 SWAP4 SWAP1 SWAP5 AND DUP3 MSTORE SWAP2 SWAP1 SWAP2 MSTORE KECCAK256 SLOAD SWAP1 JUMP JUMPDEST PUSH1 0x40 DUP1 MLOAD DUP1 DUP3 ADD SWAP1 SWAP2 MSTORE PUSH0 DUP1 DUP3 MSTORE PUSH1 0x20 DUP3 ADD MSTORE PUSH2 0x6EF DUP4 DUP4 PUSH2 0x14D3 JUMP JUMPDEST PUSH2 0xD86 PUSH2 0x129C JUMP JUMPDEST PUSH1 0x1 PUSH1 0x1 PUSH1 0xA0 SHL SUB DUP2 AND PUSH2 0xDAF JUMPI PUSH1 0x40 MLOAD PUSH4 0x1E4FBDF7 PUSH1 0xE0 SHL DUP2 MSTORE PUSH0 PUSH1 0x4 DUP3 ADD MSTORE PUSH1 0x24 ADD PUSH2 0xA3B JUMP JUMPDEST PUSH2 0xDB8 DUP2 PUSH2 0x12F7 JUMP JUMPDEST POP JUMP JUMPDEST PUSH2 0xDC8 DUP4 DUP4 DUP4 PUSH1 0x1 PUSH2 0x153C JUMP JUMPDEST POP POP POP JUMP JUMPDEST PUSH0 PUSH2 0xDD8 DUP5 DUP5 PUSH2 0xD18 JUMP JUMPDEST SWAP1 POP PUSH0 NOT DUP2 LT ISZERO PUSH2 0xE2B JUMPI DUP2 DUP2 LT ISZERO PUSH2 0xE1D JUMPI PUSH1 0x40 MLOAD PUSH4 0x7DC7A0D9 PUSH1 0xE1 SHL DUP2 MSTORE PUSH1 0x1 PUSH1 0x1 PUSH1 0xA0 SHL SUB DUP5 AND PUSH1 0x4 DUP3 ADD MSTORE PUSH1 0x24 DUP2 ADD DUP3 SWAP1 MSTORE PUSH1 0x44 DUP2 ADD DUP4 SWAP1 MSTORE PUSH1 0x64 ADD PUSH2 0xA3B JUMP JUMPDEST PUSH2 0xE2B DUP5 DUP5 DUP5 DUP5 SUB PUSH0 PUSH2 0x153C JUMP JUMPDEST POP POP POP POP JUMP JUMPDEST PUSH1 0x1 PUSH1 0x1 PUSH1 0xA0 SHL SUB DUP4 AND PUSH2 0xE5A JUMPI PUSH1 0x40 MLOAD PUSH4 0x4B637E8F PUSH1 0xE1 SHL DUP2 MSTORE PUSH0 PUSH1 0x4 DUP3 ADD MSTORE PUSH1 0x24 ADD PUSH2 0xA3B JUMP JUMPDEST PUSH1 0x1 PUSH1 0x1 PUSH1 0xA0 SHL SUB DUP3 AND PUSH2 0xE83 JUMPI PUSH1 0x40 MLOAD PUSH4 0xEC442F05 PUSH1 0xE0 SHL DUP2 MSTORE PUSH0 PUSH1 0x4 DUP3 ADD MSTORE PUSH1 0x24 ADD PUSH2 0xA3B JUMP JUMPDEST PUSH2 0xDC8 DUP4 DUP4 DUP4 PUSH2 0x1620 JUMP JUMPDEST PUSH0 PUSH2 0x6FF PUSH2 0x162B JUMP JUMPDEST PUSH0 TIMESTAMP PUSH6 0xFFFFFFFFFFFF DUP2 AND DUP4 LT PUSH2 0xED2 JUMPI PUSH1 0x40 MLOAD PUSH4 0x7669FC0F PUSH1 0xE1 SHL DUP2 MSTORE PUSH1 0x4 DUP2 ADD DUP5 SWAP1 MSTORE PUSH6 0xFFFFFFFFFFFF DUP3 AND PUSH1 0x24 DUP3 ADD MSTORE PUSH1 0x44 ADD PUSH2 0xA3B JUMP JUMPDEST PUSH2 0x6EF DUP4 PUSH2 0x169E JUMP JUMPDEST DUP2 SLOAD PUSH0 SWAP1 DUP2 DUP2 PUSH1 0x5 DUP2 GT ISZERO PUSH2 0xF37 JUMPI PUSH0 PUSH2 0xEF4 DUP5 PUSH2 0x16D4 JUMP JUMPDEST PUSH2 0xEFE SWAP1 DUP6 PUSH2 0x28DD JUMP JUMPDEST PUSH0 DUP9 DUP2 MSTORE PUSH1 0x20 SWAP1 KECCAK256 SWAP1 SWAP2 POP DUP2 ADD SLOAD PUSH6 0xFFFFFFFFFFFF SWAP1 DUP2 AND SWAP1 DUP8 AND LT ISZERO PUSH2 0xF27 JUMPI DUP1 SWAP2 POP PUSH2 0xF35 JUMP JUMPDEST PUSH2 0xF32 DUP2 PUSH1 0x1 PUSH2 0x28F0 JUMP JUMPDEST SWAP3 POP JUMPDEST POP JUMPDEST PUSH0 PUSH2 0xF44 DUP8 DUP8 DUP6 DUP6 PUSH2 0x1827 JUMP JUMPDEST SWAP1 POP DUP1 ISZERO PUSH2 0xF7E JUMPI PUSH2 0xF68 DUP8 PUSH2 0xF5B PUSH1 0x1 DUP5 PUSH2 0x28DD JUMP JUMPDEST PUSH0 SWAP2 DUP3 MSTORE PUSH1 0x20 SWAP1 SWAP2 KECCAK256 ADD SWAP1 JUMP JUMPDEST SLOAD PUSH1 0x1 PUSH1 0x30 SHL SWAP1 DIV PUSH1 0x1 PUSH1 0x1 PUSH1 0xD0 SHL SUB AND PUSH2 0xF80 JUMP JUMPDEST PUSH0 JUMPDEST SWAP8 SWAP7 POP POP POP POP POP POP POP JUMP JUMPDEST PUSH2 0xF93 PUSH2 0x1886 JUMP JUMPDEST PUSH2 0x926 DUP3 DUP3 PUSH2 0x18CF JUMP JUMPDEST PUSH2 0xFA5 PUSH2 0x1886 JUMP JUMPDEST PUSH2 0xDB8 DUP2 PUSH1 0x40 MLOAD DUP1 PUSH1 0x40 ADD PUSH1 0x40 MSTORE DUP1 PUSH1 0x1 DUP2 MSTORE PUSH1 0x20 ADD PUSH1 0x31 PUSH1 0xF8 SHL DUP2 MSTORE POP PUSH2 0x191F JUMP JUMPDEST PUSH2 0x9C4 PUSH2 0x1886 JUMP JUMPDEST PUSH2 0xFD8 PUSH2 0x1886 JUMP JUMPDEST PUSH2 0xDB8 DUP2 PUSH2 0x197E JUMP JUMPDEST PUSH1 0x1 PUSH1 0x1 PUSH1 0xA0 SHL SUB DUP3 AND PUSH2 0x100A JUMPI PUSH1 0x40 MLOAD PUSH4 0xEC442F05 PUSH1 0xE0 SHL DUP2 MSTORE PUSH0 PUSH1 0x4 DUP3 ADD MSTORE PUSH1 0x24 ADD PUSH2 0xA3B JUMP JUMPDEST PUSH2 0x926 PUSH0 DUP4 DUP4 PUSH2 0x1620 JUMP JUMPDEST ADDRESS PUSH1 0x1 PUSH1 0x1 PUSH1 0xA0 SHL SUB PUSH32 0x0 AND EQ DUP1 PUSH2 0x109B JUMPI POP PUSH32 0x0 PUSH1 0x1 PUSH1 0x1 PUSH1 0xA0 SHL SUB AND PUSH2 0x108F PUSH0 DUP1 MLOAD PUSH1 0x20 PUSH2 0x2B3C DUP4 CODECOPY DUP2 MLOAD SWAP2 MSTORE SLOAD PUSH1 0x1 PUSH1 0x1 PUSH1 0xA0 SHL SUB AND SWAP1 JUMP JUMPDEST PUSH1 0x1 PUSH1 0x1 PUSH1 0xA0 SHL SUB AND EQ ISZERO JUMPDEST ISZERO PUSH2 0x9C4 JUMPI PUSH1 0x40 MLOAD PUSH4 0x703E46DD PUSH1 0xE1 SHL DUP2 MSTORE PUSH1 0x4 ADD PUSH1 0x40 MLOAD DUP1 SWAP2 SUB SWAP1 REVERT JUMPDEST PUSH2 0xDB8 PUSH2 0x129C JUMP JUMPDEST DUP2 PUSH1 0x1 PUSH1 0x1 PUSH1 0xA0 SHL SUB AND PUSH4 0x52D1902D PUSH1 0x40 MLOAD DUP2 PUSH4 0xFFFFFFFF AND PUSH1 0xE0 SHL DUP2 MSTORE PUSH1 0x4 ADD PUSH1 0x20 PUSH1 0x40 MLOAD DUP1 DUP4 SUB DUP2 DUP7 GAS STATICCALL SWAP3 POP POP POP DUP1 ISZERO PUSH2 0x111B JUMPI POP PUSH1 0x40 DUP1 MLOAD PUSH1 0x1F RETURNDATASIZE SWAP1 DUP2 ADD PUSH1 0x1F NOT AND DUP3 ADD SWAP1 SWAP3 MSTORE PUSH2 0x1118 SWAP2 DUP2 ADD SWAP1 PUSH2 0x2903 JUMP JUMPDEST PUSH1 0x1 JUMPDEST PUSH2 0x1143 JUMPI PUSH1 0x40 MLOAD PUSH4 0x4C9C8CE3 PUSH1 0xE0 SHL DUP2 MSTORE PUSH1 0x1 PUSH1 0x1 PUSH1 0xA0 SHL SUB DUP4 AND PUSH1 0x4 DUP3 ADD MSTORE PUSH1 0x24 ADD PUSH2 0xA3B JUMP JUMPDEST PUSH0 DUP1 MLOAD PUSH1 0x20 PUSH2 0x2B3C DUP4 CODECOPY DUP2 MLOAD SWAP2 MSTORE DUP2 EQ PUSH2 0x1173 JUMPI PUSH1 0x40 MLOAD PUSH4 0x2A875269 PUSH1 0xE2 SHL DUP2 MSTORE PUSH1 0x4 DUP2 ADD DUP3 SWAP1 MSTORE PUSH1 0x24 ADD PUSH2 0xA3B JUMP JUMPDEST PUSH2 0xDC8 DUP4 DUP4 PUSH2 0x1986 JUMP JUMPDEST ADDRESS PUSH1 0x1 PUSH1 0x1 PUSH1 0xA0 SHL SUB PUSH32 0x0 AND EQ PUSH2 0x9C4 JUMPI PUSH1 0x40 MLOAD PUSH4 0x703E46DD PUSH1 0xE1 SHL DUP2 MSTORE PUSH1 0x4 ADD PUSH1 0x40 MLOAD DUP1 SWAP2 SUB SWAP1 REVERT JUMPDEST PUSH0 DUP1 MLOAD PUSH1 0x20 PUSH2 0x2ADC DUP4 CODECOPY DUP2 MLOAD SWAP2 MSTORE PUSH0 PUSH2 0x11DE DUP5 PUSH2 0x945 JUMP JUMPDEST PUSH1 0x1 PUSH1 0x1 PUSH1 0xA0 SHL SUB DUP6 DUP2 AND PUSH0 DUP2 DUP2 MSTORE PUSH1 0x20 DUP7 SWAP1 MSTORE PUSH1 0x40 DUP1 DUP3 KECCAK256 DUP1 SLOAD PUSH1 0x1 PUSH1 0x1 PUSH1 0xA0 SHL SUB NOT AND DUP10 DUP7 AND SWAP1 DUP2 OR SWAP1 SWAP2 SSTORE SWAP1 MLOAD SWAP5 SWAP6 POP SWAP4 SWAP3 DUP6 AND SWAP3 PUSH32 0x3134E8A2E6D97E929A7E54011EA5485D7D196DD5F0BA4D4EF95803E8E3FC257F SWAP2 SWAP1 LOG4 PUSH2 0xE2B DUP2 DUP5 PUSH2 0x1248 DUP8 PUSH2 0x19DB JUMP JUMPDEST PUSH2 0x19E5 JUMP JUMPDEST PUSH1 0x1 PUSH1 0x1 PUSH1 0xA0 SHL SUB DUP2 AND PUSH0 SWAP1 DUP2 MSTORE PUSH32 0xE8B26C30FAD74198956032A3533D903385D56DD795AF560196F9C78D4AF40D01 PUSH1 0x20 MSTORE PUSH1 0x40 DUP2 KECCAK256 SLOAD PUSH0 DUP1 MLOAD PUSH1 0x20 PUSH2 0x2ADC DUP4 CODECOPY DUP2 MLOAD SWAP2 MSTORE SWAP1 PUSH2 0x6EF SWAP1 PUSH2 0x1B5B JUMP JUMPDEST CALLER PUSH2 0x12CE PUSH32 0x9016D09D72D40FDAE2FD8CEAC6B6234C7706214FD39C1CD1E609A0528C199300 SLOAD PUSH1 0x1 PUSH1 0x1 PUSH1 0xA0 SHL SUB AND SWAP1 JUMP JUMPDEST PUSH1 0x1 PUSH1 0x1 PUSH1 0xA0 SHL SUB AND EQ PUSH2 0x9C4 JUMPI PUSH1 0x40 MLOAD PUSH4 0x118CDAA7 PUSH1 0xE0 SHL DUP2 MSTORE CALLER PUSH1 0x4 DUP3 ADD MSTORE PUSH1 0x24 ADD PUSH2 0xA3B JUMP JUMPDEST PUSH32 0x9016D09D72D40FDAE2FD8CEAC6B6234C7706214FD39C1CD1E609A0528C199300 DUP1 SLOAD PUSH1 0x1 PUSH1 0x1 PUSH1 0xA0 SHL SUB NOT DUP2 AND PUSH1 0x1 PUSH1 0x1 PUSH1 0xA0 SHL SUB DUP5 DUP2 AND SWAP2 DUP3 OR DUP5 SSTORE PUSH1 0x40 MLOAD SWAP3 AND SWAP2 DUP3 SWAP1 PUSH32 0x8BE0079C531659141344CD1FD0A4F28419497F9722A3DAAFE3B4186F6B6457E0 SWAP1 PUSH0 SWAP1 LOG3 POP POP POP JUMP JUMPDEST PUSH0 PUSH2 0x6CB DUP3 PUSH2 0x1B8B JUMP JUMPDEST PUSH32 0xA16A46D94261C7517CC8FF89F61C0CE93598E3C849801011DEE649A6A557D102 DUP1 SLOAD PUSH1 0x60 SWAP2 PUSH0 DUP1 MLOAD PUSH1 0x20 PUSH2 0x2B1C DUP4 CODECOPY DUP2 MLOAD SWAP2 MSTORE SWAP2 PUSH2 0x636 SWAP1 PUSH2 0x278C JUMP JUMPDEST PUSH1 0x60 PUSH0 PUSH0 DUP1 MLOAD PUSH1 0x20 PUSH2 0x2B1C DUP4 CODECOPY DUP2 MLOAD SWAP2 MSTORE PUSH2 0x625 JUMP JUMPDEST DUP1 SLOAD PUSH0 SWAP1 DUP1 ISZERO PUSH2 0x13F4 JUMPI PUSH2 0x13DE DUP4 PUSH2 0xF5B PUSH1 0x1 DUP5 PUSH2 0x28DD JUMP JUMPDEST SLOAD PUSH1 0x1 PUSH1 0x30 SHL SWAP1 DIV PUSH1 0x1 PUSH1 0x1 PUSH1 0xD0 SHL SUB AND PUSH2 0x6EF JUMP JUMPDEST PUSH0 SWAP4 SWAP3 POP POP POP JUMP JUMPDEST PUSH0 PUSH2 0x6CB PUSH2 0x1408 PUSH2 0xE8E JUMP JUMPDEST DUP4 PUSH1 0x40 MLOAD PUSH2 0x1901 PUSH1 0xF0 SHL DUP2 MSTORE PUSH1 0x2 DUP2 ADD SWAP3 SWAP1 SWAP3 MSTORE PUSH1 0x22 DUP3 ADD MSTORE PUSH1 0x42 SWAP1 KECCAK256 SWAP1 JUMP JUMPDEST PUSH0 DUP1 PUSH0 DUP1 PUSH2 0x1438 DUP9 DUP9 DUP9 DUP9 PUSH2 0x1BB3 JUMP JUMPDEST SWAP3 POP SWAP3 POP SWAP3 POP PUSH2 0x1448 DUP3 DUP3 PUSH2 0x1C7B JUMP JUMPDEST POP SWAP1 SWAP7 SWAP6 POP POP POP POP POP POP JUMP JUMPDEST PUSH0 PUSH2 0x145E DUP4 PUSH2 0x1492 JUMP JUMPDEST SWAP1 POP DUP1 DUP3 EQ PUSH2 0xDC8 JUMPI PUSH1 0x40 MLOAD PUSH4 0x1D4B623 PUSH1 0xE6 SHL DUP2 MSTORE PUSH1 0x1 PUSH1 0x1 PUSH1 0xA0 SHL SUB DUP5 AND PUSH1 0x4 DUP3 ADD MSTORE PUSH1 0x24 DUP2 ADD DUP3 SWAP1 MSTORE PUSH1 0x44 ADD PUSH2 0xA3B JUMP JUMPDEST PUSH1 0x1 PUSH1 0x1 PUSH1 0xA0 SHL SUB AND PUSH0 SWAP1 DUP2 MSTORE PUSH32 0x5AB42CED628888259C08AC98DB1EB0CF702FC1501344311D8B100CD1BFE4BB00 PUSH1 0x20 MSTORE PUSH1 0x40 SWAP1 KECCAK256 DUP1 SLOAD PUSH1 0x1 DUP2 ADD SWAP1 SWAP2 SSTORE SWAP1 JUMP JUMPDEST PUSH1 0x40 DUP1 MLOAD DUP1 DUP3 ADD DUP3 MSTORE PUSH0 DUP1 DUP3 MSTORE PUSH1 0x20 DUP1 DUP4 ADD DUP3 SWAP1 MSTORE PUSH1 0x1 PUSH1 0x1 PUSH1 0xA0 SHL SUB DUP7 AND DUP3 MSTORE PUSH32 0xE8B26C30FAD74198956032A3533D903385D56DD795AF560196F9C78D4AF40D01 SWAP1 MSTORE SWAP2 SWAP1 SWAP2 KECCAK256 PUSH0 DUP1 MLOAD PUSH1 0x20 PUSH2 0x2ADC DUP4 CODECOPY DUP2 MLOAD SWAP2 MSTORE SWAP1 PUSH2 0x1534 SWAP1 DUP5 PUSH2 0x1D33 JUMP JUMPDEST SWAP5 SWAP4 POP POP POP POP JUMP JUMPDEST PUSH0 DUP1 MLOAD PUSH1 0x20 PUSH2 0x2AFC DUP4 CODECOPY DUP2 MLOAD SWAP2 MSTORE PUSH1 0x1 PUSH1 0x1 PUSH1 0xA0 SHL SUB DUP6 AND PUSH2 0x1573 JUMPI PUSH1 0x40 MLOAD PUSH4 0xE602DF05 PUSH1 0xE0 SHL DUP2 MSTORE PUSH0 PUSH1 0x4 DUP3 ADD MSTORE PUSH1 0x24 ADD PUSH2 0xA3B JUMP JUMPDEST PUSH1 0x1 PUSH1 0x1 PUSH1 0xA0 SHL SUB DUP5 AND PUSH2 0x159C JUMPI PUSH1 0x40 MLOAD PUSH4 0x4A1406B1 PUSH1 0xE1 SHL DUP2 MSTORE PUSH0 PUSH1 0x4 DUP3 ADD MSTORE PUSH1 0x24 ADD PUSH2 0xA3B JUMP JUMPDEST PUSH1 0x1 PUSH1 0x1 PUSH1 0xA0 SHL SUB DUP1 DUP7 AND PUSH0 SWAP1 DUP2 MSTORE PUSH1 0x1 DUP4 ADD PUSH1 0x20 SWAP1 DUP2 MSTORE PUSH1 0x40 DUP1 DUP4 KECCAK256 SWAP4 DUP9 AND DUP4 MSTORE SWAP3 SWAP1 MSTORE KECCAK256 DUP4 SWAP1 SSTORE DUP2 ISZERO PUSH2 0x1619 JUMPI DUP4 PUSH1 0x1 PUSH1 0x1 PUSH1 0xA0 SHL SUB AND DUP6 PUSH1 0x1 PUSH1 0x1 PUSH1 0xA0 SHL SUB AND PUSH32 0x8C5BE1E5EBEC7D5BD14F71427D1E84F3DD0314C0F7B2291E5B200AC8C7C3B925 DUP6 PUSH1 0x40 MLOAD PUSH2 0x1610 SWAP2 DUP2 MSTORE PUSH1 0x20 ADD SWAP1 JUMP JUMPDEST PUSH1 0x40 MLOAD DUP1 SWAP2 SUB SWAP1 LOG3 JUMPDEST POP POP POP POP POP JUMP JUMPDEST PUSH2 0xDC8 DUP4 DUP4 DUP4 PUSH2 0x1DA0 JUMP JUMPDEST PUSH0 PUSH32 0x8B73C3C69BB8FE3D512ECC4CF759CC79239F7B179B0FFACAA9A75D522B39400F PUSH2 0x1655 PUSH2 0x1E25 JUMP JUMPDEST PUSH2 0x165D PUSH2 0x1E8D JUMP JUMPDEST PUSH1 0x40 DUP1 MLOAD PUSH1 0x20 DUP2 ADD SWAP5 SWAP1 SWAP5 MSTORE DUP4 ADD SWAP2 SWAP1 SWAP2 MSTORE PUSH1 0x60 DUP3 ADD MSTORE CHAINID PUSH1 0x80 DUP3 ADD MSTORE ADDRESS PUSH1 0xA0 DUP3 ADD MSTORE PUSH1 0xC0 ADD PUSH1 0x40 MLOAD PUSH1 0x20 DUP2 DUP4 SUB SUB DUP2 MSTORE SWAP1 PUSH1 0x40 MSTORE DUP1 MLOAD SWAP1 PUSH1 0x20 ADD KECCAK256 SWAP1 POP SWAP1 JUMP JUMPDEST PUSH0 PUSH6 0xFFFFFFFFFFFF DUP3 GT ISZERO PUSH2 0x16D0 JUMPI PUSH1 0x40 MLOAD PUSH4 0x6DFCC65 PUSH1 0xE4 SHL DUP2 MSTORE PUSH1 0x30 PUSH1 0x4 DUP3 ADD MSTORE PUSH1 0x24 DUP2 ADD DUP4 SWAP1 MSTORE PUSH1 0x44 ADD PUSH2 0xA3B JUMP JUMPDEST POP SWAP1 JUMP JUMPDEST PUSH0 PUSH1 0x1 DUP3 GT PUSH2 0x16E1 JUMPI POP SWAP1 JUMP JUMPDEST DUP2 PUSH1 0x1 PUSH1 0x1 PUSH1 0x80 SHL DUP3 LT PUSH2 0x16FA JUMPI PUSH1 0x80 SWAP2 SWAP1 SWAP2 SHR SWAP1 PUSH1 0x40 SHL JUMPDEST PUSH1 0x1 PUSH1 0x40 SHL DUP3 LT PUSH2 0x1710 JUMPI PUSH1 0x40 SWAP2 SWAP1 SWAP2 SHR SWAP1 PUSH1 0x20 SHL JUMPDEST PUSH5 0x100000000 DUP3 LT PUSH2 0x1727 JUMPI PUSH1 0x20 SWAP2 SWAP1 SWAP2 SHR SWAP1 PUSH1 0x10 SHL JUMPDEST PUSH3 0x10000 DUP3 LT PUSH2 0x173C JUMPI PUSH1 0x10 SWAP2 SWAP1 SWAP2 SHR SWAP1 PUSH1 0x8 SHL JUMPDEST PUSH2 0x100 DUP3 LT PUSH2 0x1750 JUMPI PUSH1 0x8 SWAP2 SWAP1 SWAP2 SHR SWAP1 PUSH1 0x4 SHL JUMPDEST PUSH1 0x10 DUP3 LT PUSH2 0x1763 JUMPI PUSH1 0x4 SWAP2 SWAP1 SWAP2 SHR SWAP1 PUSH1 0x2 SHL JUMPDEST PUSH1 0x4 DUP3 LT PUSH2 0x176F JUMPI PUSH1 0x1 SHL JUMPDEST PUSH1 0x3 MUL PUSH1 0x1 SWAP1 DUP2 SHR SWAP1 DUP2 DUP6 DUP2 PUSH2 0x1787 JUMPI PUSH2 0x1787 PUSH2 0x291A JUMP JUMPDEST DIV DUP3 ADD SWAP1 SHR SWAP1 POP PUSH1 0x1 DUP2 DUP6 DUP2 PUSH2 0x179F JUMPI PUSH2 0x179F PUSH2 0x291A JUMP JUMPDEST DIV DUP3 ADD SWAP1 SHR SWAP1 POP PUSH1 0x1 DUP2 DUP6 DUP2 PUSH2 0x17B7 JUMPI PUSH2 0x17B7 PUSH2 0x291A JUMP JUMPDEST DIV DUP3 ADD SWAP1 SHR SWAP1 POP PUSH1 0x1 DUP2 DUP6 DUP2 PUSH2 0x17CF JUMPI PUSH2 0x17CF PUSH2 0x291A JUMP JUMPDEST DIV DUP3 ADD SWAP1 SHR SWAP1 POP PUSH1 0x1 DUP2 DUP6 DUP2 PUSH2 0x17E7 JUMPI PUSH2 0x17E7 PUSH2 0x291A JUMP JUMPDEST DIV DUP3 ADD SWAP1 SHR SWAP1 POP PUSH1 0x1 DUP2 DUP6 DUP2 PUSH2 0x17FF JUMPI PUSH2 0x17FF PUSH2 0x291A JUMP JUMPDEST DIV DUP3 ADD SWAP1 SHR SWAP1 POP PUSH2 0x181E DUP2 DUP6 DUP2 PUSH2 0x1818 JUMPI PUSH2 0x1818 PUSH2 0x291A JUMP JUMPDEST DIV DUP3 GT SWAP1 JUMP JUMPDEST SWAP1 SUB SWAP4 SWAP3 POP POP POP JUMP JUMPDEST PUSH0 JUMPDEST DUP2 DUP4 LT ISZERO PUSH2 0x187E JUMPI PUSH0 PUSH2 0x183C DUP5 DUP5 PUSH2 0x1ECF JUMP JUMPDEST PUSH0 DUP8 DUP2 MSTORE PUSH1 0x20 SWAP1 KECCAK256 SWAP1 SWAP2 POP PUSH6 0xFFFFFFFFFFFF DUP7 AND SWAP1 DUP3 ADD SLOAD PUSH6 0xFFFFFFFFFFFF AND GT ISZERO PUSH2 0x186A JUMPI DUP1 SWAP3 POP PUSH2 0x1878 JUMP JUMPDEST PUSH2 0x1875 DUP2 PUSH1 0x1 PUSH2 0x28F0 JUMP JUMPDEST SWAP4 POP JUMPDEST POP PUSH2 0x1829 JUMP JUMPDEST POP SWAP4 SWAP3 POP POP POP JUMP JUMPDEST PUSH32 0xF0C57E16840DF040F15088DC2F81FE391C3923BEC73E23A9662EFC9C229C6A00 SLOAD PUSH1 0x1 PUSH1 0x40 SHL SWAP1 DIV PUSH1 0xFF AND PUSH2 0x9C4 JUMPI PUSH1 0x40 MLOAD PUSH4 0x1AFCD79F PUSH1 0xE3 SHL DUP2 MSTORE PUSH1 0x4 ADD PUSH1 0x40 MLOAD DUP1 SWAP2 SUB SWAP1 REVERT JUMPDEST PUSH2 0x18D7 PUSH2 0x1886 JUMP JUMPDEST PUSH0 DUP1 MLOAD PUSH1 0x20 PUSH2 0x2AFC DUP4 CODECOPY DUP2 MLOAD SWAP2 MSTORE PUSH32 0x52C63247E1F47DB19D5CE0460030C497F067CA4CEBF71BA98EEADABE20BACE03 PUSH2 0x1910 DUP5 DUP3 PUSH2 0x2972 JUMP JUMPDEST POP PUSH1 0x4 DUP2 ADD PUSH2 0xE2B DUP4 DUP3 PUSH2 0x2972 JUMP JUMPDEST PUSH2 0x1927 PUSH2 0x1886 JUMP JUMPDEST PUSH0 DUP1 MLOAD PUSH1 0x20 PUSH2 0x2B1C DUP4 CODECOPY DUP2 MLOAD SWAP2 MSTORE PUSH32 0xA16A46D94261C7517CC8FF89F61C0CE93598E3C849801011DEE649A6A557D102 PUSH2 0x1960 DUP5 DUP3 PUSH2 0x2972 JUMP JUMPDEST POP PUSH1 0x3 DUP2 ADD PUSH2 0x196F DUP4 DUP3 PUSH2 0x2972 JUMP JUMPDEST POP PUSH0 DUP1 DUP3 SSTORE PUSH1 0x1 SWAP1 SWAP2 ADD SSTORE POP POP JUMP JUMPDEST PUSH2 0xD86 PUSH2 0x1886 JUMP JUMPDEST PUSH2 0x198F DUP3 PUSH2 0x1EE9 JUMP JUMPDEST PUSH1 0x40 MLOAD PUSH1 0x1 PUSH1 0x1 PUSH1 0xA0 SHL SUB DUP4 AND SWAP1 PUSH32 0xBC7CD75A20EE27FD9ADEBAB32041F755214DBC6BFFA90CC0225B39DA2E5C2D3B SWAP1 PUSH0 SWAP1 LOG2 DUP1 MLOAD ISZERO PUSH2 0x19D3 JUMPI PUSH2 0xDC8 DUP3 DUP3 PUSH2 0x1F4C JUMP JUMPDEST PUSH2 0x926 PUSH2 0x1FBE JUMP JUMPDEST PUSH0 PUSH2 0x6CB DUP3 PUSH2 0x983 JUMP JUMPDEST PUSH0 DUP1 MLOAD PUSH1 0x20 PUSH2 0x2ADC DUP4 CODECOPY DUP2 MLOAD SWAP2 MSTORE PUSH1 0x1 PUSH1 0x1 PUSH1 0xA0 SHL SUB DUP5 DUP2 AND SWAP1 DUP5 AND EQ DUP1 ISZERO SWAP1 PUSH2 0x1A0E JUMPI POP PUSH0 DUP3 GT JUMPDEST ISZERO PUSH2 0xE2B JUMPI PUSH1 0x1 PUSH1 0x1 PUSH1 0xA0 SHL SUB DUP5 AND ISZERO PUSH2 0x1AB7 JUMPI PUSH1 0x1 PUSH1 0x1 PUSH1 0xA0 SHL SUB DUP5 AND PUSH0 SWAP1 DUP2 MSTORE PUSH1 0x1 DUP3 ADD PUSH1 0x20 MSTORE PUSH1 0x40 DUP2 KECCAK256 DUP2 SWAP1 PUSH2 0x1A52 SWAP1 PUSH2 0x1FDD PUSH2 0x1A4D DUP8 PUSH2 0x1FE8 JUMP JUMPDEST PUSH2 0x201B JUMP JUMPDEST PUSH1 0x1 PUSH1 0x1 PUSH1 0xD0 SHL SUB AND SWAP2 POP PUSH1 0x1 PUSH1 0x1 PUSH1 0xD0 SHL SUB AND SWAP2 POP DUP6 PUSH1 0x1 PUSH1 0x1 PUSH1 0xA0 SHL SUB AND PUSH32 0xDEC2BACDD2F05B59DE34DA9B523DFF8BE42E5E38E818C82FDB0BAE774387A724 DUP4 DUP4 PUSH1 0x40 MLOAD PUSH2 0x1AAC SWAP3 SWAP2 SWAP1 SWAP2 DUP3 MSTORE PUSH1 0x20 DUP3 ADD MSTORE PUSH1 0x40 ADD SWAP1 JUMP JUMPDEST PUSH1 0x40 MLOAD DUP1 SWAP2 SUB SWAP1 LOG2 POP POP JUMPDEST PUSH1 0x1 PUSH1 0x1 PUSH1 0xA0 SHL SUB DUP4 AND ISZERO PUSH2 0xE2B JUMPI PUSH1 0x1 PUSH1 0x1 PUSH1 0xA0 SHL SUB DUP4 AND PUSH0 SWAP1 DUP2 MSTORE PUSH1 0x1 DUP3 ADD PUSH1 0x20 MSTORE PUSH1 0x40 DUP2 KECCAK256 DUP2 SWAP1 PUSH2 0x1AF1 SWAP1 PUSH2 0x204C PUSH2 0x1A4D DUP8 PUSH2 0x1FE8 JUMP JUMPDEST PUSH1 0x1 PUSH1 0x1 PUSH1 0xD0 SHL SUB AND SWAP2 POP PUSH1 0x1 PUSH1 0x1 PUSH1 0xD0 SHL SUB AND SWAP2 POP DUP5 PUSH1 0x1 PUSH1 0x1 PUSH1 0xA0 SHL SUB AND PUSH32 0xDEC2BACDD2F05B59DE34DA9B523DFF8BE42E5E38E818C82FDB0BAE774387A724 DUP4 DUP4 PUSH1 0x40 MLOAD PUSH2 0x1B4B SWAP3 SWAP2 SWAP1 SWAP2 DUP3 MSTORE PUSH1 0x20 DUP3 ADD MSTORE PUSH1 0x40 ADD SWAP1 JUMP JUMPDEST PUSH1 0x40 MLOAD DUP1 SWAP2 SUB SWAP1 LOG2 POP POP POP POP POP POP JUMP JUMPDEST PUSH0 PUSH4 0xFFFFFFFF DUP3 GT ISZERO PUSH2 0x16D0 JUMPI PUSH1 0x40 MLOAD PUSH4 0x6DFCC65 PUSH1 0xE4 SHL DUP2 MSTORE PUSH1 0x20 PUSH1 0x4 DUP3 ADD MSTORE PUSH1 0x24 DUP2 ADD DUP4 SWAP1 MSTORE PUSH1 0x44 ADD PUSH2 0xA3B JUMP JUMPDEST PUSH0 DUP1 PUSH32 0x5AB42CED628888259C08AC98DB1EB0CF702FC1501344311D8B100CD1BFE4BB00 PUSH2 0x994 JUMP JUMPDEST PUSH0 DUP1 DUP1 PUSH32 0x7FFFFFFFFFFFFFFFFFFFFFFFFFFFFFFF5D576E7357A4501DDFE92F46681B20A0 DUP5 GT ISZERO PUSH2 0x1BEC JUMPI POP PUSH0 SWAP2 POP PUSH1 0x3 SWAP1 POP DUP3 PUSH2 0x1C71 JUMP JUMPDEST PUSH1 0x40 DUP1 MLOAD PUSH0 DUP1 DUP3 MSTORE PUSH1 0x20 DUP3 ADD DUP1 DUP5 MSTORE DUP11 SWAP1 MSTORE PUSH1 0xFF DUP10 AND SWAP3 DUP3 ADD SWAP3 SWAP1 SWAP3 MSTORE PUSH1 0x60 DUP2 ADD DUP8 SWAP1 MSTORE PUSH1 0x80 DUP2 ADD DUP7 SWAP1 MSTORE PUSH1 0x1 SWAP1 PUSH1 0xA0 ADD PUSH1 0x20 PUSH1 0x40 MLOAD PUSH1 0x20 DUP2 SUB SWAP1 DUP1 DUP5 SUB SWAP1 DUP6 GAS STATICCALL ISZERO DUP1 ISZERO PUSH2 0x1C3D JUMPI RETURNDATASIZE PUSH0 DUP1 RETURNDATACOPY RETURNDATASIZE PUSH0 REVERT JUMPDEST POP POP PUSH1 0x40 MLOAD PUSH1 0x1F NOT ADD MLOAD SWAP2 POP POP PUSH1 0x1 PUSH1 0x1 PUSH1 0xA0 SHL SUB DUP2 AND PUSH2 0x1C68 JUMPI POP PUSH0 SWAP3 POP PUSH1 0x1 SWAP2 POP DUP3 SWAP1 POP PUSH2 0x1C71 JUMP JUMPDEST SWAP3 POP PUSH0 SWAP2 POP DUP2 SWAP1 POP JUMPDEST SWAP5 POP SWAP5 POP SWAP5 SWAP2 POP POP JUMP JUMPDEST PUSH0 DUP3 PUSH1 0x3 DUP2 GT ISZERO PUSH2 0x1C8E JUMPI PUSH2 0x1C8E PUSH2 0x2A32 JUMP JUMPDEST SUB PUSH2 0x1C97 JUMPI POP POP JUMP JUMPDEST PUSH1 0x1 DUP3 PUSH1 0x3 DUP2 GT ISZERO PUSH2 0x1CAB JUMPI PUSH2 0x1CAB PUSH2 0x2A32 JUMP JUMPDEST SUB PUSH2 0x1CC9 JUMPI PUSH1 0x40 MLOAD PUSH4 0xF645EEDF PUSH1 0xE0 SHL DUP2 MSTORE PUSH1 0x4 ADD PUSH1 0x40 MLOAD DUP1 SWAP2 SUB SWAP1 REVERT JUMPDEST PUSH1 0x2 DUP3 PUSH1 0x3 DUP2 GT ISZERO PUSH2 0x1CDD JUMPI PUSH2 0x1CDD PUSH2 0x2A32 JUMP JUMPDEST SUB PUSH2 0x1CFE JUMPI PUSH1 0x40 MLOAD PUSH4 0xFCE698F7 PUSH1 0xE0 SHL DUP2 MSTORE PUSH1 0x4 DUP2 ADD DUP3 SWAP1 MSTORE PUSH1 0x24 ADD PUSH2 0xA3B JUMP JUMPDEST PUSH1 0x3 DUP3 PUSH1 0x3 DUP2 GT ISZERO PUSH2 0x1D12 JUMPI PUSH2 0x1D12 PUSH2 0x2A32 JUMP JUMPDEST SUB PUSH2 0x926 JUMPI PUSH1 0x40 MLOAD PUSH4 0x35E2F383 PUSH1 0xE2 SHL DUP2 MSTORE PUSH1 0x4 DUP2 ADD DUP3 SWAP1 MSTORE PUSH1 0x24 ADD PUSH2 0xA3B JUMP JUMPDEST PUSH1 0x40 DUP1 MLOAD DUP1 DUP3 ADD SWAP1 SWAP2 MSTORE PUSH0 DUP1 DUP3 MSTORE PUSH1 0x20 DUP3 ADD MSTORE DUP3 PUSH0 ADD DUP3 PUSH4 0xFFFFFFFF AND DUP2 SLOAD DUP2 LT PUSH2 0x1D60 JUMPI PUSH2 0x1D60 PUSH2 0x2A46 JUMP JUMPDEST PUSH0 SWAP2 DUP3 MSTORE PUSH1 0x20 SWAP2 DUP3 SWAP1 KECCAK256 PUSH1 0x40 DUP1 MLOAD DUP1 DUP3 ADD SWAP1 SWAP2 MSTORE SWAP2 ADD SLOAD PUSH6 0xFFFFFFFFFFFF DUP2 AND DUP3 MSTORE PUSH1 0x1 PUSH1 0x30 SHL SWAP1 DIV PUSH1 0x1 PUSH1 0x1 PUSH1 0xD0 SHL SUB AND SWAP2 DUP2 ADD SWAP2 SWAP1 SWAP2 MSTORE SWAP4 SWAP3 POP POP POP JUMP JUMPDEST PUSH2 0x1DAB DUP4 DUP4 DUP4 PUSH2 0x2057 JUMP JUMPDEST PUSH1 0x1 PUSH1 0x1 PUSH1 0xA0 SHL SUB DUP4 AND PUSH2 0x1E1A JUMPI PUSH0 PUSH2 0x1DE2 PUSH32 0x52C63247E1F47DB19D5CE0460030C497F067CA4CEBF71BA98EEADABE20BACE02 SLOAD SWAP1 JUMP JUMPDEST SWAP1 POP PUSH1 0x1 PUSH1 0x1 PUSH1 0xD0 SHL SUB DUP1 DUP3 GT ISZERO PUSH2 0x1E17 JUMPI PUSH1 0x40 MLOAD PUSH4 0xE58AE93 PUSH1 0xE1 SHL DUP2 MSTORE PUSH1 0x4 DUP2 ADD DUP4 SWAP1 MSTORE PUSH1 0x24 DUP2 ADD DUP3 SWAP1 MSTORE PUSH1 0x44 ADD PUSH2 0xA3B JUMP JUMPDEST POP POP JUMPDEST PUSH2 0xDC8 DUP4 DUP4 DUP4 PUSH2 0x2190 JUMP JUMPDEST PUSH0 PUSH0 DUP1 MLOAD PUSH1 0x20 PUSH2 0x2B1C DUP4 CODECOPY DUP2 MLOAD SWAP2 MSTORE DUP2 PUSH2 0x1E3D PUSH2 0x1371 JUMP JUMPDEST DUP1 MLOAD SWAP1 SWAP2 POP ISZERO PUSH2 0x1E55 JUMPI DUP1 MLOAD PUSH1 0x20 SWAP1 SWAP2 ADD KECCAK256 SWAP3 SWAP2 POP POP JUMP JUMPDEST DUP2 SLOAD DUP1 ISZERO PUSH2 0x1E64 JUMPI SWAP4 SWAP3 POP POP POP JUMP JUMPDEST PUSH32 0xC5D2460186F7233C927E7DB2DCC703C0E500B653CA82273B7BFAD8045D85A470 SWAP4 POP POP POP POP SWAP1 JUMP JUMPDEST PUSH0 PUSH0 DUP1 MLOAD PUSH1 0x20 PUSH2 0x2B1C DUP4 CODECOPY DUP2 MLOAD SWAP2 MSTORE DUP2 PUSH2 0x1EA5 PUSH2 0x13AF JUMP JUMPDEST DUP1 MLOAD SWAP1 SWAP2 POP ISZERO PUSH2 0x1EBD JUMPI DUP1 MLOAD PUSH1 0x20 SWAP1 SWAP2 ADD KECCAK256 SWAP3 SWAP2 POP POP JUMP JUMPDEST PUSH1 0x1 DUP3 ADD SLOAD DUP1 ISZERO PUSH2 0x1E64 JUMPI SWAP4 SWAP3 POP POP POP JUMP JUMPDEST PUSH0 PUSH2 0x1EDD PUSH1 0x2 DUP5 DUP5 XOR PUSH2 0x2A5A JUMP JUMPDEST PUSH2 0x6EF SWAP1 DUP5 DUP5 AND PUSH2 0x28F0 JUMP JUMPDEST DUP1 PUSH1 0x1 PUSH1 0x1 PUSH1 0xA0 SHL SUB AND EXTCODESIZE PUSH0 SUB PUSH2 0x1F1E JUMPI PUSH1 0x40 MLOAD PUSH4 0x4C9C8CE3 PUSH1 0xE0 SHL DUP2 MSTORE PUSH1 0x1 PUSH1 0x1 PUSH1 0xA0 SHL SUB DUP3 AND PUSH1 0x4 DUP3 ADD MSTORE PUSH1 0x24 ADD PUSH2 0xA3B JUMP JUMPDEST PUSH0 DUP1 MLOAD PUSH1 0x20 PUSH2 0x2B3C DUP4 CODECOPY DUP2 MLOAD SWAP2 MSTORE DUP1 SLOAD PUSH1 0x1 PUSH1 0x1 PUSH1 0xA0 SHL SUB NOT AND PUSH1 0x1 PUSH1 0x1 PUSH1 0xA0 SHL SUB SWAP3 SWAP1 SWAP3 AND SWAP2 SWAP1 SWAP2 OR SWAP1 SSTORE JUMP JUMPDEST PUSH1 0x60 PUSH0 DUP1 DUP5 PUSH1 0x1 PUSH1 0x1 PUSH1 0xA0 SHL SUB AND DUP5 PUSH1 0x40 MLOAD PUSH2 0x1F68 SWAP2 SWAP1 PUSH2 0x2A79 JUMP JUMPDEST PUSH0 PUSH1 0x40 MLOAD DUP1 DUP4 SUB DUP2 DUP6 GAS DELEGATECALL SWAP2 POP POP RETURNDATASIZE DUP1 PUSH0 DUP2 EQ PUSH2 0x1FA0 JUMPI PUSH1 0x40 MLOAD SWAP2 POP PUSH1 0x1F NOT PUSH1 0x3F RETURNDATASIZE ADD AND DUP3 ADD PUSH1 0x40 MSTORE RETURNDATASIZE DUP3 MSTORE RETURNDATASIZE PUSH0 PUSH1 0x20 DUP5 ADD RETURNDATACOPY PUSH2 0x1FA5 JUMP JUMPDEST PUSH1 0x60 SWAP2 POP JUMPDEST POP SWAP2 POP SWAP2 POP PUSH2 0x1FB5 DUP6 DUP4 DUP4 PUSH2 0x2201 JUMP JUMPDEST SWAP6 SWAP5 POP POP POP POP POP JUMP JUMPDEST CALLVALUE ISZERO PUSH2 0x9C4 JUMPI PUSH1 0x40 MLOAD PUSH4 0xB398979F PUSH1 0xE0 SHL DUP2 MSTORE PUSH1 0x4 ADD PUSH1 0x40 MLOAD DUP1 SWAP2 SUB SWAP1 REVERT JUMPDEST PUSH0 PUSH2 0x6EF DUP3 DUP5 PUSH2 0x2A94 JUMP JUMPDEST PUSH0 PUSH1 0x1 PUSH1 0x1 PUSH1 0xD0 SHL SUB DUP3 GT ISZERO PUSH2 0x16D0 JUMPI PUSH1 0x40 MLOAD PUSH4 0x6DFCC65 PUSH1 0xE4 SHL DUP2 MSTORE PUSH1 0xD0 PUSH1 0x4 DUP3 ADD MSTORE PUSH1 0x24 DUP2 ADD DUP4 SWAP1 MSTORE PUSH1 0x44 ADD PUSH2 0xA3B JUMP JUMPDEST PUSH0 DUP1 PUSH2 0x203F TIMESTAMP PUSH2 0x2037 PUSH2 0x202D DUP9 PUSH2 0x13C5 JUMP JUMPDEST DUP7 DUP9 PUSH4 0xFFFFFFFF AND JUMP JUMPDEST DUP8 SWAP2 SWAP1 PUSH2 0x225D JUMP JUMPDEST SWAP2 POP SWAP2 POP JUMPDEST SWAP4 POP SWAP4 SWAP2 POP POP JUMP JUMPDEST PUSH0 PUSH2 0x6EF DUP3 DUP5 PUSH2 0x2ABB JUMP JUMPDEST PUSH0 DUP1 MLOAD PUSH1 0x20 PUSH2 0x2AFC DUP4 CODECOPY DUP2 MLOAD SWAP2 MSTORE PUSH1 0x1 PUSH1 0x1 PUSH1 0xA0 SHL SUB DUP5 AND PUSH2 0x2091 JUMPI DUP2 DUP2 PUSH1 0x2 ADD PUSH0 DUP3 DUP3 SLOAD PUSH2 0x2086 SWAP2 SWAP1 PUSH2 0x28F0 JUMP JUMPDEST SWAP1 SWAP2 SSTORE POP PUSH2 0x2101 SWAP1 POP JUMP JUMPDEST PUSH1 0x1 PUSH1 0x1 PUSH1 0xA0 SHL SUB DUP5 AND PUSH0 SWAP1 DUP2 MSTORE PUSH1 0x20 DUP3 SWAP1 MSTORE PUSH1 0x40 SWAP1 KECCAK256 SLOAD DUP3 DUP2 LT ISZERO PUSH2 0x20E3 JUMPI PUSH1 0x40 MLOAD PUSH4 0x391434E3 PUSH1 0xE2 SHL DUP2 MSTORE PUSH1 0x1 PUSH1 0x1 PUSH1 0xA0 SHL SUB DUP7 AND PUSH1 0x4 DUP3 ADD MSTORE PUSH1 0x24 DUP2 ADD DUP3 SWAP1 MSTORE PUSH1 0x44 DUP2 ADD DUP5 SWAP1 MSTORE PUSH1 0x64 ADD PUSH2 0xA3B JUMP JUMPDEST PUSH1 0x1 PUSH1 0x1 PUSH1 0xA0 SHL SUB DUP6 AND PUSH0 SWAP1 DUP2 MSTORE PUSH1 0x20 DUP4 SWAP1 MSTORE PUSH1 0x40 SWAP1 KECCAK256 SWAP1 DUP4 SWAP1 SUB SWAP1 SSTORE JUMPDEST PUSH1 0x1 PUSH1 0x1 PUSH1 0xA0 SHL SUB DUP4 AND PUSH2 0x211F JUMPI PUSH1 0x2 DUP2 ADD DUP1 SLOAD DUP4 SWAP1 SUB SWAP1 SSTORE PUSH2 0x213D JUMP JUMPDEST PUSH1 0x1 PUSH1 0x1 PUSH1 0xA0 SHL SUB DUP4 AND PUSH0 SWAP1 DUP2 MSTORE PUSH1 0x20 DUP3 SWAP1 MSTORE PUSH1 0x40 SWAP1 KECCAK256 DUP1 SLOAD DUP4 ADD SWAP1 SSTORE JUMPDEST DUP3 PUSH1 0x1 PUSH1 0x1 PUSH1 0xA0 SHL SUB AND DUP5 PUSH1 0x1 PUSH1 0x1 PUSH1 0xA0 SHL SUB AND PUSH32 0xDDF252AD1BE2C89B69C2B068FC378DAA952BA7F163C4A11628F55A4DF523B3EF DUP5 PUSH1 0x40 MLOAD PUSH2 0x2182 SWAP2 DUP2 MSTORE PUSH1 0x20 ADD SWAP1 JUMP JUMPDEST PUSH1 0x40 MLOAD DUP1 SWAP2 SUB SWAP1 LOG3 POP POP POP POP JUMP JUMPDEST PUSH0 DUP1 MLOAD PUSH1 0x20 PUSH2 0x2ADC DUP4 CODECOPY DUP2 MLOAD SWAP2 MSTORE PUSH1 0x1 PUSH1 0x1 PUSH1 0xA0 SHL SUB DUP5 AND PUSH2 0x21C2 JUMPI PUSH2 0x21BF DUP2 PUSH1 0x2 ADD PUSH2 0x204C PUSH2 0x1A4D DUP6 PUSH2 0x1FE8 JUMP JUMPDEST POP POP JUMPDEST PUSH1 0x1 PUSH1 0x1 PUSH1 0xA0 SHL SUB DUP4 AND PUSH2 0x21E6 JUMPI PUSH2 0x21E3 DUP2 PUSH1 0x2 ADD PUSH2 0x1FDD PUSH2 0x1A4D DUP6 PUSH2 0x1FE8 JUMP JUMPDEST POP POP JUMPDEST PUSH2 0xE2B PUSH2 0x21F2 DUP6 PUSH2 0x945 JUMP JUMPDEST PUSH2 0x21FB DUP6 PUSH2 0x945 JUMP JUMPDEST DUP5 PUSH2 0x19E5 JUMP JUMPDEST PUSH1 0x60 DUP3 PUSH2 0x2216 JUMPI PUSH2 0x2211 DUP3 PUSH2 0x226A JUMP JUMPDEST PUSH2 0x6EF JUMP JUMPDEST DUP2 MLOAD ISZERO DUP1 ISZERO PUSH2 0x222D JUMPI POP PUSH1 0x1 PUSH1 0x1 PUSH1 0xA0 SHL SUB DUP5 AND EXTCODESIZE ISZERO JUMPDEST ISZERO PUSH2 0x2256 JUMPI PUSH1 0x40 MLOAD PUSH4 0x9996B315 PUSH1 0xE0 SHL DUP2 MSTORE PUSH1 0x1 PUSH1 0x1 PUSH1 0xA0 SHL SUB DUP6 AND PUSH1 0x4 DUP3 ADD MSTORE PUSH1 0x24 ADD PUSH2 0xA3B JUMP JUMPDEST POP DUP1 PUSH2 0x6EF JUMP JUMPDEST PUSH0 DUP1 PUSH2 0x203F DUP6 DUP6 DUP6 PUSH2 0x2293 JUMP JUMPDEST DUP1 MLOAD ISZERO PUSH2 0x227A JUMPI DUP1 MLOAD DUP1 DUP3 PUSH1 0x20 ADD REVERT JUMPDEST PUSH1 0x40 MLOAD PUSH4 0xD6BDA275 PUSH1 0xE0 SHL DUP2 MSTORE PUSH1 0x4 ADD PUSH1 0x40 MLOAD DUP1 SWAP2 SUB SWAP1 REVERT JUMPDEST DUP3 SLOAD PUSH0 SWAP1 DUP2 SWAP1 DUP1 ISZERO PUSH2 0x2389 JUMPI PUSH0 PUSH2 0x22AF DUP8 PUSH2 0xF5B PUSH1 0x1 DUP6 PUSH2 0x28DD JUMP JUMPDEST DUP1 SLOAD SWAP1 SWAP2 POP PUSH6 0xFFFFFFFFFFFF DUP1 DUP3 AND SWAP2 PUSH1 0x1 PUSH1 0x30 SHL SWAP1 DIV PUSH1 0x1 PUSH1 0x1 PUSH1 0xD0 SHL SUB AND SWAP1 DUP9 AND DUP3 GT ISZERO PUSH2 0x22F2 JUMPI PUSH1 0x40 MLOAD PUSH4 0x2520601D PUSH1 0xE0 SHL DUP2 MSTORE PUSH1 0x4 ADD PUSH1 0x40 MLOAD DUP1 SWAP2 SUB SWAP1 REVERT JUMPDEST DUP8 PUSH6 0xFFFFFFFFFFFF AND DUP3 PUSH6 0xFFFFFFFFFFFF AND SUB PUSH2 0x232B JUMPI DUP3 SLOAD PUSH6 0xFFFFFFFFFFFF AND PUSH1 0x1 PUSH1 0x30 SHL PUSH1 0x1 PUSH1 0x1 PUSH1 0xD0 SHL SUB DUP10 AND MUL OR DUP4 SSTORE PUSH2 0x237B JUMP JUMPDEST PUSH1 0x40 DUP1 MLOAD DUP1 DUP3 ADD SWAP1 SWAP2 MSTORE PUSH6 0xFFFFFFFFFFFF DUP1 DUP11 AND DUP3 MSTORE PUSH1 0x1 PUSH1 0x1 PUSH1 0xD0 SHL SUB DUP1 DUP11 AND PUSH1 0x20 DUP1 DUP6 ADD SWAP2 DUP3 MSTORE DUP14 SLOAD PUSH1 0x1 DUP2 ADD DUP16 SSTORE PUSH0 DUP16 DUP2 MSTORE SWAP2 SWAP1 SWAP2 KECCAK256 SWAP5 MLOAD SWAP2 MLOAD SWAP1 SWAP3 AND PUSH1 0x1 PUSH1 0x30 SHL MUL SWAP3 AND SWAP2 SWAP1 SWAP2 OR SWAP2 ADD SSTORE JUMPDEST SWAP5 POP DUP6 SWAP4 POP PUSH2 0x2044 SWAP3 POP POP POP JUMP JUMPDEST POP POP PUSH1 0x40 DUP1 MLOAD DUP1 DUP3 ADD SWAP1 SWAP2 MSTORE PUSH6 0xFFFFFFFFFFFF DUP1 DUP6 AND DUP3 MSTORE PUSH1 0x1 PUSH1 0x1 PUSH1 0xD0 SHL SUB DUP1 DUP6 AND PUSH1 0x20 DUP1 DUP6 ADD SWAP2 DUP3 MSTORE DUP9 SLOAD PUSH1 0x1 DUP2 ADD DUP11 SSTORE PUSH0 DUP11 DUP2 MSTORE SWAP2 DUP3 KECCAK256 SWAP6 MLOAD SWAP3 MLOAD SWAP1 SWAP4 AND PUSH1 0x1 PUSH1 0x30 SHL MUL SWAP2 SWAP1 SWAP4 AND OR SWAP3 ADD SWAP2 SWAP1 SWAP2 SSTORE SWAP1 POP DUP2 PUSH2 0x2044 JUMP JUMPDEST PUSH0 JUMPDEST DUP4 DUP2 LT ISZERO PUSH2 0x23FD JUMPI DUP2 DUP2 ADD MLOAD DUP4 DUP3 ADD MSTORE PUSH1 0x20 ADD PUSH2 0x23E5 JUMP JUMPDEST POP POP PUSH0 SWAP2 ADD MSTORE JUMP JUMPDEST PUSH0 DUP2 MLOAD DUP1 DUP5 MSTORE PUSH2 0x241C DUP2 PUSH1 0x20 DUP7 ADD PUSH1 0x20 DUP7 ADD PUSH2 0x23E3 JUMP JUMPDEST PUSH1 0x1F ADD PUSH1 0x1F NOT AND SWAP3 SWAP1 SWAP3 ADD PUSH1 0x20 ADD SWAP3 SWAP2 POP POP JUMP JUMPDEST PUSH1 0x20 DUP2 MSTORE PUSH0 PUSH2 0x6EF PUSH1 0x20 DUP4 ADD DUP5 PUSH2 0x2405 JUMP JUMPDEST DUP1 CALLDATALOAD PUSH1 0x1 PUSH1 0x1 PUSH1 0xA0 SHL SUB DUP2 AND DUP2 EQ PUSH2 0x2458 JUMPI PUSH0 DUP1 REVERT JUMPDEST SWAP2 SWAP1 POP JUMP JUMPDEST PUSH0 DUP1 PUSH1 0x40 DUP4 DUP6 SUB SLT ISZERO PUSH2 0x246E JUMPI PUSH0 DUP1 REVERT JUMPDEST PUSH2 0x2477 DUP4 PUSH2 0x2442 JUMP JUMPDEST SWAP5 PUSH1 0x20 SWAP4 SWAP1 SWAP4 ADD CALLDATALOAD SWAP4 POP POP POP JUMP JUMPDEST PUSH0 DUP1 PUSH0 PUSH1 0x60 DUP5 DUP7 SUB SLT ISZERO PUSH2 0x2497 JUMPI PUSH0 DUP1 REVERT JUMPDEST PUSH2 0x24A0 DUP5 PUSH2 0x2442 JUMP JUMPDEST SWAP3 POP PUSH2 0x24AE PUSH1 0x20 DUP6 ADD PUSH2 0x2442 JUMP JUMPDEST SWAP2 POP PUSH1 0x40 DUP5 ADD CALLDATALOAD SWAP1 POP SWAP3 POP SWAP3 POP SWAP3 JUMP JUMPDEST PUSH0 DUP1 PUSH1 0x40 DUP4 DUP6 SUB SLT ISZERO PUSH2 0x24CF JUMPI PUSH0 DUP1 REVERT JUMPDEST PUSH2 0x24D8 DUP4 PUSH2 0x2442 JUMP JUMPDEST SWAP2 POP PUSH2 0x24E6 PUSH1 0x20 DUP5 ADD PUSH2 0x2442 JUMP JUMPDEST SWAP1 POP SWAP3 POP SWAP3 SWAP1 POP JUMP JUMPDEST PUSH4 0x4E487B71 PUSH1 0xE0 SHL PUSH0 MSTORE PUSH1 0x41 PUSH1 0x4 MSTORE PUSH1 0x24 PUSH0 REVERT JUMPDEST PUSH0 DUP1 PUSH1 0x40 DUP4 DUP6 SUB SLT ISZERO PUSH2 0x2514 JUMPI PUSH0 DUP1 REVERT JUMPDEST PUSH2 0x251D DUP4 PUSH2 0x2442 JUMP JUMPDEST SWAP2 POP PUSH1 0x20 DUP4 ADD CALLDATALOAD PUSH8 0xFFFFFFFFFFFFFFFF DUP1 DUP3 GT ISZERO PUSH2 0x2539 JUMPI PUSH0 DUP1 REVERT JUMPDEST DUP2 DUP6 ADD SWAP2 POP DUP6 PUSH1 0x1F DUP4 ADD SLT PUSH2 0x254C JUMPI PUSH0 DUP1 REVERT JUMPDEST DUP2 CALLDATALOAD DUP2 DUP2 GT ISZERO PUSH2 0x255E JUMPI PUSH2 0x255E PUSH2 0x24EF JUMP JUMPDEST PUSH1 0x40 MLOAD PUSH1 0x1F DUP3 ADD PUSH1 0x1F NOT SWAP1 DUP2 AND PUSH1 0x3F ADD AND DUP2 ADD SWAP1 DUP4 DUP3 GT DUP2 DUP4 LT OR ISZERO PUSH2 0x2586 JUMPI PUSH2 0x2586 PUSH2 0x24EF JUMP JUMPDEST DUP2 PUSH1 0x40 MSTORE DUP3 DUP2 MSTORE DUP9 PUSH1 0x20 DUP5 DUP8 ADD ADD GT ISZERO PUSH2 0x259E JUMPI PUSH0 DUP1 REVERT JUMPDEST DUP3 PUSH1 0x20 DUP7 ADD PUSH1 0x20 DUP4 ADD CALLDATACOPY PUSH0 PUSH1 0x20 DUP5 DUP4 ADD ADD MSTORE DUP1 SWAP6 POP POP POP POP POP POP SWAP3 POP SWAP3 SWAP1 POP JUMP JUMPDEST PUSH0 PUSH1 0x20 DUP3 DUP5 SUB SLT ISZERO PUSH2 0x25CF JUMPI PUSH0 DUP1 REVERT JUMPDEST PUSH2 0x6EF DUP3 PUSH2 0x2442 JUMP JUMPDEST PUSH1 0xFF PUSH1 0xF8 SHL DUP9 AND DUP2 MSTORE PUSH0 PUSH1 0x20 PUSH1 0xE0 PUSH1 0x20 DUP5 ADD MSTORE PUSH2 0x25F8 PUSH1 0xE0 DUP5 ADD DUP11 PUSH2 0x2405 JUMP JUMPDEST DUP4 DUP2 SUB PUSH1 0x40 DUP6 ADD MSTORE PUSH2 0x260A DUP2 DUP11 PUSH2 0x2405 JUMP JUMPDEST PUSH1 0x60 DUP6 ADD DUP10 SWAP1 MSTORE PUSH1 0x1 PUSH1 0x1 PUSH1 0xA0 SHL SUB DUP9 AND PUSH1 0x80 DUP7 ADD MSTORE PUSH1 0xA0 DUP6 ADD DUP8 SWAP1 MSTORE DUP5 DUP2 SUB PUSH1 0xC0 DUP7 ADD MSTORE DUP6 MLOAD DUP1 DUP3 MSTORE PUSH1 0x20 DUP1 DUP9 ADD SWAP4 POP SWAP1 SWAP2 ADD SWAP1 PUSH0 JUMPDEST DUP2 DUP2 LT ISZERO PUSH2 0x265D JUMPI DUP4 MLOAD DUP4 MSTORE SWAP3 DUP5 ADD SWAP3 SWAP2 DUP5 ADD SWAP2 PUSH1 0x1 ADD PUSH2 0x2641 JUMP JUMPDEST POP SWAP1 SWAP13 SWAP12 POP POP POP POP POP POP POP POP POP POP POP POP JUMP JUMPDEST PUSH0 PUSH1 0x20 DUP3 DUP5 SUB SLT ISZERO PUSH2 0x267F JUMPI PUSH0 DUP1 REVERT JUMPDEST POP CALLDATALOAD SWAP2 SWAP1 POP JUMP JUMPDEST DUP1 CALLDATALOAD PUSH1 0xFF DUP2 AND DUP2 EQ PUSH2 0x2458 JUMPI PUSH0 DUP1 REVERT JUMPDEST PUSH0 DUP1 PUSH0 DUP1 PUSH0 DUP1 PUSH1 0xC0 DUP8 DUP10 SUB SLT ISZERO PUSH2 0x26AB JUMPI PUSH0 DUP1 REVERT JUMPDEST PUSH2 0x26B4 DUP8 PUSH2 0x2442 JUMP JUMPDEST SWAP6 POP PUSH1 0x20 DUP8 ADD CALLDATALOAD SWAP5 POP PUSH1 0x40 DUP8 ADD CALLDATALOAD SWAP4 POP PUSH2 0x26D0 PUSH1 0x60 DUP9 ADD PUSH2 0x2686 JUMP JUMPDEST SWAP3 POP PUSH1 0x80 DUP8 ADD CALLDATALOAD SWAP2 POP PUSH1 0xA0 DUP8 ADD CALLDATALOAD SWAP1 POP SWAP3 SWAP6 POP SWAP3 SWAP6 POP SWAP3 SWAP6 JUMP JUMPDEST PUSH0 DUP1 PUSH0 DUP1 PUSH0 DUP1 PUSH0 PUSH1 0xE0 DUP9 DUP11 SUB SLT ISZERO PUSH2 0x2700 JUMPI PUSH0 DUP1 REVERT JUMPDEST PUSH2 0x2709 DUP9 PUSH2 0x2442 JUMP JUMPDEST SWAP7 POP PUSH2 0x2717 PUSH1 0x20 DUP10 ADD PUSH2 0x2442 JUMP JUMPDEST SWAP6 POP PUSH1 0x40 DUP9 ADD CALLDATALOAD SWAP5 POP PUSH1 0x60 DUP9 ADD CALLDATALOAD SWAP4 POP PUSH2 0x2733 PUSH1 0x80 DUP10 ADD PUSH2 0x2686 JUMP JUMPDEST SWAP3 POP PUSH1 0xA0 DUP9 ADD CALLDATALOAD SWAP2 POP PUSH1 0xC0 DUP9 ADD CALLDATALOAD SWAP1 POP SWAP3 SWAP6 SWAP9 SWAP2 SWAP5 SWAP8 POP SWAP3 SWAP6 POP JUMP JUMPDEST PUSH0 DUP1 PUSH1 0x40 DUP4 DUP6 SUB SLT ISZERO PUSH2 0x2760 JUMPI PUSH0 DUP1 REVERT JUMPDEST PUSH2 0x2769 DUP4 PUSH2 0x2442 JUMP JUMPDEST SWAP2 POP PUSH1 0x20 DUP4 ADD CALLDATALOAD PUSH4 0xFFFFFFFF DUP2 AND DUP2 EQ PUSH2 0x2781 JUMPI PUSH0 DUP1 REVERT JUMPDEST DUP1 SWAP2 POP POP SWAP3 POP SWAP3 SWAP1 POP JUMP JUMPDEST PUSH1 0x1 DUP2 DUP2 SHR SWAP1 DUP3 AND DUP1 PUSH2 0x27A0 JUMPI PUSH1 0x7F DUP3 AND SWAP2 POP JUMPDEST PUSH1 0x20 DUP3 LT DUP2 SUB PUSH2 0x27BE JUMPI PUSH4 0x4E487B71 PUSH1 0xE0 SHL PUSH0 MSTORE PUSH1 0x22 PUSH1 0x4 MSTORE PUSH1 0x24 PUSH0 REVERT JUMPDEST POP SWAP2 SWAP1 POP JUMP JUMPDEST PUSH4 0x4E487B71 PUSH1 0xE0 SHL PUSH0 MSTORE PUSH1 0x11 PUSH1 0x4 MSTORE PUSH1 0x24 PUSH0 REVERT JUMPDEST PUSH1 0x1 DUP2 DUP2 JUMPDEST DUP1 DUP6 GT ISZERO PUSH2 0x2812 JUMPI DUP2 PUSH0 NOT DIV DUP3 GT ISZERO PUSH2 0x27F8 JUMPI PUSH2 0x27F8 PUSH2 0x27C4 JUMP JUMPDEST DUP1 DUP6 AND ISZERO PUSH2 0x2805 JUMPI SWAP2 DUP2 MUL SWAP2 JUMPDEST SWAP4 DUP5 SHR SWAP4 SWAP1 DUP1 MUL SWAP1 PUSH2 0x27DD JUMP JUMPDEST POP SWAP3 POP SWAP3 SWAP1 POP JUMP JUMPDEST PUSH0 DUP3 PUSH2 0x2828 JUMPI POP PUSH1 0x1 PUSH2 0x6CB JUMP JUMPDEST DUP2 PUSH2 0x2834 JUMPI POP PUSH0 PUSH2 0x6CB JUMP JUMPDEST DUP2 PUSH1 0x1 DUP2 EQ PUSH2 0x284A JUMPI PUSH1 0x2 DUP2 EQ PUSH2 0x2854 JUMPI PUSH2 0x2870 JUMP JUMPDEST PUSH1 0x1 SWAP2 POP POP PUSH2 0x6CB JUMP JUMPDEST PUSH1 0xFF DUP5 GT ISZERO PUSH2 0x2865 JUMPI PUSH2 0x2865 PUSH2 0x27C4 JUMP JUMPDEST POP POP PUSH1 0x1 DUP3 SHL PUSH2 0x6CB JUMP JUMPDEST POP PUSH1 0x20 DUP4 LT PUSH2 0x133 DUP4 LT AND PUSH1 0x4E DUP5 LT PUSH1 0xB DUP5 LT AND OR ISZERO PUSH2 0x2893 JUMPI POP DUP2 DUP2 EXP PUSH2 0x6CB JUMP JUMPDEST PUSH2 0x289D DUP4 DUP4 PUSH2 0x27D8 JUMP JUMPDEST DUP1 PUSH0 NOT DIV DUP3 GT ISZERO PUSH2 0x28B0 JUMPI PUSH2 0x28B0 PUSH2 0x27C4 JUMP JUMPDEST MUL SWAP4 SWAP3 POP POP POP JUMP JUMPDEST PUSH0 PUSH2 0x6EF PUSH1 0xFF DUP5 AND DUP4 PUSH2 0x281A JUMP JUMPDEST DUP1 DUP3 MUL DUP2 ISZERO DUP3 DUP3 DIV DUP5 EQ OR PUSH2 0x6CB JUMPI PUSH2 0x6CB PUSH2 0x27C4 JUMP JUMPDEST DUP2 DUP2 SUB DUP2 DUP2 GT ISZERO PUSH2 0x6CB JUMPI PUSH2 0x6CB PUSH2 0x27C4 JUMP JUMPDEST DUP1 DUP3 ADD DUP1 DUP3 GT ISZERO PUSH2 0x6CB JUMPI PUSH2 0x6CB PUSH2 0x27C4 JUMP JUMPDEST PUSH0 PUSH1 0x20 DUP3 DUP5 SUB SLT ISZERO PUSH2 0x2913 JUMPI PUSH0 DUP1 REVERT JUMPDEST POP MLOAD SWAP2 SWAP1 POP JUMP JUMPDEST PUSH4 0x4E487B71 PUSH1 0xE0 SHL PUSH0 MSTORE PUSH1 0x12 PUSH1 0x4 MSTORE PUSH1 0x24 PUSH0 REVERT JUMPDEST PUSH1 0x1F DUP3 GT ISZERO PUSH2 0xDC8 JUMPI DUP1 PUSH0 MSTORE PUSH1 0x20 PUSH0 KECCAK256 PUSH1 0x1F DUP5 ADD PUSH1 0x5 SHR DUP2 ADD PUSH1 0x20 DUP6 LT ISZERO PUSH2 0x2953 JUMPI POP DUP1 JUMPDEST PUSH1 0x1F DUP5 ADD PUSH1 0x5 SHR DUP3 ADD SWAP2 POP JUMPDEST DUP2 DUP2 LT ISZERO PUSH2 0x1619 JUMPI PUSH0 DUP2 SSTORE PUSH1 0x1 ADD PUSH2 0x295F JUMP JUMPDEST DUP2 MLOAD PUSH8 0xFFFFFFFFFFFFFFFF DUP2 GT ISZERO PUSH2 0x298C JUMPI PUSH2 0x298C PUSH2 0x24EF JUMP JUMPDEST PUSH2 0x29A0 DUP2 PUSH2 0x299A DUP5 SLOAD PUSH2 0x278C JUMP JUMPDEST DUP5 PUSH2 0x292E JUMP JUMPDEST PUSH1 0x20 DUP1 PUSH1 0x1F DUP4 GT PUSH1 0x1 DUP2 EQ PUSH2 0x29D3 JUMPI PUSH0 DUP5 ISZERO PUSH2 0x29BC JUMPI POP DUP6 DUP4 ADD MLOAD JUMPDEST PUSH0 NOT PUSH1 0x3 DUP7 SWAP1 SHL SHR NOT AND PUSH1 0x1 DUP6 SWAP1 SHL OR DUP6 SSTORE PUSH2 0x2A2A JUMP JUMPDEST PUSH0 DUP6 DUP2 MSTORE PUSH1 0x20 DUP2 KECCAK256 PUSH1 0x1F NOT DUP7 AND SWAP2 JUMPDEST DUP3 DUP2 LT ISZERO PUSH2 0x2A01 JUMPI DUP9 DUP7 ADD MLOAD DUP3 SSTORE SWAP5 DUP5 ADD SWAP5 PUSH1 0x1 SWAP1 SWAP2 ADD SWAP1 DUP5 ADD PUSH2 0x29E2 JUMP JUMPDEST POP DUP6 DUP3 LT ISZERO PUSH2 0x2A1E JUMPI DUP8 DUP6 ADD MLOAD PUSH0 NOT PUSH1 0x3 DUP9 SWAP1 SHL PUSH1 0xF8 AND SHR NOT AND DUP2 SSTORE JUMPDEST POP POP PUSH1 0x1 DUP5 PUSH1 0x1 SHL ADD DUP6 SSTORE JUMPDEST POP POP POP POP POP POP JUMP JUMPDEST PUSH4 0x4E487B71 PUSH1 0xE0 SHL PUSH0 MSTORE PUSH1 0x21 PUSH1 0x4 MSTORE PUSH1 0x24 PUSH0 REVERT JUMPDEST PUSH4 0x4E487B71 PUSH1 0xE0 SHL PUSH0 MSTORE PUSH1 0x32 PUSH1 0x4 MSTORE PUSH1 0x24 PUSH0 REVERT JUMPDEST PUSH0 DUP3 PUSH2 0x2A74 JUMPI PUSH4 0x4E487B71 PUSH1 0xE0 SHL PUSH0 MSTORE PUSH1 0x12 PUSH1 0x4 MSTORE PUSH1 0x24 PUSH0 REVERT JUMPDEST POP DIV SWAP1 JUMP JUMPDEST PUSH0 DUP3 MLOAD PUSH2 0x2A8A DUP2 DUP5 PUSH1 0x20 DUP8 ADD PUSH2 0x23E3 JUMP JUMPDEST SWAP2 SWAP1 SWAP2 ADD SWAP3 SWAP2 POP POP JUMP JUMPDEST PUSH1 0x1 PUSH1 0x1 PUSH1 0xD0 SHL SUB DUP3 DUP2 AND DUP3 DUP3 AND SUB SWAP1 DUP1 DUP3 GT ISZERO PUSH2 0x2AB4 JUMPI PUSH2 0x2AB4 PUSH2 0x27C4 JUMP JUMPDEST POP SWAP3 SWAP2 POP POP JUMP JUMPDEST PUSH1 0x1 PUSH1 0x1 PUSH1 0xD0 SHL SUB DUP2 DUP2 AND DUP4 DUP3 AND ADD SWAP1 DUP1 DUP3 GT ISZERO PUSH2 0x2AB4 JUMPI PUSH2 0x2AB4 PUSH2 0x27C4 JUMP INVALID 0xE8 0xB2 PUSH13 0x30FAD74198956032A3533D9033 DUP6 0xD5 PUSH14 0xD795AF560196F9C78D4AF40D0052 0xC6 ORIGIN SELFBALANCE 0xE1 DELEGATECALL PUSH30 0xB19D5CE0460030C497F067CA4CEBF71BA98EEADABE20BACE00A16A46D942 PUSH2 0xC751 PUSH29 0xC8FF89F61C0CE93598E3C849801011DEE649A6A557D100360894A13BA1 LOG3 0x21 MOD PUSH8 0xC828492DB98DCA3E KECCAK256 PUSH23 0xCC3735A920A3CA505D382BBCA2646970667358221220CA SLOAD 0xC6 0xC5 SWAP11 0xCA SWAP2 PUSH29 0xFD139C6EBB26882AE2FF0BA831E27D74043D1B416A13538764736F6C63 NUMBER STOP ADDMOD AND STOP CALLER "
	},
	"abi": [
		{
			"inputs": [],
			"stateMutability": "nonpayable",
			"type": "constructor"
		},
		{
			"inputs": [
				{
					"internalType": "address",
					"name": "target",
					"type": "address"
				}
			],
			"name": "AddressEmptyCode",
			"type": "error"
		},
		{
			"inputs": [],
			"name": "CheckpointUnorderedInsertion",
			"type": "error"
		},
		{
			"inputs": [],
			"name": "ECDSAInvalidSignature",
			"type": "error"
		},
		{
			"inputs": [
				{
					"internalType": "uint256",
					"name": "length",
					"type": "uint256"
				}
			],
			"name": "ECDSAInvalidSignatureLength",
			"type": "error"
		},
		{
			"inputs": [
				{
					"internalType": "bytes32",
					"name": "s",
					"type": "bytes32"
				}
			],
			"name": "ECDSAInvalidSignatureS",
			"type": "error"
		},
		{
			"inputs": [
				{
					"internalType": "address",
					"name": "implementation",
					"type": "address"
				}
			],
			"name": "ERC1967InvalidImplementation",
			"type": "error"
		},
		{
			"inputs": [],
			"name": "ERC1967NonPayable",
			"type": "error"
		},
		{
			"inputs": [
				{
					"internalType": "uint256",
					"name": "increasedSupply",
					"type": "uint256"
				},
				{
					"internalType": "uint256",
					"name": "cap",
					"type": "uint256"
				}
			],
			"name": "ERC20ExceededSafeSupply",
			"type": "error"
		},
		{
			"inputs": [
				{
					"internalType": "address",
					"name": "spender",
					"type": "address"
				},
				{
					"internalType": "uint256",
					"name": "allowance",
					"type": "uint256"
				},
				{
					"internalType": "uint256",
					"name": "needed",
					"type": "uint256"
				}
			],
			"name": "ERC20InsufficientAllowance",
			"type": "error"
		},
		{
			"inputs": [
				{
					"internalType": "address",
					"name": "sender",
					"type": "address"
				},
				{
					"internalType": "uint256",
					"name": "balance",
					"type": "uint256"
				},
				{
					"internalType": "uint256",
					"name": "needed",
					"type": "uint256"
				}
			],
			"name": "ERC20InsufficientBalance",
			"type": "error"
		},
		{
			"inputs": [
				{
					"internalType": "address",
					"name": "approver",
					"type": "address"
				}
			],
			"name": "ERC20InvalidApprover",
			"type": "error"
		},
		{
			"inputs": [
				{
					"internalType": "address",
					"name": "receiver",
					"type": "address"
				}
			],
			"name": "ERC20InvalidReceiver",
			"type": "error"
		},
		{
			"inputs": [
				{
					"internalType": "address",
					"name": "sender",
					"type": "address"
				}
			],
			"name": "ERC20InvalidSender",
			"type": "error"
		},
		{
			"inputs": [
				{
					"internalType": "address",
					"name": "spender",
					"type": "address"
				}
			],
			"name": "ERC20InvalidSpender",
			"type": "error"
		},
		{
			"inputs": [
				{
					"internalType": "uint256",
					"name": "deadline",
					"type": "uint256"
				}
			],
			"name": "ERC2612ExpiredSignature",
			"type": "error"
		},
		{
			"inputs": [
				{
					"internalType": "address",
					"name": "signer",
					"type": "address"
				},
				{
					"internalType": "address",
					"name": "owner",
					"type": "address"
				}
			],
			"name": "ERC2612InvalidSigner",
			"type": "error"
		},
		{
			"inputs": [
				{
					"internalType": "uint256",
					"name": "timepoint",
					"type": "uint256"
				},
				{
					"internalType": "uint48",
					"name": "clock",
					"type": "uint48"
				}
			],
			"name": "ERC5805FutureLookup",
			"type": "error"
		},
		{
			"inputs": [],
			"name": "ERC6372InconsistentClock",
			"type": "error"
		},
		{
			"inputs": [],
			"name": "FailedCall",
			"type": "error"
		},
		{
			"inputs": [
				{
					"internalType": "address",
					"name": "account",
					"type": "address"
				},
				{
					"internalType": "uint256",
					"name": "currentNonce",
					"type": "uint256"
				}
			],
			"name": "InvalidAccountNonce",
			"type": "error"
		},
		{
			"inputs": [],
			"name": "InvalidInitialization",
			"type": "error"
		},
		{
			"inputs": [],
			"name": "NotInitializing",
			"type": "error"
		},
		{
			"inputs": [
				{
					"internalType": "address",
					"name": "owner",
					"type": "address"
				}
			],
			"name": "OwnableInvalidOwner",
			"type": "error"
		},
		{
			"inputs": [
				{
					"internalType": "address",
					"name": "account",
					"type": "address"
				}
			],
			"name": "OwnableUnauthorizedAccount",
			"type": "error"
		},
		{
			"inputs": [
				{
					"internalType": "uint8",
					"name": "bits",
					"type": "uint8"
				},
				{
					"internalType": "uint256",
					"name": "value",
					"type": "uint256"
				}
			],
			"name": "SafeCastOverflowedUintDowncast",
			"type": "error"
		},
		{
			"inputs": [],
			"name": "UUPSUnauthorizedCallContext",
			"type": "error"
		},
		{
			"inputs": [
				{
					"internalType": "bytes32",
					"name": "slot",
					"type": "bytes32"
				}
			],
			"name": "UUPSUnsupportedProxiableUUID",
			"type": "error"
		},
		{
			"inputs": [
				{
					"internalType": "uint256",
					"name": "expiry",
					"type": "uint256"
				}
			],
			"name": "VotesExpiredSignature",
			"type": "error"
		},
		{
			"anonymous": false,
			"inputs": [
				{
					"indexed": true,
					"internalType": "address",
					"name": "owner",
					"type": "address"
				},
				{
					"indexed": true,
					"internalType": "address",
					"name": "spender",
					"type": "address"
				},
				{
					"indexed": false,
					"internalType": "uint256",
					"name": "value",
					"type": "uint256"
				}
			],
			"name": "Approval",
			"type": "event"
		},
		{
			"anonymous": false,
			"inputs": [
				{
					"indexed": true,
					"internalType": "address",
					"name": "delegator",
					"type": "address"
				},
				{
					"indexed": true,
					"internalType": "address",
					"name": "fromDelegate",
					"type": "address"
				},
				{
					"indexed": true,
					"internalType": "address",
					"name": "toDelegate",
					"type": "address"
				}
			],
			"name": "DelegateChanged",
			"type": "event"
		},
		{
			"anonymous": false,
			"inputs": [
				{
					"indexed": true,
					"internalType": "address",
					"name": "delegate",
					"type": "address"
				},
				{
					"indexed": false,
					"internalType": "uint256",
					"name": "previousVotes",
					"type": "uint256"
				},
				{
					"indexed": false,
					"internalType": "uint256",
					"name": "newVotes",
					"type": "uint256"
				}
			],
			"name": "DelegateVotesChanged",
			"type": "event"
		},
		{
			"anonymous": false,
			"inputs": [],
			"name": "EIP712DomainChanged",
			"type": "event"
		},
		{
			"anonymous": false,
			"inputs": [
				{
					"indexed": false,
					"internalType": "uint64",
					"name": "version",
					"type": "uint64"
				}
			],
			"name": "Initialized",
			"type": "event"
		},
		{
			"anonymous": false,
			"inputs": [
				{
					"indexed": true,
					"internalType": "address",
					"name": "previousOwner",
					"type": "address"
				},
				{
					"indexed": true,
					"internalType": "address",
					"name": "newOwner",
					"type": "address"
				}
			],
			"name": "OwnershipTransferred",
			"type": "event"
		},
		{
			"anonymous": false,
			"inputs": [
				{
					"indexed": true,
					"internalType": "address",
					"name": "from",
					"type": "address"
				},
				{
					"indexed": true,
					"internalType": "address",
					"name": "to",
					"type": "address"
				},
				{
					"indexed": false,
					"internalType": "uint256",
					"name": "value",
					"type": "uint256"
				}
			],
			"name": "Transfer",
			"type": "event"
		},
		{
			"anonymous": false,
			"inputs": [
				{
					"indexed": true,
					"internalType": "address",
					"name": "implementation",
					"type": "address"
				}
			],
			"name": "Upgraded",
			"type": "event"
		},
		{
			"inputs": [],
			"name": "CLOCK_MODE",
			"outputs": [
				{
					"internalType": "string",
					"name": "",
					"type": "string"
				}
			],
			"stateMutability": "pure",
			"type": "function"
		},
		{
			"inputs": [],
			"name": "DOMAIN_SEPARATOR",
			"outputs": [
				{
					"internalType": "bytes32",
					"name": "",
					"type": "bytes32"
				}
			],
			"stateMutability": "view",
			"type": "function"
		},
		{
			"inputs": [],
			"name": "UPGRADE_INTERFACE_VERSION",
			"outputs": [
				{
					"internalType": "string",
					"name": "",
					"type": "string"
				}
			],
			"stateMutability": "view",
			"type": "function"
		},
		{
			"inputs": [
				{
					"internalType": "address",
					"name": "owner",
					"type": "address"
				},
				{
					"internalType": "address",
					"name": "spender",
					"type": "address"
				}
			],
			"name": "allowance",
			"outputs": [
				{
					"internalType": "uint256",
					"name": "",
					"type": "uint256"
				}
			],
			"stateMutability": "view",
			"type": "function"
		},
		{
			"inputs": [
				{
					"internalType": "address",
					"name": "spender",
					"type": "address"
				},
				{
					"internalType": "uint256",
					"name": "value",
					"type": "uint256"
				}
			],
			"name": "approve",
			"outputs": [
				{
					"internalType": "bool",
					"name": "",
					"type": "bool"
				}
			],
			"stateMutability": "nonpayable",
			"type": "function"
		},
		{
			"inputs": [
				{
					"internalType": "address",
					"name": "account",
					"type": "address"
				}
			],
			"name": "balanceOf",
			"outputs": [
				{
					"internalType": "uint256",
					"name": "",
					"type": "uint256"
				}
			],
			"stateMutability": "view",
			"type": "function"
		},
		{
			"inputs": [
				{
					"internalType": "address",
					"name": "account",
					"type": "address"
				},
				{
					"internalType": "uint32",
					"name": "pos",
					"type": "uint32"
				}
			],
			"name": "checkpoints",
			"outputs": [
				{
					"components": [
						{
							"internalType": "uint48",
							"name": "_key",
							"type": "uint48"
						},
						{
							"internalType": "uint208",
							"name": "_value",
							"type": "uint208"
						}
					],
					"internalType": "struct Checkpoints.Checkpoint208",
					"name": "",
					"type": "tuple"
				}
			],
			"stateMutability": "view",
			"type": "function"
		},
		{
			"inputs": [],
			"name": "clock",
			"outputs": [
				{
					"internalType": "uint48",
					"name": "",
					"type": "uint48"
				}
			],
			"stateMutability": "view",
			"type": "function"
		},
		{
			"inputs": [],
			"name": "decimals",
			"outputs": [
				{
					"internalType": "uint8",
					"name": "",
					"type": "uint8"
				}
			],
			"stateMutability": "view",
			"type": "function"
		},
		{
			"inputs": [
				{
					"internalType": "address",
					"name": "delegatee",
					"type": "address"
				}
			],
			"name": "delegate",
			"outputs": [],
			"stateMutability": "nonpayable",
			"type": "function"
		},
		{
			"inputs": [
				{
					"internalType": "address",
					"name": "delegatee",
					"type": "address"
				},
				{
					"internalType": "uint256",
					"name": "nonce",
					"type": "uint256"
				},
				{
					"internalType": "uint256",
					"name": "expiry",
					"type": "uint256"
				},
				{
					"internalType": "uint8",
					"name": "v",
					"type": "uint8"
				},
				{
					"internalType": "bytes32",
					"name": "r",
					"type": "bytes32"
				},
				{
					"internalType": "bytes32",
					"name": "s",
					"type": "bytes32"
				}
			],
			"name": "delegateBySig",
			"outputs": [],
			"stateMutability": "nonpayable",
			"type": "function"
		},
		{
			"inputs": [
				{
					"internalType": "address",
					"name": "account",
					"type": "address"
				}
			],
			"name": "delegates",
			"outputs": [
				{
					"internalType": "address",
					"name": "",
					"type": "address"
				}
			],
			"stateMutability": "view",
			"type": "function"
		},
		{
			"inputs": [],
			"name": "eip712Domain",
			"outputs": [
				{
					"internalType": "bytes1",
					"name": "fields",
					"type": "bytes1"
				},
				{
					"internalType": "string",
					"name": "name",
					"type": "string"
				},
				{
					"internalType": "string",
					"name": "version",
					"type": "string"
				},
				{
					"internalType": "uint256",
					"name": "chainId",
					"type": "uint256"
				},
				{
					"internalType": "address",
					"name": "verifyingContract",
					"type": "address"
				},
				{
					"internalType": "bytes32",
					"name": "salt",
					"type": "bytes32"
				},
				{
					"internalType": "uint256[]",
					"name": "extensions",
					"type": "uint256[]"
				}
			],
			"stateMutability": "view",
			"type": "function"
		},
		{
			"inputs": [
				{
					"internalType": "uint256",
					"name": "timepoint",
					"type": "uint256"
				}
			],
			"name": "getPastTotalSupply",
			"outputs": [
				{
					"internalType": "uint256",
					"name": "",
					"type": "uint256"
				}
			],
			"stateMutability": "view",
			"type": "function"
		},
		{
			"inputs": [
				{
					"internalType": "address",
					"name": "account",
					"type": "address"
				},
				{
					"internalType": "uint256",
					"name": "timepoint",
					"type": "uint256"
				}
			],
			"name": "getPastVotes",
			"outputs": [
				{
					"internalType": "uint256",
					"name": "",
					"type": "uint256"
				}
			],
			"stateMutability": "view",
			"type": "function"
		},
		{
			"inputs": [
				{
					"internalType": "address",
					"name": "account",
					"type": "address"
				}
			],
			"name": "getVotes",
			"outputs": [
				{
					"internalType": "uint256",
					"name": "",
					"type": "uint256"
				}
			],
			"stateMutability": "view",
			"type": "function"
		},
		{
			"inputs": [
				{
					"internalType": "address",
					"name": "recipient",
					"type": "address"
				},
				{
					"internalType": "address",
					"name": "initialOwner",
					"type": "address"
				}
			],
			"name": "initialize",
			"outputs": [],
			"stateMutability": "nonpayable",
			"type": "function"
		},
		{
			"inputs": [],
			"name": "name",
			"outputs": [
				{
					"internalType": "string",
					"name": "",
					"type": "string"
				}
			],
			"stateMutability": "view",
			"type": "function"
		},
		{
			"inputs": [
				{
					"internalType": "address",
					"name": "owner",
					"type": "address"
				}
			],
			"name": "nonces",
			"outputs": [
				{
					"internalType": "uint256",
					"name": "",
					"type": "uint256"
				}
			],
			"stateMutability": "view",
			"type": "function"
		},
		{
			"inputs": [
				{
					"internalType": "address",
					"name": "account",
					"type": "address"
				}
			],
			"name": "numCheckpoints",
			"outputs": [
				{
					"internalType": "uint32",
					"name": "",
					"type": "uint32"
				}
			],
			"stateMutability": "view",
			"type": "function"
		},
		{
			"inputs": [],
			"name": "owner",
			"outputs": [
				{
					"internalType": "address",
					"name": "",
					"type": "address"
				}
			],
			"stateMutability": "view",
			"type": "function"
		},
		{
			"inputs": [
				{
					"internalType": "address",
					"name": "owner",
					"type": "address"
				},
				{
					"internalType": "address",
					"name": "spender",
					"type": "address"
				},
				{
					"internalType": "uint256",
					"name": "value",
					"type": "uint256"
				},
				{
					"internalType": "uint256",
					"name": "deadline",
					"type": "uint256"
				},
				{
					"internalType": "uint8",
					"name": "v",
					"type": "uint8"
				},
				{
					"internalType": "bytes32",
					"name": "r",
					"type": "bytes32"
				},
				{
					"internalType": "bytes32",
					"name": "s",
					"type": "bytes32"
				}
			],
			"name": "permit",
			"outputs": [],
			"stateMutability": "nonpayable",
			"type": "function"
		},
		{
			"inputs": [],
			"name": "proxiableUUID",
			"outputs": [
				{
					"internalType": "bytes32",
					"name": "",
					"type": "bytes32"
				}
			],
			"stateMutability": "view",
			"type": "function"
		},
		{
			"inputs": [],
			"name": "renounceOwnership",
			"outputs": [],
			"stateMutability": "nonpayable",
			"type": "function"
		},
		{
			"inputs": [],
			"name": "symbol",
			"outputs": [
				{
					"internalType": "string",
					"name": "",
					"type": "string"
				}
			],
			"stateMutability": "view",
			"type": "function"
		},
		{
			"inputs": [],
			"name": "totalSupply",
			"outputs": [
				{
					"internalType": "uint256",
					"name": "",
					"type": "uint256"
				}
			],
			"stateMutability": "view",
			"type": "function"
		},
		{
			"inputs": [
				{
					"internalType": "address",
					"name": "to",
					"type": "address"
				},
				{
					"internalType": "uint256",
					"name": "value",
					"type": "uint256"
				}
			],
			"name": "transfer",
			"outputs": [
				{
					"internalType": "bool",
					"name": "",
					"type": "bool"
				}
			],
			"stateMutability": "nonpayable",
			"type": "function"
		},
		{
			"inputs": [
				{
					"internalType": "address",
					"name": "from",
					"type": "address"
				},
				{
					"internalType": "address",
					"name": "to",
					"type": "address"
				},
				{
					"internalType": "uint256",
					"name": "value",
					"type": "uint256"
				}
			],
			"name": "transferFrom",
			"outputs": [
				{
					"internalType": "bool",
					"name": "",
					"type": "bool"
				}
			],
			"stateMutability": "nonpayable",
			"type": "function"
		},
		{
			"inputs": [
				{
					"internalType": "address",
					"name": "newOwner",
					"type": "address"
				}
			],
			"name": "transferOwnership",
			"outputs": [],
			"stateMutability": "nonpayable",
			"type": "function"
		},
		{
			"inputs": [
				{
					"internalType": "address",
					"name": "newImplementation",
					"type": "address"
				},
				{
					"internalType": "bytes",
					"name": "data",
					"type": "bytes"
				}
			],
			"name": "upgradeToAndCall",
			"outputs": [],
			"stateMutability": "payable",
			"type": "function"
		}
	],
	"storageLayout": {
		"storage": [],
		"types": null
	},
	"web3Deploy": "var nextprovistaContract = new web3.eth.Contract([{\"inputs\":[],\"stateMutability\":\"nonpayable\",\"type\":\"constructor\"},{\"inputs\":[{\"internalType\":\"address\",\"name\":\"target\",\"type\":\"address\"}],\"name\":\"AddressEmptyCode\",\"type\":\"error\"},{\"inputs\":[],\"name\":\"CheckpointUnorderedInsertion\",\"type\":\"error\"},{\"inputs\":[],\"name\":\"ECDSAInvalidSignature\",\"type\":\"error\"},{\"inputs\":[{\"internalType\":\"uint256\",\"name\":\"length\",\"type\":\"uint256\"}],\"name\":\"ECDSAInvalidSignatureLength\",\"type\":\"error\"},{\"inputs\":[{\"internalType\":\"bytes32\",\"name\":\"s\",\"type\":\"bytes32\"}],\"name\":\"ECDSAInvalidSignatureS\",\"type\":\"error\"},{\"inputs\":[{\"internalType\":\"address\",\"name\":\"implementation\",\"type\":\"address\"}],\"name\":\"ERC1967InvalidImplementation\",\"type\":\"error\"},{\"inputs\":[],\"name\":\"ERC1967NonPayable\",\"type\":\"error\"},{\"inputs\":[{\"internalType\":\"uint256\",\"name\":\"increasedSupply\",\"type\":\"uint256\"},{\"internalType\":\"uint256\",\"name\":\"cap\",\"type\":\"uint256\"}],\"name\":\"ERC20ExceededSafeSupply\",\"type\":\"error\"},{\"inputs\":[{\"internalType\":\"address\",\"name\":\"spender\",\"type\":\"address\"},{\"internalType\":\"uint256\",\"name\":\"allowance\",\"type\":\"uint256\"},{\"internalType\":\"uint256\",\"name\":\"needed\",\"type\":\"uint256\"}],\"name\":\"ERC20InsufficientAllowance\",\"type\":\"error\"},{\"inputs\":[{\"internalType\":\"address\",\"name\":\"sender\",\"type\":\"address\"},{\"internalType\":\"uint256\",\"name\":\"balance\",\"type\":\"uint256\"},{\"internalType\":\"uint256\",\"name\":\"needed\",\"type\":\"uint256\"}],\"name\":\"ERC20InsufficientBalance\",\"type\":\"error\"},{\"inputs\":[{\"internalType\":\"address\",\"name\":\"approver\",\"type\":\"address\"}],\"name\":\"ERC20InvalidApprover\",\"type\":\"error\"},{\"inputs\":[{\"internalType\":\"address\",\"name\":\"receiver\",\"type\":\"address\"}],\"name\":\"ERC20InvalidReceiver\",\"type\":\"error\"},{\"inputs\":[{\"internalType\":\"address\",\"name\":\"sender\",\"type\":\"address\"}],\"name\":\"ERC20InvalidSender\",\"type\":\"error\"},{\"inputs\":[{\"internalType\":\"address\",\"name\":\"spender\",\"type\":\"address\"}],\"name\":\"ERC20InvalidSpender\",\"type\":\"error\"},{\"inputs\":[{\"internalType\":\"uint256\",\"name\":\"deadline\",\"type\":\"uint256\"}],\"name\":\"ERC2612ExpiredSignature\",\"type\":\"error\"},{\"inputs\":[{\"internalType\":\"address\",\"name\":\"signer\",\"type\":\"address\"},{\"internalType\":\"address\",\"name\":\"owner\",\"type\":\"address\"}],\"name\":\"ERC2612InvalidSigner\",\"type\":\"error\"},{\"inputs\":[{\"internalType\":\"uint256\",\"name\":\"timepoint\",\"type\":\"uint256\"},{\"internalType\":\"uint48\",\"name\":\"clock\",\"type\":\"uint48\"}],\"name\":\"ERC5805FutureLookup\",\"type\":\"error\"},{\"inputs\":[],\"name\":\"ERC6372InconsistentClock\",\"type\":\"error\"},{\"inputs\":[],\"name\":\"FailedCall\",\"type\":\"error\"},{\"inputs\":[{\"internalType\":\"address\",\"name\":\"account\",\"type\":\"address\"},{\"internalType\":\"uint256\",\"name\":\"currentNonce\",\"type\":\"uint256\"}],\"name\":\"InvalidAccountNonce\",\"type\":\"error\"},{\"inputs\":[],\"name\":\"InvalidInitialization\",\"type\":\"error\"},{\"inputs\":[],\"name\":\"NotInitializing\",\"type\":\"error\"},{\"inputs\":[{\"internalType\":\"address\",\"name\":\"owner\",\"type\":\"address\"}],\"name\":\"OwnableInvalidOwner\",\"type\":\"error\"},{\"inputs\":[{\"internalType\":\"address\",\"name\":\"account\",\"type\":\"address\"}],\"name\":\"OwnableUnauthorizedAccount\",\"type\":\"error\"},{\"inputs\":[{\"internalType\":\"uint8\",\"name\":\"bits\",\"type\":\"uint8\"},{\"internalType\":\"uint256\",\"name\":\"value\",\"type\":\"uint256\"}],\"name\":\"SafeCastOverflowedUintDowncast\",\"type\":\"error\"},{\"inputs\":[],\"name\":\"UUPSUnauthorizedCallContext\",\"type\":\"error\"},{\"inputs\":[{\"internalType\":\"bytes32\",\"name\":\"slot\",\"type\":\"bytes32\"}],\"name\":\"UUPSUnsupportedProxiableUUID\",\"type\":\"error\"},{\"inputs\":[{\"internalType\":\"uint256\",\"name\":\"expiry\",\"type\":\"uint256\"}],\"name\":\"VotesExpiredSignature\",\"type\":\"error\"},{\"anonymous\":false,\"inputs\":[{\"indexed\":true,\"internalType\":\"address\",\"name\":\"owner\",\"type\":\"address\"},{\"indexed\":true,\"internalType\":\"address\",\"name\":\"spender\",\"type\":\"address\"},{\"indexed\":false,\"internalType\":\"uint256\",\"name\":\"value\",\"type\":\"uint256\"}],\"name\":\"Approval\",\"type\":\"event\"},{\"anonymous\":false,\"inputs\":[{\"indexed\":true,\"internalType\":\"address\",\"name\":\"delegator\",\"type\":\"address\"},{\"indexed\":true,\"internalType\":\"address\",\"name\":\"fromDelegate\",\"type\":\"address\"},{\"indexed\":true,\"internalType\":\"address\",\"name\":\"toDelegate\",\"type\":\"address\"}],\"name\":\"DelegateChanged\",\"type\":\"event\"},{\"anonymous\":false,\"inputs\":[{\"indexed\":true,\"internalType\":\"address\",\"name\":\"delegate\",\"type\":\"address\"},{\"indexed\":false,\"internalType\":\"uint256\",\"name\":\"previousVotes\",\"type\":\"uint256\"},{\"indexed\":false,\"internalType\":\"uint256\",\"name\":\"newVotes\",\"type\":\"uint256\"}],\"name\":\"DelegateVotesChanged\",\"type\":\"event\"},{\"anonymous\":false,\"inputs\":[],\"name\":\"EIP712DomainChanged\",\"type\":\"event\"},{\"anonymous\":false,\"inputs\":[{\"indexed\":false,\"internalType\":\"uint64\",\"name\":\"version\",\"type\":\"uint64\"}],\"name\":\"Initialized\",\"type\":\"event\"},{\"anonymous\":false,\"inputs\":[{\"indexed\":true,\"internalType\":\"address\",\"name\":\"previousOwner\",\"type\":\"address\"},{\"indexed\":true,\"internalType\":\"address\",\"name\":\"newOwner\",\"type\":\"address\"}],\"name\":\"OwnershipTransferred\",\"type\":\"event\"},{\"anonymous\":false,\"inputs\":[{\"indexed\":true,\"internalType\":\"address\",\"name\":\"from\",\"type\":\"address\"},{\"indexed\":true,\"internalType\":\"address\",\"name\":\"to\",\"type\":\"address\"},{\"indexed\":false,\"internalType\":\"uint256\",\"name\":\"value\",\"type\":\"uint256\"}],\"name\":\"Transfer\",\"type\":\"event\"},{\"anonymous\":false,\"inputs\":[{\"indexed\":true,\"internalType\":\"address\",\"name\":\"implementation\",\"type\":\"address\"}],\"name\":\"Upgraded\",\"type\":\"event\"},{\"inputs\":[],\"name\":\"CLOCK_MODE\",\"outputs\":[{\"internalType\":\"string\",\"name\":\"\",\"type\":\"string\"}],\"stateMutability\":\"pure\",\"type\":\"function\"},{\"inputs\":[],\"name\":\"DOMAIN_SEPARATOR\",\"outputs\":[{\"internalType\":\"bytes32\",\"name\":\"\",\"type\":\"bytes32\"}],\"stateMutability\":\"view\",\"type\":\"function\"},{\"inputs\":[],\"name\":\"UPGRADE_INTERFACE_VERSION\",\"outputs\":[{\"internalType\":\"string\",\"name\":\"\",\"type\":\"string\"}],\"stateMutability\":\"view\",\"type\":\"function\"},{\"inputs\":[{\"internalType\":\"address\",\"name\":\"owner\",\"type\":\"address\"},{\"internalType\":\"address\",\"name\":\"spender\",\"type\":\"address\"}],\"name\":\"allowance\",\"outputs\":[{\"internalType\":\"uint256\",\"name\":\"\",\"type\":\"uint256\"}],\"stateMutability\":\"view\",\"type\":\"function\"},{\"inputs\":[{\"internalType\":\"address\",\"name\":\"spender\",\"type\":\"address\"},{\"internalType\":\"uint256\",\"name\":\"value\",\"type\":\"uint256\"}],\"name\":\"approve\",\"outputs\":[{\"internalType\":\"bool\",\"name\":\"\",\"type\":\"bool\"}],\"stateMutability\":\"nonpayable\",\"type\":\"function\"},{\"inputs\":[{\"internalType\":\"address\",\"name\":\"account\",\"type\":\"address\"}],\"name\":\"balanceOf\",\"outputs\":[{\"internalType\":\"uint256\",\"name\":\"\",\"type\":\"uint256\"}],\"stateMutability\":\"view\",\"type\":\"function\"},{\"inputs\":[{\"internalType\":\"address\",\"name\":\"account\",\"type\":\"address\"},{\"internalType\":\"uint32\",\"name\":\"pos\",\"type\":\"uint32\"}],\"name\":\"checkpoints\",\"outputs\":[{\"components\":[{\"internalType\":\"uint48\",\"name\":\"_key\",\"type\":\"uint48\"},{\"internalType\":\"uint208\",\"name\":\"_value\",\"type\":\"uint208\"}],\"internalType\":\"struct Checkpoints.Checkpoint208\",\"name\":\"\",\"type\":\"tuple\"}],\"stateMutability\":\"view\",\"type\":\"function\"},{\"inputs\":[],\"name\":\"clock\",\"outputs\":[{\"internalType\":\"uint48\",\"name\":\"\",\"type\":\"uint48\"}],\"stateMutability\":\"view\",\"type\":\"function\"},{\"inputs\":[],\"name\":\"decimals\",\"outputs\":[{\"internalType\":\"uint8\",\"name\":\"\",\"type\":\"uint8\"}],\"stateMutability\":\"view\",\"type\":\"function\"},{\"inputs\":[{\"internalType\":\"address\",\"name\":\"delegatee\",\"type\":\"address\"}],\"name\":\"delegate\",\"outputs\":[],\"stateMutability\":\"nonpayable\",\"type\":\"function\"},{\"inputs\":[{\"internalType\":\"address\",\"name\":\"delegatee\",\"type\":\"address\"},{\"internalType\":\"uint256\",\"name\":\"nonce\",\"type\":\"uint256\"},{\"internalType\":\"uint256\",\"name\":\"expiry\",\"type\":\"uint256\"},{\"internalType\":\"uint8\",\"name\":\"v\",\"type\":\"uint8\"},{\"internalType\":\"bytes32\",\"name\":\"r\",\"type\":\"bytes32\"},{\"internalType\":\"bytes32\",\"name\":\"s\",\"type\":\"bytes32\"}],\"name\":\"delegateBySig\",\"outputs\":[],\"stateMutability\":\"nonpayable\",\"type\":\"function\"},{\"inputs\":[{\"internalType\":\"address\",\"name\":\"account\",\"type\":\"address\"}],\"name\":\"delegates\",\"outputs\":[{\"internalType\":\"address\",\"name\":\"\",\"type\":\"address\"}],\"stateMutability\":\"view\",\"type\":\"function\"},{\"inputs\":[],\"name\":\"eip712Domain\",\"outputs\":[{\"internalType\":\"bytes1\",\"name\":\"fields\",\"type\":\"bytes1\"},{\"internalType\":\"string\",\"name\":\"name\",\"type\":\"string\"},{\"internalType\":\"string\",\"name\":\"version\",\"type\":\"string\"},{\"internalType\":\"uint256\",\"name\":\"chainId\",\"type\":\"uint256\"},{\"internalType\":\"address\",\"name\":\"verifyingContract\",\"type\":\"address\"},{\"internalType\":\"bytes32\",\"name\":\"salt\",\"type\":\"bytes32\"},{\"internalType\":\"uint256[]\",\"name\":\"extensions\",\"type\":\"uint256[]\"}],\"stateMutability\":\"view\",\"type\":\"function\"},{\"inputs\":[{\"internalType\":\"uint256\",\"name\":\"timepoint\",\"type\":\"uint256\"}],\"name\":\"getPastTotalSupply\",\"outputs\":[{\"internalType\":\"uint256\",\"name\":\"\",\"type\":\"uint256\"}],\"stateMutability\":\"view\",\"type\":\"function\"},{\"inputs\":[{\"internalType\":\"address\",\"name\":\"account\",\"type\":\"address\"},{\"internalType\":\"uint256\",\"name\":\"timepoint\",\"type\":\"uint256\"}],\"name\":\"getPastVotes\",\"outputs\":[{\"internalType\":\"uint256\",\"name\":\"\",\"type\":\"uint256\"}],\"stateMutability\":\"view\",\"type\":\"function\"},{\"inputs\":[{\"internalType\":\"address\",\"name\":\"account\",\"type\":\"address\"}],\"name\":\"getVotes\",\"outputs\":[{\"internalType\":\"uint256\",\"name\":\"\",\"type\":\"uint256\"}],\"stateMutability\":\"view\",\"type\":\"function\"},{\"inputs\":[{\"internalType\":\"address\",\"name\":\"recipient\",\"type\":\"address\"},{\"internalType\":\"address\",\"name\":\"initialOwner\",\"type\":\"address\"}],\"name\":\"initialize\",\"outputs\":[],\"stateMutability\":\"nonpayable\",\"type\":\"function\"},{\"inputs\":[],\"name\":\"name\",\"outputs\":[{\"internalType\":\"string\",\"name\":\"\",\"type\":\"string\"}],\"stateMutability\":\"view\",\"type\":\"function\"},{\"inputs\":[{\"internalType\":\"address\",\"name\":\"owner\",\"type\":\"address\"}],\"name\":\"nonces\",\"outputs\":[{\"internalType\":\"uint256\",\"name\":\"\",\"type\":\"uint256\"}],\"stateMutability\":\"view\",\"type\":\"function\"},{\"inputs\":[{\"internalType\":\"address\",\"name\":\"account\",\"type\":\"address\"}],\"name\":\"numCheckpoints\",\"outputs\":[{\"internalType\":\"uint32\",\"name\":\"\",\"type\":\"uint32\"}],\"stateMutability\":\"view\",\"type\":\"function\"},{\"inputs\":[],\"name\":\"owner\",\"outputs\":[{\"internalType\":\"address\",\"name\":\"\",\"type\":\"address\"}],\"stateMutability\":\"view\",\"type\":\"function\"},{\"inputs\":[{\"internalType\":\"address\",\"name\":\"owner\",\"type\":\"address\"},{\"internalType\":\"address\",\"name\":\"spender\",\"type\":\"address\"},{\"internalType\":\"uint256\",\"name\":\"value\",\"type\":\"uint256\"},{\"internalType\":\"uint256\",\"name\":\"deadline\",\"type\":\"uint256\"},{\"internalType\":\"uint8\",\"name\":\"v\",\"type\":\"uint8\"},{\"internalType\":\"bytes32\",\"name\":\"r\",\"type\":\"bytes32\"},{\"internalType\":\"bytes32\",\"name\":\"s\",\"type\":\"bytes32\"}],\"name\":\"permit\",\"outputs\":[],\"stateMutability\":\"nonpayable\",\"type\":\"function\"},{\"inputs\":[],\"name\":\"proxiableUUID\",\"outputs\":[{\"internalType\":\"bytes32\",\"name\":\"\",\"type\":\"bytes32\"}],\"stateMutability\":\"view\",\"type\":\"function\"},{\"inputs\":[],\"name\":\"renounceOwnership\",\"outputs\":[],\"stateMutability\":\"nonpayable\",\"type\":\"function\"},{\"inputs\":[],\"name\":\"symbol\",\"outputs\":[{\"internalType\":\"string\",\"name\":\"\",\"type\":\"string\"}],\"stateMutability\":\"view\",\"type\":\"function\"},{\"inputs\":[],\"name\":\"totalSupply\",\"outputs\":[{\"internalType\":\"uint256\",\"name\":\"\",\"type\":\"uint256\"}],\"stateMutability\":\"view\",\"type\":\"function\"},{\"inputs\":[{\"internalType\":\"address\",\"name\":\"to\",\"type\":\"address\"},{\"internalType\":\"uint256\",\"name\":\"value\",\"type\":\"uint256\"}],\"name\":\"transfer\",\"outputs\":[{\"internalType\":\"bool\",\"name\":\"\",\"type\":\"bool\"}],\"stateMutability\":\"nonpayable\",\"type\":\"function\"},{\"inputs\":[{\"internalType\":\"address\",\"name\":\"from\",\"type\":\"address\"},{\"internalType\":\"address\",\"name\":\"to\",\"type\":\"address\"},{\"internalType\":\"uint256\",\"name\":\"value\",\"type\":\"uint256\"}],\"name\":\"transferFrom\",\"outputs\":[{\"internalType\":\"bool\",\"name\":\"\",\"type\":\"bool\"}],\"stateMutability\":\"nonpayable\",\"type\":\"function\"},{\"inputs\":[{\"internalType\":\"address\",\"name\":\"newOwner\",\"type\":\"address\"}],\"name\":\"transferOwnership\",\"outputs\":[],\"stateMutability\":\"nonpayable\",\"type\":\"function\"},{\"inputs\":[{\"internalType\":\"address\",\"name\":\"newImplementation\",\"type\":\"address\"},{\"internalType\":\"bytes\",\"name\":\"data\",\"type\":\"bytes\"}],\"name\":\"upgradeToAndCall\",\"outputs\":[],\"stateMutability\":\"payable\",\"type\":\"function\"}]);\nvar nextprovista = nextprovistaContract.deploy({\n     data: '0x60a06040523060805234801562000014575f80fd5b506200001f62000025565b620000d9565b7ff0c57e16840df040f15088dc2f81fe391c3923bec73e23a9662efc9c229c6a00805468010000000000000000900460ff1615620000765760405163f92ee8a960e01b815260040160405180910390fd5b80546001600160401b0390811614620000d65780546001600160401b0319166001600160401b0390811782556040519081527fc7f505b2f371ae2175ee4913f4499e1f2633a7b5936321eed1cdaeb6115181d29060200160405180910390a15b50565b608051612b91620001005f395f81816110200152818161104901526111880152612b915ff3fe6080604052600436106101c5575f3560e01c8063715018a6116100f25780639ab24eb011610092578063d505accf11610062578063d505accf1461056b578063dd62ed3e1461058a578063f1127ed8146105a9578063f2fde38b146105f4575f80fd5b80639ab24eb0146104de578063a9059cbb146104fd578063ad3cb1cc1461051c578063c3cda5201461054c575f80fd5b80638da5cb5b116100cd5780638da5cb5b1461044d5780638e539e8c1461048957806391ddadf4146104a857806395d89b41146104ca575f80fd5b8063715018a6146103f35780637ecebe001461040757806384b0196e14610426575f80fd5b8063485cc95511610168578063587cde1e11610138578063587cde1e1461034a5780635c19a95c146103815780636fcfff45146103a057806370a08231146103d4575f80fd5b8063485cc955146102cc5780634bf5d7e9146102ed5780634f1ef2861461032357806352d1902d14610336575f80fd5b806323b872dd116101a357806323b872dd1461025f578063313ce5671461027e5780633644e515146102995780633a46b1a8146102ad575f80fd5b806306fdde03146101c9578063095ea7b3146101f357806318160ddd14610222575b5f80fd5b3480156101d4575f80fd5b506101dd610613565b6040516101ea9190612430565b60405180910390f35b3480156101fe575f80fd5b5061021261020d36600461245d565b6106b8565b60405190151581526020016101ea565b34801561022d575f80fd5b507f52c63247e1f47db19d5ce0460030c497f067ca4cebf71ba98eeadabe20bace02545b6040519081526020016101ea565b34801561026a575f80fd5b50610212610279366004612485565b6106d1565b348015610289575f80fd5b50604051601281526020016101ea565b3480156102a4575f80fd5b506102516106f6565b3480156102b8575f80fd5b506102516102c736600461245d565b610704565b3480156102d7575f80fd5b506102eb6102e63660046124be565b61074f565b005b3480156102f8575f80fd5b5060408051808201909152600e81526d06d6f64653d74696d657374616d760941b60208201526101dd565b6102eb610331366004612503565b61090b565b348015610341575f80fd5b5061025161092a565b348015610355575f80fd5b506103696103643660046125bf565b610945565b6040516001600160a01b0390911681526020016101ea565b34801561038c575f80fd5b506102eb61039b3660046125bf565b61096e565b3480156103ab575f80fd5b506103bf6103ba3660046125bf565b610979565b60405163ffffffff90911681526020016101ea565b3480156103df575f80fd5b506102516103ee3660046125bf565b610983565b3480156103fe575f80fd5b506102eb6109b3565b348015610412575f80fd5b506102516104213660046125bf565b6109c6565b348015610431575f80fd5b5061043a6109d0565b6040516101ea97969594939291906125d8565b348015610458575f80fd5b507f9016d09d72d40fdae2fd8ceac6b6234c7706214fd39c1cd1e609a0528c199300546001600160a01b0316610369565b348015610494575f80fd5b506102516104a336600461266f565b610a7e565b3480156104b3575f80fd5b5060405165ffffffffffff421681526020016101ea565b3480156104d5575f80fd5b506101dd610ab3565b3480156104e9575f80fd5b506102516104f83660046125bf565b610af1565b348015610508575f80fd5b5061021261051736600461245d565b610b3f565b348015610527575f80fd5b506101dd604051806040016040528060058152602001640352e302e360dc1b81525081565b348015610557575f80fd5b506102eb610566366004612696565b610b4c565b348015610576575f80fd5b506102eb6105853660046126ea565b610bff565b348015610595575f80fd5b506102516105a43660046124be565b610d18565b3480156105b4575f80fd5b506105c86105c336600461274f565b610d61565b60408051825165ffffffffffff1681526020928301516001600160d01b031692810192909252016101ea565b3480156105ff575f80fd5b506102eb61060e3660046125bf565b610d7e565b60605f5f80516020612afc8339815191525b90508060030180546106369061278c565b80601f01602080910402602001604051908101604052809291908181526020018280546106629061278c565b80156106ad5780601f10610684576101008083540402835291602001916106ad565b820191905f5260205f20905b81548152906001019060200180831161069057829003601f168201915b505050505091505090565b5f336106c5818585610dbb565b60019150505b92915050565b5f336106de858285610dcd565b6106e9858585610e31565b60019150505b9392505050565b5f6106ff610e8e565b905090565b5f5f80516020612adc83398151915261073e61071f84610e97565b6001600160a01b0386165f908152600184016020526040902090610edb565b6001600160d01b0316949350505050565b7ff0c57e16840df040f15088dc2f81fe391c3923bec73e23a9662efc9c229c6a008054600160401b810460ff16159067ffffffffffffffff165f811580156107945750825b90505f8267ffffffffffffffff1660011480156107b05750303b155b9050811580156107be575080155b156107dc5760405163f92ee8a960e01b815260040160405180910390fd5b845467ffffffffffffffff19166001178555831561080657845460ff60401b1916600160401b1785555b6108516040518060400160405280600e81526020016d4e6578742050726f20566973746160901b8152506040518060400160405280600381526020016227282b60e91b815250610f8b565b6108806040518060400160405280600e81526020016d4e6578742050726f20566973746160901b815250610f9d565b610888610fc8565b61089186610fd0565b610899610fc8565b6108bc876108a96012600a6128b8565b6108b7906316bf96c96128c6565b610fe1565b831561090257845460ff60401b19168555604051600181527fc7f505b2f371ae2175ee4913f4499e1f2633a7b5936321eed1cdaeb6115181d29060200160405180910390a15b50505050505050565b610913611015565b61091c826110b9565b61092682826110c1565b5050565b5f61093361117d565b505f80516020612b3c83398151915290565b6001600160a01b039081165f9081525f80516020612adc83398151915260205260409020541690565b3361092681836111c6565b5f6106cb8261124d565b5f805f80516020612afc8339815191525b6001600160a01b039093165f9081526020939093525050604090205490565b6109bb61129c565b6109c45f6112f7565b565b5f6106cb82611367565b5f60608082808083815f80516020612b1c83398151915280549091501580156109fb57506001810154155b610a445760405162461bcd60e51b81526020600482015260156024820152741152540dcc4c8e88155b9a5b9a5d1a585b1a5e9959605a1b60448201526064015b60405180910390fd5b610a4c611371565b610a546113af565b604080515f80825260208201909252600f60f81b9c939b5091995046985030975095509350915050565b5f5f80516020612adc833981519152610aa3610a9984610e97565b6002830190610edb565b6001600160d01b03169392505050565b7f52c63247e1f47db19d5ce0460030c497f067ca4cebf71ba98eeadabe20bace0480546060915f80516020612afc833981519152916106369061278c565b6001600160a01b0381165f9081527fe8b26c30fad74198956032a3533d903385d56dd795af560196f9c78d4af40d01602052604081205f80516020612adc83398151915290610aa3906113c5565b5f336106c5818585610e31565b83421115610b7057604051632341d78760e11b815260048101859052602401610a3b565b604080517fe48329057bfd03d55e49b547132e39cffd9c1820ad7b9d4c5307691425d15adf60208201526001600160a01b0388169181019190915260608101869052608081018590525f90610be990610be19060a001604051602081830303815290604052805190602001206113fc565b858585611428565b9050610bf58187611454565b61090281886111c6565b83421115610c235760405163313c898160e11b815260048101859052602401610a3b565b5f7f6e71edae12b1b97f4d1f60370fef10105fa2faae0126114a169c64845d6126c9888888610c518c611492565b6040805160208101969096526001600160a01b0394851690860152929091166060840152608083015260a082015260c0810186905260e0016040516020818303038152906040528051906020012090505f610cab826113fc565b90505f610cba82878787611428565b9050896001600160a01b0316816001600160a01b031614610d01576040516325c0072360e11b81526001600160a01b0380831660048301528b166024820152604401610a3b565b610d0c8a8a8a610dbb565b50505050505050505050565b6001600160a01b039182165f9081527f52c63247e1f47db19d5ce0460030c497f067ca4cebf71ba98eeadabe20bace016020908152604080832093909416825291909152205490565b604080518082019091525f80825260208201526106ef83836114d3565b610d8661129c565b6001600160a01b038116610daf57604051631e4fbdf760e01b81525f6004820152602401610a3b565b610db8816112f7565b50565b610dc8838383600161153c565b505050565b5f610dd88484610d18565b90505f19811015610e2b5781811015610e1d57604051637dc7a0d960e11b81526001600160a01b03841660048201526024810182905260448101839052606401610a3b565b610e2b84848484035f61153c565b50505050565b6001600160a01b038316610e5a57604051634b637e8f60e11b81525f6004820152602401610a3b565b6001600160a01b038216610e835760405163ec442f0560e01b81525f6004820152602401610a3b565b610dc8838383611620565b5f6106ff61162b565b5f4265ffffffffffff81168310610ed257604051637669fc0f60e11b81526004810184905265ffffffffffff82166024820152604401610a3b565b6106ef8361169e565b81545f9081816005811115610f37575f610ef4846116d4565b610efe90856128dd565b5f8881526020902090915081015465ffffffffffff9081169087161015610f2757809150610f35565b610f328160016128f0565b92505b505b5f610f4487878585611827565b90508015610f7e57610f6887610f5b6001846128dd565b5f91825260209091200190565b54600160301b90046001600160d01b0316610f80565b5f5b979650505050505050565b610f93611886565b61092682826118cf565b610fa5611886565b610db881604051806040016040528060018152602001603160f81b81525061191f565b6109c4611886565b610fd8611886565b610db88161197e565b6001600160a01b03821661100a5760405163ec442f0560e01b81525f6004820152602401610a3b565b6109265f8383611620565b306001600160a01b037f000000000000000000000000000000000000000000000000000000000000000016148061109b57507f00000000000000000000000000000000000000000000000000000000000000006001600160a01b031661108f5f80516020612b3c833981519152546001600160a01b031690565b6001600160a01b031614155b156109c45760405163703e46dd60e11b815260040160405180910390fd5b610db861129c565b816001600160a01b03166352d1902d6040518163ffffffff1660e01b8152600401602060405180830381865afa92505050801561111b575060408051601f3d908101601f1916820190925261111891810190612903565b60015b61114357604051634c9c8ce360e01b81526001600160a01b0383166004820152602401610a3b565b5f80516020612b3c833981519152811461117357604051632a87526960e21b815260048101829052602401610a3b565b610dc88383611986565b306001600160a01b037f000000000000000000000000000000000000000000000000000000000000000016146109c45760405163703e46dd60e11b815260040160405180910390fd5b5f80516020612adc8339815191525f6111de84610945565b6001600160a01b038581165f8181526020869052604080822080546001600160a01b031916898616908117909155905194955093928516927f3134e8a2e6d97e929a7e54011ea5485d7d196dd5f0ba4d4ef95803e8e3fc257f9190a4610e2b8184611248876119db565b6119e5565b6001600160a01b0381165f9081527fe8b26c30fad74198956032a3533d903385d56dd795af560196f9c78d4af40d0160205260408120545f80516020612adc833981519152906106ef90611b5b565b336112ce7f9016d09d72d40fdae2fd8ceac6b6234c7706214fd39c1cd1e609a0528c199300546001600160a01b031690565b6001600160a01b0316146109c45760405163118cdaa760e01b8152336004820152602401610a3b565b7f9016d09d72d40fdae2fd8ceac6b6234c7706214fd39c1cd1e609a0528c19930080546001600160a01b031981166001600160a01b03848116918217845560405192169182907f8be0079c531659141344cd1fd0a4f28419497f9722a3daafe3b4186f6b6457e0905f90a3505050565b5f6106cb82611b8b565b7fa16a46d94261c7517cc8ff89f61c0ce93598e3c849801011dee649a6a557d10280546060915f80516020612b1c833981519152916106369061278c565b60605f5f80516020612b1c833981519152610625565b80545f9080156113f4576113de83610f5b6001846128dd565b54600160301b90046001600160d01b03166106ef565b5f9392505050565b5f6106cb611408610e8e565b8360405161190160f01b8152600281019290925260228201526042902090565b5f805f8061143888888888611bb3565b9250925092506114488282611c7b565b50909695505050505050565b5f61145e83611492565b9050808214610dc8576040516301d4b62360e61b81526001600160a01b038416600482015260248101829052604401610a3b565b6001600160a01b03165f9081527f5ab42ced628888259c08ac98db1eb0cf702fc1501344311d8b100cd1bfe4bb006020526040902080546001810190915590565b6040805180820182525f80825260208083018290526001600160a01b03861682527fe8b26c30fad74198956032a3533d903385d56dd795af560196f9c78d4af40d019052919091205f80516020612adc833981519152906115349084611d33565b949350505050565b5f80516020612afc8339815191526001600160a01b0385166115735760405163e602df0560e01b81525f6004820152602401610a3b565b6001600160a01b03841661159c57604051634a1406b160e11b81525f6004820152602401610a3b565b6001600160a01b038086165f9081526001830160209081526040808320938816835292905220839055811561161957836001600160a01b0316856001600160a01b03167f8c5be1e5ebec7d5bd14f71427d1e84f3dd0314c0f7b2291e5b200ac8c7c3b9258560405161161091815260200190565b60405180910390a35b5050505050565b610dc8838383611da0565b5f7f8b73c3c69bb8fe3d512ecc4cf759cc79239f7b179b0ffacaa9a75d522b39400f611655611e25565b61165d611e8d565b60408051602081019490945283019190915260608201524660808201523060a082015260c00160405160208183030381529060405280519060200120905090565b5f65ffffffffffff8211156116d0576040516306dfcc6560e41b81526030600482015260248101839052604401610a3b565b5090565b5f600182116116e1575090565b816001600160801b82106116fa5760809190911c9060401b5b600160401b82106117105760409190911c9060201b5b64010000000082106117275760209190911c9060101b5b62010000821061173c5760109190911c9060081b5b61010082106117505760089190911c9060041b5b601082106117635760049190911c9060021b5b6004821061176f5760011b5b600302600190811c908185816117875761178761291a565b048201901c9050600181858161179f5761179f61291a565b048201901c905060018185816117b7576117b761291a565b048201901c905060018185816117cf576117cf61291a565b048201901c905060018185816117e7576117e761291a565b048201901c905060018185816117ff576117ff61291a565b048201901c905061181e8185816118185761181861291a565b04821190565b90039392505050565b5f5b8183101561187e575f61183c8484611ecf565b5f8781526020902090915065ffffffffffff86169082015465ffffffffffff16111561186a57809250611878565b6118758160016128f0565b93505b50611829565b509392505050565b7ff0c57e16840df040f15088dc2f81fe391c3923bec73e23a9662efc9c229c6a0054600160401b900460ff166109c457604051631afcd79f60e31b815260040160405180910390fd5b6118d7611886565b5f80516020612afc8339815191527f52c63247e1f47db19d5ce0460030c497f067ca4cebf71ba98eeadabe20bace036119108482612972565b5060048101610e2b8382612972565b611927611886565b5f80516020612b1c8339815191527fa16a46d94261c7517cc8ff89f61c0ce93598e3c849801011dee649a6a557d1026119608482612972565b506003810161196f8382612972565b505f8082556001909101555050565b610d86611886565b61198f82611ee9565b6040516001600160a01b038316907fbc7cd75a20ee27fd9adebab32041f755214dbc6bffa90cc0225b39da2e5c2d3b905f90a28051156119d357610dc88282611f4c565b610926611fbe565b5f6106cb82610983565b5f80516020612adc8339815191526001600160a01b0384811690841614801590611a0e57505f82115b15610e2b576001600160a01b03841615611ab7576001600160a01b0384165f90815260018201602052604081208190611a5290611fdd611a4d87611fe8565b61201b565b6001600160d01b031691506001600160d01b03169150856001600160a01b03167fdec2bacdd2f05b59de34da9b523dff8be42e5e38e818c82fdb0bae774387a7248383604051611aac929190918252602082015260400190565b60405180910390a250505b6001600160a01b03831615610e2b576001600160a01b0383165f90815260018201602052604081208190611af19061204c611a4d87611fe8565b6001600160d01b031691506001600160d01b03169150846001600160a01b03167fdec2bacdd2f05b59de34da9b523dff8be42e5e38e818c82fdb0bae774387a7248383604051611b4b929190918252602082015260400190565b60405180910390a2505050505050565b5f63ffffffff8211156116d0576040516306dfcc6560e41b81526020600482015260248101839052604401610a3b565b5f807f5ab42ced628888259c08ac98db1eb0cf702fc1501344311d8b100cd1bfe4bb00610994565b5f80807f7fffffffffffffffffffffffffffffff5d576e7357a4501ddfe92f46681b20a0841115611bec57505f91506003905082611c71565b604080515f808252602082018084528a905260ff891692820192909252606081018790526080810186905260019060a0016020604051602081039080840390855afa158015611c3d573d5f803e3d5ffd5b5050604051601f1901519150506001600160a01b038116611c6857505f925060019150829050611c71565b92505f91508190505b9450945094915050565b5f826003811115611c8e57611c8e612a32565b03611c97575050565b6001826003811115611cab57611cab612a32565b03611cc95760405163f645eedf60e01b815260040160405180910390fd5b6002826003811115611cdd57611cdd612a32565b03611cfe5760405163fce698f760e01b815260048101829052602401610a3b565b6003826003811115611d1257611d12612a32565b03610926576040516335e2f38360e21b815260048101829052602401610a3b565b604080518082019091525f8082526020820152825f018263ffffffff1681548110611d6057611d60612a46565b5f9182526020918290206040805180820190915291015465ffffffffffff81168252600160301b90046001600160d01b0316918101919091529392505050565b611dab838383612057565b6001600160a01b038316611e1a575f611de27f52c63247e1f47db19d5ce0460030c497f067ca4cebf71ba98eeadabe20bace025490565b90506001600160d01b0380821115611e1757604051630e58ae9360e11b81526004810183905260248101829052604401610a3b565b50505b610dc8838383612190565b5f5f80516020612b1c83398151915281611e3d611371565b805190915015611e5557805160209091012092915050565b81548015611e64579392505050565b7fc5d2460186f7233c927e7db2dcc703c0e500b653ca82273b7bfad8045d85a470935050505090565b5f5f80516020612b1c83398151915281611ea56113af565b805190915015611ebd57805160209091012092915050565b60018201548015611e64579392505050565b5f611edd6002848418612a5a565b6106ef908484166128f0565b806001600160a01b03163b5f03611f1e57604051634c9c8ce360e01b81526001600160a01b0382166004820152602401610a3b565b5f80516020612b3c83398151915280546001600160a01b0319166001600160a01b0392909216919091179055565b60605f80846001600160a01b031684604051611f689190612a79565b5f60405180830381855af49150503d805f8114611fa0576040519150601f19603f3d011682016040523d82523d5f602084013e611fa5565b606091505b5091509150611fb5858383612201565b95945050505050565b34156109c45760405163b398979f60e01b815260040160405180910390fd5b5f6106ef8284612a94565b5f6001600160d01b038211156116d0576040516306dfcc6560e41b815260d0600482015260248101839052604401610a3b565b5f8061203f4261203761202d886113c5565b868863ffffffff16565b87919061225d565b915091505b935093915050565b5f6106ef8284612abb565b5f80516020612afc8339815191526001600160a01b0384166120915781816002015f82825461208691906128f0565b909155506121019050565b6001600160a01b0384165f90815260208290526040902054828110156120e35760405163391434e360e21b81526001600160a01b03861660048201526024810182905260448101849052606401610a3b565b6001600160a01b0385165f9081526020839052604090209083900390555b6001600160a01b03831661211f57600281018054839003905561213d565b6001600160a01b0383165f9081526020829052604090208054830190555b826001600160a01b0316846001600160a01b03167fddf252ad1be2c89b69c2b068fc378daa952ba7f163c4a11628f55a4df523b3ef8460405161218291815260200190565b60405180910390a350505050565b5f80516020612adc8339815191526001600160a01b0384166121c2576121bf8160020161204c611a4d85611fe8565b50505b6001600160a01b0383166121e6576121e381600201611fdd611a4d85611fe8565b50505b610e2b6121f285610945565b6121fb85610945565b846119e5565b606082612216576122118261226a565b6106ef565b815115801561222d57506001600160a01b0384163b155b1561225657604051639996b31560e01b81526001600160a01b0385166004820152602401610a3b565b50806106ef565b5f8061203f858585612293565b80511561227a5780518082602001fd5b60405163d6bda27560e01b815260040160405180910390fd5b82545f9081908015612389575f6122af87610f5b6001856128dd565b805490915065ffffffffffff80821691600160301b90046001600160d01b03169088168211156122f257604051632520601d60e01b815260040160405180910390fd5b8765ffffffffffff168265ffffffffffff160361232b57825465ffffffffffff16600160301b6001600160d01b0389160217835561237b565b6040805180820190915265ffffffffffff808a1682526001600160d01b03808a1660208085019182528d54600181018f555f8f81529190912094519151909216600160301b029216919091179101555b945085935061204492505050565b50506040805180820190915265ffffffffffff80851682526001600160d01b0380851660208085019182528854600181018a555f8a815291822095519251909316600160301b029190931617920191909155905081612044565b5f5b838110156123fd5781810151838201526020016123e5565b50505f910152565b5f815180845261241c8160208601602086016123e3565b601f01601f19169290920160200192915050565b602081525f6106ef6020830184612405565b80356001600160a01b0381168114612458575f80fd5b919050565b5f806040838503121561246e575f80fd5b61247783612442565b946020939093013593505050565b5f805f60608486031215612497575f80fd5b6124a084612442565b92506124ae60208501612442565b9150604084013590509250925092565b5f80604083850312156124cf575f80fd5b6124d883612442565b91506124e660208401612442565b90509250929050565b634e487b7160e01b5f52604160045260245ffd5b5f8060408385031215612514575f80fd5b61251d83612442565b9150602083013567ffffffffffffffff80821115612539575f80fd5b818501915085601f83011261254c575f80fd5b81358181111561255e5761255e6124ef565b604051601f8201601f19908116603f01168101908382118183101715612586576125866124ef565b8160405282815288602084870101111561259e575f80fd5b826020860160208301375f6020848301015280955050505050509250929050565b5f602082840312156125cf575f80fd5b6106ef82612442565b60ff60f81b881681525f602060e060208401526125f860e084018a612405565b838103604085015261260a818a612405565b606085018990526001600160a01b038816608086015260a0850187905284810360c0860152855180825260208088019350909101905f5b8181101561265d57835183529284019291840191600101612641565b50909c9b505050505050505050505050565b5f6020828403121561267f575f80fd5b5035919050565b803560ff81168114612458575f80fd5b5f805f805f8060c087890312156126ab575f80fd5b6126b487612442565b955060208701359450604087013593506126d060608801612686565b92506080870135915060a087013590509295509295509295565b5f805f805f805f60e0888a031215612700575f80fd5b61270988612442565b965061271760208901612442565b9550604088013594506060880135935061273360808901612686565b925060a0880135915060c0880135905092959891949750929550565b5f8060408385031215612760575f80fd5b61276983612442565b9150602083013563ffffffff81168114612781575f80fd5b809150509250929050565b600181811c908216806127a057607f821691505b6020821081036127be57634e487b7160e01b5f52602260045260245ffd5b50919050565b634e487b7160e01b5f52601160045260245ffd5b600181815b8085111561281257815f19048211156127f8576127f86127c4565b8085161561280557918102915b93841c93908002906127dd565b509250929050565b5f82612828575060016106cb565b8161283457505f6106cb565b816001811461284a576002811461285457612870565b60019150506106cb565b60ff841115612865576128656127c4565b50506001821b6106cb565b5060208310610133831016604e8410600b8410161715612893575081810a6106cb565b61289d83836127d8565b805f19048211156128b0576128b06127c4565b029392505050565b5f6106ef60ff84168361281a565b80820281158282048414176106cb576106cb6127c4565b818103818111156106cb576106cb6127c4565b808201808211156106cb576106cb6127c4565b5f60208284031215612913575f80fd5b5051919050565b634e487b7160e01b5f52601260045260245ffd5b601f821115610dc857805f5260205f20601f840160051c810160208510156129535750805b601f840160051c820191505b81811015611619575f815560010161295f565b815167ffffffffffffffff81111561298c5761298c6124ef565b6129a08161299a845461278c565b8461292e565b602080601f8311600181146129d3575f84156129bc5750858301515b5f19600386901b1c1916600185901b178555612a2a565b5f85815260208120601f198616915b82811015612a01578886015182559484019460019091019084016129e2565b5085821015612a1e57878501515f19600388901b60f8161c191681555b505060018460011b0185555b505050505050565b634e487b7160e01b5f52602160045260245ffd5b634e487b7160e01b5f52603260045260245ffd5b5f82612a7457634e487b7160e01b5f52601260045260245ffd5b500490565b5f8251612a8a8184602087016123e3565b9190910192915050565b6001600160d01b03828116828216039080821115612ab457612ab46127c4565b5092915050565b6001600160d01b03818116838216019080821115612ab457612ab46127c456fee8b26c30fad74198956032a3533d903385d56dd795af560196f9c78d4af40d0052c63247e1f47db19d5ce0460030c497f067ca4cebf71ba98eeadabe20bace00a16a46d94261c7517cc8ff89f61c0ce93598e3c849801011dee649a6a557d100360894a13ba1a3210667c828492db98dca3e2076cc3735a920a3ca505d382bbca2646970667358221220ca54c6c59aca917cfd139c6ebb26882ae2ff0ba831e27d74043d1b416a13538764736f6c63430008160033', \n     arguments: [\n     ]\n}).send({\n     from: web3.eth.accounts[0], \n     gas: '4700000'\n   }, function (e, contract){\n    console.log(e, contract);\n    if (typeof contract.address !== 'undefined') {\n         console.log('Contract mined! address: ' + contract.address + ' transactionHash: ' + contract.transactionHash);\n    }\n })",
	"metadataHash": "a881b239f2bec52e0672890fff2506d4977cfec2b41d44dcf47c953f88e144a4",
	"functionHashes": {
		"4bf5d7e9": "CLOCK_MODE()",
		"3644e515": "DOMAIN_SEPARATOR()",
		"ad3cb1cc": "UPGRADE_INTERFACE_VERSION()",
		"dd62ed3e": "allowance(address,address)",
		"095ea7b3": "approve(address,uint256)",
		"70a08231": "balanceOf(address)",
		"f1127ed8": "checkpoints(address,uint32)",
		"91ddadf4": "clock()",
		"313ce567": "decimals()",
		"5c19a95c": "delegate(address)",
		"c3cda520": "delegateBySig(address,uint256,uint256,uint8,bytes32,bytes32)",
		"587cde1e": "delegates(address)",
		"84b0196e": "eip712Domain()",
		"8e539e8c": "getPastTotalSupply(uint256)",
		"3a46b1a8": "getPastVotes(address,uint256)",
		"9ab24eb0": "getVotes(address)",
		"485cc955": "initialize(address,address)",
		"06fdde03": "name()",
		"7ecebe00": "nonces(address)",
		"6fcfff45": "numCheckpoints(address)",
		"8da5cb5b": "owner()",
		"d505accf": "permit(address,address,uint256,uint256,uint8,bytes32,bytes32)",
		"52d1902d": "proxiableUUID()",
		"715018a6": "renounceOwnership()",
		"95d89b41": "symbol()",
		"18160ddd": "totalSupply()",
		"a9059cbb": "transfer(address,uint256)",
		"23b872dd": "transferFrom(address,address,uint256)",
		"f2fde38b": "transferOwnership(address)",
		"4f1ef286": "upgradeToAndCall(address,bytes)"
	},
	"gasEstimates": {
		"Creation": {
			"codeDepositCost": "2230600",
			"executionCost": "infinite",
			"totalCost": "infinite"
		},
		"External": {
			"CLOCK_MODE()": "infinite",
			"DOMAIN_SEPARATOR()": "infinite",
			"UPGRADE_INTERFACE_VERSION()": "infinite",
			"allowance(address,address)": "infinite",
			"approve(address,uint256)": "infinite",
			"balanceOf(address)": "infinite",
			"checkpoints(address,uint32)": "infinite",
			"clock()": "270",
			"decimals()": "244",
			"delegate(address)": "infinite",
			"delegateBySig(address,uint256,uint256,uint8,bytes32,bytes32)": "infinite",
			"delegates(address)": "infinite",
			"eip712Domain()": "infinite",
			"getPastTotalSupply(uint256)": "infinite",
			"getPastVotes(address,uint256)": "infinite",
			"getVotes(address)": "infinite",
			"initialize(address,address)": "infinite",
			"name()": "infinite",
			"nonces(address)": "infinite",
			"numCheckpoints(address)": "infinite",
			"owner()": "2375",
			"permit(address,address,uint256,uint256,uint8,bytes32,bytes32)": "infinite",
			"proxiableUUID()": "infinite",
			"renounceOwnership()": "infinite",
			"symbol()": "infinite",
			"totalSupply()": "2371",
			"transfer(address,uint256)": "infinite",
			"transferFrom(address,address,uint256)": "infinite",
			"transferOwnership(address)": "28475",
			"upgradeToAndCall(address,bytes)": "infinite"
		},
		"Internal": {
			"_authorizeUpgrade(address)": "infinite",
			"_update(address,address,uint256)": "infinite"
		}
	},
	"devdoc": {
		"custom:security-contact": "rucryptowhale@gmail.com",
		"errors": {
			"AddressEmptyCode(address)": [
				{
					"details": "There's no code at `target` (it is not a contract)."
				}
			],
			"CheckpointUnorderedInsertion()": [
				{
					"details": "A value was attempted to be inserted on a past checkpoint."
				}
			],
			"ECDSAInvalidSignature()": [
				{
					"details": "The signature derives the `address(0)`."
				}
			],
			"ECDSAInvalidSignatureLength(uint256)": [
				{
					"details": "The signature has an invalid length."
				}
			],
			"ECDSAInvalidSignatureS(bytes32)": [
				{
					"details": "The signature has an S value that is in the upper half order."
				}
			],
			"ERC1967InvalidImplementation(address)": [
				{
					"details": "The `implementation` of the proxy is invalid."
				}
			],
			"ERC1967NonPayable()": [
				{
					"details": "An upgrade function sees `msg.value > 0` that may be lost."
				}
			],
			"ERC20ExceededSafeSupply(uint256,uint256)": [
				{
					"details": "Total supply cap has been exceeded, introducing a risk of votes overflowing."
				}
			],
			"ERC20InsufficientAllowance(address,uint256,uint256)": [
				{
					"details": "Indicates a failure with the `spender`s `allowance`. Used in transfers.",
					"params": {
						"allowance": "Amount of tokens a `spender` is allowed to operate with.",
						"needed": "Minimum amount required to perform a transfer.",
						"spender": "Address that may be allowed to operate on tokens without being their owner."
					}
				}
			],
			"ERC20InsufficientBalance(address,uint256,uint256)": [
				{
					"details": "Indicates an error related to the current `balance` of a `sender`. Used in transfers.",
					"params": {
						"balance": "Current balance for the interacting account.",
						"needed": "Minimum amount required to perform a transfer.",
						"sender": "Address whose tokens are being transferred."
					}
				}
			],
			"ERC20InvalidApprover(address)": [
				{
					"details": "Indicates a failure with the `approver` of a token to be approved. Used in approvals.",
					"params": {
						"approver": "Address initiating an approval operation."
					}
				}
			],
			"ERC20InvalidReceiver(address)": [
				{
					"details": "Indicates a failure with the token `receiver`. Used in transfers.",
					"params": {
						"receiver": "Address to which tokens are being transferred."
					}
				}
			],
			"ERC20InvalidSender(address)": [
				{
					"details": "Indicates a failure with the token `sender`. Used in transfers.",
					"params": {
						"sender": "Address whose tokens are being transferred."
					}
				}
			],
			"ERC20InvalidSpender(address)": [
				{
					"details": "Indicates a failure with the `spender` to be approved. Used in approvals.",
					"params": {
						"spender": "Address that may be allowed to operate on tokens without being their owner."
					}
				}
			],
			"ERC2612ExpiredSignature(uint256)": [
				{
					"details": "Permit deadline has expired."
				}
			],
			"ERC2612InvalidSigner(address,address)": [
				{
					"details": "Mismatched signature."
				}
			],
			"ERC5805FutureLookup(uint256,uint48)": [
				{
					"details": "Lookup to future votes is not available."
				}
			],
			"ERC6372InconsistentClock()": [
				{
					"details": "The clock was incorrectly modified."
				}
			],
			"FailedCall()": [
				{
					"details": "A call to an address target failed. The target may have reverted."
				}
			],
			"InvalidAccountNonce(address,uint256)": [
				{
					"details": "The nonce used for an `account` is not the expected current nonce."
				}
			],
			"InvalidInitialization()": [
				{
					"details": "The contract is already initialized."
				}
			],
			"NotInitializing()": [
				{
					"details": "The contract is not initializing."
				}
			],
			"OwnableInvalidOwner(address)": [
				{
					"details": "The owner is not a valid owner account. (eg. `address(0)`)"
				}
			],
			"OwnableUnauthorizedAccount(address)": [
				{
					"details": "The caller account is not authorized to perform an operation."
				}
			],
			"SafeCastOverflowedUintDowncast(uint8,uint256)": [
				{
					"details": "Value doesn't fit in an uint of `bits` size."
				}
			],
			"UUPSUnauthorizedCallContext()": [
				{
					"details": "The call is from an unauthorized context."
				}
			],
			"UUPSUnsupportedProxiableUUID(bytes32)": [
				{
					"details": "The storage `slot` is unsupported as a UUID."
				}
			],
			"VotesExpiredSignature(uint256)": [
				{
					"details": "The signature used has expired."
				}
			]
		},
		"events": {
			"Approval(address,address,uint256)": {
				"details": "Emitted when the allowance of a `spender` for an `owner` is set by a call to {approve}. `value` is the new allowance."
			},
			"DelegateChanged(address,address,address)": {
				"details": "Emitted when an account changes their delegate."
			},
			"DelegateVotesChanged(address,uint256,uint256)": {
				"details": "Emitted when a token transfer or delegate change results in changes to a delegate's number of voting units."
			},
			"EIP712DomainChanged()": {
				"details": "MAY be emitted to signal that the domain could have changed."
			},
			"Initialized(uint64)": {
				"details": "Triggered when the contract has been initialized or reinitialized."
			},
			"Transfer(address,address,uint256)": {
				"details": "Emitted when `value` tokens are moved from one account (`from`) to another (`to`). Note that `value` may be zero."
			},
			"Upgraded(address)": {
				"details": "Emitted when the implementation is upgraded."
			}
		},
		"kind": "dev",
		"methods": {
			"CLOCK_MODE()": {
				"details": "Machine-readable description of the clock as specified in ERC-6372."
			},
			"DOMAIN_SEPARATOR()": {
				"details": "Returns the domain separator used in the encoding of the signature for {permit}, as defined by {EIP712}."
			},
			"allowance(address,address)": {
				"details": "See {IERC20-allowance}."
			},
			"approve(address,uint256)": {
				"details": "See {IERC20-approve}. NOTE: If `value` is the maximum `uint256`, the allowance is not updated on `transferFrom`. This is semantically equivalent to an infinite approval. Requirements: - `spender` cannot be the zero address."
			},
			"balanceOf(address)": {
				"details": "See {IERC20-balanceOf}."
			},
			"checkpoints(address,uint32)": {
				"details": "Get the `pos`-th checkpoint for `account`."
			},
			"clock()": {
				"details": "Clock used for flagging checkpoints. Can be overridden to implement timestamp based checkpoints (and voting), in which case {CLOCK_MODE} should be overridden as well to match."
			},
			"constructor": {
				"custom:oz-upgrades-unsafe-allow": "constructor"
			},
			"decimals()": {
				"details": "Returns the number of decimals used to get its user representation. For example, if `decimals` equals `2`, a balance of `505` tokens should be displayed to a user as `5.05` (`505 / 10 ** 2`). Tokens usually opt for a value of 18, imitating the relationship between Ether and Wei. This is the default value returned by this function, unless it's overridden. NOTE: This information is only used for _display_ purposes: it in no way affects any of the arithmetic of the contract, including {IERC20-balanceOf} and {IERC20-transfer}."
			},
			"delegate(address)": {
				"details": "Delegates votes from the sender to `delegatee`."
			},
			"delegateBySig(address,uint256,uint256,uint8,bytes32,bytes32)": {
				"details": "Delegates votes from signer to `delegatee`."
			},
			"delegates(address)": {
				"details": "Returns the delegate that `account` has chosen."
			},
			"eip712Domain()": {
				"details": "See {IERC-5267}."
			},
			"getPastTotalSupply(uint256)": {
				"details": "Returns the total supply of votes available at a specific moment in the past. If the `clock()` is configured to use block numbers, this will return the value at the end of the corresponding block. NOTE: This value is the sum of all available votes, which is not necessarily the sum of all delegated votes. Votes that have not been delegated are still part of total supply, even though they would not participate in a vote. Requirements: - `timepoint` must be in the past. If operating using block numbers, the block must be already mined."
			},
			"getPastVotes(address,uint256)": {
				"details": "Returns the amount of votes that `account` had at a specific moment in the past. If the `clock()` is configured to use block numbers, this will return the value at the end of the corresponding block. Requirements: - `timepoint` must be in the past. If operating using block numbers, the block must be already mined."
			},
			"getVotes(address)": {
				"details": "Returns the current amount of votes that `account` has."
			},
			"name()": {
				"details": "Returns the name of the token."
			},
			"numCheckpoints(address)": {
				"details": "Get number of checkpoints for `account`."
			},
			"owner()": {
				"details": "Returns the address of the current owner."
			},
			"permit(address,address,uint256,uint256,uint8,bytes32,bytes32)": {
				"details": "Sets `value` as the allowance of `spender` over ``owner``'s tokens, given ``owner``'s signed approval. IMPORTANT: The same issues {IERC20-approve} has related to transaction ordering also apply here. Emits an {Approval} event. Requirements: - `spender` cannot be the zero address. - `deadline` must be a timestamp in the future. - `v`, `r` and `s` must be a valid `secp256k1` signature from `owner` over the EIP712-formatted function arguments. - the signature must use ``owner``'s current nonce (see {nonces}). For more information on the signature format, see the https://eips.ethereum.org/EIPS/eip-2612#specification[relevant EIP section]. CAUTION: See Security Considerations above."
			},
			"proxiableUUID()": {
				"details": "Implementation of the ERC-1822 {proxiableUUID} function. This returns the storage slot used by the implementation. It is used to validate the implementation's compatibility when performing an upgrade. IMPORTANT: A proxy pointing at a proxiable contract should not be considered proxiable itself, because this risks bricking a proxy that upgrades to it, by delegating to itself until out of gas. Thus it is critical that this function revert if invoked through a proxy. This is guaranteed by the `notDelegated` modifier."
			},
			"renounceOwnership()": {
				"details": "Leaves the contract without owner. It will not be possible to call `onlyOwner` functions. Can only be called by the current owner. NOTE: Renouncing ownership will leave the contract without an owner, thereby disabling any functionality that is only available to the owner."
			},
			"symbol()": {
				"details": "Returns the symbol of the token, usually a shorter version of the name."
			},
			"totalSupply()": {
				"details": "See {IERC20-totalSupply}."
			},
			"transfer(address,uint256)": {
				"details": "See {IERC20-transfer}. Requirements: - `to` cannot be the zero address. - the caller must have a balance of at least `value`."
			},
			"transferFrom(address,address,uint256)": {
				"details": "See {IERC20-transferFrom}. Skips emitting an {Approval} event indicating an allowance update. This is not required by the ERC. See {xref-ERC20-_approve-address-address-uint256-bool-}[_approve]. NOTE: Does not update the allowance if the current allowance is the maximum `uint256`. Requirements: - `from` and `to` cannot be the zero address. - `from` must have a balance of at least `value`. - the caller must have allowance for ``from``'s tokens of at least `value`."
			},
			"transferOwnership(address)": {
				"details": "Transfers ownership of the contract to a new account (`newOwner`). Can only be called by the current owner."
			},
			"upgradeToAndCall(address,bytes)": {
				"custom:oz-upgrades-unsafe-allow-reachable": "delegatecall",
				"details": "Upgrade the implementation of the proxy to `newImplementation`, and subsequently execute the function call encoded in `data`. Calls {_authorizeUpgrade}. Emits an {Upgraded} event."
			}
		},
		"version": 1
	},
	"userdoc": {
		"kind": "user",
		"methods": {},
		"version": 1
	},
	"Runtime Bytecode": {
		"immutableReferences": {
			"1113": [
				{
					"length": 32,
					"start": 4128
				},
				{
					"length": 32,
					"start": 4169
				},
				{
					"length": 32,
					"start": 4488
				}
			]
		},
		"linkReferences": {},
		"object": "6080604052600436106101c5575f3560e01c8063715018a6116100f25780639ab24eb011610092578063d505accf11610062578063d505accf1461056b578063dd62ed3e1461058a578063f1127ed8146105a9578063f2fde38b146105f4575f80fd5b80639ab24eb0146104de578063a9059cbb146104fd578063ad3cb1cc1461051c578063c3cda5201461054c575f80fd5b80638da5cb5b116100cd5780638da5cb5b1461044d5780638e539e8c1461048957806391ddadf4146104a857806395d89b41146104ca575f80fd5b8063715018a6146103f35780637ecebe001461040757806384b0196e14610426575f80fd5b8063485cc95511610168578063587cde1e11610138578063587cde1e1461034a5780635c19a95c146103815780636fcfff45146103a057806370a08231146103d4575f80fd5b8063485cc955146102cc5780634bf5d7e9146102ed5780634f1ef2861461032357806352d1902d14610336575f80fd5b806323b872dd116101a357806323b872dd1461025f578063313ce5671461027e5780633644e515146102995780633a46b1a8146102ad575f80fd5b806306fdde03146101c9578063095ea7b3146101f357806318160ddd14610222575b5f80fd5b3480156101d4575f80fd5b506101dd610613565b6040516101ea9190612430565b60405180910390f35b3480156101fe575f80fd5b5061021261020d36600461245d565b6106b8565b60405190151581526020016101ea565b34801561022d575f80fd5b507f52c63247e1f47db19d5ce0460030c497f067ca4cebf71ba98eeadabe20bace02545b6040519081526020016101ea565b34801561026a575f80fd5b50610212610279366004612485565b6106d1565b348015610289575f80fd5b50604051601281526020016101ea565b3480156102a4575f80fd5b506102516106f6565b3480156102b8575f80fd5b506102516102c736600461245d565b610704565b3480156102d7575f80fd5b506102eb6102e63660046124be565b61074f565b005b3480156102f8575f80fd5b5060408051808201909152600e81526d06d6f64653d74696d657374616d760941b60208201526101dd565b6102eb610331366004612503565b61090b565b348015610341575f80fd5b5061025161092a565b348015610355575f80fd5b506103696103643660046125bf565b610945565b6040516001600160a01b0390911681526020016101ea565b34801561038c575f80fd5b506102eb61039b3660046125bf565b61096e565b3480156103ab575f80fd5b506103bf6103ba3660046125bf565b610979565b60405163ffffffff90911681526020016101ea565b3480156103df575f80fd5b506102516103ee3660046125bf565b610983565b3480156103fe575f80fd5b506102eb6109b3565b348015610412575f80fd5b506102516104213660046125bf565b6109c6565b348015610431575f80fd5b5061043a6109d0565b6040516101ea97969594939291906125d8565b348015610458575f80fd5b507f9016d09d72d40fdae2fd8ceac6b6234c7706214fd39c1cd1e609a0528c199300546001600160a01b0316610369565b348015610494575f80fd5b506102516104a336600461266f565b610a7e565b3480156104b3575f80fd5b5060405165ffffffffffff421681526020016101ea565b3480156104d5575f80fd5b506101dd610ab3565b3480156104e9575f80fd5b506102516104f83660046125bf565b610af1565b348015610508575f80fd5b5061021261051736600461245d565b610b3f565b348015610527575f80fd5b506101dd604051806040016040528060058152602001640352e302e360dc1b81525081565b348015610557575f80fd5b506102eb610566366004612696565b610b4c565b348015610576575f80fd5b506102eb6105853660046126ea565b610bff565b348015610595575f80fd5b506102516105a43660046124be565b610d18565b3480156105b4575f80fd5b506105c86105c336600461274f565b610d61565b60408051825165ffffffffffff1681526020928301516001600160d01b031692810192909252016101ea565b3480156105ff575f80fd5b506102eb61060e3660046125bf565b610d7e565b60605f5f80516020612afc8339815191525b90508060030180546106369061278c565b80601f01602080910402602001604051908101604052809291908181526020018280546106629061278c565b80156106ad5780601f10610684576101008083540402835291602001916106ad565b820191905f5260205f20905b81548152906001019060200180831161069057829003601f168201915b505050505091505090565b5f336106c5818585610dbb565b60019150505b92915050565b5f336106de858285610dcd565b6106e9858585610e31565b60019150505b9392505050565b5f6106ff610e8e565b905090565b5f5f80516020612adc83398151915261073e61071f84610e97565b6001600160a01b0386165f908152600184016020526040902090610edb565b6001600160d01b0316949350505050565b7ff0c57e16840df040f15088dc2f81fe391c3923bec73e23a9662efc9c229c6a008054600160401b810460ff16159067ffffffffffffffff165f811580156107945750825b90505f8267ffffffffffffffff1660011480156107b05750303b155b9050811580156107be575080155b156107dc5760405163f92ee8a960e01b815260040160405180910390fd5b845467ffffffffffffffff19166001178555831561080657845460ff60401b1916600160401b1785555b6108516040518060400160405280600e81526020016d4e6578742050726f20566973746160901b8152506040518060400160405280600381526020016227282b60e91b815250610f8b565b6108806040518060400160405280600e81526020016d4e6578742050726f20566973746160901b815250610f9d565b610888610fc8565b61089186610fd0565b610899610fc8565b6108bc876108a96012600a6128b8565b6108b7906316bf96c96128c6565b610fe1565b831561090257845460ff60401b19168555604051600181527fc7f505b2f371ae2175ee4913f4499e1f2633a7b5936321eed1cdaeb6115181d29060200160405180910390a15b50505050505050565b610913611015565b61091c826110b9565b61092682826110c1565b5050565b5f61093361117d565b505f80516020612b3c83398151915290565b6001600160a01b039081165f9081525f80516020612adc83398151915260205260409020541690565b3361092681836111c6565b5f6106cb8261124d565b5f805f80516020612afc8339815191525b6001600160a01b039093165f9081526020939093525050604090205490565b6109bb61129c565b6109c45f6112f7565b565b5f6106cb82611367565b5f60608082808083815f80516020612b1c83398151915280549091501580156109fb57506001810154155b610a445760405162461bcd60e51b81526020600482015260156024820152741152540dcc4c8e88155b9a5b9a5d1a585b1a5e9959605a1b60448201526064015b60405180910390fd5b610a4c611371565b610a546113af565b604080515f80825260208201909252600f60f81b9c939b5091995046985030975095509350915050565b5f5f80516020612adc833981519152610aa3610a9984610e97565b6002830190610edb565b6001600160d01b03169392505050565b7f52c63247e1f47db19d5ce0460030c497f067ca4cebf71ba98eeadabe20bace0480546060915f80516020612afc833981519152916106369061278c565b6001600160a01b0381165f9081527fe8b26c30fad74198956032a3533d903385d56dd795af560196f9c78d4af40d01602052604081205f80516020612adc83398151915290610aa3906113c5565b5f336106c5818585610e31565b83421115610b7057604051632341d78760e11b815260048101859052602401610a3b565b604080517fe48329057bfd03d55e49b547132e39cffd9c1820ad7b9d4c5307691425d15adf60208201526001600160a01b0388169181019190915260608101869052608081018590525f90610be990610be19060a001604051602081830303815290604052805190602001206113fc565b858585611428565b9050610bf58187611454565b61090281886111c6565b83421115610c235760405163313c898160e11b815260048101859052602401610a3b565b5f7f6e71edae12b1b97f4d1f60370fef10105fa2faae0126114a169c64845d6126c9888888610c518c611492565b6040805160208101969096526001600160a01b0394851690860152929091166060840152608083015260a082015260c0810186905260e0016040516020818303038152906040528051906020012090505f610cab826113fc565b90505f610cba82878787611428565b9050896001600160a01b0316816001600160a01b031614610d01576040516325c0072360e11b81526001600160a01b0380831660048301528b166024820152604401610a3b565b610d0c8a8a8a610dbb565b50505050505050505050565b6001600160a01b039182165f9081527f52c63247e1f47db19d5ce0460030c497f067ca4cebf71ba98eeadabe20bace016020908152604080832093909416825291909152205490565b604080518082019091525f80825260208201526106ef83836114d3565b610d8661129c565b6001600160a01b038116610daf57604051631e4fbdf760e01b81525f6004820152602401610a3b565b610db8816112f7565b50565b610dc8838383600161153c565b505050565b5f610dd88484610d18565b90505f19811015610e2b5781811015610e1d57604051637dc7a0d960e11b81526001600160a01b03841660048201526024810182905260448101839052606401610a3b565b610e2b84848484035f61153c565b50505050565b6001600160a01b038316610e5a57604051634b637e8f60e11b81525f6004820152602401610a3b565b6001600160a01b038216610e835760405163ec442f0560e01b81525f6004820152602401610a3b565b610dc8838383611620565b5f6106ff61162b565b5f4265ffffffffffff81168310610ed257604051637669fc0f60e11b81526004810184905265ffffffffffff82166024820152604401610a3b565b6106ef8361169e565b81545f9081816005811115610f37575f610ef4846116d4565b610efe90856128dd565b5f8881526020902090915081015465ffffffffffff9081169087161015610f2757809150610f35565b610f328160016128f0565b92505b505b5f610f4487878585611827565b90508015610f7e57610f6887610f5b6001846128dd565b5f91825260209091200190565b54600160301b90046001600160d01b0316610f80565b5f5b979650505050505050565b610f93611886565b61092682826118cf565b610fa5611886565b610db881604051806040016040528060018152602001603160f81b81525061191f565b6109c4611886565b610fd8611886565b610db88161197e565b6001600160a01b03821661100a5760405163ec442f0560e01b81525f6004820152602401610a3b565b6109265f8383611620565b306001600160a01b037f000000000000000000000000000000000000000000000000000000000000000016148061109b57507f00000000000000000000000000000000000000000000000000000000000000006001600160a01b031661108f5f80516020612b3c833981519152546001600160a01b031690565b6001600160a01b031614155b156109c45760405163703e46dd60e11b815260040160405180910390fd5b610db861129c565b816001600160a01b03166352d1902d6040518163ffffffff1660e01b8152600401602060405180830381865afa92505050801561111b575060408051601f3d908101601f1916820190925261111891810190612903565b60015b61114357604051634c9c8ce360e01b81526001600160a01b0383166004820152602401610a3b565b5f80516020612b3c833981519152811461117357604051632a87526960e21b815260048101829052602401610a3b565b610dc88383611986565b306001600160a01b037f000000000000000000000000000000000000000000000000000000000000000016146109c45760405163703e46dd60e11b815260040160405180910390fd5b5f80516020612adc8339815191525f6111de84610945565b6001600160a01b038581165f8181526020869052604080822080546001600160a01b031916898616908117909155905194955093928516927f3134e8a2e6d97e929a7e54011ea5485d7d196dd5f0ba4d4ef95803e8e3fc257f9190a4610e2b8184611248876119db565b6119e5565b6001600160a01b0381165f9081527fe8b26c30fad74198956032a3533d903385d56dd795af560196f9c78d4af40d0160205260408120545f80516020612adc833981519152906106ef90611b5b565b336112ce7f9016d09d72d40fdae2fd8ceac6b6234c7706214fd39c1cd1e609a0528c199300546001600160a01b031690565b6001600160a01b0316146109c45760405163118cdaa760e01b8152336004820152602401610a3b565b7f9016d09d72d40fdae2fd8ceac6b6234c7706214fd39c1cd1e609a0528c19930080546001600160a01b031981166001600160a01b03848116918217845560405192169182907f8be0079c531659141344cd1fd0a4f28419497f9722a3daafe3b4186f6b6457e0905f90a3505050565b5f6106cb82611b8b565b7fa16a46d94261c7517cc8ff89f61c0ce93598e3c849801011dee649a6a557d10280546060915f80516020612b1c833981519152916106369061278c565b60605f5f80516020612b1c833981519152610625565b80545f9080156113f4576113de83610f5b6001846128dd565b54600160301b90046001600160d01b03166106ef565b5f9392505050565b5f6106cb611408610e8e565b8360405161190160f01b8152600281019290925260228201526042902090565b5f805f8061143888888888611bb3565b9250925092506114488282611c7b565b50909695505050505050565b5f61145e83611492565b9050808214610dc8576040516301d4b62360e61b81526001600160a01b038416600482015260248101829052604401610a3b565b6001600160a01b03165f9081527f5ab42ced628888259c08ac98db1eb0cf702fc1501344311d8b100cd1bfe4bb006020526040902080546001810190915590565b6040805180820182525f80825260208083018290526001600160a01b03861682527fe8b26c30fad74198956032a3533d903385d56dd795af560196f9c78d4af40d019052919091205f80516020612adc833981519152906115349084611d33565b949350505050565b5f80516020612afc8339815191526001600160a01b0385166115735760405163e602df0560e01b81525f6004820152602401610a3b565b6001600160a01b03841661159c57604051634a1406b160e11b81525f6004820152602401610a3b565b6001600160a01b038086165f9081526001830160209081526040808320938816835292905220839055811561161957836001600160a01b0316856001600160a01b03167f8c5be1e5ebec7d5bd14f71427d1e84f3dd0314c0f7b2291e5b200ac8c7c3b9258560405161161091815260200190565b60405180910390a35b5050505050565b610dc8838383611da0565b5f7f8b73c3c69bb8fe3d512ecc4cf759cc79239f7b179b0ffacaa9a75d522b39400f611655611e25565b61165d611e8d565b60408051602081019490945283019190915260608201524660808201523060a082015260c00160405160208183030381529060405280519060200120905090565b5f65ffffffffffff8211156116d0576040516306dfcc6560e41b81526030600482015260248101839052604401610a3b565b5090565b5f600182116116e1575090565b816001600160801b82106116fa5760809190911c9060401b5b600160401b82106117105760409190911c9060201b5b64010000000082106117275760209190911c9060101b5b62010000821061173c5760109190911c9060081b5b61010082106117505760089190911c9060041b5b601082106117635760049190911c9060021b5b6004821061176f5760011b5b600302600190811c908185816117875761178761291a565b048201901c9050600181858161179f5761179f61291a565b048201901c905060018185816117b7576117b761291a565b048201901c905060018185816117cf576117cf61291a565b048201901c905060018185816117e7576117e761291a565b048201901c905060018185816117ff576117ff61291a565b048201901c905061181e8185816118185761181861291a565b04821190565b90039392505050565b5f5b8183101561187e575f61183c8484611ecf565b5f8781526020902090915065ffffffffffff86169082015465ffffffffffff16111561186a57809250611878565b6118758160016128f0565b93505b50611829565b509392505050565b7ff0c57e16840df040f15088dc2f81fe391c3923bec73e23a9662efc9c229c6a0054600160401b900460ff166109c457604051631afcd79f60e31b815260040160405180910390fd5b6118d7611886565b5f80516020612afc8339815191527f52c63247e1f47db19d5ce0460030c497f067ca4cebf71ba98eeadabe20bace036119108482612972565b5060048101610e2b8382612972565b611927611886565b5f80516020612b1c8339815191527fa16a46d94261c7517cc8ff89f61c0ce93598e3c849801011dee649a6a557d1026119608482612972565b506003810161196f8382612972565b505f8082556001909101555050565b610d86611886565b61198f82611ee9565b6040516001600160a01b038316907fbc7cd75a20ee27fd9adebab32041f755214dbc6bffa90cc0225b39da2e5c2d3b905f90a28051156119d357610dc88282611f4c565b610926611fbe565b5f6106cb82610983565b5f80516020612adc8339815191526001600160a01b0384811690841614801590611a0e57505f82115b15610e2b576001600160a01b03841615611ab7576001600160a01b0384165f90815260018201602052604081208190611a5290611fdd611a4d87611fe8565b61201b565b6001600160d01b031691506001600160d01b03169150856001600160a01b03167fdec2bacdd2f05b59de34da9b523dff8be42e5e38e818c82fdb0bae774387a7248383604051611aac929190918252602082015260400190565b60405180910390a250505b6001600160a01b03831615610e2b576001600160a01b0383165f90815260018201602052604081208190611af19061204c611a4d87611fe8565b6001600160d01b031691506001600160d01b03169150846001600160a01b03167fdec2bacdd2f05b59de34da9b523dff8be42e5e38e818c82fdb0bae774387a7248383604051611b4b929190918252602082015260400190565b60405180910390a2505050505050565b5f63ffffffff8211156116d0576040516306dfcc6560e41b81526020600482015260248101839052604401610a3b565b5f807f5ab42ced628888259c08ac98db1eb0cf702fc1501344311d8b100cd1bfe4bb00610994565b5f80807f7fffffffffffffffffffffffffffffff5d576e7357a4501ddfe92f46681b20a0841115611bec57505f91506003905082611c71565b604080515f808252602082018084528a905260ff891692820192909252606081018790526080810186905260019060a0016020604051602081039080840390855afa158015611c3d573d5f803e3d5ffd5b5050604051601f1901519150506001600160a01b038116611c6857505f925060019150829050611c71565b92505f91508190505b9450945094915050565b5f826003811115611c8e57611c8e612a32565b03611c97575050565b6001826003811115611cab57611cab612a32565b03611cc95760405163f645eedf60e01b815260040160405180910390fd5b6002826003811115611cdd57611cdd612a32565b03611cfe5760405163fce698f760e01b815260048101829052602401610a3b565b6003826003811115611d1257611d12612a32565b03610926576040516335e2f38360e21b815260048101829052602401610a3b565b604080518082019091525f8082526020820152825f018263ffffffff1681548110611d6057611d60612a46565b5f9182526020918290206040805180820190915291015465ffffffffffff81168252600160301b90046001600160d01b0316918101919091529392505050565b611dab838383612057565b6001600160a01b038316611e1a575f611de27f52c63247e1f47db19d5ce0460030c497f067ca4cebf71ba98eeadabe20bace025490565b90506001600160d01b0380821115611e1757604051630e58ae9360e11b81526004810183905260248101829052604401610a3b565b50505b610dc8838383612190565b5f5f80516020612b1c83398151915281611e3d611371565b805190915015611e5557805160209091012092915050565b81548015611e64579392505050565b7fc5d2460186f7233c927e7db2dcc703c0e500b653ca82273b7bfad8045d85a470935050505090565b5f5f80516020612b1c83398151915281611ea56113af565b805190915015611ebd57805160209091012092915050565b60018201548015611e64579392505050565b5f611edd6002848418612a5a565b6106ef908484166128f0565b806001600160a01b03163b5f03611f1e57604051634c9c8ce360e01b81526001600160a01b0382166004820152602401610a3b565b5f80516020612b3c83398151915280546001600160a01b0319166001600160a01b0392909216919091179055565b60605f80846001600160a01b031684604051611f689190612a79565b5f60405180830381855af49150503d805f8114611fa0576040519150601f19603f3d011682016040523d82523d5f602084013e611fa5565b606091505b5091509150611fb5858383612201565b95945050505050565b34156109c45760405163b398979f60e01b815260040160405180910390fd5b5f6106ef8284612a94565b5f6001600160d01b038211156116d0576040516306dfcc6560e41b815260d0600482015260248101839052604401610a3b565b5f8061203f4261203761202d886113c5565b868863ffffffff16565b87919061225d565b915091505b935093915050565b5f6106ef8284612abb565b5f80516020612afc8339815191526001600160a01b0384166120915781816002015f82825461208691906128f0565b909155506121019050565b6001600160a01b0384165f90815260208290526040902054828110156120e35760405163391434e360e21b81526001600160a01b03861660048201526024810182905260448101849052606401610a3b565b6001600160a01b0385165f9081526020839052604090209083900390555b6001600160a01b03831661211f57600281018054839003905561213d565b6001600160a01b0383165f9081526020829052604090208054830190555b826001600160a01b0316846001600160a01b03167fddf252ad1be2c89b69c2b068fc378daa952ba7f163c4a11628f55a4df523b3ef8460405161218291815260200190565b60405180910390a350505050565b5f80516020612adc8339815191526001600160a01b0384166121c2576121bf8160020161204c611a4d85611fe8565b50505b6001600160a01b0383166121e6576121e381600201611fdd611a4d85611fe8565b50505b610e2b6121f285610945565b6121fb85610945565b846119e5565b606082612216576122118261226a565b6106ef565b815115801561222d57506001600160a01b0384163b155b1561225657604051639996b31560e01b81526001600160a01b0385166004820152602401610a3b565b50806106ef565b5f8061203f858585612293565b80511561227a5780518082602001fd5b60405163d6bda27560e01b815260040160405180910390fd5b82545f9081908015612389575f6122af87610f5b6001856128dd565b805490915065ffffffffffff80821691600160301b90046001600160d01b03169088168211156122f257604051632520601d60e01b815260040160405180910390fd5b8765ffffffffffff168265ffffffffffff160361232b57825465ffffffffffff16600160301b6001600160d01b0389160217835561237b565b6040805180820190915265ffffffffffff808a1682526001600160d01b03808a1660208085019182528d54600181018f555f8f81529190912094519151909216600160301b029216919091179101555b945085935061204492505050565b50506040805180820190915265ffffffffffff80851682526001600160d01b0380851660208085019182528854600181018a555f8a815291822095519251909316600160301b029190931617920191909155905081612044565b5f5b838110156123fd5781810151838201526020016123e5565b50505f910152565b5f815180845261241c8160208601602086016123e3565b601f01601f19169290920160200192915050565b602081525f6106ef6020830184612405565b80356001600160a01b0381168114612458575f80fd5b919050565b5f806040838503121561246e575f80fd5b61247783612442565b946020939093013593505050565b5f805f60608486031215612497575f80fd5b6124a084612442565b92506124ae60208501612442565b9150604084013590509250925092565b5f80604083850312156124cf575f80fd5b6124d883612442565b91506124e660208401612442565b90509250929050565b634e487b7160e01b5f52604160045260245ffd5b5f8060408385031215612514575f80fd5b61251d83612442565b9150602083013567ffffffffffffffff80821115612539575f80fd5b818501915085601f83011261254c575f80fd5b81358181111561255e5761255e6124ef565b604051601f8201601f19908116603f01168101908382118183101715612586576125866124ef565b8160405282815288602084870101111561259e575f80fd5b826020860160208301375f6020848301015280955050505050509250929050565b5f602082840312156125cf575f80fd5b6106ef82612442565b60ff60f81b881681525f602060e060208401526125f860e084018a612405565b838103604085015261260a818a612405565b606085018990526001600160a01b038816608086015260a0850187905284810360c0860152855180825260208088019350909101905f5b8181101561265d57835183529284019291840191600101612641565b50909c9b505050505050505050505050565b5f6020828403121561267f575f80fd5b5035919050565b803560ff81168114612458575f80fd5b5f805f805f8060c087890312156126ab575f80fd5b6126b487612442565b955060208701359450604087013593506126d060608801612686565b92506080870135915060a087013590509295509295509295565b5f805f805f805f60e0888a031215612700575f80fd5b61270988612442565b965061271760208901612442565b9550604088013594506060880135935061273360808901612686565b925060a0880135915060c0880135905092959891949750929550565b5f8060408385031215612760575f80fd5b61276983612442565b9150602083013563ffffffff81168114612781575f80fd5b809150509250929050565b600181811c908216806127a057607f821691505b6020821081036127be57634e487b7160e01b5f52602260045260245ffd5b50919050565b634e487b7160e01b5f52601160045260245ffd5b600181815b8085111561281257815f19048211156127f8576127f86127c4565b8085161561280557918102915b93841c93908002906127dd565b509250929050565b5f82612828575060016106cb565b8161283457505f6106cb565b816001811461284a576002811461285457612870565b60019150506106cb565b60ff841115612865576128656127c4565b50506001821b6106cb565b5060208310610133831016604e8410600b8410161715612893575081810a6106cb565b61289d83836127d8565b805f19048211156128b0576128b06127c4565b029392505050565b5f6106ef60ff84168361281a565b80820281158282048414176106cb576106cb6127c4565b818103818111156106cb576106cb6127c4565b808201808211156106cb576106cb6127c4565b5f60208284031215612913575f80fd5b5051919050565b634e487b7160e01b5f52601260045260245ffd5b601f821115610dc857805f5260205f20601f840160051c810160208510156129535750805b601f840160051c820191505b81811015611619575f815560010161295f565b815167ffffffffffffffff81111561298c5761298c6124ef565b6129a08161299a845461278c565b8461292e565b602080601f8311600181146129d3575f84156129bc5750858301515b5f19600386901b1c1916600185901b178555612a2a565b5f85815260208120601f198616915b82811015612a01578886015182559484019460019091019084016129e2565b5085821015612a1e57878501515f19600388901b60f8161c191681555b505060018460011b0185555b505050505050565b634e487b7160e01b5f52602160045260245ffd5b634e487b7160e01b5f52603260045260245ffd5b5f82612a7457634e487b7160e01b5f52601260045260245ffd5b500490565b5f8251612a8a8184602087016123e3565b9190910192915050565b6001600160d01b03828116828216039080821115612ab457612ab46127c4565b5092915050565b6001600160d01b03818116838216019080821115612ab457612ab46127c456fee8b26c30fad74198956032a3533d903385d56dd795af560196f9c78d4af40d0052c63247e1f47db19d5ce0460030c497f067ca4cebf71ba98eeadabe20bace00a16a46d94261c7517cc8ff89f61c0ce93598e3c849801011dee649a6a557d100360894a13ba1a3210667c828492db98dca3e2076cc3735a920a3ca505d382bbca2646970667358221220ca54c6c59aca917cfd139c6ebb26882ae2ff0ba831e27d74043d1b416a13538764736f6c63430008160033",
		"opcodes": "PUSH1 0x80 PUSH1 0x40 MSTORE PUSH1 0x4 CALLDATASIZE LT PUSH2 0x1C5 JUMPI PUSH0 CALLDATALOAD PUSH1 0xE0 SHR DUP1 PUSH4 0x715018A6 GT PUSH2 0xF2 JUMPI DUP1 PUSH4 0x9AB24EB0 GT PUSH2 0x92 JUMPI DUP1 PUSH4 0xD505ACCF GT PUSH2 0x62 JUMPI DUP1 PUSH4 0xD505ACCF EQ PUSH2 0x56B JUMPI DUP1 PUSH4 0xDD62ED3E EQ PUSH2 0x58A JUMPI DUP1 PUSH4 0xF1127ED8 EQ PUSH2 0x5A9 JUMPI DUP1 PUSH4 0xF2FDE38B EQ PUSH2 0x5F4 JUMPI PUSH0 DUP1 REVERT JUMPDEST DUP1 PUSH4 0x9AB24EB0 EQ PUSH2 0x4DE JUMPI DUP1 PUSH4 0xA9059CBB EQ PUSH2 0x4FD JUMPI DUP1 PUSH4 0xAD3CB1CC EQ PUSH2 0x51C JUMPI DUP1 PUSH4 0xC3CDA520 EQ PUSH2 0x54C JUMPI PUSH0 DUP1 REVERT JUMPDEST DUP1 PUSH4 0x8DA5CB5B GT PUSH2 0xCD JUMPI DUP1 PUSH4 0x8DA5CB5B EQ PUSH2 0x44D JUMPI DUP1 PUSH4 0x8E539E8C EQ PUSH2 0x489 JUMPI DUP1 PUSH4 0x91DDADF4 EQ PUSH2 0x4A8 JUMPI DUP1 PUSH4 0x95D89B41 EQ PUSH2 0x4CA JUMPI PUSH0 DUP1 REVERT JUMPDEST DUP1 PUSH4 0x715018A6 EQ PUSH2 0x3F3 JUMPI DUP1 PUSH4 0x7ECEBE00 EQ PUSH2 0x407 JUMPI DUP1 PUSH4 0x84B0196E EQ PUSH2 0x426 JUMPI PUSH0 DUP1 REVERT JUMPDEST DUP1 PUSH4 0x485CC955 GT PUSH2 0x168 JUMPI DUP1 PUSH4 0x587CDE1E GT PUSH2 0x138 JUMPI DUP1 PUSH4 0x587CDE1E EQ PUSH2 0x34A JUMPI DUP1 PUSH4 0x5C19A95C EQ PUSH2 0x381 JUMPI DUP1 PUSH4 0x6FCFFF45 EQ PUSH2 0x3A0 JUMPI DUP1 PUSH4 0x70A08231 EQ PUSH2 0x3D4 JUMPI PUSH0 DUP1 REVERT JUMPDEST DUP1 PUSH4 0x485CC955 EQ PUSH2 0x2CC JUMPI DUP1 PUSH4 0x4BF5D7E9 EQ PUSH2 0x2ED JUMPI DUP1 PUSH4 0x4F1EF286 EQ PUSH2 0x323 JUMPI DUP1 PUSH4 0x52D1902D EQ PUSH2 0x336 JUMPI PUSH0 DUP1 REVERT JUMPDEST DUP1 PUSH4 0x23B872DD GT PUSH2 0x1A3 JUMPI DUP1 PUSH4 0x23B872DD EQ PUSH2 0x25F JUMPI DUP1 PUSH4 0x313CE567 EQ PUSH2 0x27E JUMPI DUP1 PUSH4 0x3644E515 EQ PUSH2 0x299 JUMPI DUP1 PUSH4 0x3A46B1A8 EQ PUSH2 0x2AD JUMPI PUSH0 DUP1 REVERT JUMPDEST DUP1 PUSH4 0x6FDDE03 EQ PUSH2 0x1C9 JUMPI DUP1 PUSH4 0x95EA7B3 EQ PUSH2 0x1F3 JUMPI DUP1 PUSH4 0x18160DDD EQ PUSH2 0x222 JUMPI JUMPDEST PUSH0 DUP1 REVERT JUMPDEST CALLVALUE DUP1 ISZERO PUSH2 0x1D4 JUMPI PUSH0 DUP1 REVERT JUMPDEST POP PUSH2 0x1DD PUSH2 0x613 JUMP JUMPDEST PUSH1 0x40 MLOAD PUSH2 0x1EA SWAP2 SWAP1 PUSH2 0x2430 JUMP JUMPDEST PUSH1 0x40 MLOAD DUP1 SWAP2 SUB SWAP1 RETURN JUMPDEST CALLVALUE DUP1 ISZERO PUSH2 0x1FE JUMPI PUSH0 DUP1 REVERT JUMPDEST POP PUSH2 0x212 PUSH2 0x20D CALLDATASIZE PUSH1 0x4 PUSH2 0x245D JUMP JUMPDEST PUSH2 0x6B8 JUMP JUMPDEST PUSH1 0x40 MLOAD SWAP1 ISZERO ISZERO DUP2 MSTORE PUSH1 0x20 ADD PUSH2 0x1EA JUMP JUMPDEST CALLVALUE DUP1 ISZERO PUSH2 0x22D JUMPI PUSH0 DUP1 REVERT JUMPDEST POP PUSH32 0x52C63247E1F47DB19D5CE0460030C497F067CA4CEBF71BA98EEADABE20BACE02 SLOAD JUMPDEST PUSH1 0x40 MLOAD SWAP1 DUP2 MSTORE PUSH1 0x20 ADD PUSH2 0x1EA JUMP JUMPDEST CALLVALUE DUP1 ISZERO PUSH2 0x26A JUMPI PUSH0 DUP1 REVERT JUMPDEST POP PUSH2 0x212 PUSH2 0x279 CALLDATASIZE PUSH1 0x4 PUSH2 0x2485 JUMP JUMPDEST PUSH2 0x6D1 JUMP JUMPDEST CALLVALUE DUP1 ISZERO PUSH2 0x289 JUMPI PUSH0 DUP1 REVERT JUMPDEST POP PUSH1 0x40 MLOAD PUSH1 0x12 DUP2 MSTORE PUSH1 0x20 ADD PUSH2 0x1EA JUMP JUMPDEST CALLVALUE DUP1 ISZERO PUSH2 0x2A4 JUMPI PUSH0 DUP1 REVERT JUMPDEST POP PUSH2 0x251 PUSH2 0x6F6 JUMP JUMPDEST CALLVALUE DUP1 ISZERO PUSH2 0x2B8 JUMPI PUSH0 DUP1 REVERT JUMPDEST POP PUSH2 0x251 PUSH2 0x2C7 CALLDATASIZE PUSH1 0x4 PUSH2 0x245D JUMP JUMPDEST PUSH2 0x704 JUMP JUMPDEST CALLVALUE DUP1 ISZERO PUSH2 0x2D7 JUMPI PUSH0 DUP1 REVERT JUMPDEST POP PUSH2 0x2EB PUSH2 0x2E6 CALLDATASIZE PUSH1 0x4 PUSH2 0x24BE JUMP JUMPDEST PUSH2 0x74F JUMP JUMPDEST STOP JUMPDEST CALLVALUE DUP1 ISZERO PUSH2 0x2F8 JUMPI PUSH0 DUP1 REVERT JUMPDEST POP PUSH1 0x40 DUP1 MLOAD DUP1 DUP3 ADD SWAP1 SWAP2 MSTORE PUSH1 0xE DUP2 MSTORE PUSH14 0x6D6F64653D74696D657374616D7 PUSH1 0x94 SHL PUSH1 0x20 DUP3 ADD MSTORE PUSH2 0x1DD JUMP JUMPDEST PUSH2 0x2EB PUSH2 0x331 CALLDATASIZE PUSH1 0x4 PUSH2 0x2503 JUMP JUMPDEST PUSH2 0x90B JUMP JUMPDEST CALLVALUE DUP1 ISZERO PUSH2 0x341 JUMPI PUSH0 DUP1 REVERT JUMPDEST POP PUSH2 0x251 PUSH2 0x92A JUMP JUMPDEST CALLVALUE DUP1 ISZERO PUSH2 0x355 JUMPI PUSH0 DUP1 REVERT JUMPDEST POP PUSH2 0x369 PUSH2 0x364 CALLDATASIZE PUSH1 0x4 PUSH2 0x25BF JUMP JUMPDEST PUSH2 0x945 JUMP JUMPDEST PUSH1 0x40 MLOAD PUSH1 0x1 PUSH1 0x1 PUSH1 0xA0 SHL SUB SWAP1 SWAP2 AND DUP2 MSTORE PUSH1 0x20 ADD PUSH2 0x1EA JUMP JUMPDEST CALLVALUE DUP1 ISZERO PUSH2 0x38C JUMPI PUSH0 DUP1 REVERT JUMPDEST POP PUSH2 0x2EB PUSH2 0x39B CALLDATASIZE PUSH1 0x4 PUSH2 0x25BF JUMP JUMPDEST PUSH2 0x96E JUMP JUMPDEST CALLVALUE DUP1 ISZERO PUSH2 0x3AB JUMPI PUSH0 DUP1 REVERT JUMPDEST POP PUSH2 0x3BF PUSH2 0x3BA CALLDATASIZE PUSH1 0x4 PUSH2 0x25BF JUMP JUMPDEST PUSH2 0x979 JUMP JUMPDEST PUSH1 0x40 MLOAD PUSH4 0xFFFFFFFF SWAP1 SWAP2 AND DUP2 MSTORE PUSH1 0x20 ADD PUSH2 0x1EA JUMP JUMPDEST CALLVALUE DUP1 ISZERO PUSH2 0x3DF JUMPI PUSH0 DUP1 REVERT JUMPDEST POP PUSH2 0x251 PUSH2 0x3EE CALLDATASIZE PUSH1 0x4 PUSH2 0x25BF JUMP JUMPDEST PUSH2 0x983 JUMP JUMPDEST CALLVALUE DUP1 ISZERO PUSH2 0x3FE JUMPI PUSH0 DUP1 REVERT JUMPDEST POP PUSH2 0x2EB PUSH2 0x9B3 JUMP JUMPDEST CALLVALUE DUP1 ISZERO PUSH2 0x412 JUMPI PUSH0 DUP1 REVERT JUMPDEST POP PUSH2 0x251 PUSH2 0x421 CALLDATASIZE PUSH1 0x4 PUSH2 0x25BF JUMP JUMPDEST PUSH2 0x9C6 JUMP JUMPDEST CALLVALUE DUP1 ISZERO PUSH2 0x431 JUMPI PUSH0 DUP1 REVERT JUMPDEST POP PUSH2 0x43A PUSH2 0x9D0 JUMP JUMPDEST PUSH1 0x40 MLOAD PUSH2 0x1EA SWAP8 SWAP7 SWAP6 SWAP5 SWAP4 SWAP3 SWAP2 SWAP1 PUSH2 0x25D8 JUMP JUMPDEST CALLVALUE DUP1 ISZERO PUSH2 0x458 JUMPI PUSH0 DUP1 REVERT JUMPDEST POP PUSH32 0x9016D09D72D40FDAE2FD8CEAC6B6234C7706214FD39C1CD1E609A0528C199300 SLOAD PUSH1 0x1 PUSH1 0x1 PUSH1 0xA0 SHL SUB AND PUSH2 0x369 JUMP JUMPDEST CALLVALUE DUP1 ISZERO PUSH2 0x494 JUMPI PUSH0 DUP1 REVERT JUMPDEST POP PUSH2 0x251 PUSH2 0x4A3 CALLDATASIZE PUSH1 0x4 PUSH2 0x266F JUMP JUMPDEST PUSH2 0xA7E JUMP JUMPDEST CALLVALUE DUP1 ISZERO PUSH2 0x4B3 JUMPI PUSH0 DUP1 REVERT JUMPDEST POP PUSH1 0x40 MLOAD PUSH6 0xFFFFFFFFFFFF TIMESTAMP AND DUP2 MSTORE PUSH1 0x20 ADD PUSH2 0x1EA JUMP JUMPDEST CALLVALUE DUP1 ISZERO PUSH2 0x4D5 JUMPI PUSH0 DUP1 REVERT JUMPDEST POP PUSH2 0x1DD PUSH2 0xAB3 JUMP JUMPDEST CALLVALUE DUP1 ISZERO PUSH2 0x4E9 JUMPI PUSH0 DUP1 REVERT JUMPDEST POP PUSH2 0x251 PUSH2 0x4F8 CALLDATASIZE PUSH1 0x4 PUSH2 0x25BF JUMP JUMPDEST PUSH2 0xAF1 JUMP JUMPDEST CALLVALUE DUP1 ISZERO PUSH2 0x508 JUMPI PUSH0 DUP1 REVERT JUMPDEST POP PUSH2 0x212 PUSH2 0x517 CALLDATASIZE PUSH1 0x4 PUSH2 0x245D JUMP JUMPDEST PUSH2 0xB3F JUMP JUMPDEST CALLVALUE DUP1 ISZERO PUSH2 0x527 JUMPI PUSH0 DUP1 REVERT JUMPDEST POP PUSH2 0x1DD PUSH1 0x40 MLOAD DUP1 PUSH1 0x40 ADD PUSH1 0x40 MSTORE DUP1 PUSH1 0x5 DUP2 MSTORE PUSH1 0x20 ADD PUSH5 0x352E302E3 PUSH1 0xDC SHL DUP2 MSTORE POP DUP2 JUMP JUMPDEST CALLVALUE DUP1 ISZERO PUSH2 0x557 JUMPI PUSH0 DUP1 REVERT JUMPDEST POP PUSH2 0x2EB PUSH2 0x566 CALLDATASIZE PUSH1 0x4 PUSH2 0x2696 JUMP JUMPDEST PUSH2 0xB4C JUMP JUMPDEST CALLVALUE DUP1 ISZERO PUSH2 0x576 JUMPI PUSH0 DUP1 REVERT JUMPDEST POP PUSH2 0x2EB PUSH2 0x585 CALLDATASIZE PUSH1 0x4 PUSH2 0x26EA JUMP JUMPDEST PUSH2 0xBFF JUMP JUMPDEST CALLVALUE DUP1 ISZERO PUSH2 0x595 JUMPI PUSH0 DUP1 REVERT JUMPDEST POP PUSH2 0x251 PUSH2 0x5A4 CALLDATASIZE PUSH1 0x4 PUSH2 0x24BE JUMP JUMPDEST PUSH2 0xD18 JUMP JUMPDEST CALLVALUE DUP1 ISZERO PUSH2 0x5B4 JUMPI PUSH0 DUP1 REVERT JUMPDEST POP PUSH2 0x5C8 PUSH2 0x5C3 CALLDATASIZE PUSH1 0x4 PUSH2 0x274F JUMP JUMPDEST PUSH2 0xD61 JUMP JUMPDEST PUSH1 0x40 DUP1 MLOAD DUP3 MLOAD PUSH6 0xFFFFFFFFFFFF AND DUP2 MSTORE PUSH1 0x20 SWAP3 DUP4 ADD MLOAD PUSH1 0x1 PUSH1 0x1 PUSH1 0xD0 SHL SUB AND SWAP3 DUP2 ADD SWAP3 SWAP1 SWAP3 MSTORE ADD PUSH2 0x1EA JUMP JUMPDEST CALLVALUE DUP1 ISZERO PUSH2 0x5FF JUMPI PUSH0 DUP1 REVERT JUMPDEST POP PUSH2 0x2EB PUSH2 0x60E CALLDATASIZE PUSH1 0x4 PUSH2 0x25BF JUMP JUMPDEST PUSH2 0xD7E JUMP JUMPDEST PUSH1 0x60 PUSH0 PUSH0 DUP1 MLOAD PUSH1 0x20 PUSH2 0x2AFC DUP4 CODECOPY DUP2 MLOAD SWAP2 MSTORE JUMPDEST SWAP1 POP DUP1 PUSH1 0x3 ADD DUP1 SLOAD PUSH2 0x636 SWAP1 PUSH2 0x278C JUMP JUMPDEST DUP1 PUSH1 0x1F ADD PUSH1 0x20 DUP1 SWAP2 DIV MUL PUSH1 0x20 ADD PUSH1 0x40 MLOAD SWAP1 DUP2 ADD PUSH1 0x40 MSTORE DUP1 SWAP3 SWAP2 SWAP1 DUP2 DUP2 MSTORE PUSH1 0x20 ADD DUP3 DUP1 SLOAD PUSH2 0x662 SWAP1 PUSH2 0x278C JUMP JUMPDEST DUP1 ISZERO PUSH2 0x6AD JUMPI DUP1 PUSH1 0x1F LT PUSH2 0x684 JUMPI PUSH2 0x100 DUP1 DUP4 SLOAD DIV MUL DUP4 MSTORE SWAP2 PUSH1 0x20 ADD SWAP2 PUSH2 0x6AD JUMP JUMPDEST DUP3 ADD SWAP2 SWAP1 PUSH0 MSTORE PUSH1 0x20 PUSH0 KECCAK256 SWAP1 JUMPDEST DUP2 SLOAD DUP2 MSTORE SWAP1 PUSH1 0x1 ADD SWAP1 PUSH1 0x20 ADD DUP1 DUP4 GT PUSH2 0x690 JUMPI DUP3 SWAP1 SUB PUSH1 0x1F AND DUP3 ADD SWAP2 JUMPDEST POP POP POP POP POP SWAP2 POP POP SWAP1 JUMP JUMPDEST PUSH0 CALLER PUSH2 0x6C5 DUP2 DUP6 DUP6 PUSH2 0xDBB JUMP JUMPDEST PUSH1 0x1 SWAP2 POP POP JUMPDEST SWAP3 SWAP2 POP POP JUMP JUMPDEST PUSH0 CALLER PUSH2 0x6DE DUP6 DUP3 DUP6 PUSH2 0xDCD JUMP JUMPDEST PUSH2 0x6E9 DUP6 DUP6 DUP6 PUSH2 0xE31 JUMP JUMPDEST PUSH1 0x1 SWAP2 POP POP JUMPDEST SWAP4 SWAP3 POP POP POP JUMP JUMPDEST PUSH0 PUSH2 0x6FF PUSH2 0xE8E JUMP JUMPDEST SWAP1 POP SWAP1 JUMP JUMPDEST PUSH0 PUSH0 DUP1 MLOAD PUSH1 0x20 PUSH2 0x2ADC DUP4 CODECOPY DUP2 MLOAD SWAP2 MSTORE PUSH2 0x73E PUSH2 0x71F DUP5 PUSH2 0xE97 JUMP JUMPDEST PUSH1 0x1 PUSH1 0x1 PUSH1 0xA0 SHL SUB DUP7 AND PUSH0 SWAP1 DUP2 MSTORE PUSH1 0x1 DUP5 ADD PUSH1 0x20 MSTORE PUSH1 0x40 SWAP1 KECCAK256 SWAP1 PUSH2 0xEDB JUMP JUMPDEST PUSH1 0x1 PUSH1 0x1 PUSH1 0xD0 SHL SUB AND SWAP5 SWAP4 POP POP POP POP JUMP JUMPDEST PUSH32 0xF0C57E16840DF040F15088DC2F81FE391C3923BEC73E23A9662EFC9C229C6A00 DUP1 SLOAD PUSH1 0x1 PUSH1 0x40 SHL DUP2 DIV PUSH1 0xFF AND ISZERO SWAP1 PUSH8 0xFFFFFFFFFFFFFFFF AND PUSH0 DUP2 ISZERO DUP1 ISZERO PUSH2 0x794 JUMPI POP DUP3 JUMPDEST SWAP1 POP PUSH0 DUP3 PUSH8 0xFFFFFFFFFFFFFFFF AND PUSH1 0x1 EQ DUP1 ISZERO PUSH2 0x7B0 JUMPI POP ADDRESS EXTCODESIZE ISZERO JUMPDEST SWAP1 POP DUP2 ISZERO DUP1 ISZERO PUSH2 0x7BE JUMPI POP DUP1 ISZERO JUMPDEST ISZERO PUSH2 0x7DC JUMPI PUSH1 0x40 MLOAD PUSH4 0xF92EE8A9 PUSH1 0xE0 SHL DUP2 MSTORE PUSH1 0x4 ADD PUSH1 0x40 MLOAD DUP1 SWAP2 SUB SWAP1 REVERT JUMPDEST DUP5 SLOAD PUSH8 0xFFFFFFFFFFFFFFFF NOT AND PUSH1 0x1 OR DUP6 SSTORE DUP4 ISZERO PUSH2 0x806 JUMPI DUP5 SLOAD PUSH1 0xFF PUSH1 0x40 SHL NOT AND PUSH1 0x1 PUSH1 0x40 SHL OR DUP6 SSTORE JUMPDEST PUSH2 0x851 PUSH1 0x40 MLOAD DUP1 PUSH1 0x40 ADD PUSH1 0x40 MSTORE DUP1 PUSH1 0xE DUP2 MSTORE PUSH1 0x20 ADD PUSH14 0x4E6578742050726F205669737461 PUSH1 0x90 SHL DUP2 MSTORE POP PUSH1 0x40 MLOAD DUP1 PUSH1 0x40 ADD PUSH1 0x40 MSTORE DUP1 PUSH1 0x3 DUP2 MSTORE PUSH1 0x20 ADD PUSH3 0x27282B PUSH1 0xE9 SHL DUP2 MSTORE POP PUSH2 0xF8B JUMP JUMPDEST PUSH2 0x880 PUSH1 0x40 MLOAD DUP1 PUSH1 0x40 ADD PUSH1 0x40 MSTORE DUP1 PUSH1 0xE DUP2 MSTORE PUSH1 0x20 ADD PUSH14 0x4E6578742050726F205669737461 PUSH1 0x90 SHL DUP2 MSTORE POP PUSH2 0xF9D JUMP JUMPDEST PUSH2 0x888 PUSH2 0xFC8 JUMP JUMPDEST PUSH2 0x891 DUP7 PUSH2 0xFD0 JUMP JUMPDEST PUSH2 0x899 PUSH2 0xFC8 JUMP JUMPDEST PUSH2 0x8BC DUP8 PUSH2 0x8A9 PUSH1 0x12 PUSH1 0xA PUSH2 0x28B8 JUMP JUMPDEST PUSH2 0x8B7 SWAP1 PUSH4 0x16BF96C9 PUSH2 0x28C6 JUMP JUMPDEST PUSH2 0xFE1 JUMP JUMPDEST DUP4 ISZERO PUSH2 0x902 JUMPI DUP5 SLOAD PUSH1 0xFF PUSH1 0x40 SHL NOT AND DUP6 SSTORE PUSH1 0x40 MLOAD PUSH1 0x1 DUP2 MSTORE PUSH32 0xC7F505B2F371AE2175EE4913F4499E1F2633A7B5936321EED1CDAEB6115181D2 SWAP1 PUSH1 0x20 ADD PUSH1 0x40 MLOAD DUP1 SWAP2 SUB SWAP1 LOG1 JUMPDEST POP POP POP POP POP POP POP JUMP JUMPDEST PUSH2 0x913 PUSH2 0x1015 JUMP JUMPDEST PUSH2 0x91C DUP3 PUSH2 0x10B9 JUMP JUMPDEST PUSH2 0x926 DUP3 DUP3 PUSH2 0x10C1 JUMP JUMPDEST POP POP JUMP JUMPDEST PUSH0 PUSH2 0x933 PUSH2 0x117D JUMP JUMPDEST POP PUSH0 DUP1 MLOAD PUSH1 0x20 PUSH2 0x2B3C DUP4 CODECOPY DUP2 MLOAD SWAP2 MSTORE SWAP1 JUMP JUMPDEST PUSH1 0x1 PUSH1 0x1 PUSH1 0xA0 SHL SUB SWAP1 DUP2 AND PUSH0 SWAP1 DUP2 MSTORE PUSH0 DUP1 MLOAD PUSH1 0x20 PUSH2 0x2ADC DUP4 CODECOPY DUP2 MLOAD SWAP2 MSTORE PUSH1 0x20 MSTORE PUSH1 0x40 SWAP1 KECCAK256 SLOAD AND SWAP1 JUMP JUMPDEST CALLER PUSH2 0x926 DUP2 DUP4 PUSH2 0x11C6 JUMP JUMPDEST PUSH0 PUSH2 0x6CB DUP3 PUSH2 0x124D JUMP JUMPDEST PUSH0 DUP1 PUSH0 DUP1 MLOAD PUSH1 0x20 PUSH2 0x2AFC DUP4 CODECOPY DUP2 MLOAD SWAP2 MSTORE JUMPDEST PUSH1 0x1 PUSH1 0x1 PUSH1 0xA0 SHL SUB SWAP1 SWAP4 AND PUSH0 SWAP1 DUP2 MSTORE PUSH1 0x20 SWAP4 SWAP1 SWAP4 MSTORE POP POP PUSH1 0x40 SWAP1 KECCAK256 SLOAD SWAP1 JUMP JUMPDEST PUSH2 0x9BB PUSH2 0x129C JUMP JUMPDEST PUSH2 0x9C4 PUSH0 PUSH2 0x12F7 JUMP JUMPDEST JUMP JUMPDEST PUSH0 PUSH2 0x6CB DUP3 PUSH2 0x1367 JUMP JUMPDEST PUSH0 PUSH1 0x60 DUP1 DUP3 DUP1 DUP1 DUP4 DUP2 PUSH0 DUP1 MLOAD PUSH1 0x20 PUSH2 0x2B1C DUP4 CODECOPY DUP2 MLOAD SWAP2 MSTORE DUP1 SLOAD SWAP1 SWAP2 POP ISZERO DUP1 ISZERO PUSH2 0x9FB JUMPI POP PUSH1 0x1 DUP2 ADD SLOAD ISZERO JUMPDEST PUSH2 0xA44 JUMPI PUSH1 0x40 MLOAD PUSH3 0x461BCD PUSH1 0xE5 SHL DUP2 MSTORE PUSH1 0x20 PUSH1 0x4 DUP3 ADD MSTORE PUSH1 0x15 PUSH1 0x24 DUP3 ADD MSTORE PUSH21 0x1152540DCC4C8E88155B9A5B9A5D1A585B1A5E9959 PUSH1 0x5A SHL PUSH1 0x44 DUP3 ADD MSTORE PUSH1 0x64 ADD JUMPDEST PUSH1 0x40 MLOAD DUP1 SWAP2 SUB SWAP1 REVERT JUMPDEST PUSH2 0xA4C PUSH2 0x1371 JUMP JUMPDEST PUSH2 0xA54 PUSH2 0x13AF JUMP JUMPDEST PUSH1 0x40 DUP1 MLOAD PUSH0 DUP1 DUP3 MSTORE PUSH1 0x20 DUP3 ADD SWAP1 SWAP3 MSTORE PUSH1 0xF PUSH1 0xF8 SHL SWAP13 SWAP4 SWAP12 POP SWAP2 SWAP10 POP CHAINID SWAP9 POP ADDRESS SWAP8 POP SWAP6 POP SWAP4 POP SWAP2 POP POP JUMP JUMPDEST PUSH0 PUSH0 DUP1 MLOAD PUSH1 0x20 PUSH2 0x2ADC DUP4 CODECOPY DUP2 MLOAD SWAP2 MSTORE PUSH2 0xAA3 PUSH2 0xA99 DUP5 PUSH2 0xE97 JUMP JUMPDEST PUSH1 0x2 DUP4 ADD SWAP1 PUSH2 0xEDB JUMP JUMPDEST PUSH1 0x1 PUSH1 0x1 PUSH1 0xD0 SHL SUB AND SWAP4 SWAP3 POP POP POP JUMP JUMPDEST PUSH32 0x52C63247E1F47DB19D5CE0460030C497F067CA4CEBF71BA98EEADABE20BACE04 DUP1 SLOAD PUSH1 0x60 SWAP2 PUSH0 DUP1 MLOAD PUSH1 0x20 PUSH2 0x2AFC DUP4 CODECOPY DUP2 MLOAD SWAP2 MSTORE SWAP2 PUSH2 0x636 SWAP1 PUSH2 0x278C JUMP JUMPDEST PUSH1 0x1 PUSH1 0x1 PUSH1 0xA0 SHL SUB DUP2 AND PUSH0 SWAP1 DUP2 MSTORE PUSH32 0xE8B26C30FAD74198956032A3533D903385D56DD795AF560196F9C78D4AF40D01 PUSH1 0x20 MSTORE PUSH1 0x40 DUP2 KECCAK256 PUSH0 DUP1 MLOAD PUSH1 0x20 PUSH2 0x2ADC DUP4 CODECOPY DUP2 MLOAD SWAP2 MSTORE SWAP1 PUSH2 0xAA3 SWAP1 PUSH2 0x13C5 JUMP JUMPDEST PUSH0 CALLER PUSH2 0x6C5 DUP2 DUP6 DUP6 PUSH2 0xE31 JUMP JUMPDEST DUP4 TIMESTAMP GT ISZERO PUSH2 0xB70 JUMPI PUSH1 0x40 MLOAD PUSH4 0x2341D787 PUSH1 0xE1 SHL DUP2 MSTORE PUSH1 0x4 DUP2 ADD DUP6 SWAP1 MSTORE PUSH1 0x24 ADD PUSH2 0xA3B JUMP JUMPDEST PUSH1 0x40 DUP1 MLOAD PUSH32 0xE48329057BFD03D55E49B547132E39CFFD9C1820AD7B9D4C5307691425D15ADF PUSH1 0x20 DUP3 ADD MSTORE PUSH1 0x1 PUSH1 0x1 PUSH1 0xA0 SHL SUB DUP9 AND SWAP2 DUP2 ADD SWAP2 SWAP1 SWAP2 MSTORE PUSH1 0x60 DUP2 ADD DUP7 SWAP1 MSTORE PUSH1 0x80 DUP2 ADD DUP6 SWAP1 MSTORE PUSH0 SWAP1 PUSH2 0xBE9 SWAP1 PUSH2 0xBE1 SWAP1 PUSH1 0xA0 ADD PUSH1 0x40 MLOAD PUSH1 0x20 DUP2 DUP4 SUB SUB DUP2 MSTORE SWAP1 PUSH1 0x40 MSTORE DUP1 MLOAD SWAP1 PUSH1 0x20 ADD KECCAK256 PUSH2 0x13FC JUMP JUMPDEST DUP6 DUP6 DUP6 PUSH2 0x1428 JUMP JUMPDEST SWAP1 POP PUSH2 0xBF5 DUP2 DUP8 PUSH2 0x1454 JUMP JUMPDEST PUSH2 0x902 DUP2 DUP9 PUSH2 0x11C6 JUMP JUMPDEST DUP4 TIMESTAMP GT ISZERO PUSH2 0xC23 JUMPI PUSH1 0x40 MLOAD PUSH4 0x313C8981 PUSH1 0xE1 SHL DUP2 MSTORE PUSH1 0x4 DUP2 ADD DUP6 SWAP1 MSTORE PUSH1 0x24 ADD PUSH2 0xA3B JUMP JUMPDEST PUSH0 PUSH32 0x6E71EDAE12B1B97F4D1F60370FEF10105FA2FAAE0126114A169C64845D6126C9 DUP9 DUP9 DUP9 PUSH2 0xC51 DUP13 PUSH2 0x1492 JUMP JUMPDEST PUSH1 0x40 DUP1 MLOAD PUSH1 0x20 DUP2 ADD SWAP7 SWAP1 SWAP7 MSTORE PUSH1 0x1 PUSH1 0x1 PUSH1 0xA0 SHL SUB SWAP5 DUP6 AND SWAP1 DUP7 ADD MSTORE SWAP3 SWAP1 SWAP2 AND PUSH1 0x60 DUP5 ADD MSTORE PUSH1 0x80 DUP4 ADD MSTORE PUSH1 0xA0 DUP3 ADD MSTORE PUSH1 0xC0 DUP2 ADD DUP7 SWAP1 MSTORE PUSH1 0xE0 ADD PUSH1 0x40 MLOAD PUSH1 0x20 DUP2 DUP4 SUB SUB DUP2 MSTORE SWAP1 PUSH1 0x40 MSTORE DUP1 MLOAD SWAP1 PUSH1 0x20 ADD KECCAK256 SWAP1 POP PUSH0 PUSH2 0xCAB DUP3 PUSH2 0x13FC JUMP JUMPDEST SWAP1 POP PUSH0 PUSH2 0xCBA DUP3 DUP8 DUP8 DUP8 PUSH2 0x1428 JUMP JUMPDEST SWAP1 POP DUP10 PUSH1 0x1 PUSH1 0x1 PUSH1 0xA0 SHL SUB AND DUP2 PUSH1 0x1 PUSH1 0x1 PUSH1 0xA0 SHL SUB AND EQ PUSH2 0xD01 JUMPI PUSH1 0x40 MLOAD PUSH4 0x25C00723 PUSH1 0xE1 SHL DUP2 MSTORE PUSH1 0x1 PUSH1 0x1 PUSH1 0xA0 SHL SUB DUP1 DUP4 AND PUSH1 0x4 DUP4 ADD MSTORE DUP12 AND PUSH1 0x24 DUP3 ADD MSTORE PUSH1 0x44 ADD PUSH2 0xA3B JUMP JUMPDEST PUSH2 0xD0C DUP11 DUP11 DUP11 PUSH2 0xDBB JUMP JUMPDEST POP POP POP POP POP POP POP POP POP POP JUMP JUMPDEST PUSH1 0x1 PUSH1 0x1 PUSH1 0xA0 SHL SUB SWAP2 DUP3 AND PUSH0 SWAP1 DUP2 MSTORE PUSH32 0x52C63247E1F47DB19D5CE0460030C497F067CA4CEBF71BA98EEADABE20BACE01 PUSH1 0x20 SWAP1 DUP2 MSTORE PUSH1 0x40 DUP1 DUP4 KECCAK256 SWAP4 SWAP1 SWAP5 AND DUP3 MSTORE SWAP2 SWAP1 SWAP2 MSTORE KECCAK256 SLOAD SWAP1 JUMP JUMPDEST PUSH1 0x40 DUP1 MLOAD DUP1 DUP3 ADD SWAP1 SWAP2 MSTORE PUSH0 DUP1 DUP3 MSTORE PUSH1 0x20 DUP3 ADD MSTORE PUSH2 0x6EF DUP4 DUP4 PUSH2 0x14D3 JUMP JUMPDEST PUSH2 0xD86 PUSH2 0x129C JUMP JUMPDEST PUSH1 0x1 PUSH1 0x1 PUSH1 0xA0 SHL SUB DUP2 AND PUSH2 0xDAF JUMPI PUSH1 0x40 MLOAD PUSH4 0x1E4FBDF7 PUSH1 0xE0 SHL DUP2 MSTORE PUSH0 PUSH1 0x4 DUP3 ADD MSTORE PUSH1 0x24 ADD PUSH2 0xA3B JUMP JUMPDEST PUSH2 0xDB8 DUP2 PUSH2 0x12F7 JUMP JUMPDEST POP JUMP JUMPDEST PUSH2 0xDC8 DUP4 DUP4 DUP4 PUSH1 0x1 PUSH2 0x153C JUMP JUMPDEST POP POP POP JUMP JUMPDEST PUSH0 PUSH2 0xDD8 DUP5 DUP5 PUSH2 0xD18 JUMP JUMPDEST SWAP1 POP PUSH0 NOT DUP2 LT ISZERO PUSH2 0xE2B JUMPI DUP2 DUP2 LT ISZERO PUSH2 0xE1D JUMPI PUSH1 0x40 MLOAD PUSH4 0x7DC7A0D9 PUSH1 0xE1 SHL DUP2 MSTORE PUSH1 0x1 PUSH1 0x1 PUSH1 0xA0 SHL SUB DUP5 AND PUSH1 0x4 DUP3 ADD MSTORE PUSH1 0x24 DUP2 ADD DUP3 SWAP1 MSTORE PUSH1 0x44 DUP2 ADD DUP4 SWAP1 MSTORE PUSH1 0x64 ADD PUSH2 0xA3B JUMP JUMPDEST PUSH2 0xE2B DUP5 DUP5 DUP5 DUP5 SUB PUSH0 PUSH2 0x153C JUMP JUMPDEST POP POP POP POP JUMP JUMPDEST PUSH1 0x1 PUSH1 0x1 PUSH1 0xA0 SHL SUB DUP4 AND PUSH2 0xE5A JUMPI PUSH1 0x40 MLOAD PUSH4 0x4B637E8F PUSH1 0xE1 SHL DUP2 MSTORE PUSH0 PUSH1 0x4 DUP3 ADD MSTORE PUSH1 0x24 ADD PUSH2 0xA3B JUMP JUMPDEST PUSH1 0x1 PUSH1 0x1 PUSH1 0xA0 SHL SUB DUP3 AND PUSH2 0xE83 JUMPI PUSH1 0x40 MLOAD PUSH4 0xEC442F05 PUSH1 0xE0 SHL DUP2 MSTORE PUSH0 PUSH1 0x4 DUP3 ADD MSTORE PUSH1 0x24 ADD PUSH2 0xA3B JUMP JUMPDEST PUSH2 0xDC8 DUP4 DUP4 DUP4 PUSH2 0x1620 JUMP JUMPDEST PUSH0 PUSH2 0x6FF PUSH2 0x162B JUMP JUMPDEST PUSH0 TIMESTAMP PUSH6 0xFFFFFFFFFFFF DUP2 AND DUP4 LT PUSH2 0xED2 JUMPI PUSH1 0x40 MLOAD PUSH4 0x7669FC0F PUSH1 0xE1 SHL DUP2 MSTORE PUSH1 0x4 DUP2 ADD DUP5 SWAP1 MSTORE PUSH6 0xFFFFFFFFFFFF DUP3 AND PUSH1 0x24 DUP3 ADD MSTORE PUSH1 0x44 ADD PUSH2 0xA3B JUMP JUMPDEST PUSH2 0x6EF DUP4 PUSH2 0x169E JUMP JUMPDEST DUP2 SLOAD PUSH0 SWAP1 DUP2 DUP2 PUSH1 0x5 DUP2 GT ISZERO PUSH2 0xF37 JUMPI PUSH0 PUSH2 0xEF4 DUP5 PUSH2 0x16D4 JUMP JUMPDEST PUSH2 0xEFE SWAP1 DUP6 PUSH2 0x28DD JUMP JUMPDEST PUSH0 DUP9 DUP2 MSTORE PUSH1 0x20 SWAP1 KECCAK256 SWAP1 SWAP2 POP DUP2 ADD SLOAD PUSH6 0xFFFFFFFFFFFF SWAP1 DUP2 AND SWAP1 DUP8 AND LT ISZERO PUSH2 0xF27 JUMPI DUP1 SWAP2 POP PUSH2 0xF35 JUMP JUMPDEST PUSH2 0xF32 DUP2 PUSH1 0x1 PUSH2 0x28F0 JUMP JUMPDEST SWAP3 POP JUMPDEST POP JUMPDEST PUSH0 PUSH2 0xF44 DUP8 DUP8 DUP6 DUP6 PUSH2 0x1827 JUMP JUMPDEST SWAP1 POP DUP1 ISZERO PUSH2 0xF7E JUMPI PUSH2 0xF68 DUP8 PUSH2 0xF5B PUSH1 0x1 DUP5 PUSH2 0x28DD JUMP JUMPDEST PUSH0 SWAP2 DUP3 MSTORE PUSH1 0x20 SWAP1 SWAP2 KECCAK256 ADD SWAP1 JUMP JUMPDEST SLOAD PUSH1 0x1 PUSH1 0x30 SHL SWAP1 DIV PUSH1 0x1 PUSH1 0x1 PUSH1 0xD0 SHL SUB AND PUSH2 0xF80 JUMP JUMPDEST PUSH0 JUMPDEST SWAP8 SWAP7 POP POP POP POP POP POP POP JUMP JUMPDEST PUSH2 0xF93 PUSH2 0x1886 JUMP JUMPDEST PUSH2 0x926 DUP3 DUP3 PUSH2 0x18CF JUMP JUMPDEST PUSH2 0xFA5 PUSH2 0x1886 JUMP JUMPDEST PUSH2 0xDB8 DUP2 PUSH1 0x40 MLOAD DUP1 PUSH1 0x40 ADD PUSH1 0x40 MSTORE DUP1 PUSH1 0x1 DUP2 MSTORE PUSH1 0x20 ADD PUSH1 0x31 PUSH1 0xF8 SHL DUP2 MSTORE POP PUSH2 0x191F JUMP JUMPDEST PUSH2 0x9C4 PUSH2 0x1886 JUMP JUMPDEST PUSH2 0xFD8 PUSH2 0x1886 JUMP JUMPDEST PUSH2 0xDB8 DUP2 PUSH2 0x197E JUMP JUMPDEST PUSH1 0x1 PUSH1 0x1 PUSH1 0xA0 SHL SUB DUP3 AND PUSH2 0x100A JUMPI PUSH1 0x40 MLOAD PUSH4 0xEC442F05 PUSH1 0xE0 SHL DUP2 MSTORE PUSH0 PUSH1 0x4 DUP3 ADD MSTORE PUSH1 0x24 ADD PUSH2 0xA3B JUMP JUMPDEST PUSH2 0x926 PUSH0 DUP4 DUP4 PUSH2 0x1620 JUMP JUMPDEST ADDRESS PUSH1 0x1 PUSH1 0x1 PUSH1 0xA0 SHL SUB PUSH32 0x0 AND EQ DUP1 PUSH2 0x109B JUMPI POP PUSH32 0x0 PUSH1 0x1 PUSH1 0x1 PUSH1 0xA0 SHL SUB AND PUSH2 0x108F PUSH0 DUP1 MLOAD PUSH1 0x20 PUSH2 0x2B3C DUP4 CODECOPY DUP2 MLOAD SWAP2 MSTORE SLOAD PUSH1 0x1 PUSH1 0x1 PUSH1 0xA0 SHL SUB AND SWAP1 JUMP JUMPDEST PUSH1 0x1 PUSH1 0x1 PUSH1 0xA0 SHL SUB AND EQ ISZERO JUMPDEST ISZERO PUSH2 0x9C4 JUMPI PUSH1 0x40 MLOAD PUSH4 0x703E46DD PUSH1 0xE1 SHL DUP2 MSTORE PUSH1 0x4 ADD PUSH1 0x40 MLOAD DUP1 SWAP2 SUB SWAP1 REVERT JUMPDEST PUSH2 0xDB8 PUSH2 0x129C JUMP JUMPDEST DUP2 PUSH1 0x1 PUSH1 0x1 PUSH1 0xA0 SHL SUB AND PUSH4 0x52D1902D PUSH1 0x40 MLOAD DUP2 PUSH4 0xFFFFFFFF AND PUSH1 0xE0 SHL DUP2 MSTORE PUSH1 0x4 ADD PUSH1 0x20 PUSH1 0x40 MLOAD DUP1 DUP4 SUB DUP2 DUP7 GAS STATICCALL SWAP3 POP POP POP DUP1 ISZERO PUSH2 0x111B JUMPI POP PUSH1 0x40 DUP1 MLOAD PUSH1 0x1F RETURNDATASIZE SWAP1 DUP2 ADD PUSH1 0x1F NOT AND DUP3 ADD SWAP1 SWAP3 MSTORE PUSH2 0x1118 SWAP2 DUP2 ADD SWAP1 PUSH2 0x2903 JUMP JUMPDEST PUSH1 0x1 JUMPDEST PUSH2 0x1143 JUMPI PUSH1 0x40 MLOAD PUSH4 0x4C9C8CE3 PUSH1 0xE0 SHL DUP2 MSTORE PUSH1 0x1 PUSH1 0x1 PUSH1 0xA0 SHL SUB DUP4 AND PUSH1 0x4 DUP3 ADD MSTORE PUSH1 0x24 ADD PUSH2 0xA3B JUMP JUMPDEST PUSH0 DUP1 MLOAD PUSH1 0x20 PUSH2 0x2B3C DUP4 CODECOPY DUP2 MLOAD SWAP2 MSTORE DUP2 EQ PUSH2 0x1173 JUMPI PUSH1 0x40 MLOAD PUSH4 0x2A875269 PUSH1 0xE2 SHL DUP2 MSTORE PUSH1 0x4 DUP2 ADD DUP3 SWAP1 MSTORE PUSH1 0x24 ADD PUSH2 0xA3B JUMP JUMPDEST PUSH2 0xDC8 DUP4 DUP4 PUSH2 0x1986 JUMP JUMPDEST ADDRESS PUSH1 0x1 PUSH1 0x1 PUSH1 0xA0 SHL SUB PUSH32 0x0 AND EQ PUSH2 0x9C4 JUMPI PUSH1 0x40 MLOAD PUSH4 0x703E46DD PUSH1 0xE1 SHL DUP2 MSTORE PUSH1 0x4 ADD PUSH1 0x40 MLOAD DUP1 SWAP2 SUB SWAP1 REVERT JUMPDEST PUSH0 DUP1 MLOAD PUSH1 0x20 PUSH2 0x2ADC DUP4 CODECOPY DUP2 MLOAD SWAP2 MSTORE PUSH0 PUSH2 0x11DE DUP5 PUSH2 0x945 JUMP JUMPDEST PUSH1 0x1 PUSH1 0x1 PUSH1 0xA0 SHL SUB DUP6 DUP2 AND PUSH0 DUP2 DUP2 MSTORE PUSH1 0x20 DUP7 SWAP1 MSTORE PUSH1 0x40 DUP1 DUP3 KECCAK256 DUP1 SLOAD PUSH1 0x1 PUSH1 0x1 PUSH1 0xA0 SHL SUB NOT AND DUP10 DUP7 AND SWAP1 DUP2 OR SWAP1 SWAP2 SSTORE SWAP1 MLOAD SWAP5 SWAP6 POP SWAP4 SWAP3 DUP6 AND SWAP3 PUSH32 0x3134E8A2E6D97E929A7E54011EA5485D7D196DD5F0BA4D4EF95803E8E3FC257F SWAP2 SWAP1 LOG4 PUSH2 0xE2B DUP2 DUP5 PUSH2 0x1248 DUP8 PUSH2 0x19DB JUMP JUMPDEST PUSH2 0x19E5 JUMP JUMPDEST PUSH1 0x1 PUSH1 0x1 PUSH1 0xA0 SHL SUB DUP2 AND PUSH0 SWAP1 DUP2 MSTORE PUSH32 0xE8B26C30FAD74198956032A3533D903385D56DD795AF560196F9C78D4AF40D01 PUSH1 0x20 MSTORE PUSH1 0x40 DUP2 KECCAK256 SLOAD PUSH0 DUP1 MLOAD PUSH1 0x20 PUSH2 0x2ADC DUP4 CODECOPY DUP2 MLOAD SWAP2 MSTORE SWAP1 PUSH2 0x6EF SWAP1 PUSH2 0x1B5B JUMP JUMPDEST CALLER PUSH2 0x12CE PUSH32 0x9016D09D72D40FDAE2FD8CEAC6B6234C7706214FD39C1CD1E609A0528C199300 SLOAD PUSH1 0x1 PUSH1 0x1 PUSH1 0xA0 SHL SUB AND SWAP1 JUMP JUMPDEST PUSH1 0x1 PUSH1 0x1 PUSH1 0xA0 SHL SUB AND EQ PUSH2 0x9C4 JUMPI PUSH1 0x40 MLOAD PUSH4 0x118CDAA7 PUSH1 0xE0 SHL DUP2 MSTORE CALLER PUSH1 0x4 DUP3 ADD MSTORE PUSH1 0x24 ADD PUSH2 0xA3B JUMP JUMPDEST PUSH32 0x9016D09D72D40FDAE2FD8CEAC6B6234C7706214FD39C1CD1E609A0528C199300 DUP1 SLOAD PUSH1 0x1 PUSH1 0x1 PUSH1 0xA0 SHL SUB NOT DUP2 AND PUSH1 0x1 PUSH1 0x1 PUSH1 0xA0 SHL SUB DUP5 DUP2 AND SWAP2 DUP3 OR DUP5 SSTORE PUSH1 0x40 MLOAD SWAP3 AND SWAP2 DUP3 SWAP1 PUSH32 0x8BE0079C531659141344CD1FD0A4F28419497F9722A3DAAFE3B4186F6B6457E0 SWAP1 PUSH0 SWAP1 LOG3 POP POP POP JUMP JUMPDEST PUSH0 PUSH2 0x6CB DUP3 PUSH2 0x1B8B JUMP JUMPDEST PUSH32 0xA16A46D94261C7517CC8FF89F61C0CE93598E3C849801011DEE649A6A557D102 DUP1 SLOAD PUSH1 0x60 SWAP2 PUSH0 DUP1 MLOAD PUSH1 0x20 PUSH2 0x2B1C DUP4 CODECOPY DUP2 MLOAD SWAP2 MSTORE SWAP2 PUSH2 0x636 SWAP1 PUSH2 0x278C JUMP JUMPDEST PUSH1 0x60 PUSH0 PUSH0 DUP1 MLOAD PUSH1 0x20 PUSH2 0x2B1C DUP4 CODECOPY DUP2 MLOAD SWAP2 MSTORE PUSH2 0x625 JUMP JUMPDEST DUP1 SLOAD PUSH0 SWAP1 DUP1 ISZERO PUSH2 0x13F4 JUMPI PUSH2 0x13DE DUP4 PUSH2 0xF5B PUSH1 0x1 DUP5 PUSH2 0x28DD JUMP JUMPDEST SLOAD PUSH1 0x1 PUSH1 0x30 SHL SWAP1 DIV PUSH1 0x1 PUSH1 0x1 PUSH1 0xD0 SHL SUB AND PUSH2 0x6EF JUMP JUMPDEST PUSH0 SWAP4 SWAP3 POP POP POP JUMP JUMPDEST PUSH0 PUSH2 0x6CB PUSH2 0x1408 PUSH2 0xE8E JUMP JUMPDEST DUP4 PUSH1 0x40 MLOAD PUSH2 0x1901 PUSH1 0xF0 SHL DUP2 MSTORE PUSH1 0x2 DUP2 ADD SWAP3 SWAP1 SWAP3 MSTORE PUSH1 0x22 DUP3 ADD MSTORE PUSH1 0x42 SWAP1 KECCAK256 SWAP1 JUMP JUMPDEST PUSH0 DUP1 PUSH0 DUP1 PUSH2 0x1438 DUP9 DUP9 DUP9 DUP9 PUSH2 0x1BB3 JUMP JUMPDEST SWAP3 POP SWAP3 POP SWAP3 POP PUSH2 0x1448 DUP3 DUP3 PUSH2 0x1C7B JUMP JUMPDEST POP SWAP1 SWAP7 SWAP6 POP POP POP POP POP POP JUMP JUMPDEST PUSH0 PUSH2 0x145E DUP4 PUSH2 0x1492 JUMP JUMPDEST SWAP1 POP DUP1 DUP3 EQ PUSH2 0xDC8 JUMPI PUSH1 0x40 MLOAD PUSH4 0x1D4B623 PUSH1 0xE6 SHL DUP2 MSTORE PUSH1 0x1 PUSH1 0x1 PUSH1 0xA0 SHL SUB DUP5 AND PUSH1 0x4 DUP3 ADD MSTORE PUSH1 0x24 DUP2 ADD DUP3 SWAP1 MSTORE PUSH1 0x44 ADD PUSH2 0xA3B JUMP JUMPDEST PUSH1 0x1 PUSH1 0x1 PUSH1 0xA0 SHL SUB AND PUSH0 SWAP1 DUP2 MSTORE PUSH32 0x5AB42CED628888259C08AC98DB1EB0CF702FC1501344311D8B100CD1BFE4BB00 PUSH1 0x20 MSTORE PUSH1 0x40 SWAP1 KECCAK256 DUP1 SLOAD PUSH1 0x1 DUP2 ADD SWAP1 SWAP2 SSTORE SWAP1 JUMP JUMPDEST PUSH1 0x40 DUP1 MLOAD DUP1 DUP3 ADD DUP3 MSTORE PUSH0 DUP1 DUP3 MSTORE PUSH1 0x20 DUP1 DUP4 ADD DUP3 SWAP1 MSTORE PUSH1 0x1 PUSH1 0x1 PUSH1 0xA0 SHL SUB DUP7 AND DUP3 MSTORE PUSH32 0xE8B26C30FAD74198956032A3533D903385D56DD795AF560196F9C78D4AF40D01 SWAP1 MSTORE SWAP2 SWAP1 SWAP2 KECCAK256 PUSH0 DUP1 MLOAD PUSH1 0x20 PUSH2 0x2ADC DUP4 CODECOPY DUP2 MLOAD SWAP2 MSTORE SWAP1 PUSH2 0x1534 SWAP1 DUP5 PUSH2 0x1D33 JUMP JUMPDEST SWAP5 SWAP4 POP POP POP POP JUMP JUMPDEST PUSH0 DUP1 MLOAD PUSH1 0x20 PUSH2 0x2AFC DUP4 CODECOPY DUP2 MLOAD SWAP2 MSTORE PUSH1 0x1 PUSH1 0x1 PUSH1 0xA0 SHL SUB DUP6 AND PUSH2 0x1573 JUMPI PUSH1 0x40 MLOAD PUSH4 0xE602DF05 PUSH1 0xE0 SHL DUP2 MSTORE PUSH0 PUSH1 0x4 DUP3 ADD MSTORE PUSH1 0x24 ADD PUSH2 0xA3B JUMP JUMPDEST PUSH1 0x1 PUSH1 0x1 PUSH1 0xA0 SHL SUB DUP5 AND PUSH2 0x159C JUMPI PUSH1 0x40 MLOAD PUSH4 0x4A1406B1 PUSH1 0xE1 SHL DUP2 MSTORE PUSH0 PUSH1 0x4 DUP3 ADD MSTORE PUSH1 0x24 ADD PUSH2 0xA3B JUMP JUMPDEST PUSH1 0x1 PUSH1 0x1 PUSH1 0xA0 SHL SUB DUP1 DUP7 AND PUSH0 SWAP1 DUP2 MSTORE PUSH1 0x1 DUP4 ADD PUSH1 0x20 SWAP1 DUP2 MSTORE PUSH1 0x40 DUP1 DUP4 KECCAK256 SWAP4 DUP9 AND DUP4 MSTORE SWAP3 SWAP1 MSTORE KECCAK256 DUP4 SWAP1 SSTORE DUP2 ISZERO PUSH2 0x1619 JUMPI DUP4 PUSH1 0x1 PUSH1 0x1 PUSH1 0xA0 SHL SUB AND DUP6 PUSH1 0x1 PUSH1 0x1 PUSH1 0xA0 SHL SUB AND PUSH32 0x8C5BE1E5EBEC7D5BD14F71427D1E84F3DD0314C0F7B2291E5B200AC8C7C3B925 DUP6 PUSH1 0x40 MLOAD PUSH2 0x1610 SWAP2 DUP2 MSTORE PUSH1 0x20 ADD SWAP1 JUMP JUMPDEST PUSH1 0x40 MLOAD DUP1 SWAP2 SUB SWAP1 LOG3 JUMPDEST POP POP POP POP POP JUMP JUMPDEST PUSH2 0xDC8 DUP4 DUP4 DUP4 PUSH2 0x1DA0 JUMP JUMPDEST PUSH0 PUSH32 0x8B73C3C69BB8FE3D512ECC4CF759CC79239F7B179B0FFACAA9A75D522B39400F PUSH2 0x1655 PUSH2 0x1E25 JUMP JUMPDEST PUSH2 0x165D PUSH2 0x1E8D JUMP JUMPDEST PUSH1 0x40 DUP1 MLOAD PUSH1 0x20 DUP2 ADD SWAP5 SWAP1 SWAP5 MSTORE DUP4 ADD SWAP2 SWAP1 SWAP2 MSTORE PUSH1 0x60 DUP3 ADD MSTORE CHAINID PUSH1 0x80 DUP3 ADD MSTORE ADDRESS PUSH1 0xA0 DUP3 ADD MSTORE PUSH1 0xC0 ADD PUSH1 0x40 MLOAD PUSH1 0x20 DUP2 DUP4 SUB SUB DUP2 MSTORE SWAP1 PUSH1 0x40 MSTORE DUP1 MLOAD SWAP1 PUSH1 0x20 ADD KECCAK256 SWAP1 POP SWAP1 JUMP JUMPDEST PUSH0 PUSH6 0xFFFFFFFFFFFF DUP3 GT ISZERO PUSH2 0x16D0 JUMPI PUSH1 0x40 MLOAD PUSH4 0x6DFCC65 PUSH1 0xE4 SHL DUP2 MSTORE PUSH1 0x30 PUSH1 0x4 DUP3 ADD MSTORE PUSH1 0x24 DUP2 ADD DUP4 SWAP1 MSTORE PUSH1 0x44 ADD PUSH2 0xA3B JUMP JUMPDEST POP SWAP1 JUMP JUMPDEST PUSH0 PUSH1 0x1 DUP3 GT PUSH2 0x16E1 JUMPI POP SWAP1 JUMP JUMPDEST DUP2 PUSH1 0x1 PUSH1 0x1 PUSH1 0x80 SHL DUP3 LT PUSH2 0x16FA JUMPI PUSH1 0x80 SWAP2 SWAP1 SWAP2 SHR SWAP1 PUSH1 0x40 SHL JUMPDEST PUSH1 0x1 PUSH1 0x40 SHL DUP3 LT PUSH2 0x1710 JUMPI PUSH1 0x40 SWAP2 SWAP1 SWAP2 SHR SWAP1 PUSH1 0x20 SHL JUMPDEST PUSH5 0x100000000 DUP3 LT PUSH2 0x1727 JUMPI PUSH1 0x20 SWAP2 SWAP1 SWAP2 SHR SWAP1 PUSH1 0x10 SHL JUMPDEST PUSH3 0x10000 DUP3 LT PUSH2 0x173C JUMPI PUSH1 0x10 SWAP2 SWAP1 SWAP2 SHR SWAP1 PUSH1 0x8 SHL JUMPDEST PUSH2 0x100 DUP3 LT PUSH2 0x1750 JUMPI PUSH1 0x8 SWAP2 SWAP1 SWAP2 SHR SWAP1 PUSH1 0x4 SHL JUMPDEST PUSH1 0x10 DUP3 LT PUSH2 0x1763 JUMPI PUSH1 0x4 SWAP2 SWAP1 SWAP2 SHR SWAP1 PUSH1 0x2 SHL JUMPDEST PUSH1 0x4 DUP3 LT PUSH2 0x176F JUMPI PUSH1 0x1 SHL JUMPDEST PUSH1 0x3 MUL PUSH1 0x1 SWAP1 DUP2 SHR SWAP1 DUP2 DUP6 DUP2 PUSH2 0x1787 JUMPI PUSH2 0x1787 PUSH2 0x291A JUMP JUMPDEST DIV DUP3 ADD SWAP1 SHR SWAP1 POP PUSH1 0x1 DUP2 DUP6 DUP2 PUSH2 0x179F JUMPI PUSH2 0x179F PUSH2 0x291A JUMP JUMPDEST DIV DUP3 ADD SWAP1 SHR SWAP1 POP PUSH1 0x1 DUP2 DUP6 DUP2 PUSH2 0x17B7 JUMPI PUSH2 0x17B7 PUSH2 0x291A JUMP JUMPDEST DIV DUP3 ADD SWAP1 SHR SWAP1 POP PUSH1 0x1 DUP2 DUP6 DUP2 PUSH2 0x17CF JUMPI PUSH2 0x17CF PUSH2 0x291A JUMP JUMPDEST DIV DUP3 ADD SWAP1 SHR SWAP1 POP PUSH1 0x1 DUP2 DUP6 DUP2 PUSH2 0x17E7 JUMPI PUSH2 0x17E7 PUSH2 0x291A JUMP JUMPDEST DIV DUP3 ADD SWAP1 SHR SWAP1 POP PUSH1 0x1 DUP2 DUP6 DUP2 PUSH2 0x17FF JUMPI PUSH2 0x17FF PUSH2 0x291A JUMP JUMPDEST DIV DUP3 ADD SWAP1 SHR SWAP1 POP PUSH2 0x181E DUP2 DUP6 DUP2 PUSH2 0x1818 JUMPI PUSH2 0x1818 PUSH2 0x291A JUMP JUMPDEST DIV DUP3 GT SWAP1 JUMP JUMPDEST SWAP1 SUB SWAP4 SWAP3 POP POP POP JUMP JUMPDEST PUSH0 JUMPDEST DUP2 DUP4 LT ISZERO PUSH2 0x187E JUMPI PUSH0 PUSH2 0x183C DUP5 DUP5 PUSH2 0x1ECF JUMP JUMPDEST PUSH0 DUP8 DUP2 MSTORE PUSH1 0x20 SWAP1 KECCAK256 SWAP1 SWAP2 POP PUSH6 0xFFFFFFFFFFFF DUP7 AND SWAP1 DUP3 ADD SLOAD PUSH6 0xFFFFFFFFFFFF AND GT ISZERO PUSH2 0x186A JUMPI DUP1 SWAP3 POP PUSH2 0x1878 JUMP JUMPDEST PUSH2 0x1875 DUP2 PUSH1 0x1 PUSH2 0x28F0 JUMP JUMPDEST SWAP4 POP JUMPDEST POP PUSH2 0x1829 JUMP JUMPDEST POP SWAP4 SWAP3 POP POP POP JUMP JUMPDEST PUSH32 0xF0C57E16840DF040F15088DC2F81FE391C3923BEC73E23A9662EFC9C229C6A00 SLOAD PUSH1 0x1 PUSH1 0x40 SHL SWAP1 DIV PUSH1 0xFF AND PUSH2 0x9C4 JUMPI PUSH1 0x40 MLOAD PUSH4 0x1AFCD79F PUSH1 0xE3 SHL DUP2 MSTORE PUSH1 0x4 ADD PUSH1 0x40 MLOAD DUP1 SWAP2 SUB SWAP1 REVERT JUMPDEST PUSH2 0x18D7 PUSH2 0x1886 JUMP JUMPDEST PUSH0 DUP1 MLOAD PUSH1 0x20 PUSH2 0x2AFC DUP4 CODECOPY DUP2 MLOAD SWAP2 MSTORE PUSH32 0x52C63247E1F47DB19D5CE0460030C497F067CA4CEBF71BA98EEADABE20BACE03 PUSH2 0x1910 DUP5 DUP3 PUSH2 0x2972 JUMP JUMPDEST POP PUSH1 0x4 DUP2 ADD PUSH2 0xE2B DUP4 DUP3 PUSH2 0x2972 JUMP JUMPDEST PUSH2 0x1927 PUSH2 0x1886 JUMP JUMPDEST PUSH0 DUP1 MLOAD PUSH1 0x20 PUSH2 0x2B1C DUP4 CODECOPY DUP2 MLOAD SWAP2 MSTORE PUSH32 0xA16A46D94261C7517CC8FF89F61C0CE93598E3C849801011DEE649A6A557D102 PUSH2 0x1960 DUP5 DUP3 PUSH2 0x2972 JUMP JUMPDEST POP PUSH1 0x3 DUP2 ADD PUSH2 0x196F DUP4 DUP3 PUSH2 0x2972 JUMP JUMPDEST POP PUSH0 DUP1 DUP3 SSTORE PUSH1 0x1 SWAP1 SWAP2 ADD SSTORE POP POP JUMP JUMPDEST PUSH2 0xD86 PUSH2 0x1886 JUMP JUMPDEST PUSH2 0x198F DUP3 PUSH2 0x1EE9 JUMP JUMPDEST PUSH1 0x40 MLOAD PUSH1 0x1 PUSH1 0x1 PUSH1 0xA0 SHL SUB DUP4 AND SWAP1 PUSH32 0xBC7CD75A20EE27FD9ADEBAB32041F755214DBC6BFFA90CC0225B39DA2E5C2D3B SWAP1 PUSH0 SWAP1 LOG2 DUP1 MLOAD ISZERO PUSH2 0x19D3 JUMPI PUSH2 0xDC8 DUP3 DUP3 PUSH2 0x1F4C JUMP JUMPDEST PUSH2 0x926 PUSH2 0x1FBE JUMP JUMPDEST PUSH0 PUSH2 0x6CB DUP3 PUSH2 0x983 JUMP JUMPDEST PUSH0 DUP1 MLOAD PUSH1 0x20 PUSH2 0x2ADC DUP4 CODECOPY DUP2 MLOAD SWAP2 MSTORE PUSH1 0x1 PUSH1 0x1 PUSH1 0xA0 SHL SUB DUP5 DUP2 AND SWAP1 DUP5 AND EQ DUP1 ISZERO SWAP1 PUSH2 0x1A0E JUMPI POP PUSH0 DUP3 GT JUMPDEST ISZERO PUSH2 0xE2B JUMPI PUSH1 0x1 PUSH1 0x1 PUSH1 0xA0 SHL SUB DUP5 AND ISZERO PUSH2 0x1AB7 JUMPI PUSH1 0x1 PUSH1 0x1 PUSH1 0xA0 SHL SUB DUP5 AND PUSH0 SWAP1 DUP2 MSTORE PUSH1 0x1 DUP3 ADD PUSH1 0x20 MSTORE PUSH1 0x40 DUP2 KECCAK256 DUP2 SWAP1 PUSH2 0x1A52 SWAP1 PUSH2 0x1FDD PUSH2 0x1A4D DUP8 PUSH2 0x1FE8 JUMP JUMPDEST PUSH2 0x201B JUMP JUMPDEST PUSH1 0x1 PUSH1 0x1 PUSH1 0xD0 SHL SUB AND SWAP2 POP PUSH1 0x1 PUSH1 0x1 PUSH1 0xD0 SHL SUB AND SWAP2 POP DUP6 PUSH1 0x1 PUSH1 0x1 PUSH1 0xA0 SHL SUB AND PUSH32 0xDEC2BACDD2F05B59DE34DA9B523DFF8BE42E5E38E818C82FDB0BAE774387A724 DUP4 DUP4 PUSH1 0x40 MLOAD PUSH2 0x1AAC SWAP3 SWAP2 SWAP1 SWAP2 DUP3 MSTORE PUSH1 0x20 DUP3 ADD MSTORE PUSH1 0x40 ADD SWAP1 JUMP JUMPDEST PUSH1 0x40 MLOAD DUP1 SWAP2 SUB SWAP1 LOG2 POP POP JUMPDEST PUSH1 0x1 PUSH1 0x1 PUSH1 0xA0 SHL SUB DUP4 AND ISZERO PUSH2 0xE2B JUMPI PUSH1 0x1 PUSH1 0x1 PUSH1 0xA0 SHL SUB DUP4 AND PUSH0 SWAP1 DUP2 MSTORE PUSH1 0x1 DUP3 ADD PUSH1 0x20 MSTORE PUSH1 0x40 DUP2 KECCAK256 DUP2 SWAP1 PUSH2 0x1AF1 SWAP1 PUSH2 0x204C PUSH2 0x1A4D DUP8 PUSH2 0x1FE8 JUMP JUMPDEST PUSH1 0x1 PUSH1 0x1 PUSH1 0xD0 SHL SUB AND SWAP2 POP PUSH1 0x1 PUSH1 0x1 PUSH1 0xD0 SHL SUB AND SWAP2 POP DUP5 PUSH1 0x1 PUSH1 0x1 PUSH1 0xA0 SHL SUB AND PUSH32 0xDEC2BACDD2F05B59DE34DA9B523DFF8BE42E5E38E818C82FDB0BAE774387A724 DUP4 DUP4 PUSH1 0x40 MLOAD PUSH2 0x1B4B SWAP3 SWAP2 SWAP1 SWAP2 DUP3 MSTORE PUSH1 0x20 DUP3 ADD MSTORE PUSH1 0x40 ADD SWAP1 JUMP JUMPDEST PUSH1 0x40 MLOAD DUP1 SWAP2 SUB SWAP1 LOG2 POP POP POP POP POP POP JUMP JUMPDEST PUSH0 PUSH4 0xFFFFFFFF DUP3 GT ISZERO PUSH2 0x16D0 JUMPI PUSH1 0x40 MLOAD PUSH4 0x6DFCC65 PUSH1 0xE4 SHL DUP2 MSTORE PUSH1 0x20 PUSH1 0x4 DUP3 ADD MSTORE PUSH1 0x24 DUP2 ADD DUP4 SWAP1 MSTORE PUSH1 0x44 ADD PUSH2 0xA3B JUMP JUMPDEST PUSH0 DUP1 PUSH32 0x5AB42CED628888259C08AC98DB1EB0CF702FC1501344311D8B100CD1BFE4BB00 PUSH2 0x994 JUMP JUMPDEST PUSH0 DUP1 DUP1 PUSH32 0x7FFFFFFFFFFFFFFFFFFFFFFFFFFFFFFF5D576E7357A4501DDFE92F46681B20A0 DUP5 GT ISZERO PUSH2 0x1BEC JUMPI POP PUSH0 SWAP2 POP PUSH1 0x3 SWAP1 POP DUP3 PUSH2 0x1C71 JUMP JUMPDEST PUSH1 0x40 DUP1 MLOAD PUSH0 DUP1 DUP3 MSTORE PUSH1 0x20 DUP3 ADD DUP1 DUP5 MSTORE DUP11 SWAP1 MSTORE PUSH1 0xFF DUP10 AND SWAP3 DUP3 ADD SWAP3 SWAP1 SWAP3 MSTORE PUSH1 0x60 DUP2 ADD DUP8 SWAP1 MSTORE PUSH1 0x80 DUP2 ADD DUP7 SWAP1 MSTORE PUSH1 0x1 SWAP1 PUSH1 0xA0 ADD PUSH1 0x20 PUSH1 0x40 MLOAD PUSH1 0x20 DUP2 SUB SWAP1 DUP1 DUP5 SUB SWAP1 DUP6 GAS STATICCALL ISZERO DUP1 ISZERO PUSH2 0x1C3D JUMPI RETURNDATASIZE PUSH0 DUP1 RETURNDATACOPY RETURNDATASIZE PUSH0 REVERT JUMPDEST POP POP PUSH1 0x40 MLOAD PUSH1 0x1F NOT ADD MLOAD SWAP2 POP POP PUSH1 0x1 PUSH1 0x1 PUSH1 0xA0 SHL SUB DUP2 AND PUSH2 0x1C68 JUMPI POP PUSH0 SWAP3 POP PUSH1 0x1 SWAP2 POP DUP3 SWAP1 POP PUSH2 0x1C71 JUMP JUMPDEST SWAP3 POP PUSH0 SWAP2 POP DUP2 SWAP1 POP JUMPDEST SWAP5 POP SWAP5 POP SWAP5 SWAP2 POP POP JUMP JUMPDEST PUSH0 DUP3 PUSH1 0x3 DUP2 GT ISZERO PUSH2 0x1C8E JUMPI PUSH2 0x1C8E PUSH2 0x2A32 JUMP JUMPDEST SUB PUSH2 0x1C97 JUMPI POP POP JUMP JUMPDEST PUSH1 0x1 DUP3 PUSH1 0x3 DUP2 GT ISZERO PUSH2 0x1CAB JUMPI PUSH2 0x1CAB PUSH2 0x2A32 JUMP JUMPDEST SUB PUSH2 0x1CC9 JUMPI PUSH1 0x40 MLOAD PUSH4 0xF645EEDF PUSH1 0xE0 SHL DUP2 MSTORE PUSH1 0x4 ADD PUSH1 0x40 MLOAD DUP1 SWAP2 SUB SWAP1 REVERT JUMPDEST PUSH1 0x2 DUP3 PUSH1 0x3 DUP2 GT ISZERO PUSH2 0x1CDD JUMPI PUSH2 0x1CDD PUSH2 0x2A32 JUMP JUMPDEST SUB PUSH2 0x1CFE JUMPI PUSH1 0x40 MLOAD PUSH4 0xFCE698F7 PUSH1 0xE0 SHL DUP2 MSTORE PUSH1 0x4 DUP2 ADD DUP3 SWAP1 MSTORE PUSH1 0x24 ADD PUSH2 0xA3B JUMP JUMPDEST PUSH1 0x3 DUP3 PUSH1 0x3 DUP2 GT ISZERO PUSH2 0x1D12 JUMPI PUSH2 0x1D12 PUSH2 0x2A32 JUMP JUMPDEST SUB PUSH2 0x926 JUMPI PUSH1 0x40 MLOAD PUSH4 0x35E2F383 PUSH1 0xE2 SHL DUP2 MSTORE PUSH1 0x4 DUP2 ADD DUP3 SWAP1 MSTORE PUSH1 0x24 ADD PUSH2 0xA3B JUMP JUMPDEST PUSH1 0x40 DUP1 MLOAD DUP1 DUP3 ADD SWAP1 SWAP2 MSTORE PUSH0 DUP1 DUP3 MSTORE PUSH1 0x20 DUP3 ADD MSTORE DUP3 PUSH0 ADD DUP3 PUSH4 0xFFFFFFFF AND DUP2 SLOAD DUP2 LT PUSH2 0x1D60 JUMPI PUSH2 0x1D60 PUSH2 0x2A46 JUMP JUMPDEST PUSH0 SWAP2 DUP3 MSTORE PUSH1 0x20 SWAP2 DUP3 SWAP1 KECCAK256 PUSH1 0x40 DUP1 MLOAD DUP1 DUP3 ADD SWAP1 SWAP2 MSTORE SWAP2 ADD SLOAD PUSH6 0xFFFFFFFFFFFF DUP2 AND DUP3 MSTORE PUSH1 0x1 PUSH1 0x30 SHL SWAP1 DIV PUSH1 0x1 PUSH1 0x1 PUSH1 0xD0 SHL SUB AND SWAP2 DUP2 ADD SWAP2 SWAP1 SWAP2 MSTORE SWAP4 SWAP3 POP POP POP JUMP JUMPDEST PUSH2 0x1DAB DUP4 DUP4 DUP4 PUSH2 0x2057 JUMP JUMPDEST PUSH1 0x1 PUSH1 0x1 PUSH1 0xA0 SHL SUB DUP4 AND PUSH2 0x1E1A JUMPI PUSH0 PUSH2 0x1DE2 PUSH32 0x52C63247E1F47DB19D5CE0460030C497F067CA4CEBF71BA98EEADABE20BACE02 SLOAD SWAP1 JUMP JUMPDEST SWAP1 POP PUSH1 0x1 PUSH1 0x1 PUSH1 0xD0 SHL SUB DUP1 DUP3 GT ISZERO PUSH2 0x1E17 JUMPI PUSH1 0x40 MLOAD PUSH4 0xE58AE93 PUSH1 0xE1 SHL DUP2 MSTORE PUSH1 0x4 DUP2 ADD DUP4 SWAP1 MSTORE PUSH1 0x24 DUP2 ADD DUP3 SWAP1 MSTORE PUSH1 0x44 ADD PUSH2 0xA3B JUMP JUMPDEST POP POP JUMPDEST PUSH2 0xDC8 DUP4 DUP4 DUP4 PUSH2 0x2190 JUMP JUMPDEST PUSH0 PUSH0 DUP1 MLOAD PUSH1 0x20 PUSH2 0x2B1C DUP4 CODECOPY DUP2 MLOAD SWAP2 MSTORE DUP2 PUSH2 0x1E3D PUSH2 0x1371 JUMP JUMPDEST DUP1 MLOAD SWAP1 SWAP2 POP ISZERO PUSH2 0x1E55 JUMPI DUP1 MLOAD PUSH1 0x20 SWAP1 SWAP2 ADD KECCAK256 SWAP3 SWAP2 POP POP JUMP JUMPDEST DUP2 SLOAD DUP1 ISZERO PUSH2 0x1E64 JUMPI SWAP4 SWAP3 POP POP POP JUMP JUMPDEST PUSH32 0xC5D2460186F7233C927E7DB2DCC703C0E500B653CA82273B7BFAD8045D85A470 SWAP4 POP POP POP POP SWAP1 JUMP JUMPDEST PUSH0 PUSH0 DUP1 MLOAD PUSH1 0x20 PUSH2 0x2B1C DUP4 CODECOPY DUP2 MLOAD SWAP2 MSTORE DUP2 PUSH2 0x1EA5 PUSH2 0x13AF JUMP JUMPDEST DUP1 MLOAD SWAP1 SWAP2 POP ISZERO PUSH2 0x1EBD JUMPI DUP1 MLOAD PUSH1 0x20 SWAP1 SWAP2 ADD KECCAK256 SWAP3 SWAP2 POP POP JUMP JUMPDEST PUSH1 0x1 DUP3 ADD SLOAD DUP1 ISZERO PUSH2 0x1E64 JUMPI SWAP4 SWAP3 POP POP POP JUMP JUMPDEST PUSH0 PUSH2 0x1EDD PUSH1 0x2 DUP5 DUP5 XOR PUSH2 0x2A5A JUMP JUMPDEST PUSH2 0x6EF SWAP1 DUP5 DUP5 AND PUSH2 0x28F0 JUMP JUMPDEST DUP1 PUSH1 0x1 PUSH1 0x1 PUSH1 0xA0 SHL SUB AND EXTCODESIZE PUSH0 SUB PUSH2 0x1F1E JUMPI PUSH1 0x40 MLOAD PUSH4 0x4C9C8CE3 PUSH1 0xE0 SHL DUP2 MSTORE PUSH1 0x1 PUSH1 0x1 PUSH1 0xA0 SHL SUB DUP3 AND PUSH1 0x4 DUP3 ADD MSTORE PUSH1 0x24 ADD PUSH2 0xA3B JUMP JUMPDEST PUSH0 DUP1 MLOAD PUSH1 0x20 PUSH2 0x2B3C DUP4 CODECOPY DUP2 MLOAD SWAP2 MSTORE DUP1 SLOAD PUSH1 0x1 PUSH1 0x1 PUSH1 0xA0 SHL SUB NOT AND PUSH1 0x1 PUSH1 0x1 PUSH1 0xA0 SHL SUB SWAP3 SWAP1 SWAP3 AND SWAP2 SWAP1 SWAP2 OR SWAP1 SSTORE JUMP JUMPDEST PUSH1 0x60 PUSH0 DUP1 DUP5 PUSH1 0x1 PUSH1 0x1 PUSH1 0xA0 SHL SUB AND DUP5 PUSH1 0x40 MLOAD PUSH2 0x1F68 SWAP2 SWAP1 PUSH2 0x2A79 JUMP JUMPDEST PUSH0 PUSH1 0x40 MLOAD DUP1 DUP4 SUB DUP2 DUP6 GAS DELEGATECALL SWAP2 POP POP RETURNDATASIZE DUP1 PUSH0 DUP2 EQ PUSH2 0x1FA0 JUMPI PUSH1 0x40 MLOAD SWAP2 POP PUSH1 0x1F NOT PUSH1 0x3F RETURNDATASIZE ADD AND DUP3 ADD PUSH1 0x40 MSTORE RETURNDATASIZE DUP3 MSTORE RETURNDATASIZE PUSH0 PUSH1 0x20 DUP5 ADD RETURNDATACOPY PUSH2 0x1FA5 JUMP JUMPDEST PUSH1 0x60 SWAP2 POP JUMPDEST POP SWAP2 POP SWAP2 POP PUSH2 0x1FB5 DUP6 DUP4 DUP4 PUSH2 0x2201 JUMP JUMPDEST SWAP6 SWAP5 POP POP POP POP POP JUMP JUMPDEST CALLVALUE ISZERO PUSH2 0x9C4 JUMPI PUSH1 0x40 MLOAD PUSH4 0xB398979F PUSH1 0xE0 SHL DUP2 MSTORE PUSH1 0x4 ADD PUSH1 0x40 MLOAD DUP1 SWAP2 SUB SWAP1 REVERT JUMPDEST PUSH0 PUSH2 0x6EF DUP3 DUP5 PUSH2 0x2A94 JUMP JUMPDEST PUSH0 PUSH1 0x1 PUSH1 0x1 PUSH1 0xD0 SHL SUB DUP3 GT ISZERO PUSH2 0x16D0 JUMPI PUSH1 0x40 MLOAD PUSH4 0x6DFCC65 PUSH1 0xE4 SHL DUP2 MSTORE PUSH1 0xD0 PUSH1 0x4 DUP3 ADD MSTORE PUSH1 0x24 DUP2 ADD DUP4 SWAP1 MSTORE PUSH1 0x44 ADD PUSH2 0xA3B JUMP JUMPDEST PUSH0 DUP1 PUSH2 0x203F TIMESTAMP PUSH2 0x2037 PUSH2 0x202D DUP9 PUSH2 0x13C5 JUMP JUMPDEST DUP7 DUP9 PUSH4 0xFFFFFFFF AND JUMP JUMPDEST DUP8 SWAP2 SWAP1 PUSH2 0x225D JUMP JUMPDEST SWAP2 POP SWAP2 POP JUMPDEST SWAP4 POP SWAP4 SWAP2 POP POP JUMP JUMPDEST PUSH0 PUSH2 0x6EF DUP3 DUP5 PUSH2 0x2ABB JUMP JUMPDEST PUSH0 DUP1 MLOAD PUSH1 0x20 PUSH2 0x2AFC DUP4 CODECOPY DUP2 MLOAD SWAP2 MSTORE PUSH1 0x1 PUSH1 0x1 PUSH1 0xA0 SHL SUB DUP5 AND PUSH2 0x2091 JUMPI DUP2 DUP2 PUSH1 0x2 ADD PUSH0 DUP3 DUP3 SLOAD PUSH2 0x2086 SWAP2 SWAP1 PUSH2 0x28F0 JUMP JUMPDEST SWAP1 SWAP2 SSTORE POP PUSH2 0x2101 SWAP1 POP JUMP JUMPDEST PUSH1 0x1 PUSH1 0x1 PUSH1 0xA0 SHL SUB DUP5 AND PUSH0 SWAP1 DUP2 MSTORE PUSH1 0x20 DUP3 SWAP1 MSTORE PUSH1 0x40 SWAP1 KECCAK256 SLOAD DUP3 DUP2 LT ISZERO PUSH2 0x20E3 JUMPI PUSH1 0x40 MLOAD PUSH4 0x391434E3 PUSH1 0xE2 SHL DUP2 MSTORE PUSH1 0x1 PUSH1 0x1 PUSH1 0xA0 SHL SUB DUP7 AND PUSH1 0x4 DUP3 ADD MSTORE PUSH1 0x24 DUP2 ADD DUP3 SWAP1 MSTORE PUSH1 0x44 DUP2 ADD DUP5 SWAP1 MSTORE PUSH1 0x64 ADD PUSH2 0xA3B JUMP JUMPDEST PUSH1 0x1 PUSH1 0x1 PUSH1 0xA0 SHL SUB DUP6 AND PUSH0 SWAP1 DUP2 MSTORE PUSH1 0x20 DUP4 SWAP1 MSTORE PUSH1 0x40 SWAP1 KECCAK256 SWAP1 DUP4 SWAP1 SUB SWAP1 SSTORE JUMPDEST PUSH1 0x1 PUSH1 0x1 PUSH1 0xA0 SHL SUB DUP4 AND PUSH2 0x211F JUMPI PUSH1 0x2 DUP2 ADD DUP1 SLOAD DUP4 SWAP1 SUB SWAP1 SSTORE PUSH2 0x213D JUMP JUMPDEST PUSH1 0x1 PUSH1 0x1 PUSH1 0xA0 SHL SUB DUP4 AND PUSH0 SWAP1 DUP2 MSTORE PUSH1 0x20 DUP3 SWAP1 MSTORE PUSH1 0x40 SWAP1 KECCAK256 DUP1 SLOAD DUP4 ADD SWAP1 SSTORE JUMPDEST DUP3 PUSH1 0x1 PUSH1 0x1 PUSH1 0xA0 SHL SUB AND DUP5 PUSH1 0x1 PUSH1 0x1 PUSH1 0xA0 SHL SUB AND PUSH32 0xDDF252AD1BE2C89B69C2B068FC378DAA952BA7F163C4A11628F55A4DF523B3EF DUP5 PUSH1 0x40 MLOAD PUSH2 0x2182 SWAP2 DUP2 MSTORE PUSH1 0x20 ADD SWAP1 JUMP JUMPDEST PUSH1 0x40 MLOAD DUP1 SWAP2 SUB SWAP1 LOG3 POP POP POP POP JUMP JUMPDEST PUSH0 DUP1 MLOAD PUSH1 0x20 PUSH2 0x2ADC DUP4 CODECOPY DUP2 MLOAD SWAP2 MSTORE PUSH1 0x1 PUSH1 0x1 PUSH1 0xA0 SHL SUB DUP5 AND PUSH2 0x21C2 JUMPI PUSH2 0x21BF DUP2 PUSH1 0x2 ADD PUSH2 0x204C PUSH2 0x1A4D DUP6 PUSH2 0x1FE8 JUMP JUMPDEST POP POP JUMPDEST PUSH1 0x1 PUSH1 0x1 PUSH1 0xA0 SHL SUB DUP4 AND PUSH2 0x21E6 JUMPI PUSH2 0x21E3 DUP2 PUSH1 0x2 ADD PUSH2 0x1FDD PUSH2 0x1A4D DUP6 PUSH2 0x1FE8 JUMP JUMPDEST POP POP JUMPDEST PUSH2 0xE2B PUSH2 0x21F2 DUP6 PUSH2 0x945 JUMP JUMPDEST PUSH2 0x21FB DUP6 PUSH2 0x945 JUMP JUMPDEST DUP5 PUSH2 0x19E5 JUMP JUMPDEST PUSH1 0x60 DUP3 PUSH2 0x2216 JUMPI PUSH2 0x2211 DUP3 PUSH2 0x226A JUMP JUMPDEST PUSH2 0x6EF JUMP JUMPDEST DUP2 MLOAD ISZERO DUP1 ISZERO PUSH2 0x222D JUMPI POP PUSH1 0x1 PUSH1 0x1 PUSH1 0xA0 SHL SUB DUP5 AND EXTCODESIZE ISZERO JUMPDEST ISZERO PUSH2 0x2256 JUMPI PUSH1 0x40 MLOAD PUSH4 0x9996B315 PUSH1 0xE0 SHL DUP2 MSTORE PUSH1 0x1 PUSH1 0x1 PUSH1 0xA0 SHL SUB DUP6 AND PUSH1 0x4 DUP3 ADD MSTORE PUSH1 0x24 ADD PUSH2 0xA3B JUMP JUMPDEST POP DUP1 PUSH2 0x6EF JUMP JUMPDEST PUSH0 DUP1 PUSH2 0x203F DUP6 DUP6 DUP6 PUSH2 0x2293 JUMP JUMPDEST DUP1 MLOAD ISZERO PUSH2 0x227A JUMPI DUP1 MLOAD DUP1 DUP3 PUSH1 0x20 ADD REVERT JUMPDEST PUSH1 0x40 MLOAD PUSH4 0xD6BDA275 PUSH1 0xE0 SHL DUP2 MSTORE PUSH1 0x4 ADD PUSH1 0x40 MLOAD DUP1 SWAP2 SUB SWAP1 REVERT JUMPDEST DUP3 SLOAD PUSH0 SWAP1 DUP2 SWAP1 DUP1 ISZERO PUSH2 0x2389 JUMPI PUSH0 PUSH2 0x22AF DUP8 PUSH2 0xF5B PUSH1 0x1 DUP6 PUSH2 0x28DD JUMP JUMPDEST DUP1 SLOAD SWAP1 SWAP2 POP PUSH6 0xFFFFFFFFFFFF DUP1 DUP3 AND SWAP2 PUSH1 0x1 PUSH1 0x30 SHL SWAP1 DIV PUSH1 0x1 PUSH1 0x1 PUSH1 0xD0 SHL SUB AND SWAP1 DUP9 AND DUP3 GT ISZERO PUSH2 0x22F2 JUMPI PUSH1 0x40 MLOAD PUSH4 0x2520601D PUSH1 0xE0 SHL DUP2 MSTORE PUSH1 0x4 ADD PUSH1 0x40 MLOAD DUP1 SWAP2 SUB SWAP1 REVERT JUMPDEST DUP8 PUSH6 0xFFFFFFFFFFFF AND DUP3 PUSH6 0xFFFFFFFFFFFF AND SUB PUSH2 0x232B JUMPI DUP3 SLOAD PUSH6 0xFFFFFFFFFFFF AND PUSH1 0x1 PUSH1 0x30 SHL PUSH1 0x1 PUSH1 0x1 PUSH1 0xD0 SHL SUB DUP10 AND MUL OR DUP4 SSTORE PUSH2 0x237B JUMP JUMPDEST PUSH1 0x40 DUP1 MLOAD DUP1 DUP3 ADD SWAP1 SWAP2 MSTORE PUSH6 0xFFFFFFFFFFFF DUP1 DUP11 AND DUP3 MSTORE PUSH1 0x1 PUSH1 0x1 PUSH1 0xD0 SHL SUB DUP1 DUP11 AND PUSH1 0x20 DUP1 DUP6 ADD SWAP2 DUP3 MSTORE DUP14 SLOAD PUSH1 0x1 DUP2 ADD DUP16 SSTORE PUSH0 DUP16 DUP2 MSTORE SWAP2 SWAP1 SWAP2 KECCAK256 SWAP5 MLOAD SWAP2 MLOAD SWAP1 SWAP3 AND PUSH1 0x1 PUSH1 0x30 SHL MUL SWAP3 AND SWAP2 SWAP1 SWAP2 OR SWAP2 ADD SSTORE JUMPDEST SWAP5 POP DUP6 SWAP4 POP PUSH2 0x2044 SWAP3 POP POP POP JUMP JUMPDEST POP POP PUSH1 0x40 DUP1 MLOAD DUP1 DUP3 ADD SWAP1 SWAP2 MSTORE PUSH6 0xFFFFFFFFFFFF DUP1 DUP6 AND DUP3 MSTORE PUSH1 0x1 PUSH1 0x1 PUSH1 0xD0 SHL SUB DUP1 DUP6 AND PUSH1 0x20 DUP1 DUP6 ADD SWAP2 DUP3 MSTORE DUP9 SLOAD PUSH1 0x1 DUP2 ADD DUP11 SSTORE PUSH0 DUP11 DUP2 MSTORE SWAP2 DUP3 KECCAK256 SWAP6 MLOAD SWAP3 MLOAD SWAP1 SWAP4 AND PUSH1 0x1 PUSH1 0x30 SHL MUL SWAP2 SWAP1 SWAP4 AND OR SWAP3 ADD SWAP2 SWAP1 SWAP2 SSTORE SWAP1 POP DUP2 PUSH2 0x2044 JUMP JUMPDEST PUSH0 JUMPDEST DUP4 DUP2 LT ISZERO PUSH2 0x23FD JUMPI DUP2 DUP2 ADD MLOAD DUP4 DUP3 ADD MSTORE PUSH1 0x20 ADD PUSH2 0x23E5 JUMP JUMPDEST POP POP PUSH0 SWAP2 ADD MSTORE JUMP JUMPDEST PUSH0 DUP2 MLOAD DUP1 DUP5 MSTORE PUSH2 0x241C DUP2 PUSH1 0x20 DUP7 ADD PUSH1 0x20 DUP7 ADD PUSH2 0x23E3 JUMP JUMPDEST PUSH1 0x1F ADD PUSH1 0x1F NOT AND SWAP3 SWAP1 SWAP3 ADD PUSH1 0x20 ADD SWAP3 SWAP2 POP POP JUMP JUMPDEST PUSH1 0x20 DUP2 MSTORE PUSH0 PUSH2 0x6EF PUSH1 0x20 DUP4 ADD DUP5 PUSH2 0x2405 JUMP JUMPDEST DUP1 CALLDATALOAD PUSH1 0x1 PUSH1 0x1 PUSH1 0xA0 SHL SUB DUP2 AND DUP2 EQ PUSH2 0x2458 JUMPI PUSH0 DUP1 REVERT JUMPDEST SWAP2 SWAP1 POP JUMP JUMPDEST PUSH0 DUP1 PUSH1 0x40 DUP4 DUP6 SUB SLT ISZERO PUSH2 0x246E JUMPI PUSH0 DUP1 REVERT JUMPDEST PUSH2 0x2477 DUP4 PUSH2 0x2442 JUMP JUMPDEST SWAP5 PUSH1 0x20 SWAP4 SWAP1 SWAP4 ADD CALLDATALOAD SWAP4 POP POP POP JUMP JUMPDEST PUSH0 DUP1 PUSH0 PUSH1 0x60 DUP5 DUP7 SUB SLT ISZERO PUSH2 0x2497 JUMPI PUSH0 DUP1 REVERT JUMPDEST PUSH2 0x24A0 DUP5 PUSH2 0x2442 JUMP JUMPDEST SWAP3 POP PUSH2 0x24AE PUSH1 0x20 DUP6 ADD PUSH2 0x2442 JUMP JUMPDEST SWAP2 POP PUSH1 0x40 DUP5 ADD CALLDATALOAD SWAP1 POP SWAP3 POP SWAP3 POP SWAP3 JUMP JUMPDEST PUSH0 DUP1 PUSH1 0x40 DUP4 DUP6 SUB SLT ISZERO PUSH2 0x24CF JUMPI PUSH0 DUP1 REVERT JUMPDEST PUSH2 0x24D8 DUP4 PUSH2 0x2442 JUMP JUMPDEST SWAP2 POP PUSH2 0x24E6 PUSH1 0x20 DUP5 ADD PUSH2 0x2442 JUMP JUMPDEST SWAP1 POP SWAP3 POP SWAP3 SWAP1 POP JUMP JUMPDEST PUSH4 0x4E487B71 PUSH1 0xE0 SHL PUSH0 MSTORE PUSH1 0x41 PUSH1 0x4 MSTORE PUSH1 0x24 PUSH0 REVERT JUMPDEST PUSH0 DUP1 PUSH1 0x40 DUP4 DUP6 SUB SLT ISZERO PUSH2 0x2514 JUMPI PUSH0 DUP1 REVERT JUMPDEST PUSH2 0x251D DUP4 PUSH2 0x2442 JUMP JUMPDEST SWAP2 POP PUSH1 0x20 DUP4 ADD CALLDATALOAD PUSH8 0xFFFFFFFFFFFFFFFF DUP1 DUP3 GT ISZERO PUSH2 0x2539 JUMPI PUSH0 DUP1 REVERT JUMPDEST DUP2 DUP6 ADD SWAP2 POP DUP6 PUSH1 0x1F DUP4 ADD SLT PUSH2 0x254C JUMPI PUSH0 DUP1 REVERT JUMPDEST DUP2 CALLDATALOAD DUP2 DUP2 GT ISZERO PUSH2 0x255E JUMPI PUSH2 0x255E PUSH2 0x24EF JUMP JUMPDEST PUSH1 0x40 MLOAD PUSH1 0x1F DUP3 ADD PUSH1 0x1F NOT SWAP1 DUP2 AND PUSH1 0x3F ADD AND DUP2 ADD SWAP1 DUP4 DUP3 GT DUP2 DUP4 LT OR ISZERO PUSH2 0x2586 JUMPI PUSH2 0x2586 PUSH2 0x24EF JUMP JUMPDEST DUP2 PUSH1 0x40 MSTORE DUP3 DUP2 MSTORE DUP9 PUSH1 0x20 DUP5 DUP8 ADD ADD GT ISZERO PUSH2 0x259E JUMPI PUSH0 DUP1 REVERT JUMPDEST DUP3 PUSH1 0x20 DUP7 ADD PUSH1 0x20 DUP4 ADD CALLDATACOPY PUSH0 PUSH1 0x20 DUP5 DUP4 ADD ADD MSTORE DUP1 SWAP6 POP POP POP POP POP POP SWAP3 POP SWAP3 SWAP1 POP JUMP JUMPDEST PUSH0 PUSH1 0x20 DUP3 DUP5 SUB SLT ISZERO PUSH2 0x25CF JUMPI PUSH0 DUP1 REVERT JUMPDEST PUSH2 0x6EF DUP3 PUSH2 0x2442 JUMP JUMPDEST PUSH1 0xFF PUSH1 0xF8 SHL DUP9 AND DUP2 MSTORE PUSH0 PUSH1 0x20 PUSH1 0xE0 PUSH1 0x20 DUP5 ADD MSTORE PUSH2 0x25F8 PUSH1 0xE0 DUP5 ADD DUP11 PUSH2 0x2405 JUMP JUMPDEST DUP4 DUP2 SUB PUSH1 0x40 DUP6 ADD MSTORE PUSH2 0x260A DUP2 DUP11 PUSH2 0x2405 JUMP JUMPDEST PUSH1 0x60 DUP6 ADD DUP10 SWAP1 MSTORE PUSH1 0x1 PUSH1 0x1 PUSH1 0xA0 SHL SUB DUP9 AND PUSH1 0x80 DUP7 ADD MSTORE PUSH1 0xA0 DUP6 ADD DUP8 SWAP1 MSTORE DUP5 DUP2 SUB PUSH1 0xC0 DUP7 ADD MSTORE DUP6 MLOAD DUP1 DUP3 MSTORE PUSH1 0x20 DUP1 DUP9 ADD SWAP4 POP SWAP1 SWAP2 ADD SWAP1 PUSH0 JUMPDEST DUP2 DUP2 LT ISZERO PUSH2 0x265D JUMPI DUP4 MLOAD DUP4 MSTORE SWAP3 DUP5 ADD SWAP3 SWAP2 DUP5 ADD SWAP2 PUSH1 0x1 ADD PUSH2 0x2641 JUMP JUMPDEST POP SWAP1 SWAP13 SWAP12 POP POP POP POP POP POP POP POP POP POP POP POP JUMP JUMPDEST PUSH0 PUSH1 0x20 DUP3 DUP5 SUB SLT ISZERO PUSH2 0x267F JUMPI PUSH0 DUP1 REVERT JUMPDEST POP CALLDATALOAD SWAP2 SWAP1 POP JUMP JUMPDEST DUP1 CALLDATALOAD PUSH1 0xFF DUP2 AND DUP2 EQ PUSH2 0x2458 JUMPI PUSH0 DUP1 REVERT JUMPDEST PUSH0 DUP1 PUSH0 DUP1 PUSH0 DUP1 PUSH1 0xC0 DUP8 DUP10 SUB SLT ISZERO PUSH2 0x26AB JUMPI PUSH0 DUP1 REVERT JUMPDEST PUSH2 0x26B4 DUP8 PUSH2 0x2442 JUMP JUMPDEST SWAP6 POP PUSH1 0x20 DUP8 ADD CALLDATALOAD SWAP5 POP PUSH1 0x40 DUP8 ADD CALLDATALOAD SWAP4 POP PUSH2 0x26D0 PUSH1 0x60 DUP9 ADD PUSH2 0x2686 JUMP JUMPDEST SWAP3 POP PUSH1 0x80 DUP8 ADD CALLDATALOAD SWAP2 POP PUSH1 0xA0 DUP8 ADD CALLDATALOAD SWAP1 POP SWAP3 SWAP6 POP SWAP3 SWAP6 POP SWAP3 SWAP6 JUMP JUMPDEST PUSH0 DUP1 PUSH0 DUP1 PUSH0 DUP1 PUSH0 PUSH1 0xE0 DUP9 DUP11 SUB SLT ISZERO PUSH2 0x2700 JUMPI PUSH0 DUP1 REVERT JUMPDEST PUSH2 0x2709 DUP9 PUSH2 0x2442 JUMP JUMPDEST SWAP7 POP PUSH2 0x2717 PUSH1 0x20 DUP10 ADD PUSH2 0x2442 JUMP JUMPDEST SWAP6 POP PUSH1 0x40 DUP9 ADD CALLDATALOAD SWAP5 POP PUSH1 0x60 DUP9 ADD CALLDATALOAD SWAP4 POP PUSH2 0x2733 PUSH1 0x80 DUP10 ADD PUSH2 0x2686 JUMP JUMPDEST SWAP3 POP PUSH1 0xA0 DUP9 ADD CALLDATALOAD SWAP2 POP PUSH1 0xC0 DUP9 ADD CALLDATALOAD SWAP1 POP SWAP3 SWAP6 SWAP9 SWAP2 SWAP5 SWAP8 POP SWAP3 SWAP6 POP JUMP JUMPDEST PUSH0 DUP1 PUSH1 0x40 DUP4 DUP6 SUB SLT ISZERO PUSH2 0x2760 JUMPI PUSH0 DUP1 REVERT JUMPDEST PUSH2 0x2769 DUP4 PUSH2 0x2442 JUMP JUMPDEST SWAP2 POP PUSH1 0x20 DUP4 ADD CALLDATALOAD PUSH4 0xFFFFFFFF DUP2 AND DUP2 EQ PUSH2 0x2781 JUMPI PUSH0 DUP1 REVERT JUMPDEST DUP1 SWAP2 POP POP SWAP3 POP SWAP3 SWAP1 POP JUMP JUMPDEST PUSH1 0x1 DUP2 DUP2 SHR SWAP1 DUP3 AND DUP1 PUSH2 0x27A0 JUMPI PUSH1 0x7F DUP3 AND SWAP2 POP JUMPDEST PUSH1 0x20 DUP3 LT DUP2 SUB PUSH2 0x27BE JUMPI PUSH4 0x4E487B71 PUSH1 0xE0 SHL PUSH0 MSTORE PUSH1 0x22 PUSH1 0x4 MSTORE PUSH1 0x24 PUSH0 REVERT JUMPDEST POP SWAP2 SWAP1 POP JUMP JUMPDEST PUSH4 0x4E487B71 PUSH1 0xE0 SHL PUSH0 MSTORE PUSH1 0x11 PUSH1 0x4 MSTORE PUSH1 0x24 PUSH0 REVERT JUMPDEST PUSH1 0x1 DUP2 DUP2 JUMPDEST DUP1 DUP6 GT ISZERO PUSH2 0x2812 JUMPI DUP2 PUSH0 NOT DIV DUP3 GT ISZERO PUSH2 0x27F8 JUMPI PUSH2 0x27F8 PUSH2 0x27C4 JUMP JUMPDEST DUP1 DUP6 AND ISZERO PUSH2 0x2805 JUMPI SWAP2 DUP2 MUL SWAP2 JUMPDEST SWAP4 DUP5 SHR SWAP4 SWAP1 DUP1 MUL SWAP1 PUSH2 0x27DD JUMP JUMPDEST POP SWAP3 POP SWAP3 SWAP1 POP JUMP JUMPDEST PUSH0 DUP3 PUSH2 0x2828 JUMPI POP PUSH1 0x1 PUSH2 0x6CB JUMP JUMPDEST DUP2 PUSH2 0x2834 JUMPI POP PUSH0 PUSH2 0x6CB JUMP JUMPDEST DUP2 PUSH1 0x1 DUP2 EQ PUSH2 0x284A JUMPI PUSH1 0x2 DUP2 EQ PUSH2 0x2854 JUMPI PUSH2 0x2870 JUMP JUMPDEST PUSH1 0x1 SWAP2 POP POP PUSH2 0x6CB JUMP JUMPDEST PUSH1 0xFF DUP5 GT ISZERO PUSH2 0x2865 JUMPI PUSH2 0x2865 PUSH2 0x27C4 JUMP JUMPDEST POP POP PUSH1 0x1 DUP3 SHL PUSH2 0x6CB JUMP JUMPDEST POP PUSH1 0x20 DUP4 LT PUSH2 0x133 DUP4 LT AND PUSH1 0x4E DUP5 LT PUSH1 0xB DUP5 LT AND OR ISZERO PUSH2 0x2893 JUMPI POP DUP2 DUP2 EXP PUSH2 0x6CB JUMP JUMPDEST PUSH2 0x289D DUP4 DUP4 PUSH2 0x27D8 JUMP JUMPDEST DUP1 PUSH0 NOT DIV DUP3 GT ISZERO PUSH2 0x28B0 JUMPI PUSH2 0x28B0 PUSH2 0x27C4 JUMP JUMPDEST MUL SWAP4 SWAP3 POP POP POP JUMP JUMPDEST PUSH0 PUSH2 0x6EF PUSH1 0xFF DUP5 AND DUP4 PUSH2 0x281A JUMP JUMPDEST DUP1 DUP3 MUL DUP2 ISZERO DUP3 DUP3 DIV DUP5 EQ OR PUSH2 0x6CB JUMPI PUSH2 0x6CB PUSH2 0x27C4 JUMP JUMPDEST DUP2 DUP2 SUB DUP2 DUP2 GT ISZERO PUSH2 0x6CB JUMPI PUSH2 0x6CB PUSH2 0x27C4 JUMP JUMPDEST DUP1 DUP3 ADD DUP1 DUP3 GT ISZERO PUSH2 0x6CB JUMPI PUSH2 0x6CB PUSH2 0x27C4 JUMP JUMPDEST PUSH0 PUSH1 0x20 DUP3 DUP5 SUB SLT ISZERO PUSH2 0x2913 JUMPI PUSH0 DUP1 REVERT JUMPDEST POP MLOAD SWAP2 SWAP1 POP JUMP JUMPDEST PUSH4 0x4E487B71 PUSH1 0xE0 SHL PUSH0 MSTORE PUSH1 0x12 PUSH1 0x4 MSTORE PUSH1 0x24 PUSH0 REVERT JUMPDEST PUSH1 0x1F DUP3 GT ISZERO PUSH2 0xDC8 JUMPI DUP1 PUSH0 MSTORE PUSH1 0x20 PUSH0 KECCAK256 PUSH1 0x1F DUP5 ADD PUSH1 0x5 SHR DUP2 ADD PUSH1 0x20 DUP6 LT ISZERO PUSH2 0x2953 JUMPI POP DUP1 JUMPDEST PUSH1 0x1F DUP5 ADD PUSH1 0x5 SHR DUP3 ADD SWAP2 POP JUMPDEST DUP2 DUP2 LT ISZERO PUSH2 0x1619 JUMPI PUSH0 DUP2 SSTORE PUSH1 0x1 ADD PUSH2 0x295F JUMP JUMPDEST DUP2 MLOAD PUSH8 0xFFFFFFFFFFFFFFFF DUP2 GT ISZERO PUSH2 0x298C JUMPI PUSH2 0x298C PUSH2 0x24EF JUMP JUMPDEST PUSH2 0x29A0 DUP2 PUSH2 0x299A DUP5 SLOAD PUSH2 0x278C JUMP JUMPDEST DUP5 PUSH2 0x292E JUMP JUMPDEST PUSH1 0x20 DUP1 PUSH1 0x1F DUP4 GT PUSH1 0x1 DUP2 EQ PUSH2 0x29D3 JUMPI PUSH0 DUP5 ISZERO PUSH2 0x29BC JUMPI POP DUP6 DUP4 ADD MLOAD JUMPDEST PUSH0 NOT PUSH1 0x3 DUP7 SWAP1 SHL SHR NOT AND PUSH1 0x1 DUP6 SWAP1 SHL OR DUP6 SSTORE PUSH2 0x2A2A JUMP JUMPDEST PUSH0 DUP6 DUP2 MSTORE PUSH1 0x20 DUP2 KECCAK256 PUSH1 0x1F NOT DUP7 AND SWAP2 JUMPDEST DUP3 DUP2 LT ISZERO PUSH2 0x2A01 JUMPI DUP9 DUP7 ADD MLOAD DUP3 SSTORE SWAP5 DUP5 ADD SWAP5 PUSH1 0x1 SWAP1 SWAP2 ADD SWAP1 DUP5 ADD PUSH2 0x29E2 JUMP JUMPDEST POP DUP6 DUP3 LT ISZERO PUSH2 0x2A1E JUMPI DUP8 DUP6 ADD MLOAD PUSH0 NOT PUSH1 0x3 DUP9 SWAP1 SHL PUSH1 0xF8 AND SHR NOT AND DUP2 SSTORE JUMPDEST POP POP PUSH1 0x1 DUP5 PUSH1 0x1 SHL ADD DUP6 SSTORE JUMPDEST POP POP POP POP POP POP JUMP JUMPDEST PUSH4 0x4E487B71 PUSH1 0xE0 SHL PUSH0 MSTORE PUSH1 0x21 PUSH1 0x4 MSTORE PUSH1 0x24 PUSH0 REVERT JUMPDEST PUSH4 0x4E487B71 PUSH1 0xE0 SHL PUSH0 MSTORE PUSH1 0x32 PUSH1 0x4 MSTORE PUSH1 0x24 PUSH0 REVERT JUMPDEST PUSH0 DUP3 PUSH2 0x2A74 JUMPI PUSH4 0x4E487B71 PUSH1 0xE0 SHL PUSH0 MSTORE PUSH1 0x12 PUSH1 0x4 MSTORE PUSH1 0x24 PUSH0 REVERT JUMPDEST POP DIV SWAP1 JUMP JUMPDEST PUSH0 DUP3 MLOAD PUSH2 0x2A8A DUP2 DUP5 PUSH1 0x20 DUP8 ADD PUSH2 0x23E3 JUMP JUMPDEST SWAP2 SWAP1 SWAP2 ADD SWAP3 SWAP2 POP POP JUMP JUMPDEST PUSH1 0x1 PUSH1 0x1 PUSH1 0xD0 SHL SUB DUP3 DUP2 AND DUP3 DUP3 AND SUB SWAP1 DUP1 DUP3 GT ISZERO PUSH2 0x2AB4 JUMPI PUSH2 0x2AB4 PUSH2 0x27C4 JUMP JUMPDEST POP SWAP3 SWAP2 POP POP JUMP JUMPDEST PUSH1 0x1 PUSH1 0x1 PUSH1 0xD0 SHL SUB DUP2 DUP2 AND DUP4 DUP3 AND ADD SWAP1 DUP1 DUP3 GT ISZERO PUSH2 0x2AB4 JUMPI PUSH2 0x2AB4 PUSH2 0x27C4 JUMP INVALID 0xE8 0xB2 PUSH13 0x30FAD74198956032A3533D9033 DUP6 0xD5 PUSH14 0xD795AF560196F9C78D4AF40D0052 0xC6 ORIGIN SELFBALANCE 0xE1 DELEGATECALL PUSH30 0xB19D5CE0460030C497F067CA4CEBF71BA98EEADABE20BACE00A16A46D942 PUSH2 0xC751 PUSH29 0xC8FF89F61C0CE93598E3C849801011DEE649A6A557D100360894A13BA1 LOG3 0x21 MOD PUSH8 0xC828492DB98DCA3E KECCAK256 PUSH23 0xCC3735A920A3CA505D382BBCA2646970667358221220CA SLOAD 0xC6 0xC5 SWAP11 0xCA SWAP2 PUSH29 0xFD139C6EBB26882AE2FF0BA831E27D74043D1B416A13538764736F6C63 NUMBER STOP ADDMOD AND STOP CALLER "
	},
	"Assembly": ".code\n  PUSH A0\t\t\tcontract NextProVista is Initi...\n  PUSH 40\t\t\tcontract NextProVista is Initi...\n  MSTORE \t\t\tcontract NextProVista is Initi...\n  ADDRESS \t\t\t    \n  PUSH 80\t\t\tsafe-allow constructor\\n    co...\n  MSTORE \t\t\tsafe-allow constructor\\n    co...\n  CALLVALUE \t\t\tconstructor() {\\n        _disa...\n  DUP1 \t\t\tconstructor() {\\n        _disa...\n  ISZERO \t\t\tconstructor() {\\n        _disa...\n  PUSH [tag] 1\t\t\tconstructor() {\\n        _disa...\n  JUMPI \t\t\tconstructor() {\\n        _disa...\n  PUSH 0\t\t\tconstructor() {\\n        _disa...\n  DUP1 \t\t\tconstructor() {\\n        _disa...\n  REVERT \t\t\tconstructor() {\\n        _disa...\ntag 1\t\t\tconstructor() {\\n        _disa...\n  JUMPDEST \t\t\tconstructor() {\\n        _disa...\n  POP \t\t\t\n  PUSH [tag] 4\t\t\t_disableInitializers()\n  PUSH [tag] 5\t\t\t_disableInitializers\n  JUMP \t\t\t_disableInitializers()\ntag 4\t\t\t_disableInitializers()\n  JUMPDEST \t\t\t_disableInitializers()\n  PUSH [tag] 15\t\t\tcontract NextProVista is Initi...\n  JUMP \t\t\tcontract NextProVista is Initi...\ntag 5\t\t\t\n  JUMPDEST \t\t\t\n  PUSH F0C57E16840DF040F15088DC2F81FE391C3923BEC73E23A9662EFC9C229C6A00\t\t\t\n  DUP1 \t\t\t\n  SLOAD \t\t\t\n  PUSH 10000000000000000\t\t\t\n  SWAP1 \t\t\t\n  DIV \t\t\t\n  PUSH FF\t\t\t\n  AND \t\t\t\n  ISZERO \t\t\t\n  PUSH [tag] 10\t\t\t\n  JUMPI \t\t\t\n  PUSH 40\t\t\t\n  MLOAD \t\t\t\n  PUSH F92EE8A9\t\t\t\n  PUSH E0\t\t\t\n  SHL \t\t\t\n  DUP2 \t\t\t\n  MSTORE \t\t\t\n  PUSH 4\t\t\t\n  ADD \t\t\t\n  PUSH 40\t\t\t\n  MLOAD \t\t\t\n  DUP1 \t\t\t\n  SWAP2 \t\t\t\n  SUB \t\t\t\n  SWAP1 \t\t\t\n  REVERT \t\t\t\ntag 10\t\t\t\n  JUMPDEST \t\t\t\n  DUP1 \t\t\t\n  SLOAD \t\t\t\n  PUSH 1\t\t\t\n  PUSH 1\t\t\t\n  PUSH 40\t\t\t\n  SHL \t\t\t\n  SUB \t\t\t\n  SWAP1 \t\t\t\n  DUP2 \t\t\t\n  AND \t\t\t\n  EQ \t\t\t\n  PUSH [tag] 11\t\t\t\n  JUMPI \t\t\t\n  DUP1 \t\t\t\n  SLOAD \t\t\t\n  PUSH 1\t\t\t\n  PUSH 1\t\t\t\n  PUSH 40\t\t\t\n  SHL \t\t\t\n  SUB \t\t\t\n  NOT \t\t\t\n  AND \t\t\t\n  PUSH 1\t\t\t\n  PUSH 1\t\t\t\n  PUSH 40\t\t\t\n  SHL \t\t\t\n  SUB \t\t\t\n  SWAP1 \t\t\t\n  DUP2 \t\t\t\n  OR \t\t\t\n  DUP3 \t\t\t\n  SSTORE \t\t\t\n  PUSH 40\t\t\t\n  MLOAD \t\t\t\n  SWAP1 \t\t\tacts-upgradeable@5.2.0/token/E...\n  DUP2 \t\t\tacts-upgradeable@5.2.0/token/E...\n  MSTORE \t\t\tacts-upgradeable@5.2.0/token/E...\n  PUSH C7F505B2F371AE2175EE4913F4499E1F2633A7B5936321EED1CDAEB6115181D2\t\t\t\n  SWAP1 \t\t\t\n  PUSH 20\t\t\tpp\n  ADD \t\t\t} from \"@openzeppe\n  PUSH 40\t\t\t\n  MLOAD \t\t\t\n  DUP1 \t\t\t\n  SWAP2 \t\t\t\n  SUB \t\t\t\n  SWAP1 \t\t\t\n  LOG1 \t\t\t\ntag 11\t\t\t\n  JUMPDEST \t\t\t\n  POP \t\t\t\n  JUMP \t\t\t\ntag 15\t\t\te-Identifier: MIT\\n// Compatib...\n  JUMPDEST \t\t\te-Identifier: MIT\\n// Compatib...\n  PUSH 80\t\t\tcontract NextProVista is Initi...\n  MLOAD \t\t\tcontract NextProVista is Initi...\n  PUSH #[$] 0000000000000000000000000000000000000000000000000000000000000000\t\t\tcontract NextProVista is Initi...\n  PUSH [$] 0000000000000000000000000000000000000000000000000000000000000000\t\t\tcontract NextProVista is Initi...\n  PUSH 0\t\t\tcontract NextProVista is Initi...\n  CODECOPY \t\t\tcontract NextProVista is Initi...\n  PUSH 0\t\t\tcontract NextProVista is Initi...\n  ASSIGNIMMUTABLE 1113\t\t\tcontract NextProVista is Initi...\n  PUSH #[$] 0000000000000000000000000000000000000000000000000000000000000000\t\t\tcontract NextProVista is Initi...\n  PUSH 0\t\t\tcontract NextProVista is Initi...\n  RETURN \t\t\tcontract NextProVista is Initi...\n.data\n  0:\n    .code\n      PUSH 80\t\t\tcontract NextProVista is Initi...\n      PUSH 40\t\t\tcontract NextProVista is Initi...\n      MSTORE \t\t\tcontract NextProVista is Initi...\n      PUSH 4\t\t\tcontract NextProVista is Initi...\n      CALLDATASIZE \t\t\tcontract NextProVista is Initi...\n      LT \t\t\tcontract NextProVista is Initi...\n      PUSH [tag] 1\t\t\tcontract NextProVista is Initi...\n      JUMPI \t\t\tcontract NextProVista is Initi...\n      PUSH 0\t\t\tcontract NextProVista is Initi...\n      CALLDATALOAD \t\t\tcontract NextProVista is Initi...\n      PUSH E0\t\t\tcontract NextProVista is Initi...\n      SHR \t\t\tcontract NextProVista is Initi...\n      DUP1 \t\t\tcontract NextProVista is Initi...\n      PUSH 715018A6\t\t\tcontract NextProVista is Initi...\n      GT \t\t\tcontract NextProVista is Initi...\n      PUSH [tag] 32\t\t\tcontract NextProVista is Initi...\n      JUMPI \t\t\tcontract NextProVista is Initi...\n      DUP1 \t\t\tcontract NextProVista is Initi...\n      PUSH 9AB24EB0\t\t\tcontract NextProVista is Initi...\n      GT \t\t\tcontract NextProVista is Initi...\n      PUSH [tag] 33\t\t\tcontract NextProVista is Initi...\n      JUMPI \t\t\tcontract NextProVista is Initi...\n      DUP1 \t\t\tcontract NextProVista is Initi...\n      PUSH D505ACCF\t\t\tcontract NextProVista is Initi...\n      GT \t\t\tcontract NextProVista is Initi...\n      PUSH [tag] 34\t\t\tcontract NextProVista is Initi...\n      JUMPI \t\t\tcontract NextProVista is Initi...\n      DUP1 \t\t\tcontract NextProVista is Initi...\n      PUSH D505ACCF\t\t\tcontract NextProVista is Initi...\n      EQ \t\t\tcontract NextProVista is Initi...\n      PUSH [tag] 28\t\t\tcontract NextProVista is Initi...\n      JUMPI \t\t\tcontract NextProVista is Initi...\n      DUP1 \t\t\tcontract NextProVista is Initi...\n      PUSH DD62ED3E\t\t\tcontract NextProVista is Initi...\n      EQ \t\t\tcontract NextProVista is Initi...\n      PUSH [tag] 29\t\t\tcontract NextProVista is Initi...\n      JUMPI \t\t\tcontract NextProVista is Initi...\n      DUP1 \t\t\tcontract NextProVista is Initi...\n      PUSH F1127ED8\t\t\tcontract NextProVista is Initi...\n      EQ \t\t\tcontract NextProVista is Initi...\n      PUSH [tag] 30\t\t\tcontract NextProVista is Initi...\n      JUMPI \t\t\tcontract NextProVista is Initi...\n      DUP1 \t\t\tcontract NextProVista is Initi...\n      PUSH F2FDE38B\t\t\tcontract NextProVista is Initi...\n      EQ \t\t\tcontract NextProVista is Initi...\n      PUSH [tag] 31\t\t\tcontract NextProVista is Initi...\n      JUMPI \t\t\tcontract NextProVista is Initi...\n      PUSH 0\t\t\tcontract NextProVista is Initi...\n      DUP1 \t\t\tcontract NextProVista is Initi...\n      REVERT \t\t\tcontract NextProVista is Initi...\n    tag 34\t\t\tcontract NextProVista is Initi...\n      JUMPDEST \t\t\tcontract NextProVista is Initi...\n      DUP1 \t\t\tcontract NextProVista is Initi...\n      PUSH 9AB24EB0\t\t\tcontract NextProVista is Initi...\n      EQ \t\t\tcontract NextProVista is Initi...\n      PUSH [tag] 24\t\t\tcontract NextProVista is Initi...\n      JUMPI \t\t\tcontract NextProVista is Initi...\n      DUP1 \t\t\tcontract NextProVista is Initi...\n      PUSH A9059CBB\t\t\tcontract NextProVista is Initi...\n      EQ \t\t\tcontract NextProVista is Initi...\n      PUSH [tag] 25\t\t\tcontract NextProVista is Initi...\n      JUMPI \t\t\tcontract NextProVista is Initi...\n      DUP1 \t\t\tcontract NextProVista is Initi...\n      PUSH AD3CB1CC\t\t\tcontract NextProVista is Initi...\n      EQ \t\t\tcontract NextProVista is Initi...\n      PUSH [tag] 26\t\t\tcontract NextProVista is Initi...\n      JUMPI \t\t\tcontract NextProVista is Initi...\n      DUP1 \t\t\tcontract NextProVista is Initi...\n      PUSH C3CDA520\t\t\tcontract NextProVista is Initi...\n      EQ \t\t\tcontract NextProVista is Initi...\n      PUSH [tag] 27\t\t\tcontract NextProVista is Initi...\n      JUMPI \t\t\tcontract NextProVista is Initi...\n      PUSH 0\t\t\tcontract NextProVista is Initi...\n      DUP1 \t\t\tcontract NextProVista is Initi...\n      REVERT \t\t\tcontract NextProVista is Initi...\n    tag 33\t\t\tcontract NextProVista is Initi...\n      JUMPDEST \t\t\tcontract NextProVista is Initi...\n      DUP1 \t\t\tcontract NextProVista is Initi...\n      PUSH 8DA5CB5B\t\t\tcontract NextProVista is Initi...\n      GT \t\t\tcontract NextProVista is Initi...\n      PUSH [tag] 35\t\t\tcontract NextProVista is Initi...\n      JUMPI \t\t\tcontract NextProVista is Initi...\n      DUP1 \t\t\tcontract NextProVista is Initi...\n      PUSH 8DA5CB5B\t\t\tcontract NextProVista is Initi...\n      EQ \t\t\tcontract NextProVista is Initi...\n      PUSH [tag] 20\t\t\tcontract NextProVista is Initi...\n      JUMPI \t\t\tcontract NextProVista is Initi...\n      DUP1 \t\t\tcontract NextProVista is Initi...\n      PUSH 8E539E8C\t\t\tcontract NextProVista is Initi...\n      EQ \t\t\tcontract NextProVista is Initi...\n      PUSH [tag] 21\t\t\tcontract NextProVista is Initi...\n      JUMPI \t\t\tcontract NextProVista is Initi...\n      DUP1 \t\t\tcontract NextProVista is Initi...\n      PUSH 91DDADF4\t\t\tcontract NextProVista is Initi...\n      EQ \t\t\tcontract NextProVista is Initi...\n      PUSH [tag] 22\t\t\tcontract NextProVista is Initi...\n      JUMPI \t\t\tcontract NextProVista is Initi...\n      DUP1 \t\t\tcontract NextProVista is Initi...\n      PUSH 95D89B41\t\t\tcontract NextProVista is Initi...\n      EQ \t\t\tcontract NextProVista is Initi...\n      PUSH [tag] 23\t\t\tcontract NextProVista is Initi...\n      JUMPI \t\t\tcontract NextProVista is Initi...\n      PUSH 0\t\t\tcontract NextProVista is Initi...\n      DUP1 \t\t\tcontract NextProVista is Initi...\n      REVERT \t\t\tcontract NextProVista is Initi...\n    tag 35\t\t\tcontract NextProVista is Initi...\n      JUMPDEST \t\t\tcontract NextProVista is Initi...\n      DUP1 \t\t\tcontract NextProVista is Initi...\n      PUSH 715018A6\t\t\tcontract NextProVista is Initi...\n      EQ \t\t\tcontract NextProVista is Initi...\n      PUSH [tag] 17\t\t\tcontract NextProVista is Initi...\n      JUMPI \t\t\tcontract NextProVista is Initi...\n      DUP1 \t\t\tcontract NextProVista is Initi...\n      PUSH 7ECEBE00\t\t\tcontract NextProVista is Initi...\n      EQ \t\t\tcontract NextProVista is Initi...\n      PUSH [tag] 18\t\t\tcontract NextProVista is Initi...\n      JUMPI \t\t\tcontract NextProVista is Initi...\n      DUP1 \t\t\tcontract NextProVista is Initi...\n      PUSH 84B0196E\t\t\tcontract NextProVista is Initi...\n      EQ \t\t\tcontract NextProVista is Initi...\n      PUSH [tag] 19\t\t\tcontract NextProVista is Initi...\n      JUMPI \t\t\tcontract NextProVista is Initi...\n      PUSH 0\t\t\tcontract NextProVista is Initi...\n      DUP1 \t\t\tcontract NextProVista is Initi...\n      REVERT \t\t\tcontract NextProVista is Initi...\n    tag 32\t\t\tcontract NextProVista is Initi...\n      JUMPDEST \t\t\tcontract NextProVista is Initi...\n      DUP1 \t\t\tcontract NextProVista is Initi...\n      PUSH 485CC955\t\t\tcontract NextProVista is Initi...\n      GT \t\t\tcontract NextProVista is Initi...\n      PUSH [tag] 36\t\t\tcontract NextProVista is Initi...\n      JUMPI \t\t\tcontract NextProVista is Initi...\n      DUP1 \t\t\tcontract NextProVista is Initi...\n      PUSH 587CDE1E\t\t\tcontract NextProVista is Initi...\n      GT \t\t\tcontract NextProVista is Initi...\n      PUSH [tag] 37\t\t\tcontract NextProVista is Initi...\n      JUMPI \t\t\tcontract NextProVista is Initi...\n      DUP1 \t\t\tcontract NextProVista is Initi...\n      PUSH 587CDE1E\t\t\tcontract NextProVista is Initi...\n      EQ \t\t\tcontract NextProVista is Initi...\n      PUSH [tag] 13\t\t\tcontract NextProVista is Initi...\n      JUMPI \t\t\tcontract NextProVista is Initi...\n      DUP1 \t\t\tcontract NextProVista is Initi...\n      PUSH 5C19A95C\t\t\tcontract NextProVista is Initi...\n      EQ \t\t\tcontract NextProVista is Initi...\n      PUSH [tag] 14\t\t\tcontract NextProVista is Initi...\n      JUMPI \t\t\tcontract NextProVista is Initi...\n      DUP1 \t\t\tcontract NextProVista is Initi...\n      PUSH 6FCFFF45\t\t\tcontract NextProVista is Initi...\n      EQ \t\t\tcontract NextProVista is Initi...\n      PUSH [tag] 15\t\t\tcontract NextProVista is Initi...\n      JUMPI \t\t\tcontract NextProVista is Initi...\n      DUP1 \t\t\tcontract NextProVista is Initi...\n      PUSH 70A08231\t\t\tcontract NextProVista is Initi...\n      EQ \t\t\tcontract NextProVista is Initi...\n      PUSH [tag] 16\t\t\tcontract NextProVista is Initi...\n      JUMPI \t\t\tcontract NextProVista is Initi...\n      PUSH 0\t\t\tcontract NextProVista is Initi...\n      DUP1 \t\t\tcontract NextProVista is Initi...\n      REVERT \t\t\tcontract NextProVista is Initi...\n    tag 37\t\t\tcontract NextProVista is Initi...\n      JUMPDEST \t\t\tcontract NextProVista is Initi...\n      DUP1 \t\t\tcontract NextProVista is Initi...\n      PUSH 485CC955\t\t\tcontract NextProVista is Initi...\n      EQ \t\t\tcontract NextProVista is Initi...\n      PUSH [tag] 9\t\t\tcontract NextProVista is Initi...\n      JUMPI \t\t\tcontract NextProVista is Initi...\n      DUP1 \t\t\tcontract NextProVista is Initi...\n      PUSH 4BF5D7E9\t\t\tcontract NextProVista is Initi...\n      EQ \t\t\tcontract NextProVista is Initi...\n      PUSH [tag] 10\t\t\tcontract NextProVista is Initi...\n      JUMPI \t\t\tcontract NextProVista is Initi...\n      DUP1 \t\t\tcontract NextProVista is Initi...\n      PUSH 4F1EF286\t\t\tcontract NextProVista is Initi...\n      EQ \t\t\tcontract NextProVista is Initi...\n      PUSH [tag] 11\t\t\tcontract NextProVista is Initi...\n      JUMPI \t\t\tcontract NextProVista is Initi...\n      DUP1 \t\t\tcontract NextProVista is Initi...\n      PUSH 52D1902D\t\t\tcontract NextProVista is Initi...\n      EQ \t\t\tcontract NextProVista is Initi...\n      PUSH [tag] 12\t\t\tcontract NextProVista is Initi...\n      JUMPI \t\t\tcontract NextProVista is Initi...\n      PUSH 0\t\t\tcontract NextProVista is Initi...\n      DUP1 \t\t\tcontract NextProVista is Initi...\n      REVERT \t\t\tcontract NextProVista is Initi...\n    tag 36\t\t\tcontract NextProVista is Initi...\n      JUMPDEST \t\t\tcontract NextProVista is Initi...\n      DUP1 \t\t\tcontract NextProVista is Initi...\n      PUSH 23B872DD\t\t\tcontract NextProVista is Initi...\n      GT \t\t\tcontract NextProVista is Initi...\n      PUSH [tag] 38\t\t\tcontract NextProVista is Initi...\n      JUMPI \t\t\tcontract NextProVista is Initi...\n      DUP1 \t\t\tcontract NextProVista is Initi...\n      PUSH 23B872DD\t\t\tcontract NextProVista is Initi...\n      EQ \t\t\tcontract NextProVista is Initi...\n      PUSH [tag] 5\t\t\tcontract NextProVista is Initi...\n      JUMPI \t\t\tcontract NextProVista is Initi...\n      DUP1 \t\t\tcontract NextProVista is Initi...\n      PUSH 313CE567\t\t\tcontract NextProVista is Initi...\n      EQ \t\t\tcontract NextProVista is Initi...\n      PUSH [tag] 6\t\t\tcontract NextProVista is Initi...\n      JUMPI \t\t\tcontract NextProVista is Initi...\n      DUP1 \t\t\tcontract NextProVista is Initi...\n      PUSH 3644E515\t\t\tcontract NextProVista is Initi...\n      EQ \t\t\tcontract NextProVista is Initi...\n      PUSH [tag] 7\t\t\tcontract NextProVista is Initi...\n      JUMPI \t\t\tcontract NextProVista is Initi...\n      DUP1 \t\t\tcontract NextProVista is Initi...\n      PUSH 3A46B1A8\t\t\tcontract NextProVista is Initi...\n      EQ \t\t\tcontract NextProVista is Initi...\n      PUSH [tag] 8\t\t\tcontract NextProVista is Initi...\n      JUMPI \t\t\tcontract NextProVista is Initi...\n      PUSH 0\t\t\tcontract NextProVista is Initi...\n      DUP1 \t\t\tcontract NextProVista is Initi...\n      REVERT \t\t\tcontract NextProVista is Initi...\n    tag 38\t\t\tcontract NextProVista is Initi...\n      JUMPDEST \t\t\tcontract NextProVista is Initi...\n      DUP1 \t\t\tcontract NextProVista is Initi...\n      PUSH 6FDDE03\t\t\tcontract NextProVista is Initi...\n      EQ \t\t\tcontract NextProVista is Initi...\n      PUSH [tag] 2\t\t\tcontract NextProVista is Initi...\n      JUMPI \t\t\tcontract NextProVista is Initi...\n      DUP1 \t\t\tcontract NextProVista is Initi...\n      PUSH 95EA7B3\t\t\tcontract NextProVista is Initi...\n      EQ \t\t\tcontract NextProVista is Initi...\n      PUSH [tag] 3\t\t\tcontract NextProVista is Initi...\n      JUMPI \t\t\tcontract NextProVista is Initi...\n      DUP1 \t\t\tcontract NextProVista is Initi...\n      PUSH 18160DDD\t\t\tcontract NextProVista is Initi...\n      EQ \t\t\tcontract NextProVista is Initi...\n      PUSH [tag] 4\t\t\tcontract NextProVista is Initi...\n      JUMPI \t\t\tcontract NextProVista is Initi...\n    tag 1\t\t\tcontract NextProVista is Initi...\n      JUMPDEST \t\t\tcontract NextProVista is Initi...\n      PUSH 0\t\t\tcontract NextProVista is Initi...\n      DUP1 \t\t\tcontract NextProVista is Initi...\n      REVERT \t\t\tcontract NextProVista is Initi...\n    tag 2\t\t\t\n      JUMPDEST \t\t\t\n      CALLVALUE \t\t\t\n      DUP1 \t\t\t\n      ISZERO \t\t\t\n      PUSH [tag] 39\t\t\t\n      JUMPI \t\t\t\n      PUSH 0\t\t\t\n      DUP1 \t\t\t\n      REVERT \t\t\t\n    tag 39\t\t\t\n      JUMPDEST \t\t\t\n      POP \t\t\t\n      PUSH [tag] 40\t\t\t\n      PUSH [tag] 41\t\t\t\n      JUMP \t\t\t\n    tag 40\t\t\t\n      JUMPDEST \t\t\t\n      PUSH 40\t\t\t\n      MLOAD \t\t\t\n      PUSH [tag] 42\t\t\t\n      SWAP2 \t\t\t\n      SWAP1 \t\t\t\n      PUSH [tag] 43\t\t\t\n      JUMP \t\t\t\n    tag 42\t\t\t\n      JUMPDEST \t\t\t\n      PUSH 40\t\t\t\n      MLOAD \t\t\t\n      DUP1 \t\t\t\n      SWAP2 \t\t\t\n      SUB \t\t\t\n      SWAP1 \t\t\t\n      RETURN \t\t\t\n    tag 3\t\t\t\n      JUMPDEST \t\t\t\n      CALLVALUE \t\t\t\n      DUP1 \t\t\t\n      ISZERO \t\t\t\n      PUSH [tag] 44\t\t\t\n      JUMPI \t\t\t\n      PUSH 0\t\t\t\n      DUP1 \t\t\t\n      REVERT \t\t\t\n    tag 44\t\t\t\n      JUMPDEST \t\t\t\n      POP \t\t\t\n      PUSH [tag] 45\t\t\t\n      PUSH [tag] 46\t\t\t\n      CALLDATASIZE \t\t\t\n      PUSH 4\t\t\t\n      PUSH [tag] 47\t\t\t\n      JUMP \t\t\t\n    tag 46\t\t\t\n      JUMPDEST \t\t\t\n      PUSH [tag] 48\t\t\t\n      JUMP \t\t\t\n    tag 45\t\t\t\n      JUMPDEST \t\t\t\n      PUSH 40\t\t\t\n      MLOAD \t\t\t\n      SWAP1 \t\t\trmit_init(\"Nex\n      ISZERO \t\t\trmit_init(\"Nex\n      ISZERO \t\t\tERC20Permit_init(\"Next\n      DUP2 \t\t\t\"NPV\");\\n        __ERC20Permit...\n      MSTORE \t\t\t\"NPV\");\\n        __ERC20Permit...\n      PUSH 20\t\t\tPr\n      ADD \t\t\tC20_init(\"Next Pro\n      PUSH [tag] 42\t\t\t\n      JUMP \t\t\t}\\n\\n    function initialize(a...\n    tag 4\t\t\t\n      JUMPDEST \t\t\t\n      CALLVALUE \t\t\t\n      DUP1 \t\t\t\n      ISZERO \t\t\t\n      PUSH [tag] 51\t\t\t\n      JUMPI \t\t\t\n      PUSH 0\t\t\t\n      DUP1 \t\t\t\n      REVERT \t\t\t\n    tag 51\t\t\t\n      JUMPDEST \t\t\t\n      POP \t\t\t\n      PUSH 52C63247E1F47DB19D5CE0460030C497F067CA4CEBF71BA98EEADABE20BACE02\t\t\t\n      SLOAD \t\t\t\n    tag 52\t\t\t\n      JUMPDEST \t\t\t\n      PUSH 40\t\t\t\n      MLOAD \t\t\t\n      SWAP1 \t\t\t decimals());\\n    }\\n\\n    \n      DUP2 \t\t\t decimals());\\n    }\\n\\n    \n      MSTORE \t\t\t decimals());\\n    }\\n\\n    \n      PUSH 20\t\t\t47\n      ADD \t\t\tecipient, 38165472\n      PUSH [tag] 42\t\t\t\n      JUMP \t\t\t;\\n        __ERC20Votes_init()...\n    tag 5\t\t\t\n      JUMPDEST \t\t\t\n      CALLVALUE \t\t\t\n      DUP1 \t\t\t\n      ISZERO \t\t\t\n      PUSH [tag] 56\t\t\t\n      JUMPI \t\t\t\n      PUSH 0\t\t\t\n      DUP1 \t\t\t\n      REVERT \t\t\t\n    tag 56\t\t\t\n      JUMPDEST \t\t\t\n      POP \t\t\t\n      PUSH [tag] 45\t\t\t\n      PUSH [tag] 58\t\t\t\n      CALLDATASIZE \t\t\t\n      PUSH 4\t\t\t\n      PUSH [tag] 59\t\t\t\n      JUMP \t\t\t\n    tag 58\t\t\t\n      JUMPDEST \t\t\t\n      PUSH [tag] 60\t\t\t\n      JUMP \t\t\t\n    tag 6\t\t\t\n      JUMPDEST \t\t\t\n      CALLVALUE \t\t\t\n      DUP1 \t\t\t\n      ISZERO \t\t\t\n      PUSH [tag] 62\t\t\t\n      JUMPI \t\t\t\n      PUSH 0\t\t\t\n      DUP1 \t\t\t\n      REVERT \t\t\t\n    tag 62\t\t\t\n      JUMPDEST \t\t\t\n      POP \t\t\t\n      PUSH 40\t\t\t\n      MLOAD \t\t\t\n      PUSH 12\t\t\t\n      DUP2 \t\t\trom, address to, uint256 value...\n      MSTORE \t\t\trom, address to, uint256 value...\n      PUSH 20\t\t\tte\n      ADD \t\t\t function _update(\n      PUSH [tag] 42\t\t\t\n      JUMP \t\t\t\\n        override\\n        on...\n    tag 7\t\t\t\n      JUMPDEST \t\t\t\n      CALLVALUE \t\t\t\n      DUP1 \t\t\t\n      ISZERO \t\t\t\n      PUSH [tag] 67\t\t\t\n      JUMPI \t\t\t\n      PUSH 0\t\t\t\n      DUP1 \t\t\t\n      REVERT \t\t\t\n    tag 67\t\t\t\n      JUMPDEST \t\t\t\n      POP \t\t\t\n      PUSH [tag] 52\t\t\t\n      PUSH [tag] 69\t\t\t\n      JUMP \t\t\t\n    tag 8\t\t\t\n      JUMPDEST \t\t\t\n      CALLVALUE \t\t\t\n      DUP1 \t\t\t\n      ISZERO \t\t\t\n      PUSH [tag] 72\t\t\t\n      JUMPI \t\t\t\n      PUSH 0\t\t\t\n      DUP1 \t\t\t\n      REVERT \t\t\t\n    tag 72\t\t\t\n      JUMPDEST \t\t\t\n      POP \t\t\t\n      PUSH [tag] 52\t\t\t\n      PUSH [tag] 74\t\t\t\n      CALLDATASIZE \t\t\t\n      PUSH 4\t\t\t\n      PUSH [tag] 47\t\t\t\n      JUMP \t\t\t\n    tag 74\t\t\t\n      JUMPDEST \t\t\t\n      PUSH [tag] 75\t\t\t\n      JUMP \t\t\t\n    tag 9\t\t\tfunction initialize(address re...\n      JUMPDEST \t\t\tfunction initialize(address re...\n      CALLVALUE \t\t\tfunction initialize(address re...\n      DUP1 \t\t\tfunction initialize(address re...\n      ISZERO \t\t\tfunction initialize(address re...\n      PUSH [tag] 77\t\t\tfunction initialize(address re...\n      JUMPI \t\t\tfunction initialize(address re...\n      PUSH 0\t\t\tfunction initialize(address re...\n      DUP1 \t\t\tfunction initialize(address re...\n      REVERT \t\t\tfunction initialize(address re...\n    tag 77\t\t\tfunction initialize(address re...\n      JUMPDEST \t\t\tfunction initialize(address re...\n      POP \t\t\t\n      PUSH [tag] 78\t\t\tfunction initialize(address re...\n      PUSH [tag] 79\t\t\tfunction initialize(address re...\n      CALLDATASIZE \t\t\tfunction initialize(address re...\n      PUSH 4\t\t\tfunction initialize(address re...\n      PUSH [tag] 80\t\t\tfunction initialize(address re...\n      JUMP \t\t\tfunction initialize(address re...\n    tag 79\t\t\tfunction initialize(address re...\n      JUMPDEST \t\t\tfunction initialize(address re...\n      PUSH [tag] 81\t\t\tfunction initialize(address re...\n      JUMP \t\t\tfunction initialize(address re...\n    tag 78\t\t\tfunction initialize(address re...\n      JUMPDEST \t\t\tfunction initialize(address re...\n      STOP \t\t\tfunction initialize(address re...\n    tag 10\t\t\tfunction CLOCK_MODE() public p...\n      JUMPDEST \t\t\tfunction CLOCK_MODE() public p...\n      CALLVALUE \t\t\tfunction CLOCK_MODE() public p...\n      DUP1 \t\t\tfunction CLOCK_MODE() public p...\n      ISZERO \t\t\tfunction CLOCK_MODE() public p...\n      PUSH [tag] 82\t\t\tfunction CLOCK_MODE() public p...\n      JUMPI \t\t\tfunction CLOCK_MODE() public p...\n      PUSH 0\t\t\tfunction CLOCK_MODE() public p...\n      DUP1 \t\t\tfunction CLOCK_MODE() public p...\n      REVERT \t\t\tfunction CLOCK_MODE() public p...\n    tag 82\t\t\tfunction CLOCK_MODE() public p...\n      JUMPDEST \t\t\tfunction CLOCK_MODE() public p...\n      POP \t\t\t\n      PUSH 40\t\t\treturn \"mode=timestamp\"\n      DUP1 \t\t\treturn \"mode=timestamp\"\n      MLOAD \t\t\treturn \"mode=timestamp\"\n      DUP1 \t\t\treturn \"mode=timestamp\"\n      DUP3 \t\t\treturn \"mode=timestamp\"\n      ADD \t\t\treturn \"mode=timestamp\"\n      SWAP1 \t\t\treturn \"mode=timestamp\"\n      SWAP2 \t\t\treturn \"mode=timestamp\"\n      MSTORE \t\t\treturn \"mode=timestamp\"\n      PUSH E\t\t\treturn \"mode=timestamp\"\n      DUP2 \t\t\treturn \"mode=timestamp\"\n      MSTORE \t\t\treturn \"mode=timestamp\"\n      PUSH 6D6F64653D74696D657374616D7\t\t\t\n      PUSH 94\t\t\t\n      SHL \t\t\t\n      PUSH 20\t\t\treturn \"mode=timestamp\"\n      DUP3 \t\t\treturn \"mode=timestamp\"\n      ADD \t\t\treturn \"mode=timestamp\"\n      MSTORE \t\t\treturn \"mode=timestamp\"\n      PUSH [tag] 40\t\t\tfunction CLOCK_MODE() public p...\n      JUMP \t\t\tfunction CLOCK_MODE() public p...\n    tag 11\t\t\t\n      JUMPDEST \t\t\t\n      PUSH [tag] 78\t\t\t\n      PUSH [tag] 87\t\t\t\n      CALLDATASIZE \t\t\t\n      PUSH 4\t\t\t\n      PUSH [tag] 88\t\t\t\n      JUMP \t\t\t\n    tag 87\t\t\t\n      JUMPDEST \t\t\t\n      PUSH [tag] 89\t\t\t\n      JUMP \t\t\t\n    tag 12\t\t\t\n      JUMPDEST \t\t\t\n      CALLVALUE \t\t\t\n      DUP1 \t\t\t\n      ISZERO \t\t\t\n      PUSH [tag] 90\t\t\t\n      JUMPI \t\t\t\n      PUSH 0\t\t\t\n      DUP1 \t\t\t\n      REVERT \t\t\t\n    tag 90\t\t\t\n      JUMPDEST \t\t\t\n      POP \t\t\t\n      PUSH [tag] 52\t\t\t\n      PUSH [tag] 92\t\t\t\n      JUMP \t\t\t\n    tag 13\t\t\t\n      JUMPDEST \t\t\t\n      CALLVALUE \t\t\t\n      DUP1 \t\t\t\n      ISZERO \t\t\t\n      PUSH [tag] 94\t\t\t\n      JUMPI \t\t\t\n      PUSH 0\t\t\t\n      DUP1 \t\t\t\n      REVERT \t\t\t\n    tag 94\t\t\t\n      JUMPDEST \t\t\t\n      POP \t\t\t\n      PUSH [tag] 95\t\t\t\n      PUSH [tag] 96\t\t\t\n      CALLDATASIZE \t\t\t\n      PUSH 4\t\t\t\n      PUSH [tag] 97\t\t\t\n      JUMP \t\t\t\n    tag 96\t\t\t\n      JUMPDEST \t\t\t\n      PUSH [tag] 98\t\t\t\n      JUMP \t\t\t\n    tag 95\t\t\t\n      JUMPDEST \t\t\t\n      PUSH 40\t\t\t\n      MLOAD \t\t\t\n      PUSH 1\t\t\t\n      PUSH 1\t\t\t\n      PUSH A0\t\t\t\n      SHL \t\t\t\n      SUB \t\t\t\n      SWAP1 \t\t\t\n      SWAP2 \t\t\t\n      AND \t\t\t\n      DUP2 \t\t\t\n      MSTORE \t\t\t\n      PUSH 20\t\t\t\n      ADD \t\t\t\n      PUSH [tag] 42\t\t\t\n      JUMP \t\t\t\n    tag 14\t\t\t\n      JUMPDEST \t\t\t\n      CALLVALUE \t\t\t\n      DUP1 \t\t\t\n      ISZERO \t\t\t\n      PUSH [tag] 101\t\t\t\n      JUMPI \t\t\t\n      PUSH 0\t\t\t\n      DUP1 \t\t\t\n      REVERT \t\t\t\n    tag 101\t\t\t\n      JUMPDEST \t\t\t\n      POP \t\t\t\n      PUSH [tag] 78\t\t\t\n      PUSH [tag] 103\t\t\t\n      CALLDATASIZE \t\t\t\n      PUSH 4\t\t\t\n      PUSH [tag] 97\t\t\t\n      JUMP \t\t\t\n    tag 103\t\t\t\n      JUMPDEST \t\t\t\n      PUSH [tag] 104\t\t\t\n      JUMP \t\t\t\n    tag 15\t\t\t\n      JUMPDEST \t\t\t\n      CALLVALUE \t\t\t\n      DUP1 \t\t\t\n      ISZERO \t\t\t\n      PUSH [tag] 105\t\t\t\n      JUMPI \t\t\t\n      PUSH 0\t\t\t\n      DUP1 \t\t\t\n      REVERT \t\t\t\n    tag 105\t\t\t\n      JUMPDEST \t\t\t\n      POP \t\t\t\n      PUSH [tag] 106\t\t\t\n      PUSH [tag] 107\t\t\t\n      CALLDATASIZE \t\t\t\n      PUSH 4\t\t\t\n      PUSH [tag] 97\t\t\t\n      JUMP \t\t\t\n    tag 107\t\t\t\n      JUMPDEST \t\t\t\n      PUSH [tag] 108\t\t\t\n      JUMP \t\t\t\n    tag 106\t\t\t\n      JUMPDEST \t\t\t\n      PUSH 40\t\t\t\n      MLOAD \t\t\t\n      PUSH FFFFFFFF\t\t\t\n      SWAP1 \t\t\t\n      SWAP2 \t\t\t\n      AND \t\t\t\n      DUP2 \t\t\t\n      MSTORE \t\t\t\n      PUSH 20\t\t\t\n      ADD \t\t\t\n      PUSH [tag] 42\t\t\t\n      JUMP \t\t\t\n    tag 16\t\t\t\n      JUMPDEST \t\t\t\n      CALLVALUE \t\t\t\n      DUP1 \t\t\t\n      ISZERO \t\t\t\n      PUSH [tag] 111\t\t\t\n      JUMPI \t\t\t\n      PUSH 0\t\t\t\n      DUP1 \t\t\t\n      REVERT \t\t\t\n    tag 111\t\t\t\n      JUMPDEST \t\t\t\n      POP \t\t\t\n      PUSH [tag] 52\t\t\t\n      PUSH [tag] 113\t\t\t\n      CALLDATASIZE \t\t\t\n      PUSH 4\t\t\t\n      PUSH [tag] 97\t\t\t\n      JUMP \t\t\t\n    tag 113\t\t\t\n      JUMPDEST \t\t\t\n      PUSH [tag] 114\t\t\t\n      JUMP \t\t\t\n    tag 17\t\t\t\n      JUMPDEST \t\t\t\n      CALLVALUE \t\t\t\n      DUP1 \t\t\t\n      ISZERO \t\t\t\n      PUSH [tag] 116\t\t\t\n      JUMPI \t\t\t\n      PUSH 0\t\t\t\n      DUP1 \t\t\t\n      REVERT \t\t\t\n    tag 116\t\t\t\n      JUMPDEST \t\t\t\n      POP \t\t\t\n      PUSH [tag] 78\t\t\t\n      PUSH [tag] 118\t\t\t\n      JUMP \t\t\t\n    tag 18\t\t\tfunction nonces(address owner)...\n      JUMPDEST \t\t\tfunction nonces(address owner)...\n      CALLVALUE \t\t\tfunction nonces(address owner)...\n      DUP1 \t\t\tfunction nonces(address owner)...\n      ISZERO \t\t\tfunction nonces(address owner)...\n      PUSH [tag] 119\t\t\tfunction nonces(address owner)...\n      JUMPI \t\t\tfunction nonces(address owner)...\n      PUSH 0\t\t\tfunction nonces(address owner)...\n      DUP1 \t\t\tfunction nonces(address owner)...\n      REVERT \t\t\tfunction nonces(address owner)...\n    tag 119\t\t\tfunction nonces(address owner)...\n      JUMPDEST \t\t\tfunction nonces(address owner)...\n      POP \t\t\t\n      PUSH [tag] 52\t\t\tfunction nonces(address owner)...\n      PUSH [tag] 121\t\t\tfunction nonces(address owner)...\n      CALLDATASIZE \t\t\tfunction nonces(address owner)...\n      PUSH 4\t\t\tfunction nonces(address owner)...\n      PUSH [tag] 97\t\t\tfunction nonces(address owner)...\n      JUMP \t\t\tfunction nonces(address owner)...\n    tag 121\t\t\tfunction nonces(address owner)...\n      JUMPDEST \t\t\tfunction nonces(address owner)...\n      PUSH [tag] 122\t\t\tfunction nonces(address owner)...\n      JUMP \t\t\tfunction nonces(address owner)...\n    tag 19\t\t\t\n      JUMPDEST \t\t\t\n      CALLVALUE \t\t\t\n      DUP1 \t\t\t\n      ISZERO \t\t\t\n      PUSH [tag] 124\t\t\t\n      JUMPI \t\t\t\n      PUSH 0\t\t\t\n      DUP1 \t\t\t\n      REVERT \t\t\t\n    tag 124\t\t\t\n      JUMPDEST \t\t\t\n      POP \t\t\t\n      PUSH [tag] 125\t\t\t\n      PUSH [tag] 126\t\t\t\n      JUMP \t\t\t\n    tag 125\t\t\t\n      JUMPDEST \t\t\t\n      PUSH 40\t\t\t\n      MLOAD \t\t\t\n      PUSH [tag] 42\t\t\t\n      SWAP8 \t\t\t\n      SWAP7 \t\t\t\n      SWAP6 \t\t\t\n      SWAP5 \t\t\t\n      SWAP4 \t\t\t\n      SWAP3 \t\t\t\n      SWAP2 \t\t\t\n      SWAP1 \t\t\t\n      PUSH [tag] 128\t\t\t\n      JUMP \t\t\t\n    tag 20\t\t\t\n      JUMPDEST \t\t\t\n      CALLVALUE \t\t\t\n      DUP1 \t\t\t\n      ISZERO \t\t\t\n      PUSH [tag] 129\t\t\t\n      JUMPI \t\t\t\n      PUSH 0\t\t\t\n      DUP1 \t\t\t\n      REVERT \t\t\t\n    tag 129\t\t\t\n      JUMPDEST \t\t\t\n      POP \t\t\t\n      PUSH 9016D09D72D40FDAE2FD8CEAC6B6234C7706214FD39C1CD1E609A0528C199300\t\t\t   __ERC20_init(\"Next \n      SLOAD \t\t\t\n      PUSH 1\t\t\t\n      PUSH 1\t\t\t\n      PUSH A0\t\t\t\n      SHL \t\t\t\n      SUB \t\t\t\n      AND \t\t\t\n      PUSH [tag] 95\t\t\t\n      JUMP \t\t\t\n    tag 21\t\t\t\n      JUMPDEST \t\t\t\n      CALLVALUE \t\t\t\n      DUP1 \t\t\t\n      ISZERO \t\t\t\n      PUSH [tag] 133\t\t\t\n      JUMPI \t\t\t\n      PUSH 0\t\t\t\n      DUP1 \t\t\t\n      REVERT \t\t\t\n    tag 133\t\t\t\n      JUMPDEST \t\t\t\n      POP \t\t\t\n      PUSH [tag] 52\t\t\t\n      PUSH [tag] 135\t\t\t\n      CALLDATASIZE \t\t\t\n      PUSH 4\t\t\t\n      PUSH [tag] 136\t\t\t\n      JUMP \t\t\t\n    tag 135\t\t\t\n      JUMPDEST \t\t\t\n      PUSH [tag] 137\t\t\t\n      JUMP \t\t\t\n    tag 22\t\t\tfunction clock() public view o...\n      JUMPDEST \t\t\tfunction clock() public view o...\n      CALLVALUE \t\t\tfunction clock() public view o...\n      DUP1 \t\t\tfunction clock() public view o...\n      ISZERO \t\t\tfunction clock() public view o...\n      PUSH [tag] 139\t\t\tfunction clock() public view o...\n      JUMPI \t\t\tfunction clock() public view o...\n      PUSH 0\t\t\tfunction clock() public view o...\n      DUP1 \t\t\tfunction clock() public view o...\n      REVERT \t\t\tfunction clock() public view o...\n    tag 139\t\t\tfunction clock() public view o...\n      JUMPDEST \t\t\tfunction clock() public view o...\n      POP \t\t\t\n      PUSH 40\t\t\tfunction clock() public view o...\n      MLOAD \t\t\tfunction clock() public view o...\n      PUSH FFFFFFFFFFFF\t\t\t\n      TIMESTAMP \t\t\tblock.timestamp\n      AND \t\t\t\n      DUP2 \t\t\t\n      MSTORE \t\t\t\n      PUSH 20\t\t\t\n      ADD \t\t\t\n      PUSH [tag] 42\t\t\tfunction clock() public view o...\n      JUMP \t\t\t\n    tag 23\t\t\t\n      JUMPDEST \t\t\t\n      CALLVALUE \t\t\t\n      DUP1 \t\t\t\n      ISZERO \t\t\t\n      PUSH [tag] 144\t\t\t\n      JUMPI \t\t\t\n      PUSH 0\t\t\t\n      DUP1 \t\t\t\n      REVERT \t\t\t\n    tag 144\t\t\t\n      JUMPDEST \t\t\t\n      POP \t\t\t\n      PUSH [tag] 40\t\t\t\n      PUSH [tag] 146\t\t\t\n      JUMP \t\t\t\n    tag 24\t\t\t\n      JUMPDEST \t\t\t\n      CALLVALUE \t\t\t\n      DUP1 \t\t\t\n      ISZERO \t\t\t\n      PUSH [tag] 148\t\t\t\n      JUMPI \t\t\t\n      PUSH 0\t\t\t\n      DUP1 \t\t\t\n      REVERT \t\t\t\n    tag 148\t\t\t\n      JUMPDEST \t\t\t\n      POP \t\t\t\n      PUSH [tag] 52\t\t\t\n      PUSH [tag] 150\t\t\t\n      CALLDATASIZE \t\t\t\n      PUSH 4\t\t\t\n      PUSH [tag] 97\t\t\t\n      JUMP \t\t\t\n    tag 150\t\t\t\n      JUMPDEST \t\t\t\n      PUSH [tag] 151\t\t\t\n      JUMP \t\t\t\n    tag 25\t\t\t\n      JUMPDEST \t\t\t\n      CALLVALUE \t\t\t\n      DUP1 \t\t\t\n      ISZERO \t\t\t\n      PUSH [tag] 153\t\t\t\n      JUMPI \t\t\t\n      PUSH 0\t\t\t\n      DUP1 \t\t\t\n      REVERT \t\t\t\n    tag 153\t\t\t\n      JUMPDEST \t\t\t\n      POP \t\t\t\n      PUSH [tag] 45\t\t\t\n      PUSH [tag] 155\t\t\t\n      CALLDATASIZE \t\t\t\n      PUSH 4\t\t\t\n      PUSH [tag] 47\t\t\t\n      JUMP \t\t\t\n    tag 155\t\t\t\n      JUMPDEST \t\t\t\n      PUSH [tag] 156\t\t\t\n      JUMP \t\t\t\n    tag 26\t\t\te=timestamp\";\\n    }\\n\\n    fu...\n      JUMPDEST \t\t\te=timestamp\";\\n    }\\n\\n    fu...\n      CALLVALUE \t\t\te=timestamp\";\\n    }\\n\\n    fu...\n      DUP1 \t\t\te=timestamp\";\\n    }\\n\\n    fu...\n      ISZERO \t\t\te=timestamp\";\\n    }\\n\\n    fu...\n      PUSH [tag] 158\t\t\te=timestamp\";\\n    }\\n\\n    fu...\n      JUMPI \t\t\te=timestamp\";\\n    }\\n\\n    fu...\n      PUSH 0\t\t\te=timestamp\";\\n    }\\n\\n    fu...\n      DUP1 \t\t\te=timestamp\";\\n    }\\n\\n    fu...\n      REVERT \t\t\te=timestamp\";\\n    }\\n\\n    fu...\n    tag 158\t\t\te=timestamp\";\\n    }\\n\\n    fu...\n      JUMPDEST \t\t\te=timestamp\";\\n    }\\n\\n    fu...\n      POP \t\t\te=timestamp\";\\n    }\\n\\n    fu...\n      PUSH [tag] 40\t\t\te=timestamp\";\\n    }\\n\\n    fu...\n      PUSH 40\t\t\te=timestamp\";\\n    }\\n\\n    fu...\n      MLOAD \t\t\te=timestamp\";\\n    }\\n\\n    fu...\n      DUP1 \t\t\te=timestamp\";\\n    }\\n\\n    fu...\n      PUSH 40\t\t\te=timestamp\";\\n    }\\n\\n    fu...\n      ADD \t\t\te=timestamp\";\\n    }\\n\\n    fu...\n      PUSH 40\t\t\te=timestamp\";\\n    }\\n\\n    fu...\n      MSTORE \t\t\te=timestamp\";\\n    }\\n\\n    fu...\n      DUP1 \t\t\te=timestamp\";\\n    }\\n\\n    fu...\n      PUSH 5\t\t\te=timestamp\";\\n    }\\n\\n    fu...\n      DUP2 \t\t\te=timestamp\";\\n    }\\n\\n    fu...\n      MSTORE \t\t\te=timestamp\";\\n    }\\n\\n    fu...\n      PUSH 20\t\t\te=timestamp\";\\n    }\\n\\n    fu...\n      ADD \t\t\te=timestamp\";\\n    }\\n\\n    fu...\n      PUSH 352E302E3\t\t\t\n      PUSH DC\t\t\t\n      SHL \t\t\t\n      DUP2 \t\t\te=timestamp\";\\n    }\\n\\n    fu...\n      MSTORE \t\t\te=timestamp\";\\n    }\\n\\n    fu...\n      POP \t\t\te=timestamp\";\\n    }\\n\\n    fu...\n      DUP2 \t\t\te=timestamp\";\\n    }\\n\\n    fu...\n      JUMP \t\t\te=timestamp\";\\n    }\\n\\n    fu...\n    tag 27\t\t\t\n      JUMPDEST \t\t\t\n      CALLVALUE \t\t\t\n      DUP1 \t\t\t\n      ISZERO \t\t\t\n      PUSH [tag] 162\t\t\t\n      JUMPI \t\t\t\n      PUSH 0\t\t\t\n      DUP1 \t\t\t\n      REVERT \t\t\t\n    tag 162\t\t\t\n      JUMPDEST \t\t\t\n      POP \t\t\t\n      PUSH [tag] 78\t\t\t\n      PUSH [tag] 164\t\t\t\n      CALLDATASIZE \t\t\t\n      PUSH 4\t\t\t\n      PUSH [tag] 165\t\t\t\n      JUMP \t\t\t\n    tag 164\t\t\t\n      JUMPDEST \t\t\t\n      PUSH [tag] 166\t\t\t\n      JUMP \t\t\t\n    tag 28\t\t\tternal\\n        override(ERC20...\n      JUMPDEST \t\t\tternal\\n        override(ERC20...\n      CALLVALUE \t\t\tternal\\n        override(ERC20...\n      DUP1 \t\t\tternal\\n        override(ERC20...\n      ISZERO \t\t\tternal\\n        override(ERC20...\n      PUSH [tag] 167\t\t\tternal\\n        override(ERC20...\n      JUMPI \t\t\tternal\\n        override(ERC20...\n      PUSH 0\t\t\tternal\\n        override(ERC20...\n      DUP1 \t\t\tternal\\n        override(ERC20...\n      REVERT \t\t\tternal\\n        override(ERC20...\n    tag 167\t\t\tternal\\n        override(ERC20...\n      JUMPDEST \t\t\tternal\\n        override(ERC20...\n      POP \t\t\t\n      PUSH [tag] 78\t\t\tternal\\n        override(ERC20...\n      PUSH [tag] 169\t\t\tternal\\n        override(ERC20...\n      CALLDATASIZE \t\t\tternal\\n        override(ERC20...\n      PUSH 4\t\t\tternal\\n        override(ERC20...\n      PUSH [tag] 170\t\t\tternal\\n        override(ERC20...\n      JUMP \t\t\tternal\\n        override(ERC20...\n    tag 169\t\t\tternal\\n        override(ERC20...\n      JUMPDEST \t\t\tternal\\n        override(ERC20...\n      PUSH [tag] 171\t\t\tternal\\n        override(ERC20...\n      JUMP \t\t\tternal\\n        override(ERC20...\n    tag 29\t\t\t\n      JUMPDEST \t\t\t\n      CALLVALUE \t\t\t\n      DUP1 \t\t\t\n      ISZERO \t\t\t\n      PUSH [tag] 172\t\t\t\n      JUMPI \t\t\t\n      PUSH 0\t\t\t\n      DUP1 \t\t\t\n      REVERT \t\t\t\n    tag 172\t\t\t\n      JUMPDEST \t\t\t\n      POP \t\t\t\n      PUSH [tag] 52\t\t\t\n      PUSH [tag] 174\t\t\t\n      CALLDATASIZE \t\t\t\n      PUSH 4\t\t\t\n      PUSH [tag] 80\t\t\t\n      JUMP \t\t\t\n    tag 174\t\t\t\n      JUMPDEST \t\t\t\n      PUSH [tag] 175\t\t\t\n      JUMP \t\t\t\n    tag 30\t\t\t\n      JUMPDEST \t\t\t\n      CALLVALUE \t\t\t\n      DUP1 \t\t\t\n      ISZERO \t\t\t\n      PUSH [tag] 177\t\t\t\n      JUMPI \t\t\t\n      PUSH 0\t\t\t\n      DUP1 \t\t\t\n      REVERT \t\t\t\n    tag 177\t\t\t\n      JUMPDEST \t\t\t\n      POP \t\t\t\n      PUSH [tag] 178\t\t\t\n      PUSH [tag] 179\t\t\t\n      CALLDATASIZE \t\t\t\n      PUSH 4\t\t\t\n      PUSH [tag] 180\t\t\t\n      JUMP \t\t\t\n    tag 179\t\t\t\n      JUMPDEST \t\t\t\n      PUSH [tag] 181\t\t\t\n      JUMP \t\t\t\n    tag 178\t\t\t\n      JUMPDEST \t\t\t\n      PUSH 40\t\t\t\n      DUP1 \t\t\t\n      MLOAD \t\t\t\n      DUP3 \t\t\t\n      MLOAD \t\t\t\n      PUSH FFFFFFFFFFFF\t\t\t\n      AND \t\t\t\n      DUP2 \t\t\t\n      MSTORE \t\t\t\n      PUSH 20\t\t\t\n      SWAP3 \t\t\t\n      DUP4 \t\t\t\n      ADD \t\t\t\n      MLOAD \t\t\t\n      PUSH 1\t\t\t\n      PUSH 1\t\t\t\n      PUSH D0\t\t\t\n      SHL \t\t\t\n      SUB \t\t\t\n      AND \t\t\t\n      SWAP3 \t\t\t\n      DUP2 \t\t\t\n      ADD \t\t\t\n      SWAP3 \t\t\t\n      SWAP1 \t\t\t\n      SWAP3 \t\t\t\n      MSTORE \t\t\t\n      ADD \t\t\t\n      PUSH [tag] 42\t\t\t\n      JUMP \t\t\t\n    tag 31\t\t\t\n      JUMPDEST \t\t\t\n      CALLVALUE \t\t\t\n      DUP1 \t\t\t\n      ISZERO \t\t\t\n      PUSH [tag] 184\t\t\t\n      JUMPI \t\t\t\n      PUSH 0\t\t\t\n      DUP1 \t\t\t\n      REVERT \t\t\t\n    tag 184\t\t\t\n      JUMPDEST \t\t\t\n      POP \t\t\t\n      PUSH [tag] 78\t\t\t\n      PUSH [tag] 186\t\t\t\n      CALLDATASIZE \t\t\t\n      PUSH 4\t\t\t\n      PUSH [tag] 97\t\t\t\n      JUMP \t\t\t\n    tag 186\t\t\t\n      JUMPDEST \t\t\t\n      PUSH [tag] 187\t\t\t\n      JUMP \t\t\t\n    tag 41\t\t\t\n      JUMPDEST \t\t\t\n      PUSH 60\t\t\t\n      PUSH 0\t\t\t\n      PUSH 0\t\t\t\n      DUP1 \t\t\t\n      MLOAD \t\t\t\n      PUSH 20\t\t\t\n      PUSH data 3874827173E8DF9F34323B12B251D1D3C53926CE129E30A0D69F1D47C277041B\t\t\t\n      DUP4 \t\t\t\n      CODECOPY \t\t\t\n      DUP2 \t\t\t\n      MLOAD \t\t\t\n      SWAP2 \t\t\t\n      MSTORE \t\t\t\n    tag 189\t\t\t\n      JUMPDEST \t\t\t\n      SWAP1 \t\t\t\n      POP \t\t\t\n      DUP1 \t\t\t\n      PUSH 3\t\t\t\n      ADD \t\t\t\n      DUP1 \t\t\t\n      SLOAD \t\t\t\n      PUSH [tag] 191\t\t\t\n      SWAP1 \t\t\t\n      PUSH [tag] 192\t\t\t\n      JUMP \t\t\t\n    tag 191\t\t\t\n      JUMPDEST \t\t\t\n      DUP1 \t\t\t\n      PUSH 1F\t\t\t\n      ADD \t\t\t\n      PUSH 20\t\t\t\n      DUP1 \t\t\t\n      SWAP2 \t\t\t\n      DIV \t\t\t\n      MUL \t\t\t\n      PUSH 20\t\t\t\n      ADD \t\t\t\n      PUSH 40\t\t\t\n      MLOAD \t\t\t\n      SWAP1 \t\t\t\n      DUP2 \t\t\t\n      ADD \t\t\t\n      PUSH 40\t\t\t\n      MSTORE \t\t\t\n      DUP1 \t\t\t\n      SWAP3 \t\t\t\n      SWAP2 \t\t\t\n      SWAP1 \t\t\t\n      DUP2 \t\t\t\n      DUP2 \t\t\t\n      MSTORE \t\t\t\n      PUSH 20\t\t\t\n      ADD \t\t\t\n      DUP3 \t\t\t\n      DUP1 \t\t\t\n      SLOAD \t\t\t\n      PUSH [tag] 193\t\t\t\n      SWAP1 \t\t\t\n      PUSH [tag] 192\t\t\t\n      JUMP \t\t\t\n    tag 193\t\t\t\n      JUMPDEST \t\t\t\n      DUP1 \t\t\t\n      ISZERO \t\t\t\n      PUSH [tag] 194\t\t\t\n      JUMPI \t\t\t\n      DUP1 \t\t\t\n      PUSH 1F\t\t\t\n      LT \t\t\t\n      PUSH [tag] 195\t\t\t\n      JUMPI \t\t\t\n      PUSH 100\t\t\t\n      DUP1 \t\t\t\n      DUP4 \t\t\t\n      SLOAD \t\t\t\n      DIV \t\t\t\n      MUL \t\t\t\n      DUP4 \t\t\t\n      MSTORE \t\t\t\n      SWAP2 \t\t\t\n      PUSH 20\t\t\t\n      ADD \t\t\t\n      SWAP2 \t\t\t\n      PUSH [tag] 194\t\t\t\n      JUMP \t\t\t\n    tag 195\t\t\t\n      JUMPDEST \t\t\t\n      DUP3 \t\t\t\n      ADD \t\t\t\n      SWAP2 \t\t\t\n      SWAP1 \t\t\t\n      PUSH 0\t\t\t\n      MSTORE \t\t\t\n      PUSH 20\t\t\t\n      PUSH 0\t\t\t\n      KECCAK256 \t\t\t\n      SWAP1 \t\t\t\n    tag 196\t\t\t\n      JUMPDEST \t\t\t\n      DUP2 \t\t\t\n      SLOAD \t\t\t\n      DUP2 \t\t\t\n      MSTORE \t\t\t\n      SWAP1 \t\t\t\n      PUSH 1\t\t\t\n      ADD \t\t\t\n      SWAP1 \t\t\t\n      PUSH 20\t\t\t\n      ADD \t\t\t\n      DUP1 \t\t\t\n      DUP4 \t\t\t\n      GT \t\t\t\n      PUSH [tag] 196\t\t\t\n      JUMPI \t\t\t\n      DUP3 \t\t\t\n      SWAP1 \t\t\t\n      SUB \t\t\t\n      PUSH 1F\t\t\t\n      AND \t\t\t\n      DUP3 \t\t\t\n      ADD \t\t\t\n      SWAP2 \t\t\t\n    tag 194\t\t\t\n      JUMPDEST \t\t\t\n      POP \t\t\t\n      POP \t\t\t\n      POP \t\t\t\n      POP \t\t\t\n      POP \t\t\t\n      SWAP2 \t\t\t\n      POP \t\t\t\n      POP \t\t\t\n      SWAP1 \t\t\t\n      JUMP \t\t\t\n    tag 48\t\t\t\n      JUMPDEST \t\t\t\n      PUSH 0\t\t\t\n      CALLER \t\t\txtProVista\n      PUSH [tag] 200\t\t\t\n      DUP2 \t\t\txtProVista\n      DUP6 \t\t\t\n      DUP6 \t\t\t\n      PUSH [tag] 201\t\t\t\n      JUMP \t\t\t\n    tag 200\t\t\t\n      JUMPDEST \t\t\t\n      PUSH 1\t\t\t\n      SWAP2 \t\t\t\n      POP \t\t\t\n      POP \t\t\t\n    tag 197\t\t\t\n      JUMPDEST \t\t\t\n      SWAP3 \t\t\t\n      SWAP2 \t\t\t\n      POP \t\t\t\n      POP \t\t\t\n      JUMP \t\t\t\n    tag 60\t\t\t\n      JUMPDEST \t\t\t\n      PUSH 0\t\t\t\n      CALLER \t\t\txtProVista\n      PUSH [tag] 206\t\t\t\n      DUP6 \t\t\t\n      DUP3 \t\t\txtProVista\n      DUP6 \t\t\t\n      PUSH [tag] 207\t\t\t\n      JUMP \t\t\t\n    tag 206\t\t\t\n      JUMPDEST \t\t\t\n      PUSH [tag] 208\t\t\t\n      DUP6 \t\t\t\n      DUP6 \t\t\t\n      DUP6 \t\t\t\n      PUSH [tag] 209\t\t\t\n      JUMP \t\t\t\n    tag 208\t\t\t\n      JUMPDEST \t\t\t\n      PUSH 1\t\t\t\n      SWAP2 \t\t\t\n      POP \t\t\t\n      POP \t\t\t\n    tag 204\t\t\t\n      JUMPDEST \t\t\t\n      SWAP4 \t\t\t\n      SWAP3 \t\t\t\n      POP \t\t\t\n      POP \t\t\t\n      POP \t\t\t\n      JUMP \t\t\t\n    tag 69\t\t\t\n      JUMPDEST \t\t\t\n      PUSH 0\t\t\t\n      PUSH [tag] 212\t\t\t\n      PUSH [tag] 213\t\t\t\n      JUMP \t\t\t\n    tag 212\t\t\t\n      JUMPDEST \t\t\t\n      SWAP1 \t\t\t\n      POP \t\t\t\n      SWAP1 \t\t\t\n      JUMP \t\t\t\n    tag 75\t\t\t\n      JUMPDEST \t\t\t\n      PUSH 0\t\t\t\n      PUSH 0\t\t\t\n      DUP1 \t\t\t\n      MLOAD \t\t\t\n      PUSH 20\t\t\t\n      PUSH data 23484935BDF196CA31423939A31C04B740AF4DE11AC0940ED78D38B36817EC46\t\t\t\n      DUP4 \t\t\t\n      CODECOPY \t\t\t\n      DUP2 \t\t\t\n      MLOAD \t\t\t\n      SWAP2 \t\t\t\n      MSTORE \t\t\t\n      PUSH [tag] 217\t\t\t\n      PUSH [tag] 218\t\t\t\n      DUP5 \t\t\t\n      PUSH [tag] 219\t\t\t\n      JUMP \t\t\t\n    tag 218\t\t\t\n      JUMPDEST \t\t\t\n      PUSH 1\t\t\t\n      PUSH 1\t\t\t\n      PUSH A0\t\t\t\n      SHL \t\t\t\n      SUB \t\t\t\n      DUP7 \t\t\t\n      AND \t\t\t\n      PUSH 0\t\t\t\n      SWAP1 \t\t\t\n      DUP2 \t\t\t\n      MSTORE \t\t\t\n      PUSH 1\t\t\t\n      DUP5 \t\t\t\n      ADD \t\t\t\n      PUSH 20\t\t\t\n      MSTORE \t\t\t\n      PUSH 40\t\t\t\n      SWAP1 \t\t\t\n      KECCAK256 \t\t\t\n      SWAP1 \t\t\t\n      PUSH [tag] 220\t\t\t\n      JUMP \t\t\t\n    tag 217\t\t\t\n      JUMPDEST \t\t\t\n      PUSH 1\t\t\t\n      PUSH 1\t\t\t\n      PUSH D0\t\t\t\n      SHL \t\t\t\n      SUB \t\t\t\n      AND \t\t\t\n      SWAP5 \t\t\t\n      SWAP4 \t\t\t\n      POP \t\t\t\n      POP \t\t\t\n      POP \t\t\t\n      POP \t\t\t\n      JUMP \t\t\t\n    tag 81\t\t\tfunction initialize(address re...\n      JUMPDEST \t\t\tfunction initialize(address re...\n      PUSH F0C57E16840DF040F15088DC2F81FE391C3923BEC73E23A9662EFC9C229C6A00\t\t\t\n      DUP1 \t\t\t\n      SLOAD \t\t\t\n      PUSH 1\t\t\t\n      PUSH 40\t\t\t\n      SHL \t\t\t\n      DUP2 \t\t\t\n      DIV \t\t\t\n      PUSH FF\t\t\t\n      AND \t\t\t\n      ISZERO \t\t\t\n      SWAP1 \t\t\t\n      PUSH FFFFFFFFFFFFFFFF\t\t\t\n      AND \t\t\t\n      PUSH 0\t\t\t\n      DUP2 \t\t\t\n      ISZERO \t\t\t\n      DUP1 \t\t\t\n      ISZERO \t\t\t\n      PUSH [tag] 224\t\t\t\n      JUMPI \t\t\t\n      POP \t\t\t\n      DUP3 \t\t\t\n    tag 224\t\t\t\n      JUMPDEST \t\t\t\n      SWAP1 \t\t\t\n      POP \t\t\t\n      PUSH 0\t\t\t\n      DUP3 \t\t\t\n      PUSH FFFFFFFFFFFFFFFF\t\t\t\n      AND \t\t\t\n      PUSH 1\t\t\t\n      EQ \t\t\t\n      DUP1 \t\t\t\n      ISZERO \t\t\t\n      PUSH [tag] 225\t\t\t\n      JUMPI \t\t\t\n      POP \t\t\t\n      ADDRESS \t\t\t\n      EXTCODESIZE \t\t\t\n      ISZERO \t\t\t\n    tag 225\t\t\t\n      JUMPDEST \t\t\t\n      SWAP1 \t\t\t\n      POP \t\t\t\n      DUP2 \t\t\t\n      ISZERO \t\t\t\n      DUP1 \t\t\t\n      ISZERO \t\t\t\n      PUSH [tag] 226\t\t\t\n      JUMPI \t\t\t\n      POP \t\t\t\n      DUP1 \t\t\t\n      ISZERO \t\t\t\n    tag 226\t\t\t\n      JUMPDEST \t\t\t\n      ISZERO \t\t\t\n      PUSH [tag] 227\t\t\t\n      JUMPI \t\t\t\n      PUSH 40\t\t\t\n      MLOAD \t\t\t\n      PUSH F92EE8A9\t\t\t\n      PUSH E0\t\t\t\n      SHL \t\t\t\n      DUP2 \t\t\t\n      MSTORE \t\t\t\n      PUSH 4\t\t\t\n      ADD \t\t\t\n      PUSH 40\t\t\t\n      MLOAD \t\t\t\n      DUP1 \t\t\t\n      SWAP2 \t\t\t\n      SUB \t\t\t\n      SWAP1 \t\t\t\n      REVERT \t\t\t\n    tag 227\t\t\t\n      JUMPDEST \t\t\t\n      DUP5 \t\t\t\n      SLOAD \t\t\t\n      PUSH FFFFFFFFFFFFFFFF\t\t\t\n      NOT \t\t\t\n      AND \t\t\t\n      PUSH 1\t\t\t\n      OR \t\t\t\n      DUP6 \t\t\t\n      SSTORE \t\t\t\n      DUP4 \t\t\t\n      ISZERO \t\t\t\n      PUSH [tag] 228\t\t\t\n      JUMPI \t\t\t\n      DUP5 \t\t\t\n      SLOAD \t\t\t\n      PUSH FF\t\t\t\n      PUSH 40\t\t\t\n      SHL \t\t\t\n      NOT \t\t\t\n      AND \t\t\t\n      PUSH 1\t\t\t\n      PUSH 40\t\t\t\n      SHL \t\t\t\n      OR \t\t\t\n      DUP6 \t\t\t\n      SSTORE \t\t\t\n    tag 228\t\t\t\n      JUMPDEST \t\t\t\n      PUSH [tag] 230\t\t\t__ERC20_init(\"Next Pro Vista\",...\n      PUSH 40\t\t\t__ERC20_init(\"Next Pro Vista\",...\n      MLOAD \t\t\t__ERC20_init(\"Next Pro Vista\",...\n      DUP1 \t\t\t__ERC20_init(\"Next Pro Vista\",...\n      PUSH 40\t\t\t__ERC20_init(\"Next Pro Vista\",...\n      ADD \t\t\t__ERC20_init(\"Next Pro Vista\",...\n      PUSH 40\t\t\t__ERC20_init(\"Next Pro Vista\",...\n      MSTORE \t\t\t__ERC20_init(\"Next Pro Vista\",...\n      DUP1 \t\t\t__ERC20_init(\"Next Pro Vista\",...\n      PUSH E\t\t\t__ERC20_init(\"Next Pro Vista\",...\n      DUP2 \t\t\t__ERC20_init(\"Next Pro Vista\",...\n      MSTORE \t\t\t__ERC20_init(\"Next Pro Vista\",...\n      PUSH 20\t\t\t__ERC20_init(\"Next Pro Vista\",...\n      ADD \t\t\t__ERC20_init(\"Next Pro Vista\",...\n      PUSH 4E6578742050726F205669737461\t\t\t\n      PUSH 90\t\t\t\n      SHL \t\t\t\n      DUP2 \t\t\t__ERC20_init(\"Next Pro Vista\",...\n      MSTORE \t\t\t__ERC20_init(\"Next Pro Vista\",...\n      POP \t\t\t__ERC20_init(\"Next Pro Vista\",...\n      PUSH 40\t\t\t__ERC20_init(\"Next Pro Vista\",...\n      MLOAD \t\t\t__ERC20_init(\"Next Pro Vista\",...\n      DUP1 \t\t\t__ERC20_init(\"Next Pro Vista\",...\n      PUSH 40\t\t\t__ERC20_init(\"Next Pro Vista\",...\n      ADD \t\t\t__ERC20_init(\"Next Pro Vista\",...\n      PUSH 40\t\t\t__ERC20_init(\"Next Pro Vista\",...\n      MSTORE \t\t\t__ERC20_init(\"Next Pro Vista\",...\n      DUP1 \t\t\t__ERC20_init(\"Next Pro Vista\",...\n      PUSH 3\t\t\t__ERC20_init(\"Next Pro Vista\",...\n      DUP2 \t\t\t__ERC20_init(\"Next Pro Vista\",...\n      MSTORE \t\t\t__ERC20_init(\"Next Pro Vista\",...\n      PUSH 20\t\t\t__ERC20_init(\"Next Pro Vista\",...\n      ADD \t\t\t__ERC20_init(\"Next Pro Vista\",...\n      PUSH 27282B\t\t\t\n      PUSH E9\t\t\t\n      SHL \t\t\t\n      DUP2 \t\t\t__ERC20_init(\"Next Pro Vista\",...\n      MSTORE \t\t\t__ERC20_init(\"Next Pro Vista\",...\n      POP \t\t\t__ERC20_init(\"Next Pro Vista\",...\n      PUSH [tag] 231\t\t\t__ERC20_init\n      JUMP \t\t\t__ERC20_init(\"Next Pro Vista\",...\n    tag 230\t\t\t__ERC20_init(\"Next Pro Vista\",...\n      JUMPDEST \t\t\t__ERC20_init(\"Next Pro Vista\",...\n      PUSH [tag] 232\t\t\t__ERC20Permit_init(\"Next Pro V...\n      PUSH 40\t\t\t__ERC20Permit_init(\"Next Pro V...\n      MLOAD \t\t\t__ERC20Permit_init(\"Next Pro V...\n      DUP1 \t\t\t__ERC20Permit_init(\"Next Pro V...\n      PUSH 40\t\t\t__ERC20Permit_init(\"Next Pro V...\n      ADD \t\t\t__ERC20Permit_init(\"Next Pro V...\n      PUSH 40\t\t\t__ERC20Permit_init(\"Next Pro V...\n      MSTORE \t\t\t__ERC20Permit_init(\"Next Pro V...\n      DUP1 \t\t\t__ERC20Permit_init(\"Next Pro V...\n      PUSH E\t\t\t__ERC20Permit_init(\"Next Pro V...\n      DUP2 \t\t\t__ERC20Permit_init(\"Next Pro V...\n      MSTORE \t\t\t__ERC20Permit_init(\"Next Pro V...\n      PUSH 20\t\t\t__ERC20Permit_init(\"Next Pro V...\n      ADD \t\t\t__ERC20Permit_init(\"Next Pro V...\n      PUSH 4E6578742050726F205669737461\t\t\t\n      PUSH 90\t\t\t\n      SHL \t\t\t\n      DUP2 \t\t\t__ERC20Permit_init(\"Next Pro V...\n      MSTORE \t\t\t__ERC20Permit_init(\"Next Pro V...\n      POP \t\t\t__ERC20Permit_init(\"Next Pro V...\n      PUSH [tag] 233\t\t\t__ERC20Permit_init\n      JUMP \t\t\t__ERC20Permit_init(\"Next Pro V...\n    tag 232\t\t\t__ERC20Permit_init(\"Next Pro V...\n      JUMPDEST \t\t\t__ERC20Permit_init(\"Next Pro V...\n      PUSH [tag] 234\t\t\t__ERC20Votes_init()\n      PUSH [tag] 235\t\t\t__ERC20Votes_init\n      JUMP \t\t\t__ERC20Votes_init()\n    tag 234\t\t\t__ERC20Votes_init()\n      JUMPDEST \t\t\t__ERC20Votes_init()\n      PUSH [tag] 236\t\t\t__Ownable_init(initialOwner)\n      DUP7 \t\t\tinitialOwner\n      PUSH [tag] 237\t\t\t__Ownable_init\n      JUMP \t\t\t__Ownable_init(initialOwner)\n    tag 236\t\t\t__Ownable_init(initialOwner)\n      JUMPDEST \t\t\t__Ownable_init(initialOwner)\n      PUSH [tag] 238\t\t\t__UUPSUpgradeable_init()\n      PUSH [tag] 235\t\t\t__UUPSUpgradeable_init\n      JUMP \t\t\t__UUPSUpgradeable_init()\n    tag 238\t\t\t__UUPSUpgradeable_init()\n      JUMPDEST \t\t\t__UUPSUpgradeable_init()\n      PUSH [tag] 240\t\t\t_mint(recipient, 381654729 * 1...\n      DUP8 \t\t\trecipient\n      PUSH [tag] 242\t\t\t10 ** decimals()\n      PUSH 12\t\t\t\n      PUSH A\t\t\t10\n      PUSH [tag] 243\t\t\t10 ** decimals()\n      JUMP \t\t\t10 ** decimals()\n    tag 242\t\t\t10 ** decimals()\n      JUMPDEST \t\t\t10 ** decimals()\n      PUSH [tag] 244\t\t\t381654729 * 10 ** decimals()\n      SWAP1 \t\t\t381654729 * 10 ** decimals()\n      PUSH 16BF96C9\t\t\t381654729\n      PUSH [tag] 245\t\t\t381654729 * 10 ** decimals()\n      JUMP \t\t\t381654729 * 10 ** decimals()\n    tag 244\t\t\t381654729 * 10 ** decimals()\n      JUMPDEST \t\t\t381654729 * 10 ** decimals()\n      PUSH [tag] 246\t\t\t_mint\n      JUMP \t\t\t_mint(recipient, 381654729 * 1...\n    tag 240\t\t\t_mint(recipient, 381654729 * 1...\n      JUMPDEST \t\t\t_mint(recipient, 381654729 * 1...\n      DUP4 \t\t\t\n      ISZERO \t\t\t\n      PUSH [tag] 247\t\t\t\n      JUMPI \t\t\t\n      DUP5 \t\t\t\n      SLOAD \t\t\t\n      PUSH FF\t\t\t\n      PUSH 40\t\t\t\n      SHL \t\t\t\n      NOT \t\t\t\n      AND \t\t\t\n      DUP6 \t\t\t\n      SSTORE \t\t\t\n      PUSH 40\t\t\t\n      MLOAD \t\t\t\n      PUSH 1\t\t\t\n      DUP2 \t\t\t\n      MSTORE \t\t\t\n      PUSH C7F505B2F371AE2175EE4913F4499E1F2633A7B5936321EED1CDAEB6115181D2\t\t\t\n      SWAP1 \t\t\t\n      PUSH 20\t\t\t\n      ADD \t\t\t\n      PUSH 40\t\t\t\n      MLOAD \t\t\t\n      DUP1 \t\t\t\n      SWAP2 \t\t\t\n      SUB \t\t\t\n      SWAP1 \t\t\t\n      LOG1 \t\t\t\n    tag 247\t\t\t\n      JUMPDEST \t\t\t\n      POP \t\t\t\n      POP \t\t\t\n      POP \t\t\t\n      POP \t\t\t\n      POP \t\t\t\n      POP \t\t\tfunction initialize(address re...\n      POP \t\t\tfunction initialize(address re...\n      JUMP \t\t\tfunction initialize(address re...\n    tag 89\t\t\t\n      JUMPDEST \t\t\t\n      PUSH [tag] 252\t\t\t\n      PUSH [tag] 253\t\t\t\n      JUMP \t\t\t\n    tag 252\t\t\t\n      JUMPDEST \t\t\t\n      PUSH [tag] 255\t\t\t\n      DUP3 \t\t\t\n      PUSH [tag] 256\t\t\t\n      JUMP \t\t\t\n    tag 255\t\t\t\n      JUMPDEST \t\t\t\n      PUSH [tag] 257\t\t\t\n      DUP3 \t\t\t\n      DUP3 \t\t\t\n      PUSH [tag] 258\t\t\t\n      JUMP \t\t\t\n    tag 257\t\t\t\n      JUMPDEST \t\t\t\n      POP \t\t\t\n      POP \t\t\t\n      JUMP \t\t\t\n    tag 92\t\t\t\n      JUMPDEST \t\t\t\n      PUSH 0\t\t\t\n      PUSH [tag] 260\t\t\t\n      PUSH [tag] 261\t\t\t\n      JUMP \t\t\t\n    tag 260\t\t\t\n      JUMPDEST \t\t\t\n      POP \t\t\t\n      PUSH 0\t\t\t\n      DUP1 \t\t\t\n      MLOAD \t\t\t\n      PUSH 20\t\t\t\n      PUSH data 75B20EEF8615DE99C108B05F0DBDA081C91897128CAA336D75DFFB97C4132B4D\t\t\t\n      DUP4 \t\t\t\n      CODECOPY \t\t\t\n      DUP2 \t\t\t\n      MLOAD \t\t\t\n      SWAP2 \t\t\t\n      MSTORE \t\t\t\n      SWAP1 \t\t\t\n      JUMP \t\t\t\n    tag 98\t\t\t\n      JUMPDEST \t\t\t\n      PUSH 1\t\t\t\n      PUSH 1\t\t\t\n      PUSH A0\t\t\t\n      SHL \t\t\t\n      SUB \t\t\t\n      SWAP1 \t\t\t\n      DUP2 \t\t\t\n      AND \t\t\t\n      PUSH 0\t\t\t\n      SWAP1 \t\t\t\n      DUP2 \t\t\t\n      MSTORE \t\t\t\n      PUSH 0\t\t\t\n      DUP1 \t\t\t\n      MLOAD \t\t\t\n      PUSH 20\t\t\t\n      PUSH data 23484935BDF196CA31423939A31C04B740AF4DE11AC0940ED78D38B36817EC46\t\t\t\n      DUP4 \t\t\t\n      CODECOPY \t\t\t\n      DUP2 \t\t\t\n      MLOAD \t\t\t\n      SWAP2 \t\t\t\n      MSTORE \t\t\t\n      PUSH 20\t\t\t\n      MSTORE \t\t\t\n      PUSH 40\t\t\t\n      SWAP1 \t\t\t\n      KECCAK256 \t\t\t\n      SLOAD \t\t\t\n      AND \t\t\t\n      SWAP1 \t\t\t\n      JUMP \t\t\t\n    tag 104\t\t\t\n      JUMPDEST \t\t\t\n      CALLER \t\t\txtProVista\n      PUSH [tag] 257\t\t\t\n      DUP2 \t\t\txtProVista\n      DUP4 \t\t\t\n      PUSH [tag] 268\t\t\t\n      JUMP \t\t\t\n    tag 108\t\t\t\n      JUMPDEST \t\t\t\n      PUSH 0\t\t\t\n      PUSH [tag] 197\t\t\t\n      DUP3 \t\t\t\n      PUSH [tag] 271\t\t\t\n      JUMP \t\t\t\n    tag 114\t\t\t\n      JUMPDEST \t\t\t\n      PUSH 0\t\t\t\n      DUP1 \t\t\t\n      PUSH 0\t\t\t\n      DUP1 \t\t\t\n      MLOAD \t\t\t\n      PUSH 20\t\t\t\n      PUSH data 3874827173E8DF9F34323B12B251D1D3C53926CE129E30A0D69F1D47C277041B\t\t\t\n      DUP4 \t\t\t\n      CODECOPY \t\t\t\n      DUP2 \t\t\t\n      MLOAD \t\t\t\n      SWAP2 \t\t\t\n      MSTORE \t\t\t\n    tag 273\t\t\t\n      JUMPDEST \t\t\t\n      PUSH 1\t\t\t\n      PUSH 1\t\t\t\n      PUSH A0\t\t\t\n      SHL \t\t\t\n      SUB \t\t\t\n      SWAP1 \t\t\t\n      SWAP4 \t\t\t\n      AND \t\t\t\n      PUSH 0\t\t\t\n      SWAP1 \t\t\t\n      DUP2 \t\t\t\n      MSTORE \t\t\t\n      PUSH 20\t\t\t\n      SWAP4 \t\t\t\n      SWAP1 \t\t\t\n      SWAP4 \t\t\t\n      MSTORE \t\t\t\n      POP \t\t\t\n      POP \t\t\t\n      PUSH 40\t\t\t\n      SWAP1 \t\t\t\n      KECCAK256 \t\t\t\n      SLOAD \t\t\t\n      SWAP1 \t\t\t\n      JUMP \t\t\t\n    tag 118\t\t\t\n      JUMPDEST \t\t\t\n      PUSH [tag] 275\t\t\tble)\\n        \n      PUSH [tag] 276\t\t\tble)\\n      \n      JUMP \t\t\tble)\\n        \n    tag 275\t\t\tble)\\n        \n      JUMPDEST \t\t\tble)\\n        \n      PUSH [tag] 278\t\t\t\n      PUSH 0\t\t\t\n      PUSH [tag] 279\t\t\t\n      JUMP \t\t\t\n    tag 278\t\t\t\n      JUMPDEST \t\t\t\n      JUMP \t\t\t\n    tag 122\t\t\tfunction nonces(address owner)...\n      JUMPDEST \t\t\tfunction nonces(address owner)...\n      PUSH 0\t\t\tuint256\n      PUSH [tag] 197\t\t\tsuper.nonces(owner)\n      DUP3 \t\t\towner\n      PUSH [tag] 282\t\t\tsuper.nonces\n      JUMP \t\t\tsuper.nonces(owner)\n    tag 126\t\t\t\n      JUMPDEST \t\t\t\n      PUSH 0\t\t\t\n      PUSH 60\t\t\t\n      DUP1 \t\t\t\n      DUP3 \t\t\t\n      DUP1 \t\t\t\n      DUP1 \t\t\t\n      DUP4 \t\t\t\n      DUP2 \t\t\t\n      PUSH 0\t\t\t\n      DUP1 \t\t\t\n      MLOAD \t\t\t\n      PUSH 20\t\t\t\n      PUSH data 60016240B4CAF95CE61FF2092E1488B3D1AFF76BEE1C89F54239447D6827D736\t\t\t\n      DUP4 \t\t\t\n      CODECOPY \t\t\t\n      DUP2 \t\t\t\n      MLOAD \t\t\t\n      SWAP2 \t\t\t\n      MSTORE \t\t\t\n      DUP1 \t\t\t\n      SLOAD \t\t\t\n      SWAP1 \t\t\t\n      SWAP2 \t\t\t\n      POP \t\t\t\n      ISZERO \t\t\t\n      DUP1 \t\t\t\n      ISZERO \t\t\t\n      PUSH [tag] 286\t\t\t\n      JUMPI \t\t\t\n      POP \t\t\t\n      PUSH 1\t\t\t\n      DUP2 \t\t\t\n      ADD \t\t\t\n      SLOAD \t\t\t\n      ISZERO \t\t\t\n    tag 286\t\t\t\n      JUMPDEST \t\t\t\n      PUSH [tag] 287\t\t\t\n      JUMPI \t\t\t\n      PUSH 40\t\t\t\n      MLOAD \t\t\t\n      PUSH 461BCD\t\t\t\n      PUSH E5\t\t\t\n      SHL \t\t\t\n      DUP2 \t\t\t\n      MSTORE \t\t\t\n      PUSH 20\t\t\t\n      PUSH 4\t\t\t\n      DUP3 \t\t\t\n      ADD \t\t\t\n      MSTORE \t\t\t\n      PUSH 15\t\t\t\n      PUSH 24\t\t\t\n      DUP3 \t\t\t\n      ADD \t\t\t\n      MSTORE \t\t\t\n      PUSH 1152540DCC4C8E88155B9A5B9A5D1A585B1A5E9959\t\t\t\n      PUSH 5A\t\t\t\n      SHL \t\t\t\n      PUSH 44\t\t\t\n      DUP3 \t\t\t\n      ADD \t\t\t\n      MSTORE \t\t\t\n      PUSH 64\t\t\t\n      ADD \t\t\t\n    tag 288\t\t\t\n      JUMPDEST \t\t\t\n      PUSH 40\t\t\t\n      MLOAD \t\t\t\n      DUP1 \t\t\t\n      SWAP2 \t\t\t\n      SUB \t\t\t\n      SWAP1 \t\t\t\n      REVERT \t\t\t\n    tag 287\t\t\t\n      JUMPDEST \t\t\t\n      PUSH [tag] 290\t\t\t\n      PUSH [tag] 291\t\t\t\n      JUMP \t\t\t\n    tag 290\t\t\t\n      JUMPDEST \t\t\t\n      PUSH [tag] 292\t\t\t\n      PUSH [tag] 293\t\t\t\n      JUMP \t\t\t\n    tag 292\t\t\t\n      JUMPDEST \t\t\t\n      PUSH 40\t\t\t\n      DUP1 \t\t\t\n      MLOAD \t\t\t\n      PUSH 0\t\t\t\n      DUP1 \t\t\t\n      DUP3 \t\t\t\n      MSTORE \t\t\t\n      PUSH 20\t\t\t\n      DUP3 \t\t\t\n      ADD \t\t\t\n      SWAP1 \t\t\t\n      SWAP3 \t\t\t\n      MSTORE \t\t\t\n      PUSH F\t\t\t\n      PUSH F8\t\t\t\n      SHL \t\t\t\n      SWAP13 \t\t\t\n      SWAP4 \t\t\t\n      SWAP12 \t\t\t\n      POP \t\t\t\n      SWAP2 \t\t\t\n      SWAP10 \t\t\t\n      POP \t\t\t\n      CHAINID \t\t\t\n      SWAP9 \t\t\t\n      POP \t\t\t\n      ADDRESS \t\t\t\n      SWAP8 \t\t\t\n      POP \t\t\t\n      SWAP6 \t\t\t\n      POP \t\t\t\n      SWAP4 \t\t\t\n      POP \t\t\t\n      SWAP2 \t\t\t\n      POP \t\t\t\n      POP \t\t\t\n      JUMP \t\t\t\n    tag 137\t\t\t\n      JUMPDEST \t\t\t\n      PUSH 0\t\t\t\n      PUSH 0\t\t\t\n      DUP1 \t\t\t\n      MLOAD \t\t\t\n      PUSH 20\t\t\t\n      PUSH data 23484935BDF196CA31423939A31C04B740AF4DE11AC0940ED78D38B36817EC46\t\t\t\n      DUP4 \t\t\t\n      CODECOPY \t\t\t\n      DUP2 \t\t\t\n      MLOAD \t\t\t\n      SWAP2 \t\t\t\n      MSTORE \t\t\t\n      PUSH [tag] 303\t\t\t\n      PUSH [tag] 304\t\t\t\n      DUP5 \t\t\t\n      PUSH [tag] 219\t\t\t\n      JUMP \t\t\t\n    tag 304\t\t\t\n      JUMPDEST \t\t\t\n      PUSH 2\t\t\t\n      DUP4 \t\t\t\n      ADD \t\t\t\n      SWAP1 \t\t\t\n      PUSH [tag] 220\t\t\t\n      JUMP \t\t\t\n    tag 303\t\t\t\n      JUMPDEST \t\t\t\n      PUSH 1\t\t\t\n      PUSH 1\t\t\t\n      PUSH D0\t\t\t\n      SHL \t\t\t\n      SUB \t\t\t\n      AND \t\t\t\n      SWAP4 \t\t\t\n      SWAP3 \t\t\t\n      POP \t\t\t\n      POP \t\t\t\n      POP \t\t\t\n      JUMP \t\t\t\n    tag 146\t\t\t\n      JUMPDEST \t\t\t\n      PUSH 52C63247E1F47DB19D5CE0460030C497F067CA4CEBF71BA98EEADABE20BACE04\t\t\t\n      DUP1 \t\t\t\n      SLOAD \t\t\t\n      PUSH 60\t\t\t\n      SWAP2 \t\t\t\n      PUSH 0\t\t\t\n      DUP1 \t\t\t\n      MLOAD \t\t\t\n      PUSH 20\t\t\t\n      PUSH data 3874827173E8DF9F34323B12B251D1D3C53926CE129E30A0D69F1D47C277041B\t\t\t\n      DUP4 \t\t\t\n      CODECOPY \t\t\t\n      DUP2 \t\t\t\n      MLOAD \t\t\t\n      SWAP2 \t\t\t\n      MSTORE \t\t\t\n      SWAP2 \t\t\tress to, uint256 val\n      PUSH [tag] 191\t\t\t\n      SWAP1 \t\t\t\n      PUSH [tag] 192\t\t\t\n      JUMP \t\t\t\n    tag 151\t\t\t\n      JUMPDEST \t\t\t\n      PUSH 1\t\t\t\n      PUSH 1\t\t\t\n      PUSH A0\t\t\t\n      SHL \t\t\t\n      SUB \t\t\t\n      DUP2 \t\t\t\n      AND \t\t\t\n      PUSH 0\t\t\t\n      SWAP1 \t\t\t\n      DUP2 \t\t\t\n      MSTORE \t\t\t\n      PUSH E8B26C30FAD74198956032A3533D903385D56DD795AF560196F9C78D4AF40D01\t\t\t\n      PUSH 20\t\t\t\n      MSTORE \t\t\t\n      PUSH 40\t\t\t\n      DUP2 \t\t\t\n      KECCAK256 \t\t\t\n      PUSH 0\t\t\t\n      DUP1 \t\t\t\n      MLOAD \t\t\t\n      PUSH 20\t\t\t\n      PUSH data 23484935BDF196CA31423939A31C04B740AF4DE11AC0940ED78D38B36817EC46\t\t\t\n      DUP4 \t\t\t\n      CODECOPY \t\t\t\n      DUP2 \t\t\t\n      MLOAD \t\t\t\n      SWAP2 \t\t\t\n      MSTORE \t\t\t\n      SWAP1 \t\t\t\n      PUSH [tag] 303\t\t\t\n      SWAP1 \t\t\t\n      PUSH [tag] 316\t\t\t\n      JUMP \t\t\t\n    tag 156\t\t\t\n      JUMPDEST \t\t\t\n      PUSH 0\t\t\t\n      CALLER \t\t\txtProVista\n      PUSH [tag] 200\t\t\t\n      DUP2 \t\t\txtProVista\n      DUP6 \t\t\t\n      DUP6 \t\t\t\n      PUSH [tag] 209\t\t\t\n      JUMP \t\t\t\n    tag 166\t\t\t\n      JUMPDEST \t\t\t\n      DUP4 \t\t\t\n      TIMESTAMP \t\t\t\n      GT \t\t\t\n      ISZERO \t\t\t\n      PUSH [tag] 321\t\t\t\n      JUMPI \t\t\t\n      PUSH 40\t\t\t\n      MLOAD \t\t\t\n      PUSH 2341D787\t\t\t\n      PUSH E1\t\t\t\n      SHL \t\t\t\n      DUP2 \t\t\t\n      MSTORE \t\t\t\n      PUSH 4\t\t\t\n      DUP2 \t\t\t\n      ADD \t\t\t\n      DUP6 \t\t\t decimals());\\n    }\\n\\n    \n      SWAP1 \t\t\t decimals());\\n    }\\n\\n    \n      MSTORE \t\t\t decimals());\\n    }\\n\\n    \n      PUSH 24\t\t\tecipient, 38165472\n      ADD \t\t\tecipient, 38165472\n      PUSH [tag] 288\t\t\t\n      JUMP \t\t\t;\\n        __ERC20Votes_init()...\n    tag 321\t\t\t\n      JUMPDEST \t\t\t\n      PUSH 40\t\t\t\n      DUP1 \t\t\t\n      MLOAD \t\t\t\n      PUSH E48329057BFD03D55E49B547132E39CFFD9C1820AD7B9D4C5307691425D15ADF\t\t\t  returns (uint256)\\n    {\\n  ...\n      PUSH 20\t\t\t\n      DUP3 \t\t\t\n      ADD \t\t\t\n      MSTORE \t\t\t\n      PUSH 1\t\t\t\n      PUSH 1\t\t\t\n      PUSH A0\t\t\t\n      SHL \t\t\t\n      SUB \t\t\t\n      DUP9 \t\t\t\n      AND \t\t\t\n      SWAP2 \t\t\t\n      DUP2 \t\t\t\n      ADD \t\t\t\n      SWAP2 \t\t\t\n      SWAP1 \t\t\t\n      SWAP2 \t\t\t\n      MSTORE \t\t\t\n      PUSH 60\t\t\t\n      DUP2 \t\t\t\n      ADD \t\t\t\n      DUP7 \t\t\t\n      SWAP1 \t\t\t\n      MSTORE \t\t\t\n      PUSH 80\t\t\t\n      DUP2 \t\t\t\n      ADD \t\t\t\n      DUP6 \t\t\t\n      SWAP1 \t\t\t\n      MSTORE \t\t\t\n      PUSH 0\t\t\t\n      SWAP1 \t\t\t\n      PUSH [tag] 323\t\t\t\n      SWAP1 \t\t\t\n      PUSH [tag] 324\t\t\t\n      SWAP1 \t\t\t\n      PUSH A0\t\t\t\n      ADD \t\t\t\n      PUSH 40\t\t\t\n      MLOAD \t\t\t\n      PUSH 20\t\t\t\n      DUP2 \t\t\t\n      DUP4 \t\t\t\n      SUB \t\t\t\n      SUB \t\t\t\n      DUP2 \t\t\t\n      MSTORE \t\t\t\n      SWAP1 \t\t\t\n      PUSH 40\t\t\t\n      MSTORE \t\t\t\n      DUP1 \t\t\t\n      MLOAD \t\t\t\n      SWAP1 \t\t\t\n      PUSH 20\t\t\t\n      ADD \t\t\t\n      KECCAK256 \t\t\t\n      PUSH [tag] 327\t\t\t\n      JUMP \t\t\t\n    tag 324\t\t\t\n      JUMPDEST \t\t\t\n      DUP6 \t\t\t\n      DUP6 \t\t\t\n      DUP6 \t\t\t\n      PUSH [tag] 328\t\t\t\n      JUMP \t\t\t\n    tag 323\t\t\t\n      JUMPDEST \t\t\t\n      SWAP1 \t\t\t\n      POP \t\t\t\n      PUSH [tag] 329\t\t\t\n      DUP2 \t\t\t\n      DUP8 \t\t\t\n      PUSH [tag] 330\t\t\t\n      JUMP \t\t\t\n    tag 329\t\t\t\n      JUMPDEST \t\t\t\n      PUSH [tag] 247\t\t\t\n      DUP2 \t\t\t\n      DUP9 \t\t\t\n      PUSH [tag] 268\t\t\t\n      JUMP \t\t\t\n    tag 171\t\t\tternal\\n        override(ERC20...\n      JUMPDEST \t\t\tternal\\n        override(ERC20...\n      DUP4 \t\t\t NoncesU\n      TIMESTAMP \t\t\tPermitUpgradeab\n      GT \t\t\tPermitUpgradeable, NoncesU\n      ISZERO \t\t\tRC20PermitUpgradeable, NoncesU...\n      PUSH [tag] 333\t\t\tRC20PermitUpgradeable, NoncesU...\n      JUMPI \t\t\tRC20PermitUpgradeable, NoncesU...\n      PUSH 40\t\t\turns (uint256)\\n    {\\n       ...\n      MLOAD \t\t\turns (uint256)\\n    {\\n       ...\n      PUSH 313C8981\t\t\t\n      PUSH E1\t\t\t\n      SHL \t\t\t\n      DUP2 \t\t\turns (uint256)\\n    {\\n       ...\n      MSTORE \t\t\turns (uint256)\\n    {\\n       ...\n      PUSH 4\t\t\turns (uint256)\\n    {\\n       ...\n      DUP2 \t\t\turns (uint256)\\n    {\\n       ...\n      ADD \t\t\turns (uint256)\\n    {\\n       ...\n      DUP6 \t\t\t decimals());\\n    }\\n\\n    \n      SWAP1 \t\t\t decimals());\\n    }\\n\\n    \n      MSTORE \t\t\t decimals());\\n    }\\n\\n    \n      PUSH 24\t\t\tecipient, 38165472\n      ADD \t\t\tecipient, 38165472\n      PUSH [tag] 288\t\t\turns (uint256)\\n    {\\n       ...\n      JUMP \t\t\t;\\n        __ERC20Votes_init()...\n    tag 333\t\t\tRC20PermitUpgradeable, NoncesU...\n      JUMPDEST \t\t\tRC20PermitUpgradeable, NoncesU...\n      PUSH 0\t\t\t);\\n    }\\n}\\n\n      PUSH 6E71EDAE12B1B97F4D1F60370FEF10105FA2FAAE0126114A169C64845D6126C9\t\t\t    public initializer\\n    {\\...\n      DUP9 \t\t\t\n      DUP9 \t\t\t\n      DUP9 \t\t\t\n      PUSH [tag] 335\t\t\t\n      DUP13 \t\t\t\n      PUSH [tag] 336\t\t\t\n      JUMP \t\t\t\n    tag 335\t\t\t\n      JUMPDEST \t\t\t\n      PUSH 40\t\t\t\n      DUP1 \t\t\t\n      MLOAD \t\t\t\n      PUSH 20\t\t\t\n      DUP2 \t\t\t\n      ADD \t\t\t\n      SWAP7 \t\t\t\n      SWAP1 \t\t\t\n      SWAP7 \t\t\t\n      MSTORE \t\t\t\n      PUSH 1\t\t\t\n      PUSH 1\t\t\t\n      PUSH A0\t\t\t\n      SHL \t\t\t\n      SUB \t\t\t\n      SWAP5 \t\t\t\n      DUP6 \t\t\t\n      AND \t\t\t\n      SWAP1 \t\t\t\n      DUP7 \t\t\t\n      ADD \t\t\t\n      MSTORE \t\t\t\n      SWAP3 \t\t\t\n      SWAP1 \t\t\t\n      SWAP2 \t\t\t\n      AND \t\t\t\n      PUSH 60\t\t\t\n      DUP5 \t\t\t\n      ADD \t\t\t\n      MSTORE \t\t\t\n      PUSH 80\t\t\t\n      DUP4 \t\t\t\n      ADD \t\t\t\n      MSTORE \t\t\t\n      PUSH A0\t\t\t\n      DUP3 \t\t\t\n      ADD \t\t\t\n      MSTORE \t\t\t\n      PUSH C0\t\t\t\n      DUP2 \t\t\t\n      ADD \t\t\t\n      DUP7 \t\t\t\n      SWAP1 \t\t\t\n      MSTORE \t\t\t\n      PUSH E0\t\t\t\n      ADD \t\t\t\n      PUSH 40\t\t\t\n      MLOAD \t\t\t\n      PUSH 20\t\t\t\n      DUP2 \t\t\t\n      DUP4 \t\t\t\n      SUB \t\t\t\n      SUB \t\t\t\n      DUP2 \t\t\t\n      MSTORE \t\t\t\n      SWAP1 \t\t\t\n      PUSH 40\t\t\t\n      MSTORE \t\t\t\n      DUP1 \t\t\t\n      MLOAD \t\t\t\n      SWAP1 \t\t\t\n      PUSH 20\t\t\t\n      ADD \t\t\t\n      KECCAK256 \t\t\t\n      SWAP1 \t\t\t);\\n    }\\n}\\n\n      POP \t\t\t);\\n    }\\n}\\n\n      PUSH 0\t\t\t\n      PUSH [tag] 339\t\t\t\n      DUP3 \t\t\t\n      PUSH [tag] 327\t\t\t\n      JUMP \t\t\t\n    tag 339\t\t\t\n      JUMPDEST \t\t\t\n      SWAP1 \t\t\t\n      POP \t\t\t\n      PUSH 0\t\t\t\n      PUSH [tag] 340\t\t\t\n      DUP3 \t\t\t\n      DUP8 \t\t\t\n      DUP8 \t\t\t\n      DUP8 \t\t\t\n      PUSH [tag] 328\t\t\t\n      JUMP \t\t\t\n    tag 340\t\t\t\n      JUMPDEST \t\t\t\n      SWAP1 \t\t\t\n      POP \t\t\t\n      DUP10 \t\t\t\n      PUSH 1\t\t\t\n      PUSH 1\t\t\t\n      PUSH A0\t\t\t\n      SHL \t\t\t\n      SUB \t\t\t\n      AND \t\t\t\n      DUP2 \t\t\t\n      PUSH 1\t\t\t\n      PUSH 1\t\t\t\n      PUSH A0\t\t\t\n      SHL \t\t\t\n      SUB \t\t\t\n      AND \t\t\t\n      EQ \t\t\t\n      PUSH [tag] 341\t\t\t\n      JUMPI \t\t\t\n      PUSH 40\t\t\t\n      MLOAD \t\t\t\n      PUSH 25C00723\t\t\t\n      PUSH E1\t\t\t\n      SHL \t\t\t\n      DUP2 \t\t\t\n      MSTORE \t\t\t\n      PUSH 1\t\t\t\n      PUSH 1\t\t\t\n      PUSH A0\t\t\t\n      SHL \t\t\t\n      SUB \t\t\t\n      DUP1 \t\t\t\n      DUP4 \t\t\t\n      AND \t\t\t\n      PUSH 4\t\t\t\n      DUP4 \t\t\t\n      ADD \t\t\t\n      MSTORE \t\t\t\n      DUP12 \t\t\t\n      AND \t\t\t\n      PUSH 24\t\t\t\n      DUP3 \t\t\t\n      ADD \t\t\t\n      MSTORE \t\t\t\n      PUSH 44\t\t\t\n      ADD \t\t\t\n      PUSH [tag] 288\t\t\t\n      JUMP \t\t\t\n    tag 341\t\t\t\n      JUMPDEST \t\t\t\n      PUSH [tag] 344\t\t\t\n      DUP11 \t\t\t\n      DUP11 \t\t\t\n      DUP11 \t\t\t\n      PUSH [tag] 201\t\t\t\n      JUMP \t\t\t\n    tag 344\t\t\t\n      JUMPDEST \t\t\t\n      POP \t\t\toverride(ERC20PermitUpgradeabl...\n      POP \t\t\toverride(ERC20PermitUpgradeabl...\n      POP \t\t\toverride(ERC20PermitUpgradeabl...\n      POP \t\t\tternal\\n        override(ERC20...\n      POP \t\t\tternal\\n        override(ERC20...\n      POP \t\t\tternal\\n        override(ERC20...\n      POP \t\t\tternal\\n        override(ERC20...\n      POP \t\t\tternal\\n        override(ERC20...\n      POP \t\t\tternal\\n        override(ERC20...\n      POP \t\t\tternal\\n        override(ERC20...\n      JUMP \t\t\tternal\\n        override(ERC20...\n    tag 175\t\t\t\n      JUMPDEST \t\t\t\n      PUSH 1\t\t\t\n      PUSH 1\t\t\t\n      PUSH A0\t\t\t\n      SHL \t\t\t\n      SUB \t\t\t\n      SWAP2 \t\t\t\n      DUP3 \t\t\t\n      AND \t\t\t\n      PUSH 0\t\t\t\n      SWAP1 \t\t\t\n      DUP2 \t\t\t\n      MSTORE \t\t\t\n      PUSH 52C63247E1F47DB19D5CE0460030C497F067CA4CEBF71BA98EEADABE20BACE01\t\t\t\n      PUSH 20\t\t\t\n      SWAP1 \t\t\t\n      DUP2 \t\t\t\n      MSTORE \t\t\t\n      PUSH 40\t\t\t\n      DUP1 \t\t\t\n      DUP4 \t\t\t\n      KECCAK256 \t\t\t\n      SWAP4 \t\t\t\n      SWAP1 \t\t\t\n      SWAP5 \t\t\t\n      AND \t\t\t\n      DUP3 \t\t\t\n      MSTORE \t\t\t\n      SWAP2 \t\t\t\n      SWAP1 \t\t\t\n      SWAP2 \t\t\t\n      MSTORE \t\t\t\n      KECCAK256 \t\t\t\n      SLOAD \t\t\t\n      SWAP1 \t\t\t\n      JUMP \t\t\t\n    tag 181\t\t\t\n      JUMPDEST \t\t\t\n      PUSH 40\t\t\t\n      DUP1 \t\t\t\n      MLOAD \t\t\t\n      DUP1 \t\t\t\n      DUP3 \t\t\t\n      ADD \t\t\t\n      SWAP1 \t\t\t\n      SWAP2 \t\t\t\n      MSTORE \t\t\t\n      PUSH 0\t\t\t\n      DUP1 \t\t\t\n      DUP3 \t\t\t\n      MSTORE \t\t\t\n      PUSH 20\t\t\t\n      DUP3 \t\t\t\n      ADD \t\t\t\n      MSTORE \t\t\t\n      PUSH [tag] 204\t\t\t\n      DUP4 \t\t\t\n      DUP4 \t\t\t\n      PUSH [tag] 351\t\t\t\n      JUMP \t\t\t\n    tag 187\t\t\t\n      JUMPDEST \t\t\t\n      PUSH [tag] 353\t\t\tble)\\n        \n      PUSH [tag] 276\t\t\tble)\\n      \n      JUMP \t\t\tble)\\n        \n    tag 353\t\t\tble)\\n        \n      JUMPDEST \t\t\tble)\\n        \n      PUSH 1\t\t\t\n      PUSH 1\t\t\t\n      PUSH A0\t\t\t\n      SHL \t\t\t\n      SUB \t\t\t\n      DUP2 \t\t\t\n      AND \t\t\t\n      PUSH [tag] 355\t\t\t\n      JUMPI \t\t\t\n      PUSH 40\t\t\t\n      MLOAD \t\t\t\n      PUSH 1E4FBDF7\t\t\t\n      PUSH E0\t\t\t\n      SHL \t\t\t\n      DUP2 \t\t\t\n      MSTORE \t\t\t\n      PUSH 0\t\t\t\n      PUSH 4\t\t\t\n      DUP3 \t\t\t\n      ADD \t\t\t\n      MSTORE \t\t\t\n      PUSH 24\t\t\t\n      ADD \t\t\t\n      PUSH [tag] 288\t\t\t\n      JUMP \t\t\t\n    tag 355\t\t\t\n      JUMPDEST \t\t\t\n      PUSH [tag] 357\t\t\t\n      DUP2 \t\t\t\n      PUSH [tag] 279\t\t\t\n      JUMP \t\t\t\n    tag 357\t\t\t\n      JUMPDEST \t\t\t\n      POP \t\t\t\n      JUMP \t\t\t\n    tag 201\t\t\t\n      JUMPDEST \t\t\t\n      PUSH [tag] 361\t\t\t\n      DUP4 \t\t\t\n      DUP4 \t\t\t\n      DUP4 \t\t\t\n      PUSH 1\t\t\t\n      PUSH [tag] 362\t\t\t\n      JUMP \t\t\t\n    tag 361\t\t\t\n      JUMPDEST \t\t\t\n      POP \t\t\t\n      POP \t\t\t\n      POP \t\t\t\n      JUMP \t\t\t\n    tag 207\t\t\t\n      JUMPDEST \t\t\t\n      PUSH 0\t\t\t\n      PUSH [tag] 364\t\t\t\n      DUP5 \t\t\t\n      DUP5 \t\t\t\n      PUSH [tag] 175\t\t\t\n      JUMP \t\t\t\n    tag 364\t\t\t\n      JUMPDEST \t\t\t\n      SWAP1 \t\t\t\n      POP \t\t\t\n      PUSH 0\t\t\t\n      NOT \t\t\t\n      DUP2 \t\t\t\n      LT \t\t\t\n      ISZERO \t\t\t\n      PUSH [tag] 369\t\t\t\n      JUMPI \t\t\t\n      DUP2 \t\t\t\n      DUP2 \t\t\t\n      LT \t\t\t\n      ISZERO \t\t\t\n      PUSH [tag] 366\t\t\t\n      JUMPI \t\t\t\n      PUSH 40\t\t\t\n      MLOAD \t\t\t\n      PUSH 7DC7A0D9\t\t\t\n      PUSH E1\t\t\t\n      SHL \t\t\t\n      DUP2 \t\t\t\n      MSTORE \t\t\t\n      PUSH 1\t\t\t\n      PUSH 1\t\t\t\n      PUSH A0\t\t\t\n      SHL \t\t\t\n      SUB \t\t\t\n      DUP5 \t\t\t\n      AND \t\t\t\n      PUSH 4\t\t\t\n      DUP3 \t\t\t\n      ADD \t\t\t\n      MSTORE \t\t\t\n      PUSH 24\t\t\t\n      DUP2 \t\t\t\n      ADD \t\t\t\n      DUP3 \t\t\t\n      SWAP1 \t\t\t\n      MSTORE \t\t\t\n      PUSH 44\t\t\t\n      DUP2 \t\t\t\n      ADD \t\t\t\n      DUP4 \t\t\t\n      SWAP1 \t\t\t\n      MSTORE \t\t\t\n      PUSH 64\t\t\t\n      ADD \t\t\t\n      PUSH [tag] 288\t\t\t\n      JUMP \t\t\t\n    tag 366\t\t\t\n      JUMPDEST \t\t\t\n      PUSH [tag] 369\t\t\t\n      DUP5 \t\t\t\n      DUP5 \t\t\t\n      DUP5 \t\t\t\n      DUP5 \t\t\t\n      SUB \t\t\t\n      PUSH 0\t\t\t\n      PUSH [tag] 362\t\t\t\n      JUMP \t\t\t\n    tag 369\t\t\t\n      JUMPDEST \t\t\t\n      POP \t\t\t\n      POP \t\t\t\n      POP \t\t\t\n      POP \t\t\t\n      JUMP \t\t\t\n    tag 209\t\t\t\n      JUMPDEST \t\t\t\n      PUSH 1\t\t\t\n      PUSH 1\t\t\t\n      PUSH A0\t\t\t\n      SHL \t\t\t\n      SUB \t\t\t\n      DUP4 \t\t\t\n      AND \t\t\t\n      PUSH [tag] 371\t\t\t\n      JUMPI \t\t\t\n      PUSH 40\t\t\t\n      MLOAD \t\t\t\n      PUSH 4B637E8F\t\t\t\n      PUSH E1\t\t\t\n      SHL \t\t\t\n      DUP2 \t\t\t\n      MSTORE \t\t\t\n      PUSH 0\t\t\t\n      PUSH 4\t\t\t\n      DUP3 \t\t\t\n      ADD \t\t\t\n      MSTORE \t\t\t\n      PUSH 24\t\t\t\n      ADD \t\t\t\n      PUSH [tag] 288\t\t\t\n      JUMP \t\t\t\n    tag 371\t\t\t\n      JUMPDEST \t\t\t\n      PUSH 1\t\t\t\n      PUSH 1\t\t\t\n      PUSH A0\t\t\t\n      SHL \t\t\t\n      SUB \t\t\t\n      DUP3 \t\t\t\n      AND \t\t\t\n      PUSH [tag] 373\t\t\t\n      JUMPI \t\t\t\n      PUSH 40\t\t\t\n      MLOAD \t\t\t\n      PUSH EC442F05\t\t\t\n      PUSH E0\t\t\t\n      SHL \t\t\t\n      DUP2 \t\t\t\n      MSTORE \t\t\t\n      PUSH 0\t\t\t\n      PUSH 4\t\t\t\n      DUP3 \t\t\t\n      ADD \t\t\t\n      MSTORE \t\t\t\n      PUSH 24\t\t\t\n      ADD \t\t\t\n      PUSH [tag] 288\t\t\t\n      JUMP \t\t\t\n    tag 373\t\t\t\n      JUMPDEST \t\t\t\n      PUSH [tag] 361\t\t\t\n      DUP4 \t\t\t\n      DUP4 \t\t\t\n      DUP4 \t\t\t\n      PUSH [tag] 376\t\t\t\n      JUMP \t\t\t\n    tag 213\t\t\t\n      JUMPDEST \t\t\t\n      PUSH 0\t\t\t\n      PUSH [tag] 212\t\t\t\n      PUSH [tag] 379\t\t\t\n      JUMP \t\t\t\n    tag 219\t\t\t\n      JUMPDEST \t\t\t\n      PUSH 0\t\t\t\n      TIMESTAMP \t\t\tblock.timestamp\n      PUSH FFFFFFFFFFFF\t\t\t\n      DUP2 \t\t\t\n      AND \t\t\t\n      DUP4 \t\t\t\n      LT \t\t\t\n      PUSH [tag] 383\t\t\t\n      JUMPI \t\t\t\n      PUSH 40\t\t\t\n      MLOAD \t\t\t\n      PUSH 7669FC0F\t\t\t\n      PUSH E1\t\t\t\n      SHL \t\t\t\n      DUP2 \t\t\t\n      MSTORE \t\t\t\n      PUSH 4\t\t\t\n      DUP2 \t\t\t\n      ADD \t\t\t\n      DUP5 \t\t\t\n      SWAP1 \t\t\t\n      MSTORE \t\t\t\n      PUSH FFFFFFFFFFFF\t\t\t\n      DUP3 \t\t\t\n      AND \t\t\t\n      PUSH 24\t\t\t\n      DUP3 \t\t\t\n      ADD \t\t\t\n      MSTORE \t\t\t\n      PUSH 44\t\t\t\n      ADD \t\t\t\n      PUSH [tag] 288\t\t\t\n      JUMP \t\t\t\n    tag 383\t\t\t\n      JUMPDEST \t\t\t\n      PUSH [tag] 204\t\t\t\n      DUP4 \t\t\t\n      PUSH [tag] 387\t\t\t\n      JUMP \t\t\t\n    tag 220\t\t\t\n      JUMPDEST \t\t\t\n      DUP2 \t\t\t\n      SLOAD \t\t\t\n      PUSH 0\t\t\t\n      SWAP1 \t\t\t\n      DUP2 \t\t\t\n      DUP2 \t\t\t\n      PUSH 5\t\t\t\n      DUP2 \t\t\t\n      GT \t\t\t\n      ISZERO \t\t\t\n      PUSH [tag] 389\t\t\t\n      JUMPI \t\t\t\n      PUSH 0\t\t\t\n      PUSH [tag] 390\t\t\t\n      DUP5 \t\t\t\n      PUSH [tag] 391\t\t\t\n      JUMP \t\t\t\n    tag 390\t\t\t\n      JUMPDEST \t\t\t\n      PUSH [tag] 392\t\t\t\n      SWAP1 \t\t\t\n      DUP6 \t\t\t\n      PUSH [tag] 393\t\t\t\n      JUMP \t\t\t\n    tag 392\t\t\t\n      JUMPDEST \t\t\t\n      PUSH 0\t\t\t\n      DUP9 \t\t\t\n      DUP2 \t\t\t\n      MSTORE \t\t\t\n      PUSH 20\t\t\t\n      SWAP1 \t\t\t\n      KECCAK256 \t\t\t\n      SWAP1 \t\t\t\n      SWAP2 \t\t\t\n      POP \t\t\t\n      DUP2 \t\t\t\n      ADD \t\t\t\n      SLOAD \t\t\t\n      PUSH FFFFFFFFFFFF\t\t\t\n      SWAP1 \t\t\t\n      DUP2 \t\t\t\n      AND \t\t\t\n      SWAP1 \t\t\t\n      DUP8 \t\t\t\n      AND \t\t\t\n      LT \t\t\t\n      ISZERO \t\t\t\n      PUSH [tag] 396\t\t\t\n      JUMPI \t\t\t\n      DUP1 \t\t\t\n      SWAP2 \t\t\t\n      POP \t\t\t\n      PUSH [tag] 397\t\t\t\n      JUMP \t\t\t\n    tag 396\t\t\t\n      JUMPDEST \t\t\t\n      PUSH [tag] 398\t\t\t\n      DUP2 \t\t\t\n      PUSH 1\t\t\t\n      PUSH [tag] 399\t\t\t\n      JUMP \t\t\t\n    tag 398\t\t\t\n      JUMPDEST \t\t\t\n      SWAP3 \t\t\t\n      POP \t\t\t\n    tag 397\t\t\t\n      JUMPDEST \t\t\t\n      POP \t\t\t\n    tag 389\t\t\t\n      JUMPDEST \t\t\t\n      PUSH 0\t\t\t\n      PUSH [tag] 400\t\t\t\n      DUP8 \t\t\t\n      DUP8 \t\t\t\n      DUP6 \t\t\t\n      DUP6 \t\t\t\n      PUSH [tag] 401\t\t\t\n      JUMP \t\t\t\n    tag 400\t\t\t\n      JUMPDEST \t\t\t\n      SWAP1 \t\t\t\n      POP \t\t\t\n      DUP1 \t\t\t\n      ISZERO \t\t\t\n      PUSH [tag] 402\t\t\t\n      JUMPI \t\t\t\n      PUSH [tag] 403\t\t\t\n      DUP8 \t\t\t\n      PUSH [tag] 404\t\t\t\n      PUSH 1\t\t\t\n      DUP5 \t\t\t\n      PUSH [tag] 393\t\t\t\n      JUMP \t\t\t\n    tag 404\t\t\t\n      JUMPDEST \t\t\t\n      PUSH 0\t\t\t\n      SWAP2 \t\t\t\n      DUP3 \t\t\t\n      MSTORE \t\t\t\n      PUSH 20\t\t\t\n      SWAP1 \t\t\t\n      SWAP2 \t\t\t\n      KECCAK256 \t\t\t\n      ADD \t\t\t\n      SWAP1 \t\t\t\n      JUMP \t\t\t\n    tag 403\t\t\t\n      JUMPDEST \t\t\t\n      SLOAD \t\t\t\n      PUSH 1\t\t\t\n      PUSH 30\t\t\t\n      SHL \t\t\t\n      SWAP1 \t\t\t\n      DIV \t\t\t\n      PUSH 1\t\t\t\n      PUSH 1\t\t\t\n      PUSH D0\t\t\t\n      SHL \t\t\t\n      SUB \t\t\t\n      AND \t\t\t\n      PUSH [tag] 405\t\t\t\n      JUMP \t\t\t\n    tag 402\t\t\t\n      JUMPDEST \t\t\t\n      PUSH 0\t\t\t\n    tag 405\t\t\t\n      JUMPDEST \t\t\t\n      SWAP8 \t\t\t\n      SWAP7 \t\t\t\n      POP \t\t\t\n      POP \t\t\t\n      POP \t\t\t\n      POP \t\t\t\n      POP \t\t\t\n      POP \t\t\t\n      POP \t\t\t\n      JUMP \t\t\t\n    tag 231\t\t\t     override(ERC20PermitUpgra...\n      JUMPDEST \t\t\t     override(ERC20PermitUpgra...\n      PUSH [tag] 408\t\t\t\n      PUSH [tag] 409\t\t\t\n      JUMP \t\t\t\n    tag 408\t\t\t\n      JUMPDEST \t\t\t\n      PUSH [tag] 257\t\t\tn super.nonces(owner);\\n    }\\...\n      DUP3 \t\t\t    }\n      DUP3 \t\t\t\\n\n      PUSH [tag] 412\t\t\tn super.nonces(owner);\n      JUMP \t\t\tn super.nonces(owner);\\n    }\\...\n    tag 233\t\t\t\\n    }\\n\\n    function _autho...\n      JUMPDEST \t\t\t\\n    }\\n\\n    function _autho...\n      PUSH [tag] 414\t\t\t\n      PUSH [tag] 409\t\t\t\n      JUMP \t\t\t\n    tag 414\t\t\t\n      JUMPDEST \t\t\t\n      PUSH [tag] 357\t\t\t       override\\n        onlyO...\n      DUP2 \t\t\tonly\n      PUSH 40\t\t\t       override\\n        onlyO...\n      MLOAD \t\t\t       override\\n        onlyO...\n      DUP1 \t\t\t       override\\n        onlyO...\n      PUSH 40\t\t\t       override\\n        onlyO...\n      ADD \t\t\t       override\\n        onlyO...\n      PUSH 40\t\t\t       override\\n        onlyO...\n      MSTORE \t\t\t       override\\n        onlyO...\n      DUP1 \t\t\t       override\\n        onlyO...\n      PUSH 1\t\t\t       override\\n        onlyO...\n      DUP2 \t\t\t       override\\n        onlyO...\n      MSTORE \t\t\t       override\\n        onlyO...\n      PUSH 20\t\t\t       override\\n        onlyO...\n      ADD \t\t\t       override\\n        onlyO...\n      PUSH 31\t\t\t\n      PUSH F8\t\t\t\n      SHL \t\t\t\n      DUP2 \t\t\t       override\\n        onlyO...\n      MSTORE \t\t\t       override\\n        onlyO...\n      POP \t\t\t       override\\n        onlyO...\n      PUSH [tag] 417\t\t\t       override\\n       \n      JUMP \t\t\t       override\\n        onlyO...\n    tag 235\t\t\terride returns (uint48) {\\n   ...\n      JUMPDEST \t\t\terride returns (uint48) {\\n   ...\n      PUSH [tag] 278\t\t\t\n      PUSH [tag] 409\t\t\t\n      JUMP \t\t\t\n    tag 237\t\t\tction _authorizeUpgrade(addres...\n      JUMPDEST \t\t\tction _authorizeUpgrade(addres...\n      PUSH [tag] 422\t\t\t\n      PUSH [tag] 409\t\t\t\n      JUMP \t\t\t\n    tag 422\t\t\t\n      JUMPDEST \t\t\t\n      PUSH [tag] 357\t\t\tde\\n        onlyOwner\\n    {}\\...\n      DUP2 \t\t\t{}\\n\\n    // T\n      PUSH [tag] 425\t\t\tde\\n        onlyOwner\\n   \n      JUMP \t\t\tde\\n        onlyOwner\\n    {}\\...\n    tag 246\t\t\t\n      JUMPDEST \t\t\t\n      PUSH 1\t\t\t\n      PUSH 1\t\t\t\n      PUSH A0\t\t\t\n      SHL \t\t\t\n      SUB \t\t\t\n      DUP3 \t\t\t\n      AND \t\t\t\n      PUSH [tag] 430\t\t\t\n      JUMPI \t\t\t\n      PUSH 40\t\t\t\n      MLOAD \t\t\t\n      PUSH EC442F05\t\t\t\n      PUSH E0\t\t\t\n      SHL \t\t\t\n      DUP2 \t\t\t\n      MSTORE \t\t\t\n      PUSH 0\t\t\t\n      PUSH 4\t\t\t\n      DUP3 \t\t\t\n      ADD \t\t\t\n      MSTORE \t\t\t\n      PUSH 24\t\t\t\n      ADD \t\t\t\n      PUSH [tag] 288\t\t\t\n      JUMP \t\t\t\n    tag 430\t\t\t\n      JUMPDEST \t\t\t\n      PUSH [tag] 257\t\t\t\n      PUSH 0\t\t\t\n      DUP4 \t\t\t\n      DUP4 \t\t\t\n      PUSH [tag] 376\t\t\t\n      JUMP \t\t\t\n    tag 253\t\t\t\n      JUMPDEST \t\t\t\n      ADDRESS \t\t\t\n      PUSH 1\t\t\t\n      PUSH 1\t\t\t\n      PUSH A0\t\t\t\n      SHL \t\t\t\n      SUB \t\t\t\n      PUSHIMMUTABLE 1113\t\t\t\n      AND \t\t\t\n      EQ \t\t\t\n      DUP1 \t\t\t\n      PUSH [tag] 434\t\t\t\n      JUMPI \t\t\t\n      POP \t\t\t\n      PUSHIMMUTABLE 1113\t\t\t\n      PUSH 1\t\t\t\n      PUSH 1\t\t\t\n      PUSH A0\t\t\t\n      SHL \t\t\t\n      SUB \t\t\t\n      AND \t\t\t\n      PUSH [tag] 435\t\t\t\n      PUSH 0\t\t\t\n      DUP1 \t\t\t\n      MLOAD \t\t\t\n      PUSH 20\t\t\t\n      PUSH data 75B20EEF8615DE99C108B05F0DBDA081C91897128CAA336D75DFFB97C4132B4D\t\t\t\n      DUP4 \t\t\t\n      CODECOPY \t\t\t\n      DUP2 \t\t\t\n      MLOAD \t\t\t\n      SWAP2 \t\t\t\n      MSTORE \t\t\t\n      SLOAD \t\t\tcipient, 381654729 * 10 ** dec...\n      PUSH 1\t\t\t\n      PUSH 1\t\t\t\n      PUSH A0\t\t\t\n      SHL \t\t\t\n      SUB \t\t\t\n      AND \t\t\tcipient, 381654729 * 10 ** dec...\n      SWAP1 \t\t\tcipient, 381654729 * 10 ** dec...\n      JUMP \t\t\twnable_init(initialOwner);\\n  ...\n    tag 435\t\t\t\n      JUMPDEST \t\t\t\n      PUSH 1\t\t\t\n      PUSH 1\t\t\t\n      PUSH A0\t\t\t\n      SHL \t\t\t\n      SUB \t\t\t\n      AND \t\t\t\n      EQ \t\t\t\n      ISZERO \t\t\t\n    tag 434\t\t\t\n      JUMPDEST \t\t\t\n      ISZERO \t\t\t\n      PUSH [tag] 278\t\t\t\n      JUMPI \t\t\t\n      PUSH 40\t\t\t\n      MLOAD \t\t\t\n      PUSH 703E46DD\t\t\t\n      PUSH E1\t\t\t\n      SHL \t\t\t\n      DUP2 \t\t\t\n      MSTORE \t\t\t\n      PUSH 4\t\t\t\n      ADD \t\t\t\n      PUSH 40\t\t\t\n      MLOAD \t\t\t\n      DUP1 \t\t\t\n      SWAP2 \t\t\t\n      SUB \t\t\t\n      SWAP1 \t\t\t\n      REVERT \t\t\t\n    tag 256\t\t\tfunction _authorizeUpgrade(add...\n      JUMPDEST \t\t\tfunction _authorizeUpgrade(add...\n      PUSH [tag] 357\t\t\tble)\\n        \n      PUSH [tag] 276\t\t\tble)\\n      \n      JUMP \t\t\tble)\\n        \n    tag 258\t\t\t\n      JUMPDEST \t\t\t\n      DUP2 \t\t\t\n      PUSH 1\t\t\t\n      PUSH 1\t\t\t\n      PUSH A0\t\t\t\n      SHL \t\t\t\n      SUB \t\t\t\n      AND \t\t\t\n      PUSH 52D1902D\t\t\t\n      PUSH 40\t\t\t\n      MLOAD \t\t\t\n      DUP2 \t\t\t\n      PUSH FFFFFFFF\t\t\t\n      AND \t\t\t\n      PUSH E0\t\t\t\n      SHL \t\t\t\n      DUP2 \t\t\t\n      MSTORE \t\t\t\n      PUSH 4\t\t\t\n      ADD \t\t\t\n      PUSH 20\t\t\t\n      PUSH 40\t\t\t\n      MLOAD \t\t\t\n      DUP1 \t\t\t\n      DUP4 \t\t\t\n      SUB \t\t\t\n      DUP2 \t\t\t\n      DUP7 \t\t\t\n      GAS \t\t\t\n      STATICCALL \t\t\t\n      SWAP3 \t\t\t\n      POP \t\t\t\n      POP \t\t\t\n      POP \t\t\t\n      DUP1 \t\t\t\n      ISZERO \t\t\t\n      PUSH [tag] 442\t\t\t\n      JUMPI \t\t\t\n      POP \t\t\t\n      PUSH 40\t\t\t\n      DUP1 \t\t\t\n      MLOAD \t\t\t\n      PUSH 1F\t\t\t\n      RETURNDATASIZE \t\t\t\n      SWAP1 \t\t\t\n      DUP2 \t\t\t\n      ADD \t\t\t\n      PUSH 1F\t\t\t\n      NOT \t\t\t\n      AND \t\t\t\n      DUP3 \t\t\t\n      ADD \t\t\t\n      SWAP1 \t\t\t\n      SWAP3 \t\t\t\n      MSTORE \t\t\t\n      PUSH [tag] 443\t\t\t\n      SWAP2 \t\t\t\n      DUP2 \t\t\t\n      ADD \t\t\t\n      SWAP1 \t\t\t\n      PUSH [tag] 444\t\t\t\n      JUMP \t\t\t\n    tag 443\t\t\t\n      JUMPDEST \t\t\t\n      PUSH 1\t\t\t\n    tag 442\t\t\t\n      JUMPDEST \t\t\t\n      PUSH [tag] 445\t\t\t\n      JUMPI \t\t\t\n      PUSH 40\t\t\t\n      MLOAD \t\t\t\n      PUSH 4C9C8CE3\t\t\t\n      PUSH E0\t\t\t\n      SHL \t\t\t\n      DUP2 \t\t\t\n      MSTORE \t\t\t\n      PUSH 1\t\t\t\n      PUSH 1\t\t\t\n      PUSH A0\t\t\t\n      SHL \t\t\t\n      SUB \t\t\t\n      DUP4 \t\t\t\n      AND \t\t\t\n      PUSH 4\t\t\t\n      DUP3 \t\t\t\n      ADD \t\t\t\n      MSTORE \t\t\t\n      PUSH 24\t\t\t\n      ADD \t\t\t\n      PUSH [tag] 288\t\t\t\n      JUMP \t\t\t\n    tag 445\t\t\t\n      JUMPDEST \t\t\t\n      PUSH 0\t\t\t\n      DUP1 \t\t\t\n      MLOAD \t\t\t\n      PUSH 20\t\t\t\n      PUSH data 75B20EEF8615DE99C108B05F0DBDA081C91897128CAA336D75DFFB97C4132B4D\t\t\t\n      DUP4 \t\t\t\n      CODECOPY \t\t\t\n      DUP2 \t\t\t\n      MLOAD \t\t\t\n      SWAP2 \t\t\t\n      MSTORE \t\t\t\n      DUP2 \t\t\t\n      EQ \t\t\t\n      PUSH [tag] 451\t\t\t\n      JUMPI \t\t\t\n      PUSH 40\t\t\t\n      MLOAD \t\t\t\n      PUSH 2A875269\t\t\t\n      PUSH E2\t\t\t\n      SHL \t\t\t\n      DUP2 \t\t\t\n      MSTORE \t\t\t\n      PUSH 4\t\t\t\n      DUP2 \t\t\t\n      ADD \t\t\t\n      DUP3 \t\t\t decimals());\\n    }\\n\\n    \n      SWAP1 \t\t\t decimals());\\n    }\\n\\n    \n      MSTORE \t\t\t decimals());\\n    }\\n\\n    \n      PUSH 24\t\t\tecipient, 38165472\n      ADD \t\t\tecipient, 38165472\n      PUSH [tag] 288\t\t\t\n      JUMP \t\t\t;\\n        __ERC20Votes_init()...\n    tag 451\t\t\t\n      JUMPDEST \t\t\t\n      PUSH [tag] 361\t\t\t\n      DUP4 \t\t\t\n      DUP4 \t\t\t\n      PUSH [tag] 454\t\t\t\n      JUMP \t\t\t\n    tag 261\t\t\t\n      JUMPDEST \t\t\t\n      ADDRESS \t\t\t\n      PUSH 1\t\t\t\n      PUSH 1\t\t\t\n      PUSH A0\t\t\t\n      SHL \t\t\t\n      SUB \t\t\t\n      PUSHIMMUTABLE 1113\t\t\t\n      AND \t\t\t\n      EQ \t\t\t\n      PUSH [tag] 278\t\t\t\n      JUMPI \t\t\t\n      PUSH 40\t\t\t\n      MLOAD \t\t\t\n      PUSH 703E46DD\t\t\t\n      PUSH E1\t\t\t\n      SHL \t\t\t\n      DUP2 \t\t\t\n      MSTORE \t\t\t\n      PUSH 4\t\t\t\n      ADD \t\t\t\n      PUSH 40\t\t\t\n      MLOAD \t\t\t\n      DUP1 \t\t\t\n      SWAP2 \t\t\t\n      SUB \t\t\t\n      SWAP1 \t\t\t\n      REVERT \t\t\t\n    tag 268\t\t\t\n      JUMPDEST \t\t\t\n      PUSH 0\t\t\t\n      DUP1 \t\t\t\n      MLOAD \t\t\t\n      PUSH 20\t\t\t\n      PUSH data 23484935BDF196CA31423939A31C04B740AF4DE11AC0940ED78D38B36817EC46\t\t\t\n      DUP4 \t\t\t\n      CODECOPY \t\t\t\n      DUP2 \t\t\t\n      MLOAD \t\t\t\n      SWAP2 \t\t\t\n      MSTORE \t\t\t\n      PUSH 0\t\t\t\n      PUSH [tag] 459\t\t\t\n      DUP5 \t\t\t\n      PUSH [tag] 98\t\t\t\n      JUMP \t\t\t\n    tag 459\t\t\t\n      JUMPDEST \t\t\t\n      PUSH 1\t\t\t\n      PUSH 1\t\t\t\n      PUSH A0\t\t\t\n      SHL \t\t\t\n      SUB \t\t\t\n      DUP6 \t\t\t\n      DUP2 \t\t\t\n      AND \t\t\t\n      PUSH 0\t\t\t\n      DUP2 \t\t\t\n      DUP2 \t\t\t\n      MSTORE \t\t\t\n      PUSH 20\t\t\t\n      DUP7 \t\t\t\n      SWAP1 \t\t\t\n      MSTORE \t\t\t\n      PUSH 40\t\t\t\n      DUP1 \t\t\t\n      DUP3 \t\t\t\n      KECCAK256 \t\t\t\n      DUP1 \t\t\t\n      SLOAD \t\t\t\n      PUSH 1\t\t\t\n      PUSH 1\t\t\t\n      PUSH A0\t\t\t\n      SHL \t\t\t\n      SUB \t\t\t\n      NOT \t\t\t\n      AND \t\t\t\n      DUP10 \t\t\t\n      DUP7 \t\t\t\n      AND \t\t\t\n      SWAP1 \t\t\t\n      DUP2 \t\t\t\n      OR \t\t\t\n      SWAP1 \t\t\t\n      SWAP2 \t\t\t\n      SSTORE \t\t\t\n      SWAP1 \t\t\t\n      MLOAD \t\t\t\n      SWAP5 \t\t\t\n      SWAP6 \t\t\t\n      POP \t\t\t\n      SWAP4 \t\t\t\n      SWAP3 \t\t\t\n      DUP6 \t\t\t\n      AND \t\t\t\n      SWAP3 \t\t\t\n      PUSH 3134E8A2E6D97E929A7E54011EA5485D7D196DD5F0BA4D4EF95803E8E3FC257F\t\t\t\n      SWAP2 \t\t\t\n      SWAP1 \t\t\t\n      LOG4 \t\t\t\n      PUSH [tag] 369\t\t\t\n      DUP2 \t\t\t\n      DUP5 \t\t\t\n      PUSH [tag] 461\t\t\t\n      DUP8 \t\t\t\n      PUSH [tag] 462\t\t\t\n      JUMP \t\t\t\n    tag 461\t\t\t\n      JUMPDEST \t\t\t\n      PUSH [tag] 463\t\t\t\n      JUMP \t\t\t\n    tag 271\t\t\t\n      JUMPDEST \t\t\t\n      PUSH 1\t\t\t\n      PUSH 1\t\t\t\n      PUSH A0\t\t\t\n      SHL \t\t\t\n      SUB \t\t\t\n      DUP2 \t\t\t\n      AND \t\t\t\n      PUSH 0\t\t\t\n      SWAP1 \t\t\t\n      DUP2 \t\t\t\n      MSTORE \t\t\t\n      PUSH E8B26C30FAD74198956032A3533D903385D56DD795AF560196F9C78D4AF40D01\t\t\t\n      PUSH 20\t\t\t\n      MSTORE \t\t\t\n      PUSH 40\t\t\t\n      DUP2 \t\t\t\n      KECCAK256 \t\t\t\n      SLOAD \t\t\t\n      PUSH 0\t\t\t\n      DUP1 \t\t\t\n      MLOAD \t\t\t\n      PUSH 20\t\t\t\n      PUSH data 23484935BDF196CA31423939A31C04B740AF4DE11AC0940ED78D38B36817EC46\t\t\t\n      DUP4 \t\t\t\n      CODECOPY \t\t\t\n      DUP2 \t\t\t\n      MLOAD \t\t\t\n      SWAP2 \t\t\t\n      MSTORE \t\t\t\n      SWAP1 \t\t\t\n      PUSH [tag] 204\t\t\t\n      SWAP1 \t\t\t\n      PUSH [tag] 469\t\t\t\n      JUMP \t\t\t\n    tag 276\t\t\t\n      JUMPDEST \t\t\t\n      CALLER \t\t\txtProVista\n      PUSH [tag] 472\t\t\t\n      PUSH 9016D09D72D40FDAE2FD8CEAC6B6234C7706214FD39C1CD1E609A0528C199300\t\t\t   __ERC20_init(\"Next \n      SLOAD \t\t\t\n      PUSH 1\t\t\t\n      PUSH 1\t\t\t\n      PUSH A0\t\t\t\n      SHL \t\t\t\n      SUB \t\t\t\n      AND \t\t\t\n      SWAP1 \t\t\t\n      JUMP \t\t\t\n    tag 472\t\t\t\n      JUMPDEST \t\t\t\n      PUSH 1\t\t\t\n      PUSH 1\t\t\t\n      PUSH A0\t\t\t\n      SHL \t\t\t\n      SUB \t\t\t\n      AND \t\t\t\n      EQ \t\t\t\n      PUSH [tag] 278\t\t\t\n      JUMPI \t\t\t\n      PUSH 40\t\t\t\n      MLOAD \t\t\t\n      PUSH 118CDAA7\t\t\t\n      PUSH E0\t\t\t\n      SHL \t\t\t\n      DUP2 \t\t\t\n      MSTORE \t\t\t\n      CALLER \t\t\txtProVista\n      PUSH 4\t\t\t\n      DUP3 \t\t\t\n      ADD \t\t\t\n      MSTORE \t\t\t\n      PUSH 24\t\t\t\n      ADD \t\t\t\n      PUSH [tag] 288\t\t\t\n      JUMP \t\t\t\n    tag 279\t\t\t\n      JUMPDEST \t\t\t\n      PUSH 9016D09D72D40FDAE2FD8CEAC6B6234C7706214FD39C1CD1E609A0528C199300\t\t\t   __ERC20_init(\"Next \n      DUP1 \t\t\t\n      SLOAD \t\t\t\n      PUSH 1\t\t\t\n      PUSH 1\t\t\t\n      PUSH A0\t\t\t\n      SHL \t\t\t\n      SUB \t\t\t\n      NOT \t\t\t\n      DUP2 \t\t\t\n      AND \t\t\t\n      PUSH 1\t\t\t\n      PUSH 1\t\t\t\n      PUSH A0\t\t\t\n      SHL \t\t\t\n      SUB \t\t\t\n      DUP5 \t\t\t\n      DUP2 \t\t\t\n      AND \t\t\t\n      SWAP2 \t\t\t\n      DUP3 \t\t\t\n      OR \t\t\t\n      DUP5 \t\t\t\n      SSTORE \t\t\t\n      PUSH 40\t\t\t\n      MLOAD \t\t\t\n      SWAP3 \t\t\t\n      AND \t\t\t\n      SWAP2 \t\t\t\n      DUP3 \t\t\t\n      SWAP1 \t\t\t\n      PUSH 8BE0079C531659141344CD1FD0A4F28419497F9722A3DAAFE3B4186F6B6457E0\t\t\t\n      SWAP1 \t\t\t\n      PUSH 0\t\t\t\n      SWAP1 \t\t\t\n      LOG3 \t\t\t\n      POP \t\t\t\n      POP \t\t\t\n      POP \t\t\t\n      JUMP \t\t\t\n    tag 282\t\t\t\n      JUMPDEST \t\t\t\n      PUSH 0\t\t\t\n      PUSH [tag] 197\t\t\t\n      DUP3 \t\t\t\n      PUSH [tag] 480\t\t\t\n      JUMP \t\t\t\n    tag 291\t\t\t\n      JUMPDEST \t\t\t\n      PUSH A16A46D94261C7517CC8FF89F61C0CE93598E3C849801011DEE649A6A557D102\t\t\t\n      DUP1 \t\t\t\n      SLOAD \t\t\t\n      PUSH 60\t\t\t\n      SWAP2 \t\t\t\n      PUSH 0\t\t\t\n      DUP1 \t\t\t\n      MLOAD \t\t\t\n      PUSH 20\t\t\t\n      PUSH data 60016240B4CAF95CE61FF2092E1488B3D1AFF76BEE1C89F54239447D6827D736\t\t\t\n      DUP4 \t\t\t\n      CODECOPY \t\t\t\n      DUP2 \t\t\t\n      MLOAD \t\t\t\n      SWAP2 \t\t\t\n      MSTORE \t\t\t\n      SWAP2 \t\t\t\n      PUSH [tag] 191\t\t\t\n      SWAP1 \t\t\t\n      PUSH [tag] 192\t\t\t\n      JUMP \t\t\t\n    tag 293\t\t\t\n      JUMPDEST \t\t\t\n      PUSH 60\t\t\t\n      PUSH 0\t\t\t\n      PUSH 0\t\t\t\n      DUP1 \t\t\t\n      MLOAD \t\t\t\n      PUSH 20\t\t\t\n      PUSH data 60016240B4CAF95CE61FF2092E1488B3D1AFF76BEE1C89F54239447D6827D736\t\t\t\n      DUP4 \t\t\t\n      CODECOPY \t\t\t\n      DUP2 \t\t\t\n      MLOAD \t\t\t\n      SWAP2 \t\t\t\n      MSTORE \t\t\t\n      PUSH [tag] 189\t\t\t\n      JUMP \t\t\t\n    tag 316\t\t\t\n      JUMPDEST \t\t\t\n      DUP1 \t\t\t\n      SLOAD \t\t\t\n      PUSH 0\t\t\t\n      SWAP1 \t\t\t\n      DUP1 \t\t\t\n      ISZERO \t\t\t\n      PUSH [tag] 498\t\t\t\n      JUMPI \t\t\t\n      PUSH [tag] 499\t\t\t\n      DUP4 \t\t\t\n      PUSH [tag] 404\t\t\t\n      PUSH 1\t\t\t\n      DUP5 \t\t\t\n      PUSH [tag] 393\t\t\t\n      JUMP \t\t\t\n    tag 499\t\t\t\n      JUMPDEST \t\t\t\n      SLOAD \t\t\t\n      PUSH 1\t\t\t\n      PUSH 30\t\t\t\n      SHL \t\t\t\n      SWAP1 \t\t\t\n      DIV \t\t\t\n      PUSH 1\t\t\t\n      PUSH 1\t\t\t\n      PUSH D0\t\t\t\n      SHL \t\t\t\n      SUB \t\t\t\n      AND \t\t\t\n      PUSH [tag] 204\t\t\t\n      JUMP \t\t\t\n    tag 498\t\t\t\n      JUMPDEST \t\t\t\n      PUSH 0\t\t\t\n      SWAP4 \t\t\t\n      SWAP3 \t\t\t\n      POP \t\t\t\n      POP \t\t\t\n      POP \t\t\t\n      JUMP \t\t\t\n    tag 327\t\t\t\n      JUMPDEST \t\t\t\n      PUSH 0\t\t\t\n      PUSH [tag] 197\t\t\t\n      PUSH [tag] 504\t\t\t\n      PUSH [tag] 213\t\t\t\n      JUMP \t\t\t\n    tag 504\t\t\t\n      JUMPDEST \t\t\t\n      DUP4 \t\t\t\n      PUSH 40\t\t\t\n      MLOAD \t\t\t\n      PUSH 1901\t\t\t\n      PUSH F0\t\t\t\n      SHL \t\t\t\n      DUP2 \t\t\t\n      MSTORE \t\t\t\n      PUSH 2\t\t\t\n      DUP2 \t\t\t\n      ADD \t\t\t\n      SWAP3 \t\t\t\n      SWAP1 \t\t\t\n      SWAP3 \t\t\t\n      MSTORE \t\t\t\n      PUSH 22\t\t\t\n      DUP3 \t\t\t\n      ADD \t\t\t\n      MSTORE \t\t\t\n      PUSH 42\t\t\t\n      SWAP1 \t\t\t\n      KECCAK256 \t\t\t\n      SWAP1 \t\t\t\n      JUMP \t\t\t\n    tag 328\t\t\t\n      JUMPDEST \t\t\t\n      PUSH 0\t\t\t\n      DUP1 \t\t\t\n      PUSH 0\t\t\t\n      DUP1 \t\t\t\n      PUSH [tag] 507\t\t\t\n      DUP9 \t\t\t\n      DUP9 \t\t\t\n      DUP9 \t\t\t\n      DUP9 \t\t\t\n      PUSH [tag] 508\t\t\t\n      JUMP \t\t\t\n    tag 507\t\t\t\n      JUMPDEST \t\t\t\n      SWAP3 \t\t\t\n      POP \t\t\t\n      SWAP3 \t\t\t\n      POP \t\t\t\n      SWAP3 \t\t\t\n      POP \t\t\t\n      PUSH [tag] 509\t\t\t\n      DUP3 \t\t\t\n      DUP3 \t\t\t\n      PUSH [tag] 510\t\t\t\n      JUMP \t\t\t\n    tag 509\t\t\t\n      JUMPDEST \t\t\t\n      POP \t\t\t\n      SWAP1 \t\t\t\n      SWAP7 \t\t\t\n      SWAP6 \t\t\t\n      POP \t\t\t\n      POP \t\t\t\n      POP \t\t\t\n      POP \t\t\t\n      POP \t\t\t\n      POP \t\t\t\n      JUMP \t\t\t\n    tag 330\t\t\trnal\\n        override(ERC20Up...\n      JUMPDEST \t\t\trnal\\n        override(ERC20Up...\n      PUSH 0\t\t\t_update(from, t\n      PUSH [tag] 512\t\t\tvalue);\\n    }\\n\\n \n      DUP4 \t\t\t  }\\n\\n\n      PUSH [tag] 336\t\t\tvalue);\\n \n      JUMP \t\t\tvalue);\\n    }\\n\\n \n    tag 512\t\t\tvalue);\\n    }\\n\\n \n      JUMPDEST \t\t\tvalue);\\n    }\\n\\n \n      SWAP1 \t\t\t_update(from, to, value);\\n   ...\n      POP \t\t\t_update(from, to, value);\\n   ...\n      DUP1 \t\t\tess own\n      DUP3 \t\t\tnces(\n      EQ \t\t\tnces(address own\n      PUSH [tag] 361\t\t\tn nonces(address owner)\\n     ...\n      JUMPI \t\t\tn nonces(address owner)\\n     ...\n      PUSH 40\t\t\t    view\\n        override(ERC...\n      MLOAD \t\t\t    view\\n        override(ERC...\n      PUSH 1D4B623\t\t\t\n      PUSH E6\t\t\t\n      SHL \t\t\t\n      DUP2 \t\t\t    view\\n        override(ERC...\n      MSTORE \t\t\t    view\\n        override(ERC...\n      PUSH 1\t\t\t\n      PUSH 1\t\t\t\n      PUSH A0\t\t\t\n      SHL \t\t\t\n      SUB \t\t\t\n      DUP5 \t\t\t\n      AND \t\t\t\n      PUSH 4\t\t\t    view\\n        override(ERC...\n      DUP3 \t\t\t    view\\n        override(ERC...\n      ADD \t\t\t    view\\n        override(ERC...\n      MSTORE \t\t\t\n      PUSH 24\t\t\t\n      DUP2 \t\t\t\n      ADD \t\t\t\n      DUP3 \t\t\t\n      SWAP1 \t\t\t\n      MSTORE \t\t\t\n      PUSH 44\t\t\t\n      ADD \t\t\t\n      PUSH [tag] 288\t\t\t    view\\n        override(ERC...\n      JUMP \t\t\t\n    tag 336\t\t\t * 10 ** decimals());\\n    }\\n...\n      JUMPDEST \t\t\t * 10 ** decimals());\\n    }\\n...\n      PUSH 1\t\t\t\n      PUSH 1\t\t\t\n      PUSH A0\t\t\t\n      SHL \t\t\t\n      SUB \t\t\t\n      AND \t\t\t{}\\n\\n    // The f\n      PUSH 0\t\t\tw overr\n      SWAP1 \t\t\t{}\\n\\n    // The f\n      DUP2 \t\t\t{}\\n\\n    // The f\n      MSTORE \t\t\t{}\\n\\n    // The f\n      PUSH 5AB42CED628888259C08AC98DB1EB0CF702FC1501344311D8B100CD1BFE4BB00\t\t\tdeable, ERC20PermitUp\n      PUSH 20\t\t\t{}\\n\\n    // The f\n      MSTORE \t\t\t{}\\n\\n    // The f\n      PUSH 40\t\t\t{}\\n\\n    // The f\n      SWAP1 \t\t\t{}\\n\\n    // The f\n      KECCAK256 \t\t\t{}\\n\\n    // The f\n      DUP1 \t\t\t{}\\n\\n    // The fol\n      SLOAD \t\t\t{}\\n\\n    // The fol\n      PUSH 1\t\t\t{}\\n\\n    // The fol\n      DUP2 \t\t\t{}\\n\\n    // The fol\n      ADD \t\t\t{}\\n\\n    // The fol\n      SWAP1 \t\t\t{}\\n\\n    // The fol\n      SWAP2 \t\t\t{}\\n\\n    // The fol\n      SSTORE \t\t\t{}\\n\\n    // The fol\n      SWAP1 \t\t\t{}\\n\\n    // The fol\n      JUMP \t\t\t * 10 ** decimals());\\n    }\\n...\n    tag 351\t\t\t\n      JUMPDEST \t\t\t\n      PUSH 40\t\t\t\n      DUP1 \t\t\t\n      MLOAD \t\t\t\n      DUP1 \t\t\t\n      DUP3 \t\t\t\n      ADD \t\t\t\n      DUP3 \t\t\t\n      MSTORE \t\t\t\n      PUSH 0\t\t\t\n      DUP1 \t\t\t\n      DUP3 \t\t\t\n      MSTORE \t\t\t\n      PUSH 20\t\t\t\n      DUP1 \t\t\t\n      DUP4 \t\t\t\n      ADD \t\t\t\n      DUP3 \t\t\t\n      SWAP1 \t\t\t\n      MSTORE \t\t\t\n      PUSH 1\t\t\t\n      PUSH 1\t\t\t\n      PUSH A0\t\t\t\n      SHL \t\t\t\n      SUB \t\t\t\n      DUP7 \t\t\t\n      AND \t\t\t\n      DUP3 \t\t\t\n      MSTORE \t\t\t\n      PUSH E8B26C30FAD74198956032A3533D903385D56DD795AF560196F9C78D4AF40D01\t\t\t\n      SWAP1 \t\t\t\n      MSTORE \t\t\t\n      SWAP2 \t\t\t\n      SWAP1 \t\t\t\n      SWAP2 \t\t\t\n      KECCAK256 \t\t\t\n      PUSH 0\t\t\t\n      DUP1 \t\t\t\n      MLOAD \t\t\t\n      PUSH 20\t\t\t\n      PUSH data 23484935BDF196CA31423939A31C04B740AF4DE11AC0940ED78D38B36817EC46\t\t\t\n      DUP4 \t\t\t\n      CODECOPY \t\t\t\n      DUP2 \t\t\t\n      MLOAD \t\t\t\n      SWAP2 \t\t\t\n      MSTORE \t\t\t\n      SWAP1 \t\t\t\n      PUSH [tag] 522\t\t\t\n      SWAP1 \t\t\t\n      DUP5 \t\t\t\n      PUSH [tag] 523\t\t\t\n      JUMP \t\t\t\n    tag 522\t\t\t\n      JUMPDEST \t\t\t\n      SWAP5 \t\t\t\n      SWAP4 \t\t\t\n      POP \t\t\t\n      POP \t\t\t\n      POP \t\t\t\n      POP \t\t\t\n      JUMP \t\t\t\n    tag 362\t\t\t\n      JUMPDEST \t\t\t\n      PUSH 0\t\t\t\n      DUP1 \t\t\t\n      MLOAD \t\t\t\n      PUSH 20\t\t\t\n      PUSH data 3874827173E8DF9F34323B12B251D1D3C53926CE129E30A0D69F1D47C277041B\t\t\t\n      DUP4 \t\t\t\n      CODECOPY \t\t\t\n      DUP2 \t\t\t\n      MLOAD \t\t\t\n      SWAP2 \t\t\t\n      MSTORE \t\t\t\n      PUSH 1\t\t\t\n      PUSH 1\t\t\t\n      PUSH A0\t\t\t\n      SHL \t\t\t\n      SUB \t\t\t\n      DUP6 \t\t\t\n      AND \t\t\t\n      PUSH [tag] 526\t\t\t\n      JUMPI \t\t\t\n      PUSH 40\t\t\t\n      MLOAD \t\t\t\n      PUSH E602DF05\t\t\t\n      PUSH E0\t\t\t\n      SHL \t\t\t\n      DUP2 \t\t\t\n      MSTORE \t\t\t\n      PUSH 0\t\t\t\n      PUSH 4\t\t\t\n      DUP3 \t\t\t\n      ADD \t\t\t\n      MSTORE \t\t\t\n      PUSH 24\t\t\t\n      ADD \t\t\t\n      PUSH [tag] 288\t\t\t\n      JUMP \t\t\t\n    tag 526\t\t\t\n      JUMPDEST \t\t\t\n      PUSH 1\t\t\t\n      PUSH 1\t\t\t\n      PUSH A0\t\t\t\n      SHL \t\t\t\n      SUB \t\t\t\n      DUP5 \t\t\t\n      AND \t\t\t\n      PUSH [tag] 528\t\t\t\n      JUMPI \t\t\t\n      PUSH 40\t\t\t\n      MLOAD \t\t\t\n      PUSH 4A1406B1\t\t\t\n      PUSH E1\t\t\t\n      SHL \t\t\t\n      DUP2 \t\t\t\n      MSTORE \t\t\t\n      PUSH 0\t\t\t\n      PUSH 4\t\t\t\n      DUP3 \t\t\t\n      ADD \t\t\t\n      MSTORE \t\t\t\n      PUSH 24\t\t\t\n      ADD \t\t\t\n      PUSH [tag] 288\t\t\t\n      JUMP \t\t\t\n    tag 528\t\t\t\n      JUMPDEST \t\t\t\n      PUSH 1\t\t\t\n      PUSH 1\t\t\t\n      PUSH A0\t\t\t\n      SHL \t\t\t\n      SUB \t\t\t\n      DUP1 \t\t\t\n      DUP7 \t\t\t\n      AND \t\t\t\n      PUSH 0\t\t\t\n      SWAP1 \t\t\t\n      DUP2 \t\t\t\n      MSTORE \t\t\t\n      PUSH 1\t\t\t\n      DUP4 \t\t\t\n      ADD \t\t\t\n      PUSH 20\t\t\t\n      SWAP1 \t\t\t\n      DUP2 \t\t\t\n      MSTORE \t\t\t\n      PUSH 40\t\t\t\n      DUP1 \t\t\t\n      DUP4 \t\t\t\n      KECCAK256 \t\t\t\n      SWAP4 \t\t\t\n      DUP9 \t\t\t\n      AND \t\t\t\n      DUP4 \t\t\t\n      MSTORE \t\t\t\n      SWAP3 \t\t\t\n      SWAP1 \t\t\t\n      MSTORE \t\t\t\n      KECCAK256 \t\t\t\n      DUP4 \t\t\t\n      SWAP1 \t\t\t\n      SSTORE \t\t\t\n      DUP2 \t\t\t\n      ISZERO \t\t\t\n      PUSH [tag] 530\t\t\t\n      JUMPI \t\t\t\n      DUP4 \t\t\t\n      PUSH 1\t\t\t\n      PUSH 1\t\t\t\n      PUSH A0\t\t\t\n      SHL \t\t\t\n      SUB \t\t\t\n      AND \t\t\t\n      DUP6 \t\t\t\n      PUSH 1\t\t\t\n      PUSH 1\t\t\t\n      PUSH A0\t\t\t\n      SHL \t\t\t\n      SUB \t\t\t\n      AND \t\t\t\n      PUSH 8C5BE1E5EBEC7D5BD14F71427D1E84F3DD0314C0F7B2291E5B200AC8C7C3B925\t\t\t\n      DUP6 \t\t\t\n      PUSH 40\t\t\t\n      MLOAD \t\t\t\n      PUSH [tag] 531\t\t\t\n      SWAP2 \t\t\t\n      DUP2 \t\t\t decimals());\\n    }\\n\\n    \n      MSTORE \t\t\t decimals());\\n    }\\n\\n    \n      PUSH 20\t\t\t47\n      ADD \t\t\tecipient, 38165472\n      SWAP1 \t\t\tecipient, 38165472\n      JUMP \t\t\t;\\n        __ERC20Votes_init()...\n    tag 531\t\t\t\n      JUMPDEST \t\t\t\n      PUSH 40\t\t\t\n      MLOAD \t\t\t\n      DUP1 \t\t\t\n      SWAP2 \t\t\t\n      SUB \t\t\t\n      SWAP1 \t\t\t\n      LOG3 \t\t\t\n    tag 530\t\t\t\n      JUMPDEST \t\t\t\n      POP \t\t\t\n      POP \t\t\t\n      POP \t\t\t\n      POP \t\t\t\n      POP \t\t\t\n      JUMP \t\t\t\n    tag 376\t\t\tfunction _update(address from,...\n      JUMPDEST \t\t\tfunction _update(address from,...\n      PUSH [tag] 361\t\t\tsuper._update(from, to, value)\n      DUP4 \t\t\tfrom\n      DUP4 \t\t\tto\n      DUP4 \t\t\tvalue\n      PUSH [tag] 534\t\t\tsuper._update\n      JUMP \t\t\tsuper._update(from, to, value)\n    tag 379\t\t\t\n      JUMPDEST \t\t\t\n      PUSH 0\t\t\t\n      PUSH 8B73C3C69BB8FE3D512ECC4CF759CC79239F7B179B0FFACAA9A75D522B39400F\t\t\tuint256 value)\\n        intern...\n      PUSH [tag] 536\t\t\t\n      PUSH [tag] 537\t\t\t\n      JUMP \t\t\t\n    tag 536\t\t\t\n      JUMPDEST \t\t\t\n      PUSH [tag] 538\t\t\t\n      PUSH [tag] 539\t\t\t\n      JUMP \t\t\t\n    tag 538\t\t\t\n      JUMPDEST \t\t\t\n      PUSH 40\t\t\t\n      DUP1 \t\t\t\n      MLOAD \t\t\t\n      PUSH 20\t\t\t\n      DUP2 \t\t\t\n      ADD \t\t\t\n      SWAP5 \t\t\t\n      SWAP1 \t\t\t\n      SWAP5 \t\t\t\n      MSTORE \t\t\t\n      DUP4 \t\t\t\n      ADD \t\t\t\n      SWAP2 \t\t\t\n      SWAP1 \t\t\t\n      SWAP2 \t\t\t\n      MSTORE \t\t\t\n      PUSH 60\t\t\t\n      DUP3 \t\t\t\n      ADD \t\t\t\n      MSTORE \t\t\t\n      CHAINID \t\t\t\n      PUSH 80\t\t\t\n      DUP3 \t\t\t\n      ADD \t\t\t\n      MSTORE \t\t\t\n      ADDRESS \t\t\t\n      PUSH A0\t\t\t\n      DUP3 \t\t\t\n      ADD \t\t\t\n      MSTORE \t\t\t\n      PUSH C0\t\t\t\n      ADD \t\t\t\n      PUSH 40\t\t\t\n      MLOAD \t\t\t\n      PUSH 20\t\t\t\n      DUP2 \t\t\t\n      DUP4 \t\t\t\n      SUB \t\t\t\n      SUB \t\t\t\n      DUP2 \t\t\t\n      MSTORE \t\t\t\n      SWAP1 \t\t\t\n      PUSH 40\t\t\t\n      MSTORE \t\t\t\n      DUP1 \t\t\t\n      MLOAD \t\t\t\n      SWAP1 \t\t\t\n      PUSH 20\t\t\t\n      ADD \t\t\t\n      KECCAK256 \t\t\t\n      SWAP1 \t\t\t\n      POP \t\t\t\n      SWAP1 \t\t\t\n      JUMP \t\t\t\n    tag 387\t\t\t\n      JUMPDEST \t\t\t\n      PUSH 0\t\t\t\n      PUSH FFFFFFFFFFFF\t\t\t\n      DUP3 \t\t\t\n      GT \t\t\t\n      ISZERO \t\t\t\n      PUSH [tag] 543\t\t\t\n      JUMPI \t\t\t\n      PUSH 40\t\t\t\n      MLOAD \t\t\t\n      PUSH 6DFCC65\t\t\t\n      PUSH E4\t\t\t\n      SHL \t\t\t\n      DUP2 \t\t\t\n      MSTORE \t\t\t\n      PUSH 30\t\t\t\n      PUSH 4\t\t\t\n      DUP3 \t\t\t\n      ADD \t\t\t\n      MSTORE \t\t\t\n      PUSH 24\t\t\t\n      DUP2 \t\t\t\n      ADD \t\t\t\n      DUP4 \t\t\t\n      SWAP1 \t\t\t\n      MSTORE \t\t\t\n      PUSH 44\t\t\t\n      ADD \t\t\t\n      PUSH [tag] 288\t\t\t\n      JUMP \t\t\t\n    tag 543\t\t\t\n      JUMPDEST \t\t\t\n      POP \t\t\t\n      SWAP1 \t\t\t\n      JUMP \t\t\t\n    tag 391\t\t\t\n      JUMPDEST \t\t\t\n      PUSH 0\t\t\t\n      PUSH 1\t\t\t\n      DUP3 \t\t\t\n      GT \t\t\t\n      PUSH [tag] 547\t\t\t\n      JUMPI \t\t\t\n      POP \t\t\t\n      SWAP1 \t\t\t\n      JUMP \t\t\t\n    tag 547\t\t\t\n      JUMPDEST \t\t\t\n      DUP2 \t\t\t\n      PUSH 1\t\t\t\n      PUSH 1\t\t\t\n      PUSH 80\t\t\t\n      SHL \t\t\t\n      DUP3 \t\t\t\n      LT \t\t\t\n      PUSH [tag] 548\t\t\t\n      JUMPI \t\t\t\n      PUSH 80\t\t\t\n      SWAP2 \t\t\t\n      SWAP1 \t\t\t\n      SWAP2 \t\t\t\n      SHR \t\t\t\n      SWAP1 \t\t\t\n      PUSH 40\t\t\t\n      SHL \t\t\t\n    tag 548\t\t\t\n      JUMPDEST \t\t\t\n      PUSH 1\t\t\t\n      PUSH 40\t\t\t\n      SHL \t\t\t\n      DUP3 \t\t\t\n      LT \t\t\t\n      PUSH [tag] 549\t\t\t\n      JUMPI \t\t\t\n      PUSH 40\t\t\t\n      SWAP2 \t\t\t\n      SWAP1 \t\t\t\n      SWAP2 \t\t\t\n      SHR \t\t\t\n      SWAP1 \t\t\t\n      PUSH 20\t\t\t\n      SHL \t\t\t\n    tag 549\t\t\t\n      JUMPDEST \t\t\t\n      PUSH 100000000\t\t\t\n      DUP3 \t\t\t\n      LT \t\t\t\n      PUSH [tag] 550\t\t\t\n      JUMPI \t\t\t\n      PUSH 20\t\t\t\n      SWAP2 \t\t\t\n      SWAP1 \t\t\t\n      SWAP2 \t\t\t\n      SHR \t\t\t\n      SWAP1 \t\t\t\n      PUSH 10\t\t\t\n      SHL \t\t\t\n    tag 550\t\t\t\n      JUMPDEST \t\t\t\n      PUSH 10000\t\t\t\n      DUP3 \t\t\t\n      LT \t\t\t\n      PUSH [tag] 551\t\t\t\n      JUMPI \t\t\t\n      PUSH 10\t\t\t\n      SWAP2 \t\t\t\n      SWAP1 \t\t\t\n      SWAP2 \t\t\t\n      SHR \t\t\t\n      SWAP1 \t\t\t\n      PUSH 8\t\t\t\n      SHL \t\t\t\n    tag 551\t\t\t\n      JUMPDEST \t\t\t\n      PUSH 100\t\t\t\n      DUP3 \t\t\t\n      LT \t\t\t\n      PUSH [tag] 552\t\t\t\n      JUMPI \t\t\t\n      PUSH 8\t\t\t\n      SWAP2 \t\t\t\n      SWAP1 \t\t\t\n      SWAP2 \t\t\t\n      SHR \t\t\t\n      SWAP1 \t\t\t\n      PUSH 4\t\t\t\n      SHL \t\t\t\n    tag 552\t\t\t\n      JUMPDEST \t\t\t\n      PUSH 10\t\t\t\n      DUP3 \t\t\t\n      LT \t\t\t\n      PUSH [tag] 553\t\t\t\n      JUMPI \t\t\t\n      PUSH 4\t\t\t\n      SWAP2 \t\t\t\n      SWAP1 \t\t\t\n      SWAP2 \t\t\t\n      SHR \t\t\t\n      SWAP1 \t\t\t\n      PUSH 2\t\t\t\n      SHL \t\t\t\n    tag 553\t\t\t\n      JUMPDEST \t\t\t\n      PUSH 4\t\t\t\n      DUP3 \t\t\t\n      LT \t\t\t\n      PUSH [tag] 554\t\t\t\n      JUMPI \t\t\t\n      PUSH 1\t\t\t\n      SHL \t\t\t\n    tag 554\t\t\t\n      JUMPDEST \t\t\t\n      PUSH 3\t\t\t\n      MUL \t\t\t\n      PUSH 1\t\t\t\n      SWAP1 \t\t\t\n      DUP2 \t\t\t\n      SHR \t\t\t\n      SWAP1 \t\t\t\n      DUP2 \t\t\t\n      DUP6 \t\t\t\n      DUP2 \t\t\t\n      PUSH [tag] 556\t\t\t\n      JUMPI \t\t\t\n      PUSH [tag] 556\t\t\t\n      PUSH [tag] 557\t\t\t\n      JUMP \t\t\t\n    tag 556\t\t\t\n      JUMPDEST \t\t\t\n      DIV \t\t\t\n      DUP3 \t\t\t\n      ADD \t\t\t\n      SWAP1 \t\t\t\n      SHR \t\t\t\n      SWAP1 \t\t\t\n      POP \t\t\t\n      PUSH 1\t\t\t\n      DUP2 \t\t\t\n      DUP6 \t\t\t\n      DUP2 \t\t\t\n      PUSH [tag] 559\t\t\t\n      JUMPI \t\t\t\n      PUSH [tag] 559\t\t\t\n      PUSH [tag] 557\t\t\t\n      JUMP \t\t\t\n    tag 559\t\t\t\n      JUMPDEST \t\t\t\n      DIV \t\t\t\n      DUP3 \t\t\t\n      ADD \t\t\t\n      SWAP1 \t\t\t\n      SHR \t\t\t\n      SWAP1 \t\t\t\n      POP \t\t\t\n      PUSH 1\t\t\t\n      DUP2 \t\t\t\n      DUP6 \t\t\t\n      DUP2 \t\t\t\n      PUSH [tag] 561\t\t\t\n      JUMPI \t\t\t\n      PUSH [tag] 561\t\t\t\n      PUSH [tag] 557\t\t\t\n      JUMP \t\t\t\n    tag 561\t\t\t\n      JUMPDEST \t\t\t\n      DIV \t\t\t\n      DUP3 \t\t\t\n      ADD \t\t\t\n      SWAP1 \t\t\t\n      SHR \t\t\t\n      SWAP1 \t\t\t\n      POP \t\t\t\n      PUSH 1\t\t\t\n      DUP2 \t\t\t\n      DUP6 \t\t\t\n      DUP2 \t\t\t\n      PUSH [tag] 563\t\t\t\n      JUMPI \t\t\t\n      PUSH [tag] 563\t\t\t\n      PUSH [tag] 557\t\t\t\n      JUMP \t\t\t\n    tag 563\t\t\t\n      JUMPDEST \t\t\t\n      DIV \t\t\t\n      DUP3 \t\t\t\n      ADD \t\t\t\n      SWAP1 \t\t\t\n      SHR \t\t\t\n      SWAP1 \t\t\t\n      POP \t\t\t\n      PUSH 1\t\t\t\n      DUP2 \t\t\t\n      DUP6 \t\t\t\n      DUP2 \t\t\t\n      PUSH [tag] 565\t\t\t\n      JUMPI \t\t\t\n      PUSH [tag] 565\t\t\t\n      PUSH [tag] 557\t\t\t\n      JUMP \t\t\t\n    tag 565\t\t\t\n      JUMPDEST \t\t\t\n      DIV \t\t\t\n      DUP3 \t\t\t\n      ADD \t\t\t\n      SWAP1 \t\t\t\n      SHR \t\t\t\n      SWAP1 \t\t\t\n      POP \t\t\t\n      PUSH 1\t\t\t\n      DUP2 \t\t\t\n      DUP6 \t\t\t\n      DUP2 \t\t\t\n      PUSH [tag] 567\t\t\t\n      JUMPI \t\t\t\n      PUSH [tag] 567\t\t\t\n      PUSH [tag] 557\t\t\t\n      JUMP \t\t\t\n    tag 567\t\t\t\n      JUMPDEST \t\t\t\n      DIV \t\t\t\n      DUP3 \t\t\t\n      ADD \t\t\t\n      SWAP1 \t\t\t\n      SHR \t\t\t\n      SWAP1 \t\t\t\n      POP \t\t\t\n      PUSH [tag] 568\t\t\t\n      DUP2 \t\t\t\n      DUP6 \t\t\t\n      DUP2 \t\t\t\n      PUSH [tag] 570\t\t\t\n      JUMPI \t\t\t\n      PUSH [tag] 570\t\t\t\n      PUSH [tag] 557\t\t\t\n      JUMP \t\t\t\n    tag 570\t\t\t\n      JUMPDEST \t\t\t\n      DIV \t\t\t\n      DUP3 \t\t\t\n      GT \t\t\t\n      SWAP1 \t\t\t\n      JUMP \t\t\t\n    tag 568\t\t\t\n      JUMPDEST \t\t\t\n      SWAP1 \t\t\t\n      SUB \t\t\t\n      SWAP4 \t\t\t\n      SWAP3 \t\t\t\n      POP \t\t\t\n      POP \t\t\t\n      POP \t\t\t\n      JUMP \t\t\t\n    tag 401\t\t\t\n      JUMPDEST \t\t\t\n      PUSH 0\t\t\t\n    tag 574\t\t\t\n      JUMPDEST \t\t\t\n      DUP2 \t\t\t\n      DUP4 \t\t\t\n      LT \t\t\t\n      ISZERO \t\t\t\n      PUSH [tag] 575\t\t\t\n      JUMPI \t\t\t\n      PUSH 0\t\t\t\n      PUSH [tag] 576\t\t\t\n      DUP5 \t\t\t\n      DUP5 \t\t\t\n      PUSH [tag] 577\t\t\t\n      JUMP \t\t\t\n    tag 576\t\t\t\n      JUMPDEST \t\t\t\n      PUSH 0\t\t\t\n      DUP8 \t\t\t\n      DUP2 \t\t\t\n      MSTORE \t\t\t\n      PUSH 20\t\t\t\n      SWAP1 \t\t\t\n      KECCAK256 \t\t\t\n      SWAP1 \t\t\t\n      SWAP2 \t\t\t\n      POP \t\t\t\n      PUSH FFFFFFFFFFFF\t\t\t\n      DUP7 \t\t\t\n      AND \t\t\t\n      SWAP1 \t\t\t\n      DUP3 \t\t\t\n      ADD \t\t\t\n      SLOAD \t\t\t\n      PUSH FFFFFFFFFFFF\t\t\t\n      AND \t\t\t\n      GT \t\t\t\n      ISZERO \t\t\t\n      PUSH [tag] 579\t\t\t\n      JUMPI \t\t\t\n      DUP1 \t\t\t\n      SWAP3 \t\t\t\n      POP \t\t\t\n      PUSH [tag] 580\t\t\t\n      JUMP \t\t\t\n    tag 579\t\t\t\n      JUMPDEST \t\t\t\n      PUSH [tag] 581\t\t\t\n      DUP2 \t\t\t\n      PUSH 1\t\t\t\n      PUSH [tag] 399\t\t\t\n      JUMP \t\t\t\n    tag 581\t\t\t\n      JUMPDEST \t\t\t\n      SWAP4 \t\t\t\n      POP \t\t\t\n    tag 580\t\t\t\n      JUMPDEST \t\t\t\n      POP \t\t\t\n      PUSH [tag] 574\t\t\t\n      JUMP \t\t\t\n    tag 575\t\t\t\n      JUMPDEST \t\t\t\n      POP \t\t\t\n      SWAP4 \t\t\t\n      SWAP3 \t\t\t\n      POP \t\t\t\n      POP \t\t\t\n      POP \t\t\t\n      JUMP \t\t\t\n    tag 409\t\t\t\n      JUMPDEST \t\t\t\n      PUSH F0C57E16840DF040F15088DC2F81FE391C3923BEC73E23A9662EFC9C229C6A00\t\t\t\n      SLOAD \t\t\t\n      PUSH 1\t\t\t\n      PUSH 40\t\t\t\n      SHL \t\t\t\n      SWAP1 \t\t\t\n      DIV \t\t\t\n      PUSH FF\t\t\t\n      AND \t\t\t\n      PUSH [tag] 278\t\t\t\n      JUMPI \t\t\t\n      PUSH 40\t\t\t\n      MLOAD \t\t\t\n      PUSH 1AFCD79F\t\t\t\n      PUSH E3\t\t\t\n      SHL \t\t\t\n      DUP2 \t\t\t\n      MSTORE \t\t\t\n      PUSH 4\t\t\t\n      ADD \t\t\t\n      PUSH 40\t\t\t\n      MLOAD \t\t\t\n      DUP1 \t\t\t\n      SWAP2 \t\t\t\n      SUB \t\t\t\n      SWAP1 \t\t\t\n      REVERT \t\t\t\n    tag 412\t\t\t\n      JUMPDEST \t\t\t\n      PUSH [tag] 587\t\t\t\n      PUSH [tag] 409\t\t\t\n      JUMP \t\t\t\n    tag 587\t\t\t\n      JUMPDEST \t\t\t\n      PUSH 0\t\t\t\n      DUP1 \t\t\t\n      MLOAD \t\t\t\n      PUSH 20\t\t\t\n      PUSH data 3874827173E8DF9F34323B12B251D1D3C53926CE129E30A0D69F1D47C277041B\t\t\t\n      DUP4 \t\t\t\n      CODECOPY \t\t\t\n      DUP2 \t\t\t\n      MLOAD \t\t\t\n      SWAP2 \t\t\t\n      MSTORE \t\t\t\n      PUSH 52C63247E1F47DB19D5CE0460030C497F067CA4CEBF71BA98EEADABE20BACE03\t\t\t\n      PUSH [tag] 590\t\t\t\n      DUP5 \t\t\t\n      DUP3 \t\t\t\n      PUSH [tag] 591\t\t\t\n      JUMP \t\t\t\n    tag 590\t\t\t\n      JUMPDEST \t\t\t\n      POP \t\t\t\n      PUSH 4\t\t\t\n      DUP2 \t\t\t\n      ADD \t\t\t\n      PUSH [tag] 369\t\t\t\n      DUP4 \t\t\t\n      DUP3 \t\t\t\n      PUSH [tag] 591\t\t\t\n      JUMP \t\t\t\n    tag 417\t\t\t\n      JUMPDEST \t\t\t\n      PUSH [tag] 594\t\t\t\n      PUSH [tag] 409\t\t\t\n      JUMP \t\t\t\n    tag 594\t\t\t\n      JUMPDEST \t\t\t\n      PUSH 0\t\t\t\n      DUP1 \t\t\t\n      MLOAD \t\t\t\n      PUSH 20\t\t\t\n      PUSH data 60016240B4CAF95CE61FF2092E1488B3D1AFF76BEE1C89F54239447D6827D736\t\t\t\n      DUP4 \t\t\t\n      CODECOPY \t\t\t\n      DUP2 \t\t\t\n      MLOAD \t\t\t\n      SWAP2 \t\t\t\n      MSTORE \t\t\t\n      PUSH A16A46D94261C7517CC8FF89F61C0CE93598E3C849801011DEE649A6A557D102\t\t\t\n      PUSH [tag] 597\t\t\t\n      DUP5 \t\t\t\n      DUP3 \t\t\t\n      PUSH [tag] 591\t\t\t\n      JUMP \t\t\t\n    tag 597\t\t\t\n      JUMPDEST \t\t\t\n      POP \t\t\t\n      PUSH 3\t\t\t\n      DUP2 \t\t\t\n      ADD \t\t\t\n      PUSH [tag] 598\t\t\t\n      DUP4 \t\t\t\n      DUP3 \t\t\t\n      PUSH [tag] 591\t\t\t\n      JUMP \t\t\t\n    tag 598\t\t\t\n      JUMPDEST \t\t\t\n      POP \t\t\t\n      PUSH 0\t\t\t\n      DUP1 \t\t\t\n      DUP3 \t\t\t\n      SSTORE \t\t\t\n      PUSH 1\t\t\t\n      SWAP1 \t\t\t\n      SWAP2 \t\t\t\n      ADD \t\t\t\n      SSTORE \t\t\t\n      POP \t\t\t\n      POP \t\t\t\n      JUMP \t\t\t\n    tag 425\t\t\tunctions are overrides require...\n      JUMPDEST \t\t\tunctions are overrides require...\n      PUSH [tag] 353\t\t\t\n      PUSH [tag] 409\t\t\t\n      JUMP \t\t\t\n    tag 454\t\t\tc\\n        view\\n        overr...\n      JUMPDEST \t\t\tc\\n        view\\n        overr...\n      PUSH [tag] 609\t\t\t(uint256)\\n    {\\n        retu...\n      DUP3 \t\t\t     return super\n      PUSH [tag] 610\t\t\t(uint256)\\n    {\\n  \n      JUMP \t\t\t(uint256)\\n    {\\n        retu...\n    tag 609\t\t\t(uint256)\\n    {\\n        retu...\n      JUMPDEST \t\t\t(uint256)\\n    {\\n        retu...\n      PUSH 40\t\t\t    }\\n}\\n\n      MLOAD \t\t\t    }\\n}\\n\n      PUSH 1\t\t\t\n      PUSH 1\t\t\t\n      PUSH A0\t\t\t\n      SHL \t\t\t\n      SUB \t\t\t\n      DUP4 \t\t\t    }\\n}\\n\n      AND \t\t\t    }\\n}\\n\n      SWAP1 \t\t\t    }\\n}\\n\n      PUSH BC7CD75A20EE27FD9ADEBAB32041F755214DBC6BFFA90CC0225B39DA2E5C2D3B\t\t\t    }\\n}\\n\n      SWAP1 \t\t\t    }\\n}\\n\n      PUSH 0\t\t\t    }\\n}\\n\n      SWAP1 \t\t\t    }\\n}\\n\n      LOG2 \t\t\t    }\\n}\\n\n      DUP1 \t\t\t\n      MLOAD \t\t\t\n      ISZERO \t\t\t\n      PUSH [tag] 611\t\t\t\n      JUMPI \t\t\t\n      PUSH [tag] 361\t\t\t\n      DUP3 \t\t\t\n      DUP3 \t\t\t\n      PUSH [tag] 613\t\t\t\n      JUMP \t\t\t\n    tag 611\t\t\t\n      JUMPDEST \t\t\t\n      PUSH [tag] 257\t\t\t\n      PUSH [tag] 616\t\t\t\n      JUMP \t\t\t\n    tag 462\t\t\t\n      JUMPDEST \t\t\t\n      PUSH 0\t\t\t\n      PUSH [tag] 197\t\t\t\n      DUP3 \t\t\t\n      PUSH [tag] 114\t\t\t\n      JUMP \t\t\t\n    tag 463\t\t\t\n      JUMPDEST \t\t\t\n      PUSH 0\t\t\t\n      DUP1 \t\t\t\n      MLOAD \t\t\t\n      PUSH 20\t\t\t\n      PUSH data 23484935BDF196CA31423939A31C04B740AF4DE11AC0940ED78D38B36817EC46\t\t\t\n      DUP4 \t\t\t\n      CODECOPY \t\t\t\n      DUP2 \t\t\t\n      MLOAD \t\t\t\n      SWAP2 \t\t\t\n      MSTORE \t\t\t\n      PUSH 1\t\t\t\n      PUSH 1\t\t\t\n      PUSH A0\t\t\t\n      SHL \t\t\t\n      SUB \t\t\t\n      DUP5 \t\t\t\n      DUP2 \t\t\t\n      AND \t\t\t\n      SWAP1 \t\t\t\n      DUP5 \t\t\t\n      AND \t\t\t\n      EQ \t\t\t\n      DUP1 \t\t\t\n      ISZERO \t\t\t\n      SWAP1 \t\t\t\n      PUSH [tag] 621\t\t\t\n      JUMPI \t\t\t\n      POP \t\t\t\n      PUSH 0\t\t\t\n      DUP3 \t\t\t\n      GT \t\t\t\n    tag 621\t\t\t\n      JUMPDEST \t\t\t\n      ISZERO \t\t\t\n      PUSH [tag] 369\t\t\t\n      JUMPI \t\t\t\n      PUSH 1\t\t\t\n      PUSH 1\t\t\t\n      PUSH A0\t\t\t\n      SHL \t\t\t\n      SUB \t\t\t\n      DUP5 \t\t\t\n      AND \t\t\t\n      ISZERO \t\t\t\n      PUSH [tag] 623\t\t\t\n      JUMPI \t\t\t\n      PUSH 1\t\t\t\n      PUSH 1\t\t\t\n      PUSH A0\t\t\t\n      SHL \t\t\t\n      SUB \t\t\t\n      DUP5 \t\t\t\n      AND \t\t\t\n      PUSH 0\t\t\t\n      SWAP1 \t\t\t\n      DUP2 \t\t\t\n      MSTORE \t\t\t\n      PUSH 1\t\t\t\n      DUP3 \t\t\t\n      ADD \t\t\t\n      PUSH 20\t\t\t\n      MSTORE \t\t\t\n      PUSH 40\t\t\t\n      DUP2 \t\t\t\n      KECCAK256 \t\t\t\n      DUP2 \t\t\t\n      SWAP1 \t\t\t\n      PUSH [tag] 624\t\t\t\n      SWAP1 \t\t\t\n      PUSH [tag] 625\t\t\t\n      PUSH [tag] 626\t\t\t\n      DUP8 \t\t\t\n      PUSH [tag] 627\t\t\t\n      JUMP \t\t\t\n    tag 626\t\t\t\n      JUMPDEST \t\t\t\n      PUSH [tag] 628\t\t\t\n      JUMP \t\t\t\n    tag 624\t\t\t\n      JUMPDEST \t\t\t\n      PUSH 1\t\t\t\n      PUSH 1\t\t\t\n      PUSH D0\t\t\t\n      SHL \t\t\t\n      SUB \t\t\t\n      AND \t\t\t\n      SWAP2 \t\t\t\n      POP \t\t\t\n      PUSH 1\t\t\t\n      PUSH 1\t\t\t\n      PUSH D0\t\t\t\n      SHL \t\t\t\n      SUB \t\t\t\n      AND \t\t\t\n      SWAP2 \t\t\t\n      POP \t\t\t\n      DUP6 \t\t\t\n      PUSH 1\t\t\t\n      PUSH 1\t\t\t\n      PUSH A0\t\t\t\n      SHL \t\t\t\n      SUB \t\t\t\n      AND \t\t\t\n      PUSH DEC2BACDD2F05B59DE34DA9B523DFF8BE42E5E38E818C82FDB0BAE774387A724\t\t\t\n      DUP4 \t\t\t\n      DUP4 \t\t\t\n      PUSH 40\t\t\t\n      MLOAD \t\t\t\n      PUSH [tag] 629\t\t\t\n      SWAP3 \t\t\t\n      SWAP2 \t\t\t\n      SWAP1 \t\t\t\n      SWAP2 \t\t\t\n      DUP3 \t\t\t\n      MSTORE \t\t\t\n      PUSH 20\t\t\t\n      DUP3 \t\t\t\n      ADD \t\t\t\n      MSTORE \t\t\t\n      PUSH 40\t\t\t\n      ADD \t\t\t\n      SWAP1 \t\t\t\n      JUMP \t\t\t\n    tag 629\t\t\t\n      JUMPDEST \t\t\t\n      PUSH 40\t\t\t\n      MLOAD \t\t\t\n      DUP1 \t\t\t\n      SWAP2 \t\t\t\n      SUB \t\t\t\n      SWAP1 \t\t\t\n      LOG2 \t\t\t\n      POP \t\t\t\n      POP \t\t\t\n    tag 623\t\t\t\n      JUMPDEST \t\t\t\n      PUSH 1\t\t\t\n      PUSH 1\t\t\t\n      PUSH A0\t\t\t\n      SHL \t\t\t\n      SUB \t\t\t\n      DUP4 \t\t\t\n      AND \t\t\t\n      ISZERO \t\t\t\n      PUSH [tag] 369\t\t\t\n      JUMPI \t\t\t\n      PUSH 1\t\t\t\n      PUSH 1\t\t\t\n      PUSH A0\t\t\t\n      SHL \t\t\t\n      SUB \t\t\t\n      DUP4 \t\t\t\n      AND \t\t\t\n      PUSH 0\t\t\t\n      SWAP1 \t\t\t\n      DUP2 \t\t\t\n      MSTORE \t\t\t\n      PUSH 1\t\t\t\n      DUP3 \t\t\t\n      ADD \t\t\t\n      PUSH 20\t\t\t\n      MSTORE \t\t\t\n      PUSH 40\t\t\t\n      DUP2 \t\t\t\n      KECCAK256 \t\t\t\n      DUP2 \t\t\t\n      SWAP1 \t\t\t\n      PUSH [tag] 632\t\t\t\n      SWAP1 \t\t\t\n      PUSH [tag] 633\t\t\t\n      PUSH [tag] 626\t\t\t\n      DUP8 \t\t\t\n      PUSH [tag] 627\t\t\t\n      JUMP \t\t\t\n    tag 632\t\t\t\n      JUMPDEST \t\t\t\n      PUSH 1\t\t\t\n      PUSH 1\t\t\t\n      PUSH D0\t\t\t\n      SHL \t\t\t\n      SUB \t\t\t\n      AND \t\t\t\n      SWAP2 \t\t\t\n      POP \t\t\t\n      PUSH 1\t\t\t\n      PUSH 1\t\t\t\n      PUSH D0\t\t\t\n      SHL \t\t\t\n      SUB \t\t\t\n      AND \t\t\t\n      SWAP2 \t\t\t\n      POP \t\t\t\n      DUP5 \t\t\t\n      PUSH 1\t\t\t\n      PUSH 1\t\t\t\n      PUSH A0\t\t\t\n      SHL \t\t\t\n      SUB \t\t\t\n      AND \t\t\t\n      PUSH DEC2BACDD2F05B59DE34DA9B523DFF8BE42E5E38E818C82FDB0BAE774387A724\t\t\t\n      DUP4 \t\t\t\n      DUP4 \t\t\t\n      PUSH 40\t\t\t\n      MLOAD \t\t\t\n      PUSH [tag] 635\t\t\t\n      SWAP3 \t\t\t\n      SWAP2 \t\t\t\n      SWAP1 \t\t\t\n      SWAP2 \t\t\t\n      DUP3 \t\t\t\n      MSTORE \t\t\t\n      PUSH 20\t\t\t\n      DUP3 \t\t\t\n      ADD \t\t\t\n      MSTORE \t\t\t\n      PUSH 40\t\t\t\n      ADD \t\t\t\n      SWAP1 \t\t\t\n      JUMP \t\t\t\n    tag 635\t\t\t\n      JUMPDEST \t\t\t\n      PUSH 40\t\t\t\n      MLOAD \t\t\t\n      DUP1 \t\t\t\n      SWAP2 \t\t\t\n      SUB \t\t\t\n      SWAP1 \t\t\t\n      LOG2 \t\t\t\n      POP \t\t\t\n      POP \t\t\t\n      POP \t\t\t\n      POP \t\t\t\n      POP \t\t\t\n      POP \t\t\t\n      JUMP \t\t\t\n    tag 469\t\t\t\n      JUMPDEST \t\t\t\n      PUSH 0\t\t\t\n      PUSH FFFFFFFF\t\t\t\n      DUP3 \t\t\t\n      GT \t\t\t\n      ISZERO \t\t\t\n      PUSH [tag] 543\t\t\t\n      JUMPI \t\t\t\n      PUSH 40\t\t\t\n      MLOAD \t\t\t\n      PUSH 6DFCC65\t\t\t\n      PUSH E4\t\t\t\n      SHL \t\t\t\n      DUP2 \t\t\t\n      MSTORE \t\t\t\n      PUSH 20\t\t\t\n      PUSH 4\t\t\t\n      DUP3 \t\t\t\n      ADD \t\t\t\n      MSTORE \t\t\t\n      PUSH 24\t\t\t\n      DUP2 \t\t\t\n      ADD \t\t\t\n      DUP4 \t\t\t\n      SWAP1 \t\t\t\n      MSTORE \t\t\t\n      PUSH 44\t\t\t\n      ADD \t\t\t\n      PUSH [tag] 288\t\t\t\n      JUMP \t\t\t\n    tag 480\t\t\ts initialOwner)\\n        publi...\n      JUMPDEST \t\t\ts initialOwner)\\n        publi...\n      PUSH 0\t\t\tRC20_in\n      DUP1 \t\t\tRC20_in\n      PUSH 5AB42CED628888259C08AC98DB1EB0CF702FC1501344311D8B100CD1BFE4BB00\t\t\tdeable, ERC20PermitUp\n      PUSH [tag] 273\t\t\t_ERC20Permit_init(\"\n      JUMP \t\t\tradeable.sol\";\\n\\n/// @custom:...\n    tag 508\t\t\t\n      JUMPDEST \t\t\t\n      PUSH 0\t\t\t\n      DUP1 \t\t\t\n      DUP1 \t\t\t\n      PUSH 7FFFFFFFFFFFFFFFFFFFFFFFFFFFFFFF5D576E7357A4501DDFE92F46681B20A0\t\t\t\n      DUP5 \t\t\t\n      GT \t\t\t\n      ISZERO \t\t\t\n      PUSH [tag] 645\t\t\t\n      JUMPI \t\t\t\n      POP \t\t\t\n      PUSH 0\t\t\t\n      SWAP2 \t\t\t\n      POP \t\t\t\n      PUSH 3\t\t\t\n      SWAP1 \t\t\t\n      POP \t\t\t\n      DUP3 \t\t\t\n      PUSH [tag] 644\t\t\t\n      JUMP \t\t\t\n    tag 645\t\t\t\n      JUMPDEST \t\t\t\n      PUSH 40\t\t\t\n      DUP1 \t\t\t\n      MLOAD \t\t\t\n      PUSH 0\t\t\t\n      DUP1 \t\t\t\n      DUP3 \t\t\t\n      MSTORE \t\t\t\n      PUSH 20\t\t\t\n      DUP3 \t\t\t\n      ADD \t\t\t\n      DUP1 \t\t\t\n      DUP5 \t\t\t\n      MSTORE \t\t\t\n      DUP11 \t\t\t\n      SWAP1 \t\t\t\n      MSTORE \t\t\t\n      PUSH FF\t\t\t\n      DUP10 \t\t\t\n      AND \t\t\t\n      SWAP3 \t\t\t\n      DUP3 \t\t\t\n      ADD \t\t\t\n      SWAP3 \t\t\t\n      SWAP1 \t\t\t\n      SWAP3 \t\t\t\n      MSTORE \t\t\t\n      PUSH 60\t\t\t\n      DUP2 \t\t\t\n      ADD \t\t\t\n      DUP8 \t\t\t\n      SWAP1 \t\t\t\n      MSTORE \t\t\t\n      PUSH 80\t\t\t\n      DUP2 \t\t\t\n      ADD \t\t\t\n      DUP7 \t\t\t\n      SWAP1 \t\t\t\n      MSTORE \t\t\t\n      PUSH 1\t\t\t\n      SWAP1 \t\t\t\n      PUSH A0\t\t\t\n      ADD \t\t\t\n      PUSH 20\t\t\t\n      PUSH 40\t\t\t\n      MLOAD \t\t\t\n      PUSH 20\t\t\t\n      DUP2 \t\t\t\n      SUB \t\t\t\n      SWAP1 \t\t\t\n      DUP1 \t\t\t\n      DUP5 \t\t\t\n      SUB \t\t\t\n      SWAP1 \t\t\t\n      DUP6 \t\t\t\n      GAS \t\t\t\n      STATICCALL \t\t\t\n      ISZERO \t\t\t\n      DUP1 \t\t\t\n      ISZERO \t\t\t\n      PUSH [tag] 649\t\t\t\n      JUMPI \t\t\t\n      RETURNDATASIZE \t\t\t\n      PUSH 0\t\t\t\n      DUP1 \t\t\t\n      RETURNDATACOPY \t\t\t\n      RETURNDATASIZE \t\t\t\n      PUSH 0\t\t\t\n      REVERT \t\t\t\n    tag 649\t\t\t\n      JUMPDEST \t\t\t\n      POP \t\t\t\n      POP \t\t\t\n      PUSH 40\t\t\t\n      MLOAD \t\t\t\n      PUSH 1F\t\t\t\n      NOT \t\t\t\n      ADD \t\t\t\n      MLOAD \t\t\t\n      SWAP2 \t\t\t\n      POP \t\t\t\n      POP \t\t\t\n      PUSH 1\t\t\t\n      PUSH 1\t\t\t\n      PUSH A0\t\t\t\n      SHL \t\t\t\n      SUB \t\t\t\n      DUP2 \t\t\t\n      AND \t\t\t\n      PUSH [tag] 650\t\t\t\n      JUMPI \t\t\t\n      POP \t\t\t\n      PUSH 0\t\t\t\n      SWAP3 \t\t\t\n      POP \t\t\t\n      PUSH 1\t\t\t\n      SWAP2 \t\t\t\n      POP \t\t\t\n      DUP3 \t\t\t\n      SWAP1 \t\t\t\n      POP \t\t\t\n      PUSH [tag] 644\t\t\t\n      JUMP \t\t\t\n    tag 650\t\t\t\n      JUMPDEST \t\t\t\n      SWAP3 \t\t\t\n      POP \t\t\t\n      PUSH 0\t\t\t\n      SWAP2 \t\t\t\n      POP \t\t\t\n      DUP2 \t\t\t\n      SWAP1 \t\t\t\n      POP \t\t\t\n    tag 644\t\t\t\n      JUMPDEST \t\t\t\n      SWAP5 \t\t\t\n      POP \t\t\t\n      SWAP5 \t\t\t\n      POP \t\t\t\n      SWAP5 \t\t\t\n      SWAP2 \t\t\t\n      POP \t\t\t\n      POP \t\t\t\n      JUMP \t\t\t\n    tag 510\t\t\t\n      JUMPDEST \t\t\t\n      PUSH 0\t\t\t\n      DUP3 \t\t\t\n      PUSH 3\t\t\t\n      DUP2 \t\t\t\n      GT \t\t\t\n      ISZERO \t\t\t\n      PUSH [tag] 656\t\t\t\n      JUMPI \t\t\t\n      PUSH [tag] 656\t\t\t\n      PUSH [tag] 654\t\t\t\n      JUMP \t\t\t\n    tag 656\t\t\t\n      JUMPDEST \t\t\t\n      SUB \t\t\t\n      PUSH [tag] 657\t\t\t\n      JUMPI \t\t\t\n      POP \t\t\t\n      POP \t\t\t\n      JUMP \t\t\t\n    tag 657\t\t\t\n      JUMPDEST \t\t\t\n      PUSH 1\t\t\t\n      DUP3 \t\t\t\n      PUSH 3\t\t\t\n      DUP2 \t\t\t\n      GT \t\t\t\n      ISZERO \t\t\t\n      PUSH [tag] 662\t\t\t\n      JUMPI \t\t\t\n      PUSH [tag] 662\t\t\t\n      PUSH [tag] 654\t\t\t\n      JUMP \t\t\t\n    tag 662\t\t\t\n      JUMPDEST \t\t\t\n      SUB \t\t\t\n      PUSH [tag] 663\t\t\t\n      JUMPI \t\t\t\n      PUSH 40\t\t\t\n      MLOAD \t\t\t\n      PUSH F645EEDF\t\t\t\n      PUSH E0\t\t\t\n      SHL \t\t\t\n      DUP2 \t\t\t\n      MSTORE \t\t\t\n      PUSH 4\t\t\t\n      ADD \t\t\t\n      PUSH 40\t\t\t\n      MLOAD \t\t\t\n      DUP1 \t\t\t\n      SWAP2 \t\t\t\n      SUB \t\t\t\n      SWAP1 \t\t\t\n      REVERT \t\t\t\n    tag 663\t\t\t\n      JUMPDEST \t\t\t\n      PUSH 2\t\t\t\n      DUP3 \t\t\t\n      PUSH 3\t\t\t\n      DUP2 \t\t\t\n      GT \t\t\t\n      ISZERO \t\t\t\n      PUSH [tag] 668\t\t\t\n      JUMPI \t\t\t\n      PUSH [tag] 668\t\t\t\n      PUSH [tag] 654\t\t\t\n      JUMP \t\t\t\n    tag 668\t\t\t\n      JUMPDEST \t\t\t\n      SUB \t\t\t\n      PUSH [tag] 669\t\t\t\n      JUMPI \t\t\t\n      PUSH 40\t\t\t\n      MLOAD \t\t\t\n      PUSH FCE698F7\t\t\t\n      PUSH E0\t\t\t\n      SHL \t\t\t\n      DUP2 \t\t\t\n      MSTORE \t\t\t\n      PUSH 4\t\t\t\n      DUP2 \t\t\t\n      ADD \t\t\t\n      DUP3 \t\t\t decimals());\\n    }\\n\\n    \n      SWAP1 \t\t\t decimals());\\n    }\\n\\n    \n      MSTORE \t\t\t decimals());\\n    }\\n\\n    \n      PUSH 24\t\t\tecipient, 38165472\n      ADD \t\t\tecipient, 38165472\n      PUSH [tag] 288\t\t\t\n      JUMP \t\t\t;\\n        __ERC20Votes_init()...\n    tag 669\t\t\t\n      JUMPDEST \t\t\t\n      PUSH 3\t\t\t\n      DUP3 \t\t\t\n      PUSH 3\t\t\t\n      DUP2 \t\t\t\n      GT \t\t\t\n      ISZERO \t\t\t\n      PUSH [tag] 675\t\t\t\n      JUMPI \t\t\t\n      PUSH [tag] 675\t\t\t\n      PUSH [tag] 654\t\t\t\n      JUMP \t\t\t\n    tag 675\t\t\t\n      JUMPDEST \t\t\t\n      SUB \t\t\t\n      PUSH [tag] 257\t\t\t\n      JUMPI \t\t\t\n      PUSH 40\t\t\t\n      MLOAD \t\t\t\n      PUSH 35E2F383\t\t\t\n      PUSH E2\t\t\t\n      SHL \t\t\t\n      DUP2 \t\t\t\n      MSTORE \t\t\t\n      PUSH 4\t\t\t\n      DUP2 \t\t\t\n      ADD \t\t\t\n      DUP3 \t\t\t decimals());\\n    }\\n\\n    \n      SWAP1 \t\t\t decimals());\\n    }\\n\\n    \n      MSTORE \t\t\t decimals());\\n    }\\n\\n    \n      PUSH 24\t\t\tecipient, 38165472\n      ADD \t\t\tecipient, 38165472\n      PUSH [tag] 288\t\t\t\n      JUMP \t\t\t;\\n        __ERC20Votes_init()...\n    tag 523\t\t\t\n      JUMPDEST \t\t\t\n      PUSH 40\t\t\t\n      DUP1 \t\t\t\n      MLOAD \t\t\t\n      DUP1 \t\t\t\n      DUP3 \t\t\t\n      ADD \t\t\t\n      SWAP1 \t\t\t\n      SWAP2 \t\t\t\n      MSTORE \t\t\t\n      PUSH 0\t\t\t\n      DUP1 \t\t\t\n      DUP3 \t\t\t\n      MSTORE \t\t\t\n      PUSH 20\t\t\t\n      DUP3 \t\t\t\n      ADD \t\t\t\n      MSTORE \t\t\t\n      DUP3 \t\t\t\n      PUSH 0\t\t\t\n      ADD \t\t\t\n      DUP3 \t\t\t\n      PUSH FFFFFFFF\t\t\t\n      AND \t\t\t\n      DUP2 \t\t\t\n      SLOAD \t\t\t\n      DUP2 \t\t\t\n      LT \t\t\t\n      PUSH [tag] 682\t\t\t\n      JUMPI \t\t\t\n      PUSH [tag] 682\t\t\t\n      PUSH [tag] 683\t\t\t\n      JUMP \t\t\t\n    tag 682\t\t\t\n      JUMPDEST \t\t\t\n      PUSH 0\t\t\t\n      SWAP2 \t\t\t\n      DUP3 \t\t\t\n      MSTORE \t\t\t\n      PUSH 20\t\t\t\n      SWAP2 \t\t\t\n      DUP3 \t\t\t\n      SWAP1 \t\t\t\n      KECCAK256 \t\t\t\n      PUSH 40\t\t\t\n      DUP1 \t\t\t\n      MLOAD \t\t\t\n      DUP1 \t\t\t\n      DUP3 \t\t\t\n      ADD \t\t\t\n      SWAP1 \t\t\t\n      SWAP2 \t\t\t\n      MSTORE \t\t\t\n      SWAP2 \t\t\t\n      ADD \t\t\t\n      SLOAD \t\t\t\n      PUSH FFFFFFFFFFFF\t\t\t\n      DUP2 \t\t\t\n      AND \t\t\t\n      DUP3 \t\t\t\n      MSTORE \t\t\t\n      PUSH 1\t\t\t\n      PUSH 30\t\t\t\n      SHL \t\t\t\n      SWAP1 \t\t\t\n      DIV \t\t\t\n      PUSH 1\t\t\t\n      PUSH 1\t\t\t\n      PUSH D0\t\t\t\n      SHL \t\t\t\n      SUB \t\t\t\n      AND \t\t\t\n      SWAP2 \t\t\t\n      DUP2 \t\t\t\n      ADD \t\t\t\n      SWAP2 \t\t\t\n      SWAP1 \t\t\t\n      SWAP2 \t\t\t\n      MSTORE \t\t\t\n      SWAP4 \t\t\t\n      SWAP3 \t\t\t\n      POP \t\t\t\n      POP \t\t\t\n      POP \t\t\t\n      JUMP \t\t\t\n    tag 534\t\t\t\n      JUMPDEST \t\t\t\n      PUSH [tag] 686\t\t\t\n      DUP4 \t\t\t\n      DUP4 \t\t\t\n      DUP4 \t\t\t\n      PUSH [tag] 687\t\t\t\n      JUMP \t\t\t\n    tag 686\t\t\t\n      JUMPDEST \t\t\t\n      PUSH 1\t\t\t\n      PUSH 1\t\t\t\n      PUSH A0\t\t\t\n      SHL \t\t\t\n      SUB \t\t\t\n      DUP4 \t\t\t\n      AND \t\t\t\n      PUSH [tag] 688\t\t\t\n      JUMPI \t\t\t\n      PUSH 0\t\t\t\n      PUSH [tag] 689\t\t\t\n      PUSH 52C63247E1F47DB19D5CE0460030C497F067CA4CEBF71BA98EEADABE20BACE02\t\t\t\n      SLOAD \t\t\t\n      SWAP1 \t\t\t\n      JUMP \t\t\t\n    tag 689\t\t\t\n      JUMPDEST \t\t\t\n      SWAP1 \t\t\t\n      POP \t\t\t\n      PUSH 1\t\t\t\n      PUSH 1\t\t\t\n      PUSH D0\t\t\t\n      SHL \t\t\t\n      SUB \t\t\t\n      DUP1 \t\t\t\n      DUP3 \t\t\t\n      GT \t\t\t\n      ISZERO \t\t\t\n      PUSH [tag] 692\t\t\t\n      JUMPI \t\t\t\n      PUSH 40\t\t\t\n      MLOAD \t\t\t\n      PUSH E58AE93\t\t\t\n      PUSH E1\t\t\t\n      SHL \t\t\t\n      DUP2 \t\t\t\n      MSTORE \t\t\t\n      PUSH 4\t\t\t\n      DUP2 \t\t\t\n      ADD \t\t\t\n      DUP4 \t\t\t\n      SWAP1 \t\t\t\n      MSTORE \t\t\t\n      PUSH 24\t\t\t\n      DUP2 \t\t\t\n      ADD \t\t\t\n      DUP3 \t\t\t\n      SWAP1 \t\t\t\n      MSTORE \t\t\t\n      PUSH 44\t\t\t\n      ADD \t\t\t\n      PUSH [tag] 288\t\t\t\n      JUMP \t\t\t\n    tag 692\t\t\t\n      JUMPDEST \t\t\t\n      POP \t\t\t\n      POP \t\t\t\n    tag 688\t\t\t\n      JUMPDEST \t\t\t\n      PUSH [tag] 361\t\t\t\n      DUP4 \t\t\t\n      DUP4 \t\t\t\n      DUP4 \t\t\t\n      PUSH [tag] 695\t\t\t\n      JUMP \t\t\t\n    tag 537\t\t\t\n      JUMPDEST \t\t\t\n      PUSH 0\t\t\t\n      PUSH 0\t\t\t\n      DUP1 \t\t\t\n      MLOAD \t\t\t\n      PUSH 20\t\t\t\n      PUSH data 60016240B4CAF95CE61FF2092E1488B3D1AFF76BEE1C89F54239447D6827D736\t\t\t\n      DUP4 \t\t\t\n      CODECOPY \t\t\t\n      DUP2 \t\t\t\n      MLOAD \t\t\t\n      SWAP2 \t\t\t\n      MSTORE \t\t\t\n      DUP2 \t\t\t\n      PUSH [tag] 698\t\t\t\n      PUSH [tag] 291\t\t\t\n      JUMP \t\t\t\n    tag 698\t\t\t\n      JUMPDEST \t\t\t\n      DUP1 \t\t\t\n      MLOAD \t\t\t\n      SWAP1 \t\t\t\n      SWAP2 \t\t\t\n      POP \t\t\t\n      ISZERO \t\t\t\n      PUSH [tag] 699\t\t\t\n      JUMPI \t\t\t\n      DUP1 \t\t\t\n      MLOAD \t\t\t\n      PUSH 20\t\t\t\n      SWAP1 \t\t\t\n      SWAP2 \t\t\t\n      ADD \t\t\t\n      KECCAK256 \t\t\t\n      SWAP3 \t\t\t\n      SWAP2 \t\t\t\n      POP \t\t\t\n      POP \t\t\t\n      JUMP \t\t\t\n    tag 699\t\t\t\n      JUMPDEST \t\t\t\n      DUP2 \t\t\t\n      SLOAD \t\t\t\n      DUP1 \t\t\t\n      ISZERO \t\t\t\n      PUSH [tag] 701\t\t\t\n      JUMPI \t\t\t\n      SWAP4 \t\t\t\n      SWAP3 \t\t\t\n      POP \t\t\t\n      POP \t\t\t\n      POP \t\t\t\n      JUMP \t\t\t\n    tag 701\t\t\t\n      JUMPDEST \t\t\t\n      PUSH C5D2460186F7233C927E7DB2DCC703C0E500B653CA82273B7BFAD8045D85A470\t\t\t\n      SWAP4 \t\t\t\n      POP \t\t\t\n      POP \t\t\t\n      POP \t\t\t\n      POP \t\t\t\n      SWAP1 \t\t\t\n      JUMP \t\t\t\n    tag 539\t\t\t\n      JUMPDEST \t\t\t\n      PUSH 0\t\t\t\n      PUSH 0\t\t\t\n      DUP1 \t\t\t\n      MLOAD \t\t\t\n      PUSH 20\t\t\t\n      PUSH data 60016240B4CAF95CE61FF2092E1488B3D1AFF76BEE1C89F54239447D6827D736\t\t\t\n      DUP4 \t\t\t\n      CODECOPY \t\t\t\n      DUP2 \t\t\t\n      MLOAD \t\t\t\n      SWAP2 \t\t\t\n      MSTORE \t\t\t\n      DUP2 \t\t\t\n      PUSH [tag] 705\t\t\t\n      PUSH [tag] 293\t\t\t\n      JUMP \t\t\t\n    tag 705\t\t\t\n      JUMPDEST \t\t\t\n      DUP1 \t\t\t\n      MLOAD \t\t\t\n      SWAP1 \t\t\t\n      SWAP2 \t\t\t\n      POP \t\t\t\n      ISZERO \t\t\t\n      PUSH [tag] 706\t\t\t\n      JUMPI \t\t\t\n      DUP1 \t\t\t\n      MLOAD \t\t\t\n      PUSH 20\t\t\t\n      SWAP1 \t\t\t\n      SWAP2 \t\t\t\n      ADD \t\t\t\n      KECCAK256 \t\t\t\n      SWAP3 \t\t\t\n      SWAP2 \t\t\t\n      POP \t\t\t\n      POP \t\t\t\n      JUMP \t\t\t\n    tag 706\t\t\t\n      JUMPDEST \t\t\t\n      PUSH 1\t\t\t\n      DUP3 \t\t\t\n      ADD \t\t\t\n      SLOAD \t\t\t\n      DUP1 \t\t\t\n      ISZERO \t\t\t\n      PUSH [tag] 701\t\t\t\n      JUMPI \t\t\t\n      SWAP4 \t\t\t\n      SWAP3 \t\t\t\n      POP \t\t\t\n      POP \t\t\t\n      POP \t\t\t\n      JUMP \t\t\t\n    tag 577\t\t\t\n      JUMPDEST \t\t\t\n      PUSH 0\t\t\t\n      PUSH [tag] 712\t\t\t\n      PUSH 2\t\t\t\n      DUP5 \t\t\t\n      DUP5 \t\t\t\n      XOR \t\t\t\n      PUSH [tag] 713\t\t\t\n      JUMP \t\t\t\n    tag 712\t\t\t\n      JUMPDEST \t\t\t\n      PUSH [tag] 204\t\t\t\n      SWAP1 \t\t\t\n      DUP5 \t\t\t\n      DUP5 \t\t\t\n      AND \t\t\t\n      PUSH [tag] 399\t\t\t\n      JUMP \t\t\t\n    tag 610\t\t\t}\\n\\n    // solhint-disable-ne...\n      JUMPDEST \t\t\t}\\n\\n    // solhint-disable-ne...\n      DUP1 \t\t\tDE() public pure \n      PUSH 1\t\t\t\n      PUSH 1\t\t\t\n      PUSH A0\t\t\t\n      SHL \t\t\t\n      SUB \t\t\t\n      AND \t\t\tDE() public pure override ret\n      EXTCODESIZE \t\t\tDE() public pure override ret\n      PUSH 0\t\t\t \n      SUB \t\t\tDE() public pure override retu...\n      PUSH [tag] 719\t\t\tK_MODE() public pure override ...\n      JUMPI \t\t\tK_MODE() public pure override ...\n      PUSH 40\t\t\t   return \"mode=timestamp\";\\n ...\n      MLOAD \t\t\t   return \"mode=timestamp\";\\n ...\n      PUSH 4C9C8CE3\t\t\t\n      PUSH E0\t\t\t\n      SHL \t\t\t\n      DUP2 \t\t\t   return \"mode=timestamp\";\\n ...\n      MSTORE \t\t\t   return \"mode=timestamp\";\\n ...\n      PUSH 1\t\t\t\n      PUSH 1\t\t\t\n      PUSH A0\t\t\t\n      SHL \t\t\t\n      SUB \t\t\t\n      DUP3 \t\t\t\n      AND \t\t\t\n      PUSH 4\t\t\t   return \"mode=timestamp\";\\n ...\n      DUP3 \t\t\t   return \"mode=timestamp\";\\n ...\n      ADD \t\t\t   return \"mode=timestamp\";\\n ...\n      MSTORE \t\t\t\n      PUSH 24\t\t\t\n      ADD \t\t\t\n      PUSH [tag] 288\t\t\t   return \"mode=timestamp\";\\n ...\n      JUMP \t\t\t\n    tag 719\t\t\tK_MODE() public pure override ...\n      JUMPDEST \t\t\tK_MODE() public pure override ...\n      PUSH 0\t\t\t\n      DUP1 \t\t\t\n      MLOAD \t\t\t\n      PUSH 20\t\t\t\n      PUSH data 75B20EEF8615DE99C108B05F0DBDA081C91897128CAA336D75DFFB97C4132B4D\t\t\t\n      DUP4 \t\t\t\n      CODECOPY \t\t\t\n      DUP2 \t\t\t\n      MLOAD \t\t\t\n      SWAP2 \t\t\t\n      MSTORE \t\t\t\n      DUP1 \t\t\tddress newImplementation)\\n   ...\n      SLOAD \t\t\tddress newImplementation)\\n   ...\n      PUSH 1\t\t\t\n      PUSH 1\t\t\t\n      PUSH A0\t\t\t\n      SHL \t\t\t\n      SUB \t\t\t\n      NOT \t\t\t\n      AND \t\t\tddress newImplementation)\\n   ...\n      PUSH 1\t\t\t\n      PUSH 1\t\t\t\n      PUSH A0\t\t\t\n      SHL \t\t\t\n      SUB \t\t\t\n      SWAP3 \t\t\tddress newImplementation)\\n   ...\n      SWAP1 \t\t\tddress newImplementation)\\n   ...\n      SWAP3 \t\t\tddress newImplementation)\\n   ...\n      AND \t\t\tddress newImplementation)\\n   ...\n      SWAP2 \t\t\tddress newImplementation)\\n   ...\n      SWAP1 \t\t\tddress newImplementation)\\n   ...\n      SWAP2 \t\t\tddress newImplementation)\\n   ...\n      OR \t\t\tddress newImplementation)\\n   ...\n      SWAP1 \t\t\tddress newImplementation)\\n   ...\n      SSTORE \t\t\tddress newImplementation)\\n   ...\n      JUMP \t\t\t}\\n\\n    // solhint-disable-ne...\n    tag 613\t\t\t\n      JUMPDEST \t\t\t\n      PUSH 60\t\t\t\n      PUSH 0\t\t\t\n      DUP1 \t\t\t\n      DUP5 \t\t\t\n      PUSH 1\t\t\t\n      PUSH 1\t\t\t\n      PUSH A0\t\t\t\n      SHL \t\t\t\n      SUB \t\t\t\n      AND \t\t\t\n      DUP5 \t\t\t\n      PUSH 40\t\t\t\n      MLOAD \t\t\t\n      PUSH [tag] 723\t\t\t\n      SWAP2 \t\t\t\n      SWAP1 \t\t\t\n      PUSH [tag] 724\t\t\t\n      JUMP \t\t\t\n    tag 723\t\t\t\n      JUMPDEST \t\t\t\n      PUSH 0\t\t\t\n      PUSH 40\t\t\t\n      MLOAD \t\t\t\n      DUP1 \t\t\t\n      DUP4 \t\t\t\n      SUB \t\t\t\n      DUP2 \t\t\t\n      DUP6 \t\t\t\n      GAS \t\t\t\n      DELEGATECALL \t\t\t\n      SWAP2 \t\t\t\n      POP \t\t\t\n      POP \t\t\t\n      RETURNDATASIZE \t\t\t\n      DUP1 \t\t\t\n      PUSH 0\t\t\t\n      DUP2 \t\t\t\n      EQ \t\t\t\n      PUSH [tag] 727\t\t\t\n      JUMPI \t\t\t\n      PUSH 40\t\t\t\n      MLOAD \t\t\t\n      SWAP2 \t\t\t\n      POP \t\t\t\n      PUSH 1F\t\t\t\n      NOT \t\t\t\n      PUSH 3F\t\t\t\n      RETURNDATASIZE \t\t\t\n      ADD \t\t\t\n      AND \t\t\t\n      DUP3 \t\t\t\n      ADD \t\t\t\n      PUSH 40\t\t\t\n      MSTORE \t\t\t\n      RETURNDATASIZE \t\t\t\n      DUP3 \t\t\t\n      MSTORE \t\t\t\n      RETURNDATASIZE \t\t\t\n      PUSH 0\t\t\t\n      PUSH 20\t\t\t\n      DUP5 \t\t\t\n      ADD \t\t\t\n      RETURNDATACOPY \t\t\t\n      PUSH [tag] 726\t\t\t\n      JUMP \t\t\t\n    tag 727\t\t\t\n      JUMPDEST \t\t\t\n      PUSH 60\t\t\t\n      SWAP2 \t\t\t\n      POP \t\t\t\n    tag 726\t\t\t\n      JUMPDEST \t\t\t\n      POP \t\t\t\n      SWAP2 \t\t\t\n      POP \t\t\t\n      SWAP2 \t\t\t\n      POP \t\t\t\n      PUSH [tag] 728\t\t\t\n      DUP6 \t\t\t\n      DUP4 \t\t\t\n      DUP4 \t\t\t\n      PUSH [tag] 729\t\t\t\n      JUMP \t\t\t\n    tag 728\t\t\t\n      JUMPDEST \t\t\t\n      SWAP6 \t\t\t\n      SWAP5 \t\t\t\n      POP \t\t\t\n      POP \t\t\t\n      POP \t\t\t\n      POP \t\t\t\n      POP \t\t\t\n      JUMP \t\t\t\n    tag 616\t\t\t\n      JUMPDEST \t\t\t\n      CALLVALUE \t\t\t\n      ISZERO \t\t\t\n      PUSH [tag] 278\t\t\t\n      JUMPI \t\t\t\n      PUSH 40\t\t\t\n      MLOAD \t\t\t\n      PUSH B398979F\t\t\t\n      PUSH E0\t\t\t\n      SHL \t\t\t\n      DUP2 \t\t\t\n      MSTORE \t\t\t\n      PUSH 4\t\t\t\n      ADD \t\t\t\n      PUSH 40\t\t\t\n      MLOAD \t\t\t\n      DUP1 \t\t\t\n      SWAP2 \t\t\t\n      SUB \t\t\t\n      SWAP1 \t\t\t\n      REVERT \t\t\t\n    tag 625\t\t\t\n      JUMPDEST \t\t\t\n      PUSH 0\t\t\t\n      PUSH [tag] 204\t\t\t\n      DUP3 \t\t\t\n      DUP5 \t\t\t\n      PUSH [tag] 734\t\t\t\n      JUMP \t\t\t\n    tag 627\t\t\t\n      JUMPDEST \t\t\t\n      PUSH 0\t\t\t\n      PUSH 1\t\t\t\n      PUSH 1\t\t\t\n      PUSH D0\t\t\t\n      SHL \t\t\t\n      SUB \t\t\t\n      DUP3 \t\t\t\n      GT \t\t\t\n      ISZERO \t\t\t\n      PUSH [tag] 543\t\t\t\n      JUMPI \t\t\t\n      PUSH 40\t\t\t\n      MLOAD \t\t\t\n      PUSH 6DFCC65\t\t\t\n      PUSH E4\t\t\t\n      SHL \t\t\t\n      DUP2 \t\t\t\n      MSTORE \t\t\t\n      PUSH D0\t\t\t\n      PUSH 4\t\t\t\n      DUP3 \t\t\t\n      ADD \t\t\t\n      MSTORE \t\t\t\n      PUSH 24\t\t\t\n      DUP2 \t\t\t\n      ADD \t\t\t\n      DUP4 \t\t\t\n      SWAP1 \t\t\t\n      MSTORE \t\t\t\n      PUSH 44\t\t\t\n      ADD \t\t\t\n      PUSH [tag] 288\t\t\t\n      JUMP \t\t\t\n    tag 628\t\t\t\n      JUMPDEST \t\t\t\n      PUSH 0\t\t\t\n      DUP1 \t\t\t\n      PUSH [tag] 740\t\t\t\n      TIMESTAMP \t\t\tblock.timestamp\n      PUSH [tag] 742\t\t\t\n      PUSH [tag] 743\t\t\t\n      DUP9 \t\t\t\n      PUSH [tag] 316\t\t\t\n      JUMP \t\t\t\n    tag 743\t\t\t\n      JUMPDEST \t\t\t\n      DUP7 \t\t\t\n      DUP9 \t\t\t\n      PUSH FFFFFFFF\t\t\t\n      AND \t\t\t\n      JUMP \t\t\t\n    tag 742\t\t\t\n      JUMPDEST \t\t\t\n      DUP8 \t\t\t\n      SWAP2 \t\t\t\n      SWAP1 \t\t\t\n      PUSH [tag] 744\t\t\t\n      JUMP \t\t\t\n    tag 740\t\t\t\n      JUMPDEST \t\t\t\n      SWAP2 \t\t\t\n      POP \t\t\t\n      SWAP2 \t\t\t\n      POP \t\t\t\n    tag 739\t\t\t\n      JUMPDEST \t\t\t\n      SWAP4 \t\t\t\n      POP \t\t\t\n      SWAP4 \t\t\t\n      SWAP2 \t\t\t\n      POP \t\t\t\n      POP \t\t\t\n      JUMP \t\t\t\n    tag 633\t\t\t\n      JUMPDEST \t\t\t\n      PUSH 0\t\t\t\n      PUSH [tag] 204\t\t\t\n      DUP3 \t\t\t\n      DUP5 \t\t\t\n      PUSH [tag] 747\t\t\t\n      JUMP \t\t\t\n    tag 687\t\t\t\n      JUMPDEST \t\t\t\n      PUSH 0\t\t\t\n      DUP1 \t\t\t\n      MLOAD \t\t\t\n      PUSH 20\t\t\t\n      PUSH data 3874827173E8DF9F34323B12B251D1D3C53926CE129E30A0D69F1D47C277041B\t\t\t\n      DUP4 \t\t\t\n      CODECOPY \t\t\t\n      DUP2 \t\t\t\n      MLOAD \t\t\t\n      SWAP2 \t\t\t\n      MSTORE \t\t\t\n      PUSH 1\t\t\t\n      PUSH 1\t\t\t\n      PUSH A0\t\t\t\n      SHL \t\t\t\n      SUB \t\t\t\n      DUP5 \t\t\t\n      AND \t\t\t\n      PUSH [tag] 750\t\t\t\n      JUMPI \t\t\t\n      DUP2 \t\t\t\n      DUP2 \t\t\t\n      PUSH 2\t\t\t\n      ADD \t\t\t\n      PUSH 0\t\t\t\n      DUP3 \t\t\t\n      DUP3 \t\t\t\n      SLOAD \t\t\t\n      PUSH [tag] 751\t\t\t\n      SWAP2 \t\t\t\n      SWAP1 \t\t\t\n      PUSH [tag] 399\t\t\t\n      JUMP \t\t\t\n    tag 751\t\t\t\n      JUMPDEST \t\t\t\n      SWAP1 \t\t\t\n      SWAP2 \t\t\t\n      SSTORE \t\t\t\n      POP \t\t\t\n      PUSH [tag] 752\t\t\t\n      SWAP1 \t\t\t\n      POP \t\t\t\n      JUMP \t\t\t\n    tag 750\t\t\t\n      JUMPDEST \t\t\t\n      PUSH 1\t\t\t\n      PUSH 1\t\t\t\n      PUSH A0\t\t\t\n      SHL \t\t\t\n      SUB \t\t\t\n      DUP5 \t\t\t\n      AND \t\t\t\n      PUSH 0\t\t\t\n      SWAP1 \t\t\t\n      DUP2 \t\t\t\n      MSTORE \t\t\t\n      PUSH 20\t\t\t\n      DUP3 \t\t\t\n      SWAP1 \t\t\t\n      MSTORE \t\t\t\n      PUSH 40\t\t\t\n      SWAP1 \t\t\t\n      KECCAK256 \t\t\t\n      SLOAD \t\t\t\n      DUP3 \t\t\t\n      DUP2 \t\t\t\n      LT \t\t\t\n      ISZERO \t\t\t\n      PUSH [tag] 753\t\t\t\n      JUMPI \t\t\t\n      PUSH 40\t\t\t\n      MLOAD \t\t\t\n      PUSH 391434E3\t\t\t\n      PUSH E2\t\t\t\n      SHL \t\t\t\n      DUP2 \t\t\t\n      MSTORE \t\t\t\n      PUSH 1\t\t\t\n      PUSH 1\t\t\t\n      PUSH A0\t\t\t\n      SHL \t\t\t\n      SUB \t\t\t\n      DUP7 \t\t\t\n      AND \t\t\t\n      PUSH 4\t\t\t\n      DUP3 \t\t\t\n      ADD \t\t\t\n      MSTORE \t\t\t\n      PUSH 24\t\t\t\n      DUP2 \t\t\t\n      ADD \t\t\t\n      DUP3 \t\t\t\n      SWAP1 \t\t\t\n      MSTORE \t\t\t\n      PUSH 44\t\t\t\n      DUP2 \t\t\t\n      ADD \t\t\t\n      DUP5 \t\t\t\n      SWAP1 \t\t\t\n      MSTORE \t\t\t\n      PUSH 64\t\t\t\n      ADD \t\t\t\n      PUSH [tag] 288\t\t\t\n      JUMP \t\t\t\n    tag 753\t\t\t\n      JUMPDEST \t\t\t\n      PUSH 1\t\t\t\n      PUSH 1\t\t\t\n      PUSH A0\t\t\t\n      SHL \t\t\t\n      SUB \t\t\t\n      DUP6 \t\t\t\n      AND \t\t\t\n      PUSH 0\t\t\t\n      SWAP1 \t\t\t\n      DUP2 \t\t\t\n      MSTORE \t\t\t\n      PUSH 20\t\t\t\n      DUP4 \t\t\t\n      SWAP1 \t\t\t\n      MSTORE \t\t\t\n      PUSH 40\t\t\t\n      SWAP1 \t\t\t\n      KECCAK256 \t\t\t\n      SWAP1 \t\t\t\n      DUP4 \t\t\t\n      SWAP1 \t\t\t\n      SUB \t\t\t\n      SWAP1 \t\t\t\n      SSTORE \t\t\t\n    tag 752\t\t\t\n      JUMPDEST \t\t\t\n      PUSH 1\t\t\t\n      PUSH 1\t\t\t\n      PUSH A0\t\t\t\n      SHL \t\t\t\n      SUB \t\t\t\n      DUP4 \t\t\t\n      AND \t\t\t\n      PUSH [tag] 755\t\t\t\n      JUMPI \t\t\t\n      PUSH 2\t\t\t\n      DUP2 \t\t\t\n      ADD \t\t\t\n      DUP1 \t\t\t\n      SLOAD \t\t\t\n      DUP4 \t\t\t\n      SWAP1 \t\t\t\n      SUB \t\t\t\n      SWAP1 \t\t\t\n      SSTORE \t\t\t\n      PUSH [tag] 756\t\t\t\n      JUMP \t\t\t\n    tag 755\t\t\t\n      JUMPDEST \t\t\t\n      PUSH 1\t\t\t\n      PUSH 1\t\t\t\n      PUSH A0\t\t\t\n      SHL \t\t\t\n      SUB \t\t\t\n      DUP4 \t\t\t\n      AND \t\t\t\n      PUSH 0\t\t\t\n      SWAP1 \t\t\t\n      DUP2 \t\t\t\n      MSTORE \t\t\t\n      PUSH 20\t\t\t\n      DUP3 \t\t\t\n      SWAP1 \t\t\t\n      MSTORE \t\t\t\n      PUSH 40\t\t\t\n      SWAP1 \t\t\t\n      KECCAK256 \t\t\t\n      DUP1 \t\t\t\n      SLOAD \t\t\t\n      DUP4 \t\t\t\n      ADD \t\t\t\n      SWAP1 \t\t\t\n      SSTORE \t\t\t\n    tag 756\t\t\t\n      JUMPDEST \t\t\t\n      DUP3 \t\t\t\n      PUSH 1\t\t\t\n      PUSH 1\t\t\t\n      PUSH A0\t\t\t\n      SHL \t\t\t\n      SUB \t\t\t\n      AND \t\t\t\n      DUP5 \t\t\t\n      PUSH 1\t\t\t\n      PUSH 1\t\t\t\n      PUSH A0\t\t\t\n      SHL \t\t\t\n      SUB \t\t\t\n      AND \t\t\t\n      PUSH DDF252AD1BE2C89B69C2B068FC378DAA952BA7F163C4A11628F55A4DF523B3EF\t\t\t\n      DUP5 \t\t\t\n      PUSH 40\t\t\t\n      MLOAD \t\t\t\n      PUSH [tag] 757\t\t\t\n      SWAP2 \t\t\t\n      DUP2 \t\t\t decimals());\\n    }\\n\\n    \n      MSTORE \t\t\t decimals());\\n    }\\n\\n    \n      PUSH 20\t\t\t47\n      ADD \t\t\tecipient, 38165472\n      SWAP1 \t\t\tecipient, 38165472\n      JUMP \t\t\t;\\n        __ERC20Votes_init()...\n    tag 757\t\t\t\n      JUMPDEST \t\t\t\n      PUSH 40\t\t\t\n      MLOAD \t\t\t\n      DUP1 \t\t\t\n      SWAP2 \t\t\t\n      SUB \t\t\t\n      SWAP1 \t\t\t\n      LOG3 \t\t\t\n      POP \t\t\t\n      POP \t\t\t\n      POP \t\t\t\n      POP \t\t\t\n      JUMP \t\t\t\n    tag 695\t\t\t\n      JUMPDEST \t\t\t\n      PUSH 0\t\t\t\n      DUP1 \t\t\t\n      MLOAD \t\t\t\n      PUSH 20\t\t\t\n      PUSH data 23484935BDF196CA31423939A31C04B740AF4DE11AC0940ED78D38B36817EC46\t\t\t\n      DUP4 \t\t\t\n      CODECOPY \t\t\t\n      DUP2 \t\t\t\n      MLOAD \t\t\t\n      SWAP2 \t\t\t\n      MSTORE \t\t\t\n      PUSH 1\t\t\t\n      PUSH 1\t\t\t\n      PUSH A0\t\t\t\n      SHL \t\t\t\n      SUB \t\t\t\n      DUP5 \t\t\t\n      AND \t\t\t\n      PUSH [tag] 761\t\t\t\n      JUMPI \t\t\t\n      PUSH [tag] 762\t\t\t\n      DUP2 \t\t\t\n      PUSH 2\t\t\t\n      ADD \t\t\t\n      PUSH [tag] 633\t\t\t\n      PUSH [tag] 626\t\t\t\n      DUP6 \t\t\t\n      PUSH [tag] 627\t\t\t\n      JUMP \t\t\t\n    tag 762\t\t\t\n      JUMPDEST \t\t\t\n      POP \t\t\t\n      POP \t\t\t\n    tag 761\t\t\t\n      JUMPDEST \t\t\t\n      PUSH 1\t\t\t\n      PUSH 1\t\t\t\n      PUSH A0\t\t\t\n      SHL \t\t\t\n      SUB \t\t\t\n      DUP4 \t\t\t\n      AND \t\t\t\n      PUSH [tag] 764\t\t\t\n      JUMPI \t\t\t\n      PUSH [tag] 765\t\t\t\n      DUP2 \t\t\t\n      PUSH 2\t\t\t\n      ADD \t\t\t\n      PUSH [tag] 625\t\t\t\n      PUSH [tag] 626\t\t\t\n      DUP6 \t\t\t\n      PUSH [tag] 627\t\t\t\n      JUMP \t\t\t\n    tag 765\t\t\t\n      JUMPDEST \t\t\t\n      POP \t\t\t\n      POP \t\t\t\n    tag 764\t\t\t\n      JUMPDEST \t\t\t\n      PUSH [tag] 369\t\t\t\n      PUSH [tag] 768\t\t\t\n      DUP6 \t\t\t\n      PUSH [tag] 98\t\t\t\n      JUMP \t\t\t\n    tag 768\t\t\t\n      JUMPDEST \t\t\t\n      PUSH [tag] 769\t\t\t\n      DUP6 \t\t\t\n      PUSH [tag] 98\t\t\t\n      JUMP \t\t\t\n    tag 769\t\t\t\n      JUMPDEST \t\t\t\n      DUP5 \t\t\t\n      PUSH [tag] 463\t\t\t\n      JUMP \t\t\t\n    tag 729\t\t\t\n      JUMPDEST \t\t\t\n      PUSH 60\t\t\t\n      DUP3 \t\t\t\n      PUSH [tag] 771\t\t\t\n      JUMPI \t\t\t\n      PUSH [tag] 772\t\t\t\n      DUP3 \t\t\t\n      PUSH [tag] 773\t\t\t\n      JUMP \t\t\t\n    tag 772\t\t\t\n      JUMPDEST \t\t\t\n      PUSH [tag] 204\t\t\t\n      JUMP \t\t\t\n    tag 771\t\t\t\n      JUMPDEST \t\t\t\n      DUP2 \t\t\t\n      MLOAD \t\t\t\n      ISZERO \t\t\t\n      DUP1 \t\t\t\n      ISZERO \t\t\t\n      PUSH [tag] 775\t\t\t\n      JUMPI \t\t\t\n      POP \t\t\t\n      PUSH 1\t\t\t\n      PUSH 1\t\t\t\n      PUSH A0\t\t\t\n      SHL \t\t\t\n      SUB \t\t\t\n      DUP5 \t\t\t\n      AND \t\t\t\n      EXTCODESIZE \t\t\t\n      ISZERO \t\t\t\n    tag 775\t\t\t\n      JUMPDEST \t\t\t\n      ISZERO \t\t\t\n      PUSH [tag] 776\t\t\t\n      JUMPI \t\t\t\n      PUSH 40\t\t\t\n      MLOAD \t\t\t\n      PUSH 9996B315\t\t\t\n      PUSH E0\t\t\t\n      SHL \t\t\t\n      DUP2 \t\t\t\n      MSTORE \t\t\t\n      PUSH 1\t\t\t\n      PUSH 1\t\t\t\n      PUSH A0\t\t\t\n      SHL \t\t\t\n      SUB \t\t\t\n      DUP6 \t\t\t\n      AND \t\t\t\n      PUSH 4\t\t\t\n      DUP3 \t\t\t\n      ADD \t\t\t\n      MSTORE \t\t\t\n      PUSH 24\t\t\t\n      ADD \t\t\t\n      PUSH [tag] 288\t\t\t\n      JUMP \t\t\t\n    tag 776\t\t\t\n      JUMPDEST \t\t\t\n      POP \t\t\t\n      DUP1 \t\t\t\n      PUSH [tag] 204\t\t\t\n      JUMP \t\t\t\n    tag 744\t\t\t\n      JUMPDEST \t\t\t\n      PUSH 0\t\t\t\n      DUP1 \t\t\t\n      PUSH [tag] 740\t\t\t\n      DUP6 \t\t\t\n      DUP6 \t\t\t\n      DUP6 \t\t\t\n      PUSH [tag] 780\t\t\t\n      JUMP \t\t\t\n    tag 773\t\t\t\n      JUMPDEST \t\t\t\n      DUP1 \t\t\t\n      MLOAD \t\t\t\n      ISZERO \t\t\t\n      PUSH [tag] 782\t\t\t\n      JUMPI \t\t\t\n      DUP1 \t\t\t\n      MLOAD \t\t\t\n      DUP1 \t\t\t\n      DUP3 \t\t\t\n      PUSH 20\t\t\t\n      ADD \t\t\t\n      REVERT \t\t\t\n    tag 782\t\t\t\n      JUMPDEST \t\t\t\n      PUSH 40\t\t\t\n      MLOAD \t\t\t\n      PUSH D6BDA275\t\t\t\n      PUSH E0\t\t\t\n      SHL \t\t\t\n      DUP2 \t\t\t\n      MSTORE \t\t\t\n      PUSH 4\t\t\t\n      ADD \t\t\t\n      PUSH 40\t\t\t\n      MLOAD \t\t\t\n      DUP1 \t\t\t\n      SWAP2 \t\t\t\n      SUB \t\t\t\n      SWAP1 \t\t\t\n      REVERT \t\t\t\n    tag 780\t\t\t\n      JUMPDEST \t\t\t\n      DUP3 \t\t\t\n      SLOAD \t\t\t\n      PUSH 0\t\t\t\n      SWAP1 \t\t\t\n      DUP2 \t\t\t\n      SWAP1 \t\t\t\n      DUP1 \t\t\t\n      ISZERO \t\t\t\n      PUSH [tag] 785\t\t\t\n      JUMPI \t\t\t\n      PUSH 0\t\t\t\n      PUSH [tag] 786\t\t\t\n      DUP8 \t\t\t\n      PUSH [tag] 404\t\t\t\n      PUSH 1\t\t\t\n      DUP6 \t\t\t\n      PUSH [tag] 393\t\t\t\n      JUMP \t\t\t\n    tag 786\t\t\t\n      JUMPDEST \t\t\t\n      DUP1 \t\t\t\n      SLOAD \t\t\t\n      SWAP1 \t\t\t\n      SWAP2 \t\t\t\n      POP \t\t\t\n      PUSH FFFFFFFFFFFF\t\t\t\n      DUP1 \t\t\t\n      DUP3 \t\t\t\n      AND \t\t\t\n      SWAP2 \t\t\t\n      PUSH 1\t\t\t\n      PUSH 30\t\t\t\n      SHL \t\t\t\n      SWAP1 \t\t\t\n      DIV \t\t\t\n      PUSH 1\t\t\t\n      PUSH 1\t\t\t\n      PUSH D0\t\t\t\n      SHL \t\t\t\n      SUB \t\t\t\n      AND \t\t\t\n      SWAP1 \t\t\t\n      DUP9 \t\t\t\n      AND \t\t\t\n      DUP3 \t\t\t\n      GT \t\t\t\n      ISZERO \t\t\t\n      PUSH [tag] 788\t\t\t\n      JUMPI \t\t\t\n      PUSH 40\t\t\t\n      MLOAD \t\t\t\n      PUSH 2520601D\t\t\t\n      PUSH E0\t\t\t\n      SHL \t\t\t\n      DUP2 \t\t\t\n      MSTORE \t\t\t\n      PUSH 4\t\t\t\n      ADD \t\t\t\n      PUSH 40\t\t\t\n      MLOAD \t\t\t\n      DUP1 \t\t\t\n      SWAP2 \t\t\t\n      SUB \t\t\t\n      SWAP1 \t\t\t\n      REVERT \t\t\t\n    tag 788\t\t\t\n      JUMPDEST \t\t\t\n      DUP8 \t\t\t\n      PUSH FFFFFFFFFFFF\t\t\t\n      AND \t\t\t\n      DUP3 \t\t\t\n      PUSH FFFFFFFFFFFF\t\t\t\n      AND \t\t\t\n      SUB \t\t\t\n      PUSH [tag] 789\t\t\t\n      JUMPI \t\t\t\n      DUP3 \t\t\t\n      SLOAD \t\t\t\n      PUSH FFFFFFFFFFFF\t\t\t\n      AND \t\t\t\n      PUSH 1\t\t\t\n      PUSH 30\t\t\t\n      SHL \t\t\t\n      PUSH 1\t\t\t\n      PUSH 1\t\t\t\n      PUSH D0\t\t\t\n      SHL \t\t\t\n      SUB \t\t\t\n      DUP10 \t\t\t\n      AND \t\t\t\n      MUL \t\t\t\n      OR \t\t\t\n      DUP4 \t\t\t\n      SSTORE \t\t\t\n      PUSH [tag] 790\t\t\t\n      JUMP \t\t\t\n    tag 789\t\t\t\n      JUMPDEST \t\t\t\n      PUSH 40\t\t\t\n      DUP1 \t\t\t\n      MLOAD \t\t\t\n      DUP1 \t\t\t\n      DUP3 \t\t\t\n      ADD \t\t\t\n      SWAP1 \t\t\t\n      SWAP2 \t\t\t\n      MSTORE \t\t\t\n      PUSH FFFFFFFFFFFF\t\t\t\n      DUP1 \t\t\t\n      DUP11 \t\t\t\n      AND \t\t\t\n      DUP3 \t\t\t\n      MSTORE \t\t\t\n      PUSH 1\t\t\t\n      PUSH 1\t\t\t\n      PUSH D0\t\t\t\n      SHL \t\t\t\n      SUB \t\t\t\n      DUP1 \t\t\t\n      DUP11 \t\t\t\n      AND \t\t\t\n      PUSH 20\t\t\t\n      DUP1 \t\t\t\n      DUP6 \t\t\t\n      ADD \t\t\t\n      SWAP2 \t\t\t\n      DUP3 \t\t\t\n      MSTORE \t\t\t\n      DUP14 \t\t\t\n      SLOAD \t\t\t\n      PUSH 1\t\t\t\n      DUP2 \t\t\t\n      ADD \t\t\t\n      DUP16 \t\t\t\n      SSTORE \t\t\t\n      PUSH 0\t\t\t\n      DUP16 \t\t\t\n      DUP2 \t\t\t\n      MSTORE \t\t\t\n      SWAP2 \t\t\t\n      SWAP1 \t\t\t\n      SWAP2 \t\t\t\n      KECCAK256 \t\t\t\n      SWAP5 \t\t\t\n      MLOAD \t\t\t\n      SWAP2 \t\t\t\n      MLOAD \t\t\t\n      SWAP1 \t\t\t\n      SWAP3 \t\t\t\n      AND \t\t\t\n      PUSH 1\t\t\t\n      PUSH 30\t\t\t\n      SHL \t\t\t\n      MUL \t\t\t\n      SWAP3 \t\t\t\n      AND \t\t\t\n      SWAP2 \t\t\t\n      SWAP1 \t\t\t\n      SWAP2 \t\t\t\n      OR \t\t\t\n      SWAP2 \t\t\t\n      ADD \t\t\t\n      SSTORE \t\t\t\n    tag 790\t\t\t\n      JUMPDEST \t\t\t\n      SWAP5 \t\t\t\n      POP \t\t\t\n      DUP6 \t\t\t\n      SWAP4 \t\t\t\n      POP \t\t\t\n      PUSH [tag] 739\t\t\t\n      SWAP3 \t\t\t\n      POP \t\t\t\n      POP \t\t\t\n      POP \t\t\t\n      JUMP \t\t\t\n    tag 785\t\t\t\n      JUMPDEST \t\t\t\n      POP \t\t\t\n      POP \t\t\t\n      PUSH 40\t\t\t\n      DUP1 \t\t\t\n      MLOAD \t\t\t\n      DUP1 \t\t\t\n      DUP3 \t\t\t\n      ADD \t\t\t\n      SWAP1 \t\t\t\n      SWAP2 \t\t\t\n      MSTORE \t\t\t\n      PUSH FFFFFFFFFFFF\t\t\t\n      DUP1 \t\t\t\n      DUP6 \t\t\t\n      AND \t\t\t\n      DUP3 \t\t\t\n      MSTORE \t\t\t\n      PUSH 1\t\t\t\n      PUSH 1\t\t\t\n      PUSH D0\t\t\t\n      SHL \t\t\t\n      SUB \t\t\t\n      DUP1 \t\t\t\n      DUP6 \t\t\t\n      AND \t\t\t\n      PUSH 20\t\t\t\n      DUP1 \t\t\t\n      DUP6 \t\t\t\n      ADD \t\t\t\n      SWAP2 \t\t\t\n      DUP3 \t\t\t\n      MSTORE \t\t\t\n      DUP9 \t\t\t\n      SLOAD \t\t\t\n      PUSH 1\t\t\t\n      DUP2 \t\t\t\n      ADD \t\t\t\n      DUP11 \t\t\t\n      SSTORE \t\t\t\n      PUSH 0\t\t\t\n      DUP11 \t\t\t\n      DUP2 \t\t\t\n      MSTORE \t\t\t\n      SWAP2 \t\t\t\n      DUP3 \t\t\t\n      KECCAK256 \t\t\t\n      SWAP6 \t\t\t\n      MLOAD \t\t\t\n      SWAP3 \t\t\t\n      MLOAD \t\t\t\n      SWAP1 \t\t\t\n      SWAP4 \t\t\t\n      AND \t\t\t\n      PUSH 1\t\t\t\n      PUSH 30\t\t\t\n      SHL \t\t\t\n      MUL \t\t\t\n      SWAP2 \t\t\t\n      SWAP1 \t\t\t\n      SWAP4 \t\t\t\n      AND \t\t\t\n      OR \t\t\t\n      SWAP3 \t\t\t\n      ADD \t\t\t\n      SWAP2 \t\t\t\n      SWAP1 \t\t\t\n      SWAP2 \t\t\t\n      SSTORE \t\t\t\n      SWAP1 \t\t\t\n      POP \t\t\t\n      DUP2 \t\t\t\n      PUSH [tag] 739\t\t\t\n      JUMP \t\t\t\n    tag 794\t\t\te-Identifier: MIT\\n// Compatib...\n      JUMPDEST \t\t\te-Identifier: MIT\\n// Compatib...\n      PUSH 0\t\t\t.\n    tag 806\t\t\tport {ERC20Upgradeable} from \"...\n      JUMPDEST \t\t\tport {ERC20Upgradeable} from \"...\n      DUP4 \t\t\tradeab\n      DUP2 \t\t\tU\n      LT \t\t\tC20Upgradeabl\n      ISZERO \t\t\tport {ERC20Upgradeable} from \"...\n      PUSH [tag] 808\t\t\tport {ERC20Upgradeable} from \"...\n      JUMPI \t\t\tport {ERC20Upgradeable} from \"...\n      DUP2 \t\t\tpgradeable.\n      DUP2 \t\t\tpgradeable.\n      ADD \t\t\tpgradeable.\n      MLOAD \t\t\tERC20Upgradeable.s\n      DUP4 \t\t\t/token/ERC2\n      DUP3 \t\t\t/token/ERC2\n      ADD \t\t\t/token/ERC2\n      MSTORE \t\t\te@5.2.0/token/ERC20/ERC20Upgra...\n      PUSH 20\t\t\tep\n      ADD \t\t\t\"@openzepp\n      PUSH [tag] 806\t\t\tport {ERC20Upgradeable} from \"...\n      JUMP \t\t\tport {ERC20Upgradeable} from \"...\n    tag 808\t\t\tport {ERC20Upgradeable} from \"...\n      JUMPDEST \t\t\tport {ERC20Upgradeable} from \"...\n      POP \t\t\t\n      POP \t\t\t\n      PUSH 0\t\t\tp\n      SWAP2 \t\t\tradeable} from \"\n      ADD \t\t\tradeable} from \"\n      MSTORE \t\t\trmitUpgradeable} from \"@ope\n      JUMP \t\t\te-Identifier: MIT\\n// Compatib...\n    tag 795\t\t\tontracts-upgradeable@5.2.0/tok...\n      JUMPDEST \t\t\tontracts-upgradeable@5.2.0/tok...\n      PUSH 0\t\t\tens\n      DUP2 \t\t\tmport\n      MLOAD \t\t\tol\";\\nimport \n      DUP1 \t\t\te} fro\n      DUP5 \t\t\tdea\n      MSTORE \t\t\tesUpgradeable} from\n      PUSH [tag] 810\t\t\tppelin/contracts-upgradeable@5...\n      DUP2 \t\t\tpgrade\n      PUSH 20\t\t\t0Vot\n      DUP7 \t\t\t/ER\n      ADD \t\t\tions/ERC20Vote\n      PUSH 20\t\t\t/ext\n      DUP7 \t\t\tn/ERC\n      ADD \t\t\ttoken/ERC20/exte\n      PUSH [tag] 794\t\t\tppelin/contracts-upgradeable@5...\n      JUMP \t\t\tppelin/contracts-upgradeable@5...\n    tag 810\t\t\tppelin/contracts-upgradeable@5...\n      JUMPDEST \t\t\tppelin/contracts-upgradeable@5...\n      PUSH 1F\t\t\ton\n      ADD \t\t\tfrom \"@openzepp\n      PUSH 1F\t\t\t\n      NOT \t\t\t\n      AND \t\t\tle} from \"@openzeppelin/contr\n      SWAP3 \t\t\titializable} from \"@openzeppel...\n      SWAP1 \t\t\titializable} from \"@openzeppel...\n      SWAP3 \t\t\titializable} from \"@openzeppel...\n      ADD \t\t\titializable} from \"@openzeppel...\n      PUSH 20\t\t\ts-up\n      ADD \t\t\t {Initializable} from \"@openze...\n      SWAP3 \t\t\t {Initializable} from \"@openze...\n      SWAP2 \t\t\tontracts-upgradeable@5.2.0/tok...\n      POP \t\t\t\n      POP \t\t\t\n      JUMP \t\t\tontracts-upgradeable@5.2.0/tok...\n    tag 43\t\t\t2.0/proxy/utils/Initializable....\n      JUMPDEST \t\t\t2.0/proxy/utils/Initializable....\n      PUSH 20\t\t\tOw\n      DUP2 \t\t\t\";\\nimport\n      MSTORE \t\t\tble.sol\";\\nimport {Own\n      PUSH 0\t\t\ttils\n      PUSH [tag] 204\t\t\tfrom \"@openzeppelin/contracts-...\n      PUSH 20\t\t\t@5\n      DUP4 \t\t\tupgradeab\n      ADD \t\t\tcts-upgradeable@5.\n      DUP5 \t\t\tn/cont\n      PUSH [tag] 795\t\t\tfrom \"@openzeppelin/contracts-...\n      JUMP \t\t\tfrom \"@openzeppelin/contracts-...\n    tag 796\t\t\twnableUpgradeable.sol\";\\nimpor...\n      JUMPDEST \t\t\twnableUpgradeable.sol\";\\nimpor...\n      DUP1 \t\t\t/contracts-upgradeab\n      CALLDATALOAD \t\t\t/contracts-upgradeab\n      PUSH 1\t\t\t\n      PUSH 1\t\t\t\n      PUSH A0\t\t\t\n      SHL \t\t\t\n      SUB \t\t\t\n      DUP2 \t\t\tadeable.sol\";\\n\\n/// @custom:s...\n      AND \t\t\tadeable.sol\";\\n\\n/// @custom:s...\n      DUP2 \t\t\ts/UUPSUpgradeable.sol\";\\n\\n///...\n      EQ \t\t\ts/UUPSUpgradeable.sol\";\\n\\n///...\n      PUSH [tag] 814\t\t\tproxy/utils/UUPSUpgradeable.so...\n      JUMPI \t\t\tproxy/utils/UUPSUpgradeable.so...\n      PUSH 0\t\t\tc\n      DUP1 \t\t\t \n      REVERT \t\t\tcontact rucr\n    tag 814\t\t\tproxy/utils/UUPSUpgradeable.so...\n      JUMPDEST \t\t\tproxy/utils/UUPSUpgradeable.so...\n      SWAP2 \t\t\twnableUpgradeable.sol\";\\nimpor...\n      SWAP1 \t\t\twnableUpgradeable.sol\";\\nimpor...\n      POP \t\t\twnableUpgradeable.sol\";\\nimpor...\n      JUMP \t\t\twnableUpgradeable.sol\";\\nimpor...\n    tag 47\t\t\til.com\\ncontract NextProVista ...\n      JUMPDEST \t\t\til.com\\ncontract NextProVista ...\n      PUSH 0\t\t\t20Perm\n      DUP1 \t\t\tUpgrad\n      PUSH 40\t\t\te,\n      DUP4 \t\t\tleUpgrade\n      DUP6 \t\t\tle, Own\n      SUB \t\t\tdeable, OwnableUpgradea\n      SLT \t\t\tpgradeable, OwnableUpgradeable...\n      ISZERO \t\t\tesUpgradeable, OwnableUpgradea...\n      PUSH [tag] 816\t\t\tesUpgradeable, OwnableUpgradea...\n      JUMPI \t\t\tesUpgradeable, OwnableUpgradea...\n      PUSH 0\t\t\tl\n      DUP1 \t\t\te\n      REVERT \t\t\tSUpgradeable\n    tag 816\t\t\tesUpgradeable, OwnableUpgradea...\n      JUMPDEST \t\t\tesUpgradeable, OwnableUpgradea...\n      PUSH [tag] 817\t\t\t-upgrades-unsafe-allow constr\n      DUP4 \t\t\tlow const\n      PUSH [tag] 796\t\t\t-upgrades-unsafe-allow constr\n      JUMP \t\t\t-upgrades-unsafe-allow constr\n    tag 817\t\t\t-upgrades-unsafe-allow constr\n      JUMPDEST \t\t\t-upgrades-unsafe-allow constr\n      SWAP5 \t\t\t@custom:oz-upgrades-unsafe-all...\n      PUSH 20\t\t\tal\n      SWAP4 \t\t\t  _disableInitiali\n      SWAP1 \t\t\t  _disableInitiali\n      SWAP4 \t\t\t  _disableInitiali\n      ADD \t\t\t  _disableInitiali\n      CALLDATALOAD \t\t\tor() {\\n        _disableInitia...\n      SWAP4 \t\t\tor() {\\n        _disableInitia...\n      POP \t\t\t\n      POP \t\t\t\n      POP \t\t\t\n      JUMP \t\t\til.com\\ncontract NextProVista ...\n    tag 59\t\t\tock() public view override ret...\n      JUMPDEST \t\t\tock() public view override ret...\n      PUSH 0\t\t\testamp\n      DUP1 \t\t\t\\n    }\n      PUSH 0\t\t\t    //\n      PUSH 60\t\t\t  \n      DUP5 \t\t\te-mixedca\n      DUP7 \t\t\t func-n\n      SUB \t\t\tline func-name-mixedcas\n      SLT \t\t\text-line func-name-mixedcase\\n...\n      ISZERO \t\t\te-next-line func-name-mixedcas...\n      PUSH [tag] 821\t\t\te-next-line func-name-mixedcas...\n      JUMPI \t\t\te-next-line func-name-mixedcas...\n      PUSH 0\t\t\tC\n      DUP1 \t\t\tC\n      REVERT \t\t\tnction CLOCK\n    tag 821\t\t\te-next-line func-name-mixedcas...\n      JUMPDEST \t\t\te-next-line func-name-mixedcas...\n      PUSH [tag] 822\t\t\tverride returns (string memor\n      DUP5 \t\t\tring memo\n      PUSH [tag] 796\t\t\tverride returns (string memor\n      JUMP \t\t\tverride returns (string memor\n    tag 822\t\t\tverride returns (string memor\n      JUMPDEST \t\t\tverride returns (string memor\n      SWAP3 \t\t\tlic pure override returns (str...\n      POP \t\t\tlic pure override returns (str...\n      PUSH [tag] 823\t\t\t \"mode=timestamp\";\\n    }\\n\\n ...\n      PUSH 20\t\t\tti\n      DUP6 \t\t\t}\\n\\n    fu\n      ADD \t\t\t    }\\n\\n    functio\n      PUSH [tag] 796\t\t\t \"mode=timestamp\";\\n    }\\n\\n ...\n      JUMP \t\t\t \"mode=timestamp\";\\n    }\\n\\n ...\n    tag 823\t\t\t \"mode=timestamp\";\\n    }\\n\\n ...\n      JUMPDEST \t\t\t \"mode=timestamp\";\\n    }\\n\\n ...\n      SWAP2 \t\t\t    return \"mode=timestamp\";\\n...\n      POP \t\t\t    return \"mode=timestamp\";\\n...\n      PUSH 40\t\t\t  \n      DUP5 \t\t\tentation)\n      ADD \t\t\tplementation)\\n    \n      CALLDATALOAD \t\t\taddress newImplementation)\\n  ...\n      SWAP1 \t\t\tzeUpgrade(address newImplement...\n      POP \t\t\tzeUpgrade(address newImplement...\n      SWAP3 \t\t\tock() public view override ret...\n      POP \t\t\tock() public view override ret...\n      SWAP3 \t\t\tock() public view override ret...\n      POP \t\t\tock() public view override ret...\n      SWAP3 \t\t\tock() public view override ret...\n      JUMP \t\t\tock() public view override ret...\n    tag 80\t\t\t  override(ERC20PermitUpgradea...\n      JUMPDEST \t\t\t  override(ERC20PermitUpgradea...\n      PUSH 0\t\t\ts (uin\n      DUP1 \t\t\t56)\\n  \n      PUSH 40\t\t\t\\n\n      DUP4 \t\t\ter);\\n    \n      DUP6 \t\t\tonces(o\n      SUB \t\t\ter.nonces(owner);\\n    }\n      SLT \t\t\t super.nonces(owner);\\n    }\\n...\n      ISZERO \t\t\turn super.nonces(owner);\\n    ...\n      PUSH [tag] 827\t\t\turn super.nonces(owner);\\n    ...\n      JUMPI \t\t\turn super.nonces(owner);\\n    ...\n      PUSH 0\t\t\t\n      DUP1 \t\t\t\n      REVERT \t\t\t\n    tag 827\t\t\turn super.nonces(owner);\\n    ...\n      JUMPDEST \t\t\turn super.nonces(owner);\\n    ...\n      PUSH [tag] 828\t\t\t\n      DUP4 \t\t\t\n      PUSH [tag] 796\t\t\t\n      JUMP \t\t\t\n    tag 828\t\t\t\n      JUMPDEST \t\t\t\n      SWAP2 \t\t\t\n      POP \t\t\t\n      PUSH [tag] 829\t\t\t\n      PUSH 20\t\t\t\n      DUP5 \t\t\t\n      ADD \t\t\t\n      PUSH [tag] 796\t\t\t\n      JUMP \t\t\t\n    tag 829\t\t\t\n      JUMPDEST \t\t\t\n      SWAP1 \t\t\t\n      POP \t\t\t\n      SWAP3 \t\t\t  override(ERC20PermitUpgradea...\n      POP \t\t\t  override(ERC20PermitUpgradea...\n      SWAP3 \t\t\t  override(ERC20PermitUpgradea...\n      SWAP1 \t\t\t  override(ERC20PermitUpgradea...\n      POP \t\t\t  override(ERC20PermitUpgradea...\n      JUMP \t\t\t  override(ERC20PermitUpgradea...\n    tag 296\t\t\t\n      JUMPDEST \t\t\t\n      PUSH 4E487B71\t\t\t\n      PUSH E0\t\t\t\n      SHL \t\t\t\n      PUSH 0\t\t\t\n      MSTORE \t\t\t\n      PUSH 41\t\t\t\n      PUSH 4\t\t\t\n      MSTORE \t\t\t\n      PUSH 24\t\t\t\n      PUSH 0\t\t\t\n      REVERT \t\t\t\n    tag 88\t\t\t\n      JUMPDEST \t\t\t\n      PUSH 0\t\t\t\n      DUP1 \t\t\t\n      PUSH 40\t\t\t\n      DUP4 \t\t\t\n      DUP6 \t\t\t\n      SUB \t\t\t\n      SLT \t\t\t\n      ISZERO \t\t\t\n      PUSH [tag] 832\t\t\t\n      JUMPI \t\t\t\n      PUSH 0\t\t\t\n      DUP1 \t\t\t\n      REVERT \t\t\t\n    tag 832\t\t\t\n      JUMPDEST \t\t\t\n      PUSH [tag] 833\t\t\t\n      DUP4 \t\t\t\n      PUSH [tag] 796\t\t\t\n      JUMP \t\t\t\n    tag 833\t\t\t\n      JUMPDEST \t\t\t\n      SWAP2 \t\t\t\n      POP \t\t\t\n      PUSH 20\t\t\t\n      DUP4 \t\t\t\n      ADD \t\t\t\n      CALLDATALOAD \t\t\t\n      PUSH FFFFFFFFFFFFFFFF\t\t\t\n      DUP1 \t\t\t\n      DUP3 \t\t\t\n      GT \t\t\t\n      ISZERO \t\t\t\n      PUSH [tag] 834\t\t\t\n      JUMPI \t\t\t\n      PUSH 0\t\t\t\n      DUP1 \t\t\t\n      REVERT \t\t\t\n    tag 834\t\t\t\n      JUMPDEST \t\t\t\n      DUP2 \t\t\t\n      DUP6 \t\t\t\n      ADD \t\t\t\n      SWAP2 \t\t\t\n      POP \t\t\t\n      DUP6 \t\t\t\n      PUSH 1F\t\t\t\n      DUP4 \t\t\t\n      ADD \t\t\t\n      SLT \t\t\t\n      PUSH [tag] 835\t\t\t\n      JUMPI \t\t\t\n      PUSH 0\t\t\t\n      DUP1 \t\t\t\n      REVERT \t\t\t\n    tag 835\t\t\t\n      JUMPDEST \t\t\t\n      DUP2 \t\t\t\n      CALLDATALOAD \t\t\t\n      DUP2 \t\t\t\n      DUP2 \t\t\t\n      GT \t\t\t\n      ISZERO \t\t\t\n      PUSH [tag] 837\t\t\t\n      JUMPI \t\t\t\n      PUSH [tag] 837\t\t\t\n      PUSH [tag] 296\t\t\t\n      JUMP \t\t\t\n    tag 837\t\t\t\n      JUMPDEST \t\t\t\n      PUSH 40\t\t\t\n      MLOAD \t\t\t\n      PUSH 1F\t\t\t\n      DUP3 \t\t\t\n      ADD \t\t\t\n      PUSH 1F\t\t\t\n      NOT \t\t\t\n      SWAP1 \t\t\t\n      DUP2 \t\t\t\n      AND \t\t\t\n      PUSH 3F\t\t\t\n      ADD \t\t\t\n      AND \t\t\t\n      DUP2 \t\t\t\n      ADD \t\t\t\n      SWAP1 \t\t\t\n      DUP4 \t\t\t\n      DUP3 \t\t\t\n      GT \t\t\t\n      DUP2 \t\t\t\n      DUP4 \t\t\t\n      LT \t\t\t\n      OR \t\t\t\n      ISZERO \t\t\t\n      PUSH [tag] 839\t\t\t\n      JUMPI \t\t\t\n      PUSH [tag] 839\t\t\t\n      PUSH [tag] 296\t\t\t\n      JUMP \t\t\t\n    tag 839\t\t\t\n      JUMPDEST \t\t\t\n      DUP2 \t\t\t\n      PUSH 40\t\t\t\n      MSTORE \t\t\t\n      DUP3 \t\t\t\n      DUP2 \t\t\t\n      MSTORE \t\t\t\n      DUP9 \t\t\t\n      PUSH 20\t\t\t\n      DUP5 \t\t\t\n      DUP8 \t\t\t\n      ADD \t\t\t\n      ADD \t\t\t\n      GT \t\t\t\n      ISZERO \t\t\t\n      PUSH [tag] 840\t\t\t\n      JUMPI \t\t\t\n      PUSH 0\t\t\t\n      DUP1 \t\t\t\n      REVERT \t\t\t\n    tag 840\t\t\t\n      JUMPDEST \t\t\t\n      DUP3 \t\t\t\n      PUSH 20\t\t\t\n      DUP7 \t\t\t\n      ADD \t\t\t\n      PUSH 20\t\t\t\n      DUP4 \t\t\t\n      ADD \t\t\t\n      CALLDATACOPY \t\t\t\n      PUSH 0\t\t\t\n      PUSH 20\t\t\t\n      DUP5 \t\t\t\n      DUP4 \t\t\t\n      ADD \t\t\t\n      ADD \t\t\t\n      MSTORE \t\t\t\n      DUP1 \t\t\t\n      SWAP6 \t\t\t\n      POP \t\t\t\n      POP \t\t\t\n      POP \t\t\t\n      POP \t\t\t\n      POP \t\t\t\n      POP \t\t\t\n      SWAP3 \t\t\t\n      POP \t\t\t\n      SWAP3 \t\t\t\n      SWAP1 \t\t\t\n      POP \t\t\t\n      JUMP \t\t\t\n    tag 97\t\t\t\n      JUMPDEST \t\t\t\n      PUSH 0\t\t\t\n      PUSH 20\t\t\t\n      DUP3 \t\t\t\n      DUP5 \t\t\t\n      SUB \t\t\t\n      SLT \t\t\t\n      ISZERO \t\t\t\n      PUSH [tag] 842\t\t\t\n      JUMPI \t\t\t\n      PUSH 0\t\t\t\n      DUP1 \t\t\t\n      REVERT \t\t\t\n    tag 842\t\t\t\n      JUMPDEST \t\t\t\n      PUSH [tag] 204\t\t\t\n      DUP3 \t\t\t\n      PUSH [tag] 796\t\t\t\n      JUMP \t\t\t\n    tag 128\t\t\t\n      JUMPDEST \t\t\t\n      PUSH FF\t\t\t\n      PUSH F8\t\t\t\n      SHL \t\t\t\n      DUP9 \t\t\t\n      AND \t\t\t\n      DUP2 \t\t\t\n      MSTORE \t\t\t\n      PUSH 0\t\t\t\n      PUSH 20\t\t\t\n      PUSH E0\t\t\t\n      PUSH 20\t\t\t\n      DUP5 \t\t\t\n      ADD \t\t\t\n      MSTORE \t\t\t\n      PUSH [tag] 847\t\t\t\n      PUSH E0\t\t\t\n      DUP5 \t\t\t\n      ADD \t\t\t\n      DUP11 \t\t\t\n      PUSH [tag] 795\t\t\t\n      JUMP \t\t\t\n    tag 847\t\t\t\n      JUMPDEST \t\t\t\n      DUP4 \t\t\t\n      DUP2 \t\t\t\n      SUB \t\t\t\n      PUSH 40\t\t\t\n      DUP6 \t\t\t\n      ADD \t\t\t\n      MSTORE \t\t\t\n      PUSH [tag] 848\t\t\t\n      DUP2 \t\t\t\n      DUP11 \t\t\t\n      PUSH [tag] 795\t\t\t\n      JUMP \t\t\t\n    tag 848\t\t\t\n      JUMPDEST \t\t\t\n      PUSH 60\t\t\t\n      DUP6 \t\t\t\n      ADD \t\t\t\n      DUP10 \t\t\t\n      SWAP1 \t\t\t\n      MSTORE \t\t\t\n      PUSH 1\t\t\t\n      PUSH 1\t\t\t\n      PUSH A0\t\t\t\n      SHL \t\t\t\n      SUB \t\t\t\n      DUP9 \t\t\t\n      AND \t\t\t\n      PUSH 80\t\t\t\n      DUP7 \t\t\t\n      ADD \t\t\t\n      MSTORE \t\t\t\n      PUSH A0\t\t\t\n      DUP6 \t\t\t\n      ADD \t\t\t\n      DUP8 \t\t\t\n      SWAP1 \t\t\t\n      MSTORE \t\t\t\n      DUP5 \t\t\t\n      DUP2 \t\t\t\n      SUB \t\t\t\n      PUSH C0\t\t\t\n      DUP7 \t\t\t\n      ADD \t\t\t\n      MSTORE \t\t\t\n      DUP6 \t\t\t\n      MLOAD \t\t\t\n      DUP1 \t\t\t\n      DUP3 \t\t\t\n      MSTORE \t\t\t\n      PUSH 20\t\t\t\n      DUP1 \t\t\t\n      DUP9 \t\t\t\n      ADD \t\t\t\n      SWAP4 \t\t\t\n      POP \t\t\t\n      SWAP1 \t\t\t\n      SWAP2 \t\t\t\n      ADD \t\t\t\n      SWAP1 \t\t\t\n      PUSH 0\t\t\t\n    tag 849\t\t\t\n      JUMPDEST \t\t\t\n      DUP2 \t\t\t\n      DUP2 \t\t\t\n      LT \t\t\t\n      ISZERO \t\t\t\n      PUSH [tag] 851\t\t\t\n      JUMPI \t\t\t\n      DUP4 \t\t\t\n      MLOAD \t\t\t\n      DUP4 \t\t\t\n      MSTORE \t\t\t\n      SWAP3 \t\t\t\n      DUP5 \t\t\t\n      ADD \t\t\t\n      SWAP3 \t\t\t\n      SWAP2 \t\t\t\n      DUP5 \t\t\t\n      ADD \t\t\t\n      SWAP2 \t\t\t\n      PUSH 1\t\t\t\n      ADD \t\t\t\n      PUSH [tag] 849\t\t\t\n      JUMP \t\t\t\n    tag 851\t\t\t\n      JUMPDEST \t\t\t\n      POP \t\t\t\n      SWAP1 \t\t\t\n      SWAP13 \t\t\t\n      SWAP12 \t\t\t\n      POP \t\t\t\n      POP \t\t\t\n      POP \t\t\t\n      POP \t\t\t\n      POP \t\t\t\n      POP \t\t\t\n      POP \t\t\t\n      POP \t\t\t\n      POP \t\t\t\n      POP \t\t\t\n      POP \t\t\t\n      POP \t\t\t\n      JUMP \t\t\t\n    tag 136\t\t\t\n      JUMPDEST \t\t\t\n      PUSH 0\t\t\t\n      PUSH 20\t\t\t\n      DUP3 \t\t\t\n      DUP5 \t\t\t\n      SUB \t\t\t\n      SLT \t\t\t\n      ISZERO \t\t\t\n      PUSH [tag] 853\t\t\t\n      JUMPI \t\t\t\n      PUSH 0\t\t\t\n      DUP1 \t\t\t\n      REVERT \t\t\t\n    tag 853\t\t\t\n      JUMPDEST \t\t\t\n      POP \t\t\t\n      CALLDATALOAD \t\t\t\n      SWAP2 \t\t\t\n      SWAP1 \t\t\t\n      POP \t\t\t\n      JUMP \t\t\t\n    tag 797\t\t\t\n      JUMPDEST \t\t\t\n      DUP1 \t\t\t\n      CALLDATALOAD \t\t\t\n      PUSH FF\t\t\t\n      DUP2 \t\t\t\n      AND \t\t\t\n      DUP2 \t\t\t\n      EQ \t\t\t\n      PUSH [tag] 814\t\t\t\n      JUMPI \t\t\t\n      PUSH 0\t\t\t\n      DUP1 \t\t\t\n      REVERT \t\t\t\n    tag 165\t\t\t\n      JUMPDEST \t\t\t\n      PUSH 0\t\t\t\n      DUP1 \t\t\t\n      PUSH 0\t\t\t\n      DUP1 \t\t\t\n      PUSH 0\t\t\t\n      DUP1 \t\t\t\n      PUSH C0\t\t\t\n      DUP8 \t\t\t\n      DUP10 \t\t\t\n      SUB \t\t\t\n      SLT \t\t\t\n      ISZERO \t\t\t\n      PUSH [tag] 858\t\t\t\n      JUMPI \t\t\t\n      PUSH 0\t\t\t\n      DUP1 \t\t\t\n      REVERT \t\t\t\n    tag 858\t\t\t\n      JUMPDEST \t\t\t\n      PUSH [tag] 859\t\t\t\n      DUP8 \t\t\t\n      PUSH [tag] 796\t\t\t\n      JUMP \t\t\t\n    tag 859\t\t\t\n      JUMPDEST \t\t\t\n      SWAP6 \t\t\t\n      POP \t\t\t\n      PUSH 20\t\t\t\n      DUP8 \t\t\t\n      ADD \t\t\t\n      CALLDATALOAD \t\t\t\n      SWAP5 \t\t\t\n      POP \t\t\t\n      PUSH 40\t\t\t\n      DUP8 \t\t\t\n      ADD \t\t\t\n      CALLDATALOAD \t\t\t\n      SWAP4 \t\t\t\n      POP \t\t\t\n      PUSH [tag] 860\t\t\t\n      PUSH 60\t\t\t\n      DUP9 \t\t\t\n      ADD \t\t\t\n      PUSH [tag] 797\t\t\t\n      JUMP \t\t\t\n    tag 860\t\t\t\n      JUMPDEST \t\t\t\n      SWAP3 \t\t\t\n      POP \t\t\t\n      PUSH 80\t\t\t\n      DUP8 \t\t\t\n      ADD \t\t\t\n      CALLDATALOAD \t\t\t\n      SWAP2 \t\t\t\n      POP \t\t\t\n      PUSH A0\t\t\t\n      DUP8 \t\t\t\n      ADD \t\t\t\n      CALLDATALOAD \t\t\t\n      SWAP1 \t\t\t\n      POP \t\t\t\n      SWAP3 \t\t\t\n      SWAP6 \t\t\t\n      POP \t\t\t\n      SWAP3 \t\t\t\n      SWAP6 \t\t\t\n      POP \t\t\t\n      SWAP3 \t\t\t\n      SWAP6 \t\t\t\n      JUMP \t\t\t\n    tag 170\t\t\t\n      JUMPDEST \t\t\t\n      PUSH 0\t\t\t\n      DUP1 \t\t\t\n      PUSH 0\t\t\t\n      DUP1 \t\t\t\n      PUSH 0\t\t\t\n      DUP1 \t\t\t\n      PUSH 0\t\t\t\n      PUSH E0\t\t\t\n      DUP9 \t\t\t\n      DUP11 \t\t\t\n      SUB \t\t\t\n      SLT \t\t\t\n      ISZERO \t\t\t\n      PUSH [tag] 862\t\t\t\n      JUMPI \t\t\t\n      PUSH 0\t\t\t\n      DUP1 \t\t\t\n      REVERT \t\t\t\n    tag 862\t\t\t\n      JUMPDEST \t\t\t\n      PUSH [tag] 863\t\t\t\n      DUP9 \t\t\t\n      PUSH [tag] 796\t\t\t\n      JUMP \t\t\t\n    tag 863\t\t\t\n      JUMPDEST \t\t\t\n      SWAP7 \t\t\t\n      POP \t\t\t\n      PUSH [tag] 864\t\t\t\n      PUSH 20\t\t\t\n      DUP10 \t\t\t\n      ADD \t\t\t\n      PUSH [tag] 796\t\t\t\n      JUMP \t\t\t\n    tag 864\t\t\t\n      JUMPDEST \t\t\t\n      SWAP6 \t\t\t\n      POP \t\t\t\n      PUSH 40\t\t\t\n      DUP9 \t\t\t\n      ADD \t\t\t\n      CALLDATALOAD \t\t\t\n      SWAP5 \t\t\t\n      POP \t\t\t\n      PUSH 60\t\t\t\n      DUP9 \t\t\t\n      ADD \t\t\t\n      CALLDATALOAD \t\t\t\n      SWAP4 \t\t\t\n      POP \t\t\t\n      PUSH [tag] 865\t\t\t\n      PUSH 80\t\t\t\n      DUP10 \t\t\t\n      ADD \t\t\t\n      PUSH [tag] 797\t\t\t\n      JUMP \t\t\t\n    tag 865\t\t\t\n      JUMPDEST \t\t\t\n      SWAP3 \t\t\t\n      POP \t\t\t\n      PUSH A0\t\t\t\n      DUP9 \t\t\t\n      ADD \t\t\t\n      CALLDATALOAD \t\t\t\n      SWAP2 \t\t\t\n      POP \t\t\t\n      PUSH C0\t\t\t\n      DUP9 \t\t\t\n      ADD \t\t\t\n      CALLDATALOAD \t\t\t\n      SWAP1 \t\t\t\n      POP \t\t\t\n      SWAP3 \t\t\t\n      SWAP6 \t\t\t\n      SWAP9 \t\t\t\n      SWAP2 \t\t\t\n      SWAP5 \t\t\t\n      SWAP8 \t\t\t\n      POP \t\t\t\n      SWAP3 \t\t\t\n      SWAP6 \t\t\t\n      POP \t\t\t\n      JUMP \t\t\t\n    tag 180\t\t\t\n      JUMPDEST \t\t\t\n      PUSH 0\t\t\t\n      DUP1 \t\t\t\n      PUSH 40\t\t\t\n      DUP4 \t\t\t\n      DUP6 \t\t\t\n      SUB \t\t\t\n      SLT \t\t\t\n      ISZERO \t\t\t\n      PUSH [tag] 867\t\t\t\n      JUMPI \t\t\t\n      PUSH 0\t\t\t\n      DUP1 \t\t\t\n      REVERT \t\t\t\n    tag 867\t\t\t\n      JUMPDEST \t\t\t\n      PUSH [tag] 868\t\t\t\n      DUP4 \t\t\t\n      PUSH [tag] 796\t\t\t\n      JUMP \t\t\t\n    tag 868\t\t\t\n      JUMPDEST \t\t\t\n      SWAP2 \t\t\t\n      POP \t\t\t\n      PUSH 20\t\t\t\n      DUP4 \t\t\t\n      ADD \t\t\t\n      CALLDATALOAD \t\t\t\n      PUSH FFFFFFFF\t\t\t\n      DUP2 \t\t\t\n      AND \t\t\t\n      DUP2 \t\t\t\n      EQ \t\t\t\n      PUSH [tag] 869\t\t\t\n      JUMPI \t\t\t\n      PUSH 0\t\t\t\n      DUP1 \t\t\t\n      REVERT \t\t\t\n    tag 869\t\t\t\n      JUMPDEST \t\t\t\n      DUP1 \t\t\t\n      SWAP2 \t\t\t\n      POP \t\t\t\n      POP \t\t\t\n      SWAP3 \t\t\t\n      POP \t\t\t\n      SWAP3 \t\t\t\n      SWAP1 \t\t\t\n      POP \t\t\t\n      JUMP \t\t\t\n    tag 192\t\t\t\n      JUMPDEST \t\t\t\n      PUSH 1\t\t\t\n      DUP2 \t\t\t\n      DUP2 \t\t\t\n      SHR \t\t\t\n      SWAP1 \t\t\t\n      DUP3 \t\t\t\n      AND \t\t\t\n      DUP1 \t\t\t\n      PUSH [tag] 872\t\t\t\n      JUMPI \t\t\t\n      PUSH 7F\t\t\t\n      DUP3 \t\t\t\n      AND \t\t\t\n      SWAP2 \t\t\t\n      POP \t\t\t\n    tag 872\t\t\t\n      JUMPDEST \t\t\t\n      PUSH 20\t\t\t\n      DUP3 \t\t\t\n      LT \t\t\t\n      DUP2 \t\t\t\n      SUB \t\t\t\n      PUSH [tag] 873\t\t\t\n      JUMPI \t\t\t\n      PUSH 4E487B71\t\t\t\n      PUSH E0\t\t\t\n      SHL \t\t\t\n      PUSH 0\t\t\t\n      MSTORE \t\t\t\n      PUSH 22\t\t\t\n      PUSH 4\t\t\t\n      MSTORE \t\t\t\n      PUSH 24\t\t\t\n      PUSH 0\t\t\t\n      REVERT \t\t\t\n    tag 873\t\t\t\n      JUMPDEST \t\t\t\n      POP \t\t\t\n      SWAP2 \t\t\t\n      SWAP1 \t\t\t\n      POP \t\t\t\n      JUMP \t\t\t\n    tag 798\t\t\t\n      JUMPDEST \t\t\t\n      PUSH 4E487B71\t\t\t\n      PUSH E0\t\t\t\n      SHL \t\t\t\n      PUSH 0\t\t\t\n      MSTORE \t\t\t\n      PUSH 11\t\t\t\n      PUSH 4\t\t\t\n      MSTORE \t\t\t\n      PUSH 24\t\t\t\n      PUSH 0\t\t\t\n      REVERT \t\t\t\n    tag 799\t\t\t\n      JUMPDEST \t\t\t\n      PUSH 1\t\t\t\n      DUP2 \t\t\t\n      DUP2 \t\t\t\n    tag 876\t\t\t\n      JUMPDEST \t\t\t\n      DUP1 \t\t\t\n      DUP6 \t\t\t\n      GT \t\t\t\n      ISZERO \t\t\t\n      PUSH [tag] 878\t\t\t\n      JUMPI \t\t\t\n      DUP2 \t\t\t\n      PUSH 0\t\t\t\n      NOT \t\t\t\n      DIV \t\t\t\n      DUP3 \t\t\t\n      GT \t\t\t\n      ISZERO \t\t\t\n      PUSH [tag] 880\t\t\t\n      JUMPI \t\t\t\n      PUSH [tag] 880\t\t\t\n      PUSH [tag] 798\t\t\t\n      JUMP \t\t\t\n    tag 880\t\t\t\n      JUMPDEST \t\t\t\n      DUP1 \t\t\t\n      DUP6 \t\t\t\n      AND \t\t\t\n      ISZERO \t\t\t\n      PUSH [tag] 881\t\t\t\n      JUMPI \t\t\t\n      SWAP2 \t\t\t\n      DUP2 \t\t\t\n      MUL \t\t\t\n      SWAP2 \t\t\t\n    tag 881\t\t\t\n      JUMPDEST \t\t\t\n      SWAP4 \t\t\t\n      DUP5 \t\t\t\n      SHR \t\t\t\n      SWAP4 \t\t\t\n      SWAP1 \t\t\t\n      DUP1 \t\t\t\n      MUL \t\t\t\n      SWAP1 \t\t\t\n      PUSH [tag] 876\t\t\t\n      JUMP \t\t\t\n    tag 878\t\t\t\n      JUMPDEST \t\t\t\n      POP \t\t\t\n      SWAP3 \t\t\t\n      POP \t\t\t\n      SWAP3 \t\t\t\n      SWAP1 \t\t\t\n      POP \t\t\t\n      JUMP \t\t\t\n    tag 800\t\t\t\n      JUMPDEST \t\t\t\n      PUSH 0\t\t\t\n      DUP3 \t\t\t\n      PUSH [tag] 883\t\t\t\n      JUMPI \t\t\t\n      POP \t\t\t\n      PUSH 1\t\t\t\n      PUSH [tag] 197\t\t\t\n      JUMP \t\t\t\n    tag 883\t\t\t\n      JUMPDEST \t\t\t\n      DUP2 \t\t\t\n      PUSH [tag] 884\t\t\t\n      JUMPI \t\t\t\n      POP \t\t\t\n      PUSH 0\t\t\t\n      PUSH [tag] 197\t\t\t\n      JUMP \t\t\t\n    tag 884\t\t\t\n      JUMPDEST \t\t\t\n      DUP2 \t\t\t\n      PUSH 1\t\t\t\n      DUP2 \t\t\t\n      EQ \t\t\t\n      PUSH [tag] 886\t\t\t\n      JUMPI \t\t\t\n      PUSH 2\t\t\t\n      DUP2 \t\t\t\n      EQ \t\t\t\n      PUSH [tag] 887\t\t\t\n      JUMPI \t\t\t\n      PUSH [tag] 885\t\t\t\n      JUMP \t\t\t\n    tag 886\t\t\t\n      JUMPDEST \t\t\t\n      PUSH 1\t\t\t\n      SWAP2 \t\t\t\n      POP \t\t\t\n      POP \t\t\t\n      PUSH [tag] 197\t\t\t\n      JUMP \t\t\t\n    tag 887\t\t\t\n      JUMPDEST \t\t\t\n      PUSH FF\t\t\t\n      DUP5 \t\t\t\n      GT \t\t\t\n      ISZERO \t\t\t\n      PUSH [tag] 889\t\t\t\n      JUMPI \t\t\t\n      PUSH [tag] 889\t\t\t\n      PUSH [tag] 798\t\t\t\n      JUMP \t\t\t\n    tag 889\t\t\t\n      JUMPDEST \t\t\t\n      POP \t\t\t\n      POP \t\t\t\n      PUSH 1\t\t\t\n      DUP3 \t\t\t\n      SHL \t\t\t\n      PUSH [tag] 197\t\t\t\n      JUMP \t\t\t\n    tag 885\t\t\t\n      JUMPDEST \t\t\t\n      POP \t\t\t\n      PUSH 20\t\t\t\n      DUP4 \t\t\t\n      LT \t\t\t\n      PUSH 133\t\t\t\n      DUP4 \t\t\t\n      LT \t\t\t\n      AND \t\t\t\n      PUSH 4E\t\t\t\n      DUP5 \t\t\t\n      LT \t\t\t\n      PUSH B\t\t\t\n      DUP5 \t\t\t\n      LT \t\t\t\n      AND \t\t\t\n      OR \t\t\t\n      ISZERO \t\t\t\n      PUSH [tag] 890\t\t\t\n      JUMPI \t\t\t\n      POP \t\t\t\n      DUP2 \t\t\t\n      DUP2 \t\t\t\n      EXP \t\t\t\n      PUSH [tag] 197\t\t\t\n      JUMP \t\t\t\n    tag 890\t\t\t\n      JUMPDEST \t\t\t\n      PUSH [tag] 891\t\t\t\n      DUP4 \t\t\t\n      DUP4 \t\t\t\n      PUSH [tag] 799\t\t\t\n      JUMP \t\t\t\n    tag 891\t\t\t\n      JUMPDEST \t\t\t\n      DUP1 \t\t\t\n      PUSH 0\t\t\t\n      NOT \t\t\t\n      DIV \t\t\t\n      DUP3 \t\t\t\n      GT \t\t\t\n      ISZERO \t\t\t\n      PUSH [tag] 893\t\t\t\n      JUMPI \t\t\t\n      PUSH [tag] 893\t\t\t\n      PUSH [tag] 798\t\t\t\n      JUMP \t\t\t\n    tag 893\t\t\t\n      JUMPDEST \t\t\t\n      MUL \t\t\t\n      SWAP4 \t\t\t\n      SWAP3 \t\t\t\n      POP \t\t\t\n      POP \t\t\t\n      POP \t\t\t\n      JUMP \t\t\t\n    tag 243\t\t\t\n      JUMPDEST \t\t\t\n      PUSH 0\t\t\t\n      PUSH [tag] 204\t\t\t\n      PUSH FF\t\t\t\n      DUP5 \t\t\t\n      AND \t\t\t\n      DUP4 \t\t\t\n      PUSH [tag] 800\t\t\t\n      JUMP \t\t\t\n    tag 245\t\t\t\n      JUMPDEST \t\t\t\n      DUP1 \t\t\t\n      DUP3 \t\t\t\n      MUL \t\t\t\n      DUP2 \t\t\t\n      ISZERO \t\t\t\n      DUP3 \t\t\t\n      DUP3 \t\t\t\n      DIV \t\t\t\n      DUP5 \t\t\t\n      EQ \t\t\t\n      OR \t\t\t\n      PUSH [tag] 197\t\t\t\n      JUMPI \t\t\t\n      PUSH [tag] 197\t\t\t\n      PUSH [tag] 798\t\t\t\n      JUMP \t\t\t\n    tag 393\t\t\t\n      JUMPDEST \t\t\t\n      DUP2 \t\t\t\n      DUP2 \t\t\t\n      SUB \t\t\t\n      DUP2 \t\t\t\n      DUP2 \t\t\t\n      GT \t\t\t\n      ISZERO \t\t\t\n      PUSH [tag] 197\t\t\t\n      JUMPI \t\t\t\n      PUSH [tag] 197\t\t\t\n      PUSH [tag] 798\t\t\t\n      JUMP \t\t\t\n    tag 399\t\t\t\n      JUMPDEST \t\t\t\n      DUP1 \t\t\t\n      DUP3 \t\t\t\n      ADD \t\t\t\n      DUP1 \t\t\t\n      DUP3 \t\t\t\n      GT \t\t\t\n      ISZERO \t\t\t\n      PUSH [tag] 197\t\t\t\n      JUMPI \t\t\t\n      PUSH [tag] 197\t\t\t\n      PUSH [tag] 798\t\t\t\n      JUMP \t\t\t\n    tag 444\t\t\t\n      JUMPDEST \t\t\t\n      PUSH 0\t\t\t\n      PUSH 20\t\t\t\n      DUP3 \t\t\t\n      DUP5 \t\t\t\n      SUB \t\t\t\n      SLT \t\t\t\n      ISZERO \t\t\t\n      PUSH [tag] 913\t\t\t\n      JUMPI \t\t\t\n      PUSH 0\t\t\t\n      DUP1 \t\t\t\n      REVERT \t\t\t\n    tag 913\t\t\t\n      JUMPDEST \t\t\t\n      POP \t\t\t\n      MLOAD \t\t\t\n      SWAP2 \t\t\t\n      SWAP1 \t\t\t\n      POP \t\t\t\n      JUMP \t\t\t\n    tag 557\t\t\t\n      JUMPDEST \t\t\t\n      PUSH 4E487B71\t\t\t\n      PUSH E0\t\t\t\n      SHL \t\t\t\n      PUSH 0\t\t\t\n      MSTORE \t\t\t\n      PUSH 12\t\t\t\n      PUSH 4\t\t\t\n      MSTORE \t\t\t\n      PUSH 24\t\t\t\n      PUSH 0\t\t\t\n      REVERT \t\t\t\n    tag 802\t\t\t\n      JUMPDEST \t\t\t\n      PUSH 1F\t\t\t\n      DUP3 \t\t\t\n      GT \t\t\t\n      ISZERO \t\t\t\n      PUSH [tag] 361\t\t\t\n      JUMPI \t\t\t\n      DUP1 \t\t\t\n      PUSH 0\t\t\t\n      MSTORE \t\t\t\n      PUSH 20\t\t\t\n      PUSH 0\t\t\t\n      KECCAK256 \t\t\t\n      PUSH 1F\t\t\t\n      DUP5 \t\t\t\n      ADD \t\t\t\n      PUSH 5\t\t\t\n      SHR \t\t\t\n      DUP2 \t\t\t\n      ADD \t\t\t\n      PUSH 20\t\t\t\n      DUP6 \t\t\t\n      LT \t\t\t\n      ISZERO \t\t\t\n      PUSH [tag] 921\t\t\t\n      JUMPI \t\t\t\n      POP \t\t\t\n      DUP1 \t\t\t\n    tag 921\t\t\t\n      JUMPDEST \t\t\t\n      PUSH 1F\t\t\t\n      DUP5 \t\t\t\n      ADD \t\t\t\n      PUSH 5\t\t\t\n      SHR \t\t\t\n      DUP3 \t\t\t\n      ADD \t\t\t\n      SWAP2 \t\t\t\n      POP \t\t\t\n    tag 922\t\t\t\n      JUMPDEST \t\t\t\n      DUP2 \t\t\t\n      DUP2 \t\t\t\n      LT \t\t\t\n      ISZERO \t\t\t\n      PUSH [tag] 530\t\t\t\n      JUMPI \t\t\t\n      PUSH 0\t\t\t\n      DUP2 \t\t\t\n      SSTORE \t\t\t\n      PUSH 1\t\t\t\n      ADD \t\t\t\n      PUSH [tag] 922\t\t\t\n      JUMP \t\t\t\n    tag 591\t\t\t\n      JUMPDEST \t\t\t\n      DUP2 \t\t\t\n      MLOAD \t\t\t\n      PUSH FFFFFFFFFFFFFFFF\t\t\t\n      DUP2 \t\t\t\n      GT \t\t\t\n      ISZERO \t\t\t\n      PUSH [tag] 928\t\t\t\n      JUMPI \t\t\t\n      PUSH [tag] 928\t\t\t\n      PUSH [tag] 296\t\t\t\n      JUMP \t\t\t\n    tag 928\t\t\t\n      JUMPDEST \t\t\t\n      PUSH [tag] 929\t\t\t\n      DUP2 \t\t\t\n      PUSH [tag] 930\t\t\t\n      DUP5 \t\t\t\n      SLOAD \t\t\t\n      PUSH [tag] 192\t\t\t\n      JUMP \t\t\t\n    tag 930\t\t\t\n      JUMPDEST \t\t\t\n      DUP5 \t\t\t\n      PUSH [tag] 802\t\t\t\n      JUMP \t\t\t\n    tag 929\t\t\t\n      JUMPDEST \t\t\t\n      PUSH 20\t\t\t\n      DUP1 \t\t\t\n      PUSH 1F\t\t\t\n      DUP4 \t\t\t\n      GT \t\t\t\n      PUSH 1\t\t\t\n      DUP2 \t\t\t\n      EQ \t\t\t\n      PUSH [tag] 932\t\t\t\n      JUMPI \t\t\t\n      PUSH 0\t\t\t\n      DUP5 \t\t\t\n      ISZERO \t\t\t\n      PUSH [tag] 933\t\t\t\n      JUMPI \t\t\t\n      POP \t\t\t\n      DUP6 \t\t\t\n      DUP4 \t\t\t\n      ADD \t\t\t\n      MLOAD \t\t\t\n    tag 933\t\t\t\n      JUMPDEST \t\t\t\n      PUSH 0\t\t\t\n      NOT \t\t\t\n      PUSH 3\t\t\t\n      DUP7 \t\t\t\n      SWAP1 \t\t\t\n      SHL \t\t\t\n      SHR \t\t\t\n      NOT \t\t\t\n      AND \t\t\t\n      PUSH 1\t\t\t\n      DUP6 \t\t\t\n      SWAP1 \t\t\t\n      SHL \t\t\t\n      OR \t\t\t\n      DUP6 \t\t\t\n      SSTORE \t\t\t\n      PUSH [tag] 931\t\t\t\n      JUMP \t\t\t\n    tag 932\t\t\t\n      JUMPDEST \t\t\t\n      PUSH 0\t\t\t\n      DUP6 \t\t\t\n      DUP2 \t\t\t\n      MSTORE \t\t\t\n      PUSH 20\t\t\t\n      DUP2 \t\t\t\n      KECCAK256 \t\t\t\n      PUSH 1F\t\t\t\n      NOT \t\t\t\n      DUP7 \t\t\t\n      AND \t\t\t\n      SWAP2 \t\t\t\n    tag 936\t\t\t\n      JUMPDEST \t\t\t\n      DUP3 \t\t\t\n      DUP2 \t\t\t\n      LT \t\t\t\n      ISZERO \t\t\t\n      PUSH [tag] 938\t\t\t\n      JUMPI \t\t\t\n      DUP9 \t\t\t\n      DUP7 \t\t\t\n      ADD \t\t\t\n      MLOAD \t\t\t\n      DUP3 \t\t\t\n      SSTORE \t\t\t\n      SWAP5 \t\t\t\n      DUP5 \t\t\t\n      ADD \t\t\t\n      SWAP5 \t\t\t\n      PUSH 1\t\t\t\n      SWAP1 \t\t\t\n      SWAP2 \t\t\t\n      ADD \t\t\t\n      SWAP1 \t\t\t\n      DUP5 \t\t\t\n      ADD \t\t\t\n      PUSH [tag] 936\t\t\t\n      JUMP \t\t\t\n    tag 938\t\t\t\n      JUMPDEST \t\t\t\n      POP \t\t\t\n      DUP6 \t\t\t\n      DUP3 \t\t\t\n      LT \t\t\t\n      ISZERO \t\t\t\n      PUSH [tag] 939\t\t\t\n      JUMPI \t\t\t\n      DUP8 \t\t\t\n      DUP6 \t\t\t\n      ADD \t\t\t\n      MLOAD \t\t\t\n      PUSH 0\t\t\t\n      NOT \t\t\t\n      PUSH 3\t\t\t\n      DUP9 \t\t\t\n      SWAP1 \t\t\t\n      SHL \t\t\t\n      PUSH F8\t\t\t\n      AND \t\t\t\n      SHR \t\t\t\n      NOT \t\t\t\n      AND \t\t\t\n      DUP2 \t\t\t\n      SSTORE \t\t\t\n    tag 939\t\t\t\n      JUMPDEST \t\t\t\n      POP \t\t\t\n      POP \t\t\t\n      PUSH 1\t\t\t\n      DUP5 \t\t\t\n      PUSH 1\t\t\t\n      SHL \t\t\t\n      ADD \t\t\t\n      DUP6 \t\t\t\n      SSTORE \t\t\t\n    tag 931\t\t\t\n      JUMPDEST \t\t\t\n      POP \t\t\t\n      POP \t\t\t\n      POP \t\t\t\n      POP \t\t\t\n      POP \t\t\t\n      POP \t\t\t\n      JUMP \t\t\t\n    tag 654\t\t\t\n      JUMPDEST \t\t\t\n      PUSH 4E487B71\t\t\t\n      PUSH E0\t\t\t\n      SHL \t\t\t\n      PUSH 0\t\t\t\n      MSTORE \t\t\t\n      PUSH 21\t\t\t\n      PUSH 4\t\t\t\n      MSTORE \t\t\t\n      PUSH 24\t\t\t\n      PUSH 0\t\t\t\n      REVERT \t\t\t\n    tag 683\t\t\t\n      JUMPDEST \t\t\t\n      PUSH 4E487B71\t\t\t\n      PUSH E0\t\t\t\n      SHL \t\t\t\n      PUSH 0\t\t\t\n      MSTORE \t\t\t\n      PUSH 32\t\t\t\n      PUSH 4\t\t\t\n      MSTORE \t\t\t\n      PUSH 24\t\t\t\n      PUSH 0\t\t\t\n      REVERT \t\t\t\n    tag 713\t\t\t\n      JUMPDEST \t\t\t\n      PUSH 0\t\t\t\n      DUP3 \t\t\t\n      PUSH [tag] 946\t\t\t\n      JUMPI \t\t\t\n      PUSH 4E487B71\t\t\t\n      PUSH E0\t\t\t\n      SHL \t\t\t\n      PUSH 0\t\t\t\n      MSTORE \t\t\t\n      PUSH 12\t\t\t\n      PUSH 4\t\t\t\n      MSTORE \t\t\t\n      PUSH 24\t\t\t\n      PUSH 0\t\t\t\n      REVERT \t\t\t\n    tag 946\t\t\t\n      JUMPDEST \t\t\t\n      POP \t\t\t\n      DIV \t\t\t\n      SWAP1 \t\t\t\n      JUMP \t\t\t\n    tag 724\t\t\t\n      JUMPDEST \t\t\t\n      PUSH 0\t\t\t\n      DUP3 \t\t\t\n      MLOAD \t\t\t\n      PUSH [tag] 948\t\t\t\n      DUP2 \t\t\t\n      DUP5 \t\t\t\n      PUSH 20\t\t\t\n      DUP8 \t\t\t\n      ADD \t\t\t\n      PUSH [tag] 794\t\t\t\n      JUMP \t\t\t\n    tag 948\t\t\t\n      JUMPDEST \t\t\t\n      SWAP2 \t\t\t\n      SWAP1 \t\t\t\n      SWAP2 \t\t\t\n      ADD \t\t\t\n      SWAP3 \t\t\t\n      SWAP2 \t\t\t\n      POP \t\t\t\n      POP \t\t\t\n      JUMP \t\t\t\n    tag 734\t\t\t\n      JUMPDEST \t\t\t\n      PUSH 1\t\t\t\n      PUSH 1\t\t\t\n      PUSH D0\t\t\t\n      SHL \t\t\t\n      SUB \t\t\t\n      DUP3 \t\t\t\n      DUP2 \t\t\t\n      AND \t\t\t\n      DUP3 \t\t\t\n      DUP3 \t\t\t\n      AND \t\t\t\n      SUB \t\t\t\n      SWAP1 \t\t\t\n      DUP1 \t\t\t\n      DUP3 \t\t\t\n      GT \t\t\t\n      ISZERO \t\t\t\n      PUSH [tag] 951\t\t\t\n      JUMPI \t\t\t\n      PUSH [tag] 951\t\t\t\n      PUSH [tag] 798\t\t\t\n      JUMP \t\t\t\n    tag 951\t\t\t\n      JUMPDEST \t\t\t\n      POP \t\t\t\n      SWAP3 \t\t\t\n      SWAP2 \t\t\t\n      POP \t\t\t\n      POP \t\t\t\n      JUMP \t\t\t\n    tag 747\t\t\t\n      JUMPDEST \t\t\t\n      PUSH 1\t\t\t\n      PUSH 1\t\t\t\n      PUSH D0\t\t\t\n      SHL \t\t\t\n      SUB \t\t\t\n      DUP2 \t\t\t\n      DUP2 \t\t\t\n      AND \t\t\t\n      DUP4 \t\t\t\n      DUP3 \t\t\t\n      AND \t\t\t\n      ADD \t\t\t\n      SWAP1 \t\t\t\n      DUP1 \t\t\t\n      DUP3 \t\t\t\n      GT \t\t\t\n      ISZERO \t\t\t\n      PUSH [tag] 951\t\t\t\n      JUMPI \t\t\t\n      PUSH [tag] 951\t\t\t\n      PUSH [tag] 798\t\t\t\n      JUMP \t\t\t\n    .data\n      23484935BDF196CA31423939A31C04B740AF4DE11AC0940ED78D38B36817EC46:\n        e8b26c30fad74198956032a3533d903385d56dd795af560196f9c78d4af40d00\n      3874827173E8DF9F34323B12B251D1D3C53926CE129E30A0D69F1D47C277041B:\n        52c63247e1f47db19d5ce0460030c497f067ca4cebf71ba98eeadabe20bace00\n      60016240B4CAF95CE61FF2092E1488B3D1AFF76BEE1C89F54239447D6827D736:\n        a16a46d94261c7517cc8ff89f61c0ce93598e3c849801011dee649a6a557d100\n      75B20EEF8615DE99C108B05F0DBDA081C91897128CAA336D75DFFB97C4132B4D:\n        360894a13ba1a3210667c828492db98dca3e2076cc3735a920a3ca505d382bbc\n"
}